:020000040800F2
:10000000C00900201902000821020008230200088C
:10001000250200082702000829020008000000004D
:100020000000000000000000000000002B0200089B
:100030002D020008000000002F0200083102000815
:1000400033020008330200083302000833020008BC
:1000500033020008330200083302000833020008AC
:10006000330200086D1F0008E31F00083302000878
:10007000330200083302000833020008330200088C
:10008000330200083302000833020008330200087C
:10009000330200083302000833020008330200086C
:1000A000330200083302000833020008330200085C
:1000B0004F20000833020008330200083302000812
:1000C000330200083302000833020008330200083C
:1000D000330200083302000833020008330200082C
:1000E000330200083302000833020008330200081C
:1000F000330200083302000833020008330200080C
:1001000033020008330200083302000833020008FB
:10011000A11E000833020008330200083302000861
:1001200033020008330200083302000833020008DB
:1001300000F002F800F061F80AA090E8000C824498
:100140008344AAF10107DA4501D100F056F8AFF275
:10015000090EBAE80F0013F0010F18BFFB1A43F0A5
:10016000010318477C5F00009C5F00000A444FF0C9
:10017000000C10F8013B13F0070408BF10F8014B06
:100180001D1108BF10F8015B641E05D010F8016B4B
:10019000641E01F8016BF9D113F0080F1EBF10F8AF
:1001A000014BAD1C0C1B09D16D1E58BF01F801CBD2
:1001B000FAD505E014F8016B01F8016B6D1EF9D555
:1001C0009142D6D37047000000230024002500266A
:1001D000103A28BF78C1FBD8520728BF30C148BFAA
:1001E0000B607047632904F08A80002070471FB5B8
:1001F00005F09BFD1FBD10B510BD04F095F811462C
:10020000FFF7F5FF01F052FA04F0B3F803B4FFF77B
:10021000F2FF03BC04F0B8F80948804709480047DA
:10022000FEE7FEE7FEE7FEE7FEE7FEE7FEE7FEE7A6
:10023000FEE7FEE704480549054A064B7047000003
:10024000C921000831010008C0030020C0090020B6
:10025000C0050020C00500202DE9F04F87B0FE4901
:10026000FE48006805F09AFC0446FD4801682046F7
:1002700005F044FBFB490860FB49887805F07AFCEF
:100280000546F8480168284605F088FC0446F74909
:1002900005F096FBF6490860F6480168F1480068E9
:1002A00005F050FD0546F049487905F063FC064627
:1002B000EE4905F085FB0446294605F06FFCEE4942
:1002C0000860E8480068EB490860EB480168E848C6
:1002D000006805F013FBE9490860E349087A05F076
:1002E00067F880468946E548006805F0DBFACDE905
:1002F000020104F04BFD06460022E14B05F0A8F890
:1003000042464B46CDE9040105F0A2F882460022A0
:10031000DC4B04F0C5FD044604F0D6FFDA49086062
:10032000D149087A05F044F8CDE90401D3480068C2
:1003300005F0B8FA8046D54AD54B04F0B1FD064623
:1003400004F024FD0022CE4BCDE9000105F080F839
:10035000CDE90201DDE9042305F07AF80446002224
:10036000C84B04F09DFD824604F0AEFFC949086009
:10037000BD49087A05F01CF880468946BF480068E8
:1003800005F090FA0646C44AC44B04F089FDCDE955
:10039000000104F0FBFC0022B94BCDE9020105F09D
:1003A00057F8044642464B4605F052F88246002272
:1003B000B44B04F075FDCDE9040104F085FFB849A4
:1003C0000860B148006840F2A231884202DB08466A
:1003D000AD490860AF48006840F2A231884202DBB4
:1003E0000846AC490860AE48006840F2A231884235
:1003F00002DB0846AA490860A34800680A2802DC14
:100400000A20A1490860A34800680A2802DC0A20E3
:10041000A0490860A24800680A2802DC0A20A04916
:100420000860994800689F4908809A480068091D3B
:1004300008809B480068091D088093480068463082
:100440009149086093480068463092490860944892
:1004500000684630924908608B480068B0F57A7FA2
:1004600003DB4FF47A70884908608A480068B0F569
:100470007A7F03DB4FF47A70864908608848006809
:10048000B0F57A7F03DB4FF47A70854908607E48C7
:100490000068854908807F480068091D08808048F9
:1004A0000068091D088007B0BDE8F08F2DE9F04F06
:1004B00087B069497D48006805F070FB04467C48B8
:1004C0000168204605F01AFA7A49086066494878BA
:1004D00005F050FB054677480168284605F05EFBAD
:1004E0000446624905F06CFA734908607348016874
:1004F0007048006805F026FC05465B49087905F060
:1005000039FB0646594905F05BFA0446294605F0D1
:1005100045FB6B490860674800686849086068489F
:1005200001686548006805F0E9F9664908604E49C8
:10053000C87904F03DFF804689466248006805F0AE
:10054000B1F9CDE9020104F021FC064600224C4B32
:1005500004F07EFF42464B46CDE9040104F078FFEB
:1005600082460022474B04F09BFC044604F0DCFE6C
:10057000554908803C49C87904F01AFFCDE90401C7
:100580005048006805F08EF98046404A404B04F020
:1005900087FC064604F0FAFB0022394BCDE9000146
:1005A00004F056FFCDE90201DDE9042304F050FF19
:1005B00004460022334B04F073FC824604F0B4FE80
:1005C0004149091D08802849C87904F0F1FE804698
:1005D00089463C48006805F065F906462E4A2F4BCF
:1005E00004F05EFCCDE9000104F0D0FB0022244BB6
:1005F000CDE9020104F02CFF044642464B4604F0CC
:1006000027FF824600221F4B04F04AFCCDE904017B
:1006100004F08AFE2C490831088007B0BDE8F08F4D
:100620002DE9F04F87B00C492848006805F0B6FA6C
:10063000044627480168204605F060F9254908600E
:100640000949087805F096FA0546224801682846C7
:1006500005F0A4FA04463FE000007A4420000020A0
:100660001C00002090020020240000200000C8424E
:1006700098020020940200209C0200208C0200209E
:100680000000144000407F40B4010020B81E85EBFC
:1006900051B80040B8010020C3F5285C8FC210405B
:1006A000BC01002034080040340C00401800002039
:1006B0001400002070020020780200207402002044
:1006C0007C0200206C020020343401401000002025
:1006D0000C0000204C020020FC4905F071F9FC4997
:1006E0000860FC480168FC48006805F02BFB0546E3
:1006F000FA49C87805F03EFA0646F44905F060F973
:100700000446294605F04AFAF5490860F2480068AF
:10071000F0490860F2480168ED48006805F0EEF81D
:10072000F0490860ED49887904F042FE8046894628
:10073000EC48006805F0B6F8CDE9020104F026FBAC
:1007400006460022E84B04F083FE42464B46CDE9C4
:10075000040104F07DFE82460022E44B04F0A0FB7D
:10076000044604F0E1FDE2490880DC49887904F0A0
:100770001FFECDE90401DB48006805F093F88046D0
:10078000DC4ADD4B04F08CFB064604F0FFFA002245
:10079000D54BCDE9000104F05BFECDE90201DDE9B6
:1007A000042304F055FE04460022D04B04F078FBED
:1007B000824604F0B9FDCE49091D0880C7498879F1
:1007C00004F0F6FD80468946C648006805F06AF8E0
:1007D0000646CA4ACA4B04F063FBCDE9000104F0A7
:1007E000D5FA0022C04BCDE9020104F031FE0446E7
:1007F00042464B4604F02CFE82460022BB4B04F0DE
:100800004FFBCDE9040104F08FFDB94908310880A0
:1008100007B0BDE8F08F10B50520BA490880002068
:1008200048804FF47A7088804FF40070C880B648D2
:1008300002F0D0F96020B5490880012048800020EE
:10084000C8800881B04802F08DFA6020AF49088066
:10085000012048800020C8800881AB4802F039FAA6
:100860006020AA490880012048800020C8800881B3
:10087000A54802F0ECF910BD10B50520A14908808B
:10088000002048804FF47A7088804FF40070C88050
:100890009F4802F09FF960209C4908800120488011
:1008A0000020C88002200881994802F05BFA60208D
:1008B00096490880012048800020C88002200881D5
:1008C000934802F006FA6020904908800120488091
:1008D0000020C880022008818D4802F0B8F910BDC0
:1008E00010B5052087490880002048804FF47A70B1
:1008F000888000208749C88008728249864802F0B3
:1009000069F960208149088001204880042088809E
:100910000020C880088148814FF4807088810020C1
:10092000C8817D4802F093F978497B4802F0D1F9FB
:100930007649794802F016FA4FF40060774908804A
:100940004010488080108880C820C880002008811E
:100950004FF400504881400088816F4802F035FC18
:1009600001216D4802F066FC01216B4802F06EFC2B
:1009700010BD10B5052063490880002048804FF461
:100980007A70888000206349C88008725D495848A1
:10099000343802F01FF960205C490880012048804B
:1009A000042088800020C880088148814FF480702E
:1009B00088810020C8814E48343802F048F95349F4
:1009C0004B48343802F085F950494948343802F030
:1009D000C9F94FF4006051490880401048808010E8
:1009E0008880C820C880002008814FF400504881CA
:1009F000400088813E48343802F0E7FB01213C4842
:100A0000343802F017FC01213948343802F01EFC5A
:100A100010BD10B50446032301222146404803F0CF
:100A2000FAF901213E4803F0CAF900BF02213C480F
:100A300003F020FB0028F9D0394803F053FA10BD29
:100A40000A2000E0401E0028FCD1704710B50022AB
:100A50004FF48061334801F046FDFFF7F1FF0022BB
:100A60004FF400612F4801F03EFDFFF7E9FF01223E
:100A700091022C4801F037FDFFF7E2FF0122D1027D
:100A8000284801F030FDFFF7DBFF10BD10B5002254
:100A90004FF48061234801F026FDFFF7D1FF0122CA
:100AA000D102204801F01FFDFFF7CAFF0122910289
:100AB0001C4801F018FDFFF7C3FF00224FF48061CE
:100AC000184801F010FDFFF7BBFF10BD0000C84241
:100AD00054020020500200204C020020240000207C
:100AE00058020020480200200000144000407F40CF
:100AF000342C0140B81E85EB51B80040C3F5285C8A
:100B00008FC210401203002000080040F8020020AD
:100B1000000C004008030020003401401C030020AA
:100B200000240140000C014070B50825002401227A
:100B3000D102FE4801F0D7FC6AE06006040E0022F4
:100B40004FF48061F94801F0CEFCFFF779FF0122F4
:100B50009102F64801F0C7FC4FF40061F34801F040
:100B6000A4FCF34908604FF40061F04801F09DFCDB
:100B7000EF4948604FF40061EC4801F096FCEC4905
:100B800088604FF40061E94801F08FFCE849C860D3
:100B90004FF40061E54801F088FCE54908614FF435
:100BA0000061E24801F081FCE14948614FF40061D5
:100BB000DE4801F07AFCDE4988614FF40061DB48D1
:100BC00001F073FCDA49C8614FF40061D74801F0C5
:100BD0006CFCD74908620846006849680844D44953
:100BE00089680844D249C9680844D1490969084458
:100BF000CF4949690844CE4989690844CC49C96943
:100C00000844CB49096A0844042801DB44F0010484
:100C10002800A5F10101CDB28FD100224FF48061EF
:100C2000C24801F060FC204670BD10B500224FF4B0
:100C30008061BE4801F057FCFFF702FF00224FF42D
:100C40000061BA4801F04FFCFFF7FAFE0122910261
:100C5000B64801F048FCFFF7F3FE00224FF4806134
:100C6000B24801F040FCFFF7EBFE10BD10B50022CA
:100C70004FF48061AD4801F036FCFFF7E1FE012240
:100C8000D102AA4801F02FFCFFF7DAFE01229102FF
:100C9000A64801F028FCFFF7D3FE4FF40061A348FB
:100CA00001F003FC01280BD1A24908600122202198
:100CB0009E4801F018FCA0480068401C9E4908604E
:100CC00000224FF48061994801F00DFC10BD70B511
:100CD0000446082523E000224FF48061934801F088
:100CE00002FCFFF7ADFE14F0800F04D00122D10208
:100CF0008E4801F0F8FB14F0800F05D100224FF46C
:100D000000618A4801F0EFFB6006040EFFF798FED1
:100D100001229102854801F0E6FBFFF791FE2800D1
:100D2000A5F10101CDB2D6D100224FF480617F48F8
:100D300001F0D9FB70BD10B50122D1027B4801F052
:100D4000D2FB01229102794801F0CDFBFFF778FE3A
:100D500000224FF40061754801F0C5FBFFF770FEFB
:100D600000224FF48061714801F0BDFBFFF768FE7F
:100D700010BD2DE9F04700206E490860FFF7DBFF4A
:100D8000D020FFF7A4FFFFF75BFEFFF76FFFFFF731
:100D900057FE68480068002846D14320FFF797FFB8
:100DA000FFF74EFEFFF762FF6248006800283BD164
:100DB000FFF74CFEFFF7BFFFD120FFF788FFFFF7DB
:100DC00055FFFFF73DFE5B48006868BBFFF7ACFED0
:100DD0005A490870FFF729FFFFF732FEFFF7A4FE1C
:100DE00056494870FFF721FFFFF72AFEFFF79CFEE8
:100DF00052498870FFF719FFFFF722FEFFF794FEB4
:100E00004E49C870FFF711FFFFF71AFEFFF78CFE7F
:100E10004A490871FFF709FFFFF712FEFFF784FE4A
:100E200046494871FFF732FEFFF710FE414800685F
:100E3000002862D1414840784049097840EA0120C1
:100E400000B23F4908800846B0F9000004F07AFE7D
:100E500081463C480168484604F074FF804604F02F
:100E600021FD06460022384B04F0D6F8044603F074
:100E7000E5FF364908603148C0783049897840EA52
:100E8000012000B2324908800846B0F9000004F0A1
:100E900059FE81462F480168484604F053FF8046BA
:100EA00004F000FD04460022274B04F0B5F8064686
:100EB00003F0C4FF28490860204840791F49097998
:100EC00040EA012000B2254908800846B0F9000038
:100ED00004F038FE814622480168484604F032FF9B
:100EE000804604F0DFFC06460022174B04F094F81D
:100EF000044603F0A3FF1B490860BDE8F08710B566
:100F000000200C490860FFF716FFD020FFF7DFFE36
:100F1000FFF7ACFE07480068002859D13B20FFF7D7
:100F2000D6FEFFF7A3FE034800681DE0000C014059
:100F30002C030020F0010020F40100202A020020F0
:100F400032020020100200200040BF40B802002002
:100F50003002002014020020C002002034020020D1
:100F600018020020C4020020002831D1FFF76EFDD6
:100F7000FFF7E1FED120FFF7AAFEFFF777FEFE485C
:100F8000006828BBFFF7D0FDFC490870FFF74DFE55
:100F9000FFF7CAFDF9494870FFF747FEFFF7C4FDA8
:100FA000F6498870FFF741FEFFF7BEFDF349C870B0
:100FB000FFF73BFEFFF7B8FDF0490871FFF735FE7C
:100FC000FFF7B2FDED494871FFF760FDFFF73EFD09
:100FD000E948006878BBE9484078E849097840EA80
:100FE000012000B2E64908800846B0F9000004F08C
:100FF000A9FDE4490860E148C078E049897840EA01
:10100000012000B2E04908800846B0F9000004F071
:1010100099FDDE490860D9484079D849097940EA04
:10102000012000B2DA4908800846B0F9000004F057
:1010300089FDD849086010BD30B585B004466846C2
:1010400002F0C7FC42F210710198B0FBF1F000FB16
:1010500004F500E06D1E002DFCD105B030BD10B5CB
:1010600001221103CC4801F03EFA6420FFF7E4FFAF
:1010700000224FF48051C84801F035FA6420FFF790
:10108000DBFF0020C5490880091D0880091D088074
:101090004FF47A70C2490880091D0880091D088034
:1010A0000020C0490880091D0880091D0880BE492C
:1010B0000880091D0880091D088010BD2DE9F04138
:1010C0004FF000082DE0FFF754FEB848B0F90000DB
:1010D00004F038FD0446B6480168204604F00EFCD2
:1010E000B3490860B348B0F9000004F02BFD044692
:1010F000B1480168204604F001FCAF490860AF48E0
:10110000B0F9000004F01EFD0446AD480168204619
:1011100004F0F4FBAA4908600220FFF78DFF08F1F4
:101120000108B8F1640FCEDBA148006804F0BAFBF7
:1011300006460022A34B03F06FFF044603F07EFE39
:101140009B4908609C48006804F0ACFB0446002200
:101150009C4B03F061FF064603F070FE9649086061
:101160009748006804F09EFB04460022954B03F06C
:1011700053FF064603F062FE914908600520FFF721
:101180005BFFBDE8F08110B504460120FFF754FF76
:10119000FFF7D1FDAE20FFF79AFDFFF767FD204670
:1011A000FFF795FDFFF762FDFFF750FC0120FFF709
:1011B00043FFFFF7C0FDAF20FFF789FDFFF756FDA6
:1011C000FFF7B2FC80490860FFF760FCFFF73EFCC8
:1011D0000120FFF731FF10BD10B518207B490880B2
:1011E0002820C870032088706B4801F0CDF80321D7
:1011F000012001F0DDF90421012001F0D9F91820C6
:10120000734908600020087110204871012088711E
:10121000084602F0C1FC182002F00DFD182002F073
:1012200032FD092000F034FF0A2000F031FF10BD2C
:1012300008B54FF4E06002F04DFF34208DF8000057
:1012400000208DF8020001208DF80300684602F0AE
:1012500046FF08BD10B540F2CF205E49088000204F
:1012600048804EF6602088800020C8805A4801F0EF
:10127000B1FC0121584801F0DDFF10BD10B5472039
:101280004FF0804108854FF4FA60888501208881FD
:1012900008801C2000F0FCFE10BD10B501221103D7
:1012A0003D4801F020F9C820FFF7C6FE00224FF4A8
:1012B0008051394801F017F9C820FFF7BDFE10BD75
:1012C00010B50120FFF7B8FEFFF735FDD020FFF77E
:1012D000FEFCFFF7CBFC7520FFF7F9FCFFF7C6FC1F
:1012E000FFF7B4FB0120FFF7A7FEFFF724FDD12095
:1012F000FFF7EDFCFFF7BAFCFFF716FC0446FFF71B
:10130000C5FBFFF7A3FB01E0FFF7C7FF682CFBD18C
:101310000520FFF791FEFFF70EFDD020FFF7D7FC69
:10132000FFF7A4FC1920FFF7D2FCFFF79FFC002079
:10133000FFF7CDFCFFF79AFCFFF788FB0520FFF7CE
:101340007BFEFFF7F8FCD020FFF7C1FCFFF78EFC17
:101350001A20FFF7BCFCFFF789FC0220FFF7B7FC5F
:10136000FFF784FCFFF772FB0520FFF765FEFFF730
:10137000E2FCD02032E00000F00100202402002036
:1013800036020020AC02002038020020B00200200B
:101390003A020020B4020020000C01403408004052
:1013A000340C0040342C014034340140320200201F
:1013B000100200203002002014020020340200201D
:1013C0001802002000005940C00100209C010020AC
:1013D000A00100201203002000040040FFF777FC6A
:1013E000FFF744FC1B20FFF772FCFFF73FFC0820CF
:1013F000FFF76DFCFFF73AFCFFF728FB0520FFF72E
:101400001BFEFFF798FCD020FFF761FCFFF72EFCD6
:101410003720FFF75CFCFFF729FC0020FFF757FCA3
:10142000FFF724FCFFF712FB0520FFF705FEFFF78F
:1014300082FCD020FFF74BFCFFF718FC3820FFF7A9
:1014400046FCFFF713FC0020FFF741FCFFF70EFC02
:10145000FFF7FCFA0520FFF7EFFDFFF76CFCD0204B
:10146000FFF735FCFFF702FC6B20FFF730FCFFF7BE
:10147000FDFB0020FFF72BFCFFF7F8FBFFF7E6FA78
:101480000520FFF7D9FDFFF756FCD020FFF71FFC22
:10149000FFF7ECFB6A20FFF71AFCFFF7E7FB0920D8
:1014A000FFF715FCFFF7E2FBFFF7D0FA0520FFF787
:1014B000C3FD10BD00B585B00820FE49088000209E
:1014C000C870FD4800F060FF4FF4004002F055FA8C
:1014D0000121480202F0EAFAF84802F0DDFB0020A0
:1014E00000908DF804008DF805004FF46020029004
:1014F0000020039001208DF810006946EF4802F0AB
:10150000F2FB0121ED4802F01AFCEC4802F039FC34
:1015100000BFEA4802F03AFC0028FAD1E74802F09E
:101520003FFC00BFE54802F040FC0028FAD105B0BE
:1015300000BD00B587B04FF48060ADF818001820EA
:101540008DF81B0003208DF81A0006A9DA4800F078
:101550001BFF4FF40060ADF8180028208DF81B0029
:1015600006A9D54800F010FF684601F022F9694647
:10157000D34801F00DF94FF4165002900020ADF859
:101580000C00ADF80E00ADF810000C20ADF8120004
:101590000020ADF8140002A9C94801F084F8012226
:1015A00040F22551C64801F016F90121C44801F066
:1015B00006F907B000BD10B54FF4E060BD490880E2
:1015C0001820C87002208870BE4800F0DDFE4FF47D
:1015D0006040B84908801820C87002208870BA4856
:1015E00000F0D2FE4FF4E070B24908801820C870B5
:1015F00002208870B04800F0C7FE8020AD49088006
:101600001820C87002208870AE4800F0BDFE03208C
:10161000A84908801820C87002208870AA4800F0E5
:10162000B3FE0720A34908801820C87002208870E4
:10163000A44800F0A9FE4FF4E0709E4908801820ED
:10164000C87002208870A04800F09EFE4FF48050C1
:10165000984908801020C870032088709A4800F0CC
:1016600093FE2020934908801020C87003208870C2
:10167000954800F089FE4FF440608E4908801420A0
:10168000C87003208870904800F07EFE10BD10B531
:10169000012142F67D2002F009FA01218B4802F077
:1016A00012FA0121084602F0F4F910BD1FB5FFF748
:1016B000EEFFFFF780FF01221103834800F013FFC4
:1016C0000A20FFF7B9FC00224FF480517E4800F059
:1016D0000AFF3220FFF7B0FCFFF72BFFFFF7EAFE0F
:1016E000FFF7EEFDFFF7CAFDFFF7B4FDFFF7A0FD22
:1016F000FFF772FD00207649086012E07448006828
:10170000C0B2FFF740FD734800687349704A126821
:1017100088540520FFF790FC6D480068401C6C4918
:1017200008606B4800680C28E8DBFFF7C7FC6AE339
:1017300001221103644800F0D6FE002220216248F5
:1017400000F0D1FE01E0FFF78AFC64480068012840
:10175000F9D0FFF7D4FB6049C87A03F029FE0646AA
:1017600000225F4B03F0B4FF04465E4A5E4B03F079
:101770006FFE804689465D48006804F093F8044691
:101780000D465B48006804F08DF8064622462B465D
:1017900003F03CFA81F0004142464B46CDE902019C
:1017A00003F07EFB824603F049FB524908604F4834
:1017B000006804F077F804460D464F48006804F0CE
:1017C00071F8804622462B4603F020FA064603F0C5
:1017D00035FB4A490860FFF7CCFA4648006804F038
:1017E00061F882468B464648006804F05BF80022A8
:1017F000444BCDE9020103F02BFE804652465B4686
:1018000003F04EFB064600223F4B03F005FC044666
:1018100003F014FB3A4908603848006804F042F8C5
:1018200004460D463948006804F03CF8064600229C
:10183000344B03F00DFE22462B46CDE9020103F0A6
:101840002FFB82460022304B03F0E6FB804603F07C
:10185000F5FA2E4908602E482E49096850F82100F3
:101860002D4908602B480068C0F15A00284951F8FA
:1018700020002A490860084601682948006804F0E9
:101880008DF906462748006880F000452248016827
:10189000284604F083F90446314604F02FF8224923
:1018A0000860224801681648006804F04BFA03906B
:1018B0003EE000009C010020001001400024014097
:1018C000004C004000080140000C01400F000800DF
:1018D000AC010020C001002024000020E001002015
:1018E0000000494079E9263108AC6C3FB402002081
:1018F000AC020020A8020020B0020020A4020020B8
:10190000CC02002000C0584000005940C80200200E
:1019100030000020DC010020000200200402002032
:10192000C0020020C402002008020020180000208D
:1019300003F0B8FF0646FE4AFE4B03F089FD8046E1
:101940008946FD480168FD48006804F027F907460C
:10195000FB480168384603F0D1FF064603F0A2FFBA
:10196000824642464B4603F09BFA044603F066FA71
:10197000F3490860F0480168F248006804F00EF985
:101980000446F1480168204603F0B8FFEE490860BC
:10199000EE480168EE48006804F0D4F9039003F0C3
:1019A00081FF0646E24AE34B03F052FD804689463A
:1019B000E1480168E748006804F0F0F80746E348AA
:1019C0000168384603F09AFF064603F06BFF0446B1
:1019D00042464B4603F064FA824603F02FFADB4995
:1019E0000860D5480168DB48006804F0D7F8044671
:1019F000D9480168204603F081FFD74908600120DB
:101A0000FFF707F8019003F0D3FC04460022D34B04
:101A100003F002FB06460F46D148006803F042FF80
:101A200004460022CF4B03F013FD32463B46CDE97E
:101A3000020103F035FA80460022CB4B03F0ECFAAA
:101A4000824603F0FBF9C649086000200860C748D9
:101A5000006803F096FC80468946C548006803F09C
:101A600021FF0022C34BCDE9020103F0F1FC044643
:101A700042464B4603F014FA82460022BE4B03F066
:101A8000CBFA064603F0DAF9B9490860084600685F
:101A900003F008FF82464FF06632B84B03F0BCFA01
:101AA00006460F46A948006803F0FCFE8046324611
:101AB0003B4603F00DFE044603F0C0F9B049086050
:101AC0000846006803F0EEFE04460022AD4B03F02A
:101AD000BFFC064603F0B2F9AB490860084600684F
:101AE00003F0E0FE044600224FF0804303F0AEFD19
:101AF00003D24FF08040A4490860A348006803F077
:101B0000D1FE044600224FF0404303F065FC03D2AF
:101B10004FF040409C4908609B4801689B48006822
:101B200003F0ECFE994908608548006803F0BAFEAE
:101B300006460022934B03F08BFC044603F07EF92B
:101B4000934908600846006803F0ACFE0446002292
:101B50004FF0804303F07AFD03D24FF080408C4970
:101B600008608B48006803F09DFE044600224FF099
:101B7000404303F031FC03D24FF0404084490860F9
:101B8000834801688348006803F0B8FE8149086013
:101B90000D20FEF73EFFA0F5FA6A504603F0F1FB78
:101BA000044600226D4B03F037FA06460F467A488A
:101BB000006803F077FE044600226A4B03F048FCFD
:101BC000804632463B4603F06BF90022664BCDE976
:101BD000000103F021FACDE9020103F02FF96E496B
:101BE00008606E48807A302828D1574801686A48D2
:101BF000006804F0A7F8039003F054FE8046684A9A
:101C0000684B03F025FC04460D464B4801684D48DF
:101C1000006803F0C3FF81464B480168484603F063
:101C20006DFE804603F03EFE064622462B4603F03C
:101C300037F9824603F002F9434908605748807A31
:101C400031280DD13C4801683E48006803F0A6FFEA
:101C500004463D480168204603F050FE3A490860BA
:101C60003948006803F01EFE064600224E4B03F082
:101C7000EFFB044603F0E2F84C49086008460068B0
:101C800003F010FE04460022494B03F0DFFC03D2B0
:101C90004FF07E50454908604448006803F002FE5A
:101CA00004460022434B03F097FB02D242483F49CF
:101CB00008603E4801684148006803F01FFE3F4944
:101CC00008603F48006838BBFEF753FEFEF708FE89
:101CD000FEF7D2FDFEF79FFD012039490860012182
:101CE000384801F0A7FA0121364801F0AFFA012087
:101CF0003549086004E034480068401C32490860F7
:101D0000314800680428F6DB0121304801F092FADE
:101D100001212E4801F09AFAFEF782FCFEF7C6FB7D
:101D2000FEF79AFA2A480088401C00B2284951E080
:101D30002D431CEBE2362A3F080000200802002059
:101D400018000020C4020020200000205C020020B7
:101D5000C8020020B80200201C0200200040AF4052
:101D6000F801002000C0584000005940DC0100206C
:101D70000C02002000307F4000407F4066A64C40AF
:101D80001000002000C06240600200200C00002013
:101D90008002002014000020FC010020240000200C
:101DA0007B14AE47E17A843F00004940A002002046
:101DB0000000F03F0000F0BF000080BF1C000020CA
:101DC00004000020000C0040A80100200008004092
:101DD0003C02002008800846B0F90000322801DBF0
:101DE000002008800020B049086000224FF4805194
:101DF000AE4800F078FB0020AD49086000BFAA485B
:101E000000680028FBD093E400BFAA49098811F0BC
:101E1000800FFAD0A749091D0880704700B5024617
:101E200003E01078FFF7F0FF521C10780028F8D17B
:101E300000BD70B504460D460520FFF7FDF8FEF71E
:101E40007AFFAE20FEF743FFFEF710FFE0B2FEF789
:101E50003EFFFEF70BFFE8B2FEF739FFFEF706FF85
:101E6000FEF7F4FD0520FFF7E7F870BD10B500247C
:101E70000DE0012211038D4800F035FB8E48015D15
:101E80002046FFF7D6FF0520FFF7D6F8641C0C2C80
:101E9000EFDB00224FF48051844800F024FB10BD9A
:101EA00010B501208549086000BF2021814800F05D
:101EB00064FD0028F9D07F4800F0F5FC80490860F7
:101EC00001221103794800F00EFB7D480068672865
:101ED0001DD16420FFF7B0F87AA17B4802F068F9C1
:101EE0007948FFF79BFF00240FE0E0B2FFF74BF9C2
:101EF0000120FFF7A1F8754875A10268724802F049
:101F000057F97148FFF78AFF641C0C2CEDDB714810
:101F10000068012814D16A48006867496E4A12684F
:101F200088546D480068401C6B490860084600688A
:101F30000C2805DB0020086066490860FFF796FF63
:101F40005F480068682802D10120624908605C4847
:101F50000068692802D10120584908605848006883
:101F60006A2802D100205549086010BD10B55B48B1
:101F70000068401C594908605948006810F0080F73
:101F80002ED05748006840F00800554908600821E5
:101F9000464800F08AFA012803D152480088524985
:101FA00008600821414800F080FA18B94D480088BF
:101FB0004E4908604D4800684B490968401A64283A
:101FC0000EDD4A48006848490968401AC82807DAFF
:101FD0004648006844490968401A64384449086022
:101FE00010BD10B53E48006810F0100F2ED03C48D0
:101FF000006840F010003A49086010212B4800F0BA
:1020000054FA012803D1374800883A490860102162
:10201000264800F04AFA18B9324800883649086064
:102020003548006833490968401A64280EDD324893
:10203000006830490968401AC82807DA2E48006845
:102040002C490968401A64382C49086010BD10B545
:102050004FF08040008A10F0010F18D04FF0804000
:10206000008A20F001004FF08041088201200E49D3
:1020700008601248006820B90D480068401C0C49EF
:1020800008600B480068FA2801DDFEF7E8FF10BD84
:1020900000F01F020121914042094FF0E02303EBC1
:1020A0008202C2F80011704700000020000C0140BD
:1020B000EC010020004C004024000020E001002042
:1020C000C40100207800000050030020C00100205F
:1020D00025630000E8010020E4010020B001002099
:1020E0001404014024040040C8010020CC01002059
:1020F000D0010020D4010020D8010020DC01002004
:1021000000210020674A126842F48032654B1A6051
:1021100000BF644A126802F40030491C10B9B1F5DE
:10212000A06FF6D15F4A126812F4003F01D001207F
:1021300000E00020012842D15B4A126842F0100200
:10214000594B1A601A46126822F003021A601A46A6
:10215000126842F002021A60524A5268514B5A60A9
:102160001A4652685A601A46526842F480625A60AF
:102170001A46526822F47C125A601A46526842F497
:10218000E8125A601A46126842F080721A6000BF64
:10219000444A126812F0007FFAD0424A526822F094
:1021A0000302404B5A601A46526842F002025A60DB
:1021B00000BF3C4A526802F00C02082AF9D170476D
:1021C00010B5FFF79DFF10BD10B53648006840F010
:1021D00001003449086008464068344908403149E4
:1021E000486008460068324908402E4908600846A1
:1021F000006820F4802008600846406820F4FE0053
:1022000048604FF41F008860FFF7DAFF4FF000606E
:102210002849086010BD10B5002100200022214B84
:102220005B6803F00C0121B1042906D0082928D1EC
:1022300007E0214B214C236027E01F4B1F4C2360FC
:1022400023E0184B5B6803F47010164B5B6803F4D3
:102250008032022303EB904022B9194B4343174CC1
:1022600023600DE00F4B5B6813F4003F04D0144B68
:102270004343124C236003E00F4B43430F4C236056
:1022800003E00D4B0D4C236000BF00BF054B5B68A6
:10229000C3F303130B4CE15C084B1B68CB40074CAA
:1022A000236010BD00100240002002400000FFF833
:1022B000FFFFF6FE08ED00E000127A00D0020020D9
:1022C00000093D00D402002010B50446CA488442EB
:1022D00008D10121042001F003FC0021042001F0B9
:1022E000FFFB46E0C548844208D10121082001F0E7
:1022F000F7FB0021082001F0F3FB3AE0C0488442DC
:1023000008D10121102001F0EBFB0021102001F089
:10231000E7FB2EE0BB48844208D10121202001F0D8
:10232000DFFB0021202001F0DBFB22E0B6488442E5
:1023300008D10121402001F0D3FB0021402001F011
:10234000CFFB16E0B148844208D10121802001F082
:10235000C7FB0021802001F0C3FB0AE0AC488442A7
:1023600007D10121801501F0BBFB0021A01501F070
:10237000B7FB10BD10B50121084601F0B1FB0021EB
:10238000012001F0ADFB10BD2DE9F0410246002512
:102390000026002000230024002791F803C00CF041
:1023A0000F0591F803C01CF0100F03D091F802C084
:1023B0004CEA0505B1F800C01CF0FF0F31D01468DD
:1023C00000202BE04FF0010C0CFA00F3B1F800C034
:1023D0000CEA03069E4220D183004FF00F0C0CFA4A
:1023E00003F7BC4305FA03FC4CEA040491F803C06C
:1023F000BCF1280F06D14FF0010C0CFA00FCC2F81A
:1024000014C00AE091F803C0BCF1480F05D14FF0A9
:10241000010C0CFA00FCC2F810C0401C0828D1D3F3
:102420001460B1F800C0BCF1FF0F34DD5468002027
:102430002EE000F1080C4FF0010808FA0CF3B1F897
:1024400000C00CEA03069E4221D183004FF00F0C1E
:102450000CFA03F7BC4305FA03FC4CEA040491F8B8
:1024600003C0BCF1280F05D100F1080C08FA0CF8E4
:10247000C2F8148091F803C0BCF1480F07D100F1F5
:10248000080C4FF0010808FA0CF8C2F81080401C44
:102490000828CED35460BDE8F0814FF6FF7101806B
:1024A000022181700421C1707047024600209368A8
:1024B0000B4201D0012000E00020704701468868EF
:1024C00080B2704702460020D3680B4201D0012041
:1024D00000E0002070470146C86880B27047016183
:1024E0007047416170470AB1016100E04161704786
:1024F000C16070474FF480320A438261816182611A
:1025000082698269704702460020424B18684FF684
:102510008073184040EA021008433E4B1860704731
:102520003D49C8617047F0B50A46002300240021E8
:10253000002500F00046B6F1004F02D1354EF1699A
:1025400001E0344E7168C0F3034583B200F44016D5
:10255000B6F5401F08D121F070612E4E766826F046
:1025600070662C4F7E6012E000F48016B6F5801F76
:1025700006D1032606FA05F4A14341F0706106E096
:10258000460D360103FA06F6B14341F0706122B1FF
:10259000460D360103FA06F6314300F00046B6F167
:1025A000004F02D11B4EF16101E01A4E7160F0BD87
:1025B00030B500228B071C0F0F2303FA04F2154BD2
:1025C00008338C1053F824309343124C08348D1088
:1025D00044F8253023468C1053F824308C07240F00
:1025E00000FA04F423430B4C08348D1044F82530D2
:1025F00030BD0A490860704700080140000C0140E6
:10260000001001400014014000180140001C01406E
:10261000002001400000014000002042DC00204278
:1026200010B50446FC48844209D10121880301F019
:1026300057FA00214FF4804001F052FA32E0F74897
:10264000844209D10121480401F057FA00214FF4D6
:10265000003001F052FA25E0F148844209D101210D
:10266000880401F04AFA00214FF4802001F045FA75
:1026700018E0EC48844209D10121C80401F03DFA78
:1026800000214FF4002001F038FA0BE0E6488442C4
:1026900008D10121080501F030FA00214FF4801023
:1026A00001F02BFA10BD2DE9F04786B005460E4625
:1026B0000024A24600BFA1460027B08900B100BF98
:1026C0002F462C8A4CF6FF700440F08804432C827D
:1026D000AC894EF6F3100440B08831890843718903
:1026E00008430443AC81AC8A4FF6FF400440B089F4
:1026F0000443AC8201A801F06CF9C748874202D1BB
:10270000DDF810A001E0DDF80CA0A88910F4004F5E
:1027100008D00AEBCA0000EB0A1031684900B0FB90
:10272000F1F807E00AEBCA0000EB0A1031688900F3
:10273000B0FBF1F86420B8FBF0F00401200964213B
:1027400001FB1089A88910F4004F08D0322000EB5B
:10275000C900B0FBF1F000F00700044308E03220AC
:1027600000EB09106421B0FBF1F000F00F0004430E
:102770002C8106B0BDE8F0874FF4165101600021AE
:102780008180C18001810C214181002181817047BC
:1027900010B502460020108A4FF2FF0318400B8844
:1027A0004C8823438C882343CC88234318431082CE
:1027B00010BD0021018041808180C180704721B11E
:1027C000828942F40052828104E082894DF6FF73CF
:1027D0001A4082817047F0B5034600240026002588
:1027E0000020A1F510676A3F00D100BF1846C1F371
:1027F000421401F01F06012707FA06F5012C01D14A
:102800000C3004E0022C01D1103000E014301AB179
:1028100007682F43076002E00768AF430760F0BD19
:1028200010B51AB1838A0B43838204E0838ACC43B8
:10283000A4B22340838210BD028A4FF6F0731A407F
:102840000282028A0A430282704782894FF2FF7332
:102850001A40828182890A438281704721B182892C
:1028600042F00202828104E082894FF6FD731A4031
:1028700082817047028A4FF6DF731A400282028A11
:102880000A430282704721B1028A42F480420282E6
:1028900004E0028A4BF6FF731A4002827047C1F3CC
:1028A00008028280704701468888C0F3080070479C
:1028B000818941F0010181817047028BD2B202838C
:1028C000028B42EA012202837047028B02F47F42AC
:1028D0000283028B0A430283704721B1828A42F04D
:1028E0002002828204E0828A4FF6DF731A408282DD
:1028F000704721B1828A42F01002828204E0828A0B
:102900004FF6EF731A408282704721B1828A42F0FB
:102910000802828204E0828A4FF6F7731A408282AC
:10292000704721B1828942F40042828103E08289AA
:10293000C2F30E028281704721B1828A42F40062A2
:10294000828204E0828A4FF2FF731A4082827047CB
:10295000828A4FF6FB731A408282828A0A438282FD
:10296000704721B1828A42F00202828204E0828AA8
:102970004FF6FD731A408282704702460020B1F57F
:10298000007F00D100BF13880B4201D0012000E07E
:102990000020704701F40072B2F5007F00D100BF43
:1029A000CA430280704770B5024600240023002508
:1029B0000020A1F510666A3E00D100BFC1F34215A8
:1029C00001F01F03012606FA03F3012D02D19689B7
:1029D000334006E0022D02D1168A334001E0968A88
:1029E00033400C12012606FA04F41688344013B161
:1029F0000CB1012000E0002070BD10B500220023C2
:102A0000A1F510646A3C00D100BF0A120124944071
:102A1000A3B2DC43048010BD0038014000440040F4
:102A200000480040004C00400050004010B50446F3
:102A3000FE48844208D10121C01401F051F8002160
:102A4000E01401F04DF8C4E0B4F1804F08D1012149
:102A5000084601F052F80021012001F04EF8B8E0DC
:102A6000F348844208D10121022001F046F80021F8
:102A7000022001F042F8ACE0EE48844208D1012186
:102A8000042001F03AF80021042001F036F8A0E01B
:102A9000E948844208D10121082001F02EF80021E4
:102AA000082001F02AF894E0E448844208D101218A
:102AB000102001F022F80021102001F01EF888E01B
:102AC000DF48844208D10121202001F016F80021BE
:102AD000202001F012F87CE0DA48844208D101217C
:102AE000401400F0FDFF0021601400F0F9FF70E0D9
:102AF000D548844209D10121C80400F0F1FF00212A
:102B00004FF4002000F0ECFF63E0D048844209D18C
:102B10000121080500F0E4FF00214FF4801000F0CF
:102B2000DFFF56E0CA48844209D10121480500F080
:102B3000D7FF00214FF4001000F0D2FF49E0C54854
:102B4000844208D10121402000F0D7FF002140201D
:102B500000F0D3FF3DE0C048844208D1012180202D
:102B600000F0CBFF0021802000F0C7FF31E0BB4820
:102B7000844208D10121801500F0BFFF0021A0157B
:102B800000F0BBFF25E0B648844209D101210804CA
:102B900000F0A6FF00214FF4803000F0A1FF18E004
:102BA000B048844209D10121480400F099FF002176
:102BB0004FF4003000F094FF0BE0AB48844208D1A2
:102BC0000121880400F08CFF00214FF4802000F0E8
:102BD00087FF10BD00220288944B98420ED0994B7B
:102BE00098420BD0B0F1804F08D0914B984205D05D
:102BF000904B984202D0904B984204D14FF68F737D
:102C00001A404B881A438D4B984207D08C4B984200
:102C100004D04FF6FF431A40CB881A4302808B88BA
:102C200083850B880385814B98420BD0854B984256
:102C300008D08B4B984205D08A4B984202D08A4BE1
:102C4000984201D10B7A038601238382704770B5C5
:102C5000002400220023058C4FF6FE7635400584C3
:102C6000028C8388048B4FF68F752C40B51E2C4048
:102C70000D882C43751E2A400D892A434D882A430E
:102C80006A4DA8420BD06F4DA84208D0744DA8429F
:102C900005D0744DA84202D0734DA84213D14FF60F
:102CA000F7752A404D892A434FF6FB752A408D88D7
:102CB0002A434FF6FF652B404FF6FF552B408D8979
:102CC0002B43CD892B4383800483CD888586028462
:102CD00070BD70B5002400220023058C4FF6EF76FE
:102CE00035400584028C8388048B48F6FF752C40A0
:102CF0004FF6FF452C400D882D0644EA15444FF64B
:102D0000DF752A400D892D0542EA15424D882D05B3
:102D100042EA1542454DA84202D04A4DA8421BD175
:102D20004FF67F752A404D892D0542EA15424FF630
:102D3000BF752A408D882D0542EA15424FF6FF35B2
:102D40002B404FF2FF752B408D89AD0443EA1543AC
:102D5000CD89AD0443EA154383800483CD8805877C
:102D6000028470BD70B5002400220023058C4FF64C
:102D7000FF6635400584028C8388848B4FF68F75FF
:102D80002C404FF6FC752C400D882C434FF6FF5518
:102D90002A400D892D0642EA15424D882D0642EA49
:102DA0001542224DA84202D0264DA8421BD14FF217
:102DB000FF752A404D892D0642EA15424FF6FF3530
:102DC0002A408D882D0642EA15424EF6FF752B40AB
:102DD0004DF6FF752B408D892D0543EA1543CD89AE
:102DE0002D0543EA154383808483CD88858702843B
:102DF00070BD70B5002200230024058C4EF6FF76CE
:102E000035400584038C8488828B48F6FF752A4000
:102E10004FF6FF452A400D882D0642EA15424DF631
:102E2000FF752B400D892D0720E00000002C01408C
:102E30000004004000080040000C0040001000406A
:102E40000014004000340140004C0140005001409B
:102E50000054014000180040001C004000200040C9
:102E600000400140004401400048014043EA15434E
:102E70004D882D0743EA1543F84DA84202D0F84D7E
:102E8000A84206D14BF6FF752C408D89AD0544EA6A
:102E9000154484808283CD88A0F84050038470BD9F
:102EA000828B4FF2FF331A408283828B0B0642EAF9
:102EB000134282837047F0B50C461546002200216C
:102EC0000026078C4EF6FF7C07EA0C070784828BEE
:102ED000018C27073E0C40F6FF473A402F0642EA96
:102EE00017421F0742EA1742DC4FB8420ED0DC4FB0
:102EF000B8420BD0B0F1804F08D0DA4FB84205D0BD
:102F0000D94FB84202D0D94FB84206D14DF6FF771B
:102F1000394046F48057394305E047F6FF573940BA
:102F200044F48057394382830184F0BD828B4FF68D
:102F3000F3731A408283828B0A4382837047F0B511
:102F40000C461546002200210026078C4FF6FF6C28
:102F500007EA0C070784828B018C27063E0C4FF68C
:102F60000C773A401F0545EA17473A43BB4FB84232
:102F70000ED0BB4FB8420BD0B0F1804F08D0B94F44
:102F8000B84205D0B84FB84202D0B84FB84206D1C7
:102F90004FF6FF57394046F48077394305E04FF24A
:102FA000FF57394044F48077394382830184F0BD70
:102FB000028B4FF2FF331A400283028B0B0642EA68
:102FC000134202837047F0B50C46154600220021DB
:102FD0000026078C4FF6EF7C07EA0C070784028B6C
:102FE000018C27053E0C40F6FF473A401F0742EA96
:102FF00017422F0642EA1742984FB8420ED0984F18
:10300000B8420BD0B0F1804F08D0964FB84205D0EF
:10301000954FB84202D0954FB84206D14FF6DF77B0
:10302000394046F01007394305E04FF65F773940E5
:1030300044F01007394302830184F0BD028B4FF640
:10304000F3731A400283028B0A4302837047F0B580
:103050000C46154600220021068C4FF6FE773E40B6
:103060000684028B018C4FF60C7632401E0545EA31
:1030700016463243794EB0420ED0794EB0420BD054
:10308000B0F1804F08D0774EB04205D0764EB042B6
:1030900002D0764EB04206D14FF6FD76314044F074
:1030A0000106314305E04FF6F576314044F0010664
:1030B000314302830184F0BD70B505460C46674874
:1030C00085420ED0664885420BD0B5F1804F08D0BE
:1030D0006448854205D06448854202D063488542F1
:1030E00000D100E000BF208850B92389A288618800
:1030F0002846FFF7ACFFE1882846FFF79FFF25E051
:10310000208804280AD12389A28861882846FFF7ED
:103110005AFFE1882846FFF74BFF17E02088082870
:103120000AD12389A28861882846FFF708FFE18831
:103130002846FFF7FBFE09E02389A288618828461C
:10314000FFF7B9FEE1882846FFF7AAFE70BD2DE91A
:10315000F04105460C4600260127608808B9022682
:1031600000E00026A088012801D1022700E0012705
:103170002088A0B92389A28861882846FFF767FFC5
:10318000E1882846FFF75AFF23893A463146284608
:10319000FFF719FFE1882846FFF70AFF13E02389AC
:1031A000A28861882846FFF70EFFE1882846FFF7CE
:1031B000FFFE23893A4631462846FFF748FFE1885B
:1031C0002846FFF73BFFBDE8F0810A884B881A4389
:1031D0008B881A43CB881A430B891A434B891A43AD
:1031E0008B891A43A0F8442070474FF6FF71818005
:1031F00000210180C180418001727047002101805F
:1032000041808180C180018141818181C18170477C
:10321000002101804180012181800021C180018144
:1032200070470021018041808180C18001814181FE
:103230008181704721B1028842F00102028004E0DE
:1032400002884FF6FE731A400280704781B1B0F8D1
:10325000442042F40042A0F844200FE0002C01403A
:10326000003401400004004000080040000C004011
:10327000B0F84420C2F30E02A0F84420704710B505
:103280001AB183890B43838104E08389CC43A4B2C0
:103290002340838110BD8182704741EA0203A0F878
:1032A0004830704710B51AB183890B43838104E01D
:1032B0008389CC43A4B22340838110BD01894FF69A
:1032C000F8721140018170470A46002101894FF6CA
:1032D0008F73194011430181704730B504460D4684
:1032E00029462046FFF7F0FF208940F007002081A3
:1032F00030BD2DE9F04104460D4616461F46602DAF
:1033000006D13B46012231462046FFF75CFE05E030
:103310003B46012231462046FFF799FE29462046CA
:10332000FFF7D2FF208940F007002081BDE8F0813F
:1033300030B50C4600210189C9B21D0642EA154587
:1033400025432943018130BD2DE9F04105460E4654
:1033500017469846002443463A4631462846FFF72A
:10336000E7FF2C894FF6F870044044F007044FF64D
:103370008F70044044F070042C81BDE8F081F0B5FA
:1033800004460D4616461F463B4632462946204611
:10339000FFF7CEFF208940F480402081F0BD0185F9
:1033A000828270470A46002101884FF68F731940C8
:1033B000114301807047F0B50C4615461E460021AA
:1033C000002200230189028B038C4FF6F8773940E5
:1033D00021434FF6FC473A4040F201173A434FF67B
:1033E000DD773B40370545EA17473B4301810283C0
:1033F0000384F0BD0A460021018B4FF68F731940FC
:103400001143018370470A460021018B48F6FF7380
:103410001940130641EA1341018370470A4600210F
:10342000818B4FF68F7319401143818370470A4691
:103430000021818B48F6FF731940130641EA1341BE
:103440008183704721B1028842F08002028004E04B
:1034500002884FF67F731A400280704721B182883C
:1034600042F00402828004E082884FF6FB731A4027
:103470008280704721B1828842F00802828004E095
:1034800082884FF6F7731A408280704721B1828894
:1034900042F00102828004E082884FF6FE731A40F7
:1034A000828070470A460021018B4FF6F77319405E
:1034B0001143018370470A460021018B4FF2FF73CD
:1034C0001940130641EA1341018370470A4600215F
:1034D000818B4FF6F77319401143818370470A4679
:1034E0000021818B4FF2FF731940130641EA13410B
:1034F000818370470A460021018B4FF6FB73194008
:103500001143018370470A460021018B4FF6FF33B8
:103510001940130641EA1341018370470A4600210E
:10352000818B4FF6FB7319401143818370470A4624
:103530000021818B4FF6FF331940130641EA1341F6
:10354000818370470A460021018B4FF67F73194033
:103550001143018370470A460021018BC1F30E011C
:10356000130641EA1341018370470A460021818B0B
:103570004FF67F7319401143818370470A4600213B
:10358000818BC1F30E01130641EA13418183704719
:103590000A460021018C4FF6FD7319401143018446
:1035A00070470A460021018C4FF6F773194011430A
:1035B000018470470A460021018C4FF6DF731940E1
:1035C000130541EA1341018470470A460021018C2A
:1035D0004FF67F731940130541EA13410184704788
:1035E0000A460021018C4FF6FF531940130641EAA9
:1035F0001341018470470A460021018C4FF2FF738A
:103600001940130641EA1341018470470A4600211C
:10361000018C4DF6FF731940130741EA13410184F1
:10362000704730B5002301248C40A3B2048CDD43E5
:10363000ADB22C400484048C02FA01F5ADB22C43E7
:10364000048430BD30B5002304248C40A3B2048C24
:10365000DD43ADB22C400484048C02FA01F5ADB216
:103660002C43048430BD70B5034600200024184666
:10367000183001258D40ACB21D8CE643B6B2354002
:103680001D8409B1082909D100EB6100056825F006
:10369000700505600568154305600CE00D1FADB2AF
:1036A00000EB6500056825F4E04505600568160631
:1036B00045EA1645056070BD21B1028842F002025C
:1036C000028004E002884FF6FD731A4002807047C2
:1036D00021B1028842F00402028004E002884FF621
:1036E000FB731A400280704721B1828842F0800249
:1036F000828004E082884FF67F731A408280704790
:1037000002884FF6F7731A40028002880A4302804B
:10371000704782884FF68F731A40828082880A43EE
:103720008280704702894FF6F8731A40028102893D
:103730000A430281704702894FF67F731A40028163
:1037400002890A43028170478184704781857047EE
:10375000818670470187704781877047A0F84010C5
:10376000704702884FF6FF431A40028002880A43DE
:10377000028070470146888E70470146088F704767
:103780000146888F70470146B1F8400070470146F6
:10379000888C70470146088D704702460020138AC6
:1037A0000B4201D0012000E000207047CA43028292
:1037B000704730B50246002000230024158A05EA30
:1037C0000103958905EA010413B10CB1012000E061
:1037D000002030BDCA43028270470000DC48006808
:1037E00040F00100DA49086008464068D9490840BD
:1037F000D749486008460068D7490840D44908605E
:103800000846006820F4802008600846406820F4DC
:10381000FE0048604FF41F0088607047CC4909687B
:1038200021F48031CA4A11601146096821F48021CF
:103830001160B0F5803F03D0B0F5802F0ED106E0C7
:10384000C349096841F48031C14A116007E0C049A9
:10385000096841F4A021BE4A116000E000BF00BF2A
:10386000704710B501460022002300204A11012AAA
:1038700002D1B74C236806E0022A02D1B44C236A75
:1038800001E0B34C636A01F01F02012494401C4222
:1038900001D0012000E0002010BD70B500240025FB
:1038A000002600BF3120FFF7DCFF0646641CB4F59C
:1038B000A06F01D0002EF5D03120FFF7D2FF08B164
:1038C000012500E00025284670BD01460020A04AE1
:1038D000106820F0F80040EAC100106070479F496E
:1038E0000860704702460020994B586820F47C100D
:1038F00042EA01031843964B58607047974908669F
:10390000704701460020924A506820F003000843A7
:10391000506070478E48406800F00C0070470146C8
:1039200000208B4A506820F0F00008435060704738
:1039300001460020864A506820F4E0600843506049
:10394000704701460020824A506820F4605040EAE7
:10395000C1005060704729B17D4A527A02437C4BC6
:103960005A7206E07A4A527AC343DBB21A40784B65
:103970005A7270477A490860704701460020744ABD
:10398000506820F440400843506070470021754A59
:1039900011706F4A82F82010012802D0042808D143
:1039A00003E001216F4A117004E005216D4A117096
:1039B00000E000BF00BF70476B4908607047644972
:1039C000096A0143624A11627047674944390860D5
:1039D000704730B500210022002400235C4D6D6843
:1039E00005F00C0121B1042905D0082923D105E0F7
:1039F0005E4D056022E05D4D05601FE0544D6D6831
:103A000005F47012524D6D6805F48034022505EB03
:103A100092421CB9564D554305600BE04C4D6D6804
:103A200015F4003F03D0524D5543056002E04F4D61
:103A30005543056002E04D4D056000BF00BF444D99
:103A40006D6805F0F00109094A4D6B5C0568DD40C1
:103A500045603F4D6D6805F4E061090A454D6B5CBA
:103A60004568DD4085603A4D6D6805F46051C90ACE
:103A7000404D6B5C4568DD40C560354D6D6805F4B3
:103A80004041890B3C4D6B5CC568B5FBF3F50561A6
:103A900030BD29B12E4A526902432D4B5A6104E0D0
:103AA0002B4A526982432A4B5A61704729B1284AEE
:103AB00092690243264B9A6104E0254A9269824347
:103AC000234B9A61704729B1214AD2690243204BA6
:103AD000DA6104E01E4AD26982431D4BDA61704705
:103AE00029B11B4AD2680243194BDA6004E0184A34
:103AF000D2688243164BDA60704729B1144A1269C2
:103B00000243134B1A6104E0114A12698243104BBD
:103B10001A61704714494039086070470F49C864FA
:103B200070470B49C87170470948406A40F080707F
:103B300007494862704701460020054A92680A42D8
:103B400001D0012000E000207047014988727047D1
:103B5000001002400000FFF8FFFFF6FE00004242A6
:103B6000D8004242201002408004424200127A00F3
:103B700000093D00E4020020F40200200020444936
:103B80000860091D0860091D0860091D086041489A
:103B90003F4914310860704700213D498279002A6D
:103BA0003AD00A46126803689A430B461A600A1D07
:103BB000126803689A430B1D1A60027911440A685F
:103BC00003681A430A60324A0832126803689A434B
:103BD0002F4B08331A601A1D126803689A432C4B46
:103BE0000C331A604279102A0ED11A1F126803682A
:103BF0001A43274B08331A601A1D126803681A43C8
:103C0000234B0C331A600DE02149427911440A68B4
:103C100003681A430A6005E0027911440A680368E0
:103C20009A430A6070470021016001710C214171C3
:103C30000021817170471649103109680143144A07
:103C400010321160704701460020114A1432126888
:103C50000A4201D0012000E0002070470C491431D5
:103C600008607047014600200022094B1B6803EAE8
:103C70000102074B14331B680B4202D00AB101202A
:103C800000E00020704702491431086070470000CE
:103C900000040140FFFF0F0010B50446F9488442BC
:103CA00008D101214015FFF71BFF00216015FFF728
:103CB00017FF17E0F448844208D101210015FFF7EF
:103CC0000FFF00212015FFF70BFF0BE0EF488442A8
:103CD00008D10121C803FFF703FF00214FF4004082
:103CE000FFF7FEFE10BD30B50246002000235068ED
:103CF000E74C20400D790C6844EA052420435060CD
:103D00009068E44C2040D1E902542C434D7944EAB8
:103D1000450420439060D06A20F470000C7C641E3F
:103D2000E4B2234340EA0350D06230BD0021016079
:103D3000017141718160C16001210174704721B13D
:103D4000826842F00102826003E0826822F0010290
:103D50008260704721B1826842F48072826003E021
:103D6000826822F480728260704710B50023CBB263
:103D70001AB144681C43446002E044689C434460B8
:103D800010BD816841F00801816070470146002044
:103D90008A6812F0080F01D0012000E0002070476F
:103DA000816841F0040181607047014600208A6803
:103DB00012F0040F01D0012000E00020704721B173
:103DC000826842F4A002826003E0826822F4A002CA
:103DD00082607047014600208A6812F4800F01D08B
:103DE000012000E00020704710B50A4600210023A2
:103DF000416821F46041531E41EA4331416010BDE6
:103E000021B1426842F40062426003E0426822F459
:103E1000006242607047F0B504460D460020002164
:103E2000092D11DDE068A5F10A0606EB4607072615
:103E300006FA07F18843A5F10A0606EB460603FADF
:103E400006F10843E0600CE0206905EB4507072612
:103E500006FA07F1884305EB450603FA06F1084325
:103E60002061072A0FDA606B561E06EB86071F26B5
:103E700006FA07F18843561E06EB860605FA06F198
:103E80000843606322E00D2A0FDA206BD61F06EB91
:103E900086071F2606FA07F18843D61F06EB86061B
:103EA00005FA06F10843206310E0E06AA2F10D066E
:103EB00006EB86071F2606FA07F18843A2F10D06D6
:103EC00006EB860605FA06F10843E062F0BD21B173
:103ED000826842F48012826003E0826822F48012D9
:103EE000826070470146C86C80B2704765484C30AC
:103EF0000068704721B1426842F48062426003E08A
:103F0000426822F480624260704721B1426842F404
:103F10008052426003E0426822F48052426070475F
:103F20000A460021816821F4E04111438160704715
:103F300021B1826842F40042826003E0826822F488
:103F400000428260704721B1826842F402128260AE
:103F500003E0826822F4021282607047014600206A
:103F60008A6812F4001F01D0012000E00020704791
:103F7000F0B504461546002000220026092911DD6F
:103F8000E068A1F10A0707EB470C072707FA0CF2D4
:103F90009043A1F10A0707EB470703FA07F2104322
:103FA000E0600CE0206901EB410C072707FA0CF2F6
:103FB000904301EB410703FA07F210432061A06B25
:103FC000C0F30156EF1C06F1010CA7EB0C0707EB41
:103FD000870C1F2707FA0CF29043EF1C06F1010C27
:103FE000A7EB0C0707EB870701FA07F21043A06362
:103FF000F0BD10B50A4600210023816B21F4401169
:10400000531E41EA0351816310BD10B500230346DE
:104010000B441A6010BD02460023134601F128002C
:104020000344186880B270470A46002141681A4B61
:1040300019401143416070474162826270470A46ED
:104040000021416821F01F0111434160704740B1D8
:104050000C490831096841F400010A4A083211602C
:1040600007E008490831096821F40001054A0832CF
:10407000116070470246002013680B420ED00120E9
:104080000DE000000024014000280140003C0140F8
:10409000FFFEF0FFFDF7F1FFFFFD3FFF002070473F
:1040A000CA430260704770B5024600200023002416
:1040B0000B125568CEB205EA060415681D4202D0FF
:1040C0000CB1012000E0002070BD00220A12D34391
:1040D0000360704731490143314A1160704770B540
:1040E000002100230F22C4780CB32D4C246804F463
:1040F000E064C4F5E064210AC1F10403CA404478D5
:1041000004FA03F18478144021430901254C067810
:10411000A155047804F01F050124AC4005786D1109
:104120004FF0E02606EB8505C5F8004109E004786C
:1041300004F01F050124AC401B4D0678761145F8AC
:10414000264070BD194A0A400243154B1B1F1A60D6
:10415000704739B1124A121D12680243104B1B1DE1
:104160001A6006E00E4A121D126882430C4B1B1D9A
:104170001A607047042808D14FF0E021096941F026
:1041800004014FF0E022116107E04FF0E0210969DE
:1041900021F004014FF0E022116170470000FA05A0
:1041A0000CED00E000E400E080E100E080FFFF1F94
:1041B0000FB41CB5074B06AA7B44694600900598CE
:1041C00000F07BF80020694600F08AF81CBC5DF81E
:1041D00014FB0000250100002DE9F04104460E46C5
:1041E00000200AE0E1682046884738B3252806D039
:1041F000D4E901219047206A401C2062F2E7E1687F
:10420000204600278847050018D0A5F1410019284D
:1042100002D820354FF400673246294620462760F1
:10422000FBF7E0FF40B1012804D0F61D26F0070699
:104230000836D7E7361DD5E72846D9E7206ABDE816
:10424000F08170B505460C46012A05D02868800625
:1042500000D5EA69002302E0012305E05B1C9342DC
:1042600002D2E05C0028F9D1A869E618C01AA8615A
:10427000286A184428622846AFF3008004E0D5E994
:10428000012114F8010B9047B442F8D32846AFF34C
:10429000008070BD70477047704710B500F03CF863
:1042A000006810BD10B5044600F036F8046010BD7B
:1042B00001694A1C02610878704700B58FB0CDE9EA
:1042C00001310021059105497944CDE903101146DA
:1042D0006846FFF781FF0FB000BD0000E5FFFFFF5C
:1042E0000A6802F8010B0A60704710B5436913B100
:1042F000AFF3008001E0FFF7A4FF012010BD1268BA
:1043000000F124010A7000224A700122EDE71168D1
:104310004FF0FF32E9E70000004870475C030020DF
:10432000004870475C0300207546FFF7F9FFAE4672
:1043300005006946534620F00700854618B020B5B1
:10434000FBF778FFBDE820404FF000064FF0000774
:104350004FF000084FF0000B21F00701AC46ACE82D
:10436000C009ACE8C009ACE8C009ACE8C0098D469A
:1043700070470446AFF300802046FBF747FF00007C
:10438000004870476003002001491820ABBEFEE7DB
:10439000260002007047490050EAC12018BF0420DF
:1043A0004A0D18BF40F0010040F2FF72B2EB515FBE
:1043B00008BF40F00200012808BF05207047000038
:1043C0002DE9F74F144696B00021C4E90211179960
:1043D000099121F00047C9498F4206DC1799C4E9C9
:1043E000000119B00020BDE8F08FC549C54EB942A3
:1043F00041DD0999DFF81083DFF810A3C44A0029D2
:104400001BDD3346179901F063F9B74206D0C14A64
:10441000C14B01F05DF9C4E900010AE04FF0D3524D
:10442000BD4B01F055F94246534601F051F9C4E93C
:10443000000119B00120BDE8F08F354633461799C9
:1044400000F02EFDAF4206D0B24AB34B00F028FD7B
:10445000C4E900010AE04FF0D352AF4B00F020FD59
:104460004246534600F01CFDC4E9000119B04FF06C
:10447000FF30BDE8F08FA9498F42179977DC21F012
:1044800000458346A64AA74B294600F0E1FF0022DB
:10449000A54B00F005FD00F017FF0A9000F071FF3A
:1044A00080468A469A4A334600F0D2FF2B465A4647
:1044B00001F002F905460E46964A974B4046514692
:1044C00000F0C6FF3A0D01270C922A46334601F050
:1044D000F3F8032FC4E9000138D00C98C1F30A5156
:1044E000401A07EB4711113988422FDD8F4800969B
:1044F000784400EB07100D90D0E90023AB4640460E
:10450000514600F0A5FFCDE9040102460B4658468E
:10451000009901F0DDF805460E4602460B46584666
:10452000009901F0D5F8DDE9042301F0D1F88346C4
:104530000D9804915146D0E90223404600F088FFCF
:104540005A46049B01F0C4F87F1CBEE70998002876
:10455000A2BF0A9819B0BDE8F08F616881F00041F0
:1045600061600A9819B04042BDE8F08FFFE78446C9
:104570001798C1F31301C0F30A5041F48011A0F25F
:10458000F5300591411100F01F08C8F1200012908C
:104590000020109011906648784400EB810000F1F3
:1045A000140311A8062719685D68129A01FA08F128
:1045B00025FA02F21143059AD0F800A0A1FB025699
:1045C000A1FB0C2192440D44924534BF4FF0010BE6
:1045D0004FF0000B50F8042C05EB0B0E72448D428B
:1045E00034BF012100213144BBF1000F02D0AA42A7
:1045F00002D903E0AA4201D2012500E000252944A6
:10460000C0F800A040E902121B1F001F7F1ECAD184
:104610000C980F9F00F10050800F12900C98DDE96C
:104620000D56800000F0ADFECDE90801284600F0EF
:10463000BFFE6FF01D0201F02CFCCDE906013046F3
:1046400000F0B6FE6FF03D0201F023FC82468B467F
:10465000384600F0ADFE6FF05D0201F01AFC07462F
:10466000884652465B4600F01BFCDDE9062300F05D
:1046700017FCDDE9082300F013FCDDE90823002521
:104680000E46284601F024F8DDE9062301F020F863
:1046900052465B4601F01CF83A46434601F00CF8DE
:1046A000DFF894A0234A534600F0D2FE80460F461E
:1046B000224A234B3146284600F0CAFE42463B467A
:1046C00000F0EEFB074688464FF0A84253463146BD
:1046D000284600F0BDFE3A46434600F0E1FB179A3B
:1046E00012F0004F04D0129A81F00041524212920F
:1046F000C4E90001129819B0BDE8F08FFB21E93F31
:104700007CD90240FB21F93F7370032E8A19A33B29
:10471000000040543163621A61B4D03DFB2139413D
:1047200083C8C96D305FE43F0000E03FFC1A000021
:10473000841A0000182D4454FB21F93D3326A6119C
:10474000460B113C2DE9FF4D21F0004807460C4671
:10475000B8F1795F08DA00F0B7FD002801BF00204A
:10476000324904B0BDE8F08D3A462346104619465A
:1047700000F06EFE054602462D480E460B46062109
:10478000784400F05DF82A46334600F061FEDDE92A
:10479000022382468B463846214600F059FE0446E5
:1047A0000F4652465B462846314600F051FE2246EF
:1047B0003B4600F08DFF07468A464FF0FF32284601
:1047C000314601F066FB1B4A90450ADA3A465346E9
:1047D00000F07EFF04B00022BDE8F04D134B00F066
:1047E0006BBF154A4245A8BFA8F500154FF000045D
:1047F000B8BF124D22462B4600F06AFF0646884697
:1048000022462B460020094900F062FF04460D466F
:104810003A4653463046414600F05AFF04B022461D
:104820002B46BDE8F04D00F047BF00000000F03F10
:10483000341800003333D33F0000E93F0000D23F7B
:104840002DE9F0414F1E00EBC7010446D1E90001FC
:1048500015461E4637F006020DD02A46334600F0B4
:10486000F7FD7F1E04EBC703D3E9002300F018FB1C
:1048700037F00602F1D1022F25D0042F13D0062FD6
:1048800018BFBDE8F0812A46334600F0E1FDD4E9C7
:104890000A2300F005FB2A46334600F0D9FDD4E98F
:1048A000082300F0FDFA2A46334600F0D1FDD4E992
:1048B000062300F0F5FA2A46334600F0C9FDD4E994
:1048C000042300F0EDFA2A46334600F0C1FDD4E996
:1048D000022300F0E5FA2A46334600F0B9FDD4E998
:1048E0000023BDE8F04100F0DBBA00002DE9FF4DE8
:1048F000054621F0004084B00C46B0F1795F0BDA38
:104900002846FFF748FD042808BF00F065F8284650
:1049100008B02146BDE8F08D2A460B46104600F04F
:1049200097FD06460F462A46234600F091FD804635
:1049300026488A4632463B4605217844FFF780FFE9
:1049400083461098029160B3214A224B404651465B
:1049500000F07EFDCDE900015A4640465146029BDB
:1049600000F076FD82468846DDE906014FF0FF3211
:1049700001F08FFA5246434600F0AAFE32463B460B
:1049800000F066FDDDE9062300F0A2FEDDE900236C
:1049900000F09EFE08B02A462346BDE8F04D00F028
:1049A0008BBE0B465A463046394600F051FD084A48
:1049B000084B00F075FA4246534600F049FD08B036
:1049C0002A462346BDE8F04D00F06ABA7A17000087
:1049D000495555555555C5BF024A0020110701F0EC
:1049E00058BA000001FDFFFF2DE9F84F04460D46BF
:1049F00021F0004000917449884213DB73498842DA
:104A000001DC08D13CB120462946BDE8F84F4FF003
:104A1000010201F03EBA6E48002DCCBF6D496E49CF
:104A2000BDE8F88F6D49884211DA6D498842A8BF08
:104A30004FF0FF366DDA20462946FFF7ACFC04281C
:104A400008BFFFF7C9FF20462946BDE8F88F654932
:104A5000DFF894A125F00045884232DA63498842A4
:104A600019DA002632464FF080432046294600F0EE
:104A700017FA0746884601222046294601F009FA1E
:104A80000022534600F024FE3A46434600F0C4FAA2
:104A900004460D463DE001260022534620462946A5
:104AA00000F0FEF907468846002253462046294674
:104AB00000F00EFE43463A4600F0AEFA04460D46BC
:104AC00027E04B4988421BDADFF8288102260022C2
:104AD00043462046294600F0BBFC0022534600F026
:104AE000DFF982460F46002243462046294600F061
:104AF000EFFD52463B4600F08FFA04460D4608E0B3
:104B0000032622462B4600203B4900F085FA044646
:104B10000D4622462B461046194600F099FC8B465E
:104B2000824602460B4600F093FC07460246334895
:104B300088460B4606217844FFF782FE52465B46C4
:104B400000F086FC82462E488B463A4643460521B5
:104B50007844FFF775FE3A46434600F079FC02467A
:104B60000B46002E504659460CDA00F099F92246C1
:104B70002B4600F06DFC01B022462B46BDE8F04FFD
:104B800000F09ABD00F08CF922462B4600F060FC44
:104B90001C4A7A4402EBC603D3E9002300F098FDD7
:104BA00022462B4600F094FD174A7A4402EBC603D6
:104BB000D3E9002300F080FD009A002AB8BF81F0FD
:104BC0000041BDE8F88F0000000010440000F07FB5
:104BD000182D4454FB21F93FFB21F9BF0000DC3FB5
:104BE0000000203E0000F33F0000F03F0000E63FE1
:104BF000008003400000F83F0000F0BF4E140000AA
:104C00000C140000AA130000721300002DE9F04DEF
:104C10009446CCF1000423F000464CEA0404524FC1
:104C200046EAD47498468A4621F00042BC4206D82F
:104C3000454240EA050442EAD474BC4204D9BDE8C6
:104C4000F04D624600F02CB9A8F14055A5F17F6502
:104C500055EA0C040BD0022404EAA874434DDFF893
:104C600010E144EADA7452EA000B04D00CE0BDE82B
:104C7000F04DFFF7B9BE002C14BF012CBDE8F08D3C
:104C8000022C30D0032C32D056EA0C0B0AD0BE4294
:104C900020D1BA4209D126F0804622F08042334624
:104CA000114617E000291ADB25E0DFF8C8B0FB4405
:104CB000002C04BFDBE90001BDE8F08D012C02BF30
:104CC000DBE9000181F00041BDE8F08D022C0AD043
:104CD000032C0CD0BA4212D1BAF1000F0BDA2348E0
:104CE0002549BDE8F08D28462449BDE8F08D2846C9
:104CF0007146BDE8F08D1D482149BDE8F08D921B3D
:104D000012153C2AC4BF19481D490EDCB8F1000F2A
:104D1000BEBF12F13C0F0020014606DB624600F0E8
:104D20007BF921F00041FFF75FFE002C08BFBDE8D2
:104D3000F08D012C04BF81F00041BDE8F08D114AD7
:104D4000114B022C07D000F0C3FC2A46BDE8F04D01
:104D50000A4B00F0BDBC00F0BBFC2A46BDE8F04D9C
:104D6000064B00F0A9BC00000000F07F182D445451
:104D7000FB2109C036130000FB21F9BFFB210940CC
:104D8000FB21F93F075C143326A6A13C00B5294B53
:104D900021F0004287B09A4203DC002213460092C1
:104DA00033E0254B9A420DD168B94FF00100FFF76F
:104DB00079FA002207B01346104611465DF804EB5D
:104DC00000F02AB906DB07B04FF001025DF804EBF2
:104DD00001F05FB802AAFFF7F3FA10F003014FF0F9
:104DE00001000DD0012914D002291AD00DF1080CB0
:104DF000BCE80F00FFF7A6FC07B081F0004100BD42
:104E00000DF1080C0090BCE80F00FFF76FFD07B034
:104E100000BD0DF1080CBCE80F00FFF793FC07B0D4
:104E200000BD0DF1080C0090BCE80F00FFF75EFD1F
:104E3000E2E70000FB21E93F0000F07F21F00042A3
:104E4000A2F16052B2F5801F01F0004328BFD2F1F9
:104E50007F6C0BD95FEA001C43EAC20242EB507040
:104E600018BF704728BF20F001007047B2F5801FBF
:104E7000BCBF184670474FEA410C1CF5001F02D218
:104E8000084600F059BF70B500F08CFB00000089A7
:104E9000FFF7F6BF4FF00040A0F58000704700001C
:104EA00010B591EA030F48BF83F0004300F1188466
:104EB000841A71EB030C05D2121943EB0C03001B8F
:104EC00061EB0C01DFF824E14FEA1154A4EB135C11
:104ED0001EEA430F18BF9EEA445F73D023EA0E0315
:104EE000DCF1200E21EA045143F4801332D322FA7C
:104EF0000CFE10EB0E0023FA0CFE41EB0E01CCF180
:104F0000200E03FA0EFE10EB0E0051F10001B1F578
:104F1000801FCCF1200E32D201EB045112FA0EF2B6
:104F2000BDE8104058BF7047401C38BF5FEA4202DE
:104F300018BF7047002814BF20F0010041F10001A4
:104F40004FEA410313F5001F38BF7047A1F1C0417C
:104F500000F076BB012A43EB0302ACF1200CDCF13C
:104F60001F0E32BF4FF0000E23FA0CF310EB0300BC
:104F700041EB0451B4EB115FD0D0A1EB045101F52A
:104F8000801149085FEA300001EB04510ED350F163
:104F9000000038BF12FA0EFE08D1BDE81040C9E784
:104FA000401C38BF5FEA4202CAD1C3E7BDE81040E7
:104FB0004FEA410313F5001F38BF7047A1F1C0410C
:104FC00000F03EBB9EEA445F08D011EA5E0FBDE8E8
:104FD000104004BF01F0004100207047BDE81040C0
:104FE00070B500F0DFFA00BF64FBBE3E0000E0FFDA
:104FF00002494FF0000000F01ABF00BF0000F87F28
:10500000491058BFC1F140415B1058BFC3F1404344
:105010008B42EFF3008070472DE9C04130B4DFF8D8
:10502000A0C23CEA111418BF3CEA131400F0EC8053
:1050300081EA03051CEA111444EAD57418BF1CEA7E
:10504000131500F0C780A4EB05044FF0004545EAB6
:10505000C12145EAC32341EA505143EA525304F1C6
:105060007F74994204F500344FEAC0204FEAC2220F
:1050700008BF904200F09C804FEA13650FF2401683
:10508000765D4FEA134506FB05F7C7F1807706FB0F
:1050900007F74FEAD737A7FB03687642C8F5803891
:1050A000A7FB06CE38BFA8F1010807FB08E64FF0C2
:1050B000000EA6FB028CE6FB03CEDCF1000CCEF169
:1050C000004E38BFAEF1010EA6FB0C584FF00007A2
:1050D0004FF00005E6FB0E87A1FB08C6A0FB07CE3C
:1050E00016EB0E0645F10005E1FB076515F1E04EF4
:1050F0007EBFA4F580345FEA46066D4116F1800755
:1051000045F100054FEA17274FEA066647EA0567AB
:10511000A6F1DE46B6F1805F4FEA15251FD9384665
:1051200024F0010C05EBC471BCF1FE6F01EB0C1116
:1051300002D8F0BCBDE8008124425CBF01F5801EAE
:105140009EEAC47F02D4F0BCBDE80081244238D47A
:10515000F0BCA1F1C041BDE8004100F071BA4FEAD6
:10516000D22242EA43524FEAD323A7FB02864FEAF8
:10517000D02040EA415007FB03661EEA0E0F4FEABB
:10518000D12105FB026658BFA6EB0056B6EB0056D0
:105190004FEA520E4EEAC37E18EB0E0E56EB530E3C
:1051A000BDD518EB02085E417F1C55F10005B6E73E
:1051B0004FF480154FF000074FF000064FF0000845
:1051C000ADE7F0BC4FF0000001F1C04101F000413B
:1051D000BDE8008111EA0C1F0CEA131500D00CE0A9
:1051E00013EA0C1F00F025804FF00000F0BC81EAAC
:1051F000030101F00041BDE80081F0BCBDE80041C1
:1052000081EA030100F01CBAF0BCBDE8004170B5B2
:1052100000F0C8F9097EFC3E00F007B881EA0301FE
:105220004FF0000001F00041704781EA030100F0F7
:1052300007BAF0BCBDE800414FF0000021497047BB
:10524000FFFDFBF9F7F5F4F2F0EEEDEBE9E8E6E44B
:10525000E3E1E0DEDDDBDAD8D7D5D4D3D1D0CFCDD2
:10526000CCCBCAC8C7C6C5C4C2C1C0BFBEBDBCBB0B
:10527000BAB9B8B7B6B5B4B3B2B1B0AFAEADACAB06
:10528000AAA9A8A8A7A6A5A4A3A3A2A1A09F9F9EE0
:105290009D9C9C9B9A999998979796959594939392
:1052A000929191908F8F8E8E8D8C8C8B8B8A898929
:1052B00088888787868585848483838282818180AC
:1052C0000000FF070000F87F4FEA41034FEA535305
:1052D000A3F58063D3F11E03C8BFD3F1210C0CDD0D
:1052E0004FF0004242EAC12242EA505232FA03FC35
:1052F0008CEAE17CACEBE1707047102BC4BF00205E
:10530000704703F5787CBCF1FF3F04D06FF000429A
:1053100082EA2100704770B500F044F94992248078
:1053200000207047F2E700004FEA1153A3F58063B5
:10533000D3F11E03A8BFD3F1200C08DB4FF00042CD
:1053400042EAC12252EA505232FA03F0704709424F
:105350000BD4102BC4BF0020704703F5787CBCF140
:10536000FF3F05D04FF0FF3070474FF0000070470F
:1053700070B500F017F900BF4992248000207047F3
:10538000F0E710F0004248BF4042B0FA80F310FA54
:1053900003F10AD0C3F11D0303F580634FEA4150C6
:1053A00002EB035202EBD12170474FF0000070472F
:1053B000B0FA80F310FA03F10AD0C3F11D0303F52C
:1053C00080634FEA41504FEA035202EBD12170470C
:1053D0004FF000007047000051EA030C17D41CF591
:1053E000801F58BFBCF5801F00F10680994218BF8E
:1053F000704708BF9042704707D711F5801F58BF0C
:1054000013F5801F19D499427047894270471CF5E3
:10541000801F08D5BCF5801FF7D58B4218BF704799
:1054200008BF824270474FF4001C1CEB410F38BF8D
:105430001CEB430F01D28B42704770B500F0B2F8FD
:10544000922449004FF000514FF08053FFF7D8BD30
:10545000DFF848C170B51CEA111E1EBF1CEA131507
:105460009EEA0C0F95EA0C0F00F06F8081EA0304AE
:1054700023EA4C134EEAD47E21EA4C1141F4801108
:1054800043F48013AE44A1FB024CA0FB0365AEF1D4
:105490007F7E361955EB0C05A1FB034C4CF1000344
:1054A000A0FB021C16EB0C06654153F100030942F8
:1054B00018BF46F0010613F4007F0BD14FEA033109
:1054C0004FEA0530340341EA155140EA16506FF0B7
:1054D00003020AE04FEAC3214FEAC520F40241EA81
:1054E000555140EA56506FF0020202EB2E4201EB9A
:1054F000025585EACE710AD05FEA440C18BF24F049
:10550000004450F1000041F1000120EAD47040F263
:10551000FE7C624500D270BDA84214BF4FF08044AB
:105520004FF04044002E08BF0024BEF1806FA8BF9A
:10553000A1F1C041BDE8704080F282804FF00000D0
:1055400001F1C04101F0004170479EEA0C0F0CEAE6
:10555000131518BF95EA0C0F06D04FF0000081EA32
:10556000030E0EF0004170BD00F01CF88900013EF2
:1055700000F007B800F009B84FEA430C5FEA5C5C42
:1055800008D081EA030100F05BB84FEA410C5FEA02
:105590005C5CF6D14FF00000014970470000FF0746
:1055A0000000F87F0EF1020E2EF0030E5EF8046B81
:1055B000364205D4012A43EB030515F5001F12D826
:1055C000012841EB010C1CF5001F0CD80ED14FEA4D
:1055D000D17C15F5001F0CEB4C0C0CF1020C08BF34
:1055E0004CEBD37C04E04FF0080C01E04FEAD37C95
:1055F0000CEB4C0526FA05F606F00706B6F1040C8E
:1056000006D20EEB860CBDE870404CF0010C6047F2
:10561000DFE80CF0090B02024FF000414FF00000F0
:10562000A1F5002170BD19461046012851EB010477
:1056300018BFD4F5001484BF002001F0004170BDF4
:105640000808A0F500114FEA3101704753EA010C38
:1056500017D41CF5801F58BFBCF5801F00F10680D1
:105660008B4218BF704708BF8242704707D713F5B7
:10567000801F58BF11F5801F19D48B4270479B4281
:1056800070471CF5801F08D5BCF5801FF7D59942DF
:1056900018BF704708BF904270474FF4001C1CEBC6
:1056A000430F38BF1CEB410F01D2994270470FB432
:1056B0000CBC03BCFFF7C1BE91EA030F10B581F02B
:1056C00000413FF5F5AB83F0004300F009B800005E
:1056D00010B591EA030F48BF83F000433FF5E8ABF4
:1056E000841A71EB030C07D212198CF0004C43EBB7
:1056F0000C03001B61EB0C01DFF8A4E14FEA11542D
:10570000A4EB135C1EEA430F18BF9EEA445F00F04F
:10571000B08023EA6E03524221EA0451C3EB6E03C8
:1057200038BF5B1EDCF1200E25D322FA0CFE10EBF5
:105730000E0043FA0CFE41EB0E01CCF1200E03FAF1
:105740000EFE10EB0E0051F10001CCF1200E29D419
:1057500012FA0EF201EB0451BDE8104058BF704739
:10576000401C1CBFB2F1004F704700280CBF491C01
:1057700020F00100704712EB020E43EB030218BF4A
:105780004FF0010E4EEA4202ACF1200CDCF11E0E8D
:1057900054D943FA0CFE10EB0E0051F1FF31CCF15D
:1057A0001E0ED5D50EF1010E12FA0EFE404141EB50
:1057B000010101EB445C5FEA5C5C10D910EBDE7028
:1057C00001EB045138BFBEF1004FBDE8104018BFD7
:1057D000704700280CBF491C20F00100704730D2F0
:1057E0004FEAD42C11F5001124F400641BD0B1FA57
:1057F00081F20B3AA41AA41ED2F12003914030FA90
:1058000003F31943904001EBCC71002C01EB0451E0
:10581000BDE81040A8BF704701F1C0414FF0000043
:1058200001F000417047B0FA80F310FA03F100D1A3
:1058300010BDE41A173C4805C90AE4E701EB04511E
:1058400010BD491001EB0451BDE810404FEA300093
:1058500002E04FF0000170474A0008BF0042F8D054
:10586000B2F5001F28BF704701F000414FF0000063
:1058700070479EEA445F07D011EA5E0FBDE8104012
:1058800004BF002100207047BDE8104070B5FFF74D
:1058900089FE00BF40DFF63E83F0004110467047AE
:1058A0000000E0FF43004FEAD30C4FEA3C0C4340BA
:1058B0001FBF40070CF1605113F0FE4F70471CF002
:1058C000006F03D100200CF0004170470CF0004342
:1058D00043EA507010B540EACC0000F0E0F900BF98
:1058E000000000924FEA0001FFF7AABE4FF000410E
:1058F0004FF00000A1F500217047000090EA010F71
:1059000048BF81F0004100F12482421A3CBF801A56
:1059100089184FEAD0524FF07F4C1CEA410FA2EB9E
:10592000D15318BF9CEA026F00F03B804FF0004C4F
:105930004CEA00204CEA012121FA03FC10EB0C0C8C
:105940001ED202F1FF325FEA1C2040EBC25038BF8A
:1059500070471CF07F0F4FEA400C18BFBCF17F4F1F
:1059600038BF7047C3F12003994008BF20F0010001
:10597000BCF17F4F38BF7047A0F1C04000F0DCB9E8
:105980004FEA3C00000A40EBC25028BF1CF0FF0F5A
:105990004FEA400CE6D018BFBCF17F4F38BF7047CC
:1059A000EAE79CEA026F05D010EA5C0F08BF00F03E
:1059B0000040704710B500F072F900BF64FBBE3EB6
:1059C0004FF47F0C1CEAD0121EBF1CEAD11392EADE
:1059D0000C0F93EA0C0F00F0858090EA010F48BF8E
:1059E00042F4807240F4000C41F400002CF07F413E
:1059F00020F07F4000B58142A2EB03020FF2081CA9
:105A0000ACEB504EC0F100009EF800E04FEA4E0EA5
:105A100000FB0EFC38BF49004FEA2C1C02F5FA02CD
:105A20000CFB0EF34FEACE1E4FEA112C4FEAC121B8
:105A30000EEB635E42EB22420EFB0CFC4FEA1C5362
:105A400000FB03114FEA112C4FEA01310EFB0CFC55
:105A50004FEADC4C00FB0C11C14228BF09184CEB8B
:105A600003335DF804EB10EB410143EBC250B2F598
:105A70007C0F38BF704729D512F0F00F1CBF00F122
:105A8000C04000F000407047008182838485868793
:105A900088898B8C8D8E8F919293959697999A9CED
:105AA0009D9FA0A2A3A5A7A8AAACAEB0B2B3B5B75C
:105AB000B9BCBEC0C2C5C7C9CCCED1D4D7D9DCDF32
:105AC000E2E6E9ECF0F3F7FAFE0000004FEA400CE2
:105AD0000CF1807CBCF17E4F28BF7047B0F1C04014
