:020000040800F2
:1000000000C00020A91600089D510008A151000859
:10001000A5510008A9510008AD51000800000000DA
:10002000000000000000000000000000B1510008C6
:10003000B551000800000000B95100082154000823
:10004000F9160008F9160008F9160008F916000854
:10005000F9160008F9160008F9160008F916000844
:100060009D4C0008FD4B00083D4D0008F9160008A6
:10007000F9160008F9160008F9160008F916000824
:10008000F9160008F9160008F9160008F916000814
:10009000BD510008F9160008F9160008F916000805
:1000A000F9160008E1480008F9160008F9160008DA
:1000B000F9160008F9160008F9160008F9160008E4
:1000C000F9160008F9160008F9160008F9160008D4
:1000D000F9160008F9160008F9160008F9160008C4
:1000E000F9160008F9160008C1510008F9160008B1
:1000F00059490008F9160008F9160008F916000811
:10010000F9160008F916000805480008F916000855
:1001100039550008F9160008F9160008F916000804
:10012000F9160008F9160008F9160008F916000873
:1001300000000000000000000000000000000000BF
:1001400000000000000000000000000000000000AF
:10015000000000000000000000000000000000009F
:10016000000000000000000000000000000000008F
:10017000000000000000000000000000000000007F
:10018000000000000000000000000000000000006F
:10019000000000000000000000000000000000005F
:1001A000000000000000000000000000000000004F
:1001B000000000000000000000000000000000003F
:1001C000000000000000000000000000000000002F
:1001D000000000000000000000000000000000001F
:0401E0005FF8E0F1F3
:1001E80081F0004102E000BF83F0004330B54FEAE0
:1001F80041044FEA430594EA050F08BF90EA020F4D
:100208001FBF54EA000C55EA020C7FEA645C7FEADF
:10021800655C00F0E2804FEA5454D4EB5555B8BF02
:100228006D420CDD2C4480EA020281EA030382EA73
:10023800000083EA010180EA020281EA0303362D05
:1002480088BF30BD11F0004F4FEA01314FF4801CD8
:100258004CEA113102D0404261EB410113F0004FEA
:100268004FEA03334CEA133302D0524263EB4303A1
:1002780094EA050F00F0A780A4F10104D5F1200E3F
:100288000DDB02FA0EFC22FA05F2801841F100019A
:1002980003FA0EF2801843FA05F359410EE0A5F16E
:1002A80020050EF1200E012A03FA0EFC28BF4CF09F
:1002B800020C43FA05F3C01851EBE37101F0004555
:1002C80007D54FF0000EDCF1000C7EEB00006EEB62
:1002D8000101B1F5801F1BD3B1F5001F0CD34908EC
:1002E8005FEA30004FEA3C0C04F101044FEA445243
:1002F80012F5800F80F09A80BCF1004F08BF5FEACA
:10030800500C50F1000041EB045141EA050130BDA9
:100318005FEA4C0C404141EB010111F4801FA4F14C
:100328000104E9D191F0000F04BF01460020B1FAA1
:1003380081F308BF2033A3F10B03B3F120020CDAD9
:100348000C3208DD02F1140CC2F10C0201FA0CF0B7
:1003580021FA02F10CE002F11402D8BFC2F1200C1C
:1003680001FA02F120FA0CFCDCBF41EA0C019040D2
:10037800E41AA2BF01EB0451294330BD6FEA04041B
:100388001F3C1CDA0C340EDC04F11404C4F1200206
:1003980020FA04F001FA02F340EA030021FA04F318
:1003A80045EA030130BDC4F10C04C4F1200220FA6F
:1003B80002F001FA04F340EA0300294630BD21FAAD
:1003C80004F0294630BD94F0000F83F4801306BF73
:1003D80081F480110134013D4EE77FEA645C18BF67
:1003E8007FEA655C29D094EA050F08BF90EA020FFE
:1003F80005D054EA000C04BF1946104630BD91EAF6
:10040800030F1EBF0021002030BD5FEA545C05D1F8
:100418004000494128BF41F0004130BD14F5800437
:100428003CBF01F5801130BD01F0004545F0FE41AB
:1004380041F470014FF0000030BD7FEA645C1ABFE0
:10044800194610467FEA655C1CBF0B46024650EA17
:10045800013406BF52EA033591EA030F41F4002143
:1004680030BD00BF90F0000F04BF0021704730B5C9
:100478004FF4806404F132044FF000054FF000019E
:1004880050E700BF90F0000F04BF0021704730B55F
:100498004FF4806404F1320410F0004548BF404234
:1004A8004FF000013EE700BF42004FEAE2014FEA89
:1004B80031014FEA02701FBF12F07F4393F07F4F64
:1004C80081F06051704792F0000F14BF93F07F4F96
:1004D800704730B54FF4607401F0004521F00041D9
:1004E80020E700BF50EA010208BF704730B54FF05F
:1004F80000050AE050EA010208BF704730B511F064
:10050800004502D5404261EB41014FF4806404F19B
:1005180032045FEA915C3FF4DCAE4FF003025FEA1D
:10052800DC0C18BF03325FEADC0C18BF033202EBA5
:10053800DC02C2F1200300FA03FC20FA02F001FAFF
:1005480003FE40EA0E0021FA02F11444C1E600BF9E
:1005580070B54FF0FF0C4CF4E06C1CEA11541DBF51
:100568001CEA135594EA0C0F95EA0C0F00F0DEF81C
:100578002C4481EA030621EA4C5123EA4C5350EA01
:10058800013518BF52EA033541F4801143F4801352
:1005980038D0A0FB02CE4FF00005E1FB02E506F0E3
:1005A8000042E0FB03E54FF00006E1FB03569CF038
:1005B800000F18BF4EF0010EA4F1FF04B6F5007F3E
:1005C80064F5407404D25FEA4E0E6D4146EB0606B0
:1005D80042EAC62141EA55514FEAC52040EA5E5039
:1005E8004FEACE2EB4F1FD0C88BFBCF5E06F1ED8E3
:1005F800BEF1004F08BF5FEA500E50F1000041EB1A
:10060800045170BD06F0004646EA010140EA0200C6
:1006180081EA0301B4EB5C04C2BFD4EB0C0541EAE8
:10062800045170BD41F480114FF0000E013C00F3FD
:10063800AB8014F1360FDEBF002001F0004170BD21
:10064800C4F10004203C35DA0C341BDC04F114043A
:10065800C4F1200500FA05F320FA04F001FA05F2C6
:1006680040EA020001F0004221F0004110EBD37093
:1006780021FA04F642EB06015EEA430E08BF20EABF
:10068800D37070BDC4F10C04C4F1200500FA04F362
:1006980020FA05F001FA04F240EA020001F00041F4
:1006A80010EBD37041F100015EEA430E08BF20EA67
:1006B800D37070BDC4F1200500FA05F24EEA020EAF
:1006C80020FA04F301FA05F243EA020321FA04F0DE
:1006D80001F0004121FA04F220EA020000EBD37095
:1006E8005EEA430E08BF20EAD37070BD94F0000F95
:1006F8000FD101F00046400041EB010111F4801FC9
:1007080008BF013CF7D041EA060195F0000F18BF79
:10071800704703F00046520043EB030313F4801FB5
:1007280008BF013DF7D043EA0603704794EA0C0F6F
:100738000CEA135518BF95EA0C0F0CD050EA410685
:1007480018BF52EA4306D1D181EA030101F0004102
:100758004FF0000070BD50EA410606BF104619462A
:1007680052EA430619D094EA0C0F02D150EA013636
:1007780013D195EA0C0F05D152EA03361CBF104677
:1007880019460AD181EA030101F0004141F0FE4116
:1007980041F470014FF0000070BD41F0FE4141F49A
:1007A800780170BD70B54FF0FF0C4CF4E06C1CEA9A
:1007B80011541DBF1CEA135594EA0C0F95EA0C0F4F
:1007C80000F0A7F8A4EB050481EA030E52EA03350A
:1007D8004FEA013100F088804FEA03334FF080552B
:1007E80045EA131343EA12634FEA022245EA111558
:1007F80045EA10654FEA00260EF000419D4208BF09
:10080800964244F1FD0404F5407402D25B084FEAB5
:100818003202B61A65EB03055B084FEA32024FF461
:1008280080104FF4002CB6EB020E75EB030E22BFBE
:10083800B61A754640EA0C005B084FEA3202B6EB7E
:10084800020E75EB030E22BFB61A754640EA5C002D
:100858005B084FEA3202B6EB020E75EB030E22BFBD
:10086800B61A754640EA9C005B084FEA3202B6EBBE
:10087800020E75EB030E22BFB61A754640EADC007D
:1008880055EA060E18D04FEA051545EA16754FEADF
:1008980006164FEAC30343EA52734FEAC2025FEAFD
:1008A8001C1CC0D111F4801F0BD141EA00014FF08C
:1008B80000004FF0004CB6E711F4801F04BF01435D
:1008C8000020B4F1FD0C88BFBCF5E06F3FF6AFAE79
:1008D800B5EB030C04BFB6EB020C5FEA500C50F109
:1008E800000041EB045170BD0EF0004E4EEA11318C
:1008F80014EB5C04C2BFD4EB0C0541EA045170BD93
:1009080041F480114FF0000E013C90E645EA060ED6
:100918008DE60CEA135594EA0C0F08BF95EA0C0F04
:100928003FF43BAF94EA0C0F0AD150EA01347FF44C
:1009380034AF95EA0C0F7FF425AF104619462CE723
:1009480095EA0C0F06D152EA03353FF4FDAE104686
:10095800194622E750EA410618BF52EA43067FF4D7
:10096800C5AE50EA41047FF40DAF52EA43057FF467
:10097800EBAE12E74FEA410212F5001215D211D57B
:100988006FF47873B3EB625212D94FEAC12343F084
:10099800004343EA505311F0004F23FA02F018BF06
:1009A800404270474FF00000704750EA013005D1CF
:1009B80011F0004008BF6FF0004070474FF0000092
:1009C800704700BF80F0004002E000BF81F00041A6
:1009D80042001FBF5FEA410392EA030F7FEA226CDD
:1009E8007FEA236C6AD04FEA1262D2EB1363C1BF6D
:1009F800D218414048404140B8BF5B42192B88BFDC
:100A0800704710F0004F40F4000020F07F4018BFFE
:100A1800404211F0004F41F4000121F07F4118BF1E
:100A2800494292EA030F3FD0A2F1010241FA03FCC6
:100A380010EB0C00C3F1200301FA03F100F00043AE
:100A480002D5494260EB4000B0F5000F13D3B0F176
:100A5800807F06D340084FEA310102F10102FE2AE5
:100A680051D2B1F1004F40EBC25008BF20F0010055
:100A780040EA03007047490040EB000010F4000F03
:100A8800A2F10102EDD1B0FA80FCACF1080CB2EB96
:100A98000C0200FA0CF0AABF00EBC25052421843F5
:100AA800BCBFD0401843704792F0000F81F400019A
:100AB80006BF80F400000132013BB5E74FEA41036D
:100AC8007FEA226C18BF7FEA236C21D092EA030FD9
:100AD80004D092F0000F08BF0846704790EA010F53
:100AE8001CBF0020704712F07F4F04D1400028BF80
:100AF80040F00040704712F100723CBF00F5000062
:100B0800704700F0004343F0FE4040F40000704797
:100B18007FEA226216BF08467FEA23630146420243
:100B280006BF5FEA412390EA010F40F48000704756
:100B38004FF0000304E000BF10F0004348BF4042FC
:100B48005FEA000C08BF704743F0964301464FF038
:100B580000001CE050EA010208BF70474FF0000394
:100B68000AE000BF50EA010208BF704711F00043D5
:100B780002D5404261EB41015FEA010C02BF8446A5
:100B88000146002043F0B64308BFA3F18053A3F504
:100B98000003BCFA8CF2083AA3EBC25310DB01FA4B
:100BA80002FC634400FA02FCC2F12002BCF1004FCF
:100BB80020FA02F243EB020008BF20F00100704760
:100BC80002F1200201FA02FCC2F1200250EA4C00B4
:100BD80021FA02F243EB020008BF20EADC707047FA
:100BE8004FF0FF0C1CEAD0521EBF1CEAD15392EA08
:100BF8000C0F93EA0C0F6FD01A4480EA010C4002E4
:100C080018BF5FEA41211ED04FF0006343EA50103D
:100C180043EA5111A0FB01310CF00040B1F5000F7F
:100C28003EBF490041EAD3715B0040EA010062F12E
:100C38007F02FD2A1DD8B3F1004F40EBC25008BF18
:100C480020F00100704790F0000F0CF0004C08BF36
:100C580049024CEA502040EA51207F3AC2BFD2F103
:100C6800FF0340EAC250704740F400004FF0000311
:100C7800013A5DDC12F1190FDCBF00F0004070474B
:100C8800C2F10002410021FA02F1C2F1200200FA89
:100C980002FC5FEA310040F1000053EA4C0308BF50
:100CA80020EADC70704792F0000F00F0004C02BFA1
:100CB800400010F4000F013AF9D040EA0C0093F01C
:100CC800000F01F0004C02BF490011F4000F013B76
:100CD800F9D041EA0C018FE70CEAD15392EA0C0FE4
:100CE80018BF93EA0C0F0AD030F0004C18BF31F04F
:100CF800004CD8D180EA010000F00040704790F025
:100D0800000F17BF90F0004F084691F0000F91F0C8
:100D1800004F14D092EA0C0F01D142020FD193EA8E
:100D28000C0F03D14B0218BF084608D180EA010016
:100D380000F0004040F0FE4040F40000704740F0F2
:100D4800FE4040F4400070474FF0FF0C1CEAD052C0
:100D58001EBF1CEAD15392EA0C0F93EA0C0F69D01C
:100D6800A2EB030280EA010C49024FEA402037D087
:100D78004FF0805343EA111143EA10130CF000407E
:100D88008B4238BF5B0042F17D024FF4000C8B426E
:100D980024BF5B1A40EA0C00B3EB510F24BFA3EB4E
:100DA800510340EA5C00B3EB910F24BFA3EB91031E
:100DB80040EA9C00B3EBD10F24BFA3EBD10340EA78
:100DC800DC001B0118BF5FEA1C1CE0D1FD2A3FF6BE
:100DD80050AF8B4240EBC25008BF20F00100704773
:100DE8000CF0004C4CEA50207F32C2BFD2F1FF0316
:100DF80040EAC250704740F400004FF00003013A47
:100E080037E792F0000F00F0004C02BF400010F4EA
:100E1800000F013AF9D040EA0C0093F0000F01F0FE
:100E2800004C02BF490011F4000F013BF9D041EA20
:100E38000C0195E70CEAD15392EA0C0F08D1420253
:100E48007FF47DAF93EA0C0F7FF470AF084676E726
:100E580093EA0C0F04D14B023FF44CAF08466EE7FF
:100E680030F0004C18BF31F0004CCAD130F00042CD
:100E78007FF45CAF31F000437FF43CAF5FE700BF25
:100E88004FF0FF3C06E000BF4FF0010C02E000BF4E
:100E98004FF0010C4DF804CD4FEA40024FEA4103F0
:100EA8007FEA226C18BF7FEA236C11D001B052EAA6
:100EB800530C18BF90EA010F58BFB2EB030088BF6C
:100EC800C81738BF6FEAE17018BF40F001007047DB
:100ED8007FEA226C02D15FEA402C05D17FEA236CBD
:100EE800E4D15FEA412CE1D05DF8040B704700BF04
:100EF800844608466146FFE70FB5FFF7C9FF00289B
:100F080048BF10F1000F0FBD4DF808EDFFF7F4FFD3
:100F18000CBF012000205DF808FB00BF4DF808ED6C
:100F2800FFF7EAFF34BF012000205DF808FB00BF8F
:100F38004DF808EDFFF7E0FF94BF012000205DF8B1
:100F480008FB00BF4DF808EDFFF7D2FF94BF012062
:100F580000205DF808FB00BF4DF808EDFFF7C8FF5B
:100F680034BF012000205DF808FB00BF4FEA4002B3
:100F7800B2F1FE4F0FD34FF09E03B3EB12620DD9BF
:100F88004FEA002343F0004310F0004F23FA02F029
:100F980018BF404270474FF00000704712F1610FD0
:100FA80001D1420205D110F0004008BF6FF00040A7
:100FB80070474FF0000070474FF0FF3C06E000BF5D
:100FC8004FF0010C02E000BF4FF0010C4DF804CDCA
:100FD8004FEA410C7FEA6C5C4FEA430C18BF7FEA8A
:100FE8006C5C1BD001B050EA410C0CBF52EA430CB8
:100FF80091EA030F02BF90EA020F0020704710F138
:10100800000F91EA030F58BF994208BF90422CBFC6
:10101800D8176FEAE37040F0010070474FEA410CBF
:101028007FEA6C5C02D150EA013C07D14FEA430CDD
:101038007FEA6C5CD6D152EA033CD3D05DF8040B4E
:10104800704700BF8446104662468C461946634680
:1010580000E000BF01B5FFF7B7FF002848BF10F157
:10106800000F01BD4DF808EDFFF7F4FF0CBF01209C
:1010780000205DF808FB00BF4DF808EDFFF7EAFF18
:1010880034BF012000205DF808FB00BF4DF808EDD3
:10109800FFF7E0FF94BF012000205DF808FB00BFC8
:1010A8004DF808EDFFF7CEFF94BF012000205DF852
:1010B80008FB00BF4DF808EDFFF7C4FF34BF01205F
:1010C80000205DF808FB00BF4BB942B9002908BFF2
:1010D800002802D04FF0FF31084600F03BB882B03C
:1010E800EC462DE9005000F01DF8DDF804E002B0F0
:1010F8000CBC70472DE9F0411646984604460D464B
:1011080000F02AF806FB01FCA6FB002300FB08C739
:10111800FB18A21A65EB0303069CC4E90023BDE88B
:10112800F08100BF2DE9F041904606460F461D4666
:1011380000F070F900FB05F3A0FB084508FB013837
:10114800069B4544341B67EB0505C3E90045BDE82C
:10115800F08100BF704700BF00292DE9F00F1D4640
:10116800C0F29D800024002DC0F2948080460F4676
:1011780094461E46E3BB8A4255D9B2FA82F747B174
:10118800C7F1200520FA05F601FA07F1BA40B84080
:101198003143170CB1FBF7F61FFA82FC07FB161157
:1011A8000CFB06F5030C43EA01439D4208D9711E66
:1011B8009B1880F013819D4240F21081023E9B18DB
:1011C800591BB1FBF7F507FB15130CFB05FC80B2A7
:1011D80040EA03418C4507D96B1E8A1880F00081CC
:1011E800944540F2FD80023D45EA0641002503E0B2
:1011F8008B420CD9002529460A462B4614B1524287
:1012080063EB430310461946BDE8F00F7047B3FA85
:1012180083F5002D40F087808B4201D38242EAD8C3
:1012280000250121E8E712B90126B6FBF2F2B2FA6D
:1012380082F6002E39D18E1A130C1FFA82FC012572
:10124800B6FBF3F703FB17610CFB07F84FEA1049ED
:1012580049EA0146B04506D9791EB61802D2B0450A
:1012680000F2D3800F46C8EB0606B6FBF3F103FB8A
:1012780011630CFB01FC80B240EA03439C4506D98C
:101288004E1E9A1802D2944500F2C280314641EAB5
:101298000741B1E7E443524263EB430366E7404248
:1012A80061EB41014FF0FF345DE7B240C6F1200920
:1012B80021FA09F720FA09F901FA06F1130CB7FB2C
:1012C800F3F81FFA82FC03FB18770CFB08F549EAD0
:1012D80001094FEA194141EA0747B040BD420AD91E
:1012E800BF1808F1FF3680F08E80BD4240F28B8037
:1012F800A8F10208BF18791BB1FBF3F503FB15171A
:101308000CFB05F61FFA89F949EA07418E4206D90E
:101318006F1E891871D28E426FD9023D89188E1BB3
:1013280045EA08458CE7C5F1200122FA01F306FADF
:1013380005F627FA01F207FA05F720FA01F11E432C
:101348004FEA1649B2FBF9F81FFA86FA09FB182288
:101358000AFB08FB0F433B0C43EA024293450CFA95
:1013680005FC08D9921908F1FF314AD2934548D9AA
:10137800A8F102089219CBEB0203B3FBF9F109FBC0
:1013880011320AFB01FABFB247EA02439A4506D96D
:101398004A1E9B1933D29A4531D902399B1941EA21
:1013A80008410F0C1FFA8CF808FB07F68AB24FEABF
:1013B8001C4C08FB02F80CFB02620CFB07FC02EB5E
:1013C8001842964288BF0CF5803CCAEB03030CEB2D
:1013D800124C63450ED305D000250DE70E46EFE607
:1013E8001D4601E700FA05F01FFA88F808EB0245E8
:1013F800A842F1D201390025FEE63D468FE71146A5
:10140800CDE78846B7E7B04675E7023FB6182AE742
:1014180002393CE72DE9F007144605460E46002B35
:101428003DD18A4249D9B2FA82F747B1C7F12001C2
:1014380020FA01F206FA07F6BC40BD401643220C1A
:10144800B6FBF2F0A1B202FB106601FB00F32F0C11
:1014580047EA0646B34208D9471E361980F0FA8093
:10146800B34240F2F78002383619F61AB6FBF2F3A7
:1014780002FB136201FB03F1ADB245EA024291425D
:1014880007D95E1E121980F0E780914240F2E4808D
:10149800023B43EA00400021BDE8F00770478B4259
:1014A80043D8B3FA83F4002C42D18B4202D3824250
:1014B80000F2E18000210120EEE712B90127B7FB15
:1014C800F2F4B4FA84F2002A40F089800A1B230C53
:1014D800A7B20121B2FBF3F603FB162207FB06F0C5
:1014E8004FEA154C4CEA0242904207D9121906F10C
:1014F800FF3C02D2904200F2D0806646121AB2FB3C
:10150800F3F003FB102307FB00F7ADB245EA0343F2
:101518009F4207D9421E1B1980F0A0809F4240F2CB
:101528009D80023840EA0640B6E700210846B3E746
:10153800C4F1200622FA06F703FA04F321FA06F5A5
:1015480001FA04F120FA06F63B434FEA134CB5FBC7
:10155800FCF71FFA83F80CFB175508FB07F946EA56
:10156800010A4FEA1A4141EA0545A94502FA04F27F
:1015780004D97E1EED18C0F081803746C9EB0501FD
:10158800B1FBFCF60CFB161508FB06F81FFA8AFAE5
:101598004AEA0541884503D9751EC91874D32E46F1
:1015A80046EA0746370C1FFA82FC0CFB07F5120CBB
:1015B800B3B20CFB03FC02FB035302FB07F203EB81
:1015C8001C439D4288BF02F58032C8EB010102EB43
:1015D800134291424CD343D0304600215CE79440FB
:1015E800C2F1200521FA05F620FA05F501FA02F103
:1015F800230CB6FBF3FCA7B203FB1C6607FB0CF835
:1016080029430D0C45EA0646B04500FA02F508D90B
:1016180036190CF1FF303ED2B0453CD9ACF1020C82
:101628003619C8EB0602B2FBF3F003FB102607FBE2
:1016380000F889B241EA0642904506D9461E1219B9
:1016480027D2904525D902381219C8EB020240EA80
:101658000C413FE7384608E733461AE7104661E78A
:1016680000FA04F01FFA8CFC0CEB03439842B3D247
:10167800701E002110E7214620460DE7A9457FF698
:101688007CAF023FED1879E7884588D9023EC91832
:1016980086E73046D9E78446C3E7023E12192DE7AC
:1016A800002100F004B80D4B5B58435004310C483E
:1016B8000C4B42189A42FFF4F6AF0B4A00F003B8FD
:1016C800002342F8043B094B9A42FFF4F9AF03F0B8
:1016D800C3FD05F057FE02F091FD7047C8E500080C
:1016E80000000020A4090020A4090020341A0020CA
:1016F800FFF7FEBF70B48AB3561EF2B2531C5E00E9
:10170800030FB21E0024092BC2F3400228D9373335
:101718000B7002230001B3424C701FD052B1020F6C
:10172800092A13D93732CA54CA1802330001B342FE
:10173800547013D0050F092D15D83035CD5400013C
:10174800020FCD180233092A6C70EBD83032CA5414
:10175800CA1802330001B3425470EBD170BC704711
:1017680030330B70D5E73735CD54E8E730B54FF453
:10177800006483B0C4F201040420012105F088FB51
:101788004FF4805503231422204601A98DF8063012
:101798008DF80720ADF8045005F06AF9294620466F
:1017A80005F0A0FAC82004F065F82946204605F09F
:1017B80097FA4FF4802005F055F940F6F061C2F22F
:1017C80000014FF480230B600822012308464A7168
:1017D8008B7105F001F903B030BD00BF002008B5DA
:1017E80005F0E4FA4FF400000121BDE8084005F0D7
:1017F8005DBB00BF054B987A20B9054901220A60F4
:1018080003F02ABD024B05201860F9E7041A0020EE
:10181800B009002010B54FF4A06082B004F0B8FF02
:101828000124142301A8022100228DF804308DF828
:1018380005108DF806208DF8074004F0B3FF2A2321
:1018480001A88DF804308DF8054004F0ABFF02B014
:1018580010BD00BF704700BF4FF2E8724FF2F0733F
:10186800C1F6FF72C1F6FF7310681A684FF2EC7187
:10187800C1F6FF71801810B50C6800D110BD0822A0
:101888000449FFF737FF044920460422BDE8104009
:10189800FFF730BF020000201200002070B5104D85
:1018A8002B68BBB9402911D9402426463246C021AD
:1018B80004F0B6FD0120314604F00AFF2968012032
:1018C80062182A6004F066FE204670BD0C4621B9F5
:1018D800204670BD0024204670BD0E460C46E5E744
:1018E800EC0E00202DE9F041214F0C463B68DFF853
:1018F80088808B4238BF3C6814B31E4D98F800109E
:1019080001236E5C621E9C42067002EA03021E46B8
:1019180016D932B16B1C5A5C02239C4242701E4697
:101928000ED9EA1812F801C00133DAB200F806C07D
:10193800531CAE18765CDBB29C4286541E46F0D827
:10194800386898F80010051B3D603D68621888F8F3
:10195800002055B90320402104F0CAFE03204FF4AB
:10196800405104F0F7FD044B1D702046BDE8F0819E
:10197800380F0020F80E0020A509002040F6A41317
:10198800C2F200031878421E514251EB0200704720
:1019980040F6B01240F6A4130021C2F20002C2F2CF
:1019A8000003116019707047034B0128187002D1A9
:1019B8000248002202607047A4090020EC0E0020B3
:1019C80040F6A413C2F200031878704708B5032044
:1019D80004F0B0FE40F63873C2F2000318601A68CB
:1019E80040F6F860C2F200004FF4887192B2BDE888
:1019F800084004F051BD00BF45F64442C4F200025D
:101A080038B51368284C98B2284D208021882B8837
:101A1800194001F4007081B239B125494FF6FF50E1
:101A280010600A78501CC2B20A702188194001F46B
:101A3800004082B2002A32D1218801F4806003423A
:101A480021D1228802F400510B4211D1228802F4DC
:101A580080510B4200D138BD45F64440C4F2000025
:101A68004EF6FF7303600020BDE8384000F094B9DB
:101A780045F64443C4F200034DF6FF701860FFF7C3
:101A880087FF2B88E2E70B4945F64443C4F200037D
:101A98004FF6FF321A60486880472B88D1E704F078
:101AA800E5FB2B88C8E700BF3C0F0020281A002060
:101AB800A60900205C000020034B987A10B1034966
:101AC80005220A60704700BF041A0020B0090020F0
:101AD80040F6B013C2F2000304221A60704700BF38
:101AE800034B1A78202A01D100201870704700BFD4
:101AF800AC090020704700BF09B1022070470128D7
:101B0800FBD80846704700BF08B103487047034B2D
:101B1800082219680A827047D8000020241A002079
:101B280008B103487047034B082219680A827047B6
:101B3800D8000020241A0020054B1968CA78042A06
:101B480004D8044B03EBC20104F08EB800207047A0
:101B5800241A0020B800002040F2B001C2F20001AF
:101B680004F082B810B5044603F050FC064B19681F
:101B7800401AB0F57A7F01D903F0EEF903492046FF
:101B8800BDE8104004F070B8A809002054000020F7
:101B980010B504460220FFF707FF074B18680178C5
:101BA80001F07F02212A01D0022010BD022C01D0B1
:101BB800222CF9D1002010BD241A002010B50446AB
:101BC8000120FFF7F1FE212C03D0202C11D0022098
:101BD80010BD0F4B19680A7802F07F002128F6D152
:101BE8000C4A1B68002420469A615C829047204674
:101BF80010BD074B1A68107800F07F01212903D027
:101C0800054B02201C7010BD0348044A0470E8E725
:101C1800241A0020111B0008AC090020291B000809
:101C280010B503F0F3FB41F624234DF6A412C0F6D9
:101C38000002C2F200031B68D17940F6A812C2F272
:101C480000020024597210609C72DC72204604F075
:101C58004BFC20464FF4007104F050FC1021204644
:101C680004F058FC4021204604F0FEFC8021204668
:101C780004F0E8FC204604F0B1FC40F25C00C2F23B
:101C8800000090F82C10204604F032FD204604F0A5
:101C980093FC0120214604F031FC0120C02104F00E
:101CA800D1FC0120202104F035FC0120214604F05C
:101CB80051FC02204FF4C06104F020FC02204FF4D4
:101CC800807104F0BFFC0220214604F043FC02208E
:101CD800202104F01FFC0320214604F00FFC032000
:101CE8004FF4887104F0C0FC0320402104F000FD8B
:101CF80003204FF4405104F02DFC2146032004F04A
:101D080009FC204604F00AFA40F6B013C2F20003B8
:101D18000121196010BD00BF10B5FFF79DFD41F608
:101D28002423C2F2000318680024847200F008F823
:101D380004F018FD40F6B011C2F200010C6010BDAD
:101D480038B50120FFF786FD45F6444545F6404382
:101D580041F62822C4F2000300214FF4E054012088
:101D6800C4F20005C2F20002186019600846296032
:101D780014801C6038BD00BF10B545F64044C4F25D
:101D8800000422684FF6FB7313402360FFF732FD0F
:101D98004FF43640206010BD10B52B4C072818BFF3
:101DA80020702378052B19D8DFE803F01B222A2F8F
:101DB8003A036078411ECAB26270637883B945F607
:101DC8004042C4F2000210684FF6EF710140116002
:101DD8001D4A1E49062010700B6010BD0620207099
:101DE80010BD1A480268002A28D00521217010BDAC
:101DF800FFF7C2FF154B042201212270196010BDA4
:101E0800022303206370207010BD6278511ECBB28C
:101E1800637060780028E3D10B4904220A7010BD72
:101E280045F64043C4F20003186882B242F010013C
:101E380019600A2005232370607010BDFFF79CFF0E
:101E48000623237010BD00BF400F0020B4090020F6
:101E580030B54FF4805087B0082300246946C4F297
:101E68000100ADF800308DF8034004F001FE4FF496
:101E7800004004F0A1FF01214FF4007005F008F8BC
:101E88004FF41050C4F2010004F0CAFC4FF4105093
:101E98004FF460220125C4F2010001A903920194C4
:101EA8008DF808408DF8094004948DF8145004F01A
:101EB800EFFC4FF41050C4F20100294604F00EFD67
:101EC8004FF41050C4F2010004F012FD4FF410500A
:101ED800C4F2010004F012FD0028F7D14FF41050AD
:101EE800C4F2010004F00EFD4FF41050C4F20100DA
:101EF80004F00EFD0028F7D107B030BD01464FF4BD
:101F0800105008B5C4F201000122032304F00EFDAD
:101F18004FF41050C4F20100012104F0FDFC4FF40D
:101F28001050C4F20100022104F050FD0028F6D040
:101F38004FF41050C4F20100BDE8084004F042BD5F
:101F48000FB410B5C2B044AC54F8042BFF2123469B
:101F580002A8019405F06AFB02A803F0DDFA02A8C2
:101F680005F008FB014602A803F00CFC42B0BDE8EE
:101F7800104004B0704700BF0FB410B5C2B044ACF5
:101F880054F8042B02A8FF212346019405F04EFBC8
:101F980002A803F0C1FA42B0BDE8104004B070478F
:101FA80000B50C4B83B01868002804DB4FF0FF32F3
:101FB8001A6003B000BD03F0F5FB38B10DF107005E
:101FC800012103F0F5FB9DF80700F2E703F08CFA16
:101FD800EFE700BFE400002010B5002407E0642C00
:101FE80009D0FFF7DDFF0134002804DB0134FFF7D7
:101FF800D7FF0028F3DA204610BD00BF10B582B025
:1020080002AC04F8010D03F07FFA2046012103F029
:10201800B9FB02B010BD00BF704700BF08B503F0A0
:102028007BFABDE8084003F065BA00BF08B503F0C5
:10203800F3FA4DF6E810C0F60000FFF7EFFF03F0E3
:102048008BFB4DF6F810C0F60000BDE80840FFF71E
:10205800E5BF00BF70B5FFF7A3FF041E53DB03F015
:10206800B5FBA4F12B034B2B4DD8DFE813F0FC0094
:102078004C00EA004C004C004C004C004C004C005A
:102088004C004C004C004C004C004C004C004C00E8
:102098004C004C004C004C004C004C004C004C00D8
:1020A8004C004C004C00E6004C004C004C004C002E
:1020B8004C004C004C004C004C004C00DB004C0029
:1020C8004C004C004C004C004C004C004C004C00A8
:1020D8004C004C004C004C004C004C00D000CA0096
:1020E800C4004C004C009700870083007F004C0020
:1020F8004C004C004C00790073004C006D005E00F1
:102108004C0053004D0070BD5B485C49BDE8704011
:10211800FFF716BF5A480468FFF752FC02465948B1
:102128002146BDE87040FFF727BF574B57481A684C
:1021380082F00102564C57491A60002A08BF21460E
:10214800BDE87040FFF7FCBE534B5448196881F056
:102158000102EFE7524B53481C6884F00102E9E79B
:10216800514B186880F001025048E3E7504B0022B9
:102178001A6070BD4E480121016070BD4D4D0024AC
:10218800FFF70EFF0028FBDBFE28D8BF605501349F
:102198000C2CF5D1BDE8704000F01CB9454C64200A
:1021A80003F068FB7820FFF729FF2078FFF726FF68
:1021B8006078FFF723FFA078FFF720FFE078FFF7AC
:1021C8001DFF2079FFF71AFF6079FFF717FFA07945
:1021D800FFF714FFE079FFF711FF207AFFF70EFFF2
:1021E800607AFFF70BFFA07AFFF708FFE07ABDE8F7
:1021F8007040FFF703BF304B30481C6884F0010281
:1022080098E72F4B2F481A6882F0010292E72E4870
:10221800FFF796FE4FF47A7003F02CFBBDE8704090
:1022280002F09ABE2948FFF78BFE4FF47A7003F04C
:1022380021FBBDE8704002F085BEBDE8704000F0AB
:1022480087B9234C4CF6CD41C3F6CC512068FEF734
:10225800BDFB2060FEF728F902461E480B46BDE884
:102268007040FFF76DBE1A4C4CF6CD41C3F6CC5109
:102278002068FEF7ADFBECE704DB000814DB000880
:10228800B0090020D8DA0008180A0020C0DA0008CF
:1022980010DA00080CDA0008C00900209CDA0008EF
:1022A800100A002080DA00081C0A002064DA0008FE
:1022B800640F0020E8000020E409002050DA00083C
:1022C800BC09002038DA000814DA0008B0DA00087F
:1022D800F40000201CDB000808B5002000F09EF97F
:1022E800FE289CBF3A4B1870052003F0C3FA012062
:1022F80000F094F9FE289CBF35494870052003F08A
:10230800B9FA022000F08AF9FE289CBF304A907082
:10231800052003F0AFFA032000F080F9FE289CBFE7
:102328002B4BD870052003F0A5FA042000F076F9AD
:10233800FE289CBF26490871052003F09BFA05205A
:1023480000F06CF9FE289CBF214A5071052003F06B
:1023580091FA062000F062F9FE289CBF1C4B987188
:10236800052003F087FA072000F058F9FE289CBFE3
:102378001749C871052003F07DFA082000F04EF9CE
:10238800FE289CBF124A1072052003F073FA092038
:1023980000F044F9FE289CBF0D4B5872052003F04D
:1023A80069FA0A2000F03AF9FE289CBF08498872A9
:1023B800052003F05FFA0B2000F030F9FE289CBFDF
:1023C800034AD0720520BDE8084003F053BA00BFA5
:1023D800E800002008B503F0F9F9002000F01EF924
:1023E800411C06D0594B1978814202D0002000F0D8
:1023F800F7F8052003F03EFA012000F00FF9421C1F
:1024080006D052494978814202D0012000F0E8F80C
:10241800052003F02FFA022000F000F9431C06D033
:102428004A4A9178814202D0022000F0D9F805206A
:1024380003F020FA032000F0F1F8411C06D0434BCA
:10244800D978814202D0032000F0CAF8052003F0B1
:1024580011FA042000F0E2F8421C06D03B49097941
:10246800814202D0042000F0BBF8052003F002FAF4
:10247800052000F0D3F8431C06D0344A5179814234
:1024880002D0052000F0ACF8052003F0F3F906208F
:1024980000F0C4F8411C06D02C4B9979814202D037
:1024A800062000F09DF8052003F0E4F9072000F06D
:1024B800B5F8421C06D02549C979814202D00720C7
:1024C80000F08EF8052003F0D5F9082000F0A6F8F2
:1024D800431C06D01D4A117A814202D0082000F020
:1024E8007FF8052003F0C6F9092000F097F8411C91
:1024F80006D0164B597A814202D0092000F070F8B4
:10250800052003F0B7F90A2000F088F8421C06D02D
:102518000E49897A814202D00A2000F061F805202C
:1025280003F0A8F90B2000F079F8431C06D0074AFD
:10253800D17A814202D00B2000F052F8052003F036
:1025480099F9BDE8084003F049B900BFE800002048
:1025580038B54DF638304DF6483540F2E804C0F647
:102568000005C2F20004C0F60000FFF7E9FC21787C
:102578002846FFF7E5FC28466178FFF7E1FC284686
:10258800A178FFF7DDFC2846E178FFF7D9FC28465B
:102598002179FFF7D5FC28466179FFF7D1FC284659
:1025A800A179FFF7CDFC2846E179FFF7C9FC284659
:1025B800217AFFF7C5FC2846617AFFF7C1FC284657
:1025C800A17AFFF7BDFC2846E17AFFF7B9FC4DF682
:1025D800BC60C0F60000BDE83840FFF7B1BC00BFE2
:1025E80038B5044605200D4603F044F900F06AFFAB
:1025F800AE2001F005F801F0CDFC204601F000F80E
:1026080001F0C8FC284600F0FBFF01F0C3FC00F015
:102618007FFF0520BDE8384003F02CB938B50546E2
:10262800174C012003F026F90023236000F04AFF2D
:10263800AE2000F0E5FF01F0ADFC284600F0E0FF19
:1026480001F0A8FC00F064FF012003F013F900F08A
:1026580039FFAF2000F0D4FF01F09CFC01F026F90F
:10266800054600F0A5FF00F053FF012003F002F932
:10267800206800280CBF28464FF0FF3038BD00BF47
:10268800B817002040F66C73C2F2000300212DE950
:10269800F0411868C4F27A41FEF7A2FA40F6E81150
:1026A800C2F200010968FEF793F940F2E804C2F2A9
:1026B800000406466078FEF73BFA3146FEF790FACA
:1026C8000021C4F27A41FEF73FFB07462079FEF766
:1026D8002FFA0021C4F2C821FEF736FB40F69875A0
:1026E800C2F20005296880463046FEF76FF90146B8
:1026F8004046FEF775FA014638462E60FEF768F93F
:10270800E179BDE8F04102F005B800BF40F66C730E
:10271800C2F2000300212DE9F0415868C4F27A4161
:10272800FEF75EFA40F6F811C2F200010968FEF7FA
:102738004FF940F2E804C2F2000406462078FEF79A
:10274800F7F93146FEF74CFA0021C4F27A41FEF758
:10275800FBFA0746E078FEF7EBF90021C4F2C8213E
:10276800FEF7F2FA40F67C75C2F200052968804649
:102778003046FEF72BF901464046FEF731FA01468E
:1027880038462E60FEF724F9A179BDE8F04101F042
:10279800E5BF00BF40F66C73C2F2000300212DE9CB
:1027A800F0419868C4F27A41FEF71AFA40F614210B
:1027B800C2F200010968FEF70BF940F2E804C2F220
:1027C80000040646A078FEF7B3F93146FEF708FA8A
:1027D8000021C4F27A41FEF7B7FA07466079FEF79E
:1027E800A7F90021C4F2C821FEF7AEFA40F67875C1
:1027F800C2F20005296880463046FEF7E7F8014630
:102808004046FEF7EDF9014638462E60FEF7E0F83F
:10281800217ABDE8F04101F0C5BF00BF2DE9F041C4
:10282800364D374C9626354800F040FDA968286893
:1028380009F01AFDA9688046686809F015FD0021AD
:102848000746C4F215312068FEF7CAF94146FEF77B
:10285800BDF80021C4F21631FEF776FA0021C4F261
:10286800153120606068FEF7BBF901463846FEF76F
:10287800AFF80021C4F21631FEF766FA6060012055
:1028880002F0F8FF1D4800F011FDA968286809F05A
:10289800EBFCA9688046686809F0E6FC0021074659
:1028A800C4F215312068FEF79BF94146FEF78EF811
:1028B8000021C4F21631FEF747FA0021C4F215319F
:1028C80020606068FEF78CF901463846FEF780F80C
:1028D8000021C4F21631FEF737FA013E606001208C
:1028E80002F0C8FF013E064F9DD1064B79683A6851
:1028F800002059601A609860BDE8F081CC0900207A
:10290800800F00206C0F00202DE9F84F0C4606467A
:10291800916810681D461746DDF8288009F0A4FC68
:10292800B9688146786809F09FFC00210746C4F21F
:10293800C6213068FEF754F94946FEF747F80021EA
:10294800C4F2C821FEF700FA00213060C4F2C621A3
:102958007068FEF745F901463846FEF739F8002158
:10296800C4F2C821FEF7F0F9706029688346404632
:10297800FEF736F9676801463846FEF729F8394602
:1029880082465846FEF722F84BF21771C3F65111EA
:10299800FEF726F901465046FEF71AF860608146B0
:1029A80009F026FC0746484609F0EEFB8146A86870
:1029B800394600F10040FEF713F969688346484636
:1029C800FEF70EF901465846FEF702F80146404662
:1029D800FEF706F9D4F800A001465046FDF7F8FFC7
:1029E800514683463068FDF7F1FF4BF21771C3F685
:1029F8005111FEF7F5F801465846FDF7E9FF20604A
:102A0800A968484601F10041FEF7EAF869680646F8
:102A18003846FEF7E5F801463046FDF7D7FF014690
:102A28004046FEF7DDF80146A068FDF7D1FFA0603B
:102A3800BDE8F88F2DE9F04FDFF8C49299B0D9F8C6
:102A480000301090581CC9F8000002F0BFFE02F0D8
:102A5800E1FE16A802F0B4FB934800F027FC16A884
:102A680002F0B6FB1190914800F04CFC16A802F059
:102A7800AFFB8F4C109D214612908B4A8B4B0095D3
:102A88008C48FFF741FF16A802F0A2FB8A4D13906D
:102A9800697A8A4E312900F01582D6F804A00021FF
:102AA800C4F27A415046FEF74FF9D4F80480024642
:102AB800DFF850B25046DBF800100D92FDF788FFA2
:102AC8007F4F0D9B396882461846FDF781FF4146C6
:102AD8003860FDF77DFF0021C4F24821FEF780F839
:102AE8000021CBF680710746FEF718FA002840F05F
:102AF800B18038464FF07E51FEF72EFA08B14FF0FC
:102B08007E57704A394617605046FDF761FFDFF877
:102B1800F8813368CBF80000D8F8001018460D93F8
:102B2800FDF756FF684F0021C4F27A4182460D989E
:102B3800FEF70AF93968FDF74BFF21683860FDF7A1
:102B480047FF0746E87A6438FDF7F6FF0021C4F22C
:102B58002011FEF7F9F843F23331C4F26521FEF78C
:102B6800F3F801463846FDF733FF0021C4F2482147
:102B7800FEF736F80021CBF680710746FEF7CEF94E
:102B8800002863D138464FF07E51FEF7E5F908B1C9
:102B98004FF07E574D4A504639461760FDF718FFEB
:102BA800AD7AC8F80000302D00F0A881B768DFF8CA
:102BB8005CA13846DAF80010FDF70AFF444D002101
:102BC800CAF80000C4F27A413846FEF7BDF8296811
:102BD800FDF7FEFE286016A802F0FAFA1490FFF737
:102BE80095FDFFF74FFDFFF7D5FD16A802F0F0FAA7
:102BF800159016A802F0F4FA364F05463B68581CA3
:102C0800B0F5FA7F38601CDB33490A68002A7FD1A7
:102C1800324A1368002B40F0A78031480368002B24
:102C280040F0D2802F4A1368002B40F0E6802E48EF
:102C38000168002940F00E812C4A136873B90020FE
:102C4800386002F0CBFD19B0BDE8F08F0027CBF655
:102C580080779FE70027CBF6807752E7244C2549F9
:102C6800A268254894E80808D1F800804E688D6865
:102C7800D0F800A0D0F8049084680E920D9302F06A
:102C880019FD0D9B0E99009306900291CDF804B0A2
:102C9800CDF80CA0CDF8109005941848414632465E
:102CA8002B46FFF74DF9CAE7CC090020000A00209F
:102CB8006C0F0020800F0020E8000020EC090020A5
:102CC800C4090020B00F0020FC090020900F00204C
:102CD800B8090020C8090020E4090020180A0020CB
:102CE800100A0020C00900201C0A0020BC0900208E
:102CF800BC170020C8170020D4170020F0DC0008FB
:102D08000C0A0020F8090020E8090020140A002015
:102D1800AC49D9F800300A6820680E920D9302F089
:102D2800B1FD034660680F9302F0ACFD8146A068D0
:102D380002F0A8FD04460F98FDF7B6FBCDE90001A7
:102D48004846FDF7B1FBCDE902012046FDF7ACFB93
:102D58000E9ACDE904019C480D99FFF7F1F89B4ABA
:102D68001368002B3FF459AF1098FDF79DFB984C62
:102D7800024620680E920D91FDF796FBCDE9000101
:102D88006068FDF791FBCDE90201A068FDF78CFBB7
:102D9800CDE904018F4C2068FDF786FBCDE90601DB
:102DA8006068FDF781FBCDE90801A068FDF77CFBB1
:102DB8000D9BCDE90A010E9A8748FFF7C1F88748AD
:102DC8000368002B3FF42EAF01F04EF9FDF76CFBC2
:102DD8000B4611990246019112981399029003919A
:102DE800149815990490009505917D48FFF7A8F867
:102DF8007C4A1368002B3FF41AAFDFF8FC91D9F82E
:102E08000400FDF751FB0446D9F800000D46FDF714
:102E18004BFBCDE90001D9F80800FDF745FBCDE9EA
:102E280002017068FDF740FBCDE90401B068FDF7C9
:102E38003BFBCDE906013068FDF736FB2246CDE9BC
:102E480008012B466848FFF77BF8684801680029A5
:102E58003FF4F2AEDBF8000002F014FD0546D8F8A6
:102E6800000002F00FFD8046DAF8000002F00AFDCB
:102E780000210646C4F27A412846FDF765FFFDF7B2
:102E880013FB0D4600210446C4F27A414046FDF783
:102E98005BFFFDF709FBCDE900010021C4F27A418F
:102EA8003046FDF751FFFDF7FFFA22462B46CDE9E4
:102EB80002014F48FFF744F84E4A1368002B3FF4CD
:102EC800BEAECBE64C49304601F084FFD4F804800E
:102ED80046F2F161CBF65F714046D6F804A0FEF7E2
:102EE8001DF8002855D050460021FEF735F8002877
:102EF8004FD000229246C6F804A0D9E53F4D0021E4
:102F0800C4F2C6212868FDF76BFE07460D20FEF7C0
:102F1800F5FFA0F5FA60FDF70FFE0021C4F27A5123
:102F2800FDF712FF01463846FDF752FD0021C4F2B5
:102F3800C821FDF709FFDFF8D0A0B3680746DAF823
:102F4800001018462F600D93FDF742FD2C4D00210F
:102F5800CAF80000C4F27A410D98FDF7F5FE296819
:102F6800FDF736FD274928608A7A302A7FF433AE88
:102F7800A56838462946FDF729FD4DF20A71C3F6C2
:102F88002341FDF72DFE01462846FDF721FDA060EF
:102F980021E640F6D9714046C3F6C971FDF7DCFF5A
:102FA80020B150460021FDF7B9FF38B9002150463D
:102FB800C4F27A41FDF7C8FE02469CE74FF0000ACA
:102FC800524698E7B417002050DB0008180A002082
:102FD800CC090020000A002098DB0008100A002015
:102FE800E4DB0008C009002048DC00081C0A0020B7
:102FF800A8DC0008BC090020D80900208C0F00209C
:10300800B8090020E8000020140A002038B51E4D39
:1030180000242046FDF790FD40F6DB71C4F2C9019B
:10302800FDF7DEFD4FF06A51FDF7DAFD09F0E0F833
:103038004FF47E41C4F2FF61FDF7D2FD02F02AFC95
:10304800FDF794FF013468802046FDF775FD40F6D2
:10305800DB71C4F2C901FDF7C3FD4FF06A51FDF7FA
:10306800BFFD09F0C5F84FF47E41C4F2FF61FDF7DA
:10307800B7FD02F00FFCFDF779FF0134A880043595
:10308800B4F5806FC5D138BDB20F002010B501204E
:1030980002F0F0FB00F016FAD02000F0B1FA00F0D0
:1030A80079FF752000F0ACFA00F074FF00F030FAF8
:1030B800012002F0DFFB00F005FAD12000F0A0FAB1
:1030C80000F068FF00F0F2FB044600F071FA00F02F
:1030D8001FFA682C40F09F80052002F0CBFB00F01F
:1030E800F1F9D02000F08CFA00F054FF192000F01C
:1030F80087FA00F04FFF002000F082FA00F04AFF44
:1031080000F006FA052002F0B5FB00F0DBF9D0204C
:1031180000F076FA00F03EFF1A2000F071FA00F095
:1031280039FF022000F06CFA00F034FF00F0F0F9EB
:10313800052002F09FFB00F0C5F9D02000F060FAEE
:1031480000F028FF1B2000F05BFA00F023FF0820A6
:1031580000F056FA00F01EFF00F0DAF9052002F040
:1031680089FB00F0AFF9D02000F04AFA00F012FF16
:10317800372000F045FA00F00DFF002000F040FA7B
:1031880000F008FF00F0C4F9052002F073FB00F01E
:1031980099F9D02000F034FA00F0FCFE382000F055
:1031A8002FFA00F0F7FE002000F02AFA00F0F2FEF5
:1031B80000F0AEF9052002F05DFB00F083F9D020A5
:1031C80000F01EFA00F0E6FE6B2000F019FA00F09D
:1031D800E1FE002000F014FA00F0DCFE00F098F99F
:1031E800052002F047FB00F06DF9D02000F008FA46
:1031F80000F0D0FE6A2000F003FA00F0CBFE0920B0
:1032080000F0FEF900F0C6FE00F082F9052002F099
:1032180031FB002010BD4FF0FF3010BD70B5224CBF
:1032280000230E462360054600F04CF9D02000F03C
:10323800E7F900F0AFFE206800B170BDE8B200F019
:10324800DFF900F0A7FE21680029F6D100F060F947
:1032580000F038F9D12000F0D3F900F09BFE226885
:10326800002AEAD100F022FB307000F079F900F072
:103278001DFB707000F074F900F018FBB07000F0DE
:103288006FF900F013FBF07000F06AF900F00EFB24
:10329800307100F065F900F009FB707100F088F9F1
:1032A800BDE8704000F034B9B817002010B582B0FE
:1032B800044669463B20FFF7B1FF114B1868E8B98F
:1032C8009DF800109DF8012042EA012318B2FDF78D
:1032D80033FC9DF802109DF80320206042EA01208B
:1032E80000B2FDF729FC9DF804109DF805306060D8
:1032F80043EA012210B2FDF71FFCA06002B010BD26
:10330800B817002010B582B0044669464320FFF77D
:1033180085FF224B186800283ED19DF801109DF8C2
:10332800002041EA02231E4A18B21380FDF704FC6C
:103338001C490968FDF74AFB0021C4F2FA51FDF760
:1033480003FD9DF803309DF80220206043EA022126
:10335800154A08B21180FDF7EFFB144B1968FDF709
:1033680035FB0021C4F2FA51FDF7EEFC9DF805206B
:103378009DF80410606042EA01230D4918B20B80E1
:10338800FDF7DAFB0B4A1168FDF720FB0021C4F2B8
:10339800FA51FDF7D9FCA06002B010BDB8170020A3
:1033A800280A00202C0A0020200A0020300A0020C9
:1033B8002A0A0020240A00202DE9F04F394EDFF8B0
:1033C800F0A0394DDFF8EC90384CDFF8EC8087B08E
:1033D800002703A8FFF796FFBAF90000FDF7ACFB3A
:1033E8003168FDF7F5FA3060B9F90000FDF7A4FB84
:1033F8002968FDF7EDFA2860B8F90000FDF79CFB95
:103408002168FDF7E5FA2060022002F033FA03A8EC
:10341800FFF778FFBAF90000FDF78EFB3168FDF77A
:10342800D7FA3060B9F90000FDF786FB2968FDF787
:10343800CFFA2860B8F90000FDF77EFB2168FDF798
:10344800C7FA0137FFB22060022002F013FA781C95
:10345800C7B2642FDFF84CB0134A144BB9D100211E
:10346800DBF80000C4F2C82101920093FDF76CFC60
:10347800CBF8000001980021C4F2C8210068FDF7CC
:1034880063FC019A009B00211060C4F2C8211868EF
:10349800FDF75AFC00990860052002F0EBF907B027
:1034A800BDE8F08F2C0A0020300A0020240A0020F2
:1034B800280A0020200A00202A0A0020012002F001
:1034C800D1B900BF10B54FF44064C4F201042046DE
:1034D80001224FF4006103F007FC204601224FF45B
:1034E800806103F001FCFFF7E9FF204600224FF45A
:1034F800006103F0F9FBFFF7E1FF20464FF480611C
:10350800002203F0F1FBBDE81040FFF7D7BF00BF72
:1035180010B54FF44064C4F20104204600224FF471
:10352800806103F0E1FBFFF7C9FF204600224FF45A
:10353800006103F0D9FBFFF7C1FF204601224FF4D9
:10354800806103F0D1FBFFF7B9FF20464FF400611B
:10355800012203F0C9FBBDE81040FFF7AFBF00BF71
:1035680010B54FF44064C4F20104204600224FF421
:10357800806103F0B9FBFFF7A1FF204600224FF45A
:10358800006103F0B1FBFFF799FF204601224FF4D9
:10359800806103F0A9FBFFF791FF20464FF480619B
:1035A800002203F0A1FBBDE81040FFF787BF00BF72
:1035B80010B54FF44064C4F20104204600224FF4D1
:1035C800806103F091FBFFF779FF204601224FF459
:1035D800006103F089FBFFF771FF204601224FF4D9
:1035E800806103F081FBFFF769FF20464FF480619B
:1035F800002203F079FBBDE81040FFF75FBF00BF72
:1036080010B504464FF44060C4F201004FF48061E5
:10361800002203F069FBFFF751FF4FF440602206D8
:10362800C4F201004FF4006100F12081002203F090
:103638005BFB6000C4B2FFF741FF4FF4406001221A
:10364800C4F201004FF4806103F04EFBFFF736FF30
:103658004FF44060C4F201004FF48061002203F08F
:1036680043FBFFF72BFF4FF440602306C4F2010031
:103678004FF4006100F1FE80002203F035FB610089
:10368800CCB2FFF71BFF4FF440600122C4F20100E7
:103698004FF4806103F028FBFFF710FF4FF4406000
:1036A800C4F201004FF48061002203F01DFBFFF714
:1036B80005FF4FF440602206C4F201004FF4006198
:1036C80000F1DC80002203F00FFB6200D4B2FFF7A8
:1036D800F5FE4FF440600122C4F201004FF480610E
:1036E80003F002FBFFF7EAFE4FF44060C4F201006A
:1036F8004FF48061002203F0F7FAFFF7DFFE4FF482
:1037080040602306C4F201004FF4006100F1BA8062
:10371800002203F0E9FA6300DCB2FFF7CFFE4FF4B2
:1037280040600122C4F201004FF4806103F0DCFA2A
:10373800FFF7C4FE4FF44060C4F201004FF480610B
:10374800002203F0D1FAFFF7B9FE4FF440602206D9
:10375800C4F201004FF4006100F19880002203F0E8
:10376800C3FA6000C4B2FFF7A9FE4FF4406001221B
:10377800C4F201004FF4806103F0B6FAFFF79EFE31
:103788004FF44060C4F201004FF48061002203F05E
:10379800ABFAFFF793FE4FF440602306C4F2010032
:1037A8004FF4006176D4002203F09EFA6100CCB297
:1037B800FFF784FE4FF440600122C4F201004FF489
:1037C800806103F091FAFFF779FE4FF44060C4F28C
:1037D80001004FF48061002203F086FAFFF76EFEC5
:1037E8004FF440602206C4F201004FF4006155D442
:1037F800002203F079FAFFF761FE4FF440600122DE
:10380800C4F201004FF4806103F06EFAFFF756FE30
:103818004FF44060C4F201004FF48061002203F0CD
:1038280063FAFFF74BFE4FF440606306C4F20100F1
:103838004FF4006136D4002203F056FAFFF73EFE3B
:103848004FF440600122C4F201004FF4806103F09C
:103858004BFAFFF733FE4FF44060C4F201004FF417
:1038680080610022BDE8104003F03EBA012203F057
:103878003BFADEE6012203F037FA00E7012203F003
:1038880033FA22E7012203F02FFA44E7012203F07A
:103898002BFA66E7012203F027FA87E7012203F0F3
:1038A80023FAA8E7012203F01FFAC7E74FF44060A4
:1038B8002DE9F0470122C4F201004FF4006103F042
:1038C80013FA4FF440600022C4F201004FF4806103
:1038D80003F00AFAFFF7F2FD4FF440600122C4F248
:1038E80001004FF4806103F0FFF94FF440604FF49A
:1038F8000061C4F2010003F0EDF904464FF44060A2
:103908004FF40061C4F2010003F0E4F907464FF4F4
:1039180040604FF40061C4F2010003F0DBF9814616
:103928004FF440604FF40061C4F2010003F0D2F993
:1039380080464FF440604FF40061C4F2010003F088
:10394800C9F906464FF440604FF40061C4F2010023
:1039580003F0C0F905464FF440604FF40061C4F22B
:10396800010003F0B7F909EB0803D9198A195719A7
:103978003E184FF440604FF40061C4F2010003F0B8
:10398800A9F9341904F0FF052B184FF44060DFB291
:103998000022C4F201004FF48061032F8CBF02247F
:1039A800144603F0A1F9FFF789FD4FF440600122A6
:1039B800C4F201004FF4806103F096F94FF44060BF
:1039C8004FF40061C4F2010003F084F905464FF496
:1039D80040604FF40061C4F2010003F07BF98146B6
:1039E8004FF440604FF40061C4F2010003F072F933
:1039F80082464FF440604FF40061C4F2010003F0C6
:103A080069F980464FF440604FF40061C4F2010048
:103A180003F060F907464FF440604FF40061C4F2C8
:103A2800010003F057F906464FF440604FF4006177
:103A3800C4F2010003F04EF90AEB090101EB080298
:103A4800D3199F193E184FF440604FF40061C4F237
:103A5800010003F03FF9751905F0FF073818C1B2E6
:103A6800032988BF44F001044FF4406088BFE4B2E2
:103A7800C4F2010000224FF4806103F035F9FFF72A
:103A88001DFD4FF440600122C4F201004FF4806133
:103A980003F02AF94FF440604FF40061C4F20100CA
:103AA80003F018F905464FF440604FF40061C4F282
:103AB800010003F00FF981464FF440604FF40061B4
:103AC800C4F2010003F006F982464FF440604FF457
:103AD8000061C4F2010003F0FDF880464FF4406035
:103AE8004FF40061C4F2010003F0F4F807464FF404
:103AF80040604FF40061C4F2010003F0EBF80646A1
:103B08004FF440604FF40061C4F2010003F0E2F8A2
:103B18000AEB090202EB0803D9198F193E184FF472
:103B280040604FF40061C4F2010003F0D3F8751946
:103B380005F0FF073818C2B26400032A84BF44F0B6
:103B48000104E4B24FF4406063000022C4F20100B3
:103B58004FF48061DCB203F0C7F8FFF7AFFC4FF415
:103B680040600122C4F201004FF4806103F0BCF808
:103B78004FF440604FF40061C4F2010003F0AAF86A
:103B880005464FF440604FF40061C4F2010003F0B1
:103B9800A1F881464FF440604FF40061C4F201007F
:103BA80003F098F882464FF440604FF40061C4F285
:103BB800010003F08FF880464FF440604FF4006135
:103BC800C4F2010003F086F807464FF440604FF452
:103BD8000061C4F2010003F07DF806464FF440602E
:103BE8004FF40061C4F2010003F074F80AEB090114
:103BF80001EB0802D3199F193E184FF440604FF4A7
:103C08000061C4F2010003F065F8751905F0FF07BB
:103C18003818C1B203294FF4406088BF44F001044A
:103C2800C4F2010000224FF4806103F05DF8FFF751
:103C380045FC4FF440600122C4F201004FF480615A
:103C480003F052F84FF440604FF40061C4F20100F1
:103C580003F040F805464FF440604FF40061C4F2A9
:103C6800010003F037F881464FF440604FF40061DB
:103C7800C4F2010003F02EF882464FF440604FF47E
:103C88000061C4F2010003F025F880464FF440605B
:103C98004FF40061C4F2010003F01CF807464FF42A
:103CA80040604FF40061C4F2010003F013F80646C7
:103CB8004FF440604FF40061C4F2010003F00AF8C9
:103CC8000AEB090202EB0803D9198F193E184FF4C1
:103CD80040604FF40061C4F2010002F0FBFF751967
:103CE80005F0FF073818C2B26400E4B2032A4FF4A3
:103CF800406088BF44F00104C4F2010000224FF480
:103D0800806102F0F1FFFFF7D9FB4FF44060012218
:103D1800C4F201004FF4806102F0E6FF4FF4406006
:103D28004FF40061C4F2010002F0D4FF05464FF4DD
:103D380040604FF40061C4F2010002F0CBFF8146FD
:103D48004FF440604FF40061C4F2010002F0C2FF7A
:103D580082464FF440604FF40061C4F2010002F063
:103D6800B9FF80464FF440604FF40061C4F201008F
:103D780002F0B0FF07464FF440604FF40061C4F210
:103D8800010002F0A7FF06464FF440604FF40061BF
:103D9800C4F2010002F09EFF0AEB090303EB0801DD
:103DA800CA1997193E184FF440604FF40061C4F2E5
:103DB800010002F08FFF751905F0FF073818C3B22C
:103DC8006400E4B2032B4FF4406088BF44F0010460
:103DD800C4F2010000224FF4806102F085FFFFF772
:103DE8006DFB4FF440600122C4F201004FF4806182
:103DF80002F07AFF4FF440604FF40061C4F2010012
:103E080002F068FF05464FF440604FF40061C4F2C9
:103E1800010002F05FFF81464FF440604FF40061FB
:103E2800C4F2010002F056FF82464FF440604FF49E
:103E38000061C4F2010002F04DFF80464FF440607B
:103E48004FF40061C4F2010002F044FF07464FF44A
:103E580040604FF40061C4F2010002F03BFF0646E7
:103E68004FF440604FF40061C4F2010002F032FFE9
:103E78000AEB090101EB0802D3199F193E184FF408
:103E880040604FF40061C4F2010002F023FF75198D
:103E980005F0FF073818C1B26400E4B203294FF4F3
:103EA800406088BF44F00104C4F2010000224FF4CE
:103EB800806102F019FFFFF701FB4FF44060012217
:103EC800C4F201004FF4806102F00EFF4FF440602D
:103ED8004FF40061C4F2010002F0FCFE05464FF405
:103EE80040604FF40061C4F2010002F0F3FE814625
:103EF8004FF440604FF40061C4F2010002F0EAFEA2
:103F080082464FF440604FF40061C4F2010002F0B1
:103F1800E1FE80464FF440604FF40061C4F20100B6
:103F280002F0D8FE07464FF440604FF40061C4F237
:103F3800010002F0CFFE06464FF440604FF40061E6
:103F4800C4F2010002F0C6FE0AEB090202EB080304
:103F5800D9198A1913184FF440604FF40061C4F25C
:103F680001005D1902F0B6FE05F0FF054019C1B267
:103F78006400E4B203294FF4406088BF44F00104B0
:103F8800C4F201004FF48061002202F0ADFE204629
:103F9800BDE8F0874FF4406008B50022C4F2010084
:103FA8004FF4806102F0A0FEFFF788FA4FF44060FA
:103FB8000122C4F201004FF4006102F095FEFFF700
:103FC8007DFA4FF440600122C4F201004FF4806191
:103FD80002F08AFEFFF772FA4FF44060C4F2010063
:103FE8004FF4006102F076FE01280AD04FF44060D9
:103FF800C4F201004FF480610022BDE8084002F0DD
:1040080073BE044B186001F0FDFB03480268511CA5
:104018000160EBE7B8170020B417002010B5084C72
:1040280023685A1CB3F57A7F226008DD01F0DEFBB5
:1040380000F0CAFC5720FDF7EFFF0020206010BDFC
:10404800380A002008B5012142F67D2002F020FF41
:104058000F200121C0F2080002F028FF01200146CC
:10406800BDE8084002F006BF40F63423C2F2000360
:104078001868704710B501F0EBF9FFF7E3FF00F09F
:1040880083F962B6FDF7D2FF4648FDF759FF464867
:10409800FDF756FF00F0C6FC142401F0A7FB01F061
:1040A800C1FB642001F0E6FB013C01F09FFB01F03D
:1040B800B9FB642001F0DEFB013CEED1FDF780FC8A
:1040C800002860D03948FDF73BFF40F6B83001F0D2
:1040D800D1FBFDF775FC012860D03548FDF730FFAE
:1040E80034483549FDF72CFF344A4FF48053C4F265
:1040F800020318684DF683611368C4F21B3110F48B
:10410800003FA1FB030114BF2D482E48890CFDF781
:1041180017FF2D48FDF714FFFDF79AFE2B48FDF712
:104128000FFF04E02A48FDF70BFF01F087FBFEF7BD
:10413800ADFF0028F6D12748FDF702FFFEF7CCF8BF
:1041480001F064F901462448FDF7FAFEFFF734F957
:104158002248FDF7F5FE00F0F7FC2148FDF7F0FED8
:10416800FEF75CFBFEF752FFFDF736FF002802DD85
:104178001C48FDF7E5FE1C48FDF7E2FE1B48BDE8BC
:10418800104001F05FB91A48FDF7DAFE40F6B83082
:1041980001F070FB1748FDF7D3FE9EE71648FDF7C0
:1041A800CFFE9AE748DD00086CDD000880DD0008D6
:1041B80034DE000888DE000814DB00081401002043
:1041C800C0DE0008F8DE000834DF000844DF00081D
:1041D80058DF00087CDF000890DF0008B4DF000823
:1041E800C4DF0008D8DF000814E0000825400008F4
:1041F800D0DD000800DE00089CDD00082DE9F84F3E
:10420800FFF738FF01F002F9044601F0FFF8844295
:10421800FBD001F0CFF8054672B64FF0000840F227
:10422800F31601F0C7F8401BB04208F10108F8D9AD
:1042380062B601F0BFF8DFF890B0DFF890A005464D
:104248004FEA4808002740F2CF76002401F0B2F880
:104258008146401B0134B042F8D9FCF769FC054699
:104268002046FCF769FC0021C4F2C821FCF7B8FC21
:104278000021C4F27A41FCF7B3FC2946FCF764FD3F
:1042880004464046FCF758FC01462046FCF75CFD16
:10429800DAF80020CBF800008AB94FF41051C4F6C0
:1042A80074112846FCF750FDFEF7C4FB40F638238E
:1042B800C2F200031F604D46FDF7CCFEC5E700F0D3
:1042C80083FB01F0BBFAF1E7340A0020640F0020F9
:1042D800012830B409D002281AD0174B09221A60D5
:1042E8004FF0FF32104630BC7047002AFADD4FF419
:1042F80098448818C4F20004238803F040039BB252
:10430800002BF9D011F8013B8142A380F4D1E9E7F1
:10431800002AE7DD4FF498448D18C4F20004208881
:1043280000F0400398B20028F9D011F8013BA942E7
:10433800A380F4D1D6E700BF301A00200D4A08B593
:1043480013689BB1EFF308811818884202D81060EF
:10435800184608BD192202200749FFF7B9FF074B85
:104368000C221A604FF0FF33184608BD044B136047
:10437800E8E700BF3C0A00202CE00008301A0020C3
:10438800341A0020704700BF2DE9F04F4FF4006742
:1043980083B0C4F201074FF4406618250224C4F222
:1043A80001064FF4E063384601A9ADF804308DF8F2
:1043B80007508DF8064002F05BFB4FF46042304630
:1043C80001A9ADF804208DF807508DF8064002F0D9
:1043D8004FFB4FF480504FF4E07B01A9C4F2010079
:1043E800ADF804B08DF807508DF8064002F040FB98
:1043F8008023384601A94FF00308ADF804308DF842
:1044080007508DF8064002F033FB304601A9ADF89D
:1044180004808DF807508DF8064002F029FB07222A
:10442800384601A9ADF804208DF807508DF80640EC
:1044380002F01EFB304601A94FF0100AADF804B097
:104448008DF807508DF8064002F012FB4FF48053A8
:10445800304601A9ADF804308DF807A08DF8068024
:1044680002F006FB0822384601A9ADF804208DF8B1
:1044780007A08DF8068002F0FBFA4FF4406314227F
:10448800304601A9C146ADF804308DF807208DF8F3
:10449800068002F0EDFA03B0BDE8F08F38B50446A7
:1044A8000D4602F08BFD2046294602F0E3FD20462A
:1044B800294602F029FE2046082102F0A1FE2046E6
:1044C800082102F0A5FE20460821BDE8384002F088
:1044D800A9BE00BF70B58CB00024032201A94FF417
:1044E8007A760546ADF80420ADF80860ADF80640C8
:1044F800ADF80A408DF80C4002F0F4FC40F20010D0
:10450800C2F2000003684FF40062ADF810204FF4C7
:1045180080624FF48076284604A9ADF81220ADF8E1
:1045280016304FF480424FF40053ADF81A30ADF80E
:104538001C20ADF81460ADF8184002F02FFE60237F
:10454800ADF8203001220423284608A9ADF822201E
:10455800ADF82430ADF82640ADF82840ADF82A4033
:10456800ADF82C60ADF82E40FFF798FF0CB070BD89
:1045780070B5032388B006460D46002401A9ADF89E
:1045880004304FF47A724FF40073ADF80820ADF898
:104598000A30ADF8064002F0A5FC6022012330463F
:1045A80004A9ADF81020ADF81230ADF81640ADF8FA
:1045B8001850FFF773FF08B070BD00BF00B583B097
:1045C80000238DF80400012101A88DF805308DF82D
:1045D80006308DF8071002F0E5F803B000BD00BF03
:1045E800124A30B413680468C3F5FA714900E31A33
:1045F8008B42A8BF0B46036014684568A342B8BF46
:104608000023036013688468EA1AE41A8A42A8BF80
:104618000A468C42B8BF21469A42B8BF00228B4254
:10462800C8BF00214260816030BC7047F80000209C
:10463800F8B5364B05461C680E462046002117463D
:10464800FCF780FC002858D040F6DB71C4F2C901A1
:104658002046FCF779FB4FF08941FCF7C1FA01F0DD
:1046680019F9FCF783FC40F2FF33C8F2000303405A
:10467800002B44DB002BB8BF03F5806303F255160B
:1046880003F2AB242248B105A2058E0D940D30F932
:10469800131030F9163030F9140007EB870707FBC1
:1046A80000F207FB01F107FB03F301F57F51032437
:1046B80003F57F5302F57F523F31C8F201043F33BF
:1046C8003F3284FB010684FB037084FB0274C0182C
:1046D800CF17DB17A4187618D217C7EBA631C3EB90
:1046E800A037C2EBA43001F5FA7107F5FA7300F5AB
:1046F800FA7285E80A00AA60F8BD3446A4E7581E95
:104708006FEA80516FEA9152531CB3E7F40000201E
:10471800B40F002000B5034685B00A4601A8194623
:10472800FFF786FF72B640F64020019A0299039B74
:10473800C2F2000002604160836062B672B64FF454
:104748005050C4F20100028A22F001010B041A0C35
:1047580001210282818162B605B000BD00B5034621
:1047680085B00A4601A81946FFF762FF72B640F6FF
:104778004C20019A0299039BC2F20000026041603A
:10478800836062B672B64FF43050C4F20100028AF8
:1047980022F001010B041A0C01210282818162B608
:1047A80005B000BD00B585B00A46014601A8FFF76F
:1047B8003FFF01A8FFF714FF72B640F65823019A8D
:1047C80002980399C2F200031A605860996062B6B1
:1047D80040F2FC03C2F2000300221A6072B64FF4E2
:1047E8004060C4F20000018A21F001031A04110C90
:1047F80001230182838162B605B000BD4FF4406396
:10480800C4F200031A8AF0B4D2071AD5188A20F025
:1048180001010C04220C1A8272B6294A29499468AB
:104828009B8C886801349BB29460274A8342C8BF36
:104838008B6091688B42B8BF9360B3F5487F02D311
:1048480062B6F0BC70472148036833BB204E214D47
:1048580037682C88A88829897A0093B21F191E18EE
:104868005D184FF400624FF44063C4F20002C4F2D2
:104878000003BFB2B6B2ADB29786168795879C86FD
:10488800188799874FF44062C4F20002938923F095
:10489800010001040B0C9381D2E74FF400624FF43E
:1048A8004063C4F2000240F2E930C4F20003002180
:1048B800908610879087998619879987E2E700BFC5
:1048C800D4170020BC170020C8170020FC000020C7
:1048D800F8000020580A00204FF43052C4F20102B8
:1048E800138A10B423F0010001040C0C148272B670
:1048F80013491448938C4C6842689BB20134934224
:10490800C8BF436010484C6041688B42B8BF4360E1
:10491800B3F5487F10D20D4A4FF430531088918870
:104928001289C4F20103988619879A87988920F01A
:1049380001010A04100C988162B610BC704700BFD0
:10494800D4170020BC170020C81700204C0A0020EC
:104958004FF45052C4F20102138A10B423F001003C
:1049680001040C0C148272B613491448938C0C6819
:1049780002689BB201349342C8BF036010480C60C0
:1049880001688B42B8BF0360B3F5487F10D20D4A67
:104998004FF45053108891881289C4F20103988605
:1049A80019879A87988920F001010A04100C9881C8
:1049B80062B610BC704700BFD4170020BC17002097
:1049C800C8170020400A002010B54120FDF724FB3D
:1049D80072B640F64022C2F2000200231360536010
:1049E800936062B672B640F64C20C2F200000360D3
:1049F8004360836062B640F2FC024FF440644FF4B7
:104A080030504FF450510123C2F20002C4F20004A6
:104A1800C4F20100C4F201011360A38183818B8178
:104A280010BD00BF2DE9F0414FF43056C4F2010625
:104A380041F2D47141F2BC7241F2C8734FF450553F
:104A48000024C2F20002C2F20003C2F2000140F2E6
:104A5800E9373046C4F201054FF440689460546069
:104A680014609F605F601F608C604C600C60C4F2D3
:104A78000008FFF72FFD4FF400672846FFF72AFDCF
:104A8800C4F2000740462146FFF772FD022138466E
:104A9800FFF76EFD40F2F800C2F2000003883220F2
:104AA80003F5A87103F29F2289B292B2BB84B18444
:104AB800AA84FFF783FD1920FFF780FD2C20FFF75C
:104AC8007DFD72B64FF4004021460246034601249C
:104AD800C4F22522C4F22623C4F20120C4F2012123
:104AE80004600C604046146021461C6002F078FBAC
:104AF8003846214602F074FB3046214602F070FB2E
:104B08002846214602F06CFB62B6BDE8F08100BF82
:104B180010B54FF4806484B0C4F200044722002327
:104B280001A92046ADF804204FF6FF72ADF8063013
:104B3800ADF80820ADF80A3002F0D4F9204601217A
:104B480002F040FB04B010BD30B54FF4007085B0E2
:104B58000121C0F2300002F0D1F84FF44060182370
:104B68002822032501A9C4F20100ADF804308DF80C
:104B7800072004248DF8065001F07AFF4FF4805086
:104B88000DEB0401C4F20100ADF8044001F070FF20
:104B98000120294602F0EEF80120214602F0EAF849
:104BA8000220014602F0E6F81C240021102301220D
:104BB80002A88DF80C108DF80D308DF80E20029497
:104BC80001F00AFF204601F045FF204601F04AFFA8
:104BD8004FF46140CEF200004FF400714FF480634F
:104BE8004FF48072016003600260FFF791FF05B027
:104BF80030BD00BF10B54FF48064C4F2010463698E
:104C0800190700D410BD3320FDF706FA61694FF487
:104C1800406041F0080262610821C4F2010002F01C
:104C280059F8012827D0184C4FF44060C4F201000D
:104C3800082102F04FF880B114490B8822886FF4DC
:104C48007A71981A83B25A1890B240F2E6318842C3
:104C58000CD90F4B00221A6010BD4FF48062C4F2C9
:104C68000002908C094983B20B80E7E70849A3F555
:104C78007A70086010BD4FF48060C4F20000838C25
:104C8800014C2380D0E700BF780A0020760A002074
:104C9800680A002010B54FF48064C4F20104636907
:104CA8005B0700D410BD3220FDF7B6F961694FF4F7
:104CB800805041F0040262610421C4F2010002F054
:104CC80009F8012827D0184C4FF48050C4F201008D
:104CD800042101F0FFFF80B114490B8822886FF48A
:104CE8007A71981A83B25A1890B240F2E631884223
:104CF8000CD90F4B00221A6010BD4FF48062C4F229
:104D08000002908C094983B20B80E7E70849A3F5B4
:104D18007A70086010BD4FF48060C4F20000838C84
:104D2800014C2380D0E700BF7A0A0020740A0020D3
:104D3800640A002010B54FF48064C4F2010463696A
:104D4800D90600D410BD3420FDF766F961694FF427
:104D5800406041F0100262611021C4F2010001F0CC
:104D6800B9FF012827D0184C4FF44060C4F2010065
:104D7800102101F0AFFF80B114490B8822886FF42D
:104D88007A71981A83B25A1890B240F2E631884282
:104D98000CD90F4B00221A6010BD4FF48062C4F288
:104DA8000002908C094983B20B80E7E70849A3F514
:104DB8007A70086010BD4FF48060C4F20000838CE4
:104DC800014C2380D0E700BF720A0020700A00203F
:104DD8006C0A0020F8B5584B05461E680C46002E94
:104DE8006BD00021C4F247316068FBF7F9FE074633
:104DF8003046FBF7A1FE0021C4F2FA31FBF7E6FDCD
:104E080001463846FBF7E4FD0021C4F24831FBF7C0
:104E18009BFF00216060C4F2A0110646FCF79CF8D5
:104E2800002842D041F26F213046C3F60331FBF728
:104E3800D7FE424968600E68002E44D1404B0022DC
:104E48001E682A60002E6AD00021C4F24731A0688B
:104E5800FBF7C6FE07463046FBF76EFE0021C4F29C
:104E6800FA31FBF7B3FD01463846FBF7B1FD0021E7
:104E7800C4F24831FBF768FF0021A060C4F2A0111A
:104E88000646FCF769F838B900213046CCF2A01183
:104E9800FCF744F8002842D041F26F213046C3F6AF
:104EA8000331FBF79DFEA860F8BD00213046CCF227
:104EB800A011FCF733F80028B4D1204900200E686F
:104EC8006860002EBAD00021C4F247312068FBF791
:104ED80087FE07463046FBF72FFE0021C4F2FA3161
:104EE800FBF774FD01463846FBF772FD0021C4F25A
:104EF8004831FBF729FF00212060C4F2A0110646C3
:104F0800FCF72AF870B141F26F213046C3F603313D
:104F1800FBF766FE0A4B28601E68002E94D100201D
:104F2800A860F8BD00213046CCF2A011FBF7F6FFCF
:104F3800002883D0E7E700BF680A0020640A002041
:104F48006C0A00204FF46D430422CEF20003C0F235
:104F5800FA52DA6000BFFDE708B5134BB3F1006FF2
:104F680000D108BD4FF48052C4F20202D1694FF457
:104F7800E04041F0C053D361C4F2000001684FF42F
:104F8800D84241F480730360C4F2000246F6B4319B
:104F980044F6FC23A2F8B810A2F8BC30026822F448
:104FA80080710160FFF7CEFF000000080023036056
:104FB800C0F80C1243608360704700BF4FF4007064
:104FC800704700BF4268036840F2FF10D11A01F52C
:104FD8000072C8F200001040002800DB704701385A
:104FE8006FEAC0536FEAD351481C704738B542B3D3
:104FF80040F2FF1501E0AB4213D14468026840F269
:10500800FF13A21A02F50072C8F200031340002B26
:10501800F1DA013B6FEAC3526FEAD2530133AB4274
:10502800EBD043684268C318197340F2FF118A42F3
:105038001BD04268531C4360D0F80C0200B1804773
:1050480038BD4468026840F2FF13A21A02F50072E4
:10505800C8F200031340002B0ADB40F2FF12934210
:10506800DFD181684B1C836038BD00214160E3E7D4
:10507800013B6FEAC3526FEAD253013340F2FF1289
:105088009342CED1EDE700BFF8B504460E4615466B
:10509800002B34D040F2FF1702E0E818B84214DDC4
:1050A8006068216840F2FF13421A02F50070C8F2E6
:1050B80000030340002BF0DA013B6FEAC3516FEAAB
:1050C800D152531CE818B842EADC67686268C7F531
:1050D8000077BD42314604EB020028DD3A46ED1B5D
:1050E8000C3002F099F904F10C00F1192A4602F08B
:1050F80093F96560D4F80C1201B18847F8BD41688E
:10510800026840F2FF13881A00F50071C8F2000324
:105118000B40002B18DBE918B1F5007FD5DBA2683E
:10512800D4F80C125519A5600029E6D1E6E70C3031
:105138002A4602F071F961684B19B3F5007F0ED069
:10514800606845196560D5E7013B6FEAC3526FEAAD
:10515800D250431CE918B1F5007FB6DBDFE7002227
:105168006260C7E701684268034691420ED0006852
:1051780019681A18107B40F2FF12914203D019687F
:105188004A1C1A6070470021196070474FF0FF30C1
:10519800704700BF704700BFFEE700BFFEE700BFD3
:1051A800FEE700BFFEE700BF704700BF704700BFC3
:1051B800704700BFFCF720BC4FF4802001F052BCC0
:1051C80010B5044600F0F6F82060606010BD00BF1E
:1051D80010B5044600F0EEF863686060C01A10BDB0
:1051E80005C8101A704700BF4FF48053C4F2020379
:1051F8005A6802F00C00082811D04FF49052C0F2FF
:105208007A024FF48053C4F2020358681049C0F37D
:105218000313C85C0F4B22FA00F21A6070475868F3
:105228005968C0F383420232C90309D55B689B03FE
:1052380006D44FF49050C0F27A0000FB02F2E0E787
:105248004FF41061C0F23D0101FB02F2D9E700BF43
:1052580004010020140100204FF48053C4F202031B
:10526800196800B541F00100186059680022CFF6AE
:10527800FF020A405A601A68002122F0847020F464
:1052880080321A60186883B020F480221A60586847
:105298001A4620F4FE0058604FF41F0098600091F1
:1052A8000191196841F48030186003E00098B0F566
:1052B800A06F09D0136803F4003101910098431CD2
:1052C800009301990029F1D04FF48052C4F20202F0
:1052D800136813F400314CD0012001904FF40052B0
:1052E800C4F20202019B1168012B41F0100010600A
:1052F80011684FF4805321F0030010601068C4F265
:10530800020340F0020010605A6819465A60586853
:1053180058605A6842F4806058605A6822F47C10D9
:1053280058605A6827D042F4601058601A6842F0F2
:10533800807018600A684FF480539001C4F2020329
:10534800F8D55968184621F003025A60596841F0A7
:1053580002025A60436803F00C010829FAD1FFF7EA
:1053680043FF4FF46D40124ACEF20000826003B052
:1053780000BD0191B2E742F4E81058601A6842F0A3
:10538800807018600A684FF480539201C4F20203D7
:10539800F8D55968184621F003025A60596841F057
:1053A80002025A60436803F00C010829FAD1D8E7D1
:1053B8000000000830B413494EF21004CEF2000485
:1053C8004EF210020B68CEF20002A56800BF00BFC3
:1053D80008688342F4D11168C90348BF95684EF242
:1053E8001002CEF200025068074A48BF0133411C40
:1053F80010684D1BB5FBF0F54FF47A7101FB0350B3
:1054080030BC70477C0A00201801002040F67C233D
:10541800C2F200031868704708B572B6074B4EF21F
:105428001002CEF2000212681868411C196062B6B8
:10543800034B1A6802B1904708BD00BF7C0A0020E0
:10544800800A002040F68023C2F2000318607047EB
:10545800134B44F6D3511A68C1F262014DF68363C7
:10546800A1FB0201C4F21B33A3FB02028809930CBF
:10547800411E0C4AB1F1807F13600FD24EF210002A
:10548800CEF200004FF46D434160CEF20003F021EC
:1054980083F823100022072382600360704700BF4F
:1054A80014010020180100204FF49840C4F20000B5
:1054B80040F22771012201F049BF00BF00B54FF447
:1054C800A06083B001F064F901233422002101A80F
:1054D8008DF804208DF805308DF806108DF807300A
:1054E80001F060F903B000BD40F69440C2F200003C
:1054F800FFF738BE08B50348FFF764FD0028FAD166
:1055080008BD00BF840A0020014640F68420C2F28C
:1055180000000122FFF76ABD10B50446007828B1E3
:10552800FFF7F2FF14F8010F0028F9D110BD00BFF2
:105538004FF49843C4F2000370B52A4A1D881168D5
:10554800ADB205F08000013180B2116090B1264CF7
:1055580021686268914231D026682046A1190A7BE9
:105568009A802668FFF72AFD0136864233D02368E1
:10557800581C206005F02005ADB205B970BD1B4C64
:105588004FF49842C4F2000220469688FFF71AFDAD
:1055980005462046FFF712FD6B1C8342B6B216D0B3
:1055A80061682046621865681673FFF707FD0135C4
:1055B800854213D06068431C636070BD184640F292
:1055C8002771002201F0C2FE00BF00BFD2E7A26827
:1055D800501CA06070BD00212160CBE700216160F4
:1055E80070BD00BFE0170020840A0020940C002042
:1055F80040F6842045F2B14108B5C2F20000C0F679
:105608000001FFF7D3FC40F69440C2F200000021ED
:10561800BDE80840FFF7CABC30B54FF4805589B0E3
:10562800C4F201051822284601A94FF48063032417
:10563800ADF804308DF807208DF8064001F018FA0F
:105648004FF4984428224FF4006301A92846C4F275
:105658000004ADF804308DF8072001F009FA02A81B
:1056680001F060FE204602A901F04AFE4FF41652EE
:10567800002304A9204604920C22ADF81430ADF89A
:105688001630ADF81830ADF81C30ADF81A2001F01E
:10569800D1FD0122204640F2255101F057FE204657
:1056A800012101F045FEFFF7A3FFFFF707FF09B04F
:1056B80030BD00BF41F2E473C2F20003986870473E
:1056C80038B50F4C256861682368C91A00290FD0BE
:1056D8000FDB6019C9B20C30FCF7E0F825682D180B
:1056E8000748FFF76BFC95FBF0F303FB10502060B5
:1056F80038BD2046FFF762FC2268811AE9E700BF3F
:10570800E417002008B5064B186800B108BDFFF77C
:105718007DFE04490860BDE80840FFF7D1BF00BF1F
:10572800EC0E0020A40E002008B540F6A86240F652
:10573800EC63C2F20002C2F20003012100201160F2
:105748001860FFF763FE40F6A462C2F20002106020
:10575800BDE80840FFF7B4BF08B5FCF707F8FCF749
:105768003DF8FCF757F800F05FFD41F2E47045F2B0
:105778000D71C2F20000C0F60001BDE80840FFF755
:1057880015BC00BF38B505460C46FCF7F7F828B13C
:105798000348294622460023FFF776FC204638BDF9
:1057A800E417002040F63873C2F200031868704707
:1057B800054B10B51C688C42A8BF0C462146FCF767
:1057C80091F8204610BD00BF380F00204FF440600C
:1057D800C4F201004FF4805101F082BA4FF44060E6
:1057E800C4F201004FF4805101F07CBA08B572B6DA
:1057F8004FF44060C4F201004FF4805101F07AFA8E
:1058080062B608BD4FF40060C4F20100082101F03F
:1058180067BA00BF4FF40060C4F20100082101F02C
:1058280061BA00BF08B572B64FF40060C4F2010057
:10583800082101F05FFA62B608BD00BF10B542202A
:105848004FF41F44FCF7E8FBC0F22404FFF7BEFF47
:1058580020460138FDD8FFF7C1FF20460138FDD8A2
:1058680010BD00BF00EB4000830018460138FDD88A
:10587800704700BF42F6E06303FB00F108460138B9
:10588800FDD8704742F6E06108B5C4F26521FBF720
:10589800A7F908BD10B500210446FBF753FB28B152
:1058A80020464FF07C51FBF793F810BD20464FF08F
:1058B8007C51FBF78BF810BD08B538B1064B18685A
:1058C80001688847054A10680A3008BD034B012261
:1058D80019680A8208BD00BF201A0020241A002077
:1058E80008B538B1064B186881688847054A1068BA
:1058F8000C3008BD034B012219680A8208BD00BF9D
:10590800201A0020241A002008B500283BD0234B79
:10591800234800211A680180137813F07F0312D1FD
:10592800537A03F02002D1B259BB027803F0400346
:10593800D9B211B342F0010303701A4801680A6929
:105948009047174808BD012B16D0022B13D1517967
:1059580001F00F02930003F1804202F5B84311F001
:10596800800F196814D101F44052B2F5805FE4D178
:1059780001210170E1E7084608BD22F0010202702A
:10598800DBE70222D2E7054B022219680A8208BD2A
:1059980001F03003102BD0D1EAE700BF241A002011
:1059A800F4190020201A00202DE9F041274E346810
:1059B800238A277A23B9042F2AD0A58A042703E04B
:1059C800A58AAB42FAD902279D4228BF1D46A16984
:1059D800284688478046002000F05AFE2A4601469D
:1059E800404600F01DFD2946002000F071FE208A87
:1059F800628A431B2382AD181548164B65823021F5
:105A08004FF44052346801801A802772BDE8F08153
:105A1800114A1178012906D00D4810270780072759
:105A28002772BDE8F08145F65041C4F200010868CC
:105A380043F2020180B2C2F2000141184800044951
:105A48000360302008801370DFE700BF241A0020AD
:105A58002C1A00202A1A0020AC0E002010B50B4B7F
:105A68000B4A18685178C378994201D2022010BDB8
:105A78008278002AFAD18488002CF7D183720548ED
:105A880001684B689847204610BD00BF241A0020C3
:105A9800E0000020201A002038B5104A104C116888
:105AA80023688A695879D97890472368997A09B917
:105AB800022038BD0028FBD118790028F8D19D783C
:105AC800002DF5D1074A1368D96888472368284606
