:020000040800F2
:1000000000C000201D18000885450008894500082B
:100010008D45000891450008954500080000000046
:1000200000000000000000000000000099450008EA
:100030009D45000800000000A1450008D1470008C8
:100040006D1800086D1800086D1800086D1800087C
:100050006D1800086D1800086D1800086D1800086C
:10006000FD40000875400008854100086D18000833
:100070006D1800086D1800086D1800086D1800084C
:100080006D1800086D1800086D1800086D1800083C
:10009000A54500086D1800086D1800086D180008C7
:1000A0006D1800082D3D00086D1800086D18000837
:1000B0006D1800086D1800086D1800086D1800080C
:1000C0006D1800086D1800086D1800086D180008FC
:1000D0006D1800086D1800086D1800086D180008EC
:1000E0006D1800086D180008A94500086D18000873
:1000F000A13D00086D1800086D1800086D18000873
:100100006D1800086D1800086D3C00086D18000897
:10011000E94800086D1800086D1800086D180008FF
:100120006D1800086D1800086D1800086D1800089B
:1001300000000000000000000000000000000000BF
:1001400000000000000000000000000000000000AF
:10015000000000000000000000000000000000009F
:10016000000000000000000000000000000000008F
:10017000000000000000000000000000000000007F
:10018000000000000000000000000000000000006F
:10019000000000000000000000000000000000005F
:1001A000000000000000000000000000000000004F
:1001B000000000000000000000000000000000003F
:1001C000000000000000000000000000000000002F
:1001D000000000000000000000000000000000001F
:0401E0005FF8E0F1F3
:1001E80081F0004102E000BF83F0004330B54FEAE0
:1001F80041044FEA430594EA050F08BF90EA020F4D
:100208001FBF54EA000C55EA020C7FEA645C7FEADF
:10021800655C00F0E2804FEA5454D4EB5555B8BF02
:100228006D420CDD2C4480EA020281EA030382EA73
:10023800000083EA010180EA020281EA0303362D05
:1002480088BF30BD11F0004F4FEA01314FF4801CD8
:100258004CEA113102D0404261EB410113F0004FEA
:100268004FEA03334CEA133302D0524263EB4303A1
:1002780094EA050F00F0A780A4F10104D5F1200E3F
:100288000DDB02FA0EFC22FA05F2801841F100019A
:1002980003FA0EF2801843FA05F359410EE0A5F16E
:1002A80020050EF1200E012A03FA0EFC28BF4CF09F
:1002B800020C43FA05F3C01851EBE37101F0004555
:1002C80007D54FF0000EDCF1000C7EEB00006EEB62
:1002D8000101B1F5801F1BD3B1F5001F0CD34908EC
:1002E8005FEA30004FEA3C0C04F101044FEA445243
:1002F80012F5800F80F09A80BCF1004F08BF5FEACA
:10030800500C50F1000041EB045141EA050130BDA9
:100318005FEA4C0C404141EB010111F4801FA4F14C
:100328000104E9D191F0000F04BF01460020B1FAA1
:1003380081F308BF2033A3F10B03B3F120020CDAD9
:100348000C3208DD02F1140CC2F10C0201FA0CF0B7
:1003580021FA02F10CE002F11402D8BFC2F1200C1C
:1003680001FA02F120FA0CFCDCBF41EA0C019040D2
:10037800E41AA2BF01EB0451294330BD6FEA04041B
:100388001F3C1CDA0C340EDC04F11404C4F1200206
:1003980020FA04F001FA02F340EA030021FA04F318
:1003A80045EA030130BDC4F10C04C4F1200220FA6F
:1003B80002F001FA04F340EA0300294630BD21FAAD
:1003C80004F0294630BD94F0000F83F4801306BF73
:1003D80081F480110134013D4EE77FEA645C18BF67
:1003E8007FEA655C29D094EA050F08BF90EA020FFE
:1003F80005D054EA000C04BF1946104630BD91EAF6
:10040800030F1EBF0021002030BD5FEA545C05D1F8
:100418004000494128BF41F0004130BD14F5800437
:100428003CBF01F5801130BD01F0004545F0FE41AB
:1004380041F470014FF0000030BD7FEA645C1ABFE0
:10044800194610467FEA655C1CBF0B46024650EA17
:10045800013406BF52EA033591EA030F41F4002143
:1004680030BD00BF90F0000F04BF0021704730B5C9
:100478004FF4806404F132044FF000054FF000019E
:1004880050E700BF90F0000F04BF0021704730B55F
:100498004FF4806404F1320410F0004548BF404234
:1004A8004FF000013EE700BF42004FEAE2014FEA89
:1004B80031014FEA02701FBF12F07F4393F07F4F64
:1004C80081F06051704792F0000F14BF93F07F4F96
:1004D800704730B54FF4607401F0004521F00041D9
:1004E80020E700BF50EA010208BF704730B54FF05F
:1004F80000050AE050EA010208BF704730B511F064
:10050800004502D5404261EB41014FF4806404F19B
:1005180032045FEA915C3FF4DCAE4FF003025FEA1D
:10052800DC0C18BF03325FEADC0C18BF033202EBA5
:10053800DC02C2F1200300FA03FC20FA02F001FAFF
:1005480003FE40EA0E0021FA02F11444C1E600BF9E
:1005580070B54FF0FF0C4CF4E06C1CEA11541DBF51
:100568001CEA135594EA0C0F95EA0C0F00F0DEF81C
:100578002C4481EA030621EA4C5123EA4C5350EA01
:10058800013518BF52EA033541F4801143F4801352
:1005980038D0A0FB02CE4FF00005E1FB02E506F0E3
:1005A8000042E0FB03E54FF00006E1FB03569CF038
:1005B800000F18BF4EF0010EA4F1FF04B6F5007F3E
:1005C80064F5407404D25FEA4E0E6D4146EB0606B0
:1005D80042EAC62141EA55514FEAC52040EA5E5039
:1005E8004FEACE2EB4F1FD0C88BFBCF5E06F1ED8E3
:1005F800BEF1004F08BF5FEA500E50F1000041EB1A
:10060800045170BD06F0004646EA010140EA0200C6
:1006180081EA0301B4EB5C04C2BFD4EB0C0541EAE8
:10062800045170BD41F480114FF0000E013C00F3FD
:10063800AB8014F1360FDEBF002001F0004170BD21
:10064800C4F10004203C35DA0C341BDC04F114043A
:10065800C4F1200500FA05F320FA04F001FA05F2C6
:1006680040EA020001F0004221F0004110EBD37093
:1006780021FA04F642EB06015EEA430E08BF20EABF
:10068800D37070BDC4F10C04C4F1200500FA04F362
:1006980020FA05F001FA04F240EA020001F00041F4
:1006A80010EBD37041F100015EEA430E08BF20EA67
:1006B800D37070BDC4F1200500FA05F24EEA020EAF
:1006C80020FA04F301FA05F243EA020321FA04F0DE
:1006D80001F0004121FA04F220EA020000EBD37095
:1006E8005EEA430E08BF20EAD37070BD94F0000F95
:1006F8000FD101F00046400041EB010111F4801FC9
:1007080008BF013CF7D041EA060195F0000F18BF79
:10071800704703F00046520043EB030313F4801FB5
:1007280008BF013DF7D043EA0603704794EA0C0F6F
:100738000CEA135518BF95EA0C0F0CD050EA410685
:1007480018BF52EA4306D1D181EA030101F0004102
:100758004FF0000070BD50EA410606BF104619462A
:1007680052EA430619D094EA0C0F02D150EA013636
:1007780013D195EA0C0F05D152EA03361CBF104677
:1007880019460AD181EA030101F0004141F0FE4116
:1007980041F470014FF0000070BD41F0FE4141F49A
:1007A800780170BD70B54FF0FF0C4CF4E06C1CEA9A
:1007B80011541DBF1CEA135594EA0C0F95EA0C0F4F
:1007C80000F0A7F8A4EB050481EA030E52EA03350A
:1007D8004FEA013100F088804FEA03334FF080552B
:1007E80045EA131343EA12634FEA022245EA111558
:1007F80045EA10654FEA00260EF000419D4208BF09
:10080800964244F1FD0404F5407402D25B084FEAB5
:100818003202B61A65EB03055B084FEA32024FF461
:1008280080104FF4002CB6EB020E75EB030E22BFBE
:10083800B61A754640EA0C005B084FEA3202B6EB7E
:10084800020E75EB030E22BFB61A754640EA5C002D
:100858005B084FEA3202B6EB020E75EB030E22BFBD
:10086800B61A754640EA9C005B084FEA3202B6EBBE
:10087800020E75EB030E22BFB61A754640EADC007D
:1008880055EA060E18D04FEA051545EA16754FEADF
:1008980006164FEAC30343EA52734FEAC2025FEAFD
:1008A8001C1CC0D111F4801F0BD141EA00014FF08C
:1008B80000004FF0004CB6E711F4801F04BF01435D
:1008C8000020B4F1FD0C88BFBCF5E06F3FF6AFAE79
:1008D800B5EB030C04BFB6EB020C5FEA500C50F109
:1008E800000041EB045170BD0EF0004E4EEA11318C
:1008F80014EB5C04C2BFD4EB0C0541EA045170BD93
:1009080041F480114FF0000E013C90E645EA060ED6
:100918008DE60CEA135594EA0C0F08BF95EA0C0F04
:100928003FF43BAF94EA0C0F0AD150EA01347FF44C
:1009380034AF95EA0C0F7FF425AF104619462CE723
:1009480095EA0C0F06D152EA03353FF4FDAE104686
:10095800194622E750EA410618BF52EA43067FF4D7
:10096800C5AE50EA41047FF40DAF52EA43057FF467
:10097800EBAE12E74FF0FF3C06E000BF4FF0010C72
:1009880002E000BF4FF0010C4DF804CD4FEA410CD6
:100998007FEA6C5C4FEA430C18BF7FEA6C5C1BD0A3
:1009A80001B050EA410C0CBF52EA430C91EA030F24
:1009B80002BF90EA020F0020704710F1000F91EA81
:1009C800030F58BF994208BF90422CBFD8176FEA4F
:1009D800E37040F0010070474FEA410C7FEA6C5C1D
:1009E80002D150EA013C07D14FEA430C7FEA6C5C24
:1009F800D6D152EA033CD3D05DF8040B704700BF50
:100A08008446104662468C461946634600E000BF9D
:100A180001B5FFF7B7FF002848BF10F1000F01BD6F
:100A28004DF808EDFFF7F4FF0CBF012000205DF83A
:100A380008FB00BF4DF808EDFFF7EAFF34BF0120BF
:100A480000205DF808FB00BF4DF808EDFFF7E0FF58
:100A580094BF012000205DF808FB00BF4DF808EDA9
:100A6800FFF7CEFF94BF012000205DF808FB00BF10
:100A78004DF808EDFFF7C4FF34BF012000205DF8F2
:100A880008FB00BF4FEA410212F5001215D211D53A
:100A98006FF47873B3EB625212D94FEAC12343F073
:100AA800004343EA505311F0004F23FA02F018BFF5
:100AB800404270474FF00000704750EA013005D1BE
:100AC80011F0004008BF6FF0004070474FF0000081
:100AD800704700BF4FEA4102B2F1E04324BFB3F5CB
:100AE800001CDCF1FE5C0DD901F0004C4FEAC0029D
:100AF8004CEA5070B2F1004F40EB830008BF20F081
:100B08000100704711F0804F21D113F13872BCBF3A
:100B180001F00040704741F480114FEA5252C2F18F
:100B28001802C2F1200C10FA0CF320FA02F018BFD8
:100B380040F001004FEAC1234FEAD32303FA0CFC2B
:100B480040EA0C0023FA02F34FEA4303CCE77FEABA
:100B5800625307D150EA01331EBF4FF0FE4040F404
:100B68004000704701F0004040F0FE4040F40000B3
:100B7800704700BF80F0004002E000BF81F00041F4
:100B880042001FBF5FEA410392EA030F7FEA226C2B
:100B98007FEA236C6AD04FEA1262D2EB1363C1BFBB
:100BA800D218414048404140B8BF5B42192B88BF2A
:100BB800704710F0004F40F4000020F07F4018BF4D
:100BC800404211F0004F41F4000121F07F4118BF6D
:100BD800494292EA030F3FD0A2F1010241FA03FC15
:100BE80010EB0C00C3F1200301FA03F100F00043FD
:100BF80002D5494260EB4000B0F5000F13D3B0F1C5
:100C0800807F06D340084FEA310102F10102FE2A33
:100C180051D2B1F1004F40EBC25008BF20F00100A3
:100C280040EA03007047490040EB000010F4000F51
:100C3800A2F10102EDD1B0FA80FCACF1080CB2EBE4
:100C48000C0200FA0CF0AABF00EBC2505242184343
:100C5800BCBFD0401843704792F0000F81F40001E8
:100C680006BF80F400000132013BB5E74FEA4103BB
:100C78007FEA226C18BF7FEA236C21D092EA030F27
:100C880004D092F0000F08BF0846704790EA010FA1
:100C98001CBF0020704712F07F4F04D1400028BFCE
:100CA80040F00040704712F100723CBF00F50000B0
:100CB800704700F0004343F0FE4040F400007047E6
:100CC8007FEA226216BF08467FEA23630146420292
:100CD80006BF5FEA412390EA010F40F480007047A5
:100CE8004FF0000304E000BF10F0004348BF40424B
:100CF8005FEA000C08BF704743F0964301464FF087
:100D080000001CE050EA010208BF70474FF00003E2
:100D18000AE000BF50EA010208BF704711F0004323
:100D280002D5404261EB41015FEA010C02BF8446F3
:100D38000146002043F0B64308BFA3F18053A3F552
:100D48000003BCFA8CF2083AA3EBC25310DB01FA99
:100D580002FC634400FA02FCC2F12002BCF1004F1D
:100D680020FA02F243EB020008BF20F001007047AE
:100D780002F1200201FA02FCC2F1200250EA4C0002
:100D880021FA02F243EB020008BF20EADC70704748
:100D98004FF0FF0C1CEAD0521EBF1CEAD15392EA56
:100DA8000C0F93EA0C0F6FD01A4480EA010C400232
:100DB80018BF5FEA41211ED04FF0006343EA50108C
:100DC80043EA5111A0FB01310CF00040B1F5000FCE
:100DD8003EBF490041EAD3715B0040EA010062F17D
:100DE8007F02FD2A1DD8B3F1004F40EBC25008BF67
:100DF80020F00100704790F0000F0CF0004C08BF85
:100E080049024CEA502040EA51207F3AC2BFD2F151
:100E1800FF0340EAC250704740F400004FF000035F
:100E2800013A5DDC12F1190FDCBF00F00040704799
:100E3800C2F10002410021FA02F1C2F1200200FAD7
:100E480002FC5FEA310040F1000053EA4C0308BF9E
:100E580020EADC70704792F0000F00F0004C02BFEF
:100E6800400010F4000F013AF9D040EA0C0093F06A
:100E7800000F01F0004C02BF490011F4000F013BC4
:100E8800F9D041EA0C018FE70CEAD15392EA0C0F32
:100E980018BF93EA0C0F0AD030F0004C18BF31F09D
:100EA800004CD8D180EA010000F00040704790F073
:100EB800000F17BF90F0004F084691F0000F91F017
:100EC800004F14D092EA0C0F01D142020FD193EADD
:100ED8000C0F03D14B0218BF084608D180EA010065
:100EE80000F0004040F0FE4040F40000704740F041
:100EF800FE4040F4400070474FF0FF0C1CEAD0520F
:100F08001EBF1CEAD15392EA0C0F93EA0C0F69D06A
:100F1800A2EB030280EA010C49024FEA402037D0D5
:100F28004FF0805343EA111143EA10130CF00040CC
:100F38008B4238BF5B0042F17D024FF4000C8B42BC
:100F480024BF5B1A40EA0C00B3EB510F24BFA3EB9C
:100F5800510340EA5C00B3EB910F24BFA3EB91036C
:100F680040EA9C00B3EBD10F24BFA3EBD10340EAC6
:100F7800DC001B0118BF5FEA1C1CE0D1FD2A3FF60C
:100F880050AF8B4240EBC25008BF20F001007047C1
:100F98000CF0004C4CEA50207F32C2BFD2F1FF0364
:100FA80040EAC250704740F400004FF00003013A95
:100FB80037E792F0000F00F0004C02BF400010F439
:100FC800000F013AF9D040EA0C0093F0000F01F04D
:100FD800004C02BF490011F4000F013BF9D041EA6F
:100FE8000C0195E70CEAD15392EA0C0F08D14202A2
:100FF8007FF47DAF93EA0C0F7FF470AF084676E775
:1010080093EA0C0F04D14B023FF44CAF08466EE74D
:1010180030F0004C18BF31F0004CCAD130F000421B
:101028007FF45CAF31F000437FF43CAF5FE700BF73
:101038004FF0FF3C06E000BF4FF0010C02E000BF9C
:101048004FF0010C4DF804CD4FEA40024FEA41033E
:101058007FEA226C18BF7FEA236C11D001B052EAF4
:10106800530C18BF90EA010F58BFB2EB030088BFBA
:10107800C81738BF6FEAE17018BF40F00100704729
:101088007FEA226C02D15FEA402C05D17FEA236C0B
:10109800E4D15FEA412CE1D05DF8040B704700BF52
:1010A800844608466146FFE70FB5FFF7C9FF0028E9
:1010B80048BF10F1000F0FBD4DF808EDFFF7F4FF22
:1010C8000CBF012000205DF808FB00BF4DF808EDBB
:1010D800FFF7EAFF34BF012000205DF808FB00BFDE
:1010E8004DF808EDFFF7E0FF94BF012000205DF800
:1010F80008FB00BF4DF808EDFFF7D2FF94BF0120B1
:1011080000205DF808FB00BF4DF808EDFFF7C8FFA9
:1011180034BF012000205DF808FB00BF4FEA400201
:10112800B2F1FE4F0FD34FF09E03B3EB12620DD90D
:101138004FEA002343F0004310F0004F23FA02F077
:1011480018BF404270474FF00000704712F1610F1E
:1011580001D1420205D110F0004008BF6FF00040F5
:1011680070474FF000007047844641EA000313F0CF
:10117800030349D1403A23D30B6803604B684360AB
:101188008B688360CB68C3600B6903614B694361FB
:101198008B698361CB69C3610B6A03624B6A4362E3
:1011A8008B6A8362CB6AC3620B6B03634B6B4363CB
:1011B8008B6B8363CB6BC36340304031403ADBD2E7
:1011C80030320BD30B6803604B6843608B688360D5
:1011D800CB68C36010301031103AF3D20C3205D30B
:1011E80051F8043B40F8043B043AF9D2043208D0E1
:1011F800D2071CBF11F8013B00F8013B01D30B8853
:1012080003806046704700BF082A13D38B07B1D00C
:1012180010F00303AED0C3F10403D21ADB071CBFDE
:1012280011F8013B00F8013BA4D331F8023B20F848
:10123800023B9FE7043AD9D3013A11F8013B00F881
:10124800013BF9D20B7803704B7843708B7883702D
:10125800604670474BB942B9002908BF002802D040
:101268004FF0FF31084600F03BB882B0EC462DE95C
:10127800005000F01DF8DDF804E002B00CBC704727
:101288002DE9704F089E14461D468046894600F099
:1012980029F804FB01F3A4FB00AB00FB05329344DF
:1012A800B8EB0A0869EB0B09C6E90089BDE8708F3D
:1012B8002DE9704F089E14461D468046894600F069
:1012C80061F900FB05F5A0FB04AB04FB0154A34442
:1012D800B8EB0A0869EB0B09C6E90089BDE8708F0D
:1012E800704700BF00292DE9F00FC0F2A18000244B
:1012F800002BC0F29880154606460F46002B3FD1BA
:101308008A4258D9B2FA82F34BB1C3F1200201FAEA
:1013180003F720FA02F29D4000FA03F61743290C5E
:10132800B7FBF1F201FB1277A8B200FB02F34FEA18
:10133800164C4CEA0747BB4209D97F1902F1FF3C1A
:1013480080F00581BB4240F20281023A2F44FF1A25
:10135800B7FBF1F301FB137100FB03F0B6B246EAE9
:101368000141884208D9491903F1FF3780F0F1801B
:10137800884240F2EE80023B43EA0242002303E047
:101388008B420AD900231A461046194614B1404226
:1013980061EB4101BDE8F00F7047B3FA83F8B8F18B
:1013A800000F40F088808B4202D3824200F2E28034
:1013B80000230122E8E712B90123B3FBF2F5B5FADD
:1013C80085F2002A3AD17F1B280C1FFA85FC0123DD
:1013D800B7FBF0F100FB11770CFB01F24FEA16485E
:1013E80048EA0747BA4207D97F1901F1FF3802D204
:1013F800BA4200F2C4804146BF1AB7FBF0F200FBC4
:1014080012700CFB02FCB6B246EA0040844507D9CC
:10141800401902F1FF3702D2844500F2AE803A4605
:1014280042EA0142B0E7E443524263EB430362E716
:10143800404261EB41014FF0FF3459E79540C2F15A
:10144800200927FA09F126FA09F99740280CB1FB77
:10145800F0F800FB18111FFA85FC0CFB08F349EAA9
:1014680007094FEA194747EA01418B4206FA02F693
:1014780008D9491908F1FF327AD28B4278D9A8F1F4
:1014880002082944C91AB1FBF0F300FB13170CFB3F
:1014980003F21FFA89F949EA0747BA4207D97F19BF
:1014A80003F1FF3160D2BA425ED9023B2F44BF1A22
:1014B80043EA08438CE7C8F1200225FA02F103FA4F
:1014C80008FC27FA02F320FA02F207FA08F741EAC1
:1014D8000C0C4FEA1C49B3FBF9F109FB11331FFA55
:1014E8008CFA0AFB01FB17433A0C42EA03439B457B
:1014F80005FA08F008D913EB0C0301F1FF3235D2D5
:101508009B4533D902396344CBEB0303B3FBF9F2B0
:1015180009FB12330AFB02FABFB247EA0347BA458E
:1015280008D917EB0C0702F1FF331BD2BA4519D9BA
:10153800023A674442EA0145A5FB0001CAEB0707E6
:101548008F424FF000030AD305D02A461CE76246B3
:10155800FDE63B4610E706FA08F68642F5D26A1E13
:10156800002311E71A46E5E70B46A0E71146CBE74B
:10157800904687E74346424606E7023A50E7023973
:101588002F4439E72DE9F00F144605460E46002B87
:1015980043D18A4253D9B2FA82F757B1C7F120062C
:1015A80020FA06F601FA07F302FA07F400FA07F53B
:1015B8001E43210CB6FBF1F201FB1266A0B200FB40
:1015C80002F32F0C47EA0646B34209D9361902F14D
:1015D800FF3780F0FD80B34240F2FA80023A264499
:1015E800F61AB6FBF1F301FB136100FB03F0ADB291
:1015F80045EA0141884208D9091903F1FF3680F00C
:10160800E980884240F2E680023B43EA0242002336
:1016180010461946BDE8F00F70478B424CD8B3FA14
:1016280083F6002E4FD18B4202D3824200F2DD8036
:10163800BDE8F00F0023012210461946704712B981
:101648000124B4FBF2F4B4FA84F2002A40F0828058
:10165800091B260CA7B20123B1FBF6F006FB1011FB
:1016680007FB00F24FEA154C4CEA01418A4207D9C0
:10167800091900F1FF3C02D28A4200F2C880604694
:10168800891AB1FBF6F206FB121107FB02F7ADB29D
:1016980045EA0145AF4208D92C1902F1FF3180F023
:1016A8009B80A74240F29880023A42EA00421046E4
:1016B8001946BDE8F00F704700231A461046194630
:1016C800BDE8F00F7047C6F1200522FA05F703FAC6
:1016D80006F421FA05F301FA06FB20FA05F53C4366
:1016E8004FEA1448B3FBF8FC08FB1C331FFA84F9D3
:1016F80009FB0CFA45EA0B0B4FEA1B4545EA034385
:101708009A4502FA06F204D91B190CF1FF356FD37A
:10171800AC46CAEB0303B3FBF8F508FB153309FB2A
:1017280005F91FFA8BFB4BEA0347B94504D93F1962
:1017380005F1FF3362D31D4645EA0C4CACFB02238E
:10174800C9EB07079F424FF000054AD346D06246CF
:101758002B465DE79440C2F1200921FA09FC91402B
:1017680020FA09F9260CBCFBF6F806FB18CCA7B240
:1017780007FB08F349EA01094FEA194141EA0C4C11
:10178800634500FA02F509D91CEB040C08F1FF3295
:101798003BD2634539D9A8F10208A444C3EB0C0C29
:1017A800BCFBF6F306FB13C107FB03F21FFA89F92A
:1017B80049EA01418A4207D9091903F1FF3022D2C7
:1017C8008A4220D9023B2144891A43EA084343E765
:1017D8003A4605E7334618E70A4666E7B0409042BE
:1017E800B5D20CF1FF32002312E7334632460FE739
:1017F8009A458DD9ACF1020C23448AE7B9459AD9A8
:10180800023D274498E70346DEE79046C6E70238DC
:10181800214435E7002100F004B80D4B5B584350D4
:1018280004310C480C4B42189A42FFF4F6AF0B4AAD
:1018380000F003B8002342F8043B094B9A42FFF436
:10184800F9AF02F0F3FE05F0BDFE01F03BFF704773
:1018580020BE000800000020AC090020AC090020D0
:10186800441A0020FFF7FEBF30B492B1551EEDB206
:10187800013500236D001C46020F092A94BF30323F
:101888003732CA54CA180233AB424FEA00105470B8
:10189800F2D130BC704700BF30B5184C83B004207B
:1018A800012104F0DDFA4FF4805503221423204669
:1018B80001A98DF806208DF80730ADF8045004F022
:1018C800A7F92946204604F00DFAC82003F09AF932
:1018D8002946204604F004FA4FF4802004F092F9D7
:1018E800074B082101224FF4802418461C605971C7
:1018F8009A7104F03FF903B030BD00BF0008014001
:101908001C0F002008B5002004F044FABDE8084088
:101918004FF40000012104F0AFBA00BF064B9B7AD8
:1019280023B9064B01221A6002F080BE034B052240
:101938001A6002F07BBE00BF141A0020B80900200C
:1019480010B54FF4A06082B004F05AF801241421B5
:10195800022201A800238DF804108DF805208DF8C7
:1019680006308DF8074004F055F82A2301A88DF8B1
:1019780005408DF8043004F04DF802B010BD00BFEA
:10198800704700BF0A4A0B4B12681B680A49D018F7
:1019980010B50C6800D110BD08490822FFF764FF94
:1019A800204607490422BDE81040FFF75DBF00BF8D
:1019B800E8F7FF1FF0F7FF1FECF7FF1F02000020FA
:1019C8001200002070B5104D2B68BBB9402911D901
:1019D800402426463246C02103F0A8FE31460120A5
:1019E80003F0B4FF2B68012023442B6003F016FF9B
:1019F800204670BD0C4621B9204670BD0024204603
:101A080070BD0E460C46E5E7180F0020F8B5174FD5
:101A18000D463B68DFF85CC08B4238BF3D680DB3AC
:101A280000229CF80010124E1346F4180133DBB262
:101A3800645C9D4284541A46F7D83B6829445B1B72
:101A48003B603C688CF800100A4E4CB903204021DA
:101A580003F08AFF03204FF4405103F0C5FE3470B1
:101A68002846F8BD9CF80010E7E700BF640F002087
:101A7800240F0020AD090020024B1878431E58425D
:101A880058417047AC0900200249034A00230B6003
:101A980013707047B8090020AC090020034B0128D7
:101AA800187002D1024B00221A607047AC0900205E
:101AB800180F0020014B1878704700BFAC090020B0
:101AC80008B5032003F072FF054B02461A601A6836
:101AD80004484FF4887192B2BDE8084003F044BE50
:101AE800640F0020240F0020224A38B51368224CC6
:101AF8009BB2224D238021882B881940890507D560
:101B08001F494FF6FF5010600A780132D2B20A70AE
:101B180022881A40120429D4228802F480621342CF
:101B28001BD1228802F4005213420ED1228802F4FB
:101B38008052134200D138BD0E4B4EF6FF721A6028
:101B48000020BDE8384000F073B90A4B4DF6FF722B
:101B58001A60FFF799FF2B88E8E7064A094B4FF60A
:101B6800FF315B68116098472B88DAE703F01CFDAA
:101B78002B88D1E7445C0040680F0020381A002009
:101B8800AE0900205C000020034B9B7A13B1034B85
:101B980005221A60704700BF141A0020B8090020F7
:101BA800014B04221A607047B8090020034B1A78C9
:101BB800202A04BF00221A70704700BFB409002011
:101BC800704700BF09B1022070470128FBD80846BA
:101BD800704700BF08B103487047034B08221B68D1
:101BE8001A827047D8000020341A002008B1034830
:101BF8007047034B08221B681A827047D8000020E0
:101C0800341A002010B5FFF7BDFE054B00241B68F1
:101C18009C7200F0F5F803F0DFFE024B1C6010BD6B
:101C2800341A0020B809002010B502F0C7FD344B63
:101C3800344A1B68D279344900245A729C72DC7287
:101C48000860204603F0A0FD20464FF4007103F021
:101C5800A3FD2046102103F0ADFD2046402103F0EE
:101C680049FE8021204603F035FE204603F0FEFDA4
:101C7800264B204693F82C1003F076FE204603F0FE
:101C8800E1FD2146012003F087FD0120C02103F07A
:101C980021FE0120202103F08DFD2146012003F0C3
:101CA800A3FD02204FF4C06103F076FD02204FF43B
:101CB800807103F00FFE2146022003F095FD0220FB
:101CC800202103F077FD2146032003F065FD032062
:101CD8004FF4887103F00EFE0320402103F044FE08
:101CE80003204FF4405103F07FFD2146032003F009
:101CF80061FD204603F0E2FB054B01221A6010BD8E
:101D0800341A0020CCB00008B00900205C00002084
:101D1800B809002010B504460120FFF7BFFE212CAA
:101D280003D0202C10D0022010BD0F4B1A68137856
:101D380003F07F03212BF6D10C4B0024204693613E
:101D480054829847204610BD074B1A68137803F051
:101D58007F03212B03D0064B02201C7010BD044BBF
:101D68001C70044BE9E700BF341A0020DD1B000893
:101D7800B4090020F51B000810B504460220FFF73F
:101D88008DFE084B1B681B7803F07F03212B01D0C5
:101D9800022010BD04F0DF04022C14BF0220002032
:101DA80010BD00BF341A0020014903F029B900BF53
:101DB800B0000020054B1B68DB78042B04D80449CD
:101DC80001EBC30103F01CB900207047341A00204E
:101DD800B800002010B5044602F0F0FC064B1B6862
:101DE800C01AB0F57A7F01D902F0B8FA2046034943
:101DF800BDE8104003F004B9B009002054000020E9
:101E080038B50120FFF7BCFD064D074B074C0022F3
:101E18004FF4E051012018601A6010462A602180B2
:101E2800196038BD445C0040405C0040381A00200E
:101E380038B5324C072818BF20702378052B4BD8AB
:101E4800DFE803F0181F30353F0363782B49013B67
:101E5800DBB26370637803F0FF02002B3ED12848A1
:101E68004FF6EF730568274C2B40062503600D706D
:101E7800226038BD234B1B68002B30D0052323700C
:101E880038BD1F4D4FF6FB732A6813402B60FFF7D0
:101E980045FD1C4B4FF43640042101222860217077
:101EA8001A6038BD022203236270237038BD63783C
:101EB800124A013BDBB2637063787BB90423137069
:101EC80038BD0F4B052118680A2280B240F0100077
:101ED80018602170627038BD0623237038BD084D24
:101EE8004FF6FB732A6813402B60FFF717FD4FF47A
:101EF800364206232A60237038BD00BF6C0F0020CD
:101F0800405C0040BC09002030B587B0082300249D
:101F180069461C48ADF800308DF8034003F078FEA0
:101F28004FF4004003F03CFF01214FF4007003F030
:101F380097FF154803F0A6FD01254FF460231248CA
:101F480001A9039301948DF808408DF80940049481
:101F58008DF8145003F0CCFD0B48294603F0ECFD36
:101F6800094803F0F3FD084803F0F6FD0028FAD10C
:101F7800054803F0F5FD044803F0F8FD0028FAD100
:101F880007B030BD001001400024014008B502F040
:101F98000FFD074802F094FC02F080FC02F0A4FD5B
:101FA800044802F08DFCBDE8084002F077BC00BF91
:101FB80010B1000820B100080FB410B5C2B044AC8D
:101FC80054F8042BFF21234602A8019405F07CFB5A
:101FD80002A802F075FC02A805F01CFB014602A845
:101FE80002F096FD42B0BDE8104004B0704700BF53
:101FF8000FB410B5C2B044AC54F8042BFF212346EB
:1020080002A8019405F060FB02A802F059FC42B056
:10201800BDE8104004B0704700B50C4B83B0186899
:10202800002805DB4FF0FF321A6003B05DF804FBAF
:1020380002F07EFD38B10DF10700012102F07EFDAE
:102048009DF80700F1E702F023FCEEE7E40000202A
:1020580010B5002402E0642C04D00134FFF7DCFF43
:102068000028F8DA204610BD10B582B002AC04F89A
:10207800010D02F01DFC2046012102F049FD02B0CD
:1020880010BD00BF704700BF70B5FFF7C5FF041E45
:1020980053DB02F061FDA4F12B034B2B4DD8DFE895
:1020A80013F0EF004C00E0004C004C004C004C00DA
:1020B8004C004C004C004C004C004C004C004C00B8
:1020C8004C004C004C004C004C004C004C004C00A8
:1020D8004C004C004C004C004C00DC004C004C0008
:1020E8004C004C004C004C004C004C004C004C0088
:1020F800D1004C004C004C004C004C004C004C00F3
:102108004C004C004C004C004C004C004C000001B2
:10211800F5000F01C2004C004C00B200A2009E0066
:102128009A004C004C004C004C008B007C004C008A
:102138006D005E004C0053004D0070BD6848694951
:10214800BDE87040FFF738BF674B1C68FFF7B2FC6B
:1021580021460246BDE870406448FFF749BF644B1A
:1021680064481A68644982F00102002A08BF0146DF
:102178001A606248BDE87040FFF71EBF604B5D48BB
:102188001A685D4982F00102002A08BF01461A60F8
:102198005C48BDE87040FFF70FBF5B4B55481A68B5
:1021A800554982F00102002A08BF01461A605748C3
:1021B800BDE87040FFF700BF554B4E481A684E49BE
:1021C80082F00102002A08BF01461A605148BDE8A2
:1021D8007040FFF7F1BE504B00221A6070BD4E4BA5
:1021E80001221A6070BD4D4D0024FFF715FF00282D
:1021F800FBDBFE28D8BF605501340C2CF5D1BDE8B7
:10220800704000F0B9B8642002F0FCFC7820FFF7B9
:102218002BFF434C04F10C0514F8010FFFF724FFC2
:10222800AC42F9D170BD3F4B32481A68324982F04E
:102238000102002A08BF01461A603B48BDE8704009
:10224800FFF7BABE3948FFF7B7FE4FF47A7002F0CD
:10225800D9FCBDE8704002F077B8BDE8704000F0E6
:10226800A9B8334C33492068FEF788FC2060FEF794
:102278001BF9BDE8704002460B462F48FFF79CBE8D
:102288002B4C2C492068FEF77BFCEFE72B48FFF727
:1022980093FE4FF47A7002F0B5FCBDE8704002F08E
:1022A8005DB8274B13481A68134982F00102002AC7
:1022B80008BF01461A602348BDE87040FFF77CBE9E
:1022C800214B0C481A680C4982F00102002A08BF09
:1022D80001461A601D48BDE87040FFF76DBE00BF9B
:1022E80044B2000854B20008B809002018B2000827
:1022F8002C0A002038B1000834B1000800B20008E8
:10230800240A0020DCB10008400A0020C0B10008FF
:10231800CC090020A4B10008900F0020E80000209C
:10232800E7000020F809002090B10008F0B100088B
:10233800F4000020CDCCCC3D5CB2000854B10008BC
:10234800F00900203CB10008C809002078B1000855
:1023580038B5084D0024E0B200F066F80346FE2BBD
:1023680098BF63550520013402F04CFC0C2CF2D1C7
:1023780038BD00BFE800002070B502F0EDFB0C4E40
:102388000024E5B2284600F04FF8421C034605D069
:10239800A15D2846994201D000F028F801340520B3
:1023A80002F030FC0C2CECD1BDE8704002F0DCBB34
:1023B800E800002038B50948FFF7FEFD084C04F195
:1023C8000C0514F8011F0748FFF7F6FDAC42F8D1D9
:1023D8000548BDE83840FFF7EFBD00BF78B20008F8
:1023E800E700002088B2000874B8000838B5044631
:1023F80005200D4602F006FC00F008FFAE2000F0B4
:10240800ABFF01F019F8204600F0A6FF01F014F820
:10241800284600F0A1FF01F00FF800F01FFFBDE80B
:102428003840052002F0EEBB38B50546174C0120B0
:1024380002F0E8FB0023236000F0E8FEAE2000F085
:102448008BFF00F0F9FF284600F086FF00F0F4FF4C
:1024580000F004FF012002F0D5FB00F0D7FEAF200A
:1024680000F07AFF00F0E8FF00F0ACFF054600F04E
:1024780049FF00F0F3FE012002F0C4FB2368002BA3
:102488000CBF28464FF0FF3038BD00BFC8170020EA
:10249800184B2DE9F04118681749FEF779FC174BDE
:1024A800174C1968FEF76CFB05466078FEF718FCB8
:1024B8001149FEF721FD2946FEF76AFC07462079F7
:1024C800FEF70EFC0F49FEF717FD0F4E80463168E8
:1024D8002846FEF753FB01464046FEF759FC3946AD
:1024E8003560FEF74DFB094BE179BDE8F041186016
:1024F80001F050BB940F002000007A44C00900206E
:10250800E80000200000C842180A0020AC0F002094
:10251800184B2DE9F04158681749FEF739FC174B5D
:10252800174C1968FEF72CFB05462078FEF7D8FBF8
:102538001149FEF7E1FC2946FEF72AFC0746E07838
:10254800FEF7CEFB0F49FEF7D7FC0F4E80463168E9
:102558002846FEF713FB01464046FEF719FC3946AC
:102568003560FEF70DFB094BA179BDE8F0415860D5
:1025780001F030BB940F002000007A44200A0020AC
:10258800E80000200000C842F4090020AC0F002039
:10259800184B2DE9F04198681749FEF7F9FB174BDE
:1025A800174C1968FEF7ECFA0546A078FEF798FB79
:1025B8001149FEF7A1FC2946FEF7EAFB07466079B8
:1025C800FEF78EFB0F49FEF797FC0F4E80463168E9
:1025D8002846FEF7D3FA01464046FEF7D9FB3946AE
:1025E8003560FEF7CDFA094B217ABDE8F0419860D5
:1025F80001F010BB940F002000007A44D409002099
:10260800E80000200000C8423C0A0020AC0F00206F
:102618002DE9F0411A4D1B4C9626194800F01CFD77
:10262800A968286803F0D2FEA9688046686803F0A4
:10263800CDFE154907462068FEF7AAFB4146FEF77E
:102648009DFA1249FEF758FC0F4920606068FEF7B2
:102658009FFB01463846FEF793FA0C49FEF74CFCFF
:102668006060012002F0CEFA013E064FD5D1084B3A
:10267800786839680022586019609A60BDE8F0816E
:10268800FC090020A00F002000001543000016439D
:10269800940F00202DE9F84F1746926806460C461D
:1026A800104611461D46FEF773FBD7F80480814695
:1026B80041464046FEF76CFB01464846FEF760FA85
:1026C800D7F80090DDF8288003F082FE01464846DE
:1026D80003F07CFEB9688146786803F077FE3B49D1
:1026E80007463068FEF754FB4946FEF747FA384973
:1026F800FEF702FC354930607068FEF749FB014679
:102708003846FEF73DFA3249FEF7F6FB7060296855
:1027180081464046FEF73CFB676801463846FEF7AF
:102728002FFA394682464846FEF728FA2949FEF725
:102738002FFB01465046FEF723FA6060814603F0FE
:1027480007FE0746484603F0CDFD8146A86839468E
:1027580000F10040FEF71CFB696882464846FEF718
:1027680017FB01465046FEF70BFA01464046FEF7B6
:102778000FFBD4F800A001465046FEF701FA514677
:1027880083463068FEF7FAF91249FEF701FB014665
:102798005846FEF7F5F92060A968484601F100415E
:1027A800FEF7F6FA696806463846FEF7F1FA01467A
:1027B8003046FEF7E3F901464046FEF7E9FA0146DE
:1027C800A068FEF7DDF9A060BDE8F88F0000C642FA
:1027D8000000C84217B75139F8B51E4D04462E6897
:1027E8000F4630464FF08041FEF7C8F92146FEF704
:1027F8008BFC00282BD14FF080413046FEF7C0F902
:1028080001462046FEF780FCB0B9134A00232B602E
:1028180013601D46114C12492068FEF7B9FA294683
:10282800FEF7AEF90F49FEF767FB03460146236042
:102838003846FEF7A3F9F8BD4FF040432B60204619
:102848000949FEF7A5FA044B05461860E2E74FF080
:102858008043F3E7D8090020280A0020080A00204E
:1028680000001C4200002042CDCC0C3F2DE9F04F67
:10287800DFF87C9299B0D9F8003083460133C9F863
:10288800003002F069F902F089F916A801F08CFE0F
:102898007D4800F0E1FB16A801F08EFE11907B4800
:1028A80000F006FC16A801F087FE784B12907849D4
:1028B8007848754ACDF800B0FFF7ECFE16A801F08D
:1028C8007BFE754D13906B7A312B00F02082734C90
:1028D8006F4E60680146FEF753F9714B71681860D6
:1028E800FEF74EF96F49FEF753FA6F498046FEF737
:1028F800EDFB002840F0A88040464FF07E51FEF7DF
:1029080003FC08B14FF07E58684B694FC3F800804C
:1029180038684146FEF734F9DFF8D88138606549F0
:102928002068FEF7E9FAD8F80010FEF729F93168AF
:10293800C8F80000FEF724F98046E87A6438FEF704
:10294800D3F95D49FEF7D8FA02F06CF90146404622
:10295800FEF716F95349FEF71BFA53498246FEF76C
:10296800B5FB00286DD150464FF07E51FEF7CCFBE9
:1029780008B14FF07E5A514BDFF87C81C3F800A0B4
:10298800D8F800005146FEF7FBF8AB7AC8F800000B
:10299800302B00F0C181A368DFF860A11846DAF88F
:1029A80000100D93FEF7ECF80D9B454DCAF800009A
:1029B80040491846FEF7A0FA2968FEF7E1F82860B2
:1029C80016A801F0F9FD1490FFF7A2FDFFF760FDCE
:1029D800FFF7DEFD16A801F0EFFD159016A801F02F
:1029E800F3FD384D84462B680133B3F5FA7F2B602D
:1029F80022DB354B1B68002B40F08280334B1B6871
:102A0800002B40F0C380324B1B68002B40F0F28053
:102A1800304B1B68002B40F00B812F4B1B68002BA1
:102A280040F030812D4B1B68002B40F046812C4B29
:102A38001B6863B900232B6002F096F819B0BDE853
:102A4800F08FDFF864A096E7DFF85C805CE7254C40
:102A58006068FDF729FD064620680F46FDF724FD4E
:102A6800CDE90001A068FDF71FFDCDE902011E4B6D
:102A78001868FDF719FD3246CDE904013B461B48AD
:102A8800FFF79AFAD6E700BFFC0900200C0A0020DD
:102A9800940F0020A00F0020E8000020DC0900208F
:102AA800C409002033336542000080BFC00F0020F6
:102AB800200A002000007A4400002041B80F0020BE
:102AC800D00900201C0A0020F80900202C0A002048
:102AD800400A0020240A0020CC090020C809002050
:102AE800F0090020AC0F0020D8090020CCB4000861
:102AF800E8090020EC090020C0090020D4090020C2
:102B08008B4AD9F8003012683068CDF838C00F9277
:102B18000D9302F07FF801467068109102F07AF880
:102B28008146B06802F076F8109906460846FDF727
:102B3800BBFCCDE900014846FDF7B6FCCDE9020132
:102B48003046FDF7B1FC0D9B0F9ACDE904011946FB
:102B58007848FFF731FA6068FDF7A6FC02460B4695
:102B68007548FFF729FA75490868FDF79DFC024684
:102B78000B467348FFF720FA7248FFF71DFA724BAD
:102B8800DDF838C01B68002B3FF43DAF5846CDF840
:102B980038C0FDF789FC6D4E024630680F920D91E2
:102BA800FDF782FCCDE900017068FDF77DFCCDE9F9
:102BB8000201B068FDF778FCCDE90401644E306885
:102BC800FDF772FCCDE906017068FDF76DFCCDE9F3
:102BD8000801B068FDF768FC0D9BCDE90A010F9A62
:102BE8005C48FFF7E9F95C4BDDF838C01B68002B3F
:102BF8003FF40EAFCDF838C000F07EFCFDF754FC72
:102C08000B461199DDF838C00191129902460291DC
:102C18001399CDF800C0039114995048049115995F
:102C28000591FFF7C9F94E4B1B68002B3FF4F5AE31
:102C38004C4E3068FDF738FC024670680F920D91D3
:102C4800FDF732FCCDE90001B068FDF72DFCCDE9B8
:102C580002012068FDF728FCCDE904016068FDF752
:102C680023FCCDE90601A068FDF71EFC0D9BCDE90C
:102C780008010F9A3C48FFF79FF93C4B1B68002B53
:102C88003FF4D0AED8F80000FDF70EFC8046386857
:102C98008946FDF709FCCDE90001DAF80000FDF7E7
:102CA80003FC4B46CDE9020142463148FFF784F95F
:102CB800304B1B68002B3FF4BAAE2F4C2F4BA26849
:102CC8002F48D3F800805F689E68D0F800A094E889
:102CD8000808D0F8049084680F920D9301F0B4FEB0
:102CE8000D9B0F9A8DE80808029233460690CDF89E
:102CF8000CA0CDF81090059441463A462148FFF7BC
:102D08005BF9214B1B68002B3FF494AE9FE61F48EC
:102D1800144901F077FADAE51D4BDFF878A09868D6
:102D2800DAF80010FFF758FDCAF8000048E600BFBF
:102D3800C417002090B20008D8B20008C4090020C7
:102D4800ECB2000804B300082C0A0020FC0900209B
:102D58000C0A00201CB30008400A002068B30008D1
:102D6800240A0020300A0020CCB30008CC09002037
:102D78002CB40008C8090020CC170020D817002060
:102D8800E417002074B40008F0090020DC090020D2
:102D9800AC0F0020D409002038B500200E4D0024C7
:102DA8000BE02046FDF7A0FF0C49FDF7F1FF4FF0BF
:102DB8006A51FDF7EDFF03F0CBFA0949FDF7E8FF8B
:102DC80001F038FFFEF7AAF90134B4F5806F25F851
:102DD800020FE6D138BD00BFC20F0020DB0FC9408B
:102DE80000FEFF4610B500F011FAD02000F0B4FA4A
:102DF80000F022FB752000F0AFFA00F01DFB00F098
:102E08002DFA012001F0FEFE00F000FAD12000F0BA
:102E1800A3FA00F011FB00F0D5FA044600F072FAAC
:102E280000F01CFA682C40F0CB80052001F0EAFE87
:102E380000F0ECF9D02000F08FFA00F0FDFA6B20DA
:102E480000F08AFA00F0F8FA802000F085FA00F025
:102E5800F3FA00F003FA962001F0D4FE00F0D6F958
:102E6800D02000F079FA00F0E7FA6B2000F074FA4D
:102E780000F0E2FA032000F06FFA00F0DDFA00F04B
:102E8800EDF9052001F0BEFE00F0C0F9D02000F0F9
:102E980063FA00F0D1FA6C2000F05EFA00F0CCFA88
:102EA800002000F059FA00F0C7FA00F0D7F9052021
:102EB80001F0A8FE00F0AAF9D02000F04DFA00F0C9
:102EC800BBFA192000F048FA00F0B6FA002000F02A
:102ED80043FA00F0B1FA00F0C1F9052001F092FEC2
:102EE80000F094F9D02000F037FA00F0A5FA1A2083
:102EF80000F032FA00F0A0FA002000F02DFA00F0FD
:102F08009BFA00F0ABF9052001F07CFE00F07EF999
:102F1800D02000F021FA00F08FFA1B2000F01CFAF4
:102F280000F08AFA002000F017FA00F085FA00F0A5
:102F380095F9052001F066FE00F068F9D02000F050
:102F48000BFA00F079FA1C2000F006FA00F074FA87
:102F5800002000F001FA00F06FFA00F07FF9052078
:102F680001F050FE00F052F9D02000F0F5F900F021
:102F780063FA372000F0F0F900F05EFA002000F064
:102F8800EBF900F059FA00F069F9052001F03AFE72
:102F980000F03CF9D02000F0DFF900F04DFA3820BD
:102FA80000F0DAF900F048FA002000F0D5F900F056
:102FB80043FA00F053F9052001F024FE002010BD6B
:102FC8004FF0FF3010BD00BF70B5224C00232360C6
:102FD8000E46054600F01AF9D02000F0BDF900F0C1
:102FE8002BFA236803B170BDE8B200F0B5F900F020
:102FF80023FA2368002BF6D100F030F900F006F927
:10300800D12000F0A9F900F017FA2368002BEAD1C3
:1030180000F0D8F9307000F04BF900F0D3F9707077
:1030280000F046F900F0CEF9B07000F041F900F078
:10303800C9F9F07000F03CF900F0C4F9307100F003
:1030480037F900F0BFF9707100F05CF9BDE8704025
:1030580000F004B9C817002010B582B004466946CC
:103068003B20FFF7B1FF114B1B68EBB99DF801300E
:103078009DF8000043EA002000B2FDF735FE9DF8F8
:1030880002209DF80330206043EA022000B2FDF7D9
:103098002BFE9DF804209DF80530606043EA02206D
:1030A80000B2FDF721FEA06002B010BDC8170020D5
:1030B80010B582B0044669464320FFF785FF1F4BD1
:1030C8001B68002B38D19DF800109DF801301C4A70
:1030D80043EA0123138018B2FDF706FE194B19685D
:1030E800FDF74CFD1849FDF707FF9DF802109DF804
:1030F8000330164A43EA01231380206018B2FDF713
:10310800F3FD134B1968FDF739FD0F49FDF7F4FE80
:103118009DF804109DF805300E4A43EA01231380F8
:10312800606018B2FDF7E0FD0B4B1968FDF726FD4E
:103138000549FDF7E1FEA06002B010BDC8170020E8
:103148004C0A0020500A0020FA8DEA45440A002063
:10315800540A00204E0A0020480A00202DE9F04FAA
:10316800234EDFF89CB0234DDFF898A0224CDFF8FF
:10317800989085B04FF0960801A8FFF799FFBBF922
:103188000000FDF7B1FD3168FDF7FAFC3060BAF9CF
:103198000000FDF7A9FD2968FDF7F2FC2860B9F9E0
:1031A8000000FDF7A1FD2168FDF7EAFC2060022080
:1031B80001F028FDB8F101080F4FDDD10C4B0F4984
:1031C8001868FDF799FE0A4B0C491860094B1868F6
:1031D800FDF792FE074B094918603868FDF78CFE29
:1031E8003860052001F00EFD05B0BDE8F08F00BF86
:1031F800500A0020540A0020480A00200000164304
:103208004C0A0020440A00204E0A002010B5124C37
:103218004FF400612046012202F066FD20464FF47B
:103228008061012202F060FD012001F0E3FC2046EC
:103238004FF40061002202F057FD012001F0DAFC92
:1032480020464FF48061002202F04EFDBDE8104098
:10325800012001F0CFBC00BF000C014010B5134C99
:103268004FF480612046002202F03EFD012001F06B
:10327800C1FC20464FF40061002202F035FD012018
:1032880001F0B8FC20464FF48061012202F02CFDC9
:10329800012001F0AFFC20464FF40061012202F04A
:1032A80023FDBDE81040012001F0A4BC000C014042
:1032B80010B5134C4FF480612046002202F014FD33
:1032C800012001F097FC20464FF40061002202F033
:1032D8000BFD012001F08EFC20464FF48061012295
:1032E80002F002FD012001F085FC20464FF48061C8
:1032F800002202F0F9FCBDE81040012001F07ABC80
:10330800000C014010B5134C4FF480612046002298
:1033180002F0EAFC012001F06DFC20464FF4006148
:10332800012202F0E1FC012001F064FC20464FF488
:103338008061012202F0D8FC012001F05BFC2046EC
:103348004FF48061002202F0CFFCBDE8104001205C
:1033580001F050BC000C014038B50446082514E0C3
:10336800002202F0C1FC012001F044FC01221448B3
:103378004FF4806102F0B8FC012001F03BFC6A1EAA
:10338800640012F0FF05E4B211D04FF480610C48DC
:10339800002202F0A9FC012001F02CFC23060848B9
:1033A8004FF40061DCD5012202F09EFCDBE72A46DF
:1033B80003484FF48061BDE8384002F095BC00BF77
:1033C800000C0140F8B51B484FF40061012202F0DF
:1033D8008BFC082700264FF480610022154802F074
:1033E80083FC012001F006FC12484FF480610122A1
:1033F80002F07AFC7600F6B2082500240D484FF456
:10340800006102F067FC6B1E204413F0FF05C4B294
:10341800F4D1032C07F1FF3288BF46F0010612F001
:10342800FF07D8D13A4603484FF4806102F05CFCAC
:103438003046F8BD000C014008B54FF48061002209
:10344800174802F051FC012001F0D4FB4FF4006151
:103458000122134802F048FC012001F0CBFB4FF495
:10346800806101220E4802F03FFC012001F0C2FBFE
:103478000B484FF4006102F02DFC012807D0BDE88D
:10348800084007484FF48061002202F02DBC054B2C
:10349800186001F07DFB044B1A6801321A60EEE7F0
:1034A800000C0140C8170020C417002010B5084CB4
:1034B80023685A1CB3F57A7F226008DD01F05CFBB3
:1034C80000F0A4FC5720FEF7DDFD0023236010BDAB
:1034D8005C0A002008B542F67D20012102F0C0FCFC
:1034E8000448012102F0C8FCBDE80840012001465B
:1034F80002F0AABC0F000800014B1868704700BF13
:10350800580A002038B501F079F9FFF7E3FF00F019
:103518009DF962B6FEF73AFD4F48FEF74DFD4F485C
:10352800FEF74AFD00F09AFC142401F025FB01F097
:103538003BFB642001F066FB013CF6D101F014FB73
:10354800FEF7B8FA002859D04548FEF735FD40F691
:10355800B83001F057FBFEF7ADFA012877D04148A3
:10356800FEF72AFD40484149FEF726FD404B414AF7
:103578001B68116813F4003F3F4B18BF3F48A3FB7B
:10358800012108BF3E48890CFEF716FD3D48FEF7AD
:1035980013FDFEF7B9FC3C48FEF70EFD0A24FFF7C1
:1035A80021FC013C2146002833D03848FEF704FDB1
:1035B80001F004FB002CF2D1354D36482C60FEF7A3
:1035C800FBFC3548FEF7F8FCFEF7C2FE2B6823BB70
:1035D8003248FEF7F1FC00F0E5FCFFF7DDFBFEF7F3
:1035E80037FD002802DD2E48FEF7E6FC2D48FEF7E1
:1035F800E3FCBDE838402C4801F0FAB82B48FEF748
:10360800DBFC40F6B83001F0FDFA2948FEF7D4FC9F
:10361800A5E71F4D01232B60D3E72648FEF7CCFC16
:103628000D2401F0A9FA4FF47A7001F0EBFA013C8D
:10363800F7D101F0C3F801461F48FEF7BDFCFFF7BC
:103648008DFD1E48FEF7B8FCFEF7E2FFC0E71C48F8
:10365800FEF7B2FC83E700BF1CB5000840B50008C0
:1036680054B5000808B600085CB6000854B2000853
:10367800001002401401002083DE1B4394B60008AA
:10368800CCB6000808B7000818B700082CB700081F
:10369800600A002030B8000858B70008CCB7000806
:1036A800DCB7000818B80008B5340008A4B500084D
:1036B800D4B500086CB7000894B70008B8B700087C
:1036C80070B500082DE9F84FFFF71CFF01F076F8F8
:1036D800044601F073F88442FBD001F045F8044633
:1036E80072B6002701F040F8001BB0F5FA7F07F129
:1036F8000107F7D362B601F037F8DFF894A0DFF8D6
:103708009490DFF894B0DFF894807F000646002498
:1037180001F02AF80546801BB0F5FA6F04F10104A0
:10372800F6D3FDF7DDFA06462046FDF7DDFA154922
:10373800FDF72EFB1449FDF72BFB3146FDF7DCFBAB
:1037480004463846FDF7D0FA01462046FDF7D4FB7B
:10375800D9F80030CAF8000013B9DBF8003053B9C3
:1037680000F054FB01F02AFA00232E46C8F8003076
:10377800FEF78AFCCBE705493046FDF7BDFBFFF7AE
:1037880075F8F1E70000C84200007A440024744943
:10379800580A0020900F0020600A00205C0A0020D0
:1037A800012870B418D002280FD1002A0ADD124C63
:1037B8008E18254623885B06FCD511F8013BB142DB
:1037C800AB80F7D1104670BC70470C4B09224FF004
:1037D800FF301A6070BC7047002AF3DD064C8E1863
:1037E800254623885806FCD511F8013BB142AB8029
:1037F800F7D11046E7E700BF004C0040401A002010
:103808000D4B10B51A68044692B11046EFF30881C3
:1038180002198A4201D81A6010BD084919220220EB
:10382800FFF7BEFF064B0C221A604FF0FF3010BDA9
:1038380004481860EAE700BF640A002080B800085E
:10384800401A0020441A0020704700BF2DE9F043B9
:10385800DFF8008183B03D4E18250224404601A9B7
:103868004FF4E063ADF804308DF806408DF807504A
:1038780002F0CEF94FF4604301A93046ADF80430A8
:103888008DF806404FF4E0798DF8075002F0C0F942
:1038980001A92F488DF806408DF80750ADF804901F
:1038A80002F0B6F98023404601A90327ADF8043099
:1038B8008DF806408DF8075002F0AAF9304601A9A4
:1038C8008DF806408DF80750ADF8047002F0A0F9A5
:1038D8000723404601A9ADF804308DF806408DF85D
:1038E800075002F095F9304601A98DF80640ADF869
:1038F800049010248DF8075002F08AF9304601A987
:103908004FF48053ADF804308DF806708DF80740F9
:1039180002F07EF9404601A90823ADF804308DF87D
:1039280007408DF8067002F073F94FF440621423D3
:10393800304601A98DF80670ADF804208DF80730DF
:1039480002F066F903B0BDE8F08300BF000C014047
:10395800001001400008014038B504460D4602F049
:10396800FDFA2046294602F041FB2046294602F08E
:1039780085FB2046082102F0F9FB2046082102F0C9
:10398800FDFB20460821BDE8384002F001BC00BF1D
:10399800F0B58DB0002403224FF47A7301A90546CF
:1039A800ADF80420ADF80830ADF80640ADF80A408F
:1039B8008DF80C4002F078FA1B4B4FF4006ED3F8E8
:1039C80000C028464FF480764FF400524FF48043ED
:1039D80004A94FF48067ADF816C0ADF810E0ADF853
:1039E8001A20ADF81C30ADF81840ADF81270ADF8DB
:1039F800146002F089FB284601220423602508A9E7
:103A0800ADF82640ADF82840ADF82A40ADF82C6056
:103A1800ADF82E40ADF82050ADF82220ADF8243096
:103A2800FFF79AFF0DB0F0BD00010020F0B589B096
:103A38000D4600244FF47A724FF40073064601A92C
:103A48000327ADF80820ADF80A30ADF80470ADF8DA
:103A5800064002F029FA60220123304604A9ADF895
:103A68001850ADF81640ADF81020ADF81230FFF739
:103A780073FF09B0F0BD00BF0D4A30B4136800F100
:103A88000C05C3F5FA7464000168CB1AA342A8BFF9
:103A9800234640F8043B11688B42B8BF0023A84274
:103AA80040F8043C01D01368EEE730BC704700BF13
:103AB800F8000020F8B5324B04461D680F4628462A
:103AC80000211646FDF716FB002850D02D49284640
:103AD800FDF712FA4FF08941FDF75AF901F0AAF8FB
:103AE800FDF71CFB284B0340002B42DB002BB8BF23
:103AF80003F58063254803F2551103F2AB22C2F3A4
:103B08000902C1F3090130F9135030F9111030F9E5
:103B1800123006EB860202FB01F102FB03F302FB03
:103B280005F21B4801F57F5103F57F5302F57F52DB
:103B38003F313F333F3280FB015680FB037580FBEA
:103B480002700E441D441044C917DB17D217C1EB8D
:103B5800A631C3EBA533C2EBA03201F5FA7103F528
:103B6800FA7302F5FA726160A3602260F8BD3D46FF
:103B7800ACE7013B6FEA83536FEA93530133B5E730
:103B8800F4000020DB0FC940FF030080C40F0020B1
:103B98000300018000B585B00A46014601A8FFF779
:103BA80089FF72B6094B01A807C883E8070062B607
:103BB80072B6074A0121138A23F001031B041B0C68
:103BC8001382918162B605B05DF804FB680A002093
:103BD8000034014000B585B00A46014601A8FFF748
:103BE80069FF72B6094B01A807C883E8070062B6E7
:103BF80072B6074A0121138A23F001031B041B0C28
:103C08001382918162B605B05DF804FB740A002046
:103C1800002C014000B585B00A46014601A8FFF70F
:103C280049FF01A8FFF728FF72B60B4B01A807C888
:103C380083E8070062B6094B00221A6072B6084A88
:103C48000121138A23F001031B041B0C13829181A9
:103C580062B605B05DF804FB800A0020FC00002075
:103C6800000C0040274AF0B4138ADB071BD5138ADF
:103C780023F001031B041B0C138272B6224A214B4A
:103C8800946822499B8C886801349BB29460204ACE
:103C98008342C8BF8B6091688B42B8BF9360B3F50D
:103CA800487F02D362B6F0BC70471A4B1B68EBB969
:103CB800194B1A4A1B681488908811895B009BB2BB
:103CC800174A1F191E185D180E4BBFB2B6B2ADB217
:103CD8009786168795879C8618879987094A9389B6
:103CE80023F001031B041B0C9381DBE70C49054BF4
:103CF80040F2E93000228886088788879A861A87E2
:103D08009A87EBE7000C0040E4170020CC1700204E
:103D1800D8170020FC000020F8000020800A0020AE
:103D280000080040174A10B4138A23F001031B044B
:103D38001B0C138272B6144A124B546813499B8C9D
:103D4800486801349BB25460114A8342C8BF4B6033
:103D580051688B42B8BF5360B3F5487F0DD20D4A06
:103D6800084B108891881289988619879A879A89AA
:103D780022F001021204120C9A8162B65DF8044B1B
:103D8800704700BF002C0140E4170020CC1700202A
:103D9800D8170020740A0020174A10B4138A23F099
:103DA80001031B041B0C138272B6144A124B1468CD
:103DB80013499B8C086801349BB21460114A8342F2
:103DC800C8BF0B6011688B42B8BF1360B3F5487F5A
:103DD8000DD20D4A084B1088918812899886198748
:103DE8009A879A8922F001021204120C9A8162B60B
:103DF8005DF8044B704700BF00340140E417002011
:103E0800CC170020D8170020680A002010B54120E0
:103E1800FEF738F972B60B4B00221A605A609A60A6
:103E280062B672B6084B1A605A609A6062B6074C5E
:103E380007480849084A0123236083818B819381BD
:103E480010BD00BF680A0020740A0020FC00002092
:103E5800000C0040002C014000340140F0B5374F01
:103E6800374B3849384D394E83B0002440F2E93297
:103E780038469A605A601A608C604C600C60AC607E
:103E88006C602C60FFF784FD314D3046FFF780FDF4
:103E980021463048FFF7CAFD28460221FFF7C6FD34
:103EA8002D4B01A81B8803F5A87103F29F2289B244
:103EB80092B2AB84B9840125B28432238DF80430E0
:103EC8008DF805408DF806408DF8075001F0A2FDE9
:103ED80001A819238DF804308DF805408DF80640A7
:103EE8008DF8075001F096FD2C2301A88DF8075096
:103EF8008DF805408DF806408DF8043001F08AFDF4
:103F080072B6164A164B1749174801240C6004600C
:103F1800214614600F481C6002F018F921460C482D
:103F280002F014F92146054802F010F92146074825
:103F380002F00CF962B603B0F0BD00BF002C0140DE
:103F4800D8170020CC170020E417002000340140C7
:103F580000080040000C0040F800002000802542C6
:103F680000802642008001420000014230B50C4C1E
:103F780085B000234FF6FF72204601A94725ADF80A
:103F88000630ADF80A30ADF80820ADF8045001F05D
:103F98008BFF2046012102F0CBF805B030BD00BFF1
:103FA8000004004030B585B072B604242A480121C7
:103FB80001F0A4FE03250DEB04014FF4004327484C
:103FC800ADF804308DF807408DF8065001F020FE5A
:103FD800182228230DEB04012148ADF804208DF8A0
:103FE80007308DF8065001F013FE0DEB04011D4853
:103FF800ADF8044001F00CFE2946012001F0B4FEA2
:104008002146012001F0B0FE0220014601F0ACFE7D
:104018001C2400211022012302A88DF80C108DF811
:104028000D208DF80E30029401F0A4FD204601F019
:10403800E1FD204601F0E6FD0B4B4FF400704FF414
:1040480080614FF48072186019601A60FFF78EFF64
:1040580062B605B030BD00BF000230000008014064
:10406800000C01400010014000E100E01B4B10B5BE
:104078005B69180700D410BD3320FEF703F8184811
:10408800082101F027FE012822D0164C14480821E7
:1040980001F020FEB0B1144B1B88218840F2E632B3
:1040A8005B1A9BB26FF47A71591889B2914203D89E
:1040B8000E4AA3F57A731360084B5A6942F0080256
:1040C8005A6110BD0A4B084A9B8C9BB21380E4E7E7
:1040D800074B044C9B8C2380D8E700BF00040140A9
:1040E800000C0140A40A0020A00A0020940A002025
:1040F800000400401B4B10B55B69580700D410BD85
:104108003220FDF7BFFF1848042101F0E3FD012824
:1041180022D0164C1448042101F0DCFDB0B1144B38
:104128001B88218840F2E6325B1A9BB26FF47A71E1
:10413800591889B2914203D80E4AA3F57A731360CD
:10414800084B5A6942F004025A6110BD0A4B084AEA
:104158009B8C9BB21380E4E7074B044C9B8C238019
:10416800D8E700BF0004014000100140A20A002067
:104178009C0A0020900A0020000400401B4B10B548
:104188005B69D80600D410BD3420FDF77BFF1848C2
:10419800102101F09FFD012822D0164C144810214F
:1041A80001F098FDB0B1144B1B88218840F2E6322B
:1041B8005B1A9BB26FF47A71591889B2914203D88D
:1041C8000E4AA3F57A731360084B5A6942F010023D
:1041D8005A6110BD0A4B084A9B8C9BB21380E4E7D6
:1041E800074B044C9B8C2380D8E700BF0004014098
:1041F800000C01409E0A00208C0A0020980A00202A
:10420800000400402DE9F843464B474AD3F80080A4
:10421800464B05460C4617681E68B8F1000F69D072
:1042280048684349FCF7B4FD81464046FCF75CFD0D
:104238004049FCF7A3FC01464846FCF7A1FC3E496F
:10424800FCF75AFE3D4960608046FCF75DFF002898
:104258004AD040463A49FCF79BFD6860002F4DD094
:1042680033492068FCF794FD80463846FCF73CFD4E
:104278003049FCF783FC01464046FCF781FC2E4997
:10428800FCF73AFE2D4920600746FCF73DFF002861
:104298003CD038462A49FCF77BFD2860002E31D0F7
:1042A8002349A068FCF774FD07463046FCF71CFD5F
:1042B8002049FCF763FC01463846FCF761FC1E49BF
:1042C800FCF71AFE1D49A0600646FCF71DFF20B941
:1042D80030461C49FCF7FAFEA0B130461849FCF7F5
:1042E80057FDA860BDE8F88340461649FCF7EEFE86
:1042F8000028AED100236B60002FB1D100232B60C2
:10430800002ECDD10023AB60BDE8F88338460D49B7
:10431800FCF7DCFE0028F1D038460949FCF738FDE7
:104328002860BBE7940A0020900A0020980A002021
:10433800000047430000FA43000048430000A04142
:104348006F12033B0000A0C1024B034ADA6000BFB2
:10435800FDE700BF00ED00E00400FA050F4B10B5C3
:10436800B3F1006F00D110BD0D490E4BC8690E4A5C
:1043780040F0C050C8611C6846F6B43044F48074FC
:1043880044F6FC211C60A2F8B800A2F8BC101A6818
:1043980022F480721A60FFF7D7FF00BF0000000800
:1043A8000010024000700040006C004000230360D1
:1043B800C0F80C1243608360704700BF4FF4007070
:1043C800704700BF426803680748D31A03F50073B3
:1043D8001840002800DB704701386FEAC0506FEAC8
:1043E800D0500130704700BFFF01008038B532B3AC
:1043F80040F2FF1501E0AB4210D1446802681E4B41
:10440800A21A02F500721340002BF4DA013B6FEA9E
:10441800C3536FEAD3530133AB42EED044684268CA
:1044280040F2FF139A4216BF436800230133044445
:1044380021734360D0F80C3203B1984738BD446803
:1044480002680D4BA21A02F500721340002B07DB1D
:1044580040F2FF129342E1D183680133836038BD93
:10446800013B6FEAC3536FEAD353013340F2FF12A3
:104478009342D3D1F0E700BFFF010080F8B50446AE
:104488000F461646EBB9416802682F4B8A1A02F5A7
:1044980000721340002B49DB3344B3F5007F1DDB6A
:1044A800A268D4F80C321644A66073BB2EE0013B18
:1044B8006FEAC3536FEAD35301333344B3F5007F34
:1044C8000CDB65682068204B281A00F50070034053
:1044D800002BECDB3344B3F5007FF2DA65686068E3
:1044E800C5F50075AE4212DD2044761B39462A46D2
:1044F8000C30FCF739FE7919324604F10C00FCF750
:1045080033FE6660D4F80C3203B19847F8BD2044F6
:1045180039460C303246FCF727FE63683344B3F55E
:10452800007F0ED063681E446660EBE7013B6FEACC
:10453800C3536FEAD35301333344B3F5007FCDDB64
:10454800AEE700236360DDE7FF0100800168426891
:10455800034691420ED00068196840F2FF121844D1
:104568009142007B03D01A6801321A60704700221A
:104578001A6070474FF0FF30704700BF704700BFA8
:10458800FEE700BFFEE700BFFEE700BFFEE700BF93
:10459800704700BF704700BF704700BFFDF7A4BA5F
:1045A8004FF4802001F02EBB10B5044600F0DCF873
:1045B8002060606010BD00BF10B5044600F0D4F85C
:1045C80063686060C01A10BD05C8101A704700BF44
:1045D800114B5A6802F00C02082A0ED15A68596821
:1045E800C2F38342C90302F1020211D55B689B033F
:1045F8000ED40A4B03FB02F200E0084A064B0848B7
:104608005968084BC1F30311415CCA401A607047EE
:10461800054B03FB02F2F1E70010024000127A009A
:10462800040100201401002000093D00494B10B589
:104638001968494A41F001011960596882B00A4075
:104648005A601968002021F0847121F480311960C2
:1046580019684FF41F0421F48021196059681A461B
:1046680021F4FE0159609C6000900190196841F4A2
:104678008031196003E0009BB3F5A06F09D013687F
:1046880003F400330193009B01330093019B002B3B
:10469800F1D0304B314A1B6813F4003318BF0123A3
:1046A8000193019B1068012B40F010001060106806
:1046B800284B20F0030010601068194640F00200F3
:1046C80010605A685A605A685A605A6842F48062A0
:1046D8005A605A6822F47C125A605A681FD042F411
:1046E80060125A601A6842F080721A600B68194AA0
:1046F8009B01FBD55368114623F0030353605368AD
:1047080043F0020353604B6803F00C03082BFAD103
:10471800FFF75EFF124A134B9A6002B010BD42F4D5
:10472800E8125A601A6842F080721A600B68094AE7
:104738009801FBD55368114623F00303536053686F
:1047480043F0020353604B6803F00C03082BFAD1C3
:10475800E0E700BF001002400000FFF80020024020
:104768000000000800ED00E0114A30B4114D144675
:104778001368A86800BF00BF21680D4A8B42F7D1B3
:104788000C4A30BC1168C9030A4948BF90680A4AF4
:104798004968126801F10101C0EB0100B0FBF2F0B9
:1047A80048BF01334FF47A7202FB0300704700BF21
:1047B800A80A002010E000E018010020014B18684A
:1047C800704700BFA80A002008B572B6054B064A14
:1047D80012681A6801321A6062B6044B1B6803B18A
:1047E800984708BDA80A002010E000E0AC0A0020A5
:1047F800014B1860704700BFAC0A00200E4B0F4AEF
:104808001B680F49A2FB0302A1FB030392090D4990
:10481800013A9B0CB2F1807F30B40B6009D20A4B8D
:104828000A4CF025002007215A6084F8235098602C
:10483800196030BC704700BF14010020D34D6210CE
:1048480083DE1B431801002010E000E000ED00E0CB
:10485800024840F22771012201F026BD004C0040B9
:1048680000B54FF4A06083B001F0CAF801233421E9
:10487800002201A88DF804108DF805308DF8073056
:104888008DF8062001F0C6F803B05DF804FB00BF00
:104898000148FFF75BBE00BFC00C002008B5034805
:1048A800FFF790FD0028FAD108BD00BFB00A00202C
:1048B800014601220148FFF799BD00BFB00A002058
:1048C80010B5017841B1044604480122FFF78EFD76
:1048D80014F8011F0029F7D110BD00BFB00A00204D
:1048E800264B274A70B5196815880131ADB2196091
:1048F800290613D5234C2168636899422DD0236873
:10490800204623441B7B93802668FFF757FD01361A
:10491800864216BF2368002301332360AB0600D408
:1049280070BD174B184C9B8820469EB2FFF74AFD76
:1049380005462046FFF742FD6B1C834216D063688C
:104948002046234465681E73FFF738FD013585420C
:1049580010D063680133636070BD104640F2277160
:10496800002201F0A1FC00BF00BFD7E7A368013314
:10497800A36070BD0023636070BD00BFF017002006
:10498800004C0040B00A0020C00C002008B50548C3
:104998000549FFF70BFDBDE8084004480021FFF773
:1049A80005BD00BFB00A002059480008C00C00200F
:1049B80030B5234D89B0284601A9182203234FF4A6
:1049C8008064ADF804408DF807201E4C8DF8063041
:1049D80001F01EF94FF40062282301A92846ADF81A
:1049E80004208DF8073001F013F902A801F048FC03
:1049F80002A9204601F032FC4FF416550023204648
:104A08000C2204A9ADF81430ADF81630ADF8183002
:104A1800ADF81C30ADF81A20049501F0C1FB012255
:104A2800204640F2255101F03FFC2046012101F0CB
:104A38002DFCFFF7ABFFFFF713FF09B030BD00BF38
:104A480000100140004C0040014B9868704700BFBF
:104A5800F417002038B50F4C256861682368C91A17
:104A680000290FD00FDB6019C9B20C30FCF7AAFF80
:104A7800256805440748FFF7A1FC95FBF0F303FB05
:104A88001050206038BD2046FFF798FC2168411A75
:104A9800E9E700BFF417002008B5064B1B6803B10F
:104AA80008BDFFF78BFE044B1860BDE80840FFF710
:104AB800D1BF00BF180F0020D00E002008B507494D
:104AC800074B012000221A600860FFF777FE054BAC
:104AD8001860BDE80840FFF7BDBF00BFD40E002036
:104AE800180F0020D00E002008B5FCF7D5FEFCF703
:104AF80009FFFCF725FF00F03BFDBDE80840024830
:104B08000249FFF753BC00BFF4170020A14A000870
:104B180038B505460C46FCF7AFFF28B129460348CF
:104B280022460023FFF7AAFC204638BDF4170020D0
:104B3800014B1868704700BF640F0020054B10B583
:104B48001C688C42A8BF0C462146FCF75FFF204634
:104B580010BD00BF640F002002484FF4805101F0DF
:104B6800BFB800BF000C014002484FF4805101F06B
:104B7800B9B800BF000C014008B572B603484FF43D
:104B8800805101F0B7F862B608BD00BF000C0140C3
:104B98000148082101F0A4B8000801400148082193
:104BA80001F0A0B80008014008B572B60248082113
:104BB80001F0A0F862B608BD0008014008B542201F
:104BC800FDF760FA09484FF4805101F089F8084B65
:104BD80018460138FDD805484FF4805101F082F895
:104BE800034B18460138FDD808BD00BF000C014032
:104BF800009F240000EB4000830018460138FDD8D0
:104C0800704700BF42F6E06303FB00F31846013823
:104C1800FDD8704708B50249FCF7BAF808BD00BFCF
:104C2800E02E654208B50249FCF7B2F808BD00BF9E
:104C380035FA8E3C10B500210446FCF75BFA28B122
:104C480020464FF07C51FBF79BFF10BD20464FF0EC
:104C58007C51FBF793FF10BD08B538B1064B1B68B4
:104C68001B689847054B18680A3008BD034B01229A
:104C78001B681A8208BD00BF301A0020341A0020B1
:104C880008B538B1064B1B689B689847054B1868F0
:104C98000C3008BD034B01221B681A8208BD00BFF7
:104CA800301A0020341A002008B5224B002832D0D0
:104CB80021481A6800210180137813F07F0316D069
:104CC800012B27D0022B24D1537903F00F021B06A6
:104CD80025D4930003F1804303F5B8431B6803F41C
:104CE8004053B3F5805F0ED1012303700BE0537A74
:104CF8009A0654BF0278022259064CBF42F00102BC
:104D080022F0010202700D4B1B681B6998470A4884
:104D180008BD084608BD1B6802221A8208BD920019
:104D280002F1804202F5B842136803F03003102BF9
:104D3800E9D1D9E7341A0020041A0020301A0020DB
:104D48002DE9F041264F3C68238A267A23B9042EA0
:104D58002DD0A58A042603E0A58AAB42FAD90226FB
:104D68009D4228BF1D462846A369984780460020D3
:104D780000F0D0FD2A460146404600F0D7FC2946FF
:104D8800002000F0E3FD618AB4F810C01548164B06
:104D9800C5EB0C0C3A680D4430274FF4405107809E
:104DA800A4F810C0658219801672BDE8F0810F4919
:104DB8000A78012A07D00B4B2246072610211672C3
:104DC8001980BDE8F0810A480A4A05680548ADB26D
:104DD8002A44570030253B6022460B700580E3E7E4
:104DE800341A00203C1A00203A1A0020D80E00205D
:104DF800505C00400230002010B50B4B0B4A1B687A
:104E08005178DA78914201D2022010BD99780029B0
:104E1800FAD19C88002CF7D105499A720B685B6817
:104E28009847204610BD00BF341A0020E00000203B
:104E3800301A002038B5104A104C12682368587987
:104E4800D9789369984723689A7A0AB9022038BDB5
:104E58000028FBD11A79002AF8D19D78002DF5D1C8
:104E6800074B1B68DB689847236828465979DA7826
:104E7800D9721A7338BD00BF0C1A0020341A0020EA
:104E8800301A002038B5324B1B68187810F07F00B4
:104E980003D0022806D0022038BD5A7A22F0200218
:104EA8005A7238BD5A88002AF6D11A79002AF3D1E5
:104EB8005A7922F08000840004F18041150601F53A
:104EC800B84156BF09680D6801F44055214948BFEB
:104ED80005F0300509788842DDD2002DDBD09B7AB9
:104EE800002BD8D004F1804404F5B8441206236896
:104EF80009D503F03003102B1ED0174B1B685B69D4
:104F08009847002038BD03F44053B3F5805FF4D1CF
:104F1800D8B9124B93F82C1000F026FD236823F41F
:104F2800804323F070039BB283F4405343F400435F
:104F380043F080032360E0E7C4B2204600F0B8FCE9
:104F48002046302100F036FCD7E700F09FFCE5E76B
:104F5800341A0020E0000020301A00205C000020F5
:104F680038B5244B1868437923F08002940004F183
:104F780080411D0601F5B84156BF09680D6801F466
:104F880040551D4948BF05F0300509788A4201D3CC
:104F9800022038BD4288002AFAD1002DF8D0827A42
:104FA800002AF5D004F1804404F5B84413F0800FCA
:104FB800236811D023F4E04323F040039BB283F02D
:104FC800100343F4004343F0800323600B4B1B683A
:104FD8009B699847002038BD23F4804323F0700371
:104FE8009BB283F4805343F4004343F0800323606F
:104FF800ECE700BF341A0020E0000020301A00203F
:10500800054B1B685A8A10B1086810447047898894
:105018008A1A1A82704700BF341A002010B50B4B49
:10502800002093F82C1000F09FFC094B1B68187A9D
:10503800082806D10749084B4FF4805410220C80E9
:105048001A80B0F109035842584110BD5C00002095
:10505800341A00203A1A00203C1A002070B5A94BD7
:10506800A94D1A682C68A94B92B21344227A5B00A6
:10507800092A82B01E6847D0B6B2760006F180468B
:1050880006F5C0463378237073786370B08800F0F3
:105098009DFC608030892C6800F098FCA080B28963
:1050A8002B680121DA801972002A33D05878062833
:1050B80000F08680002846D15988002900F09380A6
:1050C800934C23681B69984703282B684BD01A8A8E
:1050D8004FF6FF718A4246D002280FD072B193F979
:1050E80000100029C0F2B4808A494FF440500322CE
:1050F80008801A72FFF792FF02B070BD08221A7278
:10510800FFF78CFF02B070BDE288234601211972B7
:10511800002ACBD11A785C7812F07F0229D0012AB4
:1051280000F0AC80022A00F0CE80794B20461B6844
:105138005B699847032800F001812B68002831D06B
:1051480008221A72D6E708285FD11A785206B7D112
:10515800714A00209A61588290472B684FF6FF7178
:105168001A8A8A42BAD109221A72FFF757FF02B087
:1051780070BD092C00F0C280052C00F09280032C31
:1051880000F0AA80012CD0D1DA78012ACDD19A88F2
:10519800002ACAD15B7A9906C7D5FFF773FE0028A3
:1051A800C3D12B6857495D4A0868002480B202447D
:1051B80052005B4914603020062208801A7299E771
:1051C8001A7852067FF47CAF9A78514C012A00F085
:1051D800AF80022A5FD0032A7FF473AF2268526A35
:1051E800002AB6D16DE75A6822F47F42B2F5003F33
:1051F8007FF466AF1A7812F07F0240F0A3809A8895
:10520800002A7FF45DAF474AA3E70A287FF458AF26
:105218001A7802F07F02012A7FF452AF9A7A002AA4
:105228003FF44EAF598800297FF44AAF5A68384C8A
:1052380022F47F42B2F5803F7FF443AF5879236868
:105248009B6998472B68002800F0BD80587838E79C
:10525800D98801910198824216D88A4280F09580B7
:105268002B49096891F82C108A4280F093802E4AC5
:10527800002010709982FFF763FD41E70B2C7FF443
:1052880054AFFFF7D7FD8AE7214A019912681982BE
:1052980092F82C10EEE72268126A002A7FF459AFC0
:1052A8000FE793F90320002AFFF64AAF9A78002AFD
:1052B8007FF446AF9A88002A7FF442AF9A7A002A90
:1052C8003FF470AF3CE7012C3FF467AF032C7FF449
:1052D8002CAFFFF745FE62E7DA78012A7FF425AFA5
:1052E8009A88002A7FF421AF597A104A41F02001A8
:1052F80012685972D36998472B6853E7FFF77CFD0A
:105308004DE700BF505C0040341A002004300020F4
:105318000C1A00203A1A0020614C000802300020C4
:105328003C1A0020B14C0008D80E0020301A00208A
:105338002268D269002A7FF40CAFC2E62B680922E2
:105348001A72D7E6012A30D0022A7FF4B9AE5A7908
:1053580002F00F04A10001F18041160601F5B841E1
:1053680056BF09680E6801F44056184948BF06F050
:10537800300609788C42BFF4A3AE12F0700F7FF4A8
:105388009FAE002E7FF43FAF9AE6114A126892F85A
:105398002C106FE792FBF1F001FB1022002A7FF43A
:1053A80069AF0C4A0120107064E7094C58792368EA
:1053B8009B69984720B92B689A7A002A7FF423AF13
:1053C8002B6858787DE6044AC3E600BFE000002059
:1053D8000C1A0020D80E0020894C0008F8B5314D71
:1053E8002C68237A022B07D0042B05D0032B09D075
:1053F800052B07D0072B0ED008232372BDE8F840F1
:10540800FFF70CBEA169238A11B35BB9A38A002BED
:105418003FD0254A2EE0254B1B68DB6898472C684F
:105428000823EAE7A68A9E4228BF1E4630468847D8
:10543800228A638A921B33446382074622820020B1
:1054480000F076FA32460146384600F08DF9238A94
:10545800002BDBD0164B00204FF4405201461A8037
:1054680000F074FA238AA18A0F4A302099421080EA
:105478000FD993B92C6806210E4B217219680E4B6F
:1054880089B20B445B00002119603021237A118016
:10549800B3E72C6803232372AFE72C680523237234
:1054A800ABE700BF341A00203C1A00200C1A002079
:1054B8003A1A0020505C00400230002070B40C4BB7
:1054C8001E787EB10B4C0023256843F4004140F65A
:1054D8000F722A4041F0800101330A439E4244F88A
:1054E800042BF1D8044B40F08000186070BC704762
:1054F800E0000020005C00404C5C004010B5184CF7
:105508002268137A022B17D0042B15D0062B05D04E
:1055180008231372BDE81040FFF780BD5378052BB0
:1055280013D0104B1B689B68984722680823137296
:10553800BDE81040FFF772BDFFF702FC2268137A3E
:105548001372BDE81040FFF769BD13785B06E8D118
:10555800D078FFF7B3FF044B1B681B6A9847E0E756
:10556800341A00200C1A0020301A0020704700BF9F
:1055780070B5074A074E084C084B094909480225E7
:105588002360326015721B680860984770BD00BFC1
:10559800141A0020341A00200C1A00205C00002085
:1055A800301A00208C0000202DE9F047002382B03B
:1055B800DFF86491DFF87081544EADF80630D8F802
:1055C8000030534C9AB213F4004F524F4BF6BF7051
:1055D8005149A9F80020DFF834A100F08B800B882E
:1055E8004E4D03F00F039A0002F1804202F5B842D3
:1055F8002B706BBB23689BB23380338803F0300376
:105608003B80338803F4405333802368184080F488
:10561800005080F0200040F4004040F080002060FE
:105628000B88DB063DD523689BB2ADF80630BDF884
:1056380006301D0561D4BDF806301BB2002BBEDA5A
:10564800226840F68F7313402360FFF7C7FE2FE0F0
:10565800116889B2ADF80610BDF8061009B2002924
:1056680014DBBDF806301B06A9D529782C488B0019
:1056780003F1804303F5B8431C6848F60F720139FB
:1056880022401A6050F82130984798E71468254856
:1056980040F68F712140013B50F823301160984744
:1056A800DFE7226848F60F7313402360FFF726FFF1
:1056B8002168BAF800204BF6BF73D404BAF800206A
:1056C80001EA030348BF83F4805390043A8848BF33
:1056D80083F40053D1063A8848BF83F0100392063A
:1056E80048BF83F0200343F4004343F08003084A93
:1056F8009BB2136002B0BDE8F087226840F68F7352
:1057080013402360FFF7AAFCD2E700BF3A1A002033
:10571800005C00403C1A0020680F0020101A00208E
:105728001C00002038000020445C004001F10051BA
:10573800013201F54051531010B44FEA41010FD026
:105748000A1D023010F8014C10F8021C013B41EA16
:10575800042122F8041C00F1020002F10402F1D134
:105768005DF8044B704700BF01F10051013201F5AB
:10577800405153104FEA410105D051F8042B013B29
:1057880020F8022BF9D170474FF6F873014A03400D
:1057980013607047505C0040800000F1804000F5C5
:1057A800B840036823F4EC4323F0700319438BB229
:1057B80003607047800000F1804000F5B84003683E
:1057C800CA0623F4E04323F040039BB248BF83F0AA
:1057D80010038A0648BF83F0200343F4004343F0D4
:1057E80080030360704700BF800000F1804000F52F
:1057F800B8400368CA0423F4804323F070039BB2C3
:1058080048BF83F480538A0448BF83F4005343F4A9
:10581800004343F080030360704700BF800000F13D
:10582800804000F5B840036823F4E04323F04003C8
:105838009BB283F0300343F4004343F080030360DA
:10584800704700BF800000F1804000F5B840036851
:1058580023F4804323F070039BB283F4405343F452
:10586800004343F080030360704700BF800000F1ED
:10587800804000F5B840036840F60F62134043F4D7
:10588800004343F080030360704700BF800000F1CD
:10589800804000F5B84003685B0408D5026840F60C
:1058A8000F73134043F4404343F080030360704791
:1058B800800000F1804000F5B84003685B0608D519
:1058C800026840F60F73134043F4004343F0C003EB
:1058D80003607047064B49081B6849009BB203EBFD
:1058E800C00000F1005000F54050400001607047D2
:1058F800505C0040054A064B1268490892B202EB18
:10590800C000034449005B0019607047505C0040C8
:1059180004300020054B1B689BB203EBC00000F16C
:10592800005000F54050400000887047505C00402F
:10593800044A054B126892B202EBC00003445B00B4
:1059480018887047505C004004300020044A054B1A
:10595800126892B202EBC00003445B001960704702
:10596800505C0040023000200E4A0F4B12683E295E
:1059780092B202EBC00003444FEA43030AD94A0932
:10598800C80604BF02F1FF3292B2920242F400420A
:105998001A6070474A08C90744BF013292B292029E
:1059A8001A607047505C004006300020054A064BDC
:1059B800126892B202EBC00003445B001868C0F39F
:1059C80009007047505C004006300020C3B2000A4E
:1059D80040EA0320704700BF10B40649064C074A46
:1059E80000204FF4364320600B805DF8044B1360B1
:1059F800704700BF381A0020445C0040405C0040FB
:105A080040F0BF60024B40F40030D860704700BFE0
:105A180000ED00E0C37830B45BB90378012103F0EE
:105A28001F02914030BC5B09144A203342F823100E
:105A38007047134B4478DB680F22DB43C3F3022320
:105A4800C3F1040122FA03F38C408578017803EA54
:105A58000502224301F160431201D2B203F561430A
:105A680083F800230378012103F01F02914030BC22
:105A7800024A5B0942F82310704700BF00E100E0CA
:105A880000ED00E008B5174B984212D0164B98422B
:105A98001BD0164B984200D008BD4FF4004001219E
:105AA80000F0F6F9BDE808404FF40040002100F08E
:105AB800EFB94FF40070012100F0EAF9BDE80840A1
:105AC8004FF40070002100F0E3B94FF48060012129
