:020000040800F2
:1000000000C00020A9160008E1510008E5510008D1
:10001000E9510008ED510008F1510008000000000E
:10002000000000000000000000000000F551000882
:10003000F951000800000000FD5100086554000857
:10004000F9160008F9160008F9160008F916000854
:10005000F9160008F9160008F9160008F916000844
:10006000ED4C00084D4C00088D4D0008F9160008B5
:10007000F9160008F9160008F9160008F916000824
:10008000F9160008F9160008F9160008F916000814
:1000900001520008F9160008F9160008F9160008C0
:1000A000F916000831490008F9160008F916000889
:1000B000F9160008F9160008F9160008F9160008E4
:1000C000F9160008F9160008F9160008F9160008D4
:1000D000F9160008F9160008F9160008F9160008C4
:1000E000F9160008F916000805520008F91600086C
:1000F000A9490008F9160008F9160008F9160008C1
:10010000F9160008F916000855480008F916000805
:100110007D550008F9160008F9160008F9160008C0
:10012000F9160008F9160008F9160008F916000873
:1001300000000000000000000000000000000000BF
:1001400000000000000000000000000000000000AF
:10015000000000000000000000000000000000009F
:10016000000000000000000000000000000000008F
:10017000000000000000000000000000000000007F
:10018000000000000000000000000000000000006F
:10019000000000000000000000000000000000005F
:1001A000000000000000000000000000000000004F
:1001B000000000000000000000000000000000003F
:1001C000000000000000000000000000000000002F
:1001D000000000000000000000000000000000001F
:0401E0005FF8E0F1F3
:1001E80081F0004102E000BF83F0004330B54FEAE0
:1001F80041044FEA430594EA050F08BF90EA020F4D
:100208001FBF54EA000C55EA020C7FEA645C7FEADF
:10021800655C00F0E2804FEA5454D4EB5555B8BF02
:100228006D420CDD2C4480EA020281EA030382EA73
:10023800000083EA010180EA020281EA0303362D05
:1002480088BF30BD11F0004F4FEA01314FF4801CD8
:100258004CEA113102D0404261EB410113F0004FEA
:100268004FEA03334CEA133302D0524263EB4303A1
:1002780094EA050F00F0A780A4F10104D5F1200E3F
:100288000DDB02FA0EFC22FA05F2801841F100019A
:1002980003FA0EF2801843FA05F359410EE0A5F16E
:1002A80020050EF1200E012A03FA0EFC28BF4CF09F
:1002B800020C43FA05F3C01851EBE37101F0004555
:1002C80007D54FF0000EDCF1000C7EEB00006EEB62
:1002D8000101B1F5801F1BD3B1F5001F0CD34908EC
:1002E8005FEA30004FEA3C0C04F101044FEA445243
:1002F80012F5800F80F09A80BCF1004F08BF5FEACA
:10030800500C50F1000041EB045141EA050130BDA9
:100318005FEA4C0C404141EB010111F4801FA4F14C
:100328000104E9D191F0000F04BF01460020B1FAA1
:1003380081F308BF2033A3F10B03B3F120020CDAD9
:100348000C3208DD02F1140CC2F10C0201FA0CF0B7
:1003580021FA02F10CE002F11402D8BFC2F1200C1C
:1003680001FA02F120FA0CFCDCBF41EA0C019040D2
:10037800E41AA2BF01EB0451294330BD6FEA04041B
:100388001F3C1CDA0C340EDC04F11404C4F1200206
:1003980020FA04F001FA02F340EA030021FA04F318
:1003A80045EA030130BDC4F10C04C4F1200220FA6F
:1003B80002F001FA04F340EA0300294630BD21FAAD
:1003C80004F0294630BD94F0000F83F4801306BF73
:1003D80081F480110134013D4EE77FEA645C18BF67
:1003E8007FEA655C29D094EA050F08BF90EA020FFE
:1003F80005D054EA000C04BF1946104630BD91EAF6
:10040800030F1EBF0021002030BD5FEA545C05D1F8
:100418004000494128BF41F0004130BD14F5800437
:100428003CBF01F5801130BD01F0004545F0FE41AB
:1004380041F470014FF0000030BD7FEA645C1ABFE0
:10044800194610467FEA655C1CBF0B46024650EA17
:10045800013406BF52EA033591EA030F41F4002143
:1004680030BD00BF90F0000F04BF0021704730B5C9
:100478004FF4806404F132044FF000054FF000019E
:1004880050E700BF90F0000F04BF0021704730B55F
:100498004FF4806404F1320410F0004548BF404234
:1004A8004FF000013EE700BF42004FEAE2014FEA89
:1004B80031014FEA02701FBF12F07F4393F07F4F64
:1004C80081F06051704792F0000F14BF93F07F4F96
:1004D800704730B54FF4607401F0004521F00041D9
:1004E80020E700BF50EA010208BF704730B54FF05F
:1004F80000050AE050EA010208BF704730B511F064
:10050800004502D5404261EB41014FF4806404F19B
:1005180032045FEA915C3FF4DCAE4FF003025FEA1D
:10052800DC0C18BF03325FEADC0C18BF033202EBA5
:10053800DC02C2F1200300FA03FC20FA02F001FAFF
:1005480003FE40EA0E0021FA02F11444C1E600BF9E
:1005580070B54FF0FF0C4CF4E06C1CEA11541DBF51
:100568001CEA135594EA0C0F95EA0C0F00F0DEF81C
:100578002C4481EA030621EA4C5123EA4C5350EA01
:10058800013518BF52EA033541F4801143F4801352
:1005980038D0A0FB02CE4FF00005E1FB02E506F0E3
:1005A8000042E0FB03E54FF00006E1FB03569CF038
:1005B800000F18BF4EF0010EA4F1FF04B6F5007F3E
:1005C80064F5407404D25FEA4E0E6D4146EB0606B0
:1005D80042EAC62141EA55514FEAC52040EA5E5039
:1005E8004FEACE2EB4F1FD0C88BFBCF5E06F1ED8E3
:1005F800BEF1004F08BF5FEA500E50F1000041EB1A
:10060800045170BD06F0004646EA010140EA0200C6
:1006180081EA0301B4EB5C04C2BFD4EB0C0541EAE8
:10062800045170BD41F480114FF0000E013C00F3FD
:10063800AB8014F1360FDEBF002001F0004170BD21
:10064800C4F10004203C35DA0C341BDC04F114043A
:10065800C4F1200500FA05F320FA04F001FA05F2C6
:1006680040EA020001F0004221F0004110EBD37093
:1006780021FA04F642EB06015EEA430E08BF20EABF
:10068800D37070BDC4F10C04C4F1200500FA04F362
:1006980020FA05F001FA04F240EA020001F00041F4
:1006A80010EBD37041F100015EEA430E08BF20EA67
:1006B800D37070BDC4F1200500FA05F24EEA020EAF
:1006C80020FA04F301FA05F243EA020321FA04F0DE
:1006D80001F0004121FA04F220EA020000EBD37095
:1006E8005EEA430E08BF20EAD37070BD94F0000F95
:1006F8000FD101F00046400041EB010111F4801FC9
:1007080008BF013CF7D041EA060195F0000F18BF79
:10071800704703F00046520043EB030313F4801FB5
:1007280008BF013DF7D043EA0603704794EA0C0F6F
:100738000CEA135518BF95EA0C0F0CD050EA410685
:1007480018BF52EA4306D1D181EA030101F0004102
:100758004FF0000070BD50EA410606BF104619462A
:1007680052EA430619D094EA0C0F02D150EA013636
:1007780013D195EA0C0F05D152EA03361CBF104677
:1007880019460AD181EA030101F0004141F0FE4116
:1007980041F470014FF0000070BD41F0FE4141F49A
:1007A800780170BD70B54FF0FF0C4CF4E06C1CEA9A
:1007B80011541DBF1CEA135594EA0C0F95EA0C0F4F
:1007C80000F0A7F8A4EB050481EA030E52EA03350A
:1007D8004FEA013100F088804FEA03334FF080552B
:1007E80045EA131343EA12634FEA022245EA111558
:1007F80045EA10654FEA00260EF000419D4208BF09
:10080800964244F1FD0404F5407402D25B084FEAB5
:100818003202B61A65EB03055B084FEA32024FF461
:1008280080104FF4002CB6EB020E75EB030E22BFBE
:10083800B61A754640EA0C005B084FEA3202B6EB7E
:10084800020E75EB030E22BFB61A754640EA5C002D
:100858005B084FEA3202B6EB020E75EB030E22BFBD
:10086800B61A754640EA9C005B084FEA3202B6EBBE
:10087800020E75EB030E22BFB61A754640EADC007D
:1008880055EA060E18D04FEA051545EA16754FEADF
:1008980006164FEAC30343EA52734FEAC2025FEAFD
:1008A8001C1CC0D111F4801F0BD141EA00014FF08C
:1008B80000004FF0004CB6E711F4801F04BF01435D
:1008C8000020B4F1FD0C88BFBCF5E06F3FF6AFAE79
:1008D800B5EB030C04BFB6EB020C5FEA500C50F109
:1008E800000041EB045170BD0EF0004E4EEA11318C
:1008F80014EB5C04C2BFD4EB0C0541EA045170BD93
:1009080041F480114FF0000E013C90E645EA060ED6
:100918008DE60CEA135594EA0C0F08BF95EA0C0F04
:100928003FF43BAF94EA0C0F0AD150EA01347FF44C
:1009380034AF95EA0C0F7FF425AF104619462CE723
:1009480095EA0C0F06D152EA03353FF4FDAE104686
:10095800194622E750EA410618BF52EA43067FF4D7
:10096800C5AE50EA41047FF40DAF52EA43057FF467
:10097800EBAE12E74FEA410212F5001215D211D57B
:100988006FF47873B3EB625212D94FEAC12343F084
:10099800004343EA505311F0004F23FA02F018BF06
:1009A800404270474FF00000704750EA013005D1CF
:1009B80011F0004008BF6FF0004070474FF0000092
:1009C800704700BF80F0004002E000BF81F00041A6
:1009D80042001FBF5FEA410392EA030F7FEA226CDD
:1009E8007FEA236C6AD04FEA1262D2EB1363C1BF6D
:1009F800D218414048404140B8BF5B42192B88BFDC
:100A0800704710F0004F40F4000020F07F4018BFFE
:100A1800404211F0004F41F4000121F07F4118BF1E
:100A2800494292EA030F3FD0A2F1010241FA03FCC6
:100A380010EB0C00C3F1200301FA03F100F00043AE
:100A480002D5494260EB4000B0F5000F13D3B0F176
:100A5800807F06D340084FEA310102F10102FE2AE5
:100A680051D2B1F1004F40EBC25008BF20F0010055
:100A780040EA03007047490040EB000010F4000F03
:100A8800A2F10102EDD1B0FA80FCACF1080CB2EB96
:100A98000C0200FA0CF0AABF00EBC25052421843F5
:100AA800BCBFD0401843704792F0000F81F400019A
:100AB80006BF80F400000132013BB5E74FEA41036D
:100AC8007FEA226C18BF7FEA236C21D092EA030FD9
:100AD80004D092F0000F08BF0846704790EA010F53
:100AE8001CBF0020704712F07F4F04D1400028BF80
:100AF80040F00040704712F100723CBF00F5000062
:100B0800704700F0004343F0FE4040F40000704797
:100B18007FEA226216BF08467FEA23630146420243
:100B280006BF5FEA412390EA010F40F48000704756
:100B38004FF0000304E000BF10F0004348BF4042FC
:100B48005FEA000C08BF704743F0964301464FF038
:100B580000001CE050EA010208BF70474FF0000394
:100B68000AE000BF50EA010208BF704711F00043D5
:100B780002D5404261EB41015FEA010C02BF8446A5
:100B88000146002043F0B64308BFA3F18053A3F504
:100B98000003BCFA8CF2083AA3EBC25310DB01FA4B
:100BA80002FC634400FA02FCC2F12002BCF1004FCF
:100BB80020FA02F243EB020008BF20F00100704760
:100BC80002F1200201FA02FCC2F1200250EA4C00B4
:100BD80021FA02F243EB020008BF20EADC707047FA
:100BE8004FF0FF0C1CEAD0521EBF1CEAD15392EA08
:100BF8000C0F93EA0C0F6FD01A4480EA010C4002E4
:100C080018BF5FEA41211ED04FF0006343EA50103D
:100C180043EA5111A0FB01310CF00040B1F5000F7F
:100C28003EBF490041EAD3715B0040EA010062F12E
:100C38007F02FD2A1DD8B3F1004F40EBC25008BF18
:100C480020F00100704790F0000F0CF0004C08BF36
:100C580049024CEA502040EA51207F3AC2BFD2F103
:100C6800FF0340EAC250704740F400004FF0000311
:100C7800013A5DDC12F1190FDCBF00F0004070474B
:100C8800C2F10002410021FA02F1C2F1200200FA89
:100C980002FC5FEA310040F1000053EA4C0308BF50
:100CA80020EADC70704792F0000F00F0004C02BFA1
:100CB800400010F4000F013AF9D040EA0C0093F01C
:100CC800000F01F0004C02BF490011F4000F013B76
:100CD800F9D041EA0C018FE70CEAD15392EA0C0FE4
:100CE80018BF93EA0C0F0AD030F0004C18BF31F04F
:100CF800004CD8D180EA010000F00040704790F025
:100D0800000F17BF90F0004F084691F0000F91F0C8
:100D1800004F14D092EA0C0F01D142020FD193EA8E
:100D28000C0F03D14B0218BF084608D180EA010016
:100D380000F0004040F0FE4040F40000704740F0F2
:100D4800FE4040F4400070474FF0FF0C1CEAD052C0
:100D58001EBF1CEAD15392EA0C0F93EA0C0F69D01C
:100D6800A2EB030280EA010C49024FEA402037D087
:100D78004FF0805343EA111143EA10130CF000407E
:100D88008B4238BF5B0042F17D024FF4000C8B426E
:100D980024BF5B1A40EA0C00B3EB510F24BFA3EB4E
:100DA800510340EA5C00B3EB910F24BFA3EB91031E
:100DB80040EA9C00B3EBD10F24BFA3EBD10340EA78
:100DC800DC001B0118BF5FEA1C1CE0D1FD2A3FF6BE
:100DD80050AF8B4240EBC25008BF20F00100704773
:100DE8000CF0004C4CEA50207F32C2BFD2F1FF0316
:100DF80040EAC250704740F400004FF00003013A47
:100E080037E792F0000F00F0004C02BF400010F4EA
:100E1800000F013AF9D040EA0C0093F0000F01F0FE
:100E2800004C02BF490011F4000F013BF9D041EA20
:100E38000C0195E70CEAD15392EA0C0F08D1420253
:100E48007FF47DAF93EA0C0F7FF470AF084676E726
:100E580093EA0C0F04D14B023FF44CAF08466EE7FF
:100E680030F0004C18BF31F0004CCAD130F00042CD
:100E78007FF45CAF31F000437FF43CAF5FE700BF25
:100E88004FF0FF3C06E000BF4FF0010C02E000BF4E
:100E98004FF0010C4DF804CD4FEA40024FEA4103F0
:100EA8007FEA226C18BF7FEA236C11D001B052EAA6
:100EB800530C18BF90EA010F58BFB2EB030088BF6C
:100EC800C81738BF6FEAE17018BF40F001007047DB
:100ED8007FEA226C02D15FEA402C05D17FEA236CBD
:100EE800E4D15FEA412CE1D05DF8040B704700BF04
:100EF800844608466146FFE70FB5FFF7C9FF00289B
:100F080048BF10F1000F0FBD4DF808EDFFF7F4FFD3
:100F18000CBF012000205DF808FB00BF4DF808ED6C
:100F2800FFF7EAFF34BF012000205DF808FB00BF8F
:100F38004DF808EDFFF7E0FF94BF012000205DF8B1
:100F480008FB00BF4DF808EDFFF7D2FF94BF012062
:100F580000205DF808FB00BF4DF808EDFFF7C8FF5B
:100F680034BF012000205DF808FB00BF4FEA4002B3
:100F7800B2F1FE4F0FD34FF09E03B3EB12620DD9BF
:100F88004FEA002343F0004310F0004F23FA02F029
:100F980018BF404270474FF00000704712F1610FD0
:100FA80001D1420205D110F0004008BF6FF00040A7
:100FB80070474FF0000070474FF0FF3C06E000BF5D
:100FC8004FF0010C02E000BF4FF0010C4DF804CDCA
:100FD8004FEA410C7FEA6C5C4FEA430C18BF7FEA8A
:100FE8006C5C1BD001B050EA410C0CBF52EA430CB8
:100FF80091EA030F02BF90EA020F0020704710F138
:10100800000F91EA030F58BF994208BF90422CBFC6
:10101800D8176FEAE37040F0010070474FEA410CBF
:101028007FEA6C5C02D150EA013C07D14FEA430CDD
:101038007FEA6C5CD6D152EA033CD3D05DF8040B4E
:10104800704700BF8446104662468C461946634680
:1010580000E000BF01B5FFF7B7FF002848BF10F157
:10106800000F01BD4DF808EDFFF7F4FF0CBF01209C
:1010780000205DF808FB00BF4DF808EDFFF7EAFF18
:1010880034BF012000205DF808FB00BF4DF808EDD3
:10109800FFF7E0FF94BF012000205DF808FB00BFC8
:1010A8004DF808EDFFF7CEFF94BF012000205DF852
:1010B80008FB00BF4DF808EDFFF7C4FF34BF01205F
:1010C80000205DF808FB00BF4BB942B9002908BFF2
:1010D800002802D04FF0FF31084600F03BB882B03C
:1010E800EC462DE9005000F01DF8DDF804E002B0F0
:1010F8000CBC70472DE9F0411646984604460D464B
:1011080000F02AF806FB01FCA6FB002300FB08C739
:10111800FB18A21A65EB0303069CC4E90023BDE88B
:10112800F08100BF2DE9F041904606460F461D4666
:1011380000F070F900FB05F3A0FB084508FB013837
:10114800069B4544341B67EB0505C3E90045BDE82C
:10115800F08100BF704700BF00292DE9F00F1D4640
:10116800C0F29D800024002DC0F2948080460F4676
:1011780094461E46E3BB8A4255D9B2FA82F747B174
:10118800C7F1200520FA05F601FA07F1BA40B84080
:101198003143170CB1FBF7F61FFA82FC07FB161157
:1011A8000CFB06F5030C43EA01439D4208D9711E66
:1011B8009B1880F013819D4240F21081023E9B18DB
:1011C800591BB1FBF7F507FB15130CFB05FC80B2A7
:1011D80040EA03418C4507D96B1E8A1880F00081CC
:1011E800944540F2FD80023D45EA0641002503E0B2
:1011F8008B420CD9002529460A462B4614B1524287
:1012080063EB430310461946BDE8F00F7047B3FA85
:1012180083F5002D40F087808B4201D38242EAD8C3
:1012280000250121E8E712B90126B6FBF2F2B2FA6D
:1012380082F6002E39D18E1A130C1FFA82FC012572
:10124800B6FBF3F703FB17610CFB07F84FEA1049ED
:1012580049EA0146B04506D9791EB61802D2B0450A
:1012680000F2D3800F46C8EB0606B6FBF3F103FB8A
:1012780011630CFB01FC80B240EA03439C4506D98C
:101288004E1E9A1802D2944500F2C280314641EAB5
:101298000741B1E7E443524263EB430366E7404248
:1012A80061EB41014FF0FF345DE7B240C6F1200920
:1012B80021FA09F720FA09F901FA06F1130CB7FB2C
:1012C800F3F81FFA82FC03FB18770CFB08F549EAD0
:1012D80001094FEA194141EA0747B040BD420AD91E
:1012E800BF1808F1FF3680F08E80BD4240F28B8037
:1012F800A8F10208BF18791BB1FBF3F503FB15171A
:101308000CFB05F61FFA89F949EA07418E4206D90E
:101318006F1E891871D28E426FD9023D89188E1BB3
:1013280045EA08458CE7C5F1200122FA01F306FADF
:1013380005F627FA01F207FA05F720FA01F11E432C
:101348004FEA1649B2FBF9F81FFA86FA09FB182288
:101358000AFB08FB0F433B0C43EA024293450CFA95
:1013680005FC08D9921908F1FF314AD2934548D9AA
:10137800A8F102089219CBEB0203B3FBF9F109FBC0
:1013880011320AFB01FABFB247EA02439A4506D96D
:101398004A1E9B1933D29A4531D902399B1941EA21
:1013A80008410F0C1FFA8CF808FB07F68AB24FEABF
:1013B8001C4C08FB02F80CFB02620CFB07FC02EB5E
:1013C8001842964288BF0CF5803CCAEB03030CEB2D
:1013D800124C63450ED305D000250DE70E46EFE607
:1013E8001D4601E700FA05F01FFA88F808EB0245E8
:1013F800A842F1D201390025FEE63D468FE71146A5
:10140800CDE78846B7E7B04675E7023FB6182AE742
:1014180002393CE72DE9F007144605460E46002B35
:101428003DD18A4249D9B2FA82F747B1C7F12001C2
:1014380020FA01F206FA07F6BC40BD401643220C1A
:10144800B6FBF2F0A1B202FB106601FB00F32F0C11
:1014580047EA0646B34208D9471E361980F0FA8093
:10146800B34240F2F78002383619F61AB6FBF2F3A7
:1014780002FB136201FB03F1ADB245EA024291425D
:1014880007D95E1E121980F0E780914240F2E4808D
:10149800023B43EA00400021BDE8F00770478B4259
:1014A80043D8B3FA83F4002C42D18B4202D3824250
:1014B80000F2E18000210120EEE712B90127B7FB15
:1014C800F2F4B4FA84F2002A40F089800A1B230C53
:1014D800A7B20121B2FBF3F603FB162207FB06F0C5
:1014E8004FEA154C4CEA0242904207D9121906F10C
:1014F800FF3C02D2904200F2D0806646121AB2FB3C
:10150800F3F003FB102307FB00F7ADB245EA0343F2
:101518009F4207D9421E1B1980F0A0809F4240F2CB
:101528009D80023840EA0640B6E700210846B3E746
:10153800C4F1200622FA06F703FA04F321FA06F5A5
:1015480001FA04F120FA06F63B434FEA134CB5FBC7
:10155800FCF71FFA83F80CFB175508FB07F946EA56
:10156800010A4FEA1A4141EA0545A94502FA04F27F
:1015780004D97E1EED18C0F081803746C9EB0501FD
:10158800B1FBFCF60CFB161508FB06F81FFA8AFAE5
:101598004AEA0541884503D9751EC91874D32E46F1
:1015A80046EA0746370C1FFA82FC0CFB07F5120CBB
:1015B800B3B20CFB03FC02FB035302FB07F203EB81
:1015C8001C439D4288BF02F58032C8EB010102EB43
:1015D800134291424CD343D0304600215CE79440FB
:1015E800C2F1200521FA05F620FA05F501FA02F103
:1015F800230CB6FBF3FCA7B203FB1C6607FB0CF835
:1016080029430D0C45EA0646B04500FA02F508D90B
:1016180036190CF1FF303ED2B0453CD9ACF1020C82
:101628003619C8EB0602B2FBF3F003FB102607FBE2
:1016380000F889B241EA0642904506D9461E1219B9
:1016480027D2904525D902381219C8EB020240EA80
:101658000C413FE7384608E733461AE7104661E78A
:1016680000FA04F01FFA8CFC0CEB03439842B3D247
:10167800701E002110E7214620460DE7A9457FF698
:101688007CAF023FED1879E7884588D9023EC91832
:1016980086E73046D9E78446C3E7023E12192DE7AC
:1016A800002100F004B80D4B5B58435004310C483E
:1016B8000C4B42189A42FFF4F6AF0B4A00F003B8FD
:1016C800002342F8043B094B9A42FFF4F9AF03F0B8
:1016D800E5FD05F07FFE02F0B9FD704708E6000859
:1016E80000000020A4090020A40900202C1A0020D2
:1016F800FFF7FEBF70B48AB3561EF2B2531C5E00E9
:10170800030FB21E0024092BC2F3400228D9373335
:101718000B7002230001B3424C701FD052B1020F6C
:10172800092A13D93732CA54CA1802330001B342FE
:10173800547013D0050F092D15D83035CD5400013C
:10174800020FCD180233092A6C70EBD83032CA5414
:10175800CA1802330001B3425470EBD170BC704711
:1017680030330B70D5E73735CD54E8E730B54FF453
:10177800006483B0C4F201040420012105F0B0FB29
:101788004FF4805503231422204601A98DF8063012
:101798008DF80720ADF8045005F092F92946204647
:1017A80005F0C8FAC82004F087F82946204605F055
:1017B800BFFA4FF4802005F07DF940F6E861C2F2E7
:1017C80000014FF480230B600822012308464A7168
:1017D8008B7105F029F903B030BD00BF002008B5B2
:1017E80005F00CFB4FF400000121BDE8084005F0AE
:1017F80085BB00BF054B987A20B9054901220A60CC
:1018080003F04CBD024B05201860F9E7FC190020D5
:10181800A809002010B54FF4A06082B004F0E0FFE2
:101828000124142301A8022100228DF804308DF828
:1018380005108DF806208DF8074004F0DBFF2A23F9
:1018480001A88DF804308DF8054004F0D3FF02B0EC
:1018580010BD00BF704700BF4FF2E8724FF2F0733F
:10186800C1F6FF72C1F6FF7310681A684FF2EC7187
:10187800C1F6FF71801810B50C6800D110BD0822A0
:101888000449FFF737FF044920460422BDE8104009
:10189800FFF730BF020000201200002070B5104D85
:1018A8002B68BBB9402911D9402426463246C021AD
:1018B80004F0DEFD0120314604F032FF29680120E2
:1018C80062182A6004F08EFE204670BD0C4621B9CD
:1018D800204670BD0024204670BD0E460C46E5E744
:1018E800E40E00202DE9F041214F0C463B68DFF85B
:1018F80088808B4238BF3C6814B31E4D98F800109E
:1019080001236E5C621E9C42067002EA03021E46B8
:1019180016D932B16B1C5A5C02239C4242701E4697
:101928000ED9EA1812F801C00133DAB200F806C07D
:10193800531CAE18765CDBB29C4286541E46F0D827
:10194800386898F80010051B3D603D68621888F8F3
:10195800002055B90320402104F0F2FE03204FF483
:10196800405104F01FFE044B1D702046BDE8F08175
:10197800300F0020F00E0020A509002040F6A41327
:10198800C2F200031878421E514251EB0200704720
:1019980040F6A81240F6A4130021C2F20002C2F2D7
:1019A8000003116019707047034B0128187002D1A9
:1019B8000248002202607047A4090020E40E0020BB
:1019C80040F6A413C2F200031878704708B5032044
:1019D80004F0D8FE40F63073C2F2000318601A68AB
:1019E80040F6F060C2F200004FF4887192B2BDE890
:1019F800084004F079BD00BF45F64442C4F2000235
:101A080038B51368284C98B2284D208021882B8837
:101A1800194001F4007081B239B125494FF6FF50E1
:101A280010600A78501CC2B20A702188194001F46B
:101A3800004082B2002A32D1218801F4806003423A
:101A480021D1228802F400510B4211D1228802F4DC
:101A580080510B4200D138BD45F64440C4F2000025
:101A68004EF6FF7303600020BDE8384000F088B9E7
:101A780045F64443C4F200034DF6FF701860FFF7C3
:101A880087FF2B88E2E70B4945F64443C4F200037D
:101A98004FF6FF321A60486880472B88D1E704F078
:101AA8000DFC2B88C8E700BF340F0020201A002047
:101AB800A60900205C000020034B987A10B1034966
:101AC80005220A60704700BFFC190020A809002001
:101AD80040F6A813C2F2000304221A60704700BF40
:101AE800034B1A78202A01D100201870704700BFD4
:101AF800A7090020704700BF09B1022070470128DC
:101B0800FBD80846704700BF08B103487047034B2D
:101B1800082219680A827047D80000201C1A002081
:101B280008B103487047034B082219680A827047B6
:101B3800D80000201C1A0020054B1968CA78042A0E
:101B480004D8044B03EBC20104F0B6B80020704778
:101B58001C1A0020B800002040F2B001C2F20001B7
:101B680004F0AAB800B5092883B005D0054903B028
:101B78005DF804EB04F0A0B8019003F015FA0198A1
:101B8800F4E700BF5400002010B504460220FFF718
:101B98000BFF074B1868017801F07F02212A01D05A
:101BA800022010BD022C01D0222CF9D1002010BD3A
:101BB8001C1A002010B504460120FFF7F5FE212C61
:101BC80003D0202C11D0022010BD0F4B19680A78C1
:101BD80002F07F002128F6D10C4A1B680024204619
:101BE8009A615C829047204610BD074B1A681078AE
:101BF80000F07F01212903D0054B02201C7010BD85
:101C08000348044A0470E8E71C1A0020111B000866
:101C1800A7090020291B000841F61C234DF6F412E1
:101C2800C0F60002C2F20003D179186810B500248A
:101C380041728472C472204604F07EFC20464FF440
:101C4800007104F083FC1021204604F08BFC402135
:101C5800204604F031FD8021204604F01BFD20467B
:101C680004F0E4FC40F25C03C2F2000393F82C1089
:101C7800204604F065FD204604F0C6FC01202146FC
:101C880004F064FC0120C02104F004FD012020219F
:101C980004F068FC0120214604F084FC02204FF483
:101CA800C06104F053FC02204FF4807104F0F2FC90
:101CB8000220214604F076FC0220202104F052FC88
:101CC8000320214604F042FC03204FF4887104F0FD
:101CD800F3FC0320402104F033FD03204FF440516E
:101CE80004F060FC2146032004F03CFC204604F08C
:101CF8003DFA40F6A810C2F200000122026010BDB1
:101D080010B5FFF7A9FD41F61C23C2F200031868BD
:101D18000024847200F008F804F04CFD40F6A81185
:101D2800C2F200010C6010BD38B50120FFF792FD2A
:101D380045F6444545F6404341F62022C4F20003E7
:101D480000214FF4E0540120C4F20005C2F2000261
:101D5800186019600846296014801C6038BD00BFEF
:101D680010B545F64044C4F2000422684FF6FB73F0
:101D780013402360FFF73EFD4FF43640206010BD4E
:101D880010B52B4C072818BF20702378052B19D8BD
:101D9800DFE803F01B222A2F3A036078411ECAB2FB
:101DA8006270637883B945F64042C4F20002106855
:101DB8004FF6EF71014011601D4A1E490620107050
:101DC8000B6010BD0620207010BD1A480268002A5A
:101DD80028D00521217010BDFFF7C2FF154B042242
:101DE80001212270196010BD022303206370207046
:101DF80010BD6278511ECBB2637060780028E3D1C1
:101E08000B4904220A7010BD45F64043C4F2000392
:101E1800186882B242F0100119600A200523237065
:101E2800607010BDFFF79CFF0623237010BD00BF34
:101E3800380F0020AC09002030B54FF4805087B02F
:101E4800082300246946C4F20100ADF800308DF87B
:101E5800034004F035FE4FF4004004F0D5FF0121A3
:101E68004FF4007005F03CF84FF41050C4F2010034
:101E780004F0FEFC4FF410504FF460220125C4F228
:101E8800010001A9039201948DF808408DF80940DA
:101E980004948DF8145004F023FD4FF41050C4F24C
:101EA8000100294604F042FD4FF41050C4F201002D
:101EB80004F046FD4FF41050C4F2010004F046FD52
:101EC8000028F7D14FF41050C4F2010004F042FD8D
:101ED8004FF41050C4F2010004F042FD0028F7D17D
:101EE80007B030BD01464FF4105008B5C4F20100E8
:101EF8000122032304F042FD4FF41050C4F2010004
:101F0800012104F031FD4FF41050C4F20100022108
:101F180004F084FD0028F6D04FF41050C4F20100FC
:101F2800BDE8084004F076BD0FB410B5C2B044ACAB
:101F380054F8042BFF21234602A8019405F09EFBC8
:101F480002A803F00BFB02A805F03CFB014602A81F
:101F580003F03AFC42B0BDE8104004B0704700BF3F
:101F68000FB410B5C2B044AC54F8042B02A8FF213A
:101F78002346019405F082FB02A803F0EFFA42B071
:101F8800BDE8104004B0704700B50C4B83B018682A
:101F9800002804DB4FF0FF321A6003B000BD03F0E5
:101FA80023FC38B10DF10700012103F023FC9DF853
:101FB8000700F2E703F0BAFAEFE700BFE4000020F9
:101FC80010B5002407E0642C09D0FFF7DDFF0134C9
:101FD800002804DB0134FFF7D7FF0028F3DA204696
:101FE80010BD00BF10B582B002AC04F8010D03F0BB
:101FF800ADFA2046012103F0E7FB02B010BD00BF97
:10200800704700BF08B503F0A9FABDE8084003F01F
:1020180093BA00BF08B503F021FB4DF63820C0F68F
:102028000000FFF7EFFF03F0B9FB4DF64820C0F6BC
:102038000000BDE80840FFF7E5BF00BF70B5FFF737
:10204800A3FF041E52DB03F0E3FBA4F12B034A2B8E
:102058004CD8DFE813F0F5004B00E3004B004B00D1
:102068004B004B004B004B004B004B004B004B0010
:102078004B004B004B004B004B004B004B004B0000
:102088004B004B004B004B004B004B004B00DF005C
:102098004B004B004B004B004B004B004B004B00E0
:1020A8004B004B00D4004B004B004B004B004B0047
:1020B8004B004B004B004B004B004B004B004B00C0
:1020C8004B004B00C900C300BD004B004B00900003
:1020D80080007C0078004B004B004B004B007200E6
:1020E8006C004B00660057004B004C0070BD59480F
:1020F8000468FFF765FC024657482146BDE8704072
:10210800FFF72EBF554B56481A6882F00102554C0E
:1021180055491A60002A08BF2146BDE87040FFF7FC
:1021280003BF524B5248196881F00102EFE7514B47
:1021380051481C6884F00102E9E7504B186880F0A8
:1021480001024F48E3E74F4B00221A6070BD4D482B
:102158000121016070BD4C4D0024FFF715FF0028D8
:10216800FBDBFE28D8BF605501340C2CF5D1BDE847
:10217800704000F019B9444C642003F09DFB7820AE
:10218800FFF730FF2078FFF72DFF6078FFF72AFF71
:10219800A078FFF727FFE078FFF724FF2079FFF703
:1021A80021FF6079FFF71EFFA079FFF71BFFE07999
:1021B800FFF718FF207AFFF715FF607AFFF712FF85
:1021C800A07AFFF70FFFE07ABDE87040FFF70ABF7B
:1021D8002E4B2F481C6884F0010298E72D4B2E489F
:1021E8001A6882F0010292E72C48FFF79DFE4FF42F
:1021F8007A7003F061FBBDE8704002F0D5BE284854
:10220800FFF792FE4FF47A7003F056FBBDE870407A
:1022180002F0C0BEBDE8704000F084B9214C4CF615
:10222800CD41C3F6CC512068FEF7D0FB2060FEF705
:102238003BF902461C480B46BDE87040FFF774BEE8
:10224800184C4CF6CD41C3F6CC512068FEF7C0FBC4
:10225800ECE700BFA809002028DB0008100A0020CE
:1022680010DB000860DA00085CDA0008000A0020C9
:10227800ECDA0008080A0020D0DA0008140A002066
:10228800B4DA00085C0F0020E8000020D80900201C
:10229800A0DA0008B409002088DA000864DA000827
:1022A80000DB0008F400002054DB000808B500201B
:1022B80000F09EF9FE289CBF3A4B1870052003F0E9
:1022C800FBFA012000F094F9FE289CBF35494870BC
:1022D800052003F0F1FA022000F08AF9FE289CBFDD
:1022E800304A9070052003F0E7FA032000F080F9E7
:1022F800FE289CBF2B4BD870052003F0DDFA042084
:1023080000F076F9FE289CBF26490871052003F0E5
:10231800D3FA052000F06CF9FE289CBF214A5071C1
:10232800052003F0C9FA062000F062F9FE289CBFD8
:102338001C4B9871052003F0BFFA072000F058F9EC
:10234800FE289CBF1749C871052003F0B5FA08207C
:1023580000F04EF9FE289CBF124A1072052003F0C7
:10236800ABFA092000F044F9FE289CBF0D4B5872C7
:10237800052003F0A1FA0A2000F03AF9FE289CBFD4
:1023880008498872052003F097FA0B2000F030F90D
:10239800FE289CBF034AD0720520BDE8084003F020
:1023A8008BBA00BFE800002008B503F031FA00201E
:1023B80000F01EF9411C06D0594B1978814202D011
:1023C800002000F0F7F8052003F076FA012000F06D
:1023D8000FF9421C06D052494978814202D00120A7
:1023E80000F0E8F8052003F067FA022000F000F991
:1023F800431C06D04A4A9178814202D0022000F05C
:10240800D9F8052003F058FA032000F0F1F8411C30
:1024180006D0434BD978814202D0032000F0CAF895
:10242800052003F049FA042000F0E2F8421C06D027
:102438003B490979814202D0042000F0BBF805200D
:1024480003F03AFA052000F0D3F8431C06D0344ACA
:102458005179814202D0052000F0ACF8052003F044
:102468002BFA062000F0C4F8411C06D02C4B9979B1
:10247800814202D0062000F09DF8052003F01CFAE6
:10248800072000F0B5F8421C06D02549C9798142D9
:1024980002D0072000F08EF8052003F00DFA08207E
:1024A80000F0A6F8431C06D01D4A117A814202D0DA
:1024B800082000F07FF8052003F0FEF9092000F05D
:1024C80097F8411C06D0164B597A814202D0092050
:1024D80000F070F8052003F0EFF90A2000F088F802
:1024E800421C06D00E49897A814202D00A2000F0A7
:1024F80061F8052003F0E0F90B2000F079F8431C9F
:1025080006D0074AD17A814202D00B2000F052F857
:10251800052003F0D1F9BDE8084003F081B900BFF8
:10252800E800002038B54DF670304DF6803540F2A1
:10253800E804C0F60005C2F20004C0F60000FFF788
:10254800F3FC21782846FFF7EFFC28466178FFF76F
:10255800EBFC2846A178FFF7E7FC2846E178FFF76F
:10256800E3FC28462179FFF7DFFC28466179FFF76D
:10257800DBFC2846A179FFF7D7FC2846E179FFF76D
:10258800D3FC2846217AFFF7CFFC2846617AFFF76B
:10259800CBFC2846A17AFFF7C7FC2846E17AFFF76B
:1025A800C3FC4DF64420C0F60000BDE83840FFF7F4
:1025B800BBBC00BF38B5044605200D4603F07CF9C6
:1025C80000F0AAFFAE2001F045F801F00DFD20460D
:1025D80001F040F801F008FD284601F03BF801F051
:1025E80003FD00F0BFFF0520BDE8384003F064B9E3
:1025F80038B50546174C012003F05EF90023236027
:1026080000F08AFFAE2001F025F801F0EDFC284625
:1026180001F020F801F0E8FC00F0A4FF012003F02D
:102628004BF900F079FFAF2001F014F801F0DCFC61
:1026380001F066F9054600F0E5FF00F093FF012080
:1026480003F03AF9206800280CBF28464FF0FF3005
:1026580038BD00BFB017002040F66473C2F2000313
:1026680000212DE9F0411868C4F27A41FEF7B8FA62
:1026780040F6DC11C2F200010968FEF7A9F940F240
:10268800E804C2F2000406466078FEF751FA3146C3
:10269800FEF7A6FA0021C4F27A41FEF755FB074679
:1026A8002079FEF745FA0021C4F2C821FEF74CFB59
:1026B80040F69075C2F20005296880463046FEF75C
:1026C80085F901464046FEF78BFA014638462E60EA
:1026D800FEF77EF9E179BDE8F04102F043B800BFAA
:1026E80040F66473C2F2000300212DE9F0415868F6
:1026F800C4F27A41FEF774FA40F6EC11C2F2000116
:102708000968FEF765F940F2E804C2F200040646DB
:102718002078FEF70DFA3146FEF762FA0021C4F27E
:102728007A41FEF711FB0746E078FEF701FA00212F
:10273800C4F2C821FEF708FB40F67475C2F2000522
:10274800296880463046FEF741F901464046FEF7C3
:1027580047FA014638462E60FEF73AF9A179BDE8F6
:10276800F04102F023B800BF40F66473C2F20003E0
:1027780000212DE9F0419868C4F27A41FEF730FA59
:1027880040F60C21C2F200010968FEF721F940F277
:10279800E804C2F200040646A078FEF7C9F93146FB
:1027A800FEF71EFA0021C4F27A41FEF7CDFA074679
:1027B8006079FEF7BDF90021C4F2C821FEF7C4FA1A
:1027C80040F67075C2F20005296880463046FEF76B
:1027D800FDF801464046FEF703FA014638462E60EA
:1027E800FEF7F6F8217ABDE8F04102F003B800BF21
:1027F8002DE9F0414E4C4F4D204600F081FDA16877
:10280800206809F059FDA1680746606809F054FD81
:1028180000210646C4F2C6212868FEF7E1F93946C8
:10282800FEF7D4F80021C4F2C821FEF78DFA002182
:10283800C4F2C62128606868FEF7D2F9014630461E
:10284800FEF7C6F80021C4F2C821FEF77DFA6860D9
:10285800052003F029F89626354800F051FDA168B7
:10286800206809F029FDA1688046606809F024FD08
:1028780000210746C4F2C6212868FEF7B1F941468F
:10288800FEF7A4F80021C4F2C821FEF75DFA002182
:10289800C4F2C62128606868FEF7A2F901463846E6
:1028A800FEF796F80021C4F2C821FEF74DFA6860D9
:1028B800052002F0F9FF1E4800F022FDA1682068FB
:1028C80009F0FAFCA1688046606809F0F5FC00216F
:1028D8000746C4F2C6212868FEF782F94146FEF78A
:1028E80075F80021C4F2C821FEF72EFA0021C4F2BF
:1028F800C62128606868FEF773F901463846FEF776
:1029080067F80021C4F2C821FEF71EFA013E68608C
:10291800052002F0C9FF013E064F9DD1064B79689C
:102928003A68002059601A609860BDE8F08100BFDD
:10293800C0090020780F0020640F00202DE9F84F0F
:102948000C460646916810681D461746DDF8288033
:1029580009F0B2FCB9688146786809F0ADFC00213D
:102968000746C4F2C6213068FEF73AF94946FEF731
:102978002DF80021C4F2C821FEF7E6F900213060E5
:10298800C4F2C6217068FEF72BF901463846FEF7F7
:102998001FF80021C4F2C821FEF7D6F97060296833
:1029A80083464046FEF71CF9676801463846FEF73D
:1029B8000FF8394682465846FEF708F84BF2177169
:1029C800C3F65111FEF70CF901465046FEF700F820
:1029D8006060814609F034FC0746484609F0FCFB74
:1029E8008146A868394600F10040FEF7F9F86968A1
:1029F80083464846FEF7F4F801465846FDF7E8FFD7
:102A080001464046FEF7ECF8D4F800A001465046CF
:102A1800FDF7DEFF514683463068FDF7D7FF4BF2DE
:102A28001771C3F65111FEF7DBF801465846FDF75A
:102A3800CFFF2060A968484601F10041FEF7D0F8B1
:102A4800696806463846FEF7CBF801463046FDF77A
:102A5800BDFF01464046FEF7C3F80146A068FDF7F2
:102A6800B7FFA060BDE8F88F2DE9F04F9C4D99B0F5
:102A78002B681090581C286002F0CAFE02F0ECFE89
:102A880016A802F0BFFB974800F03AFC16A802F01F
:102A9800C1FB1190944800F05FFC16A802F0BAFB45
:102AA800924C109E214612908E4A8F4B9048009669
:102AB800FFF744FF16A802F0ADFBDFF874921390FD
:102AC80099F80910DFF86C82312900F02482D4F8D3
:102AD80004A0D8F804B0874F59463868FDF778FF46
:102AE800854E00213860C4F27A415846FEF72CF929
:102AF8003168FDF76DFF51463060FDF769FF02F060
:102B0800E3FE0021CBF680710646FEF707FA00289F
:102B180040F0BC8030464FF07E51FEF71DFA08B1F8
:102B28004FF07E56754A386816603146FDF750FFFB
:102B3800734ED8F800303168386018460C93FDF7AA
:102B480047FFDFF8F4A100213060C4F27A410C9805
:102B5800FEF7FAF8DAF80010FDF73AFF2168CAF82C
:102B68000000FDF735FF824699F80B006438FDF741
:102B7800E3FF0021C4F22011FEF7E6F843F23331F7
:102B8800C4F26521FEF7E0F801465046FDF720FF44
:102B980002F09AFE0021CBF680718246FEF7BEF95C
:102BA80000286ED150464FF07E51FEF7D5F908B196
:102BB8004FF07E5A534A30685146C2F800A0FDF7DC
:102BC80007FF99F80A103060302900F0C081D8F862
:102BD8000830DFF868A11846DAF800100C93FDF702
:102BE800F7FEDFF85C910021CAF80000C4F27A41D0
:102BF8000C98FEF7A9F8D9F80010FDF7E9FEC9F816
:102C0800000016A802F006FB1490FFF769FDFFF715
:102C180023FDFFF7A9FD16A802F0FCFA159016A8E7
:102C280002F000FBDFF81C918446D9F80000411C33
:102C3800B1F5FA7FC9F800101EDB334B1A68002A79
:102C480040F08280314B1A68002A40F0AC8030484E
:102C58000368002B40F0DB802E4A1368002B40F0FD
:102C6800F4802D480168002940F01F812B4A136821
:102C780083B90020C9F8000002F0D2FD19B0BDE800
:102C8800F08F4FF0000ACBF6807A93E70026CBF658
:102C9800807647E7224C2349A268234894E808082D
:102CA8000F684E688D68D0F800A0D0F8048084685A
:102CB8000E920C9302F020FD0C9B0E990093069047
:102CC8000291CDF804B0CDF80CA0CDF81080059491
:102CD8001648394632462B46FFF726F9C9E700BFA2
:102CE800F0090020C0090020F4090020640F00202A
:102CF800780F0020EC090020B8090020A80F002058
:102D0800DC090020880F0020D8090020100A0020C4
:102D1800080A0020000A0020140A0020B409002034
:102D2800B4170020C0170020CC17002028DD0008A9
:102D3800E8000020E0090020040A00200C0A002016
:102D4800B0090020BC090020B3492D680B68206831
:102D58000E93CDF834C00C9502F0B6FD02466068BB
:102D68000F9202F0B1FD0546A06802F0ADFD0446E1
:102D78000F98FDF799FBCDE900012846FDF794FB74
:102D8800CDE902012046FDF78FFB0E9ACDE904013B
:102D9800A2480C99FFF7C8F8A14BDDF834C01A68AF
:102DA800002A3FF454AF1098CDF834C0FDF77CFBEF
:102DB8009C4C024620680E920C91FDF775FBCDE9FC
:102DC80000016068FDF770FBCDE90201A068FDF71E
:102DD8006BFBCDE90401944C2068FDF765FBCDE958
:102DE80006016068FDF760FBCDE90801A068FDF702
:102DF8005BFB0C9BCDE90A010E9A8C48FFF794F80F
:102E08008B48DDF834C00368002B3FF425AFCDF8BC
:102E180034C001F053F9FDF747FB0B461199024600
:102E2800019112981399DDF834C002900391149817
:102E380015990490CDF800C005917E48FFF774F805
:102E48007D4A1368002B3FF40CAFDFF800B2DBF8C3
:102E58000400FDF729FB0446DBF800000D46FDF7EA
:102E680023FBCDE90001DBF80800FDF71DFBCDE9E8
:102E78000201D8F80400FDF717FBCDE90401D8F8E2
:102E88000800FDF711FBCDE90601D8F80000FDF7B1
:102E98000BFB2246CDE908012B466848FFF744F8AA
:102EA8006748016800293FF4E1AE386802F00CFD7C
:102EB8000546306802F008FD0746DAF8000002F01F
:102EC80003FD00210646C4F27A412846FDF73CFF7F
:102ED800FDF7EAFA0D4600210446C4F27A41384665
:102EE800FDF732FFFDF7E0FACDE900010021C4F259
:102EF8007A413046FDF728FFFDF7D6FA22462B46E1
:102F0800CDE902014F48FFF70FF84F4A1368002B2D
:102F18003FF4AFAEBEE64D49404601F083FFD4F81A
:102F280004A04BF65201CBF65E715046D8F804B0B7
:102F3800FDF7F4FF00285FD058460021FEF70CF893
:102F4800002859D04FF0000BC8F804B0C3E5DFF8EB
:102F580004910021C4F2C621D9F80000FDF740FE13
:102F680082460D20FEF7BEFFA0F5FA60FDF7E4FDEE
:102F78000021C4F27A51FDF7E7FE01465046FDF7FD
:102F880027FD0021C4F2C821FDF7DEFEDFF8C8A046
:102F9800D8F808200346C9F80030DAF800101046BF
:102FA8000E920C93FDF714FDDFF8B0900021CAF8DB
:102FB8000000C4F27A410E98FDF7C6FED9F8001059
:102FC800FDF706FD2249C9F800008B7A0C9A302BD0
:102FD8007FF417AED4F8089010464946FDF7F6FC82
:102FE8004DF20A71C3F62341FDF7FAFD0146484642
:102FF800FDF7EEFCA06004E647F2B0215046C3F6A8
:10300800C871FDF7A9FF00289ED058460021FDF79A
:1030180085FF002898D095E7AC17002088DB0008CA
:10302800100A0020C0090020F4090020D0DB0008A5
:10303800080A00201CDC0008000A002080DC0008C8
:10304800140A0020E0DC0008B4090020CC090020A4
:10305800E8000020840F00200C0A0020B00900209E
:1030680038B51E4D00242046FDF766FD40F6DB719D
:10307800C4F2C901FDF7B4FD4FF06A51FDF7B0FD88
:1030880009F0DEF84FF47E41C4F2FF61FDF7A8FDB8
:1030980002F028FCFDF76AFF013468802046FDF73E
:1030A8004BFD40F6DB71C4F2C901FDF799FD4FF005
:1030B8006A51FDF795FD09F0C3F84FF47E41C4F25B
:1030C800FF61FDF78DFD02F00DFCFDF74FFF0134A8
:1030D800A8800435B4F5806FC5D138BDAA0F00208B
:1030E80010B5012002F0E8FB00F016FAD02000F03D
:1030F800B1FA00F079FF752000F0ACFA00F074FF27
:1031080000F030FA012002F0D7FB00F005FAD120D8
:1031180000F0A0FA00F068FF00F0F2FB044600F0AF
:1031280071FA00F01FFA682C40F09F80052002F029
:10313800C3FB00F0F1F9D02000F08CFA00F054FF46
:10314800192000F087FA00F04FFF002000F082FA03
:1031580000F04AFF00F006FA052002F0ADFB00F08F
:10316800DBF9D02000F076FA00F03EFF1A2000F0DC
:1031780071FA00F039FF022000F06CFA00F034FF19
:1031880000F0F0F9052002F097FB00F0C5F9D02017
:1031980000F060FA00F028FF1B2000F05BFA00F056
:1031A80023FF082000F056FA00F01EFF00F0DAF9BD
:1031B800052002F081FB00F0AFF9D02000F04AFAB8
:1031C80000F012FF372000F045FA00F00DFF002054
:1031D80000F040FA00F008FF00F0C4F9052002F002
:1031E8006BFB00F099F9D02000F034FA00F0FCFEF7
:1031F800382000F02FFA00F0F7FE002000F02AFA3D
:1032080000F0F2FE00F0AEF9052002F055FB00F0E8
:1032180083F9D02000F01EFA00F0E6FE6B2000F0E3
:1032280019FA00F0E1FE002000F014FA00F0DCFECC
:1032380000F098F9052002F03FFB00F06DF9D0206E
:1032480000F008FA00F0D0FE6A2000F003FA00F05F
:10325800CBFE092000F0FEF900F0C6FE00F082F96E
:10326800052002F029FB002010BD4FF0FF3010BDF3
:1032780070B5224C00230E462360054600F04CF939
:10328800D02000F0E7F900F0AFFE206800B170BD73
:10329800E8B200F0DFF900F0A7FE21680029F6D1B6
:1032A80000F060F900F038F9D12000F0D3F900F00F
:1032B8009BFE2268002AEAD100F022FB307000F061
:1032C80079F900F01DFB707000F074F900F018FB3C
:1032D800B07000F06FF900F013FBF07000F06AF9BD
:1032E80000F00EFB307100F065F900F009FB707119
:1032F80000F088F9BDE8704000F034B9B01700203C
:1033080010B582B0044669463B20FFF7B1FF114B68
:103318001868E8B99DF800109DF8012042EA0123D9
:1033280018B2FDF709FC9DF802109DF803202060F3
:1033380042EA012000B2FDF7FFFB9DF804109DF85A
:103348000530606043EA012210B2FDF7F5FBA0608A
:1033580002B010BDB017002010B582B0044669460F
:103368004320FFF785FF224B186800283ED19DF8BF
:1033780001109DF8002041EA02231E4A18B213806A
:10338800FDF7DAFB1C490968FDF720FB0021C4F2B0
:10339800FA51FDF7D9FC9DF803309DF80220206012
:1033A80043EA0221154A08B21180FDF7C5FB144B08
:1033B8001968FDF70BFB0021C4F2FA51FDF7C4FCB4
:1033C8009DF805209DF80410606042EA01230D492C
:1033D80018B20B80FDF7B0FB0B4A1168FDF7F6FA3F
:1033E8000021C4F2FA51FDF7AFFCA06002B010BD95
:1033F800B0170020200A0020240A0020180A002004
:10340800280A0020220A00201C0A00202DE9F04F7B
:10341800394EDFF8F0A0394DDFF8EC90384CDFF882
:10342800EC8087B0002703A8FFF796FFBAF90000E1
:10343800FDF782FB3168FDF7CBFA3060B9F900007F
:10344800FDF77AFB2968FDF7C3FA2860B8F9000090
:10345800FDF772FB2168FDF7BBFA2060022002F03D
:103468002BFA03A8FFF778FFBAF90000FDF764FB11
:103478003168FDF7ADFA3060B9F90000FDF75CFB83
:103488002968FDF7A5FA2860B8F90000FDF754FB94
:103498002168FDF79DFA0137FFB22060022002F093
:1034A8000BFA781CC7B2642FDFF84CB0134A144BE0
:1034B800B9D10021DBF80000C4F2C82101920093C1
:1034C800FDF742FCCBF8000001980021C4F2C821A6
:1034D8000068FDF739FC019A009B00211060C4F2D6
:1034E800C8211868FDF730FC00990860052002F033
:1034F800E3F907B0BDE8F08F240A0020280A00206D
:103508001C0A0020200A0020180A0020220A002095
:10351800012002F0C9B900BF10B54FF44064C4F2ED
:103528000104204601224FF4006103F005FC204607
:1035380001224FF4806103F0FFFBFFF7E9FF20460B
:1035480000224FF4006103F0F7FBFFF7E1FF20468C
:103558004FF48061002203F0EFFBBDE81040FFF755
:10356800D7BF00BF10B54FF44064C4F20104204631
:1035780000224FF4806103F0DFFBFFF7C9FF20460C
:1035880000224FF4006103F0D7FBFFF7C1FF20468C
:1035980001224FF4806103F0CFFBFFF7B9FF20460B
:1035A8004FF40061012203F0C7FBBDE81040FFF7AC
:1035B800AFBF00BF10B54FF44064C4F20104204609
:1035C80000224FF4806103F0B7FBFFF7A1FF20460C
:1035D80000224FF4006103F0AFFBFFF799FF20468C
:1035E80001224FF4806103F0A7FBFFF791FF20460B
:1035F8004FF48061002203F09FFBBDE81040FFF705
:1036080087BF00BF10B54FF44064C4F201042046E0
:1036180000224FF4806103F08FFBFFF779FF20460B
:1036280001224FF4006103F087FBFFF771FF20468A
:1036380001224FF4806103F07FFBFFF769FF20460A
:103648004FF48061002203F077FBBDE81040FFF7DC
:103658005FBF00BF10B504464FF44060C4F20100DC
:103668004FF48061002203F067FBFFF751FF4FF42E
:1036780040602206C4F201004FF4006100F120818D
:10368800002203F059FB6000C4B2FFF741FF4FF47A
:1036980040600122C4F201004FF4806103F04CFB4A
:1036A800FFF736FF4FF44060C4F201004FF4806129
:1036B800002203F041FBFFF72BFF4FF44060230685
:1036C800C4F201004FF4006100F1FE80002203F013
:1036D80033FB6100CCB2FFF71BFF4FF440600122BF
:1036E800C4F201004FF4806103F026FBFFF710FFDE
:1036F8004FF44060C4F201004FF48061002203F0EF
:103708001BFBFFF705FF4FF440602206C4F20100DF
:103718004FF4006100F1DC80002203F00DFB620031
:10372800D4B2FFF7F5FE4FF440600122C4F2010065
:103738004FF4806103F000FBFFF7EAFE4FF44060AE
:10374800C4F201004FF48061002203F0F5FAFFF79C
:10375800DFFE4FF440602306C4F201004FF400611D
:1037680000F1BA80002203F0E7FA6300DCB2FFF749
:10377800CFFE4FF440600122C4F201004FF4806193
:1037880003F0DAFAFFF7C4FE4FF44060C4F2010018
:103798004FF48061002203F0CFFAFFF7B9FE4FF42F
:1037A80040602206C4F201004FF4006100F19880E5
:1037B800002203F0C1FA6000C4B2FFF7A9FE4FF47B
:1037C80040600122C4F201004FF4806103F0B4FAB2
:1037D800FFF79EFE4FF44060C4F201004FF4806191
:1037E800002203F0A9FAFFF793FE4FF44060230686
:1037F800C4F201004FF4006176D4002203F09CFA71
:103808006100CCB2FFF784FE4FF440600122C4F29D
:1038180001004FF4806103F08FFAFFF779FE4FF44F
:103828004060C4F201004FF48061002203F084FA82
:10383800FFF76EFE4FF440602206C4F201004FF419
:10384800006155D4002203F077FAFFF761FE4FF4C8
:1038580040600122C4F201004FF4806103F06CFA69
:10386800FFF756FE4FF44060C4F201004FF4806148
:10387800002203F061FAFFF74BFE4FF44060630645
:10388800C4F201004FF4006136D4002203F054FA68
:10389800FFF73EFE4FF440600122C4F201004FF4EE
:1038A800806103F049FAFFF733FE4FF44060C4F239
:1038B80001004FF480610022BDE8104003F03CBADB
:1038C800012203F039FADEE6012203F035FA00E7B7
:1038D800012203F031FA22E7012203F02DFA44E72E
:1038E800012203F029FA66E7012203F025FA87E7A7
:1038F800012203F021FAA8E7012203F01DFAC7E725
:103908004FF440602DE9F0470122C4F201004FF462
:10391800006103F011FA4FF440600022C4F2010084
:103928004FF4806103F008FAFFF7F2FD4FF44060AE
:103938000122C4F201004FF4806103F0FDF94FF455
:1039480040604FF40061C4F2010003F0EBF9044653
:103958004FF440604FF40061C4F2010003F0E2F953
:1039680007464FF440604FF40061C4F2010003F0D1
:10397800D9F981464FF440604FF40061C4F2010068
:1039880003F0D0F980464FF440604FF40061C4F270
:10399800010003F0C7F906464FF440604FF4006198
:1039A800C4F2010003F0BEF905464FF440604FF43D
:1039B8000061C4F2010003F0B5F909EB0803D91955
:1039C8008A1957193E184FF440604FF40061C4F249
:1039D800010003F0A7F9341904F0FF052B184FF480
:1039E8004060DFB20022C4F201004FF48061032F6F
:1039F8008CBF0224144603F09FF9FFF789FD4FF4AA
:103A080040600122C4F201004FF4806103F094F990
:103A18004FF440604FF40061C4F2010003F082F9F2
:103A280005464FF440604FF40061C4F2010003F012
:103A380079F981464FF440604FF40061C4F2010007
:103A480003F070F982464FF440604FF40061C4F20D
:103A5800010003F067F980464FF440604FF40061BD
:103A6800C4F2010003F05EF907464FF440604FF4DA
:103A78000061C4F2010003F055F906464FF44060B6
:103A88004FF40061C4F2010003F04CF90AEB09019C
:103A980001EB0802D3199F193E184FF440604FF408
:103AA8000061C4F2010003F03DF9751905F0FF0744
:103AB8003818C1B2032988BF44F001044FF44060AC
:103AC80088BFE4B2C4F2010000224FF4806103F021
:103AD80033F9FFF71DFD4FF440600122C4F20100E5
:103AE8004FF4806103F028F94FF440604FF400610F
:103AF800C4F2010003F016F905464FF440604FF494
:103B08000061C4F2010003F00DF981464FF44060F2
:103B18004FF40061C4F2010003F004F982464FF447
:103B280040604FF40061C4F2010003F0FBF88046E6
:103B38004FF440604FF40061C4F2010003F0F2F862
:103B480007464FF440604FF40061C4F2010003F0EF
:103B5800E9F806464FF440604FF40061C4F20100F2
:103B680003F0E0F80AEB090202EB0803D9198F19F0
:103B78003E184FF440604FF40061C4F2010003F0B6
:103B8800D1F8751905F0FF073818C2B26400032A86
:103B980084BF44F00104E4B24FF4406063000022A3
:103BA800C4F201004FF48061DCB203F0C5F8FFF7FE
:103BB800AFFC4FF440600122C4F201004FF4806171
:103BC80003F0BAF84FF440604FF40061C4F201000A
:103BD80003F0A8F805464FF440604FF40061C4F2C2
:103BE800010003F09FF881464FF440604FF40061F4
:103BF800C4F2010003F096F882464FF440604FF497
:103C08000061C4F2010003F08DF880464FF4406073
:103C18004FF40061C4F2010003F084F807464FF442
:103C280040604FF40061C4F2010003F07BF80646DF
:103C38004FF440604FF40061C4F2010003F072F8E1
:103C48000AEB090101EB0802D3199F193E184FF43A
:103C580040604FF40061C4F2010003F063F8751985
:103C680005F0FF073818C1B203294FF4406088BF38
:103C780044F00104C4F2010000224FF4806103F013
:103C88005BF8FFF745FC4FF440600122C4F20100E5
:103C98004FF4806103F050F84FF440604FF4006136
:103CA800C4F2010003F03EF805464FF440604FF4BB
:103CB8000061C4F2010003F035F881464FF440601A
:103CC8004FF40061C4F2010003F02CF882464FF46F
:103CD80040604FF40061C4F2010003F023F880460D
:103CE8004FF440604FF40061C4F2010003F01AF889
:103CF80007464FF440604FF40061C4F2010003F03E
:103D080011F806464FF440604FF40061C4F2010018
:103D180003F008F80AEB090202EB0803D9198F1916
:103D28003E184FF440604FF40061C4F2010002F005
:103D3800F9FF751905F0FF073818C2B26400E4B23C
:103D4800032A4FF4406088BF44F00104C4F2010024
:103D580000224FF4806102F0EFFFFFF7D9FB4FF428
:103D680040600122C4F201004FF4806102F0E4FFD8
:103D78004FF440604FF40061C4F2010002F0D2FF3A
:103D880005464FF440604FF40061C4F2010002F0B0
:103D9800C9FF81464FF440604FF40061C4F201004E
:103DA80002F0C0FF82464FF440604FF40061C4F255
:103DB800010002F0B7FF80464FF440604FF4006105
:103DC800C4F2010002F0AEFF07464FF440604FF422
:103DD8000061C4F2010002F0A5FF06464FF44060FE
:103DE8004FF40061C4F2010002F09CFF0AEB0903E2
:103DF80003EB0801CA1997193E184FF440604FF4B5
:103E08000061C4F2010002F08DFF751905F0FF078B
:103E18003818C3B26400E4B2032B4FF4406088BF83
:103E280044F00104C4F2010000224FF4806102F062
:103E380083FFFFF76DFB4FF440600122C4F20100DD
:103E48004FF4806102F078FF4FF440604FF4006156
:103E5800C4F2010002F066FF05464FF440604FF4DB
:103E68000061C4F2010002F05DFF81464FF440603A
:103E78004FF40061C4F2010002F054FF82464FF48F
:103E880040604FF40061C4F2010002F04BFF80462D
:103E98004FF440604FF40061C4F2010002F042FFA9
:103EA80007464FF440604FF40061C4F2010002F08D
:103EB80039FF06464FF440604FF40061C4F2010038
:103EC80002F030FF0AEB090101EB0802D3199F1930
:103ED8003E184FF440604FF40061C4F2010002F054
:103EE80021FF751905F0FF073818C1B26400E4B264
:103EF80003294FF4406088BF44F00104C4F2010074
:103F080000224FF4806102F017FFFFF701FB4FF426
:103F180040600122C4F201004FF4806102F00CFFFE
:103F28004FF440604FF40061C4F2010002F0FAFE61
:103F380005464FF440604FF40061C4F2010002F0FE
:103F4800F1FE81464FF440604FF40061C4F2010075
:103F580002F0E8FE82464FF440604FF40061C4F27C
:103F6800010002F0DFFE80464FF440604FF400612C
:103F7800C4F2010002F0D6FE07464FF440604FF449
:103F88000061C4F2010002F0CDFE06464FF4406025
:103F98004FF40061C4F2010002F0C4FE0AEB09020A
:103FA80002EB0803D9198A1913184FF440604FF42B
:103FB8000061C4F201005D1902F0B4FE05F0FF05CE
:103FC8004019C1B26400E4B203294FF4406088BFCD
:103FD80044F00104C4F201004FF48061002202F0B1
:103FE800ABFE2046BDE8F0874FF4406008B50022DC
:103FF800C4F201004FF4806102F09EFEFFF788FAD8
:104008004FF440600122C4F201004FF4006102F055
:1040180093FEFFF77DFA4FF440600122C4F20100DD
:104028004FF4806102F088FEFFF772FA4FF44060A7
:10403800C4F201004FF4006102F074FE01280AD0B6
:104048004FF44060C4F201004FF480610022BDE8E3
:10405800084002F071BE044B186001F0F5FB0348FC
:104068000268511C0160EBE7B0170020AC17002074
:1040780010B5084C23685A1CB3F57A7F226008DD16
:1040880001F0D6FB00F0C8FC5720FDF7B9FF00206F
:10409800206010BD300A002008B5012142F67D20BD
:1040A80002F01EFF0F200121C0F2080002F026FFD7
:1040B80001200146BDE8084002F004BF40F62C2369
:1040C800C2F200031868704710B501F0E3F9FFF772
:1040D800E3FF00F081F962B6FDF79CFF4648FDF763
:1040E80023FF4648FDF720FF00F0C4FC142401F02C
:1040F8009FFB01F0B9FB642001F0DEFB013C01F0FD
:1041080097FB01F0B1FB642001F0D6FB013CEED136
:10411800FDF756FC00285FD03948FDF705FF40F64B
:10412800B83001F0C9FBFDF74BFC01285FD03548DA
:10413800FDF7FAFE3448FDF7F7FE344A4FF4805392
:10414800C4F2020318684DF683611368C4F21B3188
:1041580010F4003FA1FB030114BF2D482D48890C22
:10416800FDF7E2FE2C48FDF7DFFEFDF765FE2B4864
:10417800FDF7DAFE04E02A48FDF7D6FE01F080FBE1
:10418800FEF7AEFF0028F6D12648FDF7CDFEFEF774
:104198008DF801F05DF901462348FDF7C5FEFFF7EC
:1041A80035F92248FDF7C0FE00F0F6FC2048FDF77F
:1041B800BBFEFEF71DFBFEF753FFFDF701FF0028CE
:1041C80002DD1C48FDF7B0FE1B48FDF7ADFE1B489D
:1041D800BDE8104001F058B91948FDF7A5FE40F6B2
:1041E800B83001F069FB1748FDF79EFE9FE71648B7
:1041F800FDF79AFE9BE700BF80DD0008A4DD0008FC
:10420800B8DD00086CDE0008C0DE000814010020DC
:10421800FCDE000834DF000870DF000880DF0008DB
:1042280094DF0008B8DF0008CCDF0008F0DF0008E2
:1042380000E0000814E0000850E000087940000899
:1042480008DE000838DE0008D4DD00082DE9F84F44
:10425800FFF73AFF01F0FCF8044601F0F9F8844250
:10426800FBD001F0C9F8054672B64FF0000840F2DD
:10427800F31601F0C1F8401BB04208F10108F8D963
:1042880062B601F0B9F8DFF890B0DFF890A0054603
:104298004FEA4808002740F2CF76002401F0ACF836
:1042A8008146401B0134B042F8D9FCF741FC054671
:1042B8002046FCF741FC0021C4F2C821FCF790FC21
:1042C8000021C4F27A41FCF78BFC2946FCF73CFD3F
:1042D80004464046FCF730FC01462046FCF734FD16
:1042E800DAF80020CBF800008AB94FF41051C4F670
:1042F80074112846FCF728FDFEF7B6FB40F630237C
:10430800C2F200031F604D46FDF798FEC5E700F0B6
:1043180083FB01F0B5FAF1E72C0A00205C0F0020BE
:10432800012830B409D002281AD0174B09221A6084
:104338004FF0FF32104630BC7047002AFADD4FF4C8
:1043480098448818C4F20004238803F040039BB201
:10435800002BF9D011F8013B8142A380F4D1E9E7A1
:10436800002AE7DD4FF498448D18C4F20004208831
:1043780000F0400398B20028F9D011F8013BA94297
:10438800A380F4D1D6E700BF281A00200D4A08B54B
:1043980013689BB1EFF308811818884202D810609F
:1043A800184608BD192202200749FFF7B9FF074B35
:1043B8000C221A604FF0FF33184608BD044B1360F7
:1043C800E8E700BF340A002068E00008281A002047
:1043D8002C1A0020704700BF2DE9F04F4FF40067FA
:1043E80083B0C4F201074FF4406618250224C4F2D2
:1043F80001064FF4E063384601A9ADF804308DF8A2
:1044080007508DF8064002F05BFB4FF460423046DF
:1044180001A9ADF804208DF807508DF8064002F088
:104428004FFB4FF480504FF4E07B01A9C4F2010028
:10443800ADF804B08DF807508DF8064002F040FB47
:104448008023384601A94FF00308ADF804308DF8F1
:1044580007508DF8064002F033FB304601A9ADF84D
:1044680004808DF807508DF8064002F029FB0722DA
:10447800384601A9ADF804208DF807508DF806409C
:1044880002F01EFB304601A94FF0100AADF804B047
:104498008DF807508DF8064002F012FB4FF4805358
:1044A800304601A9ADF804308DF807A08DF80680D4
:1044B80002F006FB0822384601A9ADF804208DF861
:1044C80007A08DF8068002F0FBFA4FF4406314222F
:1044D800304601A9C146ADF804308DF807208DF8A3
:1044E800068002F0EDFA03B0BDE8F08F38B5044657
:1044F8000D4602F08BFD2046294602F0E3FD2046DA
:10450800294602F029FE2046082102F0A1FE204695
:10451800082102F0A5FE20460821BDE8384002F037
:10452800A9BE00BF70B58CB00024032201A94FF4C6
:104538007A760546ADF80420ADF80860ADF8064077
:10454800ADF80A408DF80C4002F0F4FC40F200107F
:10455800C2F2000003684FF40062ADF810204FF477
:1045680080624FF48076284604A9ADF81220ADF891
:1045780016304FF480424FF40053ADF81A30ADF8BE
:104588001C20ADF81460ADF8184002F02FFE60232F
:10459800ADF8203001220423284608A9ADF82220CE
:1045A800ADF82430ADF82640ADF82840ADF82A40E3
:1045B800ADF82C60ADF82E40FFF798FF0CB070BD39
:1045C80070B5032388B006460D46002401A9ADF84E
:1045D80004304FF47A724FF40073ADF80820ADF848
:1045E8000A30ADF8064002F0A5FC602201233046EF
:1045F80004A9ADF81020ADF81230ADF81640ADF8AA
:104608001850FFF773FF08B070BD00BF00B583B046
:1046180000238DF80400012101A88DF805308DF8DC
:1046280006308DF8071002F0E5F803B000BD00BFB2
:10463800124A30B413680468C3F5FA714900E31AE2
:104648008B42A8BF0B46036014684568A342B8BFF5
:104658000023036013688468EA1AE41A8A42A8BF30
:104668000A468C42B8BF21469A42B8BF00228B4204
:10467800C8BF00214260816030BC7047F80000204C
:10468800F8B5364B05461C680E46204600211746ED
:10469800FCF758FC002858D040F6DB71C4F2C90179
:1046A8002046FCF751FB4FF08941FCF799FA01F0DD
:1046B80019F9FCF75BFC40F2FF33C8F20003034032
:1046C800002B44DB002BB8BF03F5806303F25516BB
:1046D80003F2AB242248B105A2058E0D940D30F9E2
:1046E800131030F9163030F9140007EB870707FB71
:1046F80000F207FB01F107FB03F301F57F510324E7
:1047080003F57F5302F57F523F31C8F201043F336E
:104718003F3284FB010684FB037084FB0274C018DB
:10472800CF17DB17A4187618D217C7EBA631C3EB3F
:10473800A037C2EBA43001F5FA7107F5FA7300F55A
:10474800FA7285E80A00AA60F8BD3446A4E7581E44
:104758006FEA80516FEA9152531CB3E7F4000020CE
:10476800AC0F002000B5034685B00A4601A81946DB
:10477800FFF786FF72B640F63820019A0299039B2C
:10478800C2F2000002604160836062B672B64FF404
:104798005050C4F20100028A22F001010B041A0CE5
:1047A80001210282818162B605B000BD00B50346D1
:1047B80085B00A4601A81946FFF762FF72B640F6AF
:1047C8004420019A0299039BC2F2000002604160F2
:1047D800836062B672B64FF43050C4F20100028AA8
:1047E80022F001010B041A0C01210282818162B6B8
:1047F80005B000BD00B585B00A46014601A8FFF71F
:104808003FFF01A8FFF714FF72B640F65023019A44
:1048180002980399C2F200031A605860996062B660
:1048280040F2FC03C2F2000300221A6072B64FF491
:104838004060C4F20000018A21F001031A04110C3F
:1048480001230182838162B605B000BD4FF4406345
:10485800C4F200031A8AF0B4D2071AD5188A20F0D5
:1048680001010C04220C1A8272B6294A294994685B
:104878009B8C886801349BB29460274A8342C8BFE6
:104888008B6091688B42B8BF9360B3F5487F02D3C1
:1048980062B6F0BC70472148036833BB204E214DF7
:1048A80037682C88A88829897A0093B21F191E189E
:1048B8005D184FF400624FF44063C4F20002C4F282
:1048C8000003BFB2B6B2ADB29786168795879C86AD
:1048D800188799874FF44062C4F20002938923F045
:1048E800010001040B0C9381D2E74FF400624FF4EE
:1048F8004063C4F2000240F2E930C4F20003002130
:10490800908610879087998619879987E2E700BF74
:10491800CC170020B4170020C0170020FC0000208E
:10492800F8000020500A00204FF43052C4F201026F
:10493800138A10B423F0010001040C0C148272B61F
:1049480013491448938C4C6842689BB201349342D3
:10495800C8BF436010484C6041688B42B8BF436091
:10496800B3F5487F10D20D4A4FF430531088918820
:104978001289C4F20103988619879A87988920F0CA
:1049880001010A04100C988162B610BC704700BF80
:10499800CC170020B4170020C0170020440A0020BC
:1049A8004FF45052C4F20102138A10B423F00100EC
:1049B80001040C0C148272B613491448938C0C68C9
:1049C80002689BB201349342C8BF036010480C6070
:1049D80001688B42B8BF0360B3F5487F10D20D4A17
:1049E8004FF45053108891881289C4F201039886B5
:1049F80019879A87988920F001010A04100C988178
:104A080062B610BC704700BFCC170020B417002056
:104A1800C0170020380A002010B54120FDF7F0FA31
:104A280072B640F63822C2F20002002313605360C7
:104A3800936062B672B640F64420C2F2000003608A
:104A48004360836062B640F2FC024FF440644FF466
:104A580030504FF450510123C2F20002C4F2000456
:104A6800C4F20100C4F201011360A38183818B8128
:104A780010BD00BF2DE9F0414FF43056C4F20106D5
:104A880041F2CC7141F2B47241F2C0734FF4505507
:104A98000024C2F20002C2F20003C2F2000140F296
:104AA800E9373046C4F201054FF440689460546019
:104AB80014609F605F601F608C604C600C60C4F283
:104AC8000008FFF72FFD4FF400672846FFF72AFD7F
:104AD800C4F2000740462146FFF772FD022138461E
:104AE800FFF76EFD40F2F800C2F2000003883220A2
:104AF80003F5A87103F29F2289B292B2BB84B184F4
:104B0800AA84FFF783FD1920FFF780FD2C20FFF70B
:104B18007DFD72B64FF4004021460246034601244B
:104B2800C4F22522C4F22623C4F20120C4F20121D2
:104B380004600C604046146021461C6002F078FB5B
:104B48003846214602F074FB3046214602F070FBDD
:104B58002846214602F06CFB62B6BDE8F08100BF32
:104B680010B54FF4806484B0C4F2000447220023D7
:104B780001A92046ADF804204FF6FF72ADF80630C3
:104B8800ADF80820ADF80A3002F0D4F9204601212A
:104B980002F040FB04B010BD30B54FF4007085B092
:104BA8000121C0F2300002F0D1F84FF44060182320
:104BB8002822032501A9C4F20100ADF804308DF8BC
:104BC800072004248DF8065001F07AFF4FF4805036
:104BD8000DEB0401C4F20100ADF8044001F070FFD0
:104BE8000120294602F0EEF80120214602F0EAF8F9
:104BF8000220014602F0E6F81C24002110230122BD
:104C080002A88DF80C108DF80D308DF80E20029446
:104C180001F00AFF204601F045FF204601F04AFF57
:104C28004FF46140CEF200004FF400714FF48063FE
:104C38004FF48072016003600260FFF791FF05B0D6
:104C480030BD00BF10B54FF48064C4F2010463693D
:104C5800190700D410BD3320FDF7D2F961694FF46C
:104C6800406041F0080262610821C4F2010002F0CC
:104C780059F8012827D0184C4FF44060C4F20100BD
:104C8800082102F04FF880B114490B8822886FF48C
:104C98007A71981A83B25A1890B240F2E631884273
:104CA8000CD90F4B00221A6010BD4FF48062C4F279
:104CB8000002908C094983B20B80E7E70849A3F505
:104CC8007A70086010BD4FF48060C4F20000838CD5
:104CD800014C2380D0E700BF720A0020700A002030
:104CE800640A002010B54FF48064C4F201046369BB
:104CF8005B0700D410BD3220FDF782F961694FF4DB
:104D0800805041F0040262610421C4F2010002F003
:104D180009F8012827D0184C4FF48050C4F201003C
:104D2800042101F0FFFF80B114490B8822886FF439
:104D38007A71981A83B25A1890B240F2E6318842D2
:104D48000CD90F4B00221A6010BD4FF48062C4F2D8
:104D58000002908C094983B20B80E7E70849A3F564
:104D68007A70086010BD4FF48060C4F20000838C34
:104D7800014C2380D0E700BF5C0A00206E0A0020A7
:104D8800600A002010B54FF48064C4F2010463691E
:104D9800D90600D410BD3420FDF732F961694FF40B
:104DA800406041F0100262611021C4F2010001F07C
:104DB800B9FF012827D0184C4FF44060C4F2010015
:104DC800102101F0AFFF80B114490B8822886FF4DD
:104DD8007A71981A83B25A1890B240F2E631884232
:104DE8000CD90F4B00221A6010BD4FF48062C4F238
:104DF8000002908C094983B20B80E7E70849A3F5C4
:104E08007A70086010BD4FF48060C4F20000838C93
:104E1800014C2380D0E700BF6C0A00205E0A002006
:104E2800680A0020F8B5584B05461E680C46002E47
:104E38006BD00021C4F247316068FBF7D1FE07460A
:104E48003046FBF779FE0021C4F2FA31FBF7BEFDCC
:104E580001463846FBF7BCFD0021C4F24831FBF798
:104E680073FF00216060C4F2A0110646FCF774F8D5
:104E7800002842D041F26F213046C3F60331FBF7D8
:104E8800AFFE424968600E68002E44D1404B0022B4
:104E98001E682A60002E6AD00021C4F24731A0683B
:104EA800FBF79EFE07463046FBF746FE0021C4F29C
:104EB800FA31FBF78BFD01463846FBF789FD0021E7
:104EC800C4F24831FBF740FF0021A060C4F2A011F2
:104ED8000646FCF741F838B900213046CCF2A0115B
:104EE800FCF71CF8002842D041F26F213046C3F687
:104EF8000331FBF775FEA860F8BD00213046CCF2FF
:104F0800A011FCF70BF80028B4D1204900200E6846
:104F18006860002EBAD00021C4F247312068FBF740
:104F28005FFE07463046FBF707FE0021C4F2FA3160
:104F3800FBF74CFD01463846FBF74AFD0021C4F259
:104F48004831FBF701FF00212060C4F2A01106469A
:104F5800FCF702F870B141F26F213046C3F6033115
:104F6800FBF73EFE0A4B28601E68002E94D10020F5
:104F7800A860F8BD00213046CCF2A011FBF7CEFFA7
:104F8800002883D0E7E700BF640A0020600A0020F9
:104F9800680A00204FF46D430422CEF20003C0F2E9
:104FA800FA52DA6000BFFDE74FF48052C4F2020201
:104FB800D16908B541F0C0504FF4E043D061C4F264
:104FC800000319684FF4D84241F480701860C4F2A5
:104FD800000246F6B43144F6FC20A2F8B810A2F854
:104FE800BC001A6822F480711960FFF7D3FF00BF74
:104FF80000230360C0F80C1243608360704700BF51
:105008004FF40070704700BF4268036840F2FF1019
:10501800D11A01F50072C8F200001040002800DB28
:10502800704701386FEAC0536FEAD351481C704784
:1050380038B542B340F2FF1501E0AB4213D14468E2
:10504800026840F2FF13A21A02F50072C8F20003C8
:105058001340002BF1DA013B6FEAC3526FEAD253D7
:105068000133AB42EBD043684268C318197340F26E
:10507800FF118A421BD04268531C4360D0F80C02CF
:1050880000B1804738BD4468026840F2FF13A21A95
:1050980002F50072C8F200031340002B0ADB40F24D
:1050A800FF129342DFD181684B1C836038BD002119
:1050B8004160E3E7013B6FEAC3526FEAD253013321
:1050C80040F2FF129342CED1EDE700BFF8B5044697
:1050D8000E461546002B34D040F2FF1702E0E818C0
:1050E800B84214DD6068216840F2FF13421A02F5E5
:1050F8000070C8F200030340002BF0DA013B6FEAAE
:10510800C3516FEAD152531CE818B842EADC676809
:105118006268C7F50077BD42314604EB020028DD1E
:105128003A46ED1B0C3002F09FF904F10C00F1191E
:105138002A4602F099F96560D4F80C1201B1884743
:10514800F8BD4168026840F2FF13881A00F5007143
:10515800C8F200030B40002B18DBE918B1F5007FFB
:10516800D5DBA268D4F80C125519A5600029E6D140
:10517800E6E70C302A4602F077F961684B19B3F577
:10518800007F0ED0606845196560D5E7013B6FEA7E
:10519800C3526FEAD250431CE918B1F5007FB6DB61
:1051A800DFE700226260C7E7016842680346914270
:1051B8000ED0006819681A18107B40F2FF1291424D
:1051C80003D019684A1C1A6070470021196070479B
:1051D8004FF0FF30704700BF704700BFFEE700BFC9
:1051E800FEE700BFFEE700BFFEE700BF704700BF55
:1051F800704700BF704700BFFCF7FEBB4FF480202C
:1052080001F058BC10B5044600F0F6F82060606064
:1052180010BD00BF10B5044600F0EEF8636860608A
:10522800C01A10BD05C8101A704700BF4FF480534C
:10523800C4F202035A6802F00C00082811D04FF497
:105248009052C0F27A024FF48053C4F202035868B5
:105258001049C0F30313C85C0F4B22FA00F21A601E
:10526800704758685968C0F383420232C90309D5A8
:105278005B689B0306D44FF49050C0F27A0000FBA1
:1052880002F2E0E74FF41061C0F23D0101FB02F2C7
:10529800D9E700BF04010020140100204FF4805317
:1052A800C4F20203196800B541F00100186059689A
:1052B8000022CFF6FF020A405A601A68002122F045
:1052C800847020F480321A60186883B020F4802239
:1052D8001A6058681A4620F4FE0058604FF41F0000
:1052E800986000910191196841F48030186003E0DA
:1052F8000098B0F5A06F09D0136803F4003101914C
:105308000098431C009301990029F1D04FF4805272
:10531800C4F20202136813F400314CD0012001904A
:105328004FF40052C4F20202019B1168012B41F0B4
:105338001000106011684FF4805321F003001060D2
:105348001068C4F2020340F0020010605A6819465F
:105358005A60586858605A6842F4806058605A68C1
:1053680022F47C1058605A6827D042F460105860C4
:105378001A6842F0807018600A684FF480539001F0
:10538800C4F20203F8D55968184621F003025A609E
:10539800596841F002025A60436803F00C01082979
:1053A800FAD1FFF743FF4FF46D40124ACEF20000E6
:1053B800826003B000BD0191B2E742F4E810586082
:1053C8001A6842F0807018600A684FF4805392019E
:1053D800C4F20203F8D55968184621F003025A604E
:1053E800596841F002025A60436803F00C01082929
:1053F800FAD1D8E70000000830B413494EF210047F
:10540800CEF200044EF210020B68CEF20002A5683C
:1054180000BF00BF08688342F4D11168C90348BFC0
:1054280095684EF21002CEF200025068074A48BF53
:105438000133411C10684D1BB5FBF0F54FF47A7130
:1054480001FB035030BC7047740A0020180100208B
:1054580040F67423C2F200031868704708B572B6A4
:10546800074B4EF21002CEF2000212681868411C77
:10547800196062B6034B1A6802B1904708BD00BFB5
:10548800740A0020780A002040F67823C2F200034C
:1054980018607047134B44F6D3511A68C1F2620181
:1054A8004DF68363A1FB0201C4F21B33A3FB020286
:1054B8008809930C411E0C4AB1F1807F13600FD20A
:1054C8004EF21000CEF200004FF46D434160CEF270
:1054D8000003F02183F82310002207238260036071
:1054E800704700BF14010020180100204FF49840B5
:1054F800C4F2000040F22771012201F04FBF00BF43
:1055080000B54FF4A06083B001F06AF9012334229A
:10551800002101A88DF804208DF805308DF80610BB
:105528008DF8073001F066F903B000BD40F68C40F5
:10553800C2F20000FFF738BE08B50348FFF764FD64
:105548000028FAD108BD00BF7C0A0020014640F6B9
:105558007C20C2F200000122FFF76ABD10B50446A4
:10556800007828B1FFF7F2FF14F8010F0028F9D1ED
:1055780010BD00BF4FF49843C4F2000370B52A4A27
:105588001D881168ADB205F08000013180B211604C
:1055980090B1264C21686268914231D02668204635
:1055A800A1190A7B9A802668FFF72AFD01368642F0
:1055B80033D02368581C206005F02005ADB205B92A
:1055C80070BD1B4C4FF49842C4F2000220469688E6
:1055D800FFF71AFD05462046FFF712FD6B1C8342B4
:1055E800B6B216D061682046621865681673FFF770
:1055F80007FD0135854213D06068431C636070BDA8
:10560800184640F22771002201F0C8FE00BF00BF13
:10561800D2E7A268501CA06070BD00212160CBE7D2
:105628000021616070BD00BFD81700207C0A0020EF
:105638008C0C002040F67C2045F2F54108B5C2F2FA
:105648000000C0F60001FFF7D3FC40F68C40C2F220
:1056580000000021BDE80840FFF7CABC30B54FF490
:10566800805589B0C4F201051822284601A94FF4D3
:1056780080630324ADF804308DF807208DF80640C8
:1056880001F01EFA4FF4984428224FF4006301A950
:105698002846C4F20004ADF804308DF8072001F064
:1056A8000FFA02A801F066FE204602A901F050FE9A
:1056B8004FF41652002304A9204604920C22ADF898
:1056C8001430ADF81630ADF81830ADF81C30ADF820
:1056D8001A2001F0D7FD0122204640F2255101F0A1
:1056E8005DFE2046012101F04BFEFFF7A3FFFFF707
:1056F80007FF09B030BD00BF41F2DC73C2F20003FE
:105708009868704738B50F4C256861682368C91ACE
:1057180000290FD00FDB6019C9B20C30FCF7BEF8B6
:1057280025682D180748FFF76BFC95FBF0F303FB82
:105738001050206038BD2046FFF762FC2268811AAD
:10574800E9E700BFDC17002008B5064B186800B170
:1057580008BDFFF77DFE04490860BDE80840FFF773
:10576800D1BF00BFE40E00209C0E002008B540F613
:10577800A06240F6E463C2F20002C2F20003012113
:10578800002011601860FFF763FE40F69C62C2F2C9
:1057980000021060BDE80840FFF7B4BF08B5FBF78A
:1057A800E5FFFCF71BF8FCF735F800F065FD41F262
:1057B800DC7045F25171C2F20000C0F60001BDE88C
:1057C8000840FFF715BC00BF38B505460C46FCF786
:1057D800D5F828B10348294622460023FFF776FC6E
:1057E800204638BDDC17002040F63073C2F20003B3
:1057F80018687047054B10B51C688C42A8BF0C464A
:105808002146FCF76FF8204610BD00BF300F00207E
:105818004FF44060C4F201004FF4805101F088BA9F
:105828004FF44060C4F201004FF4805101F082BA95
:1058380008B572B64FF44060C4F201004FF48051CD
:1058480001F080FA62B608BD4FF40060C4F20100AE
:10585800082101F06DBA00BF4FF40060C4F20100E6
:10586800082101F067BA00BF08B572B64FF40060AE
:10587800C4F20100082101F065FA62B608BD00BF54
:1058880010B542204FF41F44FCF7BAFBC0F22404C1
:10589800FFF7BEFF20460138FDD8FFF7C1FF2046BD
:1058A8000138FDD810BD00BF00EB4000830018464A
:1058B8000138FDD8704700BF42F6E06303FB00F1F2
:1058C80008460138FDD87047002108B5C4F23431C4
:1058D800FBF786F940F6DB71C4F24901FBF734FAAD
:1058E80008BD00BF10B500210446FBF72BFB28B10B
:1058F80020464FF07C51FBF76BF810BD20464FF067
:105908007C51FBF763F810BD08B538B1064B186831
:1059180001688847054A10680A3008BD034B012210
:1059280019680A8208BD00BF181A00201C1A002036
:1059380008B538B1064B186881688847054A106869
:105948000C3008BD034B012219680A8208BD00BF4C
:10595800181A00201C1A002008B500283BD0234B39
:10596800234800211A680180137813F07F0312D1AD
:10597800537A03F02002D1B259BB027803F04003F6
:10598800D9B211B342F0010303701A4801680A69D9
:105998009047174808BD012B16D0022B13D1517917
:1059A80001F00F02930003F1804202F5B84311F0B1
:1059B800800F196814D101F44052B2F5805FE4D128
:1059C80001210170E1E7084608BD22F001020270DA
:1059D800DBE70222D2E7054B022219680A8208BDDA
:1059E80001F03003102BD0D1EAE700BF1C1A0020C9
:1059F800EC190020181A00202DE9F041274E3468D0
:105A0800238A277A23B9042F2AD0A58A042703E0FA
:105A1800A58AAB42FAD902279D4228BF1D46A16933
:105A2800284688478046002000F05AFE2A4601464C
:105A3800404600F01DFD2946002000F071FE208A36
:105A4800628A431B2382AD181548164B65823021A4
:105A58004FF44052346801801A802772BDE8F08103
:105A6800114A1178012906D00D4810270780072709
:105A78002772BDE8F08145F65041C4F2000108687C
:105A880043F2020180B2C2F2000141184800044901
:105A98000360302008801370DFE700BF1C1A002065
:105AA800241A0020221A0020A40E002010B50B4B47
:105AB8000B4A18685178C378994201D2022010BD68
:105AC8008278002AFAD18488002CF7D1837205489D
