:020000040800F2
:1000000000C00020A91600081D560008215600084F
:1000100025560008295600082D560008000000004B
:100020000000000000000000000000003156000841
:10003000355600080000000039560008A158000895
:10004000F9160008F9160008F9160008F916000854
:10005000F9160008F9160008F9160008F916000844
:100060001D5100087D500008BD510008F916000818
:10007000F9160008F9160008F9160008F916000824
:10008000F9160008F9160008F9160008F916000814
:100090003D560008F9160008F9160008F916000880
:1000A000F9160008614D0008F9160008F916000855
:1000B000F9160008F9160008F9160008F9160008E4
:1000C000F9160008F9160008F9160008F9160008D4
:1000D000F9160008F9160008F9160008F9160008C4
:1000E000F9160008F916000841560008F91600082C
:1000F000D94D0008F9160008F9160008F91600088D
:10010000F9160008F9160008854C0008F9160008D1
:10011000B9590008F9160008F9160008F916000880
:10012000F9160008F9160008F9160008F916000873
:1001300000000000000000000000000000000000BF
:1001400000000000000000000000000000000000AF
:10015000000000000000000000000000000000009F
:10016000000000000000000000000000000000008F
:10017000000000000000000000000000000000007F
:10018000000000000000000000000000000000006F
:10019000000000000000000000000000000000005F
:1001A000000000000000000000000000000000004F
:1001B000000000000000000000000000000000003F
:1001C000000000000000000000000000000000002F
:1001D000000000000000000000000000000000001F
:0401E0005FF8E0F1F3
:1001E80081F0004102E000BF83F0004330B54FEAE0
:1001F80041044FEA430594EA050F08BF90EA020F4D
:100208001FBF54EA000C55EA020C7FEA645C7FEADF
:10021800655C00F0E2804FEA5454D4EB5555B8BF02
:100228006D420CDD2C4480EA020281EA030382EA73
:10023800000083EA010180EA020281EA0303362D05
:1002480088BF30BD11F0004F4FEA01314FF4801CD8
:100258004CEA113102D0404261EB410113F0004FEA
:100268004FEA03334CEA133302D0524263EB4303A1
:1002780094EA050F00F0A780A4F10104D5F1200E3F
:100288000DDB02FA0EFC22FA05F2801841F100019A
:1002980003FA0EF2801843FA05F359410EE0A5F16E
:1002A80020050EF1200E012A03FA0EFC28BF4CF09F
:1002B800020C43FA05F3C01851EBE37101F0004555
:1002C80007D54FF0000EDCF1000C7EEB00006EEB62
:1002D8000101B1F5801F1BD3B1F5001F0CD34908EC
:1002E8005FEA30004FEA3C0C04F101044FEA445243
:1002F80012F5800F80F09A80BCF1004F08BF5FEACA
:10030800500C50F1000041EB045141EA050130BDA9
:100318005FEA4C0C404141EB010111F4801FA4F14C
:100328000104E9D191F0000F04BF01460020B1FAA1
:1003380081F308BF2033A3F10B03B3F120020CDAD9
:100348000C3208DD02F1140CC2F10C0201FA0CF0B7
:1003580021FA02F10CE002F11402D8BFC2F1200C1C
:1003680001FA02F120FA0CFCDCBF41EA0C019040D2
:10037800E41AA2BF01EB0451294330BD6FEA04041B
:100388001F3C1CDA0C340EDC04F11404C4F1200206
:1003980020FA04F001FA02F340EA030021FA04F318
:1003A80045EA030130BDC4F10C04C4F1200220FA6F
:1003B80002F001FA04F340EA0300294630BD21FAAD
:1003C80004F0294630BD94F0000F83F4801306BF73
:1003D80081F480110134013D4EE77FEA645C18BF67
:1003E8007FEA655C29D094EA050F08BF90EA020FFE
:1003F80005D054EA000C04BF1946104630BD91EAF6
:10040800030F1EBF0021002030BD5FEA545C05D1F8
:100418004000494128BF41F0004130BD14F5800437
:100428003CBF01F5801130BD01F0004545F0FE41AB
:1004380041F470014FF0000030BD7FEA645C1ABFE0
:10044800194610467FEA655C1CBF0B46024650EA17
:10045800013406BF52EA033591EA030F41F4002143
:1004680030BD00BF90F0000F04BF0021704730B5C9
:100478004FF4806404F132044FF000054FF000019E
:1004880050E700BF90F0000F04BF0021704730B55F
:100498004FF4806404F1320410F0004548BF404234
:1004A8004FF000013EE700BF42004FEAE2014FEA89
:1004B80031014FEA02701FBF12F07F4393F07F4F64
:1004C80081F06051704792F0000F14BF93F07F4F96
:1004D800704730B54FF4607401F0004521F00041D9
:1004E80020E700BF50EA010208BF704730B54FF05F
:1004F80000050AE050EA010208BF704730B511F064
:10050800004502D5404261EB41014FF4806404F19B
:1005180032045FEA915C3FF4DCAE4FF003025FEA1D
:10052800DC0C18BF03325FEADC0C18BF033202EBA5
:10053800DC02C2F1200300FA03FC20FA02F001FAFF
:1005480003FE40EA0E0021FA02F11444C1E600BF9E
:1005580070B54FF0FF0C4CF4E06C1CEA11541DBF51
:100568001CEA135594EA0C0F95EA0C0F00F0DEF81C
:100578002C4481EA030621EA4C5123EA4C5350EA01
:10058800013518BF52EA033541F4801143F4801352
:1005980038D0A0FB02CE4FF00005E1FB02E506F0E3
:1005A8000042E0FB03E54FF00006E1FB03569CF038
:1005B800000F18BF4EF0010EA4F1FF04B6F5007F3E
:1005C80064F5407404D25FEA4E0E6D4146EB0606B0
:1005D80042EAC62141EA55514FEAC52040EA5E5039
:1005E8004FEACE2EB4F1FD0C88BFBCF5E06F1ED8E3
:1005F800BEF1004F08BF5FEA500E50F1000041EB1A
:10060800045170BD06F0004646EA010140EA0200C6
:1006180081EA0301B4EB5C04C2BFD4EB0C0541EAE8
:10062800045170BD41F480114FF0000E013C00F3FD
:10063800AB8014F1360FDEBF002001F0004170BD21
:10064800C4F10004203C35DA0C341BDC04F114043A
:10065800C4F1200500FA05F320FA04F001FA05F2C6
:1006680040EA020001F0004221F0004110EBD37093
:1006780021FA04F642EB06015EEA430E08BF20EABF
:10068800D37070BDC4F10C04C4F1200500FA04F362
:1006980020FA05F001FA04F240EA020001F00041F4
:1006A80010EBD37041F100015EEA430E08BF20EA67
:1006B800D37070BDC4F1200500FA05F24EEA020EAF
:1006C80020FA04F301FA05F243EA020321FA04F0DE
:1006D80001F0004121FA04F220EA020000EBD37095
:1006E8005EEA430E08BF20EAD37070BD94F0000F95
:1006F8000FD101F00046400041EB010111F4801FC9
:1007080008BF013CF7D041EA060195F0000F18BF79
:10071800704703F00046520043EB030313F4801FB5
:1007280008BF013DF7D043EA0603704794EA0C0F6F
:100738000CEA135518BF95EA0C0F0CD050EA410685
:1007480018BF52EA4306D1D181EA030101F0004102
:100758004FF0000070BD50EA410606BF104619462A
:1007680052EA430619D094EA0C0F02D150EA013636
:1007780013D195EA0C0F05D152EA03361CBF104677
:1007880019460AD181EA030101F0004141F0FE4116
:1007980041F470014FF0000070BD41F0FE4141F49A
:1007A800780170BD70B54FF0FF0C4CF4E06C1CEA9A
:1007B80011541DBF1CEA135594EA0C0F95EA0C0F4F
:1007C80000F0A7F8A4EB050481EA030E52EA03350A
:1007D8004FEA013100F088804FEA03334FF080552B
:1007E80045EA131343EA12634FEA022245EA111558
:1007F80045EA10654FEA00260EF000419D4208BF09
:10080800964244F1FD0404F5407402D25B084FEAB5
:100818003202B61A65EB03055B084FEA32024FF461
:1008280080104FF4002CB6EB020E75EB030E22BFBE
:10083800B61A754640EA0C005B084FEA3202B6EB7E
:10084800020E75EB030E22BFB61A754640EA5C002D
:100858005B084FEA3202B6EB020E75EB030E22BFBD
:10086800B61A754640EA9C005B084FEA3202B6EBBE
:10087800020E75EB030E22BFB61A754640EADC007D
:1008880055EA060E18D04FEA051545EA16754FEADF
:1008980006164FEAC30343EA52734FEAC2025FEAFD
:1008A8001C1CC0D111F4801F0BD141EA00014FF08C
:1008B80000004FF0004CB6E711F4801F04BF01435D
:1008C8000020B4F1FD0C88BFBCF5E06F3FF6AFAE79
:1008D800B5EB030C04BFB6EB020C5FEA500C50F109
:1008E800000041EB045170BD0EF0004E4EEA11318C
:1008F80014EB5C04C2BFD4EB0C0541EA045170BD93
:1009080041F480114FF0000E013C90E645EA060ED6
:100918008DE60CEA135594EA0C0F08BF95EA0C0F04
:100928003FF43BAF94EA0C0F0AD150EA01347FF44C
:1009380034AF95EA0C0F7FF425AF104619462CE723
:1009480095EA0C0F06D152EA03353FF4FDAE104686
:10095800194622E750EA410618BF52EA43067FF4D7
:10096800C5AE50EA41047FF40DAF52EA43057FF467
:10097800EBAE12E74FF0FF3C06E000BF4FF0010C72
:1009880002E000BF4FF0010C4DF804CD4FEA410CD6
:100998007FEA6C5C4FEA430C18BF7FEA6C5C1BD0A3
:1009A80001B050EA410C0CBF52EA430C91EA030F24
:1009B80002BF90EA020F0020704710F1000F91EA81
:1009C800030F58BF994208BF90422CBFD8176FEA4F
:1009D800E37040F0010070474FEA410C7FEA6C5C1D
:1009E80002D150EA013C07D14FEA430C7FEA6C5C24
:1009F800D6D152EA033CD3D05DF8040B704700BF50
:100A08008446104662468C461946634600E000BF9D
:100A180001B5FFF7B7FF002848BF10F1000F01BD6F
:100A28004DF808EDFFF7F4FF0CBF012000205DF83A
:100A380008FB00BF4DF808EDFFF7EAFF34BF0120BF
:100A480000205DF808FB00BF4DF808EDFFF7E0FF58
:100A580094BF012000205DF808FB00BF4DF808EDA9
:100A6800FFF7CEFF94BF012000205DF808FB00BF10
:100A78004DF808EDFFF7C4FF34BF012000205DF8F2
:100A880008FB00BF4FEA410212F5001215D211D53A
:100A98006FF47873B3EB625212D94FEAC12343F073
:100AA800004343EA505311F0004F23FA02F018BFF5
:100AB800404270474FF00000704750EA013005D1BE
:100AC80011F0004008BF6FF0004070474FF0000081
:100AD800704700BF80F0004002E000BF81F0004195
:100AE80042001FBF5FEA410392EA030F7FEA226CCC
:100AF8007FEA236C6AD04FEA1262D2EB1363C1BF5C
:100B0800D218414048404140B8BF5B42192B88BFCA
:100B1800704710F0004F40F4000020F07F4018BFED
:100B2800404211F0004F41F4000121F07F4118BF0D
:100B3800494292EA030F3FD0A2F1010241FA03FCB5
:100B480010EB0C00C3F1200301FA03F100F000439D
:100B580002D5494260EB4000B0F5000F13D3B0F165
:100B6800807F06D340084FEA310102F10102FE2AD4
:100B780051D2B1F1004F40EBC25008BF20F0010044
:100B880040EA03007047490040EB000010F4000FF2
:100B9800A2F10102EDD1B0FA80FCACF1080CB2EB85
:100BA8000C0200FA0CF0AABF00EBC25052421843E4
:100BB800BCBFD0401843704792F0000F81F4000189
:100BC80006BF80F400000132013BB5E74FEA41035C
:100BD8007FEA226C18BF7FEA236C21D092EA030FC8
:100BE80004D092F0000F08BF0846704790EA010F42
:100BF8001CBF0020704712F07F4F04D1400028BF6F
:100C080040F00040704712F100723CBF00F5000050
:100C1800704700F0004343F0FE4040F40000704786
:100C28007FEA226216BF08467FEA23630146420232
:100C380006BF5FEA412390EA010F40F48000704745
:100C48004FF0000304E000BF10F0004348BF4042EB
:100C58005FEA000C08BF704743F0964301464FF027
:100C680000001CE050EA010208BF70474FF0000383
:100C78000AE000BF50EA010208BF704711F00043C4
:100C880002D5404261EB41015FEA010C02BF844694
:100C98000146002043F0B64308BFA3F18053A3F5F3
:100CA8000003BCFA8CF2083AA3EBC25310DB01FA3A
:100CB80002FC634400FA02FCC2F12002BCF1004FBE
:100CC80020FA02F243EB020008BF20F0010070474F
:100CD80002F1200201FA02FCC2F1200250EA4C00A3
:100CE80021FA02F243EB020008BF20EADC707047E9
:100CF8004FF0FF0C1CEAD0521EBF1CEAD15392EAF7
:100D08000C0F93EA0C0F6FD01A4480EA010C4002D2
:100D180018BF5FEA41211ED04FF0006343EA50102C
:100D280043EA5111A0FB01310CF00040B1F5000F6E
:100D38003EBF490041EAD3715B0040EA010062F11D
:100D48007F02FD2A1DD8B3F1004F40EBC25008BF07
:100D580020F00100704790F0000F0CF0004C08BF25
:100D680049024CEA502040EA51207F3AC2BFD2F1F2
:100D7800FF0340EAC250704740F400004FF0000300
:100D8800013A5DDC12F1190FDCBF00F0004070473A
:100D9800C2F10002410021FA02F1C2F1200200FA78
:100DA80002FC5FEA310040F1000053EA4C0308BF3F
:100DB80020EADC70704792F0000F00F0004C02BF90
:100DC800400010F4000F013AF9D040EA0C0093F00B
:100DD800000F01F0004C02BF490011F4000F013B65
:100DE800F9D041EA0C018FE70CEAD15392EA0C0FD3
:100DF80018BF93EA0C0F0AD030F0004C18BF31F03E
:100E0800004CD8D180EA010000F00040704790F013
:100E1800000F17BF90F0004F084691F0000F91F0B7
:100E2800004F14D092EA0C0F01D142020FD193EA7D
:100E38000C0F03D14B0218BF084608D180EA010005
:100E480000F0004040F0FE4040F40000704740F0E1
:100E5800FE4040F4400070474FF0FF0C1CEAD052AF
:100E68001EBF1CEAD15392EA0C0F93EA0C0F69D00B
:100E7800A2EB030280EA010C49024FEA402037D076
:100E88004FF0805343EA111143EA10130CF000406D
:100E98008B4238BF5B0042F17D024FF4000C8B425D
:100EA80024BF5B1A40EA0C00B3EB510F24BFA3EB3D
:100EB800510340EA5C00B3EB910F24BFA3EB91030D
:100EC80040EA9C00B3EBD10F24BFA3EBD10340EA67
:100ED800DC001B0118BF5FEA1C1CE0D1FD2A3FF6AD
:100EE80050AF8B4240EBC25008BF20F00100704762
:100EF8000CF0004C4CEA50207F32C2BFD2F1FF0305
:100F080040EAC250704740F400004FF00003013A35
:100F180037E792F0000F00F0004C02BF400010F4D9
:100F2800000F013AF9D040EA0C0093F0000F01F0ED
:100F3800004C02BF490011F4000F013BF9D041EA0F
:100F48000C0195E70CEAD15392EA0C0F08D1420242
:100F58007FF47DAF93EA0C0F7FF470AF084676E715
:100F680093EA0C0F04D14B023FF44CAF08466EE7EE
:100F780030F0004C18BF31F0004CCAD130F00042BC
:100F88007FF45CAF31F000437FF43CAF5FE700BF14
:100F98004FF0FF3C06E000BF4FF0010C02E000BF3D
:100FA8004FF0010C4DF804CD4FEA40024FEA4103DF
:100FB8007FEA226C18BF7FEA236C11D001B052EA95
:100FC800530C18BF90EA010F58BFB2EB030088BF5B
:100FD800C81738BF6FEAE17018BF40F001007047CA
:100FE8007FEA226C02D15FEA402C05D17FEA236CAC
:100FF800E4D15FEA412CE1D05DF8040B704700BFF3
:10100800844608466146FFE70FB5FFF7C9FF002889
:1010180048BF10F1000F0FBD4DF808EDFFF7F4FFC2
:101028000CBF012000205DF808FB00BF4DF808ED5B
:10103800FFF7EAFF34BF012000205DF808FB00BF7E
:101048004DF808EDFFF7E0FF94BF012000205DF8A0
:1010580008FB00BF4DF808EDFFF7D2FF94BF012051
:1010680000205DF808FB00BF4DF808EDFFF7C8FF4A
:1010780034BF012000205DF808FB00BF4FEA4002A2
:10108800B2F1FE4F0FD34FF09E03B3EB12620DD9AE
:101098004FEA002343F0004310F0004F23FA02F018
:1010A80018BF404270474FF00000704712F1610FBF
:1010B80001D1420205D110F0004008BF6FF0004096
:1010C80070474FF0000070474BB942B9002908BF7C
:1010D800002802D04FF0FF31084600F03BB882B03C
:1010E800EC462DE9005000F01DF8DDF804E002B0F0
:1010F8000CBC70472DE9F0411646984604460D464B
:1011080000F02AF806FB01FCA6FB002300FB08C739
:10111800FB18A21A65EB0303069CC4E90023BDE88B
:10112800F08100BF2DE9F041904606460F461D4666
:1011380000F070F900FB05F3A0FB084508FB013837
:10114800069B4544341B67EB0505C3E90045BDE82C
:10115800F08100BF704700BF00292DE9F00F1D4640
:10116800C0F29D800024002DC0F2948080460F4676
:1011780094461E46E3BB8A4255D9B2FA82F747B174
:10118800C7F1200520FA05F601FA07F1BA40B84080
:101198003143170CB1FBF7F61FFA82FC07FB161157
:1011A8000CFB06F5030C43EA01439D4208D9711E66
:1011B8009B1880F013819D4240F21081023E9B18DB
:1011C800591BB1FBF7F507FB15130CFB05FC80B2A7
:1011D80040EA03418C4507D96B1E8A1880F00081CC
:1011E800944540F2FD80023D45EA0641002503E0B2
:1011F8008B420CD9002529460A462B4614B1524287
:1012080063EB430310461946BDE8F00F7047B3FA85
:1012180083F5002D40F087808B4201D38242EAD8C3
:1012280000250121E8E712B90126B6FBF2F2B2FA6D
:1012380082F6002E39D18E1A130C1FFA82FC012572
:10124800B6FBF3F703FB17610CFB07F84FEA1049ED
:1012580049EA0146B04506D9791EB61802D2B0450A
:1012680000F2D3800F46C8EB0606B6FBF3F103FB8A
:1012780011630CFB01FC80B240EA03439C4506D98C
:101288004E1E9A1802D2944500F2C280314641EAB5
:101298000741B1E7E443524263EB430366E7404248
:1012A80061EB41014FF0FF345DE7B240C6F1200920
:1012B80021FA09F720FA09F901FA06F1130CB7FB2C
:1012C800F3F81FFA82FC03FB18770CFB08F549EAD0
:1012D80001094FEA194141EA0747B040BD420AD91E
:1012E800BF1808F1FF3680F08E80BD4240F28B8037
:1012F800A8F10208BF18791BB1FBF3F503FB15171A
:101308000CFB05F61FFA89F949EA07418E4206D90E
:101318006F1E891871D28E426FD9023D89188E1BB3
:1013280045EA08458CE7C5F1200122FA01F306FADF
:1013380005F627FA01F207FA05F720FA01F11E432C
:101348004FEA1649B2FBF9F81FFA86FA09FB182288
:101358000AFB08FB0F433B0C43EA024293450CFA95
:1013680005FC08D9921908F1FF314AD2934548D9AA
:10137800A8F102089219CBEB0203B3FBF9F109FBC0
:1013880011320AFB01FABFB247EA02439A4506D96D
:101398004A1E9B1933D29A4531D902399B1941EA21
:1013A80008410F0C1FFA8CF808FB07F68AB24FEABF
:1013B8001C4C08FB02F80CFB02620CFB07FC02EB5E
:1013C8001842964288BF0CF5803CCAEB03030CEB2D
:1013D800124C63450ED305D000250DE70E46EFE607
:1013E8001D4601E700FA05F01FFA88F808EB0245E8
:1013F800A842F1D201390025FEE63D468FE71146A5
:10140800CDE78846B7E7B04675E7023FB6182AE742
:1014180002393CE72DE9F007144605460E46002B35
:101428003DD18A4249D9B2FA82F747B1C7F12001C2
:1014380020FA01F206FA07F6BC40BD401643220C1A
:10144800B6FBF2F0A1B202FB106601FB00F32F0C11
:1014580047EA0646B34208D9471E361980F0FA8093
:10146800B34240F2F78002383619F61AB6FBF2F3A7
:1014780002FB136201FB03F1ADB245EA024291425D
:1014880007D95E1E121980F0E780914240F2E4808D
:10149800023B43EA00400021BDE8F00770478B4259
:1014A80043D8B3FA83F4002C42D18B4202D3824250
:1014B80000F2E18000210120EEE712B90127B7FB15
:1014C800F2F4B4FA84F2002A40F089800A1B230C53
:1014D800A7B20121B2FBF3F603FB162207FB06F0C5
:1014E8004FEA154C4CEA0242904207D9121906F10C
:1014F800FF3C02D2904200F2D0806646121AB2FB3C
:10150800F3F003FB102307FB00F7ADB245EA0343F2
:101518009F4207D9421E1B1980F0A0809F4240F2CB
:101528009D80023840EA0640B6E700210846B3E746
:10153800C4F1200622FA06F703FA04F321FA06F5A5
:1015480001FA04F120FA06F63B434FEA134CB5FBC7
:10155800FCF71FFA83F80CFB175508FB07F946EA56
:10156800010A4FEA1A4141EA0545A94502FA04F27F
:1015780004D97E1EED18C0F081803746C9EB0501FD
:10158800B1FBFCF60CFB161508FB06F81FFA8AFAE5
:101598004AEA0541884503D9751EC91874D32E46F1
:1015A80046EA0746370C1FFA82FC0CFB07F5120CBB
:1015B800B3B20CFB03FC02FB035302FB07F203EB81
:1015C8001C439D4288BF02F58032C8EB010102EB43
:1015D800134291424CD343D0304600215CE79440FB
:1015E800C2F1200521FA05F620FA05F501FA02F103
:1015F800230CB6FBF3FCA7B203FB1C6607FB0CF835
:1016080029430D0C45EA0646B04500FA02F508D90B
:1016180036190CF1FF303ED2B0453CD9ACF1020C82
:101628003619C8EB0602B2FBF3F003FB102607FBE2
:1016380000F889B241EA0642904506D9461E1219B9
:1016480027D2904525D902381219C8EB020240EA80
:101658000C413FE7384608E733461AE7104661E78A
:1016680000FA04F01FFA8CFC0CEB03439842B3D247
:10167800701E002110E7214620460DE7A9457FF698
:101688007CAF023FED1879E7884588D9023EC91832
:1016980086E73046D9E78446C3E7023E12192DE7AC
:1016A800002100F004B80D4B5B58435004310C483E
:1016B8000C4B42189A42FFF4F6AF0B4A00F003B8FD
:1016C800002342F8043B094B9A42FFF4F9AF04F0B7
:1016D80003F807F023FA02F0D1FF7047C0E50008CD
:1016E80000000020A4090020A4090020181A0020E6
:1016F800FFF7FEBF40F0BF604FF46D4340F4003188
:10170800CEF20003D9607047C37830B47BB9007853
:10171800012100F01F0201FA02F140094FF4614370
:10172800CEF20003203043F8201030BC70474FF44D
:101738006D44CEF20004E5684478EA43C2F302231C
:101748000F2525FA03F2C3F1040104FA01F48578A0
:10175800037802EA050121430A0103F16043D1B28B
:1017680003F5614282F800130078012100F01F039D
:1017780001FA03F14FF46143CEF20003420943F842
:101788002210D2E708B54FF41053C4F2010398426F
:1017980018D04FF42051C4F2010188421ED04FF4F2
:1017A8007052C4F20102904200D008BD01214FF4EA
:1017B800004000F03BFB4FF400400021BDE808402A
:1017C80000F034BB01214FF4007000F02FFB4FF400
:1017D80000700021BDE8084000F028BB01214FF44B
:1017E800806000F023FB4FF480600021BDE80840D2
:1017F80000F01CBB42680B6870B422F470250C79A9
:1018080025F4807646EA030242EA042343608668A8
:101818008C68CA684FF2FD73CFF6F1734D79224395
:101828003340134343EA45028260097CC26A4B1E77
:1018380022F47001DAB241EA0253C36270BC704705
:10184800836819B923F001018160704743F00102F0
:1018580082607047836843F008018160704700BF69
:101868008068C0F3C0007047836843F0040181605A
:10187800704700BF8068C0F380007047836819B95B
:1018880023F4A0018160704743F4A002826070478E
:10189800092970B401EB41041ED91E3C072606FA3B
:1018A80004F603FA04F4C568062A25EA060343EA9F
:1018B8000403C3601DD90C2A02EB820227D9413ADE
:1018C8001F2404FA02F401FA02F1C36A23EA0402AB
:1018D8000A43C26270BC7047072606FA04F603FA88
:1018E80004F40569062A25EA060343EA04030361AA
:1018F800E1D8541E04EB84031F2404FA03F401FA0C
:1019080003F1426B22EA04030B434363E2E7233A01
:101918001F2404FA02F401FA02F1036B23EA040219
:101928000A430263D6E700BFC06C80B2704700BFAD
:10193800036819420CBF002001207047837930B436
:101948003BB34FF48063C4F2010301681D68CC43C4
:1019580025401D605D6802792C4002F180455C607D
:1019680005F5823215684479294311600268986840
:10197800D14308409860D868102C01EA0001D9606A
:1019880013D004F1804303F5823421680A432260AE
:1019980009E00279016802F1804000F582331A6893
:1019A80022EA01021A6030BC7047986810439860B8
:1019B800D9680A43DA60F6E74FF48063C4F201039A
:1019C8001A691043186170474FF48063C4F2010329
:1019D80058617047CA7830B4D30648BF8B7802F094
:1019E8000F0448BF1C430B8813F0FF0F2FD013F0D0
:1019F8000105016840F0EC8003F00205ADB2002D4E
:101A080040F0D08003F00405ADB2002D40F0D58041
:101A180003F00805ADB2002D40F0988003F01005E2
:101A2800ADB2002D40F09D8003F02005ADB2002D31
:101A380040F0A28003F04005ADB2002D40F0A78031
:101A480003F08005ADB2002D40F0CD800160FF2B82
:101A580028D903F480718DB24168002D2DD103F48B
:101A68000075ADB2002D33D103F48065ADB2002D01
:101A780039D103F40065ADB2002D3FD103F4805590
:101A8800ADB2002D44D103F40055ADB2002D49D1BB
:101A980003F48045ADB2002D4ED103F400439BB250
:101AA80013B9416030BC7047282A64F31F7100F0F5
:101AB800B080482A08BF0361F3E721F00F01282A04
:101AC80044EA010100F0A380482AC8D10561C6E7AD
:101AD80021F0F001282A41EA041100F09680482AF2
:101AE800C2D10561C0E721F47061282A41EA0421C6
:101AF80000F08980482ABCD10561BAE721F4704119
:101B0800282A41EA04317CD0482AB7D10561B5E7D3
:101B180021F47021282A41EA044170D0482AB2D120
:101B28000561B0E721F47001282A41EA045164D024
:101B3800482AADD10561ABE721F07061282A41EA56
:101B4800046158D0482AA8D10561A6E721F470415C
:101B5800282A41EA043168D0482A7FF45FAF05613A
:101B68005CE721F47021282A41EA04415BD0482A25
:101B78007FF45AAF056157E721F47001282A41EA3A
:101B8800045156D0482A7FF455AF056152E721F039
:101B98007061282A41EA046149D0482A7FF450AF8D
:101BA80005614DE721F0F001282A41EA041138D0F7
:101BB800482A7FF427AF056124E721F47061282AB9
:101BC80041EA04212BD0482A7FF422AF05611FE7A0
:101BD80021F00F01282A44EA01011CD0482A7FF489
:101BE8000BAF056108E7282A64F31F7115D0482A4E
:101BF80008BF05612AE745614FE7456148E7456148
:101C080041E745613AE7456133E745612CE74561BE
:101C180025E7436145E74561EEE6456116E745611D
:101C2800F6E64561EEE64561FEE64561F6E64561A4
:101C380006E74561FEE600BF836819420CBF002035
:101C48000120704701617047416170470AB94161DD
:101C580070470161704700BFC3685940C160704751
:101C680000230028C4F2010300F44012B4BFDB696A
:101C78005B68B2F5401F30B484B222D0C20217D5D7
:101C8800C0F30342032505FA02F223EA020343F0F4
:101C9800706321B1410D0A0104FA02F423430021C3
:101CA800C4F201010028B4BFCB614B6030BC70475F
:101CB800420D120104FA02F223EA020343F07063B0
:101CC800E7E70022C4F20102556823F0706325F0AB
:101CD80070655560DDE700BF01F0030310B40F2203
:101CE8009C0002FA04F200FA04F089080023C4F206
:101CF8000103023153F8214024EA020243F821206B
:101D080053F82120104343F8210010BC704700BF4E
:101D1800D823C4F242231860704700BF4FF48053A1
:101D2800C4F202035A6822F44041084358607047DD
:101D38004FF48053C4F202035A6810B402F00C0145
:101D4800042901D0082928D04FF49052C0F27A0211
:101D580002604FF48053C4F202035C681C49C4F368
:101D680003140C5D22FA04F242605C68C4F3022496
:101D78000C5D22FA04F484605C68C4F3C224095D33
:101D880022FA01F2C2605B681249C3F38133CB5C6B
:101D9800B2FBF3F2026110BC70475C685968C4F387
:101DA80083420232CC030AD55B68990307D44FF407
:101DB8009054C0F27A0404FB02F20260C9E74FF4BF
:101DC8001061C0F23D0101FB02F20260C1E700BFF1
:101DD80004000020000000204FF48053C4F20203E6
:101DE8005A6919B922EA00005861704710435861CE
:101DF800704700BF4FF48053C4F202039A6919B9BF
:101E080022EA00009861704710439861704700BF4C
:101E18004FF48053C4F20203DA6919B922EA0000C8
:101E2800D86170471043D861704700BF4FF48053A2
:101E3800C4F20203DA6819B922EA0000D8607047D0
:101E48001043D860704700BF4FF430520388C4F283
:101E58000102904270B49BB21AD04FF45052C4F2AF
:101E68000102904214D0B0F1804F11D04FF480623B
:101E7800C4F2000290420BD04FF40062C4F2000298
:101E8800904205D04FF44062C4F20002904205D15E
:101E98004FF68F724C881A4042EA04034FF480527E
:101EA800C4F20002904234D04FF4A052C4F20002AF
:101EB80090422ED04FF6FF42CE881A404FF430534E
:101EC8008D880C88C4F201033243984202808585CC
:101ED80004851BD04FF45052C4F20102904215D031
:101EE8004FF48043C4F2010398420FD04FF4884264
:101EF800C4F20102904209D04FF49043C4F20103A6
:101F0800984203D00122828270BC7047097A018608
:101F1800F8E703808B88838509880185F2E700BF8D
:101F2800038C2DE9F00123F001021404250C05842B
:101F3800078C0D8984884E88038B2E4323F0730207
:101F48004FF4305527F0020312041B040F88C4F223
:101F58000105120C1B0CB6B2A842A4B242EA070251
:101F680046EA03031FD04FF45055C4F20105A842B6
:101F780019D04FF48045C4F20105A84213D04FF49C
:101F88008845C4F20105A8420DD04FF49045C4F22B
:101F98000105A84207D0C98884800283818603840A
:101FA800BDE8F00170474FF6F776B1F80AC0B1F80E
:101FB8000E808F891E4046EA0C0C4FF6FB738E8804
:101FC8004FF6FF4548EA070725400CEA0303BCB271
:101FD80033432C43DFE700BF038CF0B423F0100237
:101FE8001404250C0584068C848826F02002078BAF
:101FF80016040D89320C27F4E6431B0442EA051245
:102008000F884E884FF430551B0CC4F2010543EA83
:10201800072342EA0612A842A4B29BB292B20CD09D
:102028004FF45055C4F20105A84206D0C9888480EF
:10203800038301870284F0BC70474F894FF67F768F
:1020480016404FF2FF35B1F80CC0254046EA071696
:102058004FF6BF728F88CC89324045EA8C0542EA38
:10206800071245EA840492B2A4B2DFE7038CF0B405
:1020780023F480721404250C0584068C0D8926F43B
:1020880000773A048488838B120C23F0730642EAA3
:1020980005224F884FF430553304C4F201050E88E9
:1020A8001B0C42EA0722A842A4B243EA060392B2F2
:1020B8000CD04FF45055C4F20105A84206D0C98887
:1020C8008480838381870284F0BC70474F894FF2F4
:1020D800FF7616404CF6FF75B1F80CC0254046EA6D
:1020E80007264FF6FF328F88CC89324045EA0C1517
:1020F80042EA072245EA041492B2A4B2DFE700BF1D
:102108000B8830B44D888C88CA882B4323430D89AB
:102118004C89134389892B4323430B439AB2A0F874
:10212800442030BC704700BF038829B923F001015F
:102138000A04130C0380704799B241F0010202802F
:10214800704700BFB0F8443021B959044A0CA0F8D0
:10215800442070476FEA43436FEA53418AB2A0F8BC
:1021680044207047038B23F0080213041A0C114310
:1021780001837047038B23F4006213041A0C42EAAC
:1021880001218BB203837047838B23F00802130469
:102198001A0C114381837047038A70B5044623F4EF
:1021A8004050CA880D4601040E0C16432682A389A6
:1021B800AA88288923F4B056698926F00C031043AD
:1021C8001A04160C084340EA06018BB2A381A08AC0
:1021D800AA8920F4407631040B0C86B0134301A879
:1021E800A382FFF7A5FD4FF46056A089C4F201064B
:1021F800B44202B20CBF049E039E002A21DB2D6864
:1022080006EB860101EB8103AE00B3FBF6F148F261
:102218001F53C5F2EB13A3FB0106A089720900B294
:1022280064251601002802FB151113DB0A0132325E
:10223800A3FB0203C3F34310304383B2238106B0E8
:1022480070BD286806EB860202EB82054300B5FBE9
:10225800F3F1DCE7C9003231A3FB0112C2F34210EB
:102268003043EAE70A8830B4038A4D888C882A43C9
:10227800C98823F470631B0422430A43190C0A43D8
:1022880093B2038230BC704700230380438083806D
:10229800C3807047838929B923F400510A04130CB9
:1022A8008381704799B241F400528281704700BF20
:1022B80001F01F0310B4C1F342110124A14204FA32
:1022C80003F30DD002290DD014302AB9026822EA8E
:1022D8000301016010BC7047026813430360F9E70B
:1022E8000C30F2E71030F0E730B54FF4805087B08B
:1022F800082300246946C4F20100ADF800308DF8C7
:102308000340FFF767FB4FF40040FFF707FD01218B
:102318004FF40070FFF76EFD4FF41050C4F2010047
:10232800FFF730FA4FF410504FF460220125C4F241
:10233800010001A9039201948DF808408DF8094025
:1023480004948DF81450FFF755FA4FF41050C4F266
:1023580001002946FFF774FA4FF41050C4F2010047
:10236800FFF778FA4FF41050C4F20100FFF778FA3B
:102378000028F7D14FF41050C4F20100FFF774FAA7
:102388004FF41050C4F20100FFF774FA0028F7D197
:1023980007B030BD01464FF4105008B5C4F2010033
:1023A80001220323FFF774FA4FF41050C4F201001E
:1023B8000121FFF763FA4FF41050C4F20100022123
:1023C800FFF7B6FA0028F6D04FF41050C4F2010017
:1023D800BDE80840FFF7A8BA0FB410B5C2B044ACC6
:1023E80054F8042BFF21234602A8019406F0EAFCC6
:1023F80002A803F0D1FA02A806F088FC014602A858
:1024080003F000FC42B0BDE8104004B0704700BFC4
:102418000FB410B5C2B044AC54F8042B02A8FF2185
:102428002346019406F0CEFC02A803F0B5FA42B0A8
:10243800BDE8104004B0704700B50C4B83B0186875
:10244800002804DB4FF0FF321A6003B000BD03F030
:10245800E9FB38B10DF10700012103F0E9FB9DF814
:102468000700F2E703F080FAEFE700BF140000204E
:1024780010B5002407E0642C09D0FFF7DDFF013414
:10248800002804DB0134FFF7D7FF0028F3DA2046E1
:1024980010BD00BF10B582B002AC04F8010D03F006
:1024A80073FA2046012103F0ADFB02B010BD00BF56
:1024B800704700BF08B503F06FFABDE8084003F0A5
:1024C80059BA00BF08B503F0E7FA4DF62810C0F670
:1024D8000000FFF7EFFF03F07FFB4DF63810C0F662
:1024E8000000BDE80840FFF7E5BF00BF70B5FFF783
:1024F800A3FF041E53DB03F0A9FBA4F12B034B2B12
:102508004DD8DFE813F0FC004C00EA004C004C000A
:102518004C004C004C004C004C004C004C004C0053
:102528004C004C004C004C004C004C004C004C0043
:102538004C004C004C004C004C004C004C00E60099
:102548004C004C004C004C004C004C004C004C0023
:102558004C004C00DB004C004C004C004C004C0084
:102568004C004C004C004C004C004C004C004C0003
:102578004C004C00D000CA00C4004C004C0097002E
:10258800870083007F004C004C004C004C00790011
:1025980073004C006D005E004C0053004D0070BD90
:1025A8005B485C49BDE87040FFF716BF5A480468AD
:1025B80004F09CFC024659482146BDE87040FFF7EC
:1025C80027BF574B57481A6882F00102564C5749A3
:1025D8001A60002A08BF2146BDE87040FFF7FCBE1C
:1025E800534B5448196881F00102EFE7524B5348A6
:1025F8001C6884F00102E9E7514B186880F0010279
:102608005048E3E7504B00221A6070BD4E48012144
:10261800016070BD4D4D0024FFF70EFF0028FBDB65
:10262800FE28D8BF605501340C2CF5D1BDE87040A8
:1026380000F01CB9454C642003F05CFB7820FFF7E0
:1026480029FF2078FFF726FF6078FFF723FFA0789F
:10265800FFF720FFE078FFF71DFF2079FFF71AFF4B
:102668006079FFF717FFA079FFF714FFE079FFF70C
:1026780011FF207AFFF70EFF607AFFF70BFFA07AB1
:10268800FFF708FFE07ABDE87040FFF703BF304B63
:1026980030481C6884F0010298E72F4B2F481A68CD
:1026A80082F0010292E72E48FFF796FE4FF47A7007
:1026B80003F020FBBDE8704002F08EBE2948FFF70A
:1026C8008BFE4FF47A7003F015FBBDE8704002F002
:1026D80079BEBDE8704000F087B9234C4CF6CD4177
:1026E800C3F6CC512068FEF7F9F92060FDF7DCFE4F
:1026F80002461E480B46BDE87040FFF76DBE1A4CF7
:102708004CF6CD41C3F6CC512068FEF7E9F9ECE769
:1027180044DA000854DA0008A40E002018DA000889
:10272800040A002000DA000850D900084CD9000833
:10273800F8090020DCD90008FC090020C0D90008ED
:10274800080A0020A4D90008E00E00201800002084
:10275800D009002090D90008A809002078D90008DD
:1027680054D90008F0D90008240000205CDA0008D9
:1027780008B5002000F09EF9FE289CBF3A4B18705F
:10278800052003F0B7FA012000F094F9FE289CBF59
:1027980035494870052003F0ADFA022000F08AF9A7
:1027A800FE289CBF304A9070052003F0A3FA03204E
:1027B80000F080F9FE289CBF2B4BD870052003F051
:1027C80099FA042000F076F9FE289CBF2649087182
:1027D800052003F08FFA052000F06CF9FE289CBF55
:1027E800214A5071052003F085FA062000F062F9AD
:1027F800FE289CBF1C4B9871052003F07BFA07202C
:1028080000F058F9FE289CBF1749C871052003F04D
:1028180071FA082000F04EF9FE289CBF124A107287
:10282800052003F067FA092000F044F9FE289CBF50
:102838000D4B5872052003F05DFA0A2000F03AF9B2
:10284800FE289CBF08498872052003F053FA0B2024
:1028580000F030F9FE289CBF034AD0720520BDE87D
:10286800084003F047BA00BF1800002008B503F07D
:10287800EDF9002000F01EF9411C06D0594B1978DB
:10288800814202D0002000F0F7F8052003F032FA68
:10289800012000F00FF9421C06D0524949788142C4
:1028A80002D0012000F0E8F8052003F023FA022006
:1028B80000F000F9431C06D04A4A9178814202D0C0
:1028C800022000F0D9F8052003F014FA032000F0E4
:1028D800F1F8411C06D0434BD978814202D003203D
:1028E80000F0CAF8052003F005FA042000F0E2F829
:1028F800421C06D03B490979814202D0042000F0ED
:10290800BBF8052003F0F6F9052000F0D3F8431CC6
:1029180006D0344A5179814202D0052000F0ACF843
:10292800052003F0E7F9062000F0C4F8411C06D0A2
:102938002C4B9979814202D0062000F09DF80520A1
:1029480003F0D8F9072000F0B5F8421C06D0254955
:10295800C979814202D0072000F08EF8052003F0E3
:10296800C9F9082000F0A6F8431C06D01D4A117AC0
:10297800814202D0082000F07FF8052003F0BAF960
:10298800092000F097F8411C06D0164B597A81426D
:1029980002D0092000F070F8052003F0ABF90A20F6
:1029A80000F088F8421C06D00E49897A814202D08C
:1029B8000A2000F061F8052003F09CF90B2000F0D4
:1029C80079F8431C06D0074AD17A814202D00B20FD
:1029D80000F052F8052003F08DF9BDE8084003F037
:1029E8003DB900BF1800002038B54DF678204DF6E7
:1029F800882540F21804C0F60005C2F20004C0F6AB
:102A08000000FFF7E9FC21782846FFF7E5FC284697
:102A18006178FFF7E1FC2846A178FFF7DDFC28463E
:102A2800E178FFF7D9FC28462179FFF7D5FC28463D
:102A38006179FFF7D1FC2846A179FFF7CDFC28463C
:102A4800E179FFF7C9FC2846217AFFF7C5FC28463B
:102A5800617AFFF7C1FC2846A17AFFF7BDFC28463A
:102A6800E17AFFF7B9FC4DF6FC50C0F60000BDE86E
:102A78003840FFF7B1BC00BF38B5044605200D4605
:102A880003F038F900F05EFFAE2000F0F9FF01F026
:102A9800C1FC204600F0F4FF01F0BCFC284600F021
:102AA800EFFF01F0B7FC00F073FF0520BDE83840E8
:102AB80003F020B938B50546174C012003F01AF980
:102AC8000023236000F03EFFAE2000F0D9FF01F0A4
:102AD800A1FC284600F0D4FF01F09CFC00F058FF50
:102AE800012003F007F900F02DFFAF2000F0C8FF28
:102AF80001F090FC01F01AF9054600F099FF00F08A
:102B080047FF012003F0F6F8206800280CBF28468C
:102B18004FF0FF3038BD00BF1C17002040F6E463BB
:102B2800C2F2000300212DE9F0411868C4F27A418D
:102B3800FEF7DEF840F6D411C2F200010968FDF78D
:102B4800CFFF40F21804C2F2000406466078FEF790
:102B580077F83146FEF7CCF80021C4F27A41FEF747
:102B68007BF907462079FEF76BF80021C4F2C821EB
:102B7800FEF772F940F60C75C2F200052968804626
:102B88003046FDF7ABFF01464046FEF7B1F8014677
:102B980038462E60FDF7A4FFE179BDE8F04101F069
:102BA800F9BF00BF40F6E463C2F2000300212DE93B
:102BB800F0415868C4F27A41FEF79AF840F6E411F9
:102BC800C2F200010968FDF78BFF40F21804C2F257
:102BD800000406462078FEF733F83146FEF788F8F9
:102BE8000021C4F27A41FEF737F90746E078FEF78C
:102BF80027F80021C4F2C821FEF72EF940F6F46543
:102C0800C2F20005296880463046FDF767FF014695
:102C18004046FEF76DF8014638462E60FDF760FF26
:102C2800A179BDE8F04101F0D9BF00BF40F6E463E7
:102C3800C2F2000300212DE9F0419868C4F27A41FC
:102C4800FEF756F840F60021C2F200010968FDF7C8
:102C580047FF40F21804C2F200040646A078FDF7C8
:102C6800EFFF3146FEF744F80021C4F27A41FEF73F
:102C7800F3F807466079FDF7E3FF0021C4F2C821A5
:102C8800FEF7EAF840F6F065C2F2000529688046CA
:102C98003046FDF723FF01464046FEF729F8014676
:102CA80038462E60FDF71CFF217ABDE8F04101F09F
:102CB800B9BF00BF2DE9F041364D374C962635484F
:102CC80000F034FDA968286804F0C8FBA9688046AC
:102CD800686804F0C3FB00210746C4F21531206878
:102CE800FEF706F84146FDF7F9FE0021C4F2163159
:102CF800FEF7B2F80021C4F2153120606068FDF7D4
:102D0800F7FF01463846FDF7EBFE0021C4F2163105
:102D1800FEF7A2F86060012002F0ECFF1D4800F009
:102D280005FDA968286804F099FBA96880466868C9
:102D380004F094FB00210746C4F215312068FDF722
:102D4800D7FF4146FDF7CAFE0021C4F21631FEF74F
:102D580083F80021C4F2153120606068FDF7C8FFD0
:102D680001463846FDF7BCFE0021C4F21631FEF7D5
:102D780073F8013E6060012002F0BCFF013E064F7F
:102D88009DD1064B79683A68002059601A609860AE
:102D9800BDE8F081B8090020F80E0020E40E0020FC
:102DA8002DE9F84F0C460646916810681D461746EF
:102DB800DDF8288004F052FBB9688146786804F091
:102DC8004DFB00210746C4F2C6213068FDF790FF8D
:102DD8004946FDF783FE0021C4F2C821FEF73CF8FE
:102DE80000213060C4F2C6217068FDF781FF0146FA
:102DF8003846FDF775FE0021C4F2C821FEF72CF80D
:102E08007060296883464046FDF772FF676801468F
:102E18003846FDF765FE394682465846FDF75EFEA0
:102E28004BF21771C3F65111FDF762FF0146504688
:102E3800FDF756FE6060814604F0D4FA074648461E
:102E480004F09CFA8146A868394600F10040FDF775
:102E58004FFF696883464846FDF74AFF01465846D2
:102E6800FDF73EFE01464046FDF742FFD4F800A0BC
:102E780001465046FDF734FE514683463068FDF75B
:102E88002DFE4BF21771C3F65111FDF731FF0146C4
:102E98005846FDF725FE2060A968484601F1004123
:102EA800FDF726FF696806463846FDF721FF01460B
:102EB8003046FDF713FE01464046FDF719FF01466F
:102EC800A068FDF70DFEA060BDE8F88F2DE9F04F72
:102ED800DFF8C8A299B0DAF800301090581CCAF888
:102EE800000002F0B3FE02F0D5FE16A802F0A8FB1F
:102EF800954800F01BFC16A802F0AAFB1190934815
:102F080000F040FC16A802F0A3FB914C109D21464E
:102F180012908D4A8D4B00958E48FFF741FF16A8F9
:102F280002F096FB8C4D1390697A8C4F312900F092
:102F3800FE81D7F804900021C4F27A414846FDF793
:102F48008BFFD4F804800246DFF854B24846DBF819
:102F580000100D92FDF7C4FD814E0D9B316881462E
:102F68001846FDF7BDFD41463060FDF7B9FD00216B
:102F7800C4F24821FDF7BCFE0021CBF6807106465D
:102F8800FEF754F8002840F0B58030464FF07E51E7
:102F9800FEF76AF808B14FF07E56724A314616605D
:102FA8004846FDF79DFD704ED7F800903168CBF884
:102FB80000004846FDF794FDDFF8E8810021306005
:102FC800C4F27A414846FDF747FFD8F80010FDF7EC
:102FD80087FD2168C8F80000FDF782FD8146E87A80
:102FE8006438FDF731FE0021C4F22011FDF734FFEB
:102FF80002F090FE01464846FDF772FD0021C4F23A
:103008004821FDF775FE0021CBF680718046FEF75A
:103018000DF8002869D140464FF07E51FEF724F89C
:1030280008B14FF07E58514B30684146C3F80080D4
:10303800FDF756FDAD7A3060302D00F09381D7F85A
:103048000880DFF864914046D9F80010FDF748FD84
:10305800474D0021C9F80000C4F27A414046FDF707
:10306800FBFE2968FDF73CFD286016A802F0F0FA7F
:103078001490FFF797FDFFF751FDFFF7D7FD16A84E
:1030880002F0E6FA159016A802F0EAFADFF81C81B9
:103098000546D8F80000411CB1F5FA7FC8F80010C1
:1030A8001EDB344A1368002B40F08280324A1168D4
:1030B800002940F0AA8031480168002940F0D580F5
:1030C8002F4A1368002B40F0E9802E490868002831
:1030D80040F011812C4A136883B90021C8F8001008
:1030E80002F0BCFD19B0BDE8F08F4FF00008CBF638
:1030F800807898E70026CBF680764EE7234C244963
:10310800A068244D94E808082F686E68D1F800A0DC
:10311800D1F804908C68AD680D930E9002F00AFD0A
:103128000D9A0E9B009206900293CDF804B0CDF84C
:103138000CA0CDF8109005941748394632462B4616
:10314800FFF74AF9C9E700BFB8090020EC090020D9
:10315800E40E0020F80E002018000020D8090020F6
:10316800AC090020140F0020D4090020080F00200B
:10317800B0090020D0090020040A0020FC09002022
:10318800F8090020080A0020A809002020170020BC
:10319800381700202C17002030DC0008A409002074
:1031A800E4090020E8090020000A0020B4090020F2
:1031B800914ADAF80010136820680E930D9102F016
:1031C800A1FD014660680F9102F09CFD8246A0684F
:1031D80002F098FD04460F98FDF766F9CDE9000165
:1031E8005046FDF761F9CDE902012046FDF75CF98B
:1031F8000D9BCDE904010E9A19468048FFF7ECF8BB
:103208007F4A116800293FF456AF1098FDF74CF932
:103218007C4C024620680E920D91FDF745F9CDE9E8
:1032280000016068FDF740F9CDE90201A068FDF7EB
:103238003BF9CDE90401744C2068FDF735F9CDE977
:1032480006016068FDF730F9CDE90801A068FDF7CF
:103258002BF90E9ACDE90A010D9B6C48FFF7BCF8D3
:103268006B48016800293FF42BAF01F03DF9FDF7E9
:103278001BF9024611980B46019012991398029176
:103288000390149915980095059004916148FFF7EB
:10329800A3F8614A1368002B3FF417AFDFF88CA13D
:1032A800DAF80000FDF700F90446DAF804000D46E4
:1032B800FDF7FAF8CDE90001DAF80800FDF7F4F8AF
:1032C800CDE902013868FDF7EFF8CDE90401786827
:1032D800FDF7EAF8CDE90601B868FDF7E5F82246FA
:1032E800CDE908012B464D48FFF776F84C490868A8
:1032F80000283FF4EFAE3068FDF7D6F80446DBF857
:1033080000000D46FDF7D0F8CDE90001D9F800001E
:10331800FDF7CAF822462B46CDE902014148FFF7DE
:103328005BF8414A1368002B3FF4D7AEE6E63F4905
:10333800384601F08FFFD4F8048046F2F161CBF6ED
:103348005F714046D7F80490FDF770FE00283AD028
:1033580048460021FDF788FEA8B300229146C7F829
:103368000490F1E5DFF8C8900021C4F2C621D9F82D
:103378000000FDF7BDFC05460D20FFF70BF8A0F592
:10338800FA60FDF761FC0021C4F27A51FDF764FD93
:1033980001462846FDF7A4FB0021C4F2C821FDF729
:1033A8005BFDA568C9F800002946FDF797FB4DF2BB
:1033B8000A71C3F62341FDF79BFC01462846FDF739
:1033C8008FFBA0603BE640F6D9714046C3F6C97151
:1033D800FDF74AFE20B148460021FDF727FE38B91F
:1033E80000214846C4F27A41FDF736FD0246B6E7A9
:1033F8004FF000094A46B2E71817002090DA000893
:10340800040A0020B8090020EC090020D8DA0008D6
:10341800FC09002024DB0008F809002088DB0008EC
:10342800080A0020E8DB0008A8090020C4090020D9
:10343800040F002038B51E4D00242046FDF704FC7B
:1034480040F6DB71C4F2C901FDF752FC4FF06A5136
:10345800FDF74EFC03F0C6FF4FF47E41C4F2FF6156
:10346800FDF746FC02F05EFCFDF708FE01346880BB
:103478002046FDF7E9FB40F6DB71C4F2C901FDF710
:1034880037FC4FF06A51FDF733FC03F0ABFF4FF404
:103498007E41C4F2FF61FDF72BFC02F043FCFDF70F
:1034A800EDFD0134A8800435B4F5806FC5D138BD71
:1034B800160F002010B5012002F01CFC00F042FAA3
:1034C800D02000F0DDFA00F0A5FF752000F0D8FA52
:1034D80000F0A0FF00F05CFA012002F00BFC00F005
:1034E80031FAD12000F0CCFA00F094FF00F01EFC75
:1034F800044600F09DFA00F04BFA682C40F0CB80AF
:10350800052002F0F7FB00F01DFAD02000F0B8FA11
:1035180000F080FF192000F0B3FA00F07BFF0020D4
:1035280000F0AEFA00F076FF00F032FA052002F063
:10353800E1FB00F007FAD02000F0A2FA00F06AFFE1
:103548001A2000F09DFA00F065FF022000F098FABA
:1035580000F060FF00F01CFA052002F0CBFB00F041
:10356800F1F9D02000F08CFA00F054FF1B2000F095
:1035780087FA00F04FFF082000F082FA00F04AFFB7
:1035880000F006FA052002F0B5FB00F0DBF9D020C8
:1035980000F076FA00F03EFF1C2000F071FA00F00F
:1035A80039FF082000F06CFA00F034FF00F0F0F961
:1035B800052002F09FFB00F0C5F9D02000F060FA6A
:1035C80000F028FF372000F05BFA00F023FF00200E
:1035D80000F056FA00F01EFF00F0DAF9052002F0BC
:1035E80089FB00F0AFF9D02000F04AFA00F012FF92
:1035F800382000F045FA00F00DFF002000F040FAF6
:1036080000F008FF00F0C4F9052002F073FB00F099
:1036180099F9D02000F034FA00F0FCFE6A2000F09E
:103628002FFA00F0F7FE012000F02AFA00F0F2FE6F
:1036380000F0AEF9052002F05DFB00F083F9D02020
:1036480000F01EFA00F0E6FE6B2000F019FA00F018
:10365800E1FE002000F014FA00F0DCFE00F098F91A
:10366800052002F047FB00F06DF9D02000F008FAC1
:1036780000F0D0FE6C2000F003FA00F0CBFE002032
:1036880000F0FEF900F0C6FE00F082F9052002F015
:1036980031FB002010BD4FF0FF3010BD70B5224C3B
:1036A80000230E462360054600F04CF9D02000F0B8
:1036B800E7F900F0AFFE206800B170BDE8B200F095
:1036C800DFF900F0A7FE21680029F6D100F060F9C3
:1036D80000F038F9D12000F0D3F900F09BFE226801
:1036E800002AEAD100F022FB307000F079F900F0EE
:1036F8001DFB707000F074F900F018FBB07000F05A
:103708006FF900F013FBF07000F06AF900F00EFB9F
:10371800307100F065F900F009FB707100F088F96C
:10372800BDE8704000F034B91C17002010B582B015
:10373800044669463B20FFF7B1FF114B1868E8B90A
:103748009DF800109DF8012042EA012318B2FDF708
:103758007BFA9DF802109DF80320206042EA0120C0
:1037680000B2FDF771FA9DF804109DF8053060600D
:1037780043EA012210B2FDF767FAA06002B010BD5B
:103788001C17002010B582B0044669464320FFF795
:1037980085FF224B186800283ED19DF801109DF83E
:1037A800002041EA02231E4A18B21380FDF74CFAA2
:1037B8001C490968FDF792F90021C4F2FA51FDF796
:1037C8004BFB9DF803309DF80220206043EA02215C
:1037D800154A08B21180FDF737FA144B1968FDF73E
:1037E8007DF90021C4F2FA51FDF736FB9DF805205A
:1037F8009DF80410606042EA01230D4918B20B805D
:10380800FDF722FA0B4A1168FDF768F90021C4F2A6
:10381800FA51FDF721FBA06002B010BD1C17002073
:10382800140A0020180A00200C0A00201C0A002094
:10383800160A0020100A00202DE9F04F394EDFF853
:10384800F0A0394DDFF8EC90384CDFF8EC8087B009
:10385800002703A8FFF796FFBAF90000FDF7F4F96F
:103868003168FDF73DF93060B9F90000FDF7ECF972
:103878002968FDF735F92860B8F90000FDF7E4F983
:103888002168FDF72DF92060022002F033FA03A821
:10389800FFF778FFBAF90000FDF7D6F93168FDF7B0
:1038A8001FF93060B9F90000FDF7CEF92968FDF776
:1038B80017F92860B8F90000FDF7C6F92168FDF787
:1038C8000FF90137FFB22060022002F013FA781CCA
:1038D800C7B2642FDFF84CB0134A144BB9D100219A
:1038E800DBF80000C4F2C82101920093FDF7B4FA96
:1038F800CBF8000001980021C4F2C8210068FDF748
:10390800ABFA019A009B00211060C4F2C821186824
:10391800FDF7A2FA00990860052002F0EBF907B05C
:10392800BDE8F08F180A00201C0A0020100A0020A9
:10393800140A00200C0A0020160A0020012002F0B8
:10394800D1B900BF10B54FF44064C4F20104204659
:1039580001224FF40061FEF779F9204601224FF465
:103968008061FEF773F9FFF7E9FF204600224FF464
:103978000061FEF76BF9FFF7E1FF20464FF4806125
:103988000022FEF763F9BDE81040FFF7D7BF00BF7C
:1039980010B54FF44064C4F20104204600224FF4ED
:1039A8008061FEF753F9FFF7C9FF204600224FF464
:1039B8000061FEF74BF9FFF7C1FF204601224FF4E3
:1039C8008061FEF743F9FFF7B9FF20464FF4006125
:1039D8000122FEF73BF9BDE81040FFF7AFBF00BF7B
:1039E80010B54FF44064C4F20104204600224FF49D
:1039F8008061FEF72BF9FFF7A1FF204600224FF464
:103A08000061FEF723F9FFF799FF204601224FF4E2
:103A18008061FEF71BF9FFF791FF20464FF48061A4
:103A28000022FEF713F9BDE81040FFF787BF00BF7B
:103A380010B54FF44064C4F20104204600224FF44C
:103A48008061FEF703F9FFF779FF204601224FF462
:103A58000061FEF7FBF8FFF771FF204601224FF4E3
:103A68008061FEF7F3F8FFF769FF20464FF48061A5
:103A78000022FEF7EBF8BDE81040FFF75FBF00BF7C
:103A880010B504464FF44060C4F201004FF4806161
:103A98000022FEF7DBF8FFF751FF4FF440602206E3
:103AA800C4F201004FF4006100F120810022FEF70A
:103AB800CDF86000C4B2FFF741FF4FF44060012227
:103AC800C4F201004FF48061FEF7C0F8FFF736FF3B
:103AD8004FF44060C4F201004FF480610022FEF709
:103AE800B5F8FFF72BFF4FF440602306C4F201003E
:103AF8004FF4006100F1FE800022FEF7A7F8610094
:103B0800CCB2FFF71BFF4FF440600122C4F2010062
:103B18004FF48061FEF79AF8FFF710FF4FF440600A
:103B2800C4F201004FF480610022FEF78FF8FFF71E
:103B380005FF4FF440602206C4F201004FF4006113
:103B480000F1DC800022FEF781F86200D4B2FFF7B2
:103B5800F5FE4FF440600122C4F201004FF4806189
:103B6800FEF774F8FFF7EAFE4FF44060C4F2010074
:103B78004FF480610022FEF769F8FFF7DFFE4FF48B
:103B880040602306C4F201004FF4006100F1BA80DE
:103B98000022FEF75BF86300DCB2FFF7CFFE4FF4BC
:103BA80040600122C4F201004FF48061FEF74EF834
:103BB800FFF7C4FE4FF44060C4F201004FF4806187
:103BC8000022FEF743F8FFF7B9FE4FF440602206E3
:103BD800C4F201004FF4006100F198800022FEF762
:103BE80035F86000C4B2FFF7A9FE4FF44060012227
:103BF800C4F201004FF48061FEF728F8FFF79EFE3B
:103C08004FF44060C4F201004FF480610022FEF7D7
:103C18001DF8FFF793FE4FF440602306C4F201003D
:103C28004FF4006176D40022FEF710F86100CCB2A0
:103C3800FFF784FE4FF440600122C4F201004FF404
:103C48008061FEF703F8FFF779FE4FF44060C4F295
:103C580001004FF480610022FDF7F8FFFFF76EFEC8
:103C68004FF440602206C4F201004FF4006155D4BD
:103C78000022FDF7EBFFFFF761FE4FF440600122E1
:103C8800C4F201004FF48061FDF7E0FFFFF756FE34
:103C98004FF44060C4F201004FF480610022FDF748
:103CA800D5FFFFF74BFE4FF440606306C4F20100F6
:103CB8004FF4006136D40022FDF7C8FFFFF73EFE3F
:103CC8004FF440600122C4F201004FF48061FDF717
:103CD800BDFFFFF733FE4FF44060C4F201004FF41C
:103CE80080610022BDE81040FDF7B0BF0122FDF75A
:103CF800ADFFDEE60122FDF7A9FF00E70122FDF78F
:103D0800A5FF22E70122FDF7A1FF44E70122FDF705
:103D18009DFF66E70122FDF799FF87E70122FDF77E
:103D280095FFA8E70122FDF791FFC7E74FF4406030
:103D38002DE9F0470122C4F201004FF40061FDF7BC
:103D480085FF4FF440600022C4F201004FF4806107
:103D5800FDF77CFFFFF7F2FD4FF440600122C4F24B
:103D680001004FF48061FDF771FF4FF440604FF49C
:103D78000061C4F20100FDF75FFF04464FF44060A4
:103D88004FF40061C4F20100FDF756FF07464FF4F7
:103D980040604FF40061C4F20100FDF74DFF814619
:103DA8004FF440604FF40061C4F20100FDF744FF96
:103DB80080464FF440604FF40061C4F20100FDF703
:103DC8003BFF06464FF440604FF40061C4F2010027
:103DD800FDF732FF05464FF440604FF40061C4F22E
:103DE8000100FDF729FF09EB0803D9198A195719AA
:103DF8003E184FF440604FF40061C4F20100FDF733
:103E08001BFF341904F0FF052B184FF44060DFB294
:103E18000022C4F201004FF48061032F8CBF0224FA
:103E28001446FDF713FFFFF789FD4FF440600122A8
:103E3800C4F201004FF48061FDF708FF4FF44060C1
:103E48004FF40061C4F20100FDF7F6FE05464FF499
:103E580040604FF40061C4F20100FDF7EDFE8146B9
:103E68004FF440604FF40061C4F20100FDF7E4FE36
:103E780082464FF440604FF40061C4F20100FDF740
:103E8800DBFE80464FF440604FF40061C4F201004D
:103E9800FDF7D2FE07464FF440604FF40061C4F2CC
:103EA8000100FDF7C9FE06464FF440604FF400617B
:103EB800C4F20100FDF7C0FE0AEB090101EB08029C
:103EC800D3199F193E184FF440604FF40061C4F2B3
:103ED8000100FDF7B1FE751905F0FF073818C1B2EA
:103EE800032988BF44F001044FF4406088BFE4B25E
:103EF800C4F2010000224FF48061FDF7A7FEFFF72E
:103F08001DFD4FF440600122C4F201004FF48061AE
:103F1800FDF79CFE4FF440604FF40061C4F20100CD
:103F2800FDF78AFE05464FF440604FF40061C4F285
:103F38000100FDF781FE81464FF440604FF40061B7
:103F4800C4F20100FDF778FE82464FF440604FF45A
:103F58000061C4F20100FDF76FFE80464FF4406037
:103F68004FF40061C4F20100FDF766FE07464FF406
:103F780040604FF40061C4F20100FDF75DFE0646A3
:103F88004FF440604FF40061C4F20100FDF754FEA5
:103F98000AEB090202EB0803D9198F193E184FF4EE
:103FA80040604FF40061C4F20100FDF745FE751949
:103FB80005F0FF073818C2B26400032A84BF44F032
:103FC8000104E4B24FF4406063000022C4F201002F
:103FD8004FF48061DCB2FDF739FEFFF7AFFC4FF418
:103FE80040600122C4F201004FF48061FDF72EFE0B
:103FF8004FF440604FF40061C4F20100FDF71CFE6D
:1040080005464FF440604FF40061C4F20100FDF72B
:1040180013FE81464FF440604FF40061C4F2010082
:10402800FDF70AFE82464FF440604FF40061C4F287
:104038000100FDF701FE80464FF440604FF4006137
:10404800C4F20100FDF7F8FD07464FF440604FF455
:104058000061C4F20100FDF7EFFD06464FF4406031
:104068004FF40061C4F20100FDF7E6FD0AEB090117
:1040780001EB0802D3199F193E184FF440604FF422
:104088000061C4F20100FDF7D7FD751905F0FF07BF
:104098003818C1B203294FF4406088BF44F00104C6
:1040A800C4F2010000224FF48061FDF7CFFDFFF755
:1040B80045FC4FF440600122C4F201004FF48061D6
:1040C800FDF7C4FD4FF440604FF40061C4F20100F5
:1040D800FDF7B2FD05464FF440604FF40061C4F2AD
:1040E8000100FDF7A9FD81464FF440604FF40061DF
:1040F800C4F20100FDF7A0FD82464FF440604FF482
:104108000061C4F20100FDF797FD80464FF440605E
:104118004FF40061C4F20100FDF78EFD07464FF42D
:1041280040604FF40061C4F20100FDF785FD0646CA
:104138004FF440604FF40061C4F20100FDF77CFDCC
:104148000AEB090202EB0803D9198F193E184FF43C
:1041580040604FF40061C4F20100FDF76DFD751970
:1041680005F0FF073818C2B26400E4B2032A4FF41E
:10417800406088BF44F00104C4F2010000224FF4FB
:104188008061FDF763FDFFF7D9FB4FF44060012222
:10419800C4F201004FF48061FDF758FD4FF4406010
:1041A8004FF40061C4F20100FDF746FD05464FF4E7
:1041B80040604FF40061C4F20100FDF73DFD814607
:1041C8004FF440604FF40061C4F20100FDF734FD84
:1041D80082464FF440604FF40061C4F20100FDF7DD
:1041E8002BFD80464FF440604FF40061C4F201009B
:1041F800FDF722FD07464FF440604FF40061C4F21A
:104208000100FDF719FD06464FF440604FF40061C8
:10421800C4F20100FDF710FD0AEB090303EB0801E6
:10422800CA1997193E184FF440604FF40061C4F260
:104238000100FDF701FD751905F0FF073818C3B235
:104248006400E4B2032B4FF4406088BF44F00104DB
:10425800C4F2010000224FF48061FDF7F7FCFFF77C
:104268006DFB4FF440600122C4F201004FF48061FD
:10427800FDF7ECFC4FF440604FF40061C4F201001C
:10428800FDF7DAFC05464FF440604FF40061C4F2D4
:104298000100FDF7D1FC81464FF440604FF4006106
:1042A800C4F20100FDF7C8FC82464FF440604FF4A9
:1042B8000061C4F20100FDF7BFFC80464FF4406086
:1042C8004FF40061C4F20100FDF7B6FC07464FF455
:1042D80040604FF40061C4F20100FDF7ADFC0646F2
:1042E8004FF440604FF40061C4F20100FDF7A4FCF4
:1042F8000AEB090101EB0802D3199F193E184FF484
:1043080040604FF40061C4F20100FDF795FC751997
:1043180005F0FF073818C1B26400E4B203294FF46E
:10432800406088BF44F00104C4F2010000224FF449
:104338008061FDF78BFCFFF701FB4FF44060012221
:10434800C4F201004FF48061FDF780FC4FF4406037
:104358004FF40061C4F20100FDF76EFC05464FF40E
:1043680040604FF40061C4F20100FDF765FC81462E
:104378004FF440604FF40061C4F20100FDF75CFCAB
:1043880082464FF440604FF40061C4F20100FDF72B
:1043980053FC80464FF440604FF40061C4F20100C2
:1043A800FDF74AFC07464FF440604FF40061C4F241
:1043B8000100FDF741FC06464FF440604FF40061F0
:1043C800C4F20100FDF738FC0AEB090202EB08030E
:1043D800D9198A1913184FF440604FF40061C4F2D8
:1043E80001005D19FDF728FC05F0FF054019C1B271
:1043F8006400E4B203294FF4406088BF44F001042C
:10440800C4F201004FF480610022FDF71FFC204632
:10441800BDE8F0874FF4406008B50022C4F20100FF
:104428004FF48061FDF712FCFFF788FA4FF4406003
:104438000122C4F201004FF40061FDF707FCFFF709
:104448007DFA4FF440600122C4F201004FF480610C
:10445800FDF7FCFBFFF772FA4FF44060C4F201006D
:104468004FF40061FDF7E8FB01280AD04FF44060E3
:10447800C4F201004FF480610022BDE80840FDF756
:10448800E5BB044B186001F0FDFB03480268511CB2
:104498000160EBE71C1700201817002010B5084C26
:1044A80023685A1CB3F57A7F226008DD01F0DEFB31
:1044B80000F0CAFC5720FDF7FBFF0020206010BD6C
:1044C800240A002008B5012142F67D20FDF792FC60
:1044D8000F200121C0F20800FDF79AFC01200146D7
:1044E800BDE80840FDF778BC40F62023C2F200037F
:1044F8001868704710B501F0EBF9FFF7E3FF00F01B
:1045080083F962B6FDF7DEFF4648FDF765FF4648CA
:10451800FDF762FF00F0C6FC142401F0A7FB01F0D0
:10452800C1FB642001F0E6FB013C01F09FFB01F0B8
:10453800B9FB642001F0DEFB013CEED102F0D6FCB1
:10454800002860D03948FDF747FF40F6B83001F041
:10455800D1FB02F0CBFC012860D03548FDF73CFFC9
:1045680034483549FDF738FF344A4FF48053C4F2D4
:10457800020318684DF683611368C4F21B3110F406
:10458800003FA1FB030114BF2D482E48890CFDF7FD
:1045980023FF2D48FDF720FFFDF7A6FE2B48FDF76A
:1045A8001BFF04E02A48FDF717FF01F087FBFEF721
:1045B80081FF0028F6D12748FDF70EFFFEF7D8F84F
:1045C80001F064F901462448FDF706FFFFF734F9C6
:1045D8002248FDF701FF00F0F7FC2148FDF7FCFE3B
:1045E800FEF768FBFEF726FFFDF742FF002802DD15
:1045F8001C48FDF7F1FE1C48FDF7EEFE1B48BDE820
:10460800104001F05FB91A48FDF7E6FE40F6B830F1
:1046180001F070FB1748FDF7DFFE9EE71648FDF72F
:10462800DBFE9AE788DC0008ACDC0008C0DC000888
:1046380074DD0008C8DD000854DA000844000020D2
:1046480000DE000838DE000874DE000884DE00089A
:1046580098DE0008BCDE0008D0DE0008F4DE0008A2
:1046680004DF000818DF000854DF0008A54400082C
:1046780010DD000840DD0008DCDC00082DE9F84FFB
:10468800FFF738FF01F002F9044601F0FFF8844211
:10469800FBD001F0CFF8054672B64FF0000840F2A3
:1046A800F31601F0C7F8401BB04208F10108F8D929
:1046B80062B601F0BFF8DFF890B0DFF890A00546C9
:1046C8004FEA4808002740F2CF76002401F0B2F8FC
:1046D8008146401B0134B042F8D9FCF7B1FA0546CF
:1046E8002046FCF7B1FA0021C4F2C821FCF700FB10
:1046F8000021C4F27A41FCF7FBFA2946FCF7ACFB2F
:1047080004464046FCF7A0FA01462046FCF7A4FB05
:10471800DAF80020CBF800008AB94FF41051C4F63B
:1047280074112846FCF798FBFEF7D0FB40F62423CB
:10473800C2F200031F604D46FDF7D8FEC5E700F042
:1047480083FB01F0BBFAF1E7200A0020E00E00200D
:10475800012830B409D002281AD0174B09221A6050
:104768004FF0FF32104630BC7047002AFADD4FF494
:1047780098448818C4F20004238803F040039BB2CD
:10478800002BF9D011F8013B8142A380F4D1E9E76D
:10479800002AE7DD4FF498448D18C4F200042088FD
:1047A80000F0400398B20028F9D011F8013BA94263
:1047B800A380F4D1D6E700BF141A00200D4A08B52B
:1047C80013689BB1EFF308811818884202D810606B
:1047D800184608BD192202200749FFF7B9FF074B01
:1047E8000C221A604FF0FF33184608BD044B1360C3
:1047F800E8E700BF280A00206CDF0008141A002030
:10480800181A0020704700BF2DE9F04F4FF40067D9
:1048180083B0C4F201074FF4406618250224C4F29D
:1048280001064FF4E063384601A9ADF804308DF86D
:1048380007508DF80640FDF7CDF84FF4604230463A
:1048480001A9ADF804208DF807508DF80640FDF752
:10485800C1F84FF480504FF4E07B01A9C4F2010085
:10486800ADF804B08DF807508DF80640FDF7B2F8A2
:104878008023384601A94FF00308ADF804308DF8BD
:1048880007508DF80640FDF7A5F8304601A9ADF8A8
:1048980004808DF807508DF80640FDF79BF8072235
:1048A800384601A9ADF804208DF807508DF8064068
:1048B800FDF790F8304601A94FF0100AADF804B0A2
:1048C8008DF807508DF80640FDF784F84FF48053B3
:1048D800304601A9ADF804308DF807A08DF80680A0
:1048E800FDF778F80822384601A9ADF804208DF8BC
:1048F80007A08DF80680FDF76DF84FF44063142289
:10490800304601A9C146ADF804308DF807208DF86E
:104918000680FDF75FF803B0BDE8F08F38B50446B0
:104928000D46FDF7FDFA20462946FDF755FB2046C2
:104938002946FDF79BFB20460821FDF713FC20467E
:104948000821FDF717FC20460821BDE83840FDF78F
:104958001BBC00BF70B58CB00024032201A94FF422
:104968007A760546ADF80420ADF80860ADF8064043
:10497800ADF80A408DF80C40FDF766FA40F23000B9
:10498800C2F2000003684FF40062ADF810204FF443
:1049980080624FF48076284604A9ADF81220ADF85D
:1049A80016304FF480424FF40053ADF81A30ADF88A
:1049B8001C20ADF81460ADF81840FDF7A1FB60238A
:1049C800ADF8203001220423284608A9ADF822209A
:1049D800ADF82430ADF82640ADF82840ADF82A40AF
:1049E800ADF82C60ADF82E40FFF798FF0CB070BD05
:1049F80070B5032388B006460D46002401A9ADF81A
:104A080004304FF47A724FF40073ADF80820ADF813
:104A18000A30ADF80640FDF717FA60220123304648
:104A280004A9ADF81020ADF81230ADF81640ADF875
:104A38001850FFF773FF08B070BD00BF00B583B012
:104A480000238DF80400012101A88DF805308DF8A8
:104A580006308DF80710FCF757FE03B000BD00BF05
:104A6800124A30B413680468C3F5FA714900E31AAE
:104A78008B42A8BF0B46036014684568A342B8BFC1
:104A88000023036013688468EA1AE41A8A42A8BFFC
:104A98000A468C42B8BF21469A42B8BF00228B42D0
:104AA800C8BF00214260816030BC704728000020E8
:104AB800F8B5364B05461C680E46204600211746B9
:104AC800FCF7C8FA002858D040F6DB71C4F2C901D7
:104AD8002046FCF7C1F94FF08941FCF709F901F0CC
:104AE80021F9FCF7CBFA40F2FF33C8F20003034088
:104AF800002B44DB002BB8BF03F5806303F2551687
:104B080003F2AB242248B105A2058E0D940D30F9AD
:104B1800131030F9163030F9140007EB870707FB3C
:104B280000F207FB01F107FB03F301F57F510324B2
:104B380003F57F5302F57F523F31C8F201043F333A
:104B48003F3284FB010684FB037084FB0274C018A7
:104B5800CF17DB17A4187618D217C7EBA631C3EB0B
:104B6800A037C2EBA43001F5FA7107F5FA7300F526
:104B7800FA7285E80A00AA60F8BD3446A4E7581E10
:104B88006FEA80516FEA9152531CB3E7240000206A
:104B9800180F002000B5034685B00A4601A819463B
:104BA800FFF786FF72B640F62C20019A0299039B04
:104BB800C2F2000002604160836062B672B64FF4D0
:104BC8005050C4F20100028A22F001010B041A0CB1
:104BD80001210282818162B605B000BD00B503469D
:104BE80085B00A4601A81946FFF762FF72B640F67B
:104BF8003820019A0299039BC2F2000002604160CA
:104C0800836062B672B64FF43050C4F20100028A73
:104C180022F001010B041A0C01210282818162B683
:104C280005B000BD00B585B00A46014601A8FFF7EA
:104C38003FFF01A8FFF714FF72B640F64423019A1C
:104C480002980399C2F200031A605860996062B62C
:104C580040F22C03C2F2000300221A6072B64FF42D
:104C68004060C4F20000018A21F001031A04110C0B
:104C780001230182838162B605B000BD4FF4406311
:104C8800C4F200031A8AF0B4D2071AD5188A20F0A1
:104C980001010C04220C1A8272B6294A2949946827
:104CA8009B8C886801349BB29460274A8342C8BFB2
:104CB8008B6091688B42B8BF9360B3F5487F02D38D
:104CC80062B6F0BC70472148036833BB204E214DC3
:104CD80037682C88A88829897A0093B21F191E186A
:104CE8005D184FF400624FF44063C4F20002C4F24E
:104CF8000003BFB2B6B2ADB29786168795879C8679
:104D0800188799874FF44062C4F20002938923F010
:104D1800010001040B0C9381D2E74FF400624FF4B9
:104D28004063C4F2000240F2E930C4F200030021FB
:104D3800908610879087998619879987E2E700BF40
:104D480038170020201700202C1700202C000020E6
:104D580028000020440A00204FF43052C4F2010217
:104D6800138A10B423F0010001040C0C148272B6EB
:104D780013491448938C4C6842689BB2013493429F
:104D8800C8BF436010484C6041688B42B8BF43605D
:104D9800B3F5487F10D20D4A4FF4305310889188EC
:104DA8001289C4F20103988619879A87988920F096
:104DB80001010A04100C988162B610BC704700BF4C
:104DC80038170020201700202C170020380A002050
:104DD8004FF45052C4F20102138A10B423F00100B8
:104DE80001040C0C148272B613491448938C0C6895
:104DF80002689BB201349342C8BF036010480C603C
:104E080001688B42B8BF0360B3F5487F10D20D4AE2
:104E18004FF45053108891881289C4F20103988680
:104E280019879A87988920F001010A04100C988143
:104E380062B610BC704700BF38170020201700204A
:104E48002C1700202C0A002010B54120FDF730FB5C
:104E580072B640F62C22C2F200020023136053609F
:104E6800936062B672B640F63820C2F20000036062
:104E78004360836062B640F22C024FF440644FF402
:104E880030504FF450510123C2F20002C4F2000422
:104E9800C4F20100C4F201011360A38183818B81F4
:104EA80010BD00BF2DE9F0414FF43056C4F20106A1
:104EB80041F2387141F2207241F22C734FF450558F
:104EC8000024C2F20002C2F20003C2F2000140F262
:104ED800E9373046C4F201054FF4406894605460E5
:104EE80014609F605F601F608C604C600C60C4F24F
:104EF8000008FFF72FFD4FF400672846FFF72AFD4B
:104F0800C4F2000740462146FFF772FD02213846E9
:104F1800FFF76EFD40F22800C2F20000038832203D
:104F280003F5A87103F29F2289B292B2BB84B184BF
:104F3800AA84FFF783FD1920FFF780FD2C20FFF7D7
:104F48007DFD72B64FF40040214602460346012417
:104F5800C4F22522C4F22623C4F20120C4F201219E
:104F680004600C604046146021461C60FDF7EAF8B6
:104F780038462146FDF7E6F830462146FDF7E2F8C7
:104F880028462146FDF7DEF862B6BDE8F08100BF8D
:104F980010B54FF4806484B0C4F2000447220023A3
:104FA80001A92046ADF804204FF6FF72ADF806308F
:104FB800ADF80820ADF80A30FCF746FF204601217D
:104FC800FDF7B2F804B010BD30B54FF4007085B0ED
:104FD8000121C0F23000FCF743FE4FF44060182373
:104FE8002822032501A9C4F20100ADF804308DF888
:104FF800072004248DF80650FCF7ECFC4FF4805091
:105008000DEB0401C4F20100ADF80440FCF7E2FC2A
:1050180001202946FCF760FE01202146FCF75CFED2
:1050280002200146FCF758FE1C240021102301220F
:1050380002A88DF80C108DF80D308DF80E20029412
:10504800FCF77CFC2046FCF7B7FC2046FCF7BCFCD0
:105058004FF46140CEF200004FF400714FF48063CA
:105068004FF48072016003600260FFF791FF05B0A2
:1050780030BD00BF10B54FF48064C4F20104636909
:10508800190700D410BD3320FDF712FA61694FF4F7
:10509800406041F0080262610821C4F20100FCF797
:1050A800CBFD012827D0184C4FF44060C4F2010012
:1050B8000821FCF7C1FD80B114490B8822886FF4E0
:1050C8007A71981A83B25A1890B240F2E63188423F
:1050D8000CD90F4B00221A6010BD4FF48062C4F245
:1050E8000002908C094983B20B80E7E70849A3F5D1
:1050F8007A70086010BD4FF48060C4F20000838CA1
:10510800014C2380D0E700BF640A0020620A002017
:10511800540A002010B54FF48064C4F20104636996
:105128005B0700D410BD3220FDF7C2F961694FF466
:10513800805041F0040262610421C4F20100FCF7CE
:105148007BFD012827D0184C4FF48050C4F2010091
:105158000421FCF771FD80B114490B8822886FF493
:105168007A71981A83B25A1890B240F2E63188429E
:105178000CD90F4B00221A6010BD4FF48062C4F2A4
:105188000002908C094983B20B80E7E70849A3F530
:105198007A70086010BD4FF48060C4F20000838C00
:1051A800014C2380D0E700BF660A0020600A002077
:1051B800500A002010B54FF48064C4F201046369FA
:1051C800D90600D410BD3420FDF772F961694FF497
:1051D800406041F0100262611021C4F20100FCF746
:1051E8002BFD012827D0184C4FF44060C4F2010071
:1051F8001021FCF721FD80B114490B8822886FF437
:105208007A71981A83B25A1890B240F2E6318842FD
:105218000CD90F4B00221A6010BD4FF48062C4F203
:105228000002908C094983B20B80E7E70849A3F58F
:105238007A70086010BD4FF48060C4F20000838C5F
:10524800014C2380D0E700BF5E0A00205C0A0020E2
:10525800580A0020F8B5584B05461E680C46002E23
:105268006BD00021C4F247316068FBF741FD074667
:105278003046FBF7E9FC0021C4F2FA31FBF72EFCBB
:1052880001463846FBF72CFC0021C4F24831FBF7F5
:10529800E3FD00216060C4F2A0110646FBF7E4FEBE
:1052A800002842D041F26F213046C3F60331FBF7A4
:1052B8001FFD424968600E68002E44D1404B002211
:1052C8001E682A60002E6AD00021C4F24731A06807
:1052D800FBF70EFD07463046FBF7B6FC0021C4F28B
:1052E800FA31FBF7FBFB01463846FBF7F9FB0021D7
:1052F800C4F24831FBF7B0FD0021A060C4F2A01150
:105308000646FBF7B1FE38B900213046CCF2A011B1
:10531800FBF78CFE002842D041F26F213046C3F6DD
:105328000331FBF7E5FCA860F8BD00213046CCF25C
:10533800A011FBF77BFE0028B4D1204900200E689D
:105348006860002EBAD00021C4F247312068FBF70C
:10535800CFFC07463046FBF777FC0021C4F2FA3150
:10536800FBF7BCFB01463846FBF7BAFB0021C4F249
:105378004831FBF771FD00212060C4F2A0110646F8
:10538800FBF772FE70B141F26F213046C3F603316C
:10539800FBF7AEFC0A4B28601E68002E94D1002053
:1053A800A860F8BD00213046CCF2A011FBF73EFE04
:1053B800002883D0E7E700BF540A0020500A0020E5
:1053C800580A00204FF46D430422CEF20003C0F2C5
:1053D800FA52DA6000BFFDE708B5134BB3F1006F6E
:1053E80000D108BD4FF48052C4F20202D1694FF4D3
:1053F800E04041F0C053D361C4F2000001684FF4AB
:10540800D84241F480730360C4F2000246F6B43116
:1054180044F6FC23A2F8B810A2F8BC30026822F4C3
:1054280080710160FFF7CEFF0000000800230360D1
:10543800C0F80C1243608360704700BF4FF40070DF
:10544800704700BF4268036840F2FF10D11A01F5A7
:105458000072C8F200001040002800DB70470138D5
:105468006FEAC0536FEAD351481C704738B542B34E
:1054780040F2FF1501E0AB4213D14468026840F2E4
:10548800FF13A21A02F50072C8F200031340002BA2
:10549800F1DA013B6FEAC3526FEAD2530133AB42F0
:1054A800EBD043684268C318197340F2FF118A426F
:1054B8001BD04268531C4360D0F80C0200B18047EF
:1054C80038BD4468026840F2FF13A21A02F5007260
:1054D800C8F200031340002B0ADB40F2FF1293428C
:1054E800DFD181684B1C836038BD00214160E3E750
:1054F800013B6FEAC3526FEAD253013340F2FF1205
:105508009342CED1EDE700BFF8B504460E461546E6
:10551800002B34D040F2FF1702E0E818B84214DD3F
:105528006068216840F2FF13421A02F50070C8F261
:1055380000030340002BF0DA013B6FEAC3516FEA26
:10554800D152531CE818B842EADC67686268C7F5AC
:105558000077BD42314604EB020028DD3A46ED1BD8
:105568000C3003F025FB04F10C00F1192A4603F076
:105578001FFB6560D4F80C1201B18847F8BD41687B
:10558800026840F2FF13881A00F50071C8F20003A0
:105598000B40002B18DBE918B1F5007FD5DBA268BA
:1055A800D4F80C125519A5600029E6D1E6E70C30AD
:1055B8002A4603F0FDFA61684B19B3F5007F0ED057
:1055C800606845196560D5E7013B6FEAC3526FEA29
:1055D800D250431CE918B1F5007FB6DBDFE70022A3
:1055E8006260C7E701684268034691420ED00068CE
:1055F80019681A18107B40F2FF12914203D01968FB
:105608004A1C1A6070470021196070474FF0FF303C
:10561800704700BF704700BFFEE700BFFEE700BF4E
:10562800FEE700BFFEE700BF704700BF704700BF3E
:10563800704700BF01F076BC4FF48020FCF7C4B976
:1056480010B5044600F0F6F82060606010BD00BF99
:1056580010B5044600F0EEF863686060C01A10BD2B
:1056680005C8101A704700BF4FF48053C4F20203F4
:105678005A6802F00C00082811D04FF49052C0F27A
:105688007A024FF48053C4F2020358681049C0F3F9
:105698000313C85C0F4B22FA00F21A60704758686F
:1056A8005968C0F383420232C90309D55B689B037A
:1056B80006D44FF49050C0F27A0000FB02F2E0E703
:1056C8004FF41061C0F23D0101FB02F2D9E700BFBF
:1056D80034000020440000204FF48053C4F2020339
:1056E800196800B541F00100186059680022CFF62A
:1056F800FF020A405A601A68002122F0847020F4E0
:1057080080321A60186883B020F480221A605868C2
:105718001A4620F4FE0058604FF41F00986000916C
:105728000191196841F48030186003E00098B0F5E1
:10573800A06F09D0136803F4003101910098431C4D
:10574800009301990029F1D04FF48052C4F202026B
:10575800136813F400314CD0012001904FF400522B
:10576800C4F20202019B1168012B41F01000106085
:1057780011684FF4805321F0030010601068C4F2E0
:10578800020340F0020010605A6819465A605868CF
:1057980058605A6842F4806058605A6822F47C1055
:1057A80058605A6827D042F4601058601A6842F06E
:1057B800807018600A684FF480539001C4F20203A5
:1057C800F8D55968184621F003025A60596841F023
:1057D80002025A60436803F00C010829FAD1FFF766
:1057E80043FF4FF46D40124ACEF20000826003B0CE
:1057F80000BD0191B2E742F4E81058601A6842F01F
:10580800807018600A684FF480539201C4F2020352
:10581800F8D55968184621F003025A60596841F0D2
:1058280002025A60436803F00C010829FAD1D8E74C
:105838000000000830B413494EF21004CEF2000400
:105848004EF210020B68CEF20002A56800BF00BF3E
:1058580008688342F4D11168C90348BF95684EF2BD
:105868001002CEF200025068074A48BF0133411CBB
:1058780010684D1BB5FBF0F54FF47A7101FB03502E
:1058880030BC7047680A00204800002040F66823B2
:10589800C2F200031868704708B572B6074B4EF29B
:1058A8001002CEF2000212681868411C196062B634
:1058B800034B1A6802B1904708BD00BF680A002070
:1058C8006C0A002040F66C23C2F20003186070478F
:1058D800134B44F6D3511A68C1F262014DF6836343
:1058E800A1FB0201C4F21B33A3FB02028809930C3B
:1058F800411E0C4AB1F1807F13600FD24EF21000A6
:10590800CEF200004FF46D434160CEF20003F02167
:1059180083F823100022072382600360704700BFCA
:1059280044000020480000204FF49840C4F20000D2
:1059380040F227710122FCF7BBBC00BF00B54FF451
:10594800A06083B0FBF7D6FE01233422002101A812
:105958008DF804208DF805308DF806108DF8073085
:10596800FBF7D2FE03B000BD40F68040C2F2000053
:10597800FFF738BE08B50348FFF764FD0028FAD1E1
:1059880008BD00BF700A0020014640F67020C2F230
:1059980000000122FFF76ABD10B50446007828B15F
:1059A800FFF7F2FF14F8010F0028F9D110BD00BF6E
:1059B8004FF49843C4F2000370B52A4A1D88116851
:1059C800ADB205F08000013180B2116090B1264C73
:1059D80021686268914231D026682046A1190A7B65
:1059E8009A802668FFF72AFD0136864233D023685D
:1059F800581C206005F02005ADB205B970BD1B4CE0
:105A08004FF49842C4F2000220469688FFF71AFD28
:105A180005462046FFF712FD6B1C8342B6B216D02E
:105A280061682046621865681673FFF707FD01353F
:105A3800854213D06068431C636070BD184640F20D
:105A480027710022FCF734FC00BF00BFD2E7A26830
:105A5800501CA06070BD00212160CBE7002161606F
:105A680070BD00BF44170020700A0020800C002081
:105A780040F6702045F6311108B5C2F20000C0F6B4
:105A88000001FFF7D3FC40F68040C2F2000000217D
:105A9800BDE80840FFF7CABC30B54FF4805589B05F
:105AA800C4F201051822284601A94FF48063032493
:105AB800ADF804308DF807208DF80640FBF78AFF13
:105AC8004FF4984428224FF4006301A92846C4F2F1
