:020000040800F2
:1000000000C00020A9160008295600082D56000837
:100010003156000835560008395600080000000027
:100020000000000000000000000000003D56000835
:10003000415600080000000045560008AD58000871
:10004000F9160008F9160008F9160008F916000854
:10005000F9160008F9160008F9160008F916000844
:100060002951000889500008C9510008F9160008F4
:10007000F9160008F9160008F9160008F916000824
:10008000F9160008F9160008F9160008F916000814
:1000900049560008F9160008F9160008F916000874
:1000A000F9160008494D0008F9160008F91600086D
:1000B000F9160008F9160008F9160008F9160008E4
:1000C000F9160008F9160008F9160008F9160008D4
:1000D000F9160008F9160008F9160008F9160008C4
:1000E000F9160008F91600084D560008F916000820
:1000F000C14D0008F9160008F9160008F9160008A5
:10010000F9160008F91600086D4C0008F9160008E9
:10011000C5590008F9160008F9160008F916000874
:10012000F9160008F9160008F9160008F916000873
:1001300000000000000000000000000000000000BF
:1001400000000000000000000000000000000000AF
:10015000000000000000000000000000000000009F
:10016000000000000000000000000000000000008F
:10017000000000000000000000000000000000007F
:10018000000000000000000000000000000000006F
:10019000000000000000000000000000000000005F
:1001A000000000000000000000000000000000004F
:1001B000000000000000000000000000000000003F
:1001C000000000000000000000000000000000002F
:1001D000000000000000000000000000000000001F
:0401E0005FF8E0F1F3
:1001E80081F0004102E000BF83F0004330B54FEAE0
:1001F80041044FEA430594EA050F08BF90EA020F4D
:100208001FBF54EA000C55EA020C7FEA645C7FEADF
:10021800655C00F0E2804FEA5454D4EB5555B8BF02
:100228006D420CDD2C4480EA020281EA030382EA73
:10023800000083EA010180EA020281EA0303362D05
:1002480088BF30BD11F0004F4FEA01314FF4801CD8
:100258004CEA113102D0404261EB410113F0004FEA
:100268004FEA03334CEA133302D0524263EB4303A1
:1002780094EA050F00F0A780A4F10104D5F1200E3F
:100288000DDB02FA0EFC22FA05F2801841F100019A
:1002980003FA0EF2801843FA05F359410EE0A5F16E
:1002A80020050EF1200E012A03FA0EFC28BF4CF09F
:1002B800020C43FA05F3C01851EBE37101F0004555
:1002C80007D54FF0000EDCF1000C7EEB00006EEB62
:1002D8000101B1F5801F1BD3B1F5001F0CD34908EC
:1002E8005FEA30004FEA3C0C04F101044FEA445243
:1002F80012F5800F80F09A80BCF1004F08BF5FEACA
:10030800500C50F1000041EB045141EA050130BDA9
:100318005FEA4C0C404141EB010111F4801FA4F14C
:100328000104E9D191F0000F04BF01460020B1FAA1
:1003380081F308BF2033A3F10B03B3F120020CDAD9
:100348000C3208DD02F1140CC2F10C0201FA0CF0B7
:1003580021FA02F10CE002F11402D8BFC2F1200C1C
:1003680001FA02F120FA0CFCDCBF41EA0C019040D2
:10037800E41AA2BF01EB0451294330BD6FEA04041B
:100388001F3C1CDA0C340EDC04F11404C4F1200206
:1003980020FA04F001FA02F340EA030021FA04F318
:1003A80045EA030130BDC4F10C04C4F1200220FA6F
:1003B80002F001FA04F340EA0300294630BD21FAAD
:1003C80004F0294630BD94F0000F83F4801306BF73
:1003D80081F480110134013D4EE77FEA645C18BF67
:1003E8007FEA655C29D094EA050F08BF90EA020FFE
:1003F80005D054EA000C04BF1946104630BD91EAF6
:10040800030F1EBF0021002030BD5FEA545C05D1F8
:100418004000494128BF41F0004130BD14F5800437
:100428003CBF01F5801130BD01F0004545F0FE41AB
:1004380041F470014FF0000030BD7FEA645C1ABFE0
:10044800194610467FEA655C1CBF0B46024650EA17
:10045800013406BF52EA033591EA030F41F4002143
:1004680030BD00BF90F0000F04BF0021704730B5C9
:100478004FF4806404F132044FF000054FF000019E
:1004880050E700BF90F0000F04BF0021704730B55F
:100498004FF4806404F1320410F0004548BF404234
:1004A8004FF000013EE700BF42004FEAE2014FEA89
:1004B80031014FEA02701FBF12F07F4393F07F4F64
:1004C80081F06051704792F0000F14BF93F07F4F96
:1004D800704730B54FF4607401F0004521F00041D9
:1004E80020E700BF50EA010208BF704730B54FF05F
:1004F80000050AE050EA010208BF704730B511F064
:10050800004502D5404261EB41014FF4806404F19B
:1005180032045FEA915C3FF4DCAE4FF003025FEA1D
:10052800DC0C18BF03325FEADC0C18BF033202EBA5
:10053800DC02C2F1200300FA03FC20FA02F001FAFF
:1005480003FE40EA0E0021FA02F11444C1E600BF9E
:1005580070B54FF0FF0C4CF4E06C1CEA11541DBF51
:100568001CEA135594EA0C0F95EA0C0F00F0DEF81C
:100578002C4481EA030621EA4C5123EA4C5350EA01
:10058800013518BF52EA033541F4801143F4801352
:1005980038D0A0FB02CE4FF00005E1FB02E506F0E3
:1005A8000042E0FB03E54FF00006E1FB03569CF038
:1005B800000F18BF4EF0010EA4F1FF04B6F5007F3E
:1005C80064F5407404D25FEA4E0E6D4146EB0606B0
:1005D80042EAC62141EA55514FEAC52040EA5E5039
:1005E8004FEACE2EB4F1FD0C88BFBCF5E06F1ED8E3
:1005F800BEF1004F08BF5FEA500E50F1000041EB1A
:10060800045170BD06F0004646EA010140EA0200C6
:1006180081EA0301B4EB5C04C2BFD4EB0C0541EAE8
:10062800045170BD41F480114FF0000E013C00F3FD
:10063800AB8014F1360FDEBF002001F0004170BD21
:10064800C4F10004203C35DA0C341BDC04F114043A
:10065800C4F1200500FA05F320FA04F001FA05F2C6
:1006680040EA020001F0004221F0004110EBD37093
:1006780021FA04F642EB06015EEA430E08BF20EABF
:10068800D37070BDC4F10C04C4F1200500FA04F362
:1006980020FA05F001FA04F240EA020001F00041F4
:1006A80010EBD37041F100015EEA430E08BF20EA67
:1006B800D37070BDC4F1200500FA05F24EEA020EAF
:1006C80020FA04F301FA05F243EA020321FA04F0DE
:1006D80001F0004121FA04F220EA020000EBD37095
:1006E8005EEA430E08BF20EAD37070BD94F0000F95
:1006F8000FD101F00046400041EB010111F4801FC9
:1007080008BF013CF7D041EA060195F0000F18BF79
:10071800704703F00046520043EB030313F4801FB5
:1007280008BF013DF7D043EA0603704794EA0C0F6F
:100738000CEA135518BF95EA0C0F0CD050EA410685
:1007480018BF52EA4306D1D181EA030101F0004102
:100758004FF0000070BD50EA410606BF104619462A
:1007680052EA430619D094EA0C0F02D150EA013636
:1007780013D195EA0C0F05D152EA03361CBF104677
:1007880019460AD181EA030101F0004141F0FE4116
:1007980041F470014FF0000070BD41F0FE4141F49A
:1007A800780170BD70B54FF0FF0C4CF4E06C1CEA9A
:1007B80011541DBF1CEA135594EA0C0F95EA0C0F4F
:1007C80000F0A7F8A4EB050481EA030E52EA03350A
:1007D8004FEA013100F088804FEA03334FF080552B
:1007E80045EA131343EA12634FEA022245EA111558
:1007F80045EA10654FEA00260EF000419D4208BF09
:10080800964244F1FD0404F5407402D25B084FEAB5
:100818003202B61A65EB03055B084FEA32024FF461
:1008280080104FF4002CB6EB020E75EB030E22BFBE
:10083800B61A754640EA0C005B084FEA3202B6EB7E
:10084800020E75EB030E22BFB61A754640EA5C002D
:100858005B084FEA3202B6EB020E75EB030E22BFBD
:10086800B61A754640EA9C005B084FEA3202B6EBBE
:10087800020E75EB030E22BFB61A754640EADC007D
:1008880055EA060E18D04FEA051545EA16754FEADF
:1008980006164FEAC30343EA52734FEAC2025FEAFD
:1008A8001C1CC0D111F4801F0BD141EA00014FF08C
:1008B80000004FF0004CB6E711F4801F04BF01435D
:1008C8000020B4F1FD0C88BFBCF5E06F3FF6AFAE79
:1008D800B5EB030C04BFB6EB020C5FEA500C50F109
:1008E800000041EB045170BD0EF0004E4EEA11318C
:1008F80014EB5C04C2BFD4EB0C0541EA045170BD93
:1009080041F480114FF0000E013C90E645EA060ED6
:100918008DE60CEA135594EA0C0F08BF95EA0C0F04
:100928003FF43BAF94EA0C0F0AD150EA01347FF44C
:1009380034AF95EA0C0F7FF425AF104619462CE723
:1009480095EA0C0F06D152EA03353FF4FDAE104686
:10095800194622E750EA410618BF52EA43067FF4D7
:10096800C5AE50EA41047FF40DAF52EA43057FF467
:10097800EBAE12E74FF0FF3C06E000BF4FF0010C72
:1009880002E000BF4FF0010C4DF804CD4FEA410CD6
:100998007FEA6C5C4FEA430C18BF7FEA6C5C1BD0A3
:1009A80001B050EA410C0CBF52EA430C91EA030F24
:1009B80002BF90EA020F0020704710F1000F91EA81
:1009C800030F58BF994208BF90422CBFD8176FEA4F
:1009D800E37040F0010070474FEA410C7FEA6C5C1D
:1009E80002D150EA013C07D14FEA430C7FEA6C5C24
:1009F800D6D152EA033CD3D05DF8040B704700BF50
:100A08008446104662468C461946634600E000BF9D
:100A180001B5FFF7B7FF002848BF10F1000F01BD6F
:100A28004DF808EDFFF7F4FF0CBF012000205DF83A
:100A380008FB00BF4DF808EDFFF7EAFF34BF0120BF
:100A480000205DF808FB00BF4DF808EDFFF7E0FF58
:100A580094BF012000205DF808FB00BF4DF808EDA9
:100A6800FFF7CEFF94BF012000205DF808FB00BF10
:100A78004DF808EDFFF7C4FF34BF012000205DF8F2
:100A880008FB00BF4FEA410212F5001215D211D53A
:100A98006FF47873B3EB625212D94FEAC12343F073
:100AA800004343EA505311F0004F23FA02F018BFF5
:100AB800404270474FF00000704750EA013005D1BE
:100AC80011F0004008BF6FF0004070474FF0000081
:100AD800704700BF80F0004002E000BF81F0004195
:100AE80042001FBF5FEA410392EA030F7FEA226CCC
:100AF8007FEA236C6AD04FEA1262D2EB1363C1BF5C
:100B0800D218414048404140B8BF5B42192B88BFCA
:100B1800704710F0004F40F4000020F07F4018BFED
:100B2800404211F0004F41F4000121F07F4118BF0D
:100B3800494292EA030F3FD0A2F1010241FA03FCB5
:100B480010EB0C00C3F1200301FA03F100F000439D
:100B580002D5494260EB4000B0F5000F13D3B0F165
:100B6800807F06D340084FEA310102F10102FE2AD4
:100B780051D2B1F1004F40EBC25008BF20F0010044
:100B880040EA03007047490040EB000010F4000FF2
:100B9800A2F10102EDD1B0FA80FCACF1080CB2EB85
:100BA8000C0200FA0CF0AABF00EBC25052421843E4
:100BB800BCBFD0401843704792F0000F81F4000189
:100BC80006BF80F400000132013BB5E74FEA41035C
:100BD8007FEA226C18BF7FEA236C21D092EA030FC8
:100BE80004D092F0000F08BF0846704790EA010F42
:100BF8001CBF0020704712F07F4F04D1400028BF6F
:100C080040F00040704712F100723CBF00F5000050
:100C1800704700F0004343F0FE4040F40000704786
:100C28007FEA226216BF08467FEA23630146420232
:100C380006BF5FEA412390EA010F40F48000704745
:100C48004FF0000304E000BF10F0004348BF4042EB
:100C58005FEA000C08BF704743F0964301464FF027
:100C680000001CE050EA010208BF70474FF0000383
:100C78000AE000BF50EA010208BF704711F00043C4
:100C880002D5404261EB41015FEA010C02BF844694
:100C98000146002043F0B64308BFA3F18053A3F5F3
:100CA8000003BCFA8CF2083AA3EBC25310DB01FA3A
:100CB80002FC634400FA02FCC2F12002BCF1004FBE
:100CC80020FA02F243EB020008BF20F0010070474F
:100CD80002F1200201FA02FCC2F1200250EA4C00A3
:100CE80021FA02F243EB020008BF20EADC707047E9
:100CF8004FF0FF0C1CEAD0521EBF1CEAD15392EAF7
:100D08000C0F93EA0C0F6FD01A4480EA010C4002D2
:100D180018BF5FEA41211ED04FF0006343EA50102C
:100D280043EA5111A0FB01310CF00040B1F5000F6E
:100D38003EBF490041EAD3715B0040EA010062F11D
:100D48007F02FD2A1DD8B3F1004F40EBC25008BF07
:100D580020F00100704790F0000F0CF0004C08BF25
:100D680049024CEA502040EA51207F3AC2BFD2F1F2
:100D7800FF0340EAC250704740F400004FF0000300
:100D8800013A5DDC12F1190FDCBF00F0004070473A
:100D9800C2F10002410021FA02F1C2F1200200FA78
:100DA80002FC5FEA310040F1000053EA4C0308BF3F
:100DB80020EADC70704792F0000F00F0004C02BF90
:100DC800400010F4000F013AF9D040EA0C0093F00B
:100DD800000F01F0004C02BF490011F4000F013B65
:100DE800F9D041EA0C018FE70CEAD15392EA0C0FD3
:100DF80018BF93EA0C0F0AD030F0004C18BF31F03E
:100E0800004CD8D180EA010000F00040704790F013
:100E1800000F17BF90F0004F084691F0000F91F0B7
:100E2800004F14D092EA0C0F01D142020FD193EA7D
:100E38000C0F03D14B0218BF084608D180EA010005
:100E480000F0004040F0FE4040F40000704740F0E1
:100E5800FE4040F4400070474FF0FF0C1CEAD052AF
:100E68001EBF1CEAD15392EA0C0F93EA0C0F69D00B
:100E7800A2EB030280EA010C49024FEA402037D076
:100E88004FF0805343EA111143EA10130CF000406D
:100E98008B4238BF5B0042F17D024FF4000C8B425D
:100EA80024BF5B1A40EA0C00B3EB510F24BFA3EB3D
:100EB800510340EA5C00B3EB910F24BFA3EB91030D
:100EC80040EA9C00B3EBD10F24BFA3EBD10340EA67
:100ED800DC001B0118BF5FEA1C1CE0D1FD2A3FF6AD
:100EE80050AF8B4240EBC25008BF20F00100704762
:100EF8000CF0004C4CEA50207F32C2BFD2F1FF0305
:100F080040EAC250704740F400004FF00003013A35
:100F180037E792F0000F00F0004C02BF400010F4D9
:100F2800000F013AF9D040EA0C0093F0000F01F0ED
:100F3800004C02BF490011F4000F013BF9D041EA0F
:100F48000C0195E70CEAD15392EA0C0F08D1420242
:100F58007FF47DAF93EA0C0F7FF470AF084676E715
:100F680093EA0C0F04D14B023FF44CAF08466EE7EE
:100F780030F0004C18BF31F0004CCAD130F00042BC
:100F88007FF45CAF31F000437FF43CAF5FE700BF14
:100F98004FF0FF3C06E000BF4FF0010C02E000BF3D
:100FA8004FF0010C4DF804CD4FEA40024FEA4103DF
:100FB8007FEA226C18BF7FEA236C11D001B052EA95
:100FC800530C18BF90EA010F58BFB2EB030088BF5B
:100FD800C81738BF6FEAE17018BF40F001007047CA
:100FE8007FEA226C02D15FEA402C05D17FEA236CAC
:100FF800E4D15FEA412CE1D05DF8040B704700BFF3
:10100800844608466146FFE70FB5FFF7C9FF002889
:1010180048BF10F1000F0FBD4DF808EDFFF7F4FFC2
:101028000CBF012000205DF808FB00BF4DF808ED5B
:10103800FFF7EAFF34BF012000205DF808FB00BF7E
:101048004DF808EDFFF7E0FF94BF012000205DF8A0
:1010580008FB00BF4DF808EDFFF7D2FF94BF012051
:1010680000205DF808FB00BF4DF808EDFFF7C8FF4A
:1010780034BF012000205DF808FB00BF4FEA4002A2
:10108800B2F1FE4F0FD34FF09E03B3EB12620DD9AE
:101098004FEA002343F0004310F0004F23FA02F018
:1010A80018BF404270474FF00000704712F1610FBF
:1010B80001D1420205D110F0004008BF6FF0004096
:1010C80070474FF0000070474BB942B9002908BF7C
:1010D800002802D04FF0FF31084600F03BB882B03C
:1010E800EC462DE9005000F01DF8DDF804E002B0F0
:1010F8000CBC70472DE9F0411646984604460D464B
:1011080000F02AF806FB01FCA6FB002300FB08C739
:10111800FB18A21A65EB0303069CC4E90023BDE88B
:10112800F08100BF2DE9F041904606460F461D4666
:1011380000F070F900FB05F3A0FB084508FB013837
:10114800069B4544341B67EB0505C3E90045BDE82C
:10115800F08100BF704700BF00292DE9F00F1D4640
:10116800C0F29D800024002DC0F2948080460F4676
:1011780094461E46E3BB8A4255D9B2FA82F747B174
:10118800C7F1200520FA05F601FA07F1BA40B84080
:101198003143170CB1FBF7F61FFA82FC07FB161157
:1011A8000CFB06F5030C43EA01439D4208D9711E66
:1011B8009B1880F013819D4240F21081023E9B18DB
:1011C800591BB1FBF7F507FB15130CFB05FC80B2A7
:1011D80040EA03418C4507D96B1E8A1880F00081CC
:1011E800944540F2FD80023D45EA0641002503E0B2
:1011F8008B420CD9002529460A462B4614B1524287
:1012080063EB430310461946BDE8F00F7047B3FA85
:1012180083F5002D40F087808B4201D38242EAD8C3
:1012280000250121E8E712B90126B6FBF2F2B2FA6D
:1012380082F6002E39D18E1A130C1FFA82FC012572
:10124800B6FBF3F703FB17610CFB07F84FEA1049ED
:1012580049EA0146B04506D9791EB61802D2B0450A
:1012680000F2D3800F46C8EB0606B6FBF3F103FB8A
:1012780011630CFB01FC80B240EA03439C4506D98C
:101288004E1E9A1802D2944500F2C280314641EAB5
:101298000741B1E7E443524263EB430366E7404248
:1012A80061EB41014FF0FF345DE7B240C6F1200920
:1012B80021FA09F720FA09F901FA06F1130CB7FB2C
:1012C800F3F81FFA82FC03FB18770CFB08F549EAD0
:1012D80001094FEA194141EA0747B040BD420AD91E
:1012E800BF1808F1FF3680F08E80BD4240F28B8037
:1012F800A8F10208BF18791BB1FBF3F503FB15171A
:101308000CFB05F61FFA89F949EA07418E4206D90E
:101318006F1E891871D28E426FD9023D89188E1BB3
:1013280045EA08458CE7C5F1200122FA01F306FADF
:1013380005F627FA01F207FA05F720FA01F11E432C
:101348004FEA1649B2FBF9F81FFA86FA09FB182288
:101358000AFB08FB0F433B0C43EA024293450CFA95
:1013680005FC08D9921908F1FF314AD2934548D9AA
:10137800A8F102089219CBEB0203B3FBF9F109FBC0
:1013880011320AFB01FABFB247EA02439A4506D96D
:101398004A1E9B1933D29A4531D902399B1941EA21
:1013A80008410F0C1FFA8CF808FB07F68AB24FEABF
:1013B8001C4C08FB02F80CFB02620CFB07FC02EB5E
:1013C8001842964288BF0CF5803CCAEB03030CEB2D
:1013D800124C63450ED305D000250DE70E46EFE607
:1013E8001D4601E700FA05F01FFA88F808EB0245E8
:1013F800A842F1D201390025FEE63D468FE71146A5
:10140800CDE78846B7E7B04675E7023FB6182AE742
:1014180002393CE72DE9F007144605460E46002B35
:101428003DD18A4249D9B2FA82F747B1C7F12001C2
:1014380020FA01F206FA07F6BC40BD401643220C1A
:10144800B6FBF2F0A1B202FB106601FB00F32F0C11
:1014580047EA0646B34208D9471E361980F0FA8093
:10146800B34240F2F78002383619F61AB6FBF2F3A7
:1014780002FB136201FB03F1ADB245EA024291425D
:1014880007D95E1E121980F0E780914240F2E4808D
:10149800023B43EA00400021BDE8F00770478B4259
:1014A80043D8B3FA83F4002C42D18B4202D3824250
:1014B80000F2E18000210120EEE712B90127B7FB15
:1014C800F2F4B4FA84F2002A40F089800A1B230C53
:1014D800A7B20121B2FBF3F603FB162207FB06F0C5
:1014E8004FEA154C4CEA0242904207D9121906F10C
:1014F800FF3C02D2904200F2D0806646121AB2FB3C
:10150800F3F003FB102307FB00F7ADB245EA0343F2
:101518009F4207D9421E1B1980F0A0809F4240F2CB
:101528009D80023840EA0640B6E700210846B3E746
:10153800C4F1200622FA06F703FA04F321FA06F5A5
:1015480001FA04F120FA06F63B434FEA134CB5FBC7
:10155800FCF71FFA83F80CFB175508FB07F946EA56
:10156800010A4FEA1A4141EA0545A94502FA04F27F
:1015780004D97E1EED18C0F081803746C9EB0501FD
:10158800B1FBFCF60CFB161508FB06F81FFA8AFAE5
:101598004AEA0541884503D9751EC91874D32E46F1
:1015A80046EA0746370C1FFA82FC0CFB07F5120CBB
:1015B800B3B20CFB03FC02FB035302FB07F203EB81
:1015C8001C439D4288BF02F58032C8EB010102EB43
:1015D800134291424CD343D0304600215CE79440FB
:1015E800C2F1200521FA05F620FA05F501FA02F103
:1015F800230CB6FBF3FCA7B203FB1C6607FB0CF835
:1016080029430D0C45EA0646B04500FA02F508D90B
:1016180036190CF1FF303ED2B0453CD9ACF1020C82
:101628003619C8EB0602B2FBF3F003FB102607FBE2
:1016380000F889B241EA0642904506D9461E1219B9
:1016480027D2904525D902381219C8EB020240EA80
:101658000C413FE7384608E733461AE7104661E78A
:1016680000FA04F01FFA8CFC0CEB03439842B3D247
:10167800701E002110E7214620460DE7A9457FF698
:101688007CAF023FED1879E7884588D9023EC91832
:1016980086E73046D9E78446C3E7023E12192DE7AC
:1016A800002100F004B80D4B5B58435004310C483E
:1016B8000C4B42189A42FFF4F6AF0B4A00F003B8FD
:1016C800002342F8043B094B9A42FFF4F9AF04F0B7
:1016D80009F807F029FA02F0C5FF704730E600085C
:1016E80000000020A4090020A4090020341A0020CA
:1016F800FFF7FEBF40F0BF604FF46D4340F4003188
:10170800CEF20003D9607047C37830B47BB9007853
:10171800012100F01F0201FA02F140094FF4614370
:10172800CEF20003203043F8201030BC70474FF44D
:101738006D44CEF20004E5684478EA43C2F302231C
:101748000F2525FA03F2C3F1040104FA01F48578A0
:10175800037802EA050121430A0103F16043D1B28B
:1017680003F5614282F800130078012100F01F039D
:1017780001FA03F14FF46143CEF20003420943F842
:101788002210D2E708B54FF41053C4F2010398426F
:1017980018D04FF42051C4F2010188421ED04FF4F2
:1017A8007052C4F20102904200D008BD01214FF4EA
:1017B800004000F0DBFA4FF400400021BDE808408B
:1017C80000F0D4BA01214FF4007000F0CFFA4FF4C2
:1017D80000700021BDE8084000F0C8BA01214FF4AC
:1017E800806000F0C3FA4FF480600021BDE8084033
:1017F80000F0BCBA42680B6870B422F470250C790A
:1018080025F4807646EA030242EA042343608668A8
:101818008C68CA684FF2FD73CFF6F1734D79224395
:101828003340134343EA45028260097CC26A4B1E77
:1018380022F47001DAB241EA0253C36270BC704705
:10184800836819B923F001018160704743F00102F0
:1018580082607047836843F008018160704700BF69
:101868008068C0F3C0007047836843F0040181605A
:10187800704700BF8068C0F380007047837930B438
:101888003BB34FF48063C4F2010301681D68CC4385
:1018980025401D605D6802792C4002F180455C603E
:1018A80005F5823215684479294311600268986801
:1018B800D14308409860D868102C01EA0001D9602B
:1018C80013D004F1804303F5823421680A4322606F
:1018D80009E00279016802F1804000F582331A6854
:1018E80022EA01021A6030BC704798681043986079
:1018F800D9680A43DA60F6E74FF48063C4F201035B
:101908001A691043186170474FF48063C4F20103E9
:1019180058617047CA7830B4D30648BF8B7802F054
:101928000F0448BF1C430B8813F0FF0F2FD013F090
:101938000105016840F0EC8003F00205ADB2002D0E
:1019480040F0D08003F00405ADB2002D40F0D58002
:1019580003F00805ADB2002D40F0988003F01005A3
:10196800ADB2002D40F09D8003F02005ADB2002DF2
:1019780040F0A28003F04005ADB2002D40F0A780F2
:1019880003F08005ADB2002D40F0CD800160FF2B43
:1019980028D903F480718DB24168002D2DD103F44C
:1019A8000075ADB2002D33D103F48065ADB2002DC2
:1019B80039D103F40065ADB2002D3FD103F4805551
:1019C800ADB2002D44D103F40055ADB2002D49D17C
:1019D80003F48045ADB2002D4ED103F400439BB211
:1019E80013B9416030BC7047282A64F31F7100F0B6
:1019F800B080482A08BF0361F3E721F00F01282AC5
:101A080044EA010100F0A380482AC8D10561C6E76D
:101A180021F0F001282A41EA041100F09680482AB2
:101A2800C2D10561C0E721F47061282A41EA042186
:101A380000F08980482ABCD10561BAE721F47041D9
:101A4800282A41EA04317CD0482AB7D10561B5E794
:101A580021F47021282A41EA044170D0482AB2D1E1
:101A68000561B0E721F47001282A41EA045164D0E5
:101A7800482AADD10561ABE721F07061282A41EA17
:101A8800046158D0482AA8D10561A6E721F470411D
:101A9800282A41EA043168D0482A7FF45FAF0561FB
:101AA8005CE721F47021282A41EA04415BD0482AE6
:101AB8007FF45AAF056157E721F47001282A41EAFB
:101AC800045156D0482A7FF455AF056152E721F0FA
:101AD8007061282A41EA046149D0482A7FF450AF4E
:101AE80005614DE721F0F001282A41EA041138D0B8
:101AF800482A7FF427AF056124E721F47061282A7A
:101B080041EA04212BD0482A7FF422AF05611FE760
:101B180021F00F01282A44EA01011CD0482A7FF449
:101B28000BAF056108E7282A64F31F7115D0482A0E
:101B380008BF05612AE745614FE7456148E7456108
:101B480041E745613AE7456133E745612CE745617F
:101B580025E7436145E74561EEE6456116E74561DE
:101B6800F6E64561EEE64561FEE64561F6E6456165
:101B780006E74561FEE600BF836819420CBF0020F6
:101B88000120704701617047416170470AB941619E
:101B980070470161704700BFC3685940C160704712
:101BA80000230028C4F2010300F44012B4BFDB692B
:101BB8005B68B2F5401F30B484B222D0C20217D598
:101BC800C0F30342032505FA02F223EA020343F0B5
:101BD800706321B1410D0A0104FA02F42343002184
:101BE800C4F201010028B4BFCB614B6030BC704720
:101BF800420D120104FA02F223EA020343F0706371
:101C0800E7E70022C4F20102556823F0706325F06B
:101C180070655560DDE700BF01F0030310B40F22C3
:101C28009C0002FA04F200FA04F089080023C4F2C6
:101C38000103023153F8214024EA020243F821202B
:101C480053F82120104343F8210010BC704700BF0F
:101C5800D823C4F242231860704700BF4FF4805362
:101C6800C4F202035A6822F440410843586070479E
:101C78004FF48053C4F202035A6810B402F00C0106
:101C8800042901D0082928D04FF49052C0F27A02D2
:101C980002604FF48053C4F202035C681C49C4F329
:101CA80003140C5D22FA04F242605C68C4F3022457
:101CB8000C5D22FA04F484605C68C4F3C224095DF4
:101CC80022FA01F2C2605B681249C3F38133CB5C2C
:101CD800B2FBF3F2026110BC70475C685968C4F348
:101CE80083420232CC030AD55B68990307D44FF4C8
:101CF8009054C0F27A0404FB02F20260C9E74FF480
:101D08001061C0F23D0101FB02F20260C1E700BFB1
:101D180004000020000000204FF48053C4F20203A6
:101D28005A6919B922EA000058617047104358618E
:101D3800704700BF4FF48053C4F202039A6919B97F
:101D480022EA00009861704710439861704700BF0D
:101D58004FF48053C4F20203DA6919B922EA000089
:101D6800D86170471043D861704700BF4FF4805363
:101D7800C4F20203DA6819B922EA0000D860704791
:101D88001043D860704700BF4FF430520388C4F244
:101D98000102904270B49BB21AD04FF45052C4F270
:101DA8000102904214D0B0F1804F11D04FF48062FC
:101DB800C4F2000290420BD04FF40062C4F2000259
:101DC800904205D04FF44062C4F20002904205D11F
:101DD8004FF68F724C881A4042EA04034FF480523F
:101DE800C4F20002904234D04FF4A052C4F2000270
:101DF80090422ED04FF6FF42CE881A404FF430530F
:101E08008D880C88C4F2010332439842028085858C
:101E180004851BD04FF45052C4F20102904215D0F1
:101E28004FF48043C4F2010398420FD04FF4884224
:101E3800C4F20102904209D04FF49043C4F2010366
:101E4800984203D00122828270BC7047097A0186C9
:101E5800F8E703808B88838509880185F2E700BF4E
:101E6800038C2DE9F00123F001021404250C0584EC
:101E7800078C0D8984884E88038B2E4323F07302C8
:101E88004FF4305527F0020312041B040F88C4F2E4
:101E98000105120C1B0CB6B2A842A4B242EA070212
:101EA80046EA03031FD04FF45055C4F20105A84277
:101EB80019D04FF48045C4F20105A84213D04FF45D
:101EC8008845C4F20105A8420DD04FF49045C4F2EC
:101ED8000105A84207D0C9888480028381860384CB
:101EE800BDE8F00170474FF6F776B1F80AC0B1F8CF
:101EF8000E808F891E4046EA0C0C4FF6FB738E88C5
:101F08004FF6FF4548EA070725400CEA0303BCB231
:101F180033432C43DFE700BF038CF0B423F01002F7
:101F28001404250C0584068C848826F02002078B6F
:101F380016040D89320C27F4E6431B0442EA051205
:101F48000F884E884FF430551B0CC4F2010543EA44
:101F5800072342EA0612A842A4B29BB292B20CD05E
:101F68004FF45055C4F20105A84206D0C9888480B0
:101F7800038301870284F0BC70474F894FF67F7650
:101F880016404FF2FF35B1F80CC0254046EA071657
:101F98004FF6BF728F88CC89324045EA8C0542EAF9
:101FA800071245EA840492B2A4B2DFE7038CF0B4C6
:101FB80023F480721404250C0584068C0D8926F4FC
:101FC80000773A048488838B120C23F0730642EA64
:101FD80005224F884FF430553304C4F201050E88AA
:101FE8001B0C42EA0722A842A4B243EA060392B2B3
:101FF8000CD04FF45055C4F20105A84206D0C98848
:102008008480838381870284F0BC70474F894FF2B4
:10201800FF7616404CF6FF75B1F80CC0254046EA2D
:1020280007264FF6FF328F88CC89324045EA0C15D7
:1020380042EA072245EA041492B2A4B2DFE700BFDD
:102048000B8830B44D888C88CA882B4323430D896C
:102058004C89134389892B4323430B439AB2A0F835
:10206800442030BC704700BF038829B923F0010120
:102078000A04130C0380704799B241F001020280F0
:10208800704700BFB0F8443021B959044A0CA0F891
:10209800442070476FEA43436FEA53418AB2A0F87D
:1020A80044207047038B23F0080213041A0C1143D1
:1020B80001837047038B23F4006213041A0C42EA6D
:1020C80001218BB203837047838B23F0080213042A
:1020D8001A0C114381837047038A70B5044623F4B0
:1020E8004050CA880D4601040E0C16432682A38967
:1020F800AA88288923F4B056698926F00C0310436E
:102108001A04160C084340EA06018BB2A381A08A80
:10211800AA8920F4407631040B0C86B0134301A839
:10212800A382FFF7A5FD4FF46056A089C4F201060B
:10213800B44202B20CBF049E039E002A21DB2D6824
:1021480006EB860101EB8103AE00B3FBF6F148F222
:102158001F53C5F2EB13A3FB0106A089720900B255
:1021680064251601002802FB151113DB0A0132321F
:10217800A3FB0203C3F34310304383B2238106B0A9
:1021880070BD286806EB860202EB82054300B5FBAA
:10219800F3F1DCE7C9003231A3FB0112C2F34210AC
:1021A8003043EAE70A8830B4038A4D888C882A438A
:1021B800C98823F470631B0422430A43190C0A4399
:1021C80093B2038230BC704700230380438083802E
:1021D800C3807047838929B923F400510A04130C7A
:1021E8008381704799B241F400528281704700BFE1
:1021F80001F01F0310B4C1F342110124A14204FAF3
:1022080003F30DD002290DD014302AB9026822EA4E
:102218000301016010BC7047026813430360F9E7CB
:102228000C30F2E71030F0E730B54FF4805087B04B
:10223800082300246946C4F20100ADF800308DF887
:102248000340FFF767FB4FF40040FFF707FD01214C
:102258004FF40070FFF76EFD4FF41050C4F2010008
:10226800FFF790FA4FF410504FF460220125C4F2A2
:10227800010001A9039201948DF808408DF80940E6
:1022880004948DF81450FFF7B5FA4FF41050C4F2C7
:1022980001002946FFF7D4FA4FF41050C4F20100A8
:1022A800FFF7D8FA4FF41050C4F20100FFF7D8FA3C
:1022B8000028F7D14FF41050C4F20100FFF7D4FA08
:1022C8004FF41050C4F20100FFF7D4FA0028F7D1F8
:1022D80007B030BD0FB410B5C2B044AC54F8042BED
:1022E800FF21234602A8019406F072FD02A803F01C
:1022F80059FB02A806F010FD014602A803F088FC6D
:1023080042B0BDE8104004B0704700BF0FB410B52C
:10231800C2B044AC54F8042B02A8FF212346019410
:1023280006F056FD02A803F03DFB42B0BDE81040A0
:1023380004B0704700B50C4B83B01868002804DB64
:102348004FF0FF321A6003B000BD03F071FC38B1E2
:102358000DF10700012103F071FC9DF80700F2E779
:1023680003F008FBEFE700BF1400002010B50024BD
:1023780007E0642C09D0FFF7DDFF0134002804DBF7
:102388000134FFF7D7FF0028F3DA204610BD00BF5D
:1023980010B582B002AC04F8010D03F0FBFA204638
:1023A800012103F035FC02B010BD00BF704700BF2B
:1023B80008B503F0F7FABDE8084003F0E1BA00BF3A
:1023C80008B503F06FFB4DF63010C0F60000FFF7BC
:1023D800EFFF03F007FC4DF64010C0F60000BDE823
:1023E8000840FFF7E5BF00BF70B5FFF7A3FF041E65
:1023F80053DB03F031FCA4F12B004B284DD8DFE868
:1024080010F00D014C00FB004C004C004C004C003F
:102418004C004C004C004C004C004C004C004C0054
:102428004C004C004C004C004C004C004C004C0044
:102438004C004C004C004C004C00F7004C004C0089
:102448004C004C004C004C004C004C004C004C0024
:10245800EC004C004C004C004C004C004C004C0074
:102468004C004C004C004C004C004C004C00DB0075
:10247800D000CA00C4004C004C00970087008300BD
:102488007F004C004C004C004C00790073004C005D
:102498006D005E004C0053004D0070BD64486549F6
:1024A800BDE87040FFF716BF634B1C6804F024FDBD
:1024B800024662482146BDE87040FFF727BF604BDF
:1024C80060481A6882F001025F4C60491A60002A6D
:1024D80008BF2146BDE87040FFF7FCBE5C4B5D4875
:1024E800196881F00102EFE75B4B5C481C6884F0D7
:1024F8000102E9E75A4B186880F001025948E3E7FE
:10250800594B00221A6070BD57480121016070BD07
:10251800564D0024FFF70EFF0028FBDBFE28D8BF2E
:10252800605501340C2CF5D1BDE8704000F032B98B
:102538004E4C642003F0E4FB7820FFF729FF207855
:10254800FFF726FF6078FFF723FFA078FFF720FF4B
:10255800E078FFF71DFF2079FFF71AFF6079FFF792
:1025680017FFA079FFF714FFE079FFF711FF207A32
:10257800FFF70EFF607AFFF70BFFA07AFFF708FF5F
:10258800E07ABDE87040FFF703BF394B39481C6853
:1025980084F0010298E7384B38481A6882F0010243
:1025A80092E73748FFF796FE4FF47A7003F0A8FBDE
:1025B800BDE8704002F016BF324B294D18682D68EF
:1025C800224C214980F001022F48002D18BF2146D6
:1025D8001A60BDE87040FFF77DBE2C48FFF77AFE11
:1025E8004FF47A7003F08CFBBDE8704002F0F0BE47
:1025F800BDE8704000F08CB9254C4CF6CD41C3F6CF
:10260800CC512068FEF76AFA2060FDF74DFF0246BC
:1026180020480B46BDE87040FFF75CBE1C4C4CF6EA
:10262800CD41C3F6CC512068FEF75AFAECE700BF5B
:1026380064DA000874DA0008C00E002038DA0008EE
:102648000C0A002020DA000858D9000854D90008DC
:10265800200A0020FCD90008240A0020E0D900083C
:10266800B0090020C4D90008FC0E00201800002082
:10267800D8090020B0D90008AC09002098D9000872
:1026880074D90008D00900205CD9000810DA0008C5
:10269800240000207CDA000808B5002000F09EF92C
:1026A800FE289CBF3A4B1870052003F029FB012037
:1026B80000F094F9FE289CBF35494870052003F0C6
:1026C8001FFB022000F08AF9FE289CBF304A907058
:1026D800052003F015FB032000F080F9FE289CBFBD
:1026E8002B4BD870052003F00BFB042000F076F983
:1026F800FE289CBF26490871052003F001FB052030
:1027080000F06CF9FE289CBF214A5071052003F0A7
:10271800F7FA062000F062F9FE289CBF1C4B98715E
:10272800052003F0EDFA072000F058F9FE289CBFB9
:102738001749C871052003F0E3FA082000F04EF9A4
:10274800FE289CBF124A1072052003F0D9FA09200E
:1027580000F044F9FE289CBF0D4B5872052003F089
:10276800CFFA0A2000F03AF9FE289CBF084988727F
:10277800052003F0C5FA0B2000F030F9FE289CBFB5
:10278800034AD0720520BDE8084003F0B9BA00BF7B
:102798001800002008B503F05FFA002000F01EF9C9
:1027A800411C06D0594B1978814202D0002000F014
:1027B800F7F8052003F0A4FA012000F00FF9421CF5
:1027C80006D052494978814202D0012000F0E8F849
:1027D800052003F095FA022000F000F9431C06D00A
:1027E8004A4A9178814202D0022000F0D9F80520A7
:1027F80003F086FA032000F0F1F8411C06D0434BA1
:10280800D978814202D0032000F0CAF8052003F0ED
:1028180077FA042000F0E2F8421C06D03B49097917
:10282800814202D0042000F0BBF8052003F068FACA
:10283800052000F0D3F8431C06D0344A5179814270
:1028480002D0052000F0ACF8052003F059FA062064
:1028580000F0C4F8411C06D02C4B9979814202D073
:10286800062000F09DF8052003F04AFA072000F042
:10287800B5F8421C06D02549C979814202D0072003
:1028880000F08EF8052003F03BFA082000F0A6F8C7
:10289800431C06D01D4A117A814202D0082000F05C
:1028A8007FF8052003F02CFA092000F097F8411C66
:1028B80006D0164B597A814202D0092000F070F8F0
:1028C800052003F01DFA0A2000F088F8421C06D003
:1028D8000E49897A814202D00A2000F061F8052069
:1028E80003F00EFA0B2000F079F8431C06D0074AD3
:1028F800D17A814202D00B2000F052F8052003F073
:10290800FFF9BDE8084003F0AFB900BF1800002088
:1029180038B54DF698204DF6A82540F21804C0F6B3
:102928000005C2F20004C0F60000FFF7D3FC2178CE
:102938002846FFF7CFFC28466178FFF7CBFC2846EE
:10294800A178FFF7C7FC2846E178FFF7C3FC2846C3
:102958002179FFF7BFFC28466179FFF7BBFC2846C1
:10296800A179FFF7B7FC2846E179FFF7B3FC2846C1
:10297800217AFFF7AFFC2846617AFFF7ABFC2846BF
:10298800A17AFFF7A7FC2846E17AFFF7A3FC4DF6EA
:102998006C60C0F60000BDE83840FFF79BBC00BF84
:1029A80038B5044605200D4603F0AAF900F0BEFF2D
:1029B800AE2001F059F801F021FD204601F054F84D
:1029C80001F01CFD284601F04FF801F017FD00F05A
:1029D800D3FF0520BDE8384003F092B938B5054665
:1029E800174C012003F08CF90023236000F09EFFB0
:1029F800AE2001F039F801F001FD284601F034F865
:102A080001F0FCFC00F0B8FF012003F079F900F0B8
:102A18008DFFAF2001F028F801F0F0FC01F07AF901
:102A2800054600F0F9FF00F0A7FF012003F068F960
:102A3800206800280CBF28464FF0FF3038BD00BF83
:102A48003817002040F60073C2F2000300212DE978
:102A5800F0411868C4F27A41FEF74AF940F6A41129
:102A6800C2F200010968FEF73BF840F21804C2F20E
:102A7800000406466078FEF7E3F80021C4F27A41C4
:102A8800FEF7EAF93146FEF733F907462079FEF7F3
:102A9800D7F80021C4F2C821FEF7DEF940F6F81590
:102AA800C2F20005296880463046FEF717F801464D
:102AB8004046FEF71DF939462E60FEF711F840F63C
:102AC8001C72E179C2F200021060BDE8F04102F028
:102AD80055B800BF40F60073C2F2000300212DE98B
:102AE800F0415868C4F27A41FEF702F940F6002135
:102AF800C2F200010968FDF7F3FF40F21804C2F2C0
:102B0800000406462078FEF79BF80021C4F27A41BB
:102B1800FEF7A2F93146FEF7EBF80746E078FEF734
:102B28008FF80021C4F2C821FEF796F940F6D415B3
:102B3800C2F20005296880463046FDF7CFFF0146FE
:102B48004046FEF7D5F839462E60FDF7C9FF40F636
:102B58001C72A179C2F200025060BDE8F04102F097
:102B680031B800BF40F60073C2F2000300212DE91E
:102B7800F0419868C4F27A41FEF7BAF840F6B41109
:102B8800C2F200010968FDF7ABFF40F21804C2F277
:102B980000040646A078FEF753F80021C4F27A41F3
:102BA800FEF75AF93146FEF7A3F807466079FEF7B3
:102BB80047F80021C4F2C821FEF74EF940F61C255B
:102BC800C2F20005296880463046FDF787FF0146B6
:102BD8004046FEF78DF839462E60FDF781FF40F636
:102BE8001C72217AC2F200029060BDE8F04102F046
:102BF8000DB800BF2DE9F041364D374C96263548C3
:102C080000F084FDA968286804F02EFCA9688046B5
:102C1800686804F029FC00210746C4F215312068D1
:102C2800FEF766F84146FDF759FF0021C4F2163158
:102C3800FEF712F90021C4F2153120606068FEF732
:102C480057F801463846FDF74BFF0021C4F216310C
:102C5800FEF702F96060012003F052F81D4800F009
:102C680055FDA968286804F0FFFBA96880466868D4
:102C780004F0FAFB00210746C4F215312068FEF77C
:102C880037F84146FDF72AFF0021C4F21631FEF756
:102C9800E3F80021C4F2153120606068FEF728F8D7
:102CA80001463846FDF71CFF0021C4F21631FEF735
:102CB800D3F8013E6060012003F022F8013E064F80
:102CC8009DD1064B79683A68002059601A6098606F
:102CD800BDE8F081DC0900200C0F0020000F002067
:102CE8002DE9F84F0C460646916810681D461746B0
:102CF800DDF8288004F0B8FBB9688146786804F0EC
:102D0800B3FB00210746C4F2C6213068FDF7F0FF87
:102D18004946FDF7E3FE0021C4F2C821FEF79CF8FE
:102D280000213060C4F2C6217068FDF7E1FF01465A
:102D38003846FDF7D5FE0021C4F2C821FEF78CF80D
:102D48007060296883464046FDF7D2FF67680146F0
:102D58003846FDF7C5FE394682465846FDF7BEFEA1
:102D68004BF21771C3F65111FDF7C2FF01465046E9
:102D7800FDF7B6FE6060814604F03AFB0746484618
:102D880004F002FB8146A868394600F10040FDF7CF
:102D9800AFFF696883464846FDF7AAFF01465846D3
:102DA800FDF79EFE01464046FDF7A2FFD4F800A0BD
:102DB80001465046FDF794FE514683463068FDF7BC
:102DC8008DFE4BF21771C3F65111FDF791FF0146C5
:102DD8005846FDF785FE2060A968484601F1004184
:102DE800FDF786FF696806463846FDF781FF01460C
:102DF8003046FDF773FE01464046FDF779FF014670
:102E0800A068FDF76DFEA060BDE8F88FF8B5244D09
:102E180004462E680F4630464FF08041FDF75EFEAF
:102E28002146FEF721F9002832D14FF08041304683
:102E3800FDF756FE01462046FEF716F9D0B9194AA5
:102E480000232B6013601D46174C00212068C4F234
:102E58001C21FDF74DFF2946FDF742FE0021C4F273
:102E68002021FDF7F9FF0346014623603846FDF7A8
:102E780035FEF8BD43F233312046C3F6B3614FF057
:102E880040442C60FDF734FF054606480560DBE743
:102E980043F233312046C3F6B3614FF08044F0E784
:102EA800B8090020080A0020E80900202DE9F04FA1
:102EB800DFF89C9299B0D9F800308346581CC9F8BD
:102EC800000002F0C9FE02F0EBFE16A802F0BEFBFD
:102ED8008A4800F01BFC16A802F0C0FB1190884835
:102EE80000F040FC16A802F0B9FB864D1290294666
:102EF800824A834B8448CDF800B0FFF7F1FE16A84C
:102F080002F0ACFB814E1390717A814C312900F0AC
:102F18001C820021C4F27A416068FDF79DFF6F684A
:102F2800DFF830A2DAF80010FDF7DAFD3946CAF802
:102F38000000FDF7D5FD43F23331C4F26521FDF7FA
:102F4800D7FE0021CBF680718046FEF76FF8002887
:102F580040F0B38040464FF07E51FEF785F808B147
:102F68004FF07E586B4A6C4FC2F800803868414673
:102F7800FDF7B6FDDFF8E0A100213860C4F27A4120
:102F88002068FDF769FFDAF80010FDF7A9FD296848
:102F9800CAF80000FDF7A4FD8046F07A6438FDF712
:102FA80053FE0021C4F22011FDF756FF02F0B8FECF
:102FB80001464046FDF794FD43F23331C4F26521E2
:102FC800FDF796FE0021CBF680718246FEF72EF8BB
:102FD80000286DD150464FF07E51FEF745F808B1F4
:102FE8004FF07E5ADFF874814C4BD8F800005146F8
:102FF800C3F800A0FDF774FDB67AC8F80000302EBB
:1030080000F0BC81A268DFF858A11046DAF8001079
:103018000D92FDF765FD424E0021CAF80000C4F28A
:103028007A410D98FDF718FF3168FDF759FD3060BA
:1030380016A802F013FB1490FFF74CFDFFF702FDF2
:10304800FFF790FD16A802F009FB159016A802F0EC
:103058000DFB344E844631684A1CB2F5FA7F326063
:1030680021DB31480368002B7CD1304A11680029E4
:1030780040F0A9802E480168002940F0D8802D4AE8
:103088001368002B40F0F1802B480368002B40F0B8
:1030980016812A4A1168002940F02C8128480268C4
:1030A80082B90021316002F0DFFD19B0BDE8F08F70
:1030B8004FF0000ACBF6807A94E74FF00008CBF681
:1030C80080784FE71F4F7868FDF7EEF904463868B7
:1030D8000D46FDF7E9F9CDE90001B868FDF7E4F917
:1030E800CDE90201184B1868FDF7DEF92246CDE953
:1030F80004012B461548FFF7EDF8D2E7DC0900205C
:10310800EC090020000F00200C0F00201800002000
:10311800BC090020300F0020000A0020280F0020E2
:10312800040A0020FC090020D80900200C0A00200D
:10313800240A0020200A0020B0090020AC09002041
:10314800D00900201C0F0020B8090020A8DC0008C6
:10315800C8090020A8090020CC090020A4090020E3
:10316800B4090020974AD9F8001013682868CDF8E8
:103178003CC00E930D9102F0CBFD0146686810919A
:1031880002F0C6FD8146A86802F0C2FD0546109807
:10319800FDF78AF9CDE900014846FDF785F9CDE943
:1031A80002012846FDF780F90D9BCDE904010E9A2E
:1031B80019468548FFF78EF8844ADDF83CC0116847
:1031C80000293FF457AF5846CDF83CC0FDF76CF9DD
:1031D8007F4D024628680E920D91FDF765F9CDE9FD
:1031E80000016868FDF760F9CDE90201A868FDF7FC
:1031F8005BF9CDE90401774D2868FDF755F9CDE96C
:1032080006016868FDF750F9CDE90801A868FDF7DF
:103218004BF90E9ACDE90A010D9B6F48FFF75AF852
:103228006E48DDF83CC0016800293FF428AFCDF8AE
:103238003CC001F04DF9FDF737F9024611980B46ED
:10324800019012991398DDF83CC0029103901499EB
:103258001598CDF800C0059004916148FFF73AF839
:10326800604A1368002B3FF40FAF5F4D2868FDF7E5
:103278001BF9024668680E920D91FDF715F9CDE924
:103288000001A868FDF710F9CDE902012068FDF7F3
:103298000BF9CDE904016068FDF706F9CDE90601EF
:1032A800A068FDF701F90D9BCDE908010E9A4F487A
:1032B800FFF710F84E480368002B3FF4EAAED8F841
:1032C8000000FDF7F1F8044638680D46FDF7ECF804
:1032D800CDE90001DAF80000FDF7E6F82246CDE96D
:1032E80002012B464348FEF7F5FF434A11680029BF
:1032F8003FF4D4AE414C4248A268424D94E80808D5
:10330800D5F800806F68D0F800A0AD68D0F80490B8
:1033180084680E920D9302F013FC0D9B0E99009396
:103328000690029138483A46CDF804B0CDF80CA082
:10333800CDF81090059441462B46FEF7CBFF334855
:103348000268002A3FF4ADAEBCE62749204601F0EA
:1033580087FF6F6846F2F161CBF65F713846D4F8A3
:103368000480FDF763FEA0B140460021FDF77CFE16
:1033780078B100208046C4F80480D1E5DFF894A035
:10338800234BDAF800109868FFF740FDCAF80000F0
:103398004EE640F6D9713846C3F6C971FDF764FEAA
:1033A80020B140460021FDF741FE30B900214046DA
:1033B800C4F27A41FDF750FDDDE74FF000084046C2
:1033C800D9E700BF34170020B0DA00080C0A002043
:1033D800DC090020EC090020F8DA0008240A0020A3
:1033E80044DB0008200A0020100A0020A8DB00089F
:1033F800B009002008DC0008AC0900203C170020B8
:10340800541700204817002050DC0008D00900207D
:103418001C0F0020B409002038B51E4D002420469A
:10342800FDF712FC40F6DB71C4F2C901FDF760FC40
:103438004FF06A51FDF75CFC03F0DAFF4FF47E4170
:10344800C4F2FF61FDF754FC02F072FCFDF716FEB2
:10345800013468802046FDF7F7FB40F6DB71C4F2C3
:10346800C901FDF745FC4FF06A51FDF741FC03F037
:10347800BFFF4FF47E41C4F2FF61FDF739FC02F053
:1034880057FCFDF7FBFD0134A8800435B4F5806FC7
:10349800C5D138BD320F002010B500F047FAD02052
:1034A80000F0E2FA00F0AAFF752000F0DDFA00F063
:1034B800A5FF00F061FA012002F022FC00F036FAC4
:1034C800D12000F0D1FA00F099FF00F023FC044667
:1034D80000F0A2FA00F050FA682C40F0CB800520EA
:1034E80002F00EFC00F022FAD02000F0BDFA00F045
:1034F80085FF6B2000F0B8FA00F080FF802000F014
:10350800B3FA00F07BFF00F037FA962002F0F8FBE0
:1035180000F00CFAD02000F0A7FA00F06FFF6B2043
:1035280000F0A2FA00F06AFF032000F09DFA00F014
:1035380065FF00F021FA052002F0E2FB00F0F6F941
:10354800D02000F091FA00F059FF6C2000F08CFABE
:1035580000F054FF002000F087FA00F04FFF00F061
:103568000BFA052002F0CCFB00F0E0F9D02000F0C7
:103578007BFA00F043FF192000F076FA00F03EFFD6
:10358800002000F071FA00F039FF00F0F5F905208D
:1035980002F0B6FB00F0CAF9D02000F065FA00F09E
:1035A8002DFF1A2000F060FA00F028FF002000F03C
:1035B8005BFA00F023FF00F0DFF9052002F0A0FB22
:1035C80000F0B4F9D02000F04FFA00F017FF1B20EC
:1035D80000F04AFA00F012FF002000F045FA00F06F
:1035E8000DFF00F0C9F9052002F08AFB00F09EF9F2
:1035F800D02000F039FA00F001FF1C2000F034FA66
:1036080000F0FCFE002000F02FFA00F0F7FE00F0BA
:10361800B3F9052002F074FB00F088F9D02000F01F
:1036280023FA00F0EBFE372000F01EFA00F0E6FE69
:10363800002000F019FA00F0E1FE00F09DF90520E5
:1036480002F05EFB00F072F9D02000F00DFA00F0F5
:10365800D5FE382000F008FA00F0D0FE002000F077
:1036680003FA00F0CBFE00F087F9052002F048FBD2
:10367800002010BD4FF0FF3010BD00BF70B5224CC8
:1036880000230E462360054600F050F9D02000F0D4
:10369800EBF900F0B3FE206800B170BDE8B200F0AD
:1036A800E3F900F0ABFE21680029F6D100F064F9D7
:1036B80000F03CF9D12000F0D7F900F09FFE226815
:1036C800002AEAD100F026FB307000F07DF900F006
:1036D80021FB707000F078F900F01CFBB07000F06E
:1036E80073F900F017FBF07000F06EF900F012FBB0
:1036F800307100F069F900F00DFB707100F08CF981
:10370800BDE8704000F038B93817002010B582B015
:10371800044669463B20FFF7B1FF114B1868E8B92A
:103728009DF800109DF8012042EA012318B2FDF728
:103738008BFA9DF802109DF80320206042EA0120D0
:1037480000B2FDF781FA9DF804109DF8053060601D
:1037580043EA012210B2FDF777FAA06002B010BD6B
:103768003817002010B582B0044669464320FFF799
:1037780085FF244B1868002841D19DF801109DF859
:10378800002041EA0223204A18B21380FDF75CFAB0
:103798001E490968FDF7A2F948F6FA51C4F2EA5140
:1037A800FDF75AFB9DF803309DF80220206043EA9C
:1037B8000221174A08B21180FDF746FA154B19681D
:1037C800FDF78CF948F6FA51C4F2EA51FDF744FBCB
:1037D8009DF805209DF80410606042EA01230E4917
:1037E80018B20B80FDF730FA0C4A1168FDF776F92C
:1037F80048F6FA51C4F2EA51FDF72EFBA06002B078
:1038080010BD00BF38170020300A0020340A0020FD
:10381800280A0020380A0020320A00202C0A00203A
:103828002DE9F04F394EDFF8F0A0394DDFF8EC9074
:10383800384CDFF8EC8087B0002703A8FFF792FF29
:10384800BAF90000FDF700FA3168FDF749F9306070
:10385800B9F90000FDF7F8F92968FDF741F9286082
:10386800B8F90000FDF7F0F92168FDF739F9206093
:10387800022002F045FA03A8FFF774FFBAF9000026
:10388800FDF7E2F93168FDF72BF93060B9F900006E
:10389800FDF7DAF92968FDF723F92860B8F900007F
:1038A800FDF7D2F92168FDF71BF90137FFB2206057
:1038B800022002F025FA781CC7B2642FDFF84CB05A
:1038C800134A144BB9D10021DBF80000C4F2C82117
:1038D80001920093FDF7C0FACBF80000019800218F
:1038E800C4F2C8210068FDF7B7FA019A009B0021CD
:1038F8001060C4F2C8211868FDF7AEFA0099086094
:10390800052002F0FDF907B0BDE8F08F340A002069
:10391800380A00202C0A0020300A0020280A00203B
:10392800320A0020012002F0E3B900BF10B54FF4BD
:103938004064C4F20104204601224FF40061FEF7FE
:1039480025F9204601224FF48061FEF71FF9FFF7A1
:10395800E9FF204600224FF40061FEF717F9FFF750
:10396800E1FF20464FF480610022FEF70FF9BDE821
:103978001040FFF7D7BF00BF10B54FF44064C4F242
:103988000104204600224FF48061FEF7FFF8FFF79C
:10399800C9FF204600224FF40061FEF7F7F8FFF751
:1039A800C1FF204601224FF48061FEF7EFF8FFF7D0
:1039B800B9FF20464FF400610122FEF7E7F8BDE8A1
:1039C8001040FFF7AFBF00BF10B54FF44064C4F21A
:1039D8000104204600224FF48061FEF7D7F8FFF774
:1039E800A1FF204600224FF40061FEF7CFF8FFF751
:1039F80099FF204601224FF48061FEF7C7F8FFF7D0
:103A080091FF20464FF480610022FEF7BFF8BDE821
:103A18001040FFF787BF00BF10B54FF44064C4F2F1
:103A28000104204600224FF48061FEF7AFF8FFF74B
:103A380079FF204601224FF40061FEF7A7F8FFF74F
:103A480071FF204601224FF48061FEF79FF8FFF7CF
:103A580069FF20464FF480610022FEF797F8BDE821
:103A68001040FFF75FBF00BF10B504464FF4406039
:103A7800C4F201004FF480610022FEF787F8FFF7D7
:103A880051FF4FF440602206C4F201004FF4006178
:103A980000F120810022FEF779F86000C4B2FFF738
:103AA80041FF4FF440600122C4F201004FF48061ED
:103AB800FEF76CF8FFF736FF4FF44060C4F20100E0
:103AC8004FF480610022FEF761F8FFF72BFF4FF4F7
:103AD80040602306C4F201004FF4006100F1FE804B
:103AE8000022FEF753F86100CCB2FFF71BFF4FF43A
:103AF80040600122C4F201004FF48061FEF746F8ED
:103B0800FFF710FF4FF44060C4F201004FF48061EA
:103B18000022FEF73BF8FFF705FF4FF4406022064E
:103B2800C4F201004FF4006100F1DC800022FEF7CE
:103B38002DF86200D4B2FFF7F5FE4FF44060012281
:103B4800C4F201004FF48061FEF720F8FFF7EAFEA7
:103B58004FF44060C4F201004FF480610022FEF788
:103B680015F8FFF7DFFE4FF440602306C4F20100AA
:103B78004FF4006100F1BA800022FEF707F86300F5
:103B8800DCB2FFF7CFFE4FF440600122C4F201001F
:103B98004FF48061FDF7FAFFFFF7C4FE4FF4406071
:103BA800C4F201004FF480610022FDF7EFFFFFF738
:103BB800B9FE4FF440602206C4F201004FF40061E0
:103BC80000F198800022FDF7E1FF6000C4B2FFF722
:103BD800A9FE4FF440600122C4F201004FF4806155
:103BE800FDF7D4FFFFF79EFE4FF44060C4F20100DA
:103BF8004FF480610022FDF7C9FFFFF793FE4FF4F1
:103C080040602306C4F201004FF4006176D400221C
:103C1800FDF7BCFF6100CCB2FFF784FE4FF44060B3
:103C28000122C4F201004FF48061FDF7AFFFFFF7F6
:103C380079FE4FF44060C4F201004FF48061002225
:103C4800FDF7A4FFFFF76EFE4FF440602206C4F2B2
:103C580001004FF4006155D40022FDF797FFFFF7EC
:103C680061FE4FF440600122C4F201004FF480610C
:103C7800FDF78CFFFFF756FE4FF44060C4F20100D9
:103C88004FF480610022FDF781FFFFF74BFE4FF4F0
:103C980040606306C4F201004FF4006136D400228C
:103CA800FDF774FFFFF73EFE4FF440600122C4F2B7
:103CB80001004FF48061FDF769FFFFF733FE4FF411
:103CC8004060C4F201004FF480610022BDE810405A
:103CD800FDF75CBF0122FDF759FFDEE60122FDF783
:103CE80055FF00E70122FDF751FF22E70122FDF70A
:103CF8004DFF44E70122FDF749FF66E70122FDF782
:103D080045FF87E70122FDF741FFA8E70122FDF7FC
:103D18003DFFC7E74FF440602DE9F0470122C4F2A8
:103D280001004FF40061FDF731FF4FF440600022BD
:103D3800C4F201004FF48061FDF728FFFFF7F2FDA0
:103D48004FF440600122C4F201004FF48061FDF796
:103D58001DFF4FF440604FF40061C4F20100FDF70D
:103D68000BFF04464FF440604FF40061C4F20100B9
:103D7800FDF702FF07464FF440604FF40061C4F2BC
:103D88000100FDF7F9FE81464FF440604FF40061F1
:103D9800C4F20100FDF7F0FE80464FF440604FF496
:103DA8000061C4F20100FDF7E7FE06464FF44060EB
:103DB8004FF40061C4F20100FDF7DEFE05464FF442
:103DC80040604FF40061C4F20100FDF7D5FE09EB35
:103DD8000803D9198A1957193E184FF440604FF44F
:103DE8000061C4F20100FDF7C7FE341904F0FF05B5
:103DF8002B184FF44060DFB20022C4F201004FF4E8
:103E08008061032F8CBF02241446FDF7BFFEFFF725
:103E180089FD4FF440600122C4F201004FF4806133
:103E2800FDF7B4FE4FF440604FF40061C4F20100A6
:103E3800FDF7A2FE05464FF440604FF40061C4F25E
:103E48000100FDF799FE81464FF440604FF4006190
:103E5800C4F20100FDF790FE82464FF440604FF433
:103E68000061C4F20100FDF787FE80464FF4406010
:103E78004FF40061C4F20100FDF77EFE07464FF4DF
:103E880040604FF40061C4F20100FDF775FE06467C
:103E98004FF440604FF40061C4F20100FDF76CFE7E
:103EA8000AEB090101EB0802D3199F193E184FF4D8
:103EB80040604FF40061C4F20100FDF75DFE751922
:103EC80005F0FF073818C1B2032988BF44F0010480
:103ED8004FF4406088BFE4B2C4F2010000224FF4FE
:103EE8008061FDF753FEFFF71DFD4FF4406001228E
:103EF800C4F201004FF48061FDF748FE4FF44060C2
:103F08004FF40061C4F20100FDF736FE05464FF498
:103F180040604FF40061C4F20100FDF72DFE8146B8
:103F28004FF440604FF40061C4F20100FDF724FE35
:103F380082464FF440604FF40061C4F20100FDF77F
:103F48001BFE80464FF440604FF40061C4F201004C
:103F5800FDF712FE07464FF440604FF40061C4F2CB
:103F68000100FDF709FE06464FF440604FF400617A
:103F7800C4F20100FDF700FE0AEB090202EB080398
:103F8800D9198F193E184FF440604FF40061C4F2FC
:103F98000100FDF7F1FD751905F0FF073818C2B2E9
:103FA8006400032A84BF44F00104E4B24FF4406083
:103FB80063000022C4F201004FF48061DCB2FDF717
:103FC800E5FDFFF7AFFC4FF440600122C4F20100A9
:103FD8004FF48061FDF7DAFD4FF440604FF4006163
:103FE800C4F20100FDF7C8FD05464FF440604FF4E8
:103FF8000061C4F20100FDF7BFFD81464FF4406047
:104008004FF40061C4F20100FDF7B6FD82464FF49B
:1040180040604FF40061C4F20100FDF7ADFD804639
:104028004FF440604FF40061C4F20100FDF7A4FDB5
:1040380007464FF440604FF40061C4F20100FDF7F9
:104048009BFD06464FF440604FF40061C4F2010046
:10405800FDF792FD0AEB090101EB0802D3199F193C
:104068003E184FF440604FF40061C4F20100FDF7C0
:1040780083FD751905F0FF073818C1B203294FF4FD
:10408800406088BF44F00104C4F2010000224FF4EC
:104098008061FDF77BFDFFF745FC4FF4406001228E
:1040A800C4F201004FF48061FDF770FD4FF44060E9
:1040B8004FF40061C4F20100FDF75EFD05464FF4C0
:1040C80040604FF40061C4F20100FDF755FD8146E0
:1040D8004FF440604FF40061C4F20100FDF74CFD5D
:1040E80082464FF440604FF40061C4F20100FDF7CE
:1040F80043FD80464FF440604FF40061C4F2010074
:10410800FDF73AFD07464FF440604FF40061C4F2F2
:104118000100FDF731FD06464FF440604FF40061A1
:10412800C4F20100FDF728FD0AEB090202EB0803BF
:10413800D9198F193E184FF440604FF40061C4F24A
:104148000100FDF719FD751905F0FF073818C2B20F
:104158006400E4B2032A4FF4406088BF44F00104CD
:10416800C4F2010000224FF48061FDF70FFDFFF754
:10417800D9FB4FF440600122C4F201004FF4806182
:10418800FDF704FD4FF440604FF40061C4F20100F4
:10419800FDF7F2FC05464FF440604FF40061C4F2AD
:1041A8000100FDF7E9FC81464FF440604FF40061DF
:1041B800C4F20100FDF7E0FC82464FF440604FF482
:1041C8000061C4F20100FDF7D7FC80464FF440605F
:1041D8004FF40061C4F20100FDF7CEFC07464FF42E
:1041E80040604FF40061C4F20100FDF7C5FC0646CB
:1041F8004FF440604FF40061C4F20100FDF7BCFCCD
:104208000AEB090303EB0801CA1997193E184FF482
:1042180040604FF40061C4F20100FDF7ADFC751970
:1042280005F0FF073818C3B26400E4B2032B4FF45B
:10423800406088BF44F00104C4F2010000224FF43A
:104248008061FDF7A3FCFFF76DFB4FF4406001228E
:10425800C4F201004FF48061FDF798FC4FF4406010
:104268004FF40061C4F20100FDF786FC05464FF4E7
:1042780040604FF40061C4F20100FDF77DFC814607
:104288004FF440604FF40061C4F20100FDF774FC84
:1042980082464FF440604FF40061C4F20100FDF71C
:1042A8006BFC80464FF440604FF40061C4F201009B
:1042B800FDF762FC07464FF440604FF40061C4F21A
:1042C8000100FDF759FC06464FF440604FF40061C9
:1042D800C4F20100FDF750FC0AEB090101EB0802EA
:1042E800D3199F193E184FF440604FF40061C4F28F
:1042F8000100FDF741FC751905F0FF073818C1B238
:104308006400E4B203294FF4406088BF44F001041C
:10431800C4F2010000224FF48061FDF737FCFFF77B
:1043280001FB4FF440600122C4F201004FF48061A8
:10433800FDF72CFC4FF440604FF40061C4F201001B
:10434800FDF71AFC05464FF440604FF40061C4F2D3
:104358000100FDF711FC81464FF440604FF4006105
:10436800C4F20100FDF708FC82464FF440604FF4A8
:104378000061C4F20100FDF7FFFB80464FF4406086
:104388004FF40061C4F20100FDF7F6FB07464FF455
:1043980040604FF40061C4F20100FDF7EDFB0646F2
:1043A8004FF440604FF40061C4F20100FDF7E4FBF4
:1043B8000AEB090202EB0803D9198A1913184FF4FA
:1043C80040604FF40061C4F201005D19FDF7D4FBB1
:1043D80005F0FF054019C1B26400E4B203294FF4A7
:1043E800406088BF44F00104C4F201004FF48061CA
:1043F8000022FDF7CBFB2046BDE8F0874FF4406074
:1044080008B50022C4F201004FF48061FDF7BEFB3D
:10441800FFF788FA4FF440600122C4F201004FF41C
:104428000061FDF7B3FBFFF77DFA4FF4406001220E
:10443800C4F201004FF48061FDF7A8FBFFF772FAA0
:104448004FF44060C4F201004FF40061FDF794FBA3
:1044580001280AD04FF44060C4F201004FF4806193
:104468000022BDE80840FDF791BB044B186001F03D
:104478000FFC03480268511C0160EBE73817002065
:104488003417002010B5084C23685A1CB3F57A7FFE
:10449800226008DD01F0F0FB00F0CAFC5720FDF7B0
:1044A80085FF0020206010BD400A002008B50121CA
:1044B80042F67D20FDF73EFC0F200121C0F20800E6
:1044C800FDF746FC01200146BDE80840FDF724BC85
:1044D80040F63C23C2F200031868704710B501F09B
:1044E800FDF9FFF7E3FF00F083F962B6FDF768FF17
:1044F8004648FDF7EFFE4648FDF7ECFE00F0C6FC27
:10450800142401F0B9FB01F0D3FB642001F0F8FB9F
:10451800013C01F0B1FB01F0CBFB642001F0F0FBA2
:10452800013CEED102F0E8FC002860D03948FDF7E4
:10453800D1FE40F6B83001F0E3FB02F0DDFC0128C3
:1045480060D03548FDF7C6FE34483549FDF7C2FE50
:10455800344A4FF48053C4F2020318684DF683615D
:104568001368C4F21B3110F4003FA1FB030114BF10
:104578002D482E48890CFDF7ADFE2D48FDF7AAFE03
:10458800FDF752FE2B48FDF7A5FE04E02A48FDF78B
:10459800A1FE01F099FBFEF77FFF0028F6D127481E
:1045A800FDF798FEFEF778F801F076F90146244801
:1045B800FDF790FEFFF734F92248FDF78BFE00F077
:1045C800F7FC2148FDF786FEFEF714FBFEF724FFF3
:1045D800FDF7CCFE002802DD1C48FDF77BFE1C48D9
:1045E800FDF778FE1B48BDE8104001F071B91A4884
:1045F800FDF770FE40F6B83001F082FB1748FDF772
:1046080069FE9EE71648FDF765FE9AE7F8DC0008A4
:104618001CDD000830DD0008E4DD000838DE000895
:1046280074DA00084400002070DE0008A8DE0008E4
:10463800E4DE0008F4DE000808DF00082CDF0008CC
:1046480040DF000864DF000874DF000888DF000826
:10465800C4DF00088D44000880DD0008B0DD0008D4
:104668004CDD00082DE9F84FFFF738FF01F014F989
:10467800044601F011F98442FBD001F0E1F8054647
:1046880072B64FF0000840F2F31601F0D9F8401B5B
:10469800B04208F10108F8D962B601F0D1F8DFF8A4
:1046A80090B0DFF890A005464FEA4808002740F28E
:1046B800CF76002401F0C4F88146401B0134B04293
:1046C800F8D9FCF7BDFA05462046FCF7BDFA0021EB
:1046D800C4F2C821FCF70CFB0021C4F27A41FCF7B4
:1046E80007FB2946FCF7B8FB04464046FCF7ACFA42
:1046F80001462046FCF7B0FBDAF80020CBF80000B2
:104708008AB94FF41051C4F674112846FCF7A4FB7B
:10471800FEF7CCFB40F64023C2F200031F604D4673
:10472800FDF762FEC5E700F083FB01F0CDFAF1E783
:104738003C0A0020FC0E0020012830B409D00228D1
:104748001AD0174B09221A604FF0FF32104630BCBE
:104758007047002AFADD4FF498448818C4F2000420
:10476800238803F040039BB2002BF9D011F8013BDA
:104778008142A380F4D1E9E7002AE7DD4FF49844A9
:104788008D18C4F20004208800F0400398B2002875
:10479800F9D011F8013BA942A380F4D1D6E700BFB4
:1047A800301A00200D4A08B513689BB1EFF3088151
:1047B8001818884202D81060184608BD192202202D
:1047C8000749FFF7B9FF074B0C221A604FF0FF3378
:1047D800184608BD044B1360E8E700BF440A0020F0
:1047E800DCDF0008301A0020341A0020704700BFB0
:1047F8002DE9F04F4FF4006783B0C4F201074FF47E
:10480800406618250224C4F201064FF4E0633846D6
:1048180001A9ADF804308DF807508DF80640FDF772
:1048280079F84FF46042304601A9ADF804208DF8BC
:1048380007508DF80640FDF76DF84FF480504FF49F
:10484800E07B01A9C4F20100ADF804B08DF807506F
:104858008DF80640FDF75EF88023384601A94FF031
:104868000308ADF804308DF807508DF80640FDF7C1
:1048780051F8304601A9ADF804808DF807508DF83D
:104888000640FDF747F80722384601A9ADF804208D
:104898008DF807508DF80640FDF73CF8304601A921
:1048A8004FF0100AADF804B08DF807508DF80640A7
:1048B800FDF730F84FF48053304601A9ADF80430C5
:1048C8008DF807A08DF80680FDF724F808223846F1
:1048D80001A9ADF804208DF807A08DF80680FDF732
:1048E80019F84FF440631422304601A9C146ADF8C7
:1048F80004308DF807208DF80680FDF70BF803B01B
:10490800BDE8F08F38B504460D46FDF7A9FA2046F4
:104918002946FDF701FB20462946FDF747FB2046BF
:104928000821FDF7BFFB20460821FDF7C3FB204601
:104938000821BDE83840FDF7C7BB00BF70B58CB093
:104948000024032201A94FF47A760546ADF8042025
:10495800ADF80860ADF80640ADF80A408DF80C4097
:10496800FDF712FA40F23000C2F2000003684FF47B
:104978000062ADF810204FF480624FF4807628462C
:1049880004A9ADF81220ADF816304FF480424FF468
:104998000053ADF81A30ADF81C20ADF81460ADF82E
:1049A8001840FDF74DFB6023ADF8203001220423A9
:1049B800284608A9ADF82220ADF82430ADF82640E5
:1049C800ADF82840ADF82A40ADF82C60ADF82E407F
:1049D800FFF798FF0CB070BD70B5032388B006468A
:1049E8000D46002401A9ADF804304FF47A724FF453
:1049F8000073ADF80820ADF80A30ADF80640FDF7B1
:104A0800C3F960220123304604A9ADF81020ADF89F
:104A18001230ADF81640ADF81850FFF773FF08B024
:104A280070BD00BF00B583B000238DF804000121DC
:104A380001A88DF805308DF806308DF80710FCF7C1
:104A480063FE03B000BD00BF124A30B413680468A7
:104A5800C3F5FA714900E31A8B42A8BF0B460360FD
:104A680014684568A342B8BF0023036013688468CC
:104A7800EA1AE41A8A42A8BF0A468C42B8BF2146FD
:104A88009A42B8BF00228B42C8BF002142608160B1
:104A980030BC704728000020F8B5364B05461C6826
:104AA8000E46204600211746FCF7D4FA002858D0B5
:104AB80040F6DB71C4F2C9012046FCF7CDF94FF08E
:104AC8008941FCF715F901F033F9FCF7D7FA40F200
:104AD800FF33C8F200030340002B44DB002BB8BFB0
:104AE80003F5806303F2551603F2AB242248B1059F
:104AF800A2058E0D940D30F9131030F9163030F9E7
:104B0800140007EB870707FB00F207FB01F107FB1F
:104B180003F301F57F51032403F57F5302F57F5218
:104B28003F31C8F201043F333F3284FB010684FB66
:104B3800037084FB0274C018CF17DB17A41876180B
:104B4800D217C7EBA631C3EBA037C2EBA43001F5EF
:104B5800FA7107F5FA7300F5FA7285E80A00AA6097
:104B6800F8BD3446A4E7581E6FEA80516FEA9152A7
:104B7800531CB3E724000020340F002000B503467F
:104B880085B00A4601A81946FFF786FF72B640F6B7
:104B98004820019A0299039BC2F20000026041601A
:104BA800836062B672B64FF45050C4F20100028AB4
:104BB80022F001010B041A0C01210282818162B6E4
:104BC80005B000BD00B5034685B00A4601A81946E0
:104BD800FFF762FF72B640F65420019A0299039BD0
:104BE800C2F2000002604160836062B672B64FF4A0
:104BF8003050C4F20100028A22F001010B041A0CA1
:104C080001210282818162B605B000BD00B585B080
:104C18000A46014601A8FFF73FFF01A8FFF714FF66
:104C280072B640F66023019A02980399C2F2000313
:104C38001A605860996062B640F22C03C2F2000311
:104C480000221A6072B64FF44060C4F20000018A74
:104C580021F001031A04110C01230182838162B639
:104C680005B000BD4FF44063C4F200031A8AF0B4E3
:104C7800D2071AD5188A20F001010C04220C1A82D6
:104C880072B6294A294994689B8C886801349BB27A
:104C98009460274A8342C8BF8B6091688B42B8BF33
:104CA8009360B3F5487F02D362B6F0BC70472148E1
:104CB800036833BB204E214D37682C88A888298982
:104CC8007A0093B21F191E185D184FF400624FF452
:104CD8004063C4F20002C4F20003BFB2B6B2ADB280
:104CE8009786168795879C86188799874FF4406220
:104CF800C4F20002938923F0010001040B0C938194
:104D0800D2E74FF400624FF44063C4F2000240F26D
:104D1800E930C4F2000300219086108790879986B5
:104D280019879987E2E700BF541700203C17002035
:104D3800481700202C00002028000020600A0020CE
:104D48004FF43052C4F20102138A10B423F0010068
:104D580001040C0C148272B613491448938C4C68E5
:104D680042689BB201349342C8BF436010484C600C
:104D780041688B42B8BF4360B3F5487F10D20D4AF3
:104D88004FF43053108891881289C4F20103988631
:104D980019879A87988920F001010A04100C9881D4
:104DA80062B610BC704700BF541700203C170020A3
:104DB80048170020540A00204FF45052C4F2010250
:104DC800138A10B423F0010001040C0C148272B68B
:104DD80013491448938C0C6802689BB201349342BF
:104DE800C8BF036010480C6001688B42B8BF0360FD
:104DF800B3F5487F10D20D4A4FF45053108891886C
:104E08001289C4F20103988619879A87988920F035
:104E180001010A04100C988162B610BC704700BFEB
:104E2800541700203C17002048170020480A00208B
:104E380010B54120FDF7BAFA72B640F64822C2F220
:104E48000002002313605360936062B672B640F6A6
:104E58005420C2F2000003604360836062B640F2EF
:104E68002C024FF440644FF430504FF4505101235A
:104E7800C2F20002C4F20004C4F20100C4F201014B
:104E88001360A38183818B8110BD00BF2DE9F041A0
:104E98004FF43056C4F2010641F2547141F23C72AB
:104EA80041F248734FF450550024C2F20002C2F296
:104EB8000003C2F2000140F2E9373046C4F20105AE
:104EC8004FF440689460546014609F605F601F6096
:104ED8008C604C600C60C4F20008FFF72FFD4FF4A3
:104EE80000672846FFF72AFDC4F20007404621461E
:104EF800FFF772FD02213846FFF76EFD40F22800E9
:104F0800C2F200000388322003F5A87103F29F2241
:104F180089B292B2BB84B184AA84FFF783FD1920B9
:104F2800FFF780FD2C20FFF77DFD72B64FF400409F
:104F38002146024603460124C4F22522C4F2262350
:104F4800C4F20120C4F2012104600C6040461460E0
:104F580021461C60FDF796F838462146FDF792F881
:104F680030462146FDF78EF828462146FDF78AF897
:104F780062B6BDE8F08100BF10B54FF4806484B01C
:104F8800C4F200044722002301A92046ADF80420FA
:104F98004FF6FF72ADF80630ADF80820ADF80A30CC
:104FA800FCF7F2FE20460121FDF75EF804B010BDC3
:104FB80030B585B072B64FF400700121C0F23000F0
:104FC800FCF7EEFD04244FF4006003250DEB04010B
:104FD8004FF40043C4F20100ADF804308DF80740E7
:104FE8008DF80650FCF796FC4FF4406018222823F1
:104FF8000DEB0401C4F20100ADF804208DF8073070
:105008008DF80650FCF786FC4FF480500DEB040138
:10501800C4F20100ADF80440FCF77CFC29460120ED
:10502800FCF7FAFD21460120FCF7F6FD02200146B7
:10503800FCF7F2FD1C2400211022012302A88DF8A0
:105048000C108DF80D208DF80E300294FCF716FC2C
:105058002046FCF751FC2046FCF756FC4FF4614013
:10506800CEF200004FF400714FF480624FF4807369
:10507800016002600360FFF77FFF62B605B030BDD4
:1050880010B54FF48064C4F201046369190700D4B1
:1050980010BD3320FDF78AF961694FF4406041F093
:1050A800080262610821C4F20100FCF765FD0128CD
:1050B80027D0184C4FF44060C4F201000821FCF7D7
:1050C8005BFD80B114490B8822886FF47A71981AB5
:1050D80083B25A1890B240F2E63188420CD90F4B8D
:1050E80000221A6010BD4FF48062C4F20002908C56
:1050F800094983B20B80E7E70849A3F57A7008608D
:1051080010BD4FF48060C4F20000838C014C2380F2
:10511800D0E700BF800A00207E0A0020700A002025
:1051280010B54FF48064C4F2010463695B0700D4CE
:1051380010BD3220FDF73AF961694FF4805041F013
:10514800040262610421C4F20100FCF715FD012884
:1051580027D0184C4FF48050C4F201000421FCF70A
:105168000BFD80B114490B8822886FF47A71981A64
:1051780083B25A1890B240F2E63188420CD90F4BEC
:1051880000221A6010BD4FF48062C4F20002908CB5
:10519800094983B20B80E7E70849A3F57A700860EC
:1051A80010BD4FF48060C4F20000838C014C238052
:1051B800D0E700BF820A00207C0A00206C0A002089
:1051C80010B54FF48064C4F201046369D90600D4B1
:1051D80010BD3420FDF7EAF861694FF4406041F0F2
:1051E800100262611021C4F20100FCF7C5FC01281D
:1051F80027D0184C4FF44060C4F201001021FCF78E
:10520800BBFC80B114490B8822886FF47A71981A14
:1052180083B25A1890B240F2E63188420CD90F4B4B
:1052280000221A6010BD4FF48062C4F20002908C14
:10523800094983B20B80E7E70849A3F57A7008604B
:1052480010BD4FF48060C4F20000838C014C2380B1
:10525800D0E700BF7A0A0020780A0020740A0020EC
:10526800F8B5584B05461E680C46002E6BD0002139
:10527800C4F247316068FBF73BFD07463046FBF751
:10528800E3FC0021C4F2FA31FBF728FC014638465A
:10529800FBF726FC0021C4F24831FBF7DDFD0021B5
:1052A8006060C4F2A0110646FBF7DEFE002842D07B
:1052B80041F26F213046C3F60331FBF719FD42492D
:1052C80068600E68002E44D1404B00221E682A6098
:1052D800002E6AD00021C4F24731A068FBF708FD10
:1052E80007463046FBF7B0FC0021C4F2FA31FBF761
:1052F800F5FB01463846FBF7F3FB0021C4F24831C1
:10530800FBF7AAFD0021A060C4F2A0110646FBF736
:10531800ABFE38B900213046CCF2A011FBF786FE6F
:10532800002842D041F26F213046C3F60331FBF723
:10533800DFFCA860F8BD00213046CCF2A011FBF7D5
:1053480075FE0028B4D1204900200E686860002E40
:10535800BAD00021C4F247312068FBF7C9FC0746E0
:105368003046FBF771FC0021C4F2FA31FBF7B6FBBB
:1053780001463846FBF7B4FB0021C4F24831FBF77D
:105388006BFD00212060C4F2A0110646FBF76CFEFD
:1053980070B141F26F213046C3F60331FBF7A8FC28
:1053A8000A4B28601E68002E94D10020A860F8BD22
:1053B80000213046CCF2A011FBF738FE002883D03C
:1053C800E7E700BF700A00206C0A0020740A00207A
:1053D8004FF46D430422CEF20003C0F2FA52DA60B1
:1053E80000BFFDE708B5134BB3F1006F00D108BD4E
:1053F8004FF48052C4F20202D1694FF4E04041F008
:10540800C053D361C4F2000001684FF4D84241F49C
:1054180080730360C4F2000246F6B43144F6FC23FC
:10542800A2F8B810A2F8BC30026822F480710160BA
:10543800FFF7CEFF0000000800230360C0F80C123D
:1054480043608360704700BF4FF40070704700BF2F
:105458004268036840F2FF10D11A01F50072C8F2E1
:1054680000001040002800DB704701386FEAC05385
:105478006FEAD351481C704738B542B340F2FF1564
:1054880001E0AB4213D14468026840F2FF13A21A4C
:1054980002F50072C8F200031340002BF1DA013B59
:1054A8006FEAC3526FEAD2530133AB42EBD0436881
:1054B8004268C318197340F2FF118A421BD0426830
:1054C800531C4360D0F80C0200B1804738BD4468D3
:1054D800026840F2FF13A21A02F50072C8F2000334
:1054E8001340002B0ADB40F2FF129342DFD18168A0
:1054F8004B1C836038BD00214160E3E7013B6FEA44
:10550800C3526FEAD253013340F2FF129342CED115
:10551800EDE700BFF8B504460E461546002B34D01B
:1055280040F2FF1702E0E818B84214DD606821680D
:1055380040F2FF13421A02F50070C8F2000303405C
:10554800002BF0DA013B6FEAC3516FEAD152531CCA
:10555800E818B842EADC67686268C7F50077BD42B8
:10556800314604EB020028DD3A46ED1B0C3003F00F
:1055780025FB04F10C00F1192A4603F01FFB6560B6
:10558800D4F80C1201B18847F8BD4168026840F2AE
:10559800FF13881A00F50071C8F200030B40002BB6
:1055A80018DBE918B1F5007FD5DBA268D4F80C1236
:1055B8005519A5600029E6D1E6E70C302A4603F024
:1055C800FDFA61684B19B3F5007F0ED06068451984
:1055D8006560D5E7013B6FEAC3526FEAD250431CBE
:1055E800E918B1F5007FB6DBDFE700226260C7E7A4
:1055F80001684268034691420ED0006819681A187B
:10560800107B40F2FF12914203D019684A1C1A60BD
:1056180070470021196070474FF0FF30704700BF96
:10562800704700BFFEE700BFFEE700BFFEE700BF10
:10563800FEE700BF704700BF704700BF704700BF5C
:1056480001F076BC4FF48020FCF75EB910B5044633
:1056580000F0F6F82060606010BD00BF10B5044689
:1056680000F0EEF863686060C01A10BD05C8101A33
:10567800704700BF4FF48053C4F202035A6802F027
:105688000C00082811D04FF49052C0F27A024FF45F
:105698008053C4F2020358681049C0F30313C85C6E
:1056A8000F4B22FA00F21A60704758685968C0F325
:1056B80083420232C90309D55B689B0306D44FF4C1
:1056C8009050C0F27A0000FB02F2E0E74FF410615C
:1056D800C0F23D0101FB02F2D9E700BF340000200F
:1056E800440000204FF48053C4F20203196800B547
:1056F80041F00100186059680022CFF6FF020A4005
:105708005A601A68002122F0847020F480321A60EE
:10571800186883B020F480221A6058681A4620F46A
:10572800FE0058604FF41F009860009101911968BD
:1057380041F48030186003E00098B0F5A06F09D0FC
:10574800136803F4003101910098431C00930199F8
:105758000029F1D04FF48052C4F20202136813F406
:1057680000314CD0012001904FF40052C4F20202E3
:10577800019B1168012B41F01000106011684FF473
:10578800805321F0030010601068C4F2020340F057
:10579800020010605A6819465A60586858605A687A
:1057A80042F4806058605A6822F47C1058605A6845
:1057B80027D042F4601058601A6842F08070186070
:1057C8000A684FF480539001C4F20203F8D559686F
:1057D800184621F003025A60596841F002025A60E3
:1057E800436803F00C010829FAD1FFF743FF4FF48F
:1057F8006D40124ACEF20000826003B000BD0191F4
:10580800B2E742F4E81058601A6842F080701860F5
:105818000A684FF480539201C4F20203F8D559681C
:10582800184621F003025A60596841F002025A6092
:10583800436803F00C010829FAD1D8E700000008F2
:1058480030B413494EF21004CEF200044EF21002A6
:105858000B68CEF20002A56800BF00BF086883424B
:10586800F4D11168C90348BF95684EF21002CEF210
:1058780000025068074A48BF0133411C10684D1B9D
:10588800B5FBF0F54FF47A7101FB035030BC70475B
:10589800840A00204800002040F68423C2F2000356
:1058A8001868704708B572B6074B4EF21002CEF270
:1058B800000212681868411C196062B6034B1A6826
:1058C80002B1904708BD00BF840A0020880A002062
:1058D80040F68823C2F2000318607047134B44F661
:1058E800D3511A68C1F262014DF68363A1FB02012C
:1058F800C4F21B33A3FB02028809930C411E0C4A15
:10590800B1F1807F13600FD24EF21000CEF200008A
:105918004FF46D434160CEF20003F02183F8231069
:105928000022072382600360704700BF4400002004
:10593800480000204FF49840C4F2000040F227715C
:105948000122FCF755BC00BF00B54FF4A06083B03E
:10595800FBF7D0FE01233422002101A88DF8042092
:105968008DF805308DF806108DF80730FBF7CCFE62
:1059780003B000BD40F69C40C2F20000FFF738BEFD
:1059880008B50348FFF764FD0028FAD108BD00BF39
:105998008C0A0020014640F68C20C2F20000012249
:1059A800FFF76ABD10B50446007828B1FFF7F2FF8B
:1059B80014F8010F0028F9D110BD00BF4FF4984327
:1059C800C4F2000370B52A4A1D881168ADB205F00B
:1059D8008000013180B2116090B1264C2168626864
:1059E800914231D026682046A1190A7B9A80266800
:1059F800FFF72AFD0136864233D02368581C206001
:105A080005F02005ADB205B970BD1B4C4FF49842A6
:105A1800C4F2000220469688FFF71AFD0546204684
:105A2800FFF712FD6B1C8342B6B216D061682046A0
:105A3800621865681673FFF707FD0135854213D0B4
:105A48006068431C636070BD184640F227710022ED
:105A5800FCF7CEFB00BF00BFD2E7A268501CA060D5
:105A680070BD00212160CBE70021616070BD00BFDF
:105A7800601700208C0A00209C0C002040F68C2027
:105A880045F63D1108B5C2F20000C0F60001FFF767
:105A9800D3FC40F69C40C2F200000021BDE808405B
:105AA800FFF7CABC30B54FF4805589B0C4F2010580
:105AB8001822284601A94FF480630324ADF8043066
:105AC8008DF807208DF80640FBF724FF4FF4984423
