:020000040800F2
:1000000000C00020A91600081D4C0008214C000863
:10001000254C0008294C00082D4C00080000000069
:10002000000000000000000000000000314C00084B
:10003000354C000800000000394C0008A14E0008B3
:10004000F9160008F9160008F9160008F916000854
:10005000F9160008F9160008F9160008F916000844
:10006000F9160008F94800089D490008F91600082B
:10007000F9160008F9160008F9160008F916000824
:10008000F9160008F9160008F9160008F916000814
:100090003D4C0008F9160008F9160008F91600088A
:1000A000F9160008F9450008F9160008F9160008C5
:1000B000F9160008F9160008F9160008F9160008E4
:1000C000F9160008F9160008F9160008F9160008D4
:1000D000F9160008F9160008F9160008F9160008C4
:1000E000F9160008F9160008414C0008F916000836
:1000F00071460008F9160008F9160008F9160008FC
:10010000F9160008F91600081D450008F916000840
:10011000794F0008F9160008F9160008F9160008CA
:10012000F9160008F9160008F9160008F916000873
:1001300000000000000000000000000000000000BF
:1001400000000000000000000000000000000000AF
:10015000000000000000000000000000000000009F
:10016000000000000000000000000000000000008F
:10017000000000000000000000000000000000007F
:10018000000000000000000000000000000000006F
:10019000000000000000000000000000000000005F
:1001A000000000000000000000000000000000004F
:1001B000000000000000000000000000000000003F
:1001C000000000000000000000000000000000002F
:1001D000000000000000000000000000000000001F
:0401E0005FF8E0F1F3
:1001E80081F0004102E000BF83F0004330B54FEAE0
:1001F80041044FEA430594EA050F08BF90EA020F4D
:100208001FBF54EA000C55EA020C7FEA645C7FEADF
:10021800655C00F0E2804FEA5454D4EB5555B8BF02
:100228006D420CDD2C4480EA020281EA030382EA73
:10023800000083EA010180EA020281EA0303362D05
:1002480088BF30BD11F0004F4FEA01314FF4801CD8
:100258004CEA113102D0404261EB410113F0004FEA
:100268004FEA03334CEA133302D0524263EB4303A1
:1002780094EA050F00F0A780A4F10104D5F1200E3F
:100288000DDB02FA0EFC22FA05F2801841F100019A
:1002980003FA0EF2801843FA05F359410EE0A5F16E
:1002A80020050EF1200E012A03FA0EFC28BF4CF09F
:1002B800020C43FA05F3C01851EBE37101F0004555
:1002C80007D54FF0000EDCF1000C7EEB00006EEB62
:1002D8000101B1F5801F1BD3B1F5001F0CD34908EC
:1002E8005FEA30004FEA3C0C04F101044FEA445243
:1002F80012F5800F80F09A80BCF1004F08BF5FEACA
:10030800500C50F1000041EB045141EA050130BDA9
:100318005FEA4C0C404141EB010111F4801FA4F14C
:100328000104E9D191F0000F04BF01460020B1FAA1
:1003380081F308BF2033A3F10B03B3F120020CDAD9
:100348000C3208DD02F1140CC2F10C0201FA0CF0B7
:1003580021FA02F10CE002F11402D8BFC2F1200C1C
:1003680001FA02F120FA0CFCDCBF41EA0C019040D2
:10037800E41AA2BF01EB0451294330BD6FEA04041B
:100388001F3C1CDA0C340EDC04F11404C4F1200206
:1003980020FA04F001FA02F340EA030021FA04F318
:1003A80045EA030130BDC4F10C04C4F1200220FA6F
:1003B80002F001FA04F340EA0300294630BD21FAAD
:1003C80004F0294630BD94F0000F83F4801306BF73
:1003D80081F480110134013D4EE77FEA645C18BF67
:1003E8007FEA655C29D094EA050F08BF90EA020FFE
:1003F80005D054EA000C04BF1946104630BD91EAF6
:10040800030F1EBF0021002030BD5FEA545C05D1F8
:100418004000494128BF41F0004130BD14F5800437
:100428003CBF01F5801130BD01F0004545F0FE41AB
:1004380041F470014FF0000030BD7FEA645C1ABFE0
:10044800194610467FEA655C1CBF0B46024650EA17
:10045800013406BF52EA033591EA030F41F4002143
:1004680030BD00BF90F0000F04BF0021704730B5C9
:100478004FF4806404F132044FF000054FF000019E
:1004880050E700BF90F0000F04BF0021704730B55F
:100498004FF4806404F1320410F0004548BF404234
:1004A8004FF000013EE700BF42004FEAE2014FEA89
:1004B80031014FEA02701FBF12F07F4393F07F4F64
:1004C80081F06051704792F0000F14BF93F07F4F96
:1004D800704730B54FF4607401F0004521F00041D9
:1004E80020E700BF50EA010208BF704730B54FF05F
:1004F80000050AE050EA010208BF704730B511F064
:10050800004502D5404261EB41014FF4806404F19B
:1005180032045FEA915C3FF4DCAE4FF003025FEA1D
:10052800DC0C18BF03325FEADC0C18BF033202EBA5
:10053800DC02C2F1200300FA03FC20FA02F001FAFF
:1005480003FE40EA0E0021FA02F11444C1E600BF9E
:1005580070B54FF0FF0C4CF4E06C1CEA11541DBF51
:100568001CEA135594EA0C0F95EA0C0F00F0DEF81C
:100578002C4481EA030621EA4C5123EA4C5350EA01
:10058800013518BF52EA033541F4801143F4801352
:1005980038D0A0FB02CE4FF00005E1FB02E506F0E3
:1005A8000042E0FB03E54FF00006E1FB03569CF038
:1005B800000F18BF4EF0010EA4F1FF04B6F5007F3E
:1005C80064F5407404D25FEA4E0E6D4146EB0606B0
:1005D80042EAC62141EA55514FEAC52040EA5E5039
:1005E8004FEACE2EB4F1FD0C88BFBCF5E06F1ED8E3
:1005F800BEF1004F08BF5FEA500E50F1000041EB1A
:10060800045170BD06F0004646EA010140EA0200C6
:1006180081EA0301B4EB5C04C2BFD4EB0C0541EAE8
:10062800045170BD41F480114FF0000E013C00F3FD
:10063800AB8014F1360FDEBF002001F0004170BD21
:10064800C4F10004203C35DA0C341BDC04F114043A
:10065800C4F1200500FA05F320FA04F001FA05F2C6
:1006680040EA020001F0004221F0004110EBD37093
:1006780021FA04F642EB06015EEA430E08BF20EABF
:10068800D37070BDC4F10C04C4F1200500FA04F362
:1006980020FA05F001FA04F240EA020001F00041F4
:1006A80010EBD37041F100015EEA430E08BF20EA67
:1006B800D37070BDC4F1200500FA05F24EEA020EAF
:1006C80020FA04F301FA05F243EA020321FA04F0DE
:1006D80001F0004121FA04F220EA020000EBD37095
:1006E8005EEA430E08BF20EAD37070BD94F0000F95
:1006F8000FD101F00046400041EB010111F4801FC9
:1007080008BF013CF7D041EA060195F0000F18BF79
:10071800704703F00046520043EB030313F4801FB5
:1007280008BF013DF7D043EA0603704794EA0C0F6F
:100738000CEA135518BF95EA0C0F0CD050EA410685
:1007480018BF52EA4306D1D181EA030101F0004102
:100758004FF0000070BD50EA410606BF104619462A
:1007680052EA430619D094EA0C0F02D150EA013636
:1007780013D195EA0C0F05D152EA03361CBF104677
:1007880019460AD181EA030101F0004141F0FE4116
:1007980041F470014FF0000070BD41F0FE4141F49A
:1007A800780170BD70B54FF0FF0C4CF4E06C1CEA9A
:1007B80011541DBF1CEA135594EA0C0F95EA0C0F4F
:1007C80000F0A7F8A4EB050481EA030E52EA03350A
:1007D8004FEA013100F088804FEA03334FF080552B
:1007E80045EA131343EA12634FEA022245EA111558
:1007F80045EA10654FEA00260EF000419D4208BF09
:10080800964244F1FD0404F5407402D25B084FEAB5
:100818003202B61A65EB03055B084FEA32024FF461
:1008280080104FF4002CB6EB020E75EB030E22BFBE
:10083800B61A754640EA0C005B084FEA3202B6EB7E
:10084800020E75EB030E22BFB61A754640EA5C002D
:100858005B084FEA3202B6EB020E75EB030E22BFBD
:10086800B61A754640EA9C005B084FEA3202B6EBBE
:10087800020E75EB030E22BFB61A754640EADC007D
:1008880055EA060E18D04FEA051545EA16754FEADF
:1008980006164FEAC30343EA52734FEAC2025FEAFD
:1008A8001C1CC0D111F4801F0BD141EA00014FF08C
:1008B80000004FF0004CB6E711F4801F04BF01435D
:1008C8000020B4F1FD0C88BFBCF5E06F3FF6AFAE79
:1008D800B5EB030C04BFB6EB020C5FEA500C50F109
:1008E800000041EB045170BD0EF0004E4EEA11318C
:1008F80014EB5C04C2BFD4EB0C0541EA045170BD93
:1009080041F480114FF0000E013C90E645EA060ED6
:100918008DE60CEA135594EA0C0F08BF95EA0C0F04
:100928003FF43BAF94EA0C0F0AD150EA01347FF44C
:1009380034AF95EA0C0F7FF425AF104619462CE723
:1009480095EA0C0F06D152EA03353FF4FDAE104686
:10095800194622E750EA410618BF52EA43067FF4D7
:10096800C5AE50EA41047FF40DAF52EA43057FF467
:10097800EBAE12E74FEA410212F5001215D211D57B
:100988006FF47873B3EB625212D94FEAC12343F084
:10099800004343EA505311F0004F23FA02F018BF06
:1009A800404270474FF00000704750EA013005D1CF
:1009B80011F0004008BF6FF0004070474FF0000092
:1009C800704700BF80F0004002E000BF81F00041A6
:1009D80042001FBF5FEA410392EA030F7FEA226CDD
:1009E8007FEA236C6AD04FEA1262D2EB1363C1BF6D
:1009F800D218414048404140B8BF5B42192B88BFDC
:100A0800704710F0004F40F4000020F07F4018BFFE
:100A1800404211F0004F41F4000121F07F4118BF1E
:100A2800494292EA030F3FD0A2F1010241FA03FCC6
:100A380010EB0C00C3F1200301FA03F100F00043AE
:100A480002D5494260EB4000B0F5000F13D3B0F176
:100A5800807F06D340084FEA310102F10102FE2AE5
:100A680051D2B1F1004F40EBC25008BF20F0010055
:100A780040EA03007047490040EB000010F4000F03
:100A8800A2F10102EDD1B0FA80FCACF1080CB2EB96
:100A98000C0200FA0CF0AABF00EBC25052421843F5
:100AA800BCBFD0401843704792F0000F81F400019A
:100AB80006BF80F400000132013BB5E74FEA41036D
:100AC8007FEA226C18BF7FEA236C21D092EA030FD9
:100AD80004D092F0000F08BF0846704790EA010F53
:100AE8001CBF0020704712F07F4F04D1400028BF80
:100AF80040F00040704712F100723CBF00F5000062
:100B0800704700F0004343F0FE4040F40000704797
:100B18007FEA226216BF08467FEA23630146420243
:100B280006BF5FEA412390EA010F40F48000704756
:100B38004FF0000304E000BF10F0004348BF4042FC
:100B48005FEA000C08BF704743F0964301464FF038
:100B580000001CE050EA010208BF70474FF0000394
:100B68000AE000BF50EA010208BF704711F00043D5
:100B780002D5404261EB41015FEA010C02BF8446A5
:100B88000146002043F0B64308BFA3F18053A3F504
:100B98000003BCFA8CF2083AA3EBC25310DB01FA4B
:100BA80002FC634400FA02FCC2F12002BCF1004FCF
:100BB80020FA02F243EB020008BF20F00100704760
:100BC80002F1200201FA02FCC2F1200250EA4C00B4
:100BD80021FA02F243EB020008BF20EADC707047FA
:100BE8004FF0FF0C1CEAD0521EBF1CEAD15392EA08
:100BF8000C0F93EA0C0F6FD01A4480EA010C4002E4
:100C080018BF5FEA41211ED04FF0006343EA50103D
:100C180043EA5111A0FB01310CF00040B1F5000F7F
:100C28003EBF490041EAD3715B0040EA010062F12E
:100C38007F02FD2A1DD8B3F1004F40EBC25008BF18
:100C480020F00100704790F0000F0CF0004C08BF36
:100C580049024CEA502040EA51207F3AC2BFD2F103
:100C6800FF0340EAC250704740F400004FF0000311
:100C7800013A5DDC12F1190FDCBF00F0004070474B
:100C8800C2F10002410021FA02F1C2F1200200FA89
:100C980002FC5FEA310040F1000053EA4C0308BF50
:100CA80020EADC70704792F0000F00F0004C02BFA1
:100CB800400010F4000F013AF9D040EA0C0093F01C
:100CC800000F01F0004C02BF490011F4000F013B76
:100CD800F9D041EA0C018FE70CEAD15392EA0C0FE4
:100CE80018BF93EA0C0F0AD030F0004C18BF31F04F
:100CF800004CD8D180EA010000F00040704790F025
:100D0800000F17BF90F0004F084691F0000F91F0C8
:100D1800004F14D092EA0C0F01D142020FD193EA8E
:100D28000C0F03D14B0218BF084608D180EA010016
:100D380000F0004040F0FE4040F40000704740F0F2
:100D4800FE4040F4400070474FF0FF0C1CEAD052C0
:100D58001EBF1CEAD15392EA0C0F93EA0C0F69D01C
:100D6800A2EB030280EA010C49024FEA402037D087
:100D78004FF0805343EA111143EA10130CF000407E
:100D88008B4238BF5B0042F17D024FF4000C8B426E
:100D980024BF5B1A40EA0C00B3EB510F24BFA3EB4E
:100DA800510340EA5C00B3EB910F24BFA3EB91031E
:100DB80040EA9C00B3EBD10F24BFA3EBD10340EA78
:100DC800DC001B0118BF5FEA1C1CE0D1FD2A3FF6BE
:100DD80050AF8B4240EBC25008BF20F00100704773
:100DE8000CF0004C4CEA50207F32C2BFD2F1FF0316
:100DF80040EAC250704740F400004FF00003013A47
:100E080037E792F0000F00F0004C02BF400010F4EA
:100E1800000F013AF9D040EA0C0093F0000F01F0FE
:100E2800004C02BF490011F4000F013BF9D041EA20
:100E38000C0195E70CEAD15392EA0C0F08D1420253
:100E48007FF47DAF93EA0C0F7FF470AF084676E726
:100E580093EA0C0F04D14B023FF44CAF08466EE7FF
:100E680030F0004C18BF31F0004CCAD130F00042CD
:100E78007FF45CAF31F000437FF43CAF5FE700BF25
:100E88004FF0FF3C06E000BF4FF0010C02E000BF4E
:100E98004FF0010C4DF804CD4FEA40024FEA4103F0
:100EA8007FEA226C18BF7FEA236C11D001B052EAA6
:100EB800530C18BF90EA010F58BFB2EB030088BF6C
:100EC800C81738BF6FEAE17018BF40F001007047DB
:100ED8007FEA226C02D15FEA402C05D17FEA236CBD
:100EE800E4D15FEA412CE1D05DF8040B704700BF04
:100EF800844608466146FFE70FB5FFF7C9FF00289B
:100F080048BF10F1000F0FBD4DF808EDFFF7F4FFD3
:100F18000CBF012000205DF808FB00BF4DF808ED6C
:100F2800FFF7EAFF34BF012000205DF808FB00BF8F
:100F38004DF808EDFFF7E0FF94BF012000205DF8B1
:100F480008FB00BF4DF808EDFFF7D2FF94BF012062
:100F580000205DF808FB00BF4DF808EDFFF7C8FF5B
:100F680034BF012000205DF808FB00BF4FEA4002B3
:100F7800B2F1FE4F0FD34FF09E03B3EB12620DD9BF
:100F88004FEA002343F0004310F0004F23FA02F029
:100F980018BF404270474FF00000704712F1610FD0
:100FA80001D1420205D110F0004008BF6FF00040A7
:100FB80070474FF0000070474FF0FF3C06E000BF5D
:100FC8004FF0010C02E000BF4FF0010C4DF804CDCA
:100FD8004FEA410C7FEA6C5C4FEA430C18BF7FEA8A
:100FE8006C5C1BD001B050EA410C0CBF52EA430CB8
:100FF80091EA030F02BF90EA020F0020704710F138
:10100800000F91EA030F58BF994208BF90422CBFC6
:10101800D8176FEAE37040F0010070474FEA410CBF
:101028007FEA6C5C02D150EA013C07D14FEA430CDD
:101038007FEA6C5CD6D152EA033CD3D05DF8040B4E
:10104800704700BF8446104662468C461946634680
:1010580000E000BF01B5FFF7B7FF002848BF10F157
:10106800000F01BD4DF808EDFFF7F4FF0CBF01209C
:1010780000205DF808FB00BF4DF808EDFFF7EAFF18
:1010880034BF012000205DF808FB00BF4DF808EDD3
:10109800FFF7E0FF94BF012000205DF808FB00BFC8
:1010A8004DF808EDFFF7CEFF94BF012000205DF852
:1010B80008FB00BF4DF808EDFFF7C4FF34BF01205F
:1010C80000205DF808FB00BF4BB942B9002908BFF2
:1010D800002802D04FF0FF31084600F03BB882B03C
:1010E800EC462DE9005000F01DF8DDF804E002B0F0
:1010F8000CBC70472DE9F0411646984604460D464B
:1011080000F02AF806FB01FCA6FB002300FB08C739
:10111800FB18A21A65EB0303069CC4E90023BDE88B
:10112800F08100BF2DE9F041904606460F461D4666
:1011380000F070F900FB05F3A0FB084508FB013837
:10114800069B4544341B67EB0505C3E90045BDE82C
:10115800F08100BF704700BF00292DE9F00F1D4640
:10116800C0F29D800024002DC0F2948080460F4676
:1011780094461E46E3BB8A4255D9B2FA82F747B174
:10118800C7F1200520FA05F601FA07F1BA40B84080
:101198003143170CB1FBF7F61FFA82FC07FB161157
:1011A8000CFB06F5030C43EA01439D4208D9711E66
:1011B8009B1880F013819D4240F21081023E9B18DB
:1011C800591BB1FBF7F507FB15130CFB05FC80B2A7
:1011D80040EA03418C4507D96B1E8A1880F00081CC
:1011E800944540F2FD80023D45EA0641002503E0B2
:1011F8008B420CD9002529460A462B4614B1524287
:1012080063EB430310461946BDE8F00F7047B3FA85
:1012180083F5002D40F087808B4201D38242EAD8C3
:1012280000250121E8E712B90126B6FBF2F2B2FA6D
:1012380082F6002E39D18E1A130C1FFA82FC012572
:10124800B6FBF3F703FB17610CFB07F84FEA1049ED
:1012580049EA0146B04506D9791EB61802D2B0450A
:1012680000F2D3800F46C8EB0606B6FBF3F103FB8A
:1012780011630CFB01FC80B240EA03439C4506D98C
:101288004E1E9A1802D2944500F2C280314641EAB5
:101298000741B1E7E443524263EB430366E7404248
:1012A80061EB41014FF0FF345DE7B240C6F1200920
:1012B80021FA09F720FA09F901FA06F1130CB7FB2C
:1012C800F3F81FFA82FC03FB18770CFB08F549EAD0
:1012D80001094FEA194141EA0747B040BD420AD91E
:1012E800BF1808F1FF3680F08E80BD4240F28B8037
:1012F800A8F10208BF18791BB1FBF3F503FB15171A
:101308000CFB05F61FFA89F949EA07418E4206D90E
:101318006F1E891871D28E426FD9023D89188E1BB3
:1013280045EA08458CE7C5F1200122FA01F306FADF
:1013380005F627FA01F207FA05F720FA01F11E432C
:101348004FEA1649B2FBF9F81FFA86FA09FB182288
:101358000AFB08FB0F433B0C43EA024293450CFA95
:1013680005FC08D9921908F1FF314AD2934548D9AA
:10137800A8F102089219CBEB0203B3FBF9F109FBC0
:1013880011320AFB01FABFB247EA02439A4506D96D
:101398004A1E9B1933D29A4531D902399B1941EA21
:1013A80008410F0C1FFA8CF808FB07F68AB24FEABF
:1013B8001C4C08FB02F80CFB02620CFB07FC02EB5E
:1013C8001842964288BF0CF5803CCAEB03030CEB2D
:1013D800124C63450ED305D000250DE70E46EFE607
:1013E8001D4601E700FA05F01FFA88F808EB0245E8
:1013F800A842F1D201390025FEE63D468FE71146A5
:10140800CDE78846B7E7B04675E7023FB6182AE742
:1014180002393CE72DE9F007144605460E46002B35
:101428003DD18A4249D9B2FA82F747B1C7F12001C2
:1014380020FA01F206FA07F6BC40BD401643220C1A
:10144800B6FBF2F0A1B202FB106601FB00F32F0C11
:1014580047EA0646B34208D9471E361980F0FA8093
:10146800B34240F2F78002383619F61AB6FBF2F3A7
:1014780002FB136201FB03F1ADB245EA024291425D
:1014880007D95E1E121980F0E780914240F2E4808D
:10149800023B43EA00400021BDE8F00770478B4259
:1014A80043D8B3FA83F4002C42D18B4202D3824250
:1014B80000F2E18000210120EEE712B90127B7FB15
:1014C800F2F4B4FA84F2002A40F089800A1B230C53
:1014D800A7B20121B2FBF3F603FB162207FB06F0C5
:1014E8004FEA154C4CEA0242904207D9121906F10C
:1014F800FF3C02D2904200F2D0806646121AB2FB3C
:10150800F3F003FB102307FB00F7ADB245EA0343F2
:101518009F4207D9421E1B1980F0A0809F4240F2CB
:101528009D80023840EA0640B6E700210846B3E746
:10153800C4F1200622FA06F703FA04F321FA06F5A5
:1015480001FA04F120FA06F63B434FEA134CB5FBC7
:10155800FCF71FFA83F80CFB175508FB07F946EA56
:10156800010A4FEA1A4141EA0545A94502FA04F27F
:1015780004D97E1EED18C0F081803746C9EB0501FD
:10158800B1FBFCF60CFB161508FB06F81FFA8AFAE5
:101598004AEA0541884503D9751EC91874D32E46F1
:1015A80046EA0746370C1FFA82FC0CFB07F5120CBB
:1015B800B3B20CFB03FC02FB035302FB07F203EB81
:1015C8001C439D4288BF02F58032C8EB010102EB43
:1015D800134291424CD343D0304600215CE79440FB
:1015E800C2F1200521FA05F620FA05F501FA02F103
:1015F800230CB6FBF3FCA7B203FB1C6607FB0CF835
:1016080029430D0C45EA0646B04500FA02F508D90B
:1016180036190CF1FF303ED2B0453CD9ACF1020C82
:101628003619C8EB0602B2FBF3F003FB102607FBE2
:1016380000F889B241EA0642904506D9461E1219B9
:1016480027D2904525D902381219C8EB020240EA80
:101658000C413FE7384608E733461AE7104661E78A
:1016680000FA04F01FFA8CFC0CEB03439842B3D247
:10167800701E002110E7214620460DE7A9457FF698
:101688007CAF023FED1879E7884588D9023EC91832
:1016980086E73046D9E78446C3E7023E12192DE7AC
:1016A800002100F004B80D4B5B58435004310C483E
:1016B8000C4B42189A42FFF4F6AF0B4A00F003B8FD
:1016C800002342F8043B094B9A42FFF4F9AF03F0B8
:1016D80003FB05F06FFB02F01DFC7047C8DC000837
:1016E80000000020140B0020140B0020881B002091
:1016F800FFF7FEBF70B48AB3561EF2B2531C5E00E9
:10170800030FB21E0024092BC2F3400228D9373335
:101718000B7002230001B3424C701FD052B1020F6C
:10172800092A13D93732CA54CA1802330001B342FE
:10173800547013D0050F092D15D83035CD5400013C
:10174800020FCD180233092A6C70EBD83032CA5414
:10175800CA1802330001B3425470EBD170BC704711
:1017680030330B70D5E73735CD54E8E730B54FF453
:10177800006483B0C4F201040420012105F0A0F83C
:101788004FF4805503231422204601A98DF8063012
:101798008DF80720ADF8045004F082FE2946204653
:1017A80004F0B8FFC82003F077FD2946204604F06E
:1017B800AFFF4FF4802004F06DFE41F21821C2F211
:1017C80000014FF480230B600822012308464A7168
:1017D8008B7104F019FE03B030BD00BF002008B5BE
:1017E80004F0FCFF4FF400000121BDE8084005F0BB
:1017F80075B800BF054B987A20B9054901220A60DF
:1018080003F06ABA024B05201860F9E7581B00205C
:10181800180B002010B54FF4A06082B004F0D0FC83
:101828000124142301A8022100228DF804308DF828
:1018380005108DF806208DF8074004F0CBFC2A230C
:1018480001A88DF804308DF8054004F0C3FC02B0FF
:1018580010BD00BF704700BF4FF2E8724FF2F0733F
:10186800C1F6FF72C1F6FF7310681A684FF2EC7187
:10187800C1F6FF71801810B50C6800D110BD0822A0
:101888000449FFF737FF044920460422BDE8104009
:10189800FFF730BF020000201200002070B5104D85
:1018A8002B68BBB9402911D9402426463246C021AD
:1018B80004F0CEFA0120314604F022FC2968012008
:1018C80062182A6004F07EFB204670BD0C4621B9E0
:1018D800204670BD0024204670BD0E460C46E5E744
:1018E800141200202DE9F041214F0C463B68DFF827
:1018F80088808B4238BF3C6814B31E4D98F800109E
:1019080001236E5C621E9C42067002EA03021E46B8
:1019180016D932B16B1C5A5C02239C4242701E4697
:101928000ED9EA1812F801C00133DAB200F806C07D
:10193800531CAE18765CDBB29C4286541E46F0D827
:10194800386898F80010051B3D603D68621888F8F3
:10195800002055B90320402104F0E2FB03204FF496
:10196800405104F00FFB044B1D702046BDE8F08188
:101978006012002020120020140B002040F61533BE
:10198800C2F200031878421E514251EB0200704720
:1019980040F6183240F615330021C2F20002C2F2B6
:1019A8000003116019707047034B0128187002D1A9
:1019B8000248002202607047150B00201412002014
:1019C80040F61533C2F200031878704708B50320B3
:1019D80004F0C8FB41F26023C2F2000318601A68E1
:1019E80041F22020C2F200004FF4887192B2BDE8A3
:1019F800084004F069BA00BF45F64442C4F2000248
:101A080038B51368284C98B2284D208021882B8837
:101A1800194001F4007081B239B125494FF6FF50E1
:101A280010600A78501CC2B20A702188194001F46B
:101A3800004082B2002A32D1218801F4806003423A
:101A480021D1228802F400510B4211D1228802F4DC
:101A580080510B4200D138BD45F64440C4F2000025
:101A68004EF6FF7303600020BDE8384000F07CB9F3
:101A780045F64443C4F200034DF6FF701860FFF7C3
:101A880087FF2B88E2E70B4945F64443C4F200037D
:101A98004FF6FF321A60486880472B88D1E704F078
:101AA800FDF82B88C8E700BF641200207C1B0020CB
:101AB800160B00205C000020034B987A10B10349F4
:101AC80005220A60704700BF581B0020180B002031
:101AD80040F61833C2F2000304221A60704700BFB0
:101AE800034B1A78202A01D100201870704700BFD4
:101AF800170B0020704700BF09B10220704701286A
:101B0800FBD80846704700BF08B103487047034B2D
:101B1800082219680A827047D8000020781B002024
:101B280008B103487047034B082219680A827047B6
:101B3800D8000020781B0020054B1968CA78042AB1
:101B480004D8044B03EBC20103F0A6BD0020704784
:101B5800781B0020B800002040F25401C2F20001B6
:101B680003F09ABD40F2B001C2F2000103F094BD47
:101B780010B504460220FFF717FF074B18680178D5
:101B880001F07F02212A01D0022010BD022C01D0D1
:101B9800222CF9D1002010BD781B002010B5044676
:101BA8000120FFF701FF212C03D0202C11D00220A7
:101BB80010BD0F4B19680A7802F07F002128F6D172
:101BC8000C4A1B68002420469A615C829047204694
:101BD80010BD074B1A68107800F07F01212903D047
:101BE800054B02201C7010BD0348044A0470E8E746
:101BF800781B0020111B0008170B0020291B000868
:101C080041F678334DF26C32C0F60002C2F200039E
:101C1800D179186810B5002441728472C4722046C4
:101C280004F07AF920464FF4007104F07FF910218E
:101C3800204604F087F94021204604F02DFA80213F
:101C4800204604F017FA204604F0E0F940F25C035D
:101C5800C2F2000393F82C10204604F061FA2046E3
:101C680004F0C2F90120214604F060F90120C021E6
:101C780004F000FA0120202104F064F90120214633
:101C880004F080F902204FF4C06104F04FF90220FB
:101C98004FF4807104F0EEF90220214604F072F945
:101CA8000220202104F04EF90320214604F03EF9D9
:101CB80003204FF4887104F0EFF90320402104F069
:101CC8002FFA03204FF4405104F05CF92146032019
:101CD80004F038F9204603F039FF40F61830C2F214
:101CE80000000122026010BD10B5FFF7B5FD41F6F6
:101CF8007833C2F2000318680024847200F008F8F0
:101D080004F048FA40F61831C2F200010C6010BD28
:101D180038B50120FFF79EFD45F6444545F640439A
:101D280041F67C32C4F2000300214FF4E054012054
:101D3800C4F20005C2F20002186019600846296062
:101D480014801C6038BD00BF10B545F64044C4F28D
:101D5800000422684FF6FB7313402360FFF74AFD27
:101D68004FF43640206010BD10B52B4C072818BF23
:101D780020702378052B19D8DFE803F01B222A2FBF
:101D88003A036078411ECAB26270637883B945F637
:101D98004042C4F2000210684FF6EF710140116032
:101DA8001D4A1E49062010700B6010BD06202070C9
:101DB80010BD1A480268002A28D00521217010BDDC
:101DC800FFF7C2FF154B042201212270196010BDD4
:101DD800022303206370207010BD6278511ECBB2BD
:101DE800637060780028E3D10B4904220A7010BDA3
:101DF80045F64043C4F20003186882B242F010016D
:101E080019600A2005232370607010BDFFF79CFF3E
:101E18000623237010BD00BF681200201C0B002091
:101E280030B54FF4805087B0082300246946C4F2C7
:101E38000100ADF800308DF8034004F031FB4FF499
:101E4800004004F0D1FC01214FF4007004F038FD8B
:101E58004FF41050C4F2010004F0FAF94FF4105096
:101E68004FF460220125C4F2010001A903920194F4
:101E78008DF808408DF8094004948DF8145004F04A
:101E88001FFA4FF41050C4F20100294604F03EFA3C
:101E98004FF41050C4F2010004F042FA4FF410500D
:101EA800C4F2010004F042FA0028F7D14FF41050B0
:101EB800C4F2010004F03EFA4FF41050C4F20100DD
:101EC80004F03EFA0028F7D107B030BD01464FF4C0
:101ED800105008B5C4F201000122032304F03EFAB1
:101EE8004FF41050C4F20100012104F02DFA4FF410
:101EF8001050C4F20100022104F080FA0028F6D044
:101F08004FF41050C4F20100BDE8084004F072BA62
:101F180008B503F0A1F84DF2B030C0F6000003F0A8
:101F28001BF8BDE8084003F035B900BF0FB410B581
:101F3800C2B044AC54F8042BFF21234602A80194F4
:101F480005F08CF802A803F007F802A805F02AF8B3
:101F5800014602A803F034F942B0BDE8104004B0CD
:101F6800704700BF0FB410B5C2B044AC54F8042B8E
:101F780002A8FF212346019405F070F802A802F098
:101F8800EBFF42B0BDE8104004B0704700B50C4B01
:101F980083B01868002804DB4FF0FF321A6003B0E2
:101FA80000BD03F01DF938B10DF10700012103F060
:101FB8001DF99DF80700F2E702F0C0FFEFE700BF48
:101FC800E400002010B582B002AC04F8010D02F064
:101FD800BBFF2046012103F0F3F802B010BD00BF9B
:101FE800704700BF70B5FFF7D1FF041E52DB03F046
:101FF8000BF9A4F12B034A2B4CD8DFE813F00201AC
:102008004B0014014B004B004B004B004B004B00A6
:102018004B004B004B004B004B004B004B004B0060
:102028004B004B004B004B004B004B004B004B0050
:102038004B004B004B004C004B004B004B004B003F
:102048004B004B004B004B004B004B004B004B0030
:102058004B004B004B004B004B004B004B004B0020
:102068004B004B004B004B004B004B004B009700C4
:10207800A6004B004B00AC00D900E900ED004B0076
:102088004B004B004B004B00F1004B004B004B004A
:102098004B00F70070BD684C002122786748134652
:1020A800FFF744FF6278012113466448FFF73EFFBB
:1020B800A278022113466148FFF738FFE27803212E
:1020C80013465E48FFF732FF2279042113465B4826
:1020D800FFF72CFF6279052113465848FFF726FFC2
:1020E800A279062113465548FFF720FFE279072118
:1020F80013465248FFF71AFF227A082113464F4821
:10210800FFF714FF627A092113464C48FFF70EFFC8
:10211800A27A0A2113464948FFF708FFE27A47489E
:102128000B211346BDE87040FFF700BF444B4548FC
:10213800196881F00102444C44491A60002A08BF1A
:102148002146BDE87040FFF7F1BE414B41481C688D
:1021580084F00102EFE7384C642003F09DF8782002
:10216800FFF730FF2078FFF72DFF6078FFF72AFF91
:10217800A078FFF727FFE078FFF724FF2079FFF723
:1021880021FF6079FFF71EFFA079FFF71BFFE079B9
:10219800FFF718FF207AFFF715FF607AFFF712FFA5
:1021A800A07AFFF70FFFE07ABDE87040FFF70ABF9B
:1021B800214D0024FFF7EAFE0028FBDB6428D8BF86
:1021C800605501340C2CF5D1BDE8704000F0D0B852
:1021D800214A0120106070BD1F4B0021196070BD9D
:1021E8001E4B1F481A6882F00102A4E71D480468C4
:1021F800FFF7E6FB02461C482146BDE87040FFF7A2
:10220800B1BE1A4C4CF6CD41C3F6CC512068FEF74E
:10221800DFFB2060FEF748F9024615480B46BDE88B
:102228007040FFF783BE114C4CF6CD41C3F6CC513C
:102238002068FEF7CBFBECE7E8000020C8D30008D5
:10224800200B002028D40008C4D30008C0D30008FD
:10225800300B0020F8D300088C120020500B00200F
:102268000CD40008180B002040D40008600200209D
:10227800DCD3000808B5002000F056F964289CBF9C
:102288003A4B1870052003F007F8012000F04CF9CC
:1022980064289CBF35494870052002F0FDFF0220E4
:1022A80000F042F964289CBF304A9070052002F083
:1022B800F3FF032000F038F964289CBF2B4BD8703B
:1022C800052002F0E9FF042000F02EF964289CBFE5
:1022D80026490871052002F0DFFF052000F024F9E7
:1022E80064289CBF214A5071052002F0D5FF0620C2
:1022F80000F01AF964289CBF1C4B9871052002F065
:10230800CBFF072000F010F964289CBF1749C8715B
:10231800052002F0C1FF082000F006F964289CBFE0
:10232800124A1072052002F0B7FF092000F0FCF8ED
:1023380064289CBF0D4B5872052002F0ADFF0A209F
:1023480000F0F2F864289CBF08498872052002F062
:10235800A3FF0B2000F0E8F864289CBF034AD07262
:102368000520BDE8084002F097BF00BFE800002044
:1023780008B502F049FF002000F0D6F8411C06D04D
:10238800594B1978814202D0002000F0AFF805209F
:1023980002F082FF012000F0C7F8421C06D0524923
:1023A8004978814202D0012000F0A0F8052002F00F
:1023B80073FF022000F0B8F8431C06D04A4A91780F
:1023C800814202D0022000F091F8052002F064FF5B
:1023D800032000F0A9F8411C06D0434BD97881426C
:1023E80002D0032000F082F8052002F055FF0420F7
:1023F80000F09AF8421C06D03B490979814202D084
:10240800042000F073F8052002F046FF052000F0D4
:102418008BF8431C06D0344A5179814202D00520FA
:1024280000F064F8052002F037FF062000F07CF881
:10243800411C06D02C4B9979814202D0062000F02D
:1024480055F8052002F028FF072000F06DF8421C1F
:1024580006D02549C979814202D0072000F046F804
:10246800052002F019FF082000F05EF8431C06D092
:102478001D4A117A814202D0082000F037F8052061
:1024880002F00AFF092000F04FF8411C06D0164B55
:10249800597A814202D0092000F028F8052002F07C
:1024A800FBFE0A2000F040F8421C06D00E49897A4B
:1024B800814202D00A2000F019F8052002F0ECFE53
:1024C8000B2000F031F8431C06D0074AD17A81422C
:1024D80002D00B2000F00AF8052002F0DDFEBDE86E
:1024E800084002F099BE00BFE800002038B5044655
:1024F80005200D4602F0D0FE00F086FEAE2000F06A
:1025080021FF01F0E9FB204600F01CFF01F0E4FB8D
:10251800284600F017FF01F0DFFB00F09BFE0520C6
:10252800BDE8384002F0B8BE38B50546174C012062
:1025380002F0B2FE0023236000F066FEAE2000F039
:1025480001FF01F0C9FB284600F0FCFE01F0C4FBC6
:1025580000F080FE012002F09FFE00F055FEAF2043
:1025680000F0F0FE01F0B8FB01F042F8054600F07B
:10257800C1FE00F06FFE012002F08EFE20680028E8
:102588000CBF28464FF0FF3038BD00BF1C1B002091
:1025980040F64433C2F2000300212DE9F0411868E7
:1025A800C4F27A41FEF71CFB40F63431C2F2000156
:1025B8000968FEF70DFA40F2E804C2F20004064684
:1025C8006078FEF7B5FA3146FEF70AFB0021C4F23F
:1025D800C821FEF7B9FB07462079FEF7A9FA0021C2
:1025E800C4F2C821FEF7B0FB41F2B825C2F20005DB
:1025F800296880463046FEF7E9F901464046FEF76D
:10260800EFFA014638462E60FEF7E2F9E179BDE8B7
:10261800F04101F00BBF00BF40F62833C2F20003BF
:1026280000212DE9F0411868C4F27A41FEF7D8FA82
:1026380040F63C31C2F200010968FEF7C9F940F2E0
:10264800E804C2F2000406462078FEF771FA314623
:10265800FEF7C6FA0021C4F2C821FEF775FB07464B
:10266800E078FEF765FA0021C4F2C821FEF76CFB9A
:1026780041F2A825C2F20005296880463046FEF7D7
:10268800A5F901464046FEF7ABFA014638462E60EA
:10269800FEF79EF9A179BDE8F04101F0EBBE00BF5D
:1026A80040F63833C2F2000300212DE9F0411868E2
:1026B800C4F27A41FEF794FA40F64C31C2F20001B6
:1026C8000968FEF785F940F2E804C2F200040546FD
:1026D800A078FEF72DFA2946FEF782FA0021C4F207
:1026E800C821FEF731FB667907463046FEF720FA27
:1026F8000021C4F2C821FEF727FB41F2A424C2F24C
:102708000004216880462846FEF760F901464046E5
:10271800FEF766FA256001463846FEF759F9314654
:10272800BDE8F04101F0CABE2DE9F04FC54F95B0A4
:102738003B680446581C386002F066FD02F088FDCC
:1027480012A802F07DFA00F0B3FB12A802F080FA9A
:102758000D9002F0C7F80E9002F016F95A2101FB0D
:1027680000F240F2E803C2F2000344F6D3580C909A
:10277800C1F26208D87A88FB0215D617FEF7DCF991
:102788000021C4F24821FEF721F946F24201C3F6BE
:102798006531FEF725FAC6EBA5180646AA4DAB48E3
:1027A8002968006809F044FA01463046FEF70EF938
:1027B800A74A29688246106809F03AFA814612A8A1
:1027C80002F046FA0F9000F0EBFB12A802F040FA74
:1027D800A04E00211090C4F2C6213068FEF700FA1E
:1027E8005146FEF7F5F80021C4F2C821FEF7ACFA0D
:1027F800994D824600212868C4F2C621C6F800A077
:10280800FEF7EEF94946FEF7E3F80021C4F2C821C5
:10281800FEF79AFA41F61431C2F20001DFF85CB211
:102828000E6881465BF82810C5F8009006F1004054
:10283800FEF7D6F905468948C8F15A035BF8231014
:102848000068FEF7CDF940F64432C2F200020146B4
:1028580028461568FEF7BCF82146FEF7C1F9294657
:10286800FEF7B6F8294683465046FEF7AFF84BF216
:102878001771C3F65111FEF7B3F901465846FEF732
:10288800A7F840F64433C2F200030021C4F24821FD
:102898001860FEF7A5F90021CBF680710546FEF712
:1028A8003DFB002840F0538128464FF07E51FEF74B
:1028B80053FB08B14FF07E55694ADFF8C4A1156093
:1028C800DAF800002946FEF783F8664DCAF80000DA
:1028D80021463046FEF784F92968FEF779F86249FF
:1028E800286009682046FEF77BF9604EDFF894A15E
:1028F800D6F800B00A905946FEF76AF859460246DB
:1029080048460B92FEF762F84BF21771C3F6511165
:10291800FEF766F901460B98FEF75AF80A9BDAF8B3
:10292800001030601846FEF753F8CAF8000001207E
:10293800FFF7CCFADFF850914D4B00224FF40041DD
:102948001A60C4F2F931D9F80000FEF749F9834654
:102958004046FEF7F1F801465846FEF739F80021DF
:10296800C4F2FA31FEF7F0F902460146C9F8002030
:102978003068FEF72BF8DFF814B10021C4F24821C3
:10298800CBF80000FEF72CF90021CBF68071064643
:10299800FEF7C4FA002840F0D68030464FF07E514A
:1029A800FEF7DAFA08B14FF07E56324BDFF8E080D6
:1029B8001E60D8F800003146FEF70AF82E4E0021B6
:1029C800C4F2C621C8F800003068FEF709F982464B
:1029D8000D20FFF77BFAA0F5FA60FEF7ADF80021AD
:1029E800C4F27A51FEF7B0F901465046FDF7F0FF00
:1029F8000021C4F2C821FEF7A7F940F2E801C2F2AB
:102A080000018046887AC6F8008030287AD03128BC
:102A180000F0A18028680021C4F24821FEF7E0F800
:102A28000021CBF680710646FEF778FA002840F0C0
:102A3800868030464FF07E51FEF78EFA50B34FF045
:102A48007E5627E02C0B0020E01A0020101B0020E7
:102A5800F01A0020240B0020480B0020DC1A00206C
:102A6800AC120020380B0020EC1A0020981200202D
:102A7800A0120020D01200209C120020F400002098
:102A8800340B0020B012002090120020280B0020E8
:102A98003C0B0020754ADFF804A231461660DAF8CC
:102AA8000000FDF795FFCAF8000012A802F0D0F860
:102AB8008146FFF7B1FDFFF76BFDFFF7F1FD12A8A7
:102AC80002F0C6F8804612A802F0CAF8684E82469C
:102AD8003168481CB0F5FA7F30600EDB654B1A6828
:102AE800002A6BD1644B1A68002A40F0A380634B1C
:102AF8001A68002A3CD10020306002F08DFB15B026
:102B0800BDE8F08F41F61433C2F200032E6819684D
:102B18002046FEF765F83146FDF75AFF31468146F3
:102B28004046FDF753FF4DF20A71C3F62341FEF705
:102B380057F801464846FDF74BFF28606BE700262B
:102B4800CBF68076A6E70026CBF680762DE7002523
:102B5800CBF68075B0E641F61432C2F20002116875
:102B68002046FEF73DF82968FDF732FF286052E756
:102B7800434C4448A168444D94E80808D5F80080BF
:102B88006F68D0F800A0AD68D0F8049084680B9105
:102B98000A9302F0ADFA0A9B0B9A009306900292F0
:102BA800CDF804B0CDF80CA0CDF8109005943748B6
:102BB80041463A462B46FFF7B9F99CE7344B40F6B5
:102BC80044311A68C2F20001086811923F6802F0A5
:102BD8006BFB0146DBF800000A9102F065FB8346B7
:102BE800286802F061FB054620460B95FDF75CFC62
:102BF8000E9B0C9A0D46119904460A98009301926F
:102C08000291FDF751FCCDE904015846FDF74CFC53
:102C1800CDE906010B98FDF747FC2246CDE90801EE
:102C28002B461C483946FFF781F9134B1A68002ACE
:102C38003FF45DAF01F0D0F8FDF736FC0B460D9977
:102C48000246019110980F990290CDF800A00391C7
:102C5800CDF81090CDF814800F48FFF767F9074BAF
:102C68001A68002A3FF447AF82E700BFC812002065
:102C7800400B0020300B0020500B0020200B0020C0
:102C8800201B0020381B00202C1B002028D5000802
:102C9800181B00206CD40008CCD400084C0B002072
:102CA80038B51E4D00242046FDF746FF40F6DB717F
:102CB800C4F2C901FDF794FF4FF06A51FDF790FF88
:102CC80008F07AFF4FF47E41C4F2FF61FDF788FFF8
:102CD80002F0F8FAFEF74AF9013468802046FDF759
:102CE8002BFF40F6DB71C4F2C901FDF779FF4FF005
:102CF8006A51FDF775FF08F05FFF4FF47E41C4F29B
:102D0800FF61FDF76DFF02F0DDFAFEF72FF90134E0
:102D1800A8800435B4F5806FC5D138BDD212002023
:102D280010B5012002F0B8FA00F06EFAD02000F0D9
:102D380009FB00F0D1FF752000F004FB00F0CCFF88
:102D480000F088FA012002F0A7FA00F05DFAD1201D
:102D580000F0F8FA00F0C0FF00F04AFC044600F06A
:102D6800C9FA00F077FA682C40F09F80052002F03D
:102D780093FA00F049FAD02000F0E4FA00F0ACFF32
:102D8800192000F0DFFA00F0A7FF002000F0DAFABF
:102D980000F0A2FF00F05EFA052002F07DFA00F0D4
:102DA80033FAD02000F0CEFA00F096FF1A2000F097
:102DB800C9FA00F091FF022000F0C4FA00F08CFF7D
:102DC80000F048FA052002F067FA00F01DFAD0205A
:102DD80000F0B8FA00F080FF1B2000F0B3FA00F012
:102DE8007BFF082000F0AEFA00F076FF00F032FA20
:102DF800052002F051FA00F007FAD02000F0A2FAFC
:102E080000F06AFF372000F09DFA00F065FF00200F
:102E180000F098FA00F060FF00F01CFA052002F0BC
:102E28003BFA00F0F1F9D02000F08CFA00F054FFE2
:102E3800382000F087FA00F04FFF002000F082FAF7
:102E480000F04AFF00F006FA052002F025FA00F02B
:102E5800DBF9D02000F076FA00F03EFF6B2000F09E
:102E680071FA00F039FF002000F06CFA00F034FF2E
:102E780000F0F0F9052002F00FFA00F0C5F9D020B3
:102E880000F060FA00F028FF6A2000F05BFA00F01A
:102E980023FF092000F056FA00F01EFF00F0DAF9CF
:102EA800052002F0F9F9002010BD4FF0FF3010BDE9
:102EB80038B5334D00232B6000F0A6F9D02000F080
:102EC80041FA00F009FF286800B138BD3B2000F046
:102ED80039FA00F001FF29680029F6D100F0BAF9A3
:102EE80000F092F9D12000F02DFA00F0F5FE2A68E2
:102EF800002AEAD100F07CFB224C207000F0D2F9C5
:102F080000F076FB607000F0CDF900F071FBA07066
:102F180000F0C8F900F06CFBE07000F0C3F900F0B5
:102F280067FB207100F0BEF900F062FB607100F0F1
:102F3800E1F900F08FF92B68002BC6D16178207871
:102F4800114A41EA0023138018B2FDF7F5FDE37832
:102F5800A1780E4A43EA01210D4B1060198008B28E
:102F6800FDF7EAFD2179627942EA012309490A4A13
:102F78000860138018B2FDF7DFFD084B186038BDF4
:102F88001C1B0020081B0020D81A0020101B002042
:102F9800041B0020F01A0020021B0020E01A002069
:102FA80038B54C4C0023236000F02EF9D02000F0F7
:102FB800C9F900F025F900F08FFE00F021F920682A
:102FC800002845D000F046F92368002B3FD1424C39
:102FD800424A6178207841EA0023138018B2FDF74D
:102FE800ABFD3F490968FDF7F1FC4BF2FD31C3F633
:102FF8008B11FDF7F5FDA278E37843EA0221394AFF
:10300800394B1060198008B2FDF796FD37490968F9
:10301800FDF7DCFC4BF2FD31C3F68B11FDF7E0FD4B
:103028002279637943EA0221314A324B10601980D0
:1030380008B2FDF781FD30490968FDF7C7FC4BF27E
:10304800FD31C3F68B11FDF7CBFD2C4A106038BD5E
:10305800432000F077F900F0D3F800F03DFE216836
:103068000029AFD100F0F6F800F0CEF8D12000F03A
:1030780069F900F031FE00F0C3F82268002AA1D1F6
:1030880000F0B6FA144D287000F00CF900F0B8F80A
:1030980000F0AEFA687000F005F900F0B1F800F041
:1030A800A7FAA87000F0FEF800F0AAF800F0A0FA5D
:1030B800E87000F0F7F800F0A3F800F099FA28712A
:1030C80000F0F0F800F09CF800F092FA687100F057
:1030D80011F977E71C1B0020FC1A0020DA1A0020DF
:1030E800F41A0020EC1A0020E81A0020D41A002054
:1030F800DC1A0020F81A0020E41A0020141B002013
:103108002DE9F04F384EDFF8ECA0384DDFF8E890A5
:10311800374CDFF8E88083B00027FFF741FFBAF9A2
:103128000000FDF709FD3168FDF752FC3060B9F980
:103138000000FDF701FD2968FDF74AFC2860B8F991
:103148000000FDF7F9FC2168FDF742FC2060022031
:1031580002F0A2F8FFF724FFBAF90000FDF7ECFC33
:103168003168FDF735FC3060B9F90000FDF7E4FC83
:103178002968FDF72DFC2860B8F90000FDF7DCFC94
:103188002168FDF725FC0137FFB22060022002F01C
:1031980083F8781CC7B2642FDFF84CB0134A144B7D
:1031A800BBD10021DBF80000C4F2C82101920093D2
:1031B800FDF7CAFDCBF80000019800210068C4F2B1
:1031C800C821FDF7C1FD019A009B00211060C4F2DF
:1031D800C8211868FDF7B8FD00990860052003B0FC
:1031E800BDE8F04F02F058B8F41A0020D41A0020B5
:1031F800E41A0020DA1A0020E81A0020F81A002041
:10320800012002F041B800BF10B54FF44064C4F289
:103218000104204601224FF4006103F07DFA2046A4
:1032280001224FF4806103F077FAFFF7E9FF2046A7
:1032380000224FF4006103F06FFAFFF7E1FF204628
:103248004FF48061002203F067FABDE81040FFF7F1
:10325800D7BF00BF10B54FF44064C4F20104204644
:1032680000224FF4806103F057FAFFF7C9FF2046A8
:1032780000224FF4006103F04FFAFFF7C1FF204628
:1032880001224FF4806103F047FAFFF7B9FF2046A7
:103298004FF40061012203F03FFABDE81040FFF748
:1032A800AFBF00BF10B54FF44064C4F2010420461C
:1032B80000224FF4806103F02FFAFFF7A1FF2046A8
:1032C80000224FF4006103F027FAFFF799FF204628
:1032D80001224FF4806103F01FFAFFF791FF2046A7
:1032E8004FF48061002203F017FABDE81040FFF7A1
:1032F80087BF00BF10B54FF44064C4F201042046F4
:1033080000224FF4806103F007FAFFF779FF2046A7
:1033180001224FF4006103F0FFF9FFF771FF204627
:1033280001224FF4806103F0F7F9FFF769FF2046A7
:103338004FF48061002203F0EFF9BDE81040FFF779
:103348005FBF00BF10B504464FF44060C4F20100EF
:103358004FF48061002203F0DFF9FFF751FF4FF4CB
:1033680040602206C4F201004FF4006100F12081A0
:10337800002203F0D1F96000C4B2FFF741FF4FF417
:1033880040600122C4F201004FF4806103F0C4F9E7
:10339800FFF736FF4FF44060C4F201004FF480613C
:1033A800002203F0B9F9FFF72BFF4FF44060230622
:1033B800C4F201004FF4006100F1FE80002203F026
:1033C800ABF96100CCB2FFF71BFF4FF4406001225C
:1033D800C4F201004FF4806103F09EF9FFF710FF7B
:1033E8004FF44060C4F201004FF48061002203F002
:1033F80093F9FFF705FF4FF440602206C4F201007D
:103408004FF4006100F1DC80002203F085F96200CE
:10341800D4B2FFF7F5FE4FF440600122C4F2010078
:103428004FF4806103F078F9FFF7EAFE4FF440604B
:10343800C4F201004FF48061002203F06DF9FFF738
:10344800DFFE4FF440602306C4F201004FF4006130
:1034580000F1BA80002203F05FF96300DCB2FFF7E5
:10346800CFFE4FF440600122C4F201004FF48061A6
:1034780003F052F9FFF7C4FE4FF44060C4F20100B4
:103488004FF48061002203F047F9FFF7B9FE4FF4CB
:1034980040602206C4F201004FF4006100F19880F8
:1034A800002203F039F96000C4B2FFF7A9FE4FF417
:1034B80040600122C4F201004FF4806103F02CF94E
:1034C800FFF79EFE4FF44060C4F201004FF48061A4
:1034D800002203F021F9FFF793FE4FF44060230622
:1034E800C4F201004FF4006176D4002203F014F90D
:1034F8006100CCB2FFF784FE4FF440600122C4F2B1
:1035080001004FF4806103F007F9FFF779FE4FF4EB
:103518004060C4F201004FF48061002203F0FCF81F
:10352800FFF76EFE4FF440602206C4F201004FF42C
:10353800006155D4002203F0EFF8FFF761FE4FF465
:1035480040600122C4F201004FF4806103F0E4F806
:10355800FFF756FE4FF44060C4F201004FF480615B
:10356800002203F0D9F8FFF74BFE4FF440606306E2
:10357800C4F201004FF4006136D4002203F0CCF805
:10358800FFF73EFE4FF440600122C4F201004FF401
:10359800806103F0C1F8FFF733FE4FF44060C4F2D6
:1035A80001004FF480610022BDE8104003F0B4B878
:1035B800012203F0B1F8DEE6012203F0ADF800E7DE
:1035C800012203F0A9F822E7012203F0A5F844E755
:1035D800012203F0A1F866E7012203F09DF887E7CE
:1035E800012203F099F8A8E7012203F095F8C7E74C
:1035F8004FF440602DE9F0470122C4F201004FF476
:10360800006103F089F84FF440600022C4F2010021
:103618004FF4806103F080F8FFF7F2FD4FF440604B
:103628000122C4F201004FF4806103F075F84FF4F1
:1036380040604FF40061C4F2010003F063F80446EF
:103648004FF440604FF40061C4F2010003F05AF8EF
:1036580007464FF440604FF40061C4F2010003F0E4
:1036680051F881464FF440604FF40061C4F2010004
:1036780003F048F880464FF440604FF40061C4F20C
:10368800010003F03FF806464FF440604FF4006134
:10369800C4F2010003F036F805464FF440604FF4D9
:1036A8000061C4F2010003F02DF809EB0803D919F1
:1036B8008A1957193E184FF440604FF40061C4F25C
:1036C800010003F01FF8341904F0FF052B184FF41C
:1036D8004060DFB20022C4F201004FF48061032F82
:1036E8008CBF0224144603F017F8FFF789FD4FF446
:1036F80040600122C4F201004FF4806103F00CF82D
:103708004FF440604FF40061C4F2010002F0FAFF88
:1037180005464FF440604FF40061C4F2010002F026
:10372800F1FF81464FF440604FF40061C4F201009C
:1037380002F0E8FF82464FF440604FF40061C4F2A3
:10374800010002F0DFFF80464FF440604FF4006153
:10375800C4F2010002F0D6FF07464FF440604FF470
:103768000061C4F2010002F0CDFF06464FF440604C
:103778004FF40061C4F2010002F0C4FF0AEB090132
:1037880001EB0802D3199F193E184FF440604FF41B
:103798000061C4F2010002F0B5FF751905F0FF07DA
:1037A8003818C1B2032988BF44F001044FF44060BF
:1037B80088BFE4B2C4F2010000224FF4806102F035
:1037C800ABFFFFF71DFD4FF440600122C4F201007A
:1037D8004FF4806102F0A0FF4FF440604FF40061A5
:1037E800C4F2010002F08EFF05464FF440604FF42A
:1037F8000061C4F2010002F085FF81464FF4406089
:103808004FF40061C4F2010002F07CFF82464FF4DD
:1038180040604FF40061C4F2010002F073FF80467B
:103828004FF440604FF40061C4F2010002F06AFFF7
:1038380007464FF440604FF40061C4F2010002F003
:1038480061FF06464FF440604FF40061C4F2010086
:1038580002F058FF0AEB090202EB0803D9198F1985
:103868003E184FF440604FF40061C4F2010002F0CA
:1038780049FF751905F0FF073818C2B26400032A1A
:1038880084BF44F00104E4B24FF4406063000022B6
:10389800C4F201004FF48061DCB202F03DFFFFF793
:1038A800AFFC4FF440600122C4F201004FF4806184
:1038B80002F032FF4FF440604FF40061C4F201009F
:1038C80002F020FF05464FF440604FF40061C4F257
:1038D800010002F017FF81464FF440604FF4006189
:1038E800C4F2010002F00EFF82464FF440604FF42C
:1038F8000061C4F2010002F005FF80464FF4406009
:103908004FF40061C4F2010002F0FCFE07464FF4D8
:1039180040604FF40061C4F2010002F0F3FE064675
:103928004FF440604FF40061C4F2010002F0EAFE77
:103938000AEB090101EB0802D3199F193E184FF44D
:1039480040604FF40061C4F2010002F0DBFE75191B
:1039580005F0FF073818C1B203294FF4406088BF4B
:1039680044F00104C4F2010000224FF4806102F027
:10397800D3FEFFF745FC4FF440600122C4F201007A
:103988004FF4806102F0C8FE4FF440604FF40061CC
:10399800C4F2010002F0B6FE05464FF440604FF451
:1039A8000061C4F2010002F0ADFE81464FF44060B0
:1039B8004FF40061C4F2010002F0A4FE82464FF405
:1039C80040604FF40061C4F2010002F09BFE8046A3
:1039D8004FF440604FF40061C4F2010002F092FE1F
:1039E80007464FF440604FF40061C4F2010002F052
:1039F80089FE06464FF440604FF40061C4F20100AE
:103A080002F080FE0AEB090202EB0803D9198F19AC
:103A18003E184FF440604FF40061C4F2010002F018
:103A280071FE751905F0FF073818C2B26400E4B2D8
:103A3800032A4FF4406088BF44F00104C4F2010037
:103A480000224FF4806102F067FEFFF7D9FB4FF4C4
:103A580040600122C4F201004FF4806102F05CFE74
:103A68004FF440604FF40061C4F2010002F04AFED6
:103A780005464FF440604FF40061C4F2010002F0C3
:103A880041FE81464FF440604FF40061C4F20100EA
:103A980002F038FE82464FF440604FF40061C4F2F1
:103AA800010002F02FFE80464FF440604FF40061A1
:103AB800C4F2010002F026FE07464FF440604FF4BE
:103AC8000061C4F2010002F01DFE06464FF440609A
:103AD8004FF40061C4F2010002F014FE0AEB09037E
:103AE80003EB0801CA1997193E184FF440604FF4C8
:103AF8000061C4F2010002F005FE751905F0FF0728
:103B08003818C3B26400E4B2032B4FF4406088BF96
:103B180044F00104C4F2010000224FF4806102F075
:103B2800FBFDFFF76DFB4FF440600122C4F201007A
:103B38004FF4806102F0F0FD4FF440604FF40061F3
:103B4800C4F2010002F0DEFD05464FF440604FF478
:103B58000061C4F2010002F0D5FD81464FF44060D7
:103B68004FF40061C4F2010002F0CCFD82464FF42C
:103B780040604FF40061C4F2010002F0C3FD8046CA
:103B88004FF440604FF40061C4F2010002F0BAFD46
:103B980007464FF440604FF40061C4F2010002F0A0
:103BA800B1FD06464FF440604FF40061C4F20100D5
:103BB80002F0A8FD0AEB090101EB0802D3199F19CD
:103BC8003E184FF440604FF40061C4F2010002F067
:103BD80099FD751905F0FF073818C1B26400E4B201
:103BE80003294FF4406088BF44F00104C4F2010087
:103BF80000224FF4806102F08FFDFFF701FB4FF4C4
:103C080040600122C4F201004FF4806102F084FD9B
:103C18004FF440604FF40061C4F2010002F072FDFD
:103C280005464FF440604FF40061C4F2010002F011
:103C380069FD81464FF440604FF40061C4F2010011
:103C480002F060FD82464FF440604FF40061C4F218
:103C5800010002F057FD80464FF440604FF40061C8
:103C6800C4F2010002F04EFD07464FF440604FF4E5
:103C78000061C4F2010002F045FD06464FF44060C1
:103C88004FF40061C4F2010002F03CFD0AEB0902A6
:103C980002EB0803D9198A1913184FF440604FF43E
:103CA8000061C4F201005D1902F02CFD05F0FF056A
:103CB8004019C1B26400E4B203294FF4406088BFE0
:103CC80044F00104C4F201004FF48061002202F0C4
:103CD80023FD2046BDE8F0874FF4406008B5002278
:103CE800C4F201004FF4806102F016FDFFF788FA74
:103CF8004FF440600122C4F201004FF4006102F069
:103D08000BFDFFF77DFA4FF440600122C4F2010079
:103D18004FF4806102F000FDFFF772FA4FF4406043
:103D2800C4F201004FF4006102F0ECFC01280AD053
:103D38004FF44060C4F201004FF480610022BDE8F6
:103D4800084002F0E9BC044B186001F079FA034816
:103D58000268511C0160EBE71C1B0020181B0020A7
:103D680010B5084C23685A1CB3F57A7F226008DD29
:103D780001F05AFA00F0B4FC5720FEF731F90020A0
:103D8800206010BD580B002008B5012142F67D20A7
:103D980002F096FD0F200121C0F2080002F09EFDFE
:103DA80001200146BDE8084002F07CBD00B54FF493
:103DB800A06083B002F004FA01233422002101A894
:103DC8008DF804208DF805308DF806108DF8073031
:103DD80002F000FA03B000BD40F65433C2F200030B
:103DE8001868704708B501F073F8FFF7CDFF00F0C9
:103DF80057F901F009FA0A2001F04EFA01F00CFA1D
:103E0800322001F049FAFEF783F83248FEF78EF8BF
:103E18003148FEF78BF8FFF7C9FF3048FEF786F800
:103E280000F08CFC4FF4FA6001F036FAFDF7C8FD9B
:103E380000283FD12A4A4FF48053C4F2020318687D
:103E48004DF683611368C4F21B3110F4003FA1FBE7
:103E5800030114BF23482448890CFEF767F8234858
:103E6800FEF764F8FDF7DCFF2148FEF75FF804E091
:103E78002048FEF75BF801F0F3F9FEF751FF002840
:103E8800F6D11D48FEF752F8FEF7F4F91B48FEF785
:103E98004DF8FFF735F91A48FEF748F800F0E0FC4E
:103EA800FEF7FEFE1748FEF741F81748BDE8084040
:103EB80001F008B81548FEF739F840F6B83001F0B7
:103EC800EBF9FDF77DFD0128B4D11148FEF72EF876
:103ED800B0E700BF80D50008A4D50008B4D5000815
:103EE8008002002018D6000850D600088CD600089A
:103EF8009CD60008B0D60008D4D60008E8D600083A
:103F080004D7000814D70008693D0008C8D5000880
:103F1800E4D500082DE9F84FFFF764FF00F0B6FF7D
:103F2800044600F0B3FF8442FBD000F083FF05464F
:103F380072B64FF0000840F2F31600F07BFF401B0A
:103F4800B04208F10108F8D962B600F073FFDFF853
:103F580090B0DFF890A005464FEA4808002740F2E5
:103F6800CF76002400F066FF8146401B0134B04242
:103F7800F8D9FCF7DDFD05462046FCF7DDFD0021FC
:103F8800C4F2C821FCF72CFE0021C4F27A41FCF7E8
:103F980027FE2946FCF7D8FE04464046FCF7CCFD30
:103FA80001462046FCF7D0FEDAF80020CBF80000E6
:103FB8008AB94FF41051C4F674112846FCF7C4FEB0
:103FC800FEF7B2FB40F65833C2F200031F604D46BD
:103FD800FEF708F8C5E700F083FB01F041F9F1E7C7
:103FE800540B00208C120020012830B409D002287C
:103FF8001AD0174B09221A604FF0FF32104630BC16
:104008007047002AFADD4FF498448818C4F2000477
:10401800238803F040039BB2002BF9D011F8013B31
:104028008142A380F4D1E9E7002AE7DD4FF4984400
:104038008D18C4F20004208800F0400398B20028CC
:10404800F9D011F8013BA942A380F4D1D6E700BF0B
:10405800841B00200D4A08B513689BB1EFF3088153
:104068001818884202D81060184608BD1922022084
:104078000749FFF7B9FF074B0C221A604FF0FF33CF
:10408800184608BD044B1360E8E700BF5C0B00202E
:104098002CD70008841B0020881B0020704700BF15
:1040A8002DE9F0474FF4006782B0C4F201074FF4DE
:1040B800406418260225C4F201044FF4E063384630
:1040C80001A9ADF804308DF807608DF8065002F0AC
:1040D800E7F94FF46042204601A9ADF804208DF8B5
:1040E80007608DF8065002F0DBF94FF480504FF46A
:1040F800E07A01A9C4F20100ADF804A08DF80760C8
:104108008DF8065002F0CCF98023384601A9ADF8A5
:1041180004304FF003088DF807608DF8065002F060
:10412800BFF9204601A9ADF804808DF807608DF825
:10413800065002F0B5F9384601A90727ADF8047012
:104148008DF807608DF8065002F0AAF9204601A9FB
:104158004FF01009ADF804A08DF807608DF80650EF
:1041680002F09EF94FF48052204601A9ADF80420D0
:104178008DF807908DF8068002F092F920232046EA
:1041880001A9ADF804308DF807908DF8068002F08B
:1041980087F94FF440621423204601A94746ADF839
:1041A80004208DF807308DF8068002F079F902B006
:1041B800BDE8F08738B504460D4602F017FC2046E6
:1041C800294602F06FFC2046294602F0B5FC20463D
:1041D800082102F02DFD2046082102F031FD20467D
:1041E8000821BDE8384002F035BD00BF70B58CB07D
:1041F8000024032201A94FF47A760546ADF804207D
:10420800ADF80860ADF80640ADF80A408DF80C40EE
:1042180002F080FB40F26C20C2F2000003684FF409
:104228000062ADF810204FF480624FF48076284683
:1042380004A9ADF81220ADF816304FF480424FF4BF
:104248000053ADF81A30ADF81C20ADF81460ADF885
:10425800184002F0BBFC6023ADF820300122042393
:10426800284608A9ADF82220ADF82430ADF826403C
:10427800ADF82840ADF82A40ADF82C60ADF82E40D6
:10428800FFF798FF0CB070BD70B5032388B00646E1
:104298000D46002401A9ADF804304FF47A724FF4AA
:1042A8000073ADF80820ADF80A30ADF8064002F00A
:1042B80031FB60220123304604A9ADF81020ADF887
:1042C8001230ADF81640ADF81850FFF773FF08B07C
:1042D80070BD00BF00B583B000238DF80400012134
:1042E80001A88DF805308DF806308DF8071001F01B
:1042F80071FF03B000BD00BF124A30B413680468F0
:10430800C3F5FA714900E31A8B42A8BF0B46036054
:1043180014684568A342B8BF002303601368846823
:10432800EA1AE41A8A42A8BF0A468C42B8BF214654
:104338009A42B8BF00228B42C8BF00214260816008
:1043480030BC704764020020F8B5364B05461C683F
:104358000E46204600211746FCF7F4FD002858D0E9
:1043680040F6DB71C4F2C9012046FCF7EDFC4FF0C2
:104378008941FCF735FC00F0A5FFFCF7F7FD40F29A
:10438800FF33C8F200030340002B44DB002BB8BF07
:1043980003F5806303F2551603F2AB242248B105F6
:1043A800A2058E0D940D30F9131030F9163030F93E
:1043B800140007EB870707FB00F207FB01F107FB77
:1043C80003F301F57F51032403F57F5302F57F5270
:1043D8003F31C8F201043F333F3284FB010684FBBE
:1043E800037084FB0274C018CF17DB17A418761863
:1043F800D217C7EBA631C3EBA037C2EBA43001F547
:10440800FA7107F5FA7300F5FA7285E80A00AA60EE
:10441800F8BD3446A4E7581E6FEA80516FEA9152FE
:10442800531CB3E760020020D412002000B50346F5
:1044380085B00A4601A81946FFF786FF72B640F60E
:104448006030019A0299039BC2F200000260416049
:10445800836062B672B64FF45050C4F20100028A0B
:1044680022F001010B041A0C01210282818162B63B
:1044780005B000BD00B5034685B00A4601A8194637
:10448800FFF762FF72B640F66C30019A0299039BFF
:10449800C2F2000002604160836062B672B64FF4F7
:1044A8003050C4F20100028A22F001010B041A0CF8
:1044B80001210282818162B605B000BD00B585B0D8
:1044C8000A46014601A8FFF73FFF01A8FFF714FFBE
:1044D80072B640F67833019A02980399C2F2000343
:1044E8001A605860996062B640F26823C2F200030D
:1044F80000221A6072B64FF44060C4F20000018ACC
:1045080021F001031A04110C01230182838162B690
:1045180005B000BD4FF44063C4F200031A8AF0B43A
:10452800D2071AD5188A20F001010C04220C1A822D
:1045380072B6294A294994689B8C886801349BB2D1
:104548009460274A8342C8BF8B6091688B42B8BF8A
:104558009360B3F5487F02D362B6F0BC7047214838
:10456800036833BB204E214D37682C88A8882989D9
:104578007A0093B21F191E185D184FF400624FF4A9
:104588004063C4F20002C4F20003BFB2B6B2ADB2D7
:104598009786168795879C86188799874FF4406277
:1045A800C4F20002938923F0010001040B0C9381EB
:1045B800D2E74FF400624FF44063C4F2000240F2C5
:1045C800E930C4F20003002190861087908799860D
:1045D80019879987E2E700BF381B0020201B0020BD
:1045E8002C1B00206802002064020020780B0020A9
:1045F8004FF43052C4F20102138A10B423F00100C0
:1046080001040C0C148272B613491448938C4C683C
:1046180042689BB201349342C8BF436010484C6063
:1046280041688B42B8BF4360B3F5487F10D20D4A4A
:104638004FF43053108891881289C4F20103988688
:1046480019879A87988920F001010A04100C98812B
:1046580062B610BC704700BF381B0020201B00202A
:104668002C1B00206C0B00204FF45052C4F20102A6
:10467800138A10B423F0010001040C0C148272B6E2
:1046880013491448938C0C6802689BB20134934216
:10469800C8BF036010480C6001688B42B8BF036054
:1046A800B3F5487F10D20D4A4FF4505310889188C3
:1046B8001289C4F20103988619879A87988920F08D
:1046C80001010A04100C988162B610BC704700BF43
:1046D800381B0020201B00202C1B0020600B002012
:1046E80010B54120FDF77CFC72B640F66032C2F28C
:1046F8000002002313605360936062B672B640F6FE
:104708006C30C2F2000003604360836062B640F21E
:1047180068224FF440644FF430504FF45051012355
:10472800C2F20002C4F20004C4F20100C4F20101A2
:104738001360A38183818B8110BD00BF2DE9F041F7
:104748004FF43056C4F2010641F6383141F62032B2
:1047580041F62C334FF450550024C2F20002C2F245
:104768000003C2F2000140F2E9373046C4F2010505
:104778004FF440689460546014609F605F601F60ED
:104788008C604C600C60C4F20008FFF72FFD4FF4FA
:1047980000672846FFF72AFDC4F200074046214675
:1047A800FFF772FD02213846FFF76EFD40F26420E4
:1047B800C2F200000388322003F5A87103F29F2299
:1047C80089B292B2BB84B184AA84FFF783FD192011
:1047D800FFF780FD2C20FFF77DFD72B64FF40040F7
:1047E8002146024603460124C4F22522C4F22623A8
:1047F800C4F20120C4F2012104600C604046146038
:1048080021461C6002F004FA3846214602F000FAFC
:104818003046214602F0FCF92846214602F0F8F914
:1048280062B6BDE8F08100BF10B54FF4806484B073
:10483800C4F200044722002301A92046ADF8042051
:104848004FF6FF72ADF80630ADF80820ADF80A3023
:1048580002F060F82046012102F0CCF904B010BD46
:1048680030B54FF4007085B00121C0F2300001F07E
:104878005DFF4FF4406028231824032501A9C4F2E2
:1048880001008DF80730ADF804408DF8065001F0AE
:1048980007FE0120294601F085FF0421012001F0CF
:1048A80081FF00211022012302A88DF80C108DF839
:1048B8000D208DF80E30029401F0A6FD204601F07F
:1048C800E1FD204601F0E6FD4FF46140CEF2000024
:1048D8004FF400714FF4806201600260FFF7A4FF9B
:1048E80005B030BD40F68433C2F200031868704743
:1048F80010B54FF48064C4F201046369190700D449
:1049080010BD3320FDF76CFB61694FF4406041F046
:10491800080262610821C4F2010001F0F3FE0128D7
:1049280023D0164C4FF44060C4F20100082101F076
:10493800E9FE88B112490B8822886FF47A71981AB7
:1049480083B25A1890B240F2E6318842D8D80D4A5C
:10495800A3F57A73136010BD4FF48062C4F20002AD
:10496800908C074983B20B80E6E74FF48060C4F26D
:104978000000838C014C2380D4E700BF920B0020F9
:10498800900B0020840B002040F68833C2F200030D
:104998001868704710B54FF48064C4F20104636965
:1049A800DB0600D410BD3420FDF71AFB61694FF413
:1049B800406041F0100262611021C4F2010001F070
:1049C800A1FE012823D0164C4FF44060C4F2010028
:1049D800102101F097FE88B112490B8822886FF4E4
:1049E8007A71981A83B25A1890B240F2E631884226
:1049F800D8D80D4AA3F57A73136010BD4FF48062BE
:104A0800C4F20002908C074983B20B80E6E74FF4AA
:104A18008060C4F20000838C014C2380D4E700BF7F
:104A28008E0B00208C0B0020880B002000230360D5
:104A3800C0F80C1243608360704700BF4FF40070E9
:104A4800704700BF4268036840F2FF10D11A01F5B1
:104A58000072C8F200001040002800DB70470138DF
:104A68006FEAC0536FEAD351481C704738B542B358
:104A780040F2FF1501E0AB4213D14468026840F2EE
:104A8800FF13A21A02F50072C8F200031340002BAC
:104A9800F1DA013B6FEAC3526FEAD2530133AB42FA
:104AA800EBD043684268C318197340F2FF118A4279
:104AB8001BD04268531C4360D0F80C0200B18047F9
:104AC80038BD4468026840F2FF13A21A02F500726A
:104AD800C8F200031340002B0ADB40F2FF12934296
:104AE800DFD181684B1C836038BD00214160E3E75A
:104AF800013B6FEAC3526FEAD253013340F2FF120F
:104B08009342CED1EDE700BFF8B504460E461546F0
:104B1800002B34D040F2FF1702E0E818B84214DD49
:104B28006068216840F2FF13421A02F50070C8F26B
:104B380000030340002BF0DA013B6FEAC3516FEA30
:104B4800D152531CE818B842EADC67686268C7F5B6
:104B58000077BD42314604EB020028DD3A46ED1BE2
:104B68000C3002F071F904F10C00F1192A4602F038
:104B78006BF96560D4F80C1201B18847F8BD41683B
:104B8800026840F2FF13881A00F50071C8F20003AA
:104B98000B40002B18DBE918B1F5007FD5DBA268C4
:104BA800D4F80C125519A5600029E6D1E6E70C30B7
:104BB8002A4602F049F961684B19B3F5007F0ED017
:104BC800606845196560D5E7013B6FEAC3526FEA33
:104BD800D250431CE918B1F5007FB6DBDFE70022AD
:104BE8006260C7E701684268034691420ED00068D8
:104BF80019681A18107B40F2FF12914203D0196805
:104C08004A1C1A6070470021196070474FF0FF3046
:104C1800704700BF704700BFFEE700BFFEE700BF58
:104C2800FEE700BFFEE700BF704700BF704700BF48
:104C3800704700BFFCF7E0BE4FF4802001F02ABCAB
:104C480010B5044600F0F6F82060606010BD00BFA3
:104C580010B5044600F0EEF863686060C01A10BD35
:104C680005C8101A704700BF4FF48053C4F20203FE
:104C78005A6802F00C00082811D04FF49052C0F284
:104C88007A024FF48053C4F2020358681049C0F303
:104C98000313C85C0F4B22FA00F21A607047586879
:104CA8005968C0F383420232C90309D55B689B0384
:104CB80006D44FF49050C0F27A0000FB02F2E0E70D
:104CC8004FF41061C0F23D0101FB02F2D9E700BFC9
:104CD80070020020800200204FF48053C4F20203C7
:104CE800196800B541F00100186059680022CFF634
:104CF800FF020A405A601A68002122F0847020F4EA
:104D080080321A60186883B020F480221A605868CC
:104D18001A4620F4FE0058604FF41F009860009176
:104D28000191196841F48030186003E00098B0F5EB
:104D3800A06F09D0136803F4003101910098431C57
:104D4800009301990029F1D04FF48052C4F2020275
:104D5800136813F400314DD0012001904FF4005234
:104D6800C4F20202019B1168012B41F0100010608F
:104D780011684FF4805321F0030010601068C4F2EA
:104D8800020340F0020010605A6819465A605868D9
:104D980058605A6842F4806058605A6822F47C105F
:104DA80058605A6828D042F4601058601A6842F077
:104DB800807018600A684FF480539001C4F20203AF
:104DC800F8D55968184621F003025A60596841F02D
:104DD80002025A60436803F00C010829FAD1FFF770
:104DE80043FF4FF46D40CEF200004FF00062826046
:104DF80003B000BD0191B1E742F4E81058601A68A9
:104E080042F0807018600A684FF480539201C4F22F
:104E18000203F8D55968184621F003025A60596808
:104E280041F002025A60436803F00C010829FAD1E4
:104E3800D7E700BF30B413494EF21004CEF2000495
:104E48004EF210020B68CEF20002A56800BF00BF48
:104E580008688342F4D11168C90348BF95684EF2C7
:104E68001002CEF200025068074A48BF0133411CC5
:104E780010684D1BB5FBF0F54FF47A7101FB035038
:104E880030BC7047940B00208402002040F6943315
:104E9800C2F200031868704708B572B6074B4EF2A5
:104EA8001002CEF2000212681868411C196062B63E
:104EB800034B1A6802B1904708BD00BF940B00204D
:104EC800980B002040F69833C2F200031860704730
:104ED800134B44F6D3511A68C1F262014DF683634D
:104EE800A1FB0201C4F21B33A3FB02028809930C45
:104EF800411E0C4AB1F1807F13600FD24EF21000B0
:104F0800CEF200004FF46D434160CEF20003F02171
:104F180083F823100022072382600360704700BFD4
:104F280080020020840200204FF49840C4F2000060
:104F380040F22771012201F021BF00BF40F6AC50BA
:104F4800C2F20000FFF74EBE014640F69C30C2F2A6
:104F580000000122FFF78ABD10B50446007828B189
:104F6800FFF7F2FF14F8010F0028F9D110BD00BFB8
:104F78004FF49843C4F2000370B52A4A1D8811689B
:104F8800ADB205F08000013180B2116090B1264CBD
:104F980021686268914231D026682046A1190A7BAF
:104FA8009A802668FFF74AFD0136864233D0236887
:104FB800581C206005F02005ADB205B970BD1B4C2A
:104FC8004FF49842C4F2000220469688FFF73AFD53
:104FD80005462046FFF732FD6B1C8342B6B216D059
:104FE80061682046621865681673FFF727FD01356A
:104FF800854213D06068431C636070BD184640F258
:105008002771002201F0BAFE00BF00BFD2E7A268F4
:10501800501CA06070BD00212160CBE700216160B9
:1050280070BD00BF441B00209C0B0020AC0D00206D
:1050380040F69C3044F6317108B5C2F20000C0F663
:105048000001FFF7F3FC40F6AC50C2F2000000216B
:10505800BDE80840FFF7EABC30B54FF4805589B089
:10506800C4F201051822284601A94FF480630324DD
:10507800ADF804308DF807208DF8064001F010FADD
:105088004FF4984428224FF4006301A92846C4F23B
:105098000004ADF804308DF8072001F001FA02A8E9
:1050A80001F058FE204602A901F042FE4FF41652C4
:1050B800002304A9204604920C22ADF81430ADF860
:1050C8001630ADF81830ADF81C30ADF81A2001F0E4
:1050D800C9FD2046012240F2255101F04FFE20462D
:1050E800012101F03DFEFFF7A3FF09B030BD00BF6D
:1050F80040F6BC73C2F200039868704738B50F4C8D
:10510800256861682368C91A00290FD00FDB601968
:10511800C9B20C30FCF7C2FB25682D180748FFF709
:105128008DFC95FBF0F303FB1050206038BD204642
:10513800FFF784FC2268811AE9E700BFBC0F002052
:1051480008B5064B186800B108BDFFF79FFE044973
:105158000860BDE80840FFF7D1BF00BF1412002067
:10516800CC11002008B541F2D01241F21423C2F24A
:105178000002C2F200030121002011601860FFF74D
:1051880085FE41F2CC12C2F200021060BDE8084070
:10519800FFF7B4BF08B5FCF7E9FAFCF71FFBFCF70B
:1051A80039FB00F059FD40F6BC7045F24911C2F2D6
:1051B8000000C0F60001BDE80840FFF737BC00BF9B
:1051C80038B505460C46FCF7D9FB28B103482946F3
:1051D80022460023FFF798FC204638BDBC0F00206C
:1051E80041F26023C2F2000318687047054B10B5FE
:1051F8001C688C42A8BF0C462146FCF773FB20466E
:1052080010BD00BF601200204FF44060C4F20100DE
:105218004FF4805101F07CBA4FF44060C4F20100B1
:105228004FF4805101F076BA08B572B64FF4406079
:10523800C4F201004FF4805101F074FA62B608BD5F
:105248004FF44060C4F20100202101F061BA00BFB0
:105258004FF44060C4F20100202101F05BBA00BFA6
:1052680010B542204FF41F44FCF7BAFEC0F22404E4
:10527800FFF7CAFF20460138FDD8FFF7CDFF2046CB
:105288000138FDD810BD00BF00EB40008300184670
:105298000138FDD8704700BF42F6E06303FB00F118
:1052A80008460138FDD87047002108B5C4F23431EA
:1052B800FBF796FC40F6DB71C4F24901FBF744FDAD
:1052C80008BD00BF10B500210446FBF73BFE28B11E
:1052D80020464FF07C51FBF77BFB10BD20464FF07A
:1052E8007C51FBF773FB10BD08B538B1064B186845
:1052F80001688847054A10680A3008BD034B012237
:1053080019680A8208BD00BF741B0020781B0020A2
:1053180008B538B1064B186881688847054A10688F
:105328000C3008BD034B012219680A8208BD00BF72
:10533800741B0020781B002008B500283BD0234BA5
:10534800234800211A680180137813F07F0312D1D3
:10535800537A03F02002D1B259BB027803F040031C
:10536800D9B211B342F0010303701A4801680A69FF
:105378009047174808BD012B16D0022B13D151793D
:1053880001F00F02930003F1804202F5B84311F0D7
:10539800800F196814D101F44052B2F5805FE4D14E
:1053A80001210170E1E7084608BD22F00102027000
:1053B800DBE70222D2E7054B022219680A8208BD00
:1053C80001F03003102BD0D1EAE700BF781B002092
:1053D800481B0020741B00202DE9F041274E34683B
:1053E800238A277A23B9042F2AD0A58A042703E021
:1053F800A58AAB42FAD902279D4228BF1D46A1695A
:10540800284688478046002000F05AFE2A46014672
:10541800404600F01DFD2946002000F071FE208A5C
:10542800628A431B2382AD181548164B65823021CA
:105438004FF44052346801801A802772BDE8F08129
:10544800114A1178012906D00D481027078007272F
:105458002772BDE8F08145F65041C4F200010868A2
:1054680043F2020180B2C2F2000141184800044927
:105478000360302008801370DFE700BF781B00202E
:10548800801B00207E1B0020D411002010B50B4B80
:105498000B4A18685178C378994201D2022010BD8E
:1054A8008278002AFAD18488002CF7D183720548C3
:1054B80001684B689847204610BD00BF781B002044
:1054C800E0000020741B002038B5104A104C116809
:1054D80023688A695879D97890472368997A09B9ED
:1054E800022038BD0028FBD118790028F8D19D7812
:1054F800002DF5D1074A1368D968884723682846DC
:105508005979DA78D9721A7338BD00BF501B002058
:10551800781B0020741B002038B5354B1B681878A1
:1055280010F07F0003D0022806D0022038BD5A7A36
:1055380022F02001597238BD5A88002AF6D119790B
:105548000029F3D15A7922F08000810001F18044CA
:10555800150604F5B84456BF2468256804F4405578
:10556800244C48BF05F030052478A042DDD2002D38
:10557800DBD09B7A002BD8D002F08002D3B273B173
:1055880001F1804202F5B843196801F03002102A8F
:1055980021D01948036859698847002038BD01F1AE
:1055A800804101F5B844226802F44053B3F5805FA6
:1055B800EFD1C8B9114991F82C1000F0B1FD20685D
:1055C8004BF68F72024082F4405343F4004141F09D
:1055D80080002060DDE7C4B2204600F039FD204697
:1055E800302100F0AFFCD4E700F020FDE7E700BF72
:1055F800781B0020E0000020741B00205C000020C5
:1056080038B5224B19684B7923F08002900000F1DD
:1056180080441D0604F5B84456BF2468256804F480
:1056280040551B4C48BF05F030052478A24201D3F1
:10563800022038BD4A88002AFAD1002DF8D0897A8C
:105648000029F5D003F0800300F1804000F5B8424E
:10565800DBB211687BB148F6BF70084080F01001DA
:1056680041F4004343F0800010600A4A11688B69D6
:105678009847002038BD4BF68F730B4083F4805059
:1056880040F4004141F080031360EEE7781B0020EE
:10569800E0000020741B0020054B1B685A8A10B1DB
:1056A80008688018704789888A1A1A82704700BF6C
:1056B800781B002008B50C4B002093F82C1000F044
:1056C8002FFD0A480168087A082806D1084B4FF4CC
:1056D80080521A80074A10211180B0F1090CDCF1C0
:1056E800000050EB0C0008BD5C000020781B002077
:1056F8007E1B0020801B0020F8B5344D2C68237ACF
:10570800022B07D0042B05D0032B09D0052B07D07B
:10571800072B0ED008222272BDE8F840FFF7CABF57
:10572800A169208A11B358B9A48A002C45D0284A07
:105738002EE028480168CA6890472C680822EAE7E2
:10574800A68A864228BF064630468847638A0746A7
:10575800208AF118821B22826182002000F0C0FC9E
:1057680032460146384600F0AFFB208A0028DBD0DD
:105778000020194B01464FF440521A8000F0C0FC3B
:10578800238AA18A124A30209942108015D9C3B9B8
:105798002C68062145F650432172C4F200031868AC
:1057A80043F2020381B2C2F20003C8184300002189
:1057B800196030201080227AADE72C68032222720B
:1057C800A9E72C6805222272A5E700BF781B0020F4
:1057D800801B0020501B00207E1B002070B545F662
:1057E80050439F4DC4F200031A682C6843F204002A
:1057F80091B2C2F20000227A0E187300092A82B010
:105808001E6845D0B0B2410001F1804606F5C04699
:105818003278227073786370B08800F0B5FC6080CD
:1058280030892C6800F0B0FCA080B0892C68012178
:10583800E0802172002830D06178062900F0878046
:1058480000295ED16388002B00F09480854E336870
:1058580008461969884703282B6862D01A8A4FF6C8
:10586800FF718A425DD002280CD05AB193F900101A
:105878000029C0F2B58003221A727B4B4FF44050C6
:10588800188001E008201872FFF714FF02B070BDFD
:10589800E088012121720028CED12378667813F0A0
:1058A8007F0241D1092E00F0FD80052E00F0BF8057
:1058B800032E00F0E580012E3BD1E078012838D195
:1058C800A188002935D1647A04F02003DAB2002ACD
:1058D8002FD0FFF721FE60BB2C6845F65040C4F27C
:1058E8000000016843F202038AB2C2F20003D01832
:1058F800410000235D4A0B60302006211080217290
:10590800C2E7082948D1207843069FD1584A002089
:10591800A261608290472B684FF6FF701A8A824214
:10592800A3D109211972AFE7012A71D0022A00F028
:105938008D804C4C304623685A699047032800F004
:10594800BA802C680028C8D0082121729CE72678E4
:1059580073067FF47BAFA278424E012A00F0A5803F
:10596800022A5ED0032A7FF472AF3068426A002AA6
:10597800CDD16CE7606820F47F42B2F5003F7FF438
:1059880065AF237813F07F0040F09980A388002B3F
:105998007FF45CAF374ABAE70A297FF457AF267815
:1059A80006F07F02012A7FF451AFA37A002B3FF45F
:1059B8004DAF6388002B7FF449AF6068294E20F40F
:1059C8007F42B2F5803F7FF442AF32681946607972
:1059D80093699847002840F0AD802C68264A96E7DE
:1059E800D98801910198824217D88A421D4908D264
:1059F800086890F82C00824280F084801F4A0020BA
:105A08001070096891F82C209A82FFF7E5FC3BE7B3
:105A18000B2E8ED1FFF758FD5DE7019811491882CA
:105A2800EFE733681A6A002A7FF471AF0FE794F939
:105A38000330002B88DBA278002A85D1A0880028B3
:105A480082D1A17A00293FF448AF7DE7012E3FF4C7
:105A580040AF032E7FF46DAFFFF7D2FD3BE700BFE9
:105A6800781B0020501B00207E1B0020801B00207C
:105A7800F15200084153000819530008D4110020BE
:105A8800E07801287FF455AFA18800297FF451AF51
:105A9800637A2A4843F0200201686272CC69A04701
:105AA8002C681AE7FFF7F2FC15E73268D269002A7A
:105AB8007FF42DAFCBE62C6809212172E4E601289A
:105AC8002BD002287FF4C2AE637903F00F02960050
