:020000040800F2
:1000000000C0002049170008315700083557000884
:10001000395700083D57000841570008000000000C
:10002000000000000000000000000000455700082C
:1000300049570008000000004D570008B559000856
:1000400099170008991700089917000899170008D0
:1000500099170008991700089917000899170008C0
:100060004D520008BD510008DD52000899170008E4
:1000700099170008991700089917000899170008A0
:100080009917000899170008991700089917000890
:100090005157000899170008991700089917000888
:1000A000991700087D4E0008991700089917000855
:1000B0009917000899170008991700089917000860
:1000C0009917000899170008991700089917000850
:1000D0009917000899170008991700089917000840
:1000E0009917000899170008555700089917000834
:1000F000F54E00089917000899170008991700088D
:100100009917000899170008A14D000899170008D1
:10011000CD5A000899170008991700089917000888
:1001200099170008991700089917000899170008EF
:1001300000000000000000000000000000000000BF
:1001400000000000000000000000000000000000AF
:10015000000000000000000000000000000000009F
:10016000000000000000000000000000000000008F
:10017000000000000000000000000000000000007F
:10018000000000000000000000000000000000006F
:10019000000000000000000000000000000000005F
:1001A000000000000000000000000000000000004F
:1001B000000000000000000000000000000000003F
:1001C000000000000000000000000000000000002F
:1001D000000000000000000000000000000000001F
:0401E0005FF8E0F1F3
:1001E80081F0004102E000BF83F0004330B54FEAE0
:1001F80041044FEA430594EA050F08BF90EA020F4D
:100208001FBF54EA000C55EA020C7FEA645C7FEADF
:10021800655C00F0E2804FEA5454D4EB5555B8BF02
:100228006D420CDD2C4480EA020281EA030382EA73
:10023800000083EA010180EA020281EA0303362D05
:1002480088BF30BD11F0004F4FEA01314FF4801CD8
:100258004CEA113102D0404261EB410113F0004FEA
:100268004FEA03334CEA133302D0524263EB4303A1
:1002780094EA050F00F0A780A4F10104D5F1200E3F
:100288000DDB02FA0EFC22FA05F2801841F100019A
:1002980003FA0EF2801843FA05F359410EE0A5F16E
:1002A80020050EF1200E012A03FA0EFC28BF4CF09F
:1002B800020C43FA05F3C01851EBE37101F0004555
:1002C80007D54FF0000EDCF1000C7EEB00006EEB62
:1002D8000101B1F5801F1BD3B1F5001F0CD34908EC
:1002E8005FEA30004FEA3C0C04F101044FEA445243
:1002F80012F5800F80F09A80BCF1004F08BF5FEACA
:10030800500C50F1000041EB045141EA050130BDA9
:100318005FEA4C0C404141EB010111F4801FA4F14C
:100328000104E9D191F0000F04BF01460020B1FAA1
:1003380081F308BF2033A3F10B03B3F120020CDAD9
:100348000C3208DD02F1140CC2F10C0201FA0CF0B7
:1003580021FA02F10CE002F11402D8BFC2F1200C1C
:1003680001FA02F120FA0CFCDCBF41EA0C019040D2
:10037800E41AA2BF01EB0451294330BD6FEA04041B
:100388001F3C1CDA0C340EDC04F11404C4F1200206
:1003980020FA04F001FA02F340EA030021FA04F318
:1003A80045EA030130BDC4F10C04C4F1200220FA6F
:1003B80002F001FA04F340EA0300294630BD21FAAD
:1003C80004F0294630BD94F0000F83F4801306BF73
:1003D80081F480110134013D4EE77FEA645C18BF67
:1003E8007FEA655C29D094EA050F08BF90EA020FFE
:1003F80005D054EA000C04BF1946104630BD91EAF6
:10040800030F1EBF0021002030BD5FEA545C05D1F8
:100418004000494128BF41F0004130BD14F5800437
:100428003CBF01F5801130BD01F0004545F0FE41AB
:1004380041F470014FF0000030BD7FEA645C1ABFE0
:10044800194610467FEA655C1CBF0B46024650EA17
:10045800013406BF52EA033591EA030F41F4002143
:1004680030BD00BF90F0000F04BF0021704730B5C9
:100478004FF4806404F132044FF000054FF000019E
:1004880050E700BF90F0000F04BF0021704730B55F
:100498004FF4806404F1320410F0004548BF404234
:1004A8004FF000013EE700BF42004FEAE2014FEA89
:1004B80031014FEA02701FBF12F07F4393F07F4F64
:1004C80081F06051704792F0000F14BF93F07F4F96
:1004D800704730B54FF4607401F0004521F00041D9
:1004E80020E700BF50EA010208BF704730B54FF05F
:1004F80000050AE050EA010208BF704730B511F064
:10050800004502D5404261EB41014FF4806404F19B
:1005180032045FEA915C3FF4DCAE4FF003025FEA1D
:10052800DC0C18BF03325FEADC0C18BF033202EBA5
:10053800DC02C2F1200300FA03FC20FA02F001FAFF
:1005480003FE40EA0E0021FA02F11444C1E600BF9E
:1005580070B54FF0FF0C4CF4E06C1CEA11541DBF51
:100568001CEA135594EA0C0F95EA0C0F00F0DEF81C
:100578002C4481EA030621EA4C5123EA4C5350EA01
:10058800013518BF52EA033541F4801143F4801352
:1005980038D0A0FB02CE4FF00005E1FB02E506F0E3
:1005A8000042E0FB03E54FF00006E1FB03569CF038
:1005B800000F18BF4EF0010EA4F1FF04B6F5007F3E
:1005C80064F5407404D25FEA4E0E6D4146EB0606B0
:1005D80042EAC62141EA55514FEAC52040EA5E5039
:1005E8004FEACE2EB4F1FD0C88BFBCF5E06F1ED8E3
:1005F800BEF1004F08BF5FEA500E50F1000041EB1A
:10060800045170BD06F0004646EA010140EA0200C6
:1006180081EA0301B4EB5C04C2BFD4EB0C0541EAE8
:10062800045170BD41F480114FF0000E013C00F3FD
:10063800AB8014F1360FDEBF002001F0004170BD21
:10064800C4F10004203C35DA0C341BDC04F114043A
:10065800C4F1200500FA05F320FA04F001FA05F2C6
:1006680040EA020001F0004221F0004110EBD37093
:1006780021FA04F642EB06015EEA430E08BF20EABF
:10068800D37070BDC4F10C04C4F1200500FA04F362
:1006980020FA05F001FA04F240EA020001F00041F4
:1006A80010EBD37041F100015EEA430E08BF20EA67
:1006B800D37070BDC4F1200500FA05F24EEA020EAF
:1006C80020FA04F301FA05F243EA020321FA04F0DE
:1006D80001F0004121FA04F220EA020000EBD37095
:1006E8005EEA430E08BF20EAD37070BD94F0000F95
:1006F8000FD101F00046400041EB010111F4801FC9
:1007080008BF013CF7D041EA060195F0000F18BF79
:10071800704703F00046520043EB030313F4801FB5
:1007280008BF013DF7D043EA0603704794EA0C0F6F
:100738000CEA135518BF95EA0C0F0CD050EA410685
:1007480018BF52EA4306D1D181EA030101F0004102
:100758004FF0000070BD50EA410606BF104619462A
:1007680052EA430619D094EA0C0F02D150EA013636
:1007780013D195EA0C0F05D152EA03361CBF104677
:1007880019460AD181EA030101F0004141F0FE4116
:1007980041F470014FF0000070BD41F0FE4141F49A
:1007A800780170BD70B54FF0FF0C4CF4E06C1CEA9A
:1007B80011541DBF1CEA135594EA0C0F95EA0C0F4F
:1007C80000F0A7F8A4EB050481EA030E52EA03350A
:1007D8004FEA013100F088804FEA03334FF080552B
:1007E80045EA131343EA12634FEA022245EA111558
:1007F80045EA10654FEA00260EF000419D4208BF09
:10080800964244F1FD0404F5407402D25B084FEAB5
:100818003202B61A65EB03055B084FEA32024FF461
:1008280080104FF4002CB6EB020E75EB030E22BFBE
:10083800B61A754640EA0C005B084FEA3202B6EB7E
:10084800020E75EB030E22BFB61A754640EA5C002D
:100858005B084FEA3202B6EB020E75EB030E22BFBD
:10086800B61A754640EA9C005B084FEA3202B6EBBE
:10087800020E75EB030E22BFB61A754640EADC007D
:1008880055EA060E18D04FEA051545EA16754FEADF
:1008980006164FEAC30343EA52734FEAC2025FEAFD
:1008A8001C1CC0D111F4801F0BD141EA00014FF08C
:1008B80000004FF0004CB6E711F4801F04BF01435D
:1008C8000020B4F1FD0C88BFBCF5E06F3FF6AFAE79
:1008D800B5EB030C04BFB6EB020C5FEA500C50F109
:1008E800000041EB045170BD0EF0004E4EEA11318C
:1008F80014EB5C04C2BFD4EB0C0541EA045170BD93
:1009080041F480114FF0000E013C90E645EA060ED6
:100918008DE60CEA135594EA0C0F08BF95EA0C0F04
:100928003FF43BAF94EA0C0F0AD150EA01347FF44C
:1009380034AF95EA0C0F7FF425AF104619462CE723
:1009480095EA0C0F06D152EA03353FF4FDAE104686
:10095800194622E750EA410618BF52EA43067FF4D7
:10096800C5AE50EA41047FF40DAF52EA43057FF467
:10097800EBAE12E74FF0FF3C06E000BF4FF0010C72
:1009880002E000BF4FF0010C4DF804CD4FEA410CD6
:100998007FEA6C5C4FEA430C18BF7FEA6C5C1BD0A3
:1009A80001B050EA410C0CBF52EA430C91EA030F24
:1009B80002BF90EA020F0020704710F1000F91EA81
:1009C800030F58BF994208BF90422CBFD8176FEA4F
:1009D800E37040F0010070474FEA410C7FEA6C5C1D
:1009E80002D150EA013C07D14FEA430C7FEA6C5C24
:1009F800D6D152EA033CD3D05DF8040B704700BF50
:100A08008446104662468C461946634600E000BF9D
:100A180001B5FFF7B7FF002848BF10F1000F01BD6F
:100A28004DF808EDFFF7F4FF0CBF012000205DF83A
:100A380008FB00BF4DF808EDFFF7EAFF34BF0120BF
:100A480000205DF808FB00BF4DF808EDFFF7E0FF58
:100A580094BF012000205DF808FB00BF4DF808EDA9
:100A6800FFF7CEFF94BF012000205DF808FB00BF10
:100A78004DF808EDFFF7C4FF34BF012000205DF8F2
:100A880008FB00BF4FEA410212F5001215D211D53A
:100A98006FF47873B3EB625212D94FEAC12343F073
:100AA800004343EA505311F0004F23FA02F018BFF5
:100AB800404270474FF00000704750EA013005D1BE
:100AC80011F0004008BF6FF0004070474FF0000081
:100AD800704700BF4FEA4102B2F1E04324BFB3F5CB
:100AE800001CDCF1FE5C0DD901F0004C4FEAC0029D
:100AF8004CEA5070B2F1004F40EB830008BF20F081
:100B08000100704711F0804F21D113F13872BCBF3A
:100B180001F00040704741F480114FEA5252C2F18F
:100B28001802C2F1200C10FA0CF320FA02F018BFD8
:100B380040F001004FEAC1234FEAD32303FA0CFC2B
:100B480040EA0C0023FA02F34FEA4303CCE77FEABA
:100B5800625307D150EA01331EBF4FF0FE4040F404
:100B68004000704701F0004040F0FE4040F40000B3
:100B7800704700BF80F0004002E000BF81F00041F4
:100B880042001FBF5FEA410392EA030F7FEA226C2B
:100B98007FEA236C6AD04FEA1262D2EB1363C1BFBB
:100BA800D218414048404140B8BF5B42192B88BF2A
:100BB800704710F0004F40F4000020F07F4018BF4D
:100BC800404211F0004F41F4000121F07F4118BF6D
:100BD800494292EA030F3FD0A2F1010241FA03FC15
:100BE80010EB0C00C3F1200301FA03F100F00043FD
:100BF80002D5494260EB4000B0F5000F13D3B0F1C5
:100C0800807F06D340084FEA310102F10102FE2A33
:100C180051D2B1F1004F40EBC25008BF20F00100A3
:100C280040EA03007047490040EB000010F4000F51
:100C3800A2F10102EDD1B0FA80FCACF1080CB2EBE4
:100C48000C0200FA0CF0AABF00EBC2505242184343
:100C5800BCBFD0401843704792F0000F81F40001E8
:100C680006BF80F400000132013BB5E74FEA4103BB
:100C78007FEA226C18BF7FEA236C21D092EA030F27
:100C880004D092F0000F08BF0846704790EA010FA1
:100C98001CBF0020704712F07F4F04D1400028BFCE
:100CA80040F00040704712F100723CBF00F50000B0
:100CB800704700F0004343F0FE4040F400007047E6
:100CC8007FEA226216BF08467FEA23630146420292
:100CD80006BF5FEA412390EA010F40F480007047A5
:100CE8004FF0000304E000BF10F0004348BF40424B
:100CF8005FEA000C08BF704743F0964301464FF087
:100D080000001CE050EA010208BF70474FF00003E2
:100D18000AE000BF50EA010208BF704711F0004323
:100D280002D5404261EB41015FEA010C02BF8446F3
:100D38000146002043F0B64308BFA3F18053A3F552
:100D48000003BCFA8CF2083AA3EBC25310DB01FA99
:100D580002FC634400FA02FCC2F12002BCF1004F1D
:100D680020FA02F243EB020008BF20F001007047AE
:100D780002F1200201FA02FCC2F1200250EA4C0002
:100D880021FA02F243EB020008BF20EADC70704748
:100D98004FF0FF0C1CEAD0521EBF1CEAD15392EA56
:100DA8000C0F93EA0C0F6FD01A4480EA010C400232
:100DB80018BF5FEA41211ED04FF0006343EA50108C
:100DC80043EA5111A0FB01310CF00040B1F5000FCE
:100DD8003EBF490041EAD3715B0040EA010062F17D
:100DE8007F02FD2A1DD8B3F1004F40EBC25008BF67
:100DF80020F00100704790F0000F0CF0004C08BF85
:100E080049024CEA502040EA51207F3AC2BFD2F151
:100E1800FF0340EAC250704740F400004FF000035F
:100E2800013A5DDC12F1190FDCBF00F00040704799
:100E3800C2F10002410021FA02F1C2F1200200FAD7
:100E480002FC5FEA310040F1000053EA4C0308BF9E
:100E580020EADC70704792F0000F00F0004C02BFEF
:100E6800400010F4000F013AF9D040EA0C0093F06A
:100E7800000F01F0004C02BF490011F4000F013BC4
:100E8800F9D041EA0C018FE70CEAD15392EA0C0F32
:100E980018BF93EA0C0F0AD030F0004C18BF31F09D
:100EA800004CD8D180EA010000F00040704790F073
:100EB800000F17BF90F0004F084691F0000F91F017
:100EC800004F14D092EA0C0F01D142020FD193EADD
:100ED8000C0F03D14B0218BF084608D180EA010065
:100EE80000F0004040F0FE4040F40000704740F041
:100EF800FE4040F4400070474FF0FF0C1CEAD0520F
:100F08001EBF1CEAD15392EA0C0F93EA0C0F69D06A
:100F1800A2EB030280EA010C49024FEA402037D0D5
:100F28004FF0805343EA111143EA10130CF00040CC
:100F38008B4238BF5B0042F17D024FF4000C8B42BC
:100F480024BF5B1A40EA0C00B3EB510F24BFA3EB9C
:100F5800510340EA5C00B3EB910F24BFA3EB91036C
:100F680040EA9C00B3EBD10F24BFA3EBD10340EAC6
:100F7800DC001B0118BF5FEA1C1CE0D1FD2A3FF60C
:100F880050AF8B4240EBC25008BF20F001007047C1
:100F98000CF0004C4CEA50207F32C2BFD2F1FF0364
:100FA80040EAC250704740F400004FF00003013A95
:100FB80037E792F0000F00F0004C02BF400010F439
:100FC800000F013AF9D040EA0C0093F0000F01F04D
:100FD800004C02BF490011F4000F013BF9D041EA6F
:100FE8000C0195E70CEAD15392EA0C0F08D14202A2
:100FF8007FF47DAF93EA0C0F7FF470AF084676E775
:1010080093EA0C0F04D14B023FF44CAF08466EE74D
:1010180030F0004C18BF31F0004CCAD130F000421B
:101028007FF45CAF31F000437FF43CAF5FE700BF73
:101038004FF0FF3C06E000BF4FF0010C02E000BF9C
:101048004FF0010C4DF804CD4FEA40024FEA41033E
:101058007FEA226C18BF7FEA236C11D001B052EAF4
:10106800530C18BF90EA010F58BFB2EB030088BFBA
:10107800C81738BF6FEAE17018BF40F00100704729
:101088007FEA226C02D15FEA402C05D17FEA236C0B
:10109800E4D15FEA412CE1D05DF8040B704700BF52
:1010A800844608466146FFE70FB5FFF7C9FF0028E9
:1010B80048BF10F1000F0FBD4DF808EDFFF7F4FF22
:1010C8000CBF012000205DF808FB00BF4DF808EDBB
:1010D800FFF7EAFF34BF012000205DF808FB00BFDE
:1010E8004DF808EDFFF7E0FF94BF012000205DF800
:1010F80008FB00BF4DF808EDFFF7D2FF94BF0120B1
:1011080000205DF808FB00BF4DF808EDFFF7C8FFA9
:1011180034BF012000205DF808FB00BF4FEA400201
:10112800B2F1FE4F0FD34FF09E03B3EB12620DD90D
:101138004FEA002343F0004310F0004F23FA02F077
:1011480018BF404270474FF00000704712F1610F1E
:1011580001D1420205D110F0004008BF6FF00040F5
:1011680070474FF0000070474BB942B9002908BFDB
:10117800002802D04FF0FF31084600F03BB882B09B
:10118800EC462DE9005000F01DF8DDF804E002B04F
:101198000CBC70472DE9F0411646984604460D46AA
:1011A80000F02AF806FB01FCA6FB002300FB08C799
:1011B800FB18A21A65EB0303069CC4E90023BDE8EB
:1011C800F08100BF2DE9F041904606460F461D46C6
:1011D80000F070F900FB05F3A0FB084508FB013897
:1011E800069B4544341B67EB0505C3E90045BDE88C
:1011F800F08100BF704700BF00292DE9F00F1D46A0
:10120800C0F29D800024002DC0F2948080460F46D5
:1012180094461E46E3BB8A4255D9B2FA82F747B1D3
:10122800C7F1200520FA05F601FA07F1BA40B840DF
:101238003143170CB1FBF7F61FFA82FC07FB1611B6
:101248000CFB06F5030C43EA01439D4208D9711EC5
:101258009B1880F013819D4240F21081023E9B183A
:10126800591BB1FBF7F507FB15130CFB05FC80B206
:1012780040EA03418C4507D96B1E8A1880F000812B
:10128800944540F2FD80023D45EA0641002503E011
:101298008B420CD9002529460A462B4614B15242E6
:1012A80063EB430310461946BDE8F00F7047B3FAE5
:1012B80083F5002D40F087808B4201D38242EAD823
:1012C80000250121E8E712B90126B6FBF2F2B2FACD
:1012D80082F6002E39D18E1A130C1FFA82FC0125D2
:1012E800B6FBF3F703FB17610CFB07F84FEA10494D
:1012F80049EA0146B04506D9791EB61802D2B0456A
:1013080000F2D3800F46C8EB0606B6FBF3F103FBE9
:1013180011630CFB01FC80B240EA03439C4506D9EB
:101328004E1E9A1802D2944500F2C280314641EA14
:101338000741B1E7E443524263EB430366E74042A7
:1013480061EB41014FF0FF345DE7B240C6F120097F
:1013580021FA09F720FA09F901FA06F1130CB7FB8B
:10136800F3F81FFA82FC03FB18770CFB08F549EA2F
:1013780001094FEA194141EA0747B040BD420AD97D
:10138800BF1808F1FF3680F08E80BD4240F28B8096
:10139800A8F10208BF18791BB1FBF3F503FB151779
:1013A8000CFB05F61FFA89F949EA07418E4206D96E
:1013B8006F1E891871D28E426FD9023D89188E1B13
:1013C80045EA08458CE7C5F1200122FA01F306FA3F
:1013D80005F627FA01F207FA05F720FA01F11E438C
:1013E8004FEA1649B2FBF9F81FFA86FA09FB1822E8
:1013F8000AFB08FB0F433B0C43EA024293450CFAF5
:1014080005FC08D9921908F1FF314AD2934548D909
:10141800A8F102089219CBEB0203B3FBF9F109FB1F
:1014280011320AFB01FABFB247EA02439A4506D9CC
:101438004A1E9B1933D29A4531D902399B1941EA80
:1014480008410F0C1FFA8CF808FB07F68AB24FEA1E
:101458001C4C08FB02F80CFB02620CFB07FC02EBBD
:101468001842964288BF0CF5803CCAEB03030CEB8C
:10147800124C63450ED305D000250DE70E46EFE666
:101488001D4601E700FA05F01FFA88F808EB024547
:10149800A842F1D201390025FEE63D468FE7114604
:1014A800CDE78846B7E7B04675E7023FB6182AE7A2
:1014B80002393CE72DE9F007144605460E46002B95
:1014C8003DD18A4249D9B2FA82F747B1C7F1200122
:1014D80020FA01F206FA07F6BC40BD401643220C7A
:1014E800B6FBF2F0A1B202FB106601FB00F32F0C71
:1014F80047EA0646B34208D9471E361980F0FA80F3
:10150800B34240F2F78002383619F61AB6FBF2F306
:1015180002FB136201FB03F1ADB245EA02429142BC
:1015280007D95E1E121980F0E780914240F2E480EC
:10153800023B43EA00400021BDE8F00770478B42B8
:1015480043D8B3FA83F4002C42D18B4202D38242AF
:1015580000F2E18000210120EEE712B90127B7FB74
:10156800F2F4B4FA84F2002A40F089800A1B230CB2
:10157800A7B20121B2FBF3F603FB162207FB06F024
:101588004FEA154C4CEA0242904207D9121906F16B
:10159800FF3C02D2904200F2D0806646121AB2FB9B
:1015A800F3F003FB102307FB00F7ADB245EA034352
:1015B8009F4207D9421E1B1980F0A0809F4240F22B
:1015C8009D80023840EA0640B6E700210846B3E7A6
:1015D800C4F1200622FA06F703FA04F321FA06F505
:1015E80001FA04F120FA06F63B434FEA134CB5FB27
:1015F800FCF71FFA83F80CFB175508FB07F946EAB6
:10160800010A4FEA1A4141EA0545A94502FA04F2DE
:1016180004D97E1EED18C0F081803746C9EB05015C
:10162800B1FBFCF60CFB161508FB06F81FFA8AFA44
:101638004AEA0541884503D9751EC91874D32E4650
:1016480046EA0746370C1FFA82FC0CFB07F5120C1A
:10165800B3B20CFB03FC02FB035302FB07F203EBE0
:101668001C439D4288BF02F58032C8EB010102EBA2
:10167800134291424CD343D0304600215CE794405A
:10168800C2F1200521FA05F620FA05F501FA02F162
:10169800230CB6FBF3FCA7B203FB1C6607FB0CF894
:1016A80029430D0C45EA0646B04500FA02F508D96B
:1016B80036190CF1FF303ED2B0453CD9ACF1020CE2
:1016C8003619C8EB0602B2FBF3F003FB102607FB42
:1016D80000F889B241EA0642904506D9461E121919
:1016E80027D2904525D902381219C8EB020240EAE0
:1016F8000C413FE7384608E733461AE7104661E7EA
:1017080000FA04F01FFA8CFC0CEB03439842B3D2A6
:10171800701E002110E7214620460DE7A9457FF6F7
:101728007CAF023FED1879E7884588D9023EC91891
:1017380086E73046D9E78446C3E7023E12192DE70B
:10174800002100F004B80D4B5B58435004310C489D
:101758000C4B42189A42FFF4F6AF0B4A00F003B85C
:10176800002342F8043B094B9A42FFF4F9AF04F016
:101778003DF807F041FB03F00FF8704708E900084F
:1017880000000020AC090020AC090020581A0020F5
:10179800FFF7FEBF40F0BF604FF46D4340F40031E7
:1017A800CEF20003D9607047C37830B47BB90078B3
:1017B800012100F01F0201FA02F140094FF46143D0
:1017C800CEF20003203043F8201030BC70474FF4AD
:1017D8006D44CEF20004E5684478EA43C2F302237C
:1017E8000F2525FA03F2C3F1040104FA01F4857800
:1017F800037802EA050121430A0103F16043D1B2EB
:1018080003F5614282F800130078012100F01F03FC
:1018180001FA03F14FF46143CEF20003420943F8A1
:101828002210D2E708B54FF41053C4F201039842CE
:1018380018D04FF42051C4F2010188421ED04FF451
:101848007052C4F20102904200D008BD01214FF449
:10185800004000F0EBFA4FF400400021BDE80840DA
:1018680000F0E4BA01214FF4007000F0DFFA4FF401
:1018780000700021BDE8084000F0D8BA01214FF4FB
:10188800806000F0D3FA4FF480600021BDE8084082
:1018980000F0CCBA42680B6870B422F470250C7959
:1018A80025F4807646EA030242EA04234360866808
:1018B8008C68CA684FF2FD73CFF6F1734D792243F5
:1018C8003340134343EA45028260097CC26A4B1ED7
:1018D80022F47001DAB241EA0253C36270BC704765
:1018E800836819B923F001018160704743F0010250
:1018F80082607047836843F008018160704700BFC9
:101908008068C0F3C0007047836843F004018160B9
:10191800704700BF8068C0F380007047837930B497
:101928003BB34FF48063C4F2010301681D68CC43E4
:1019380025401D605D6802792C4002F180455C609D
:1019480005F5823215684479294311600268986860
:10195800D14308409860D868102C01EA0001D9608A
:1019680013D004F1804303F5823421680A432260CE
:1019780009E00279016802F1804000F582331A68B3
:1019880022EA01021A6030BC7047986810439860D8
:10199800D9680A43DA60F6E74FF48063C4F20103BA
:1019A8001A691043186170474FF48063C4F2010349
:1019B8001A68596910EA010304D010420CBF0020CC
:1019C80001207047184670474FF48063C4F2010342
:1019D80058617047CA7830B4D30648BF8B7802F094
:1019E8000F0448BF1C430B8813F0FF0F2FD013F0D0
:1019F8000105016840F0EC8003F00205ADB2002D4E
:101A080040F0D08003F00405ADB2002D40F0D58041
:101A180003F00805ADB2002D40F0988003F01005E2
:101A2800ADB2002D40F09D8003F02005ADB2002D31
:101A380040F0A28003F04005ADB2002D40F0A78031
:101A480003F08005ADB2002D40F0CD800160FF2B82
:101A580028D903F480718DB24168002D2DD103F48B
:101A68000075ADB2002D33D103F48065ADB2002D01
:101A780039D103F40065ADB2002D3FD103F4805590
:101A8800ADB2002D44D103F40055ADB2002D49D1BB
:101A980003F48045ADB2002D4ED103F400439BB250
:101AA80013B9416030BC7047282A64F31F7100F0F5
:101AB800B080482A08BF0361F3E721F00F01282A04
:101AC80044EA010100F0A380482AC8D10561C6E7AD
:101AD80021F0F001282A41EA041100F09680482AF2
:101AE800C2D10561C0E721F47061282A41EA0421C6
:101AF80000F08980482ABCD10561BAE721F4704119
:101B0800282A41EA04317CD0482AB7D10561B5E7D3
:101B180021F47021282A41EA044170D0482AB2D120
:101B28000561B0E721F47001282A41EA045164D024
:101B3800482AADD10561ABE721F07061282A41EA56
:101B4800046158D0482AA8D10561A6E721F470415C
:101B5800282A41EA043168D0482A7FF45FAF05613A
:101B68005CE721F47021282A41EA04415BD0482A25
:101B78007FF45AAF056157E721F47001282A41EA3A
:101B8800045156D0482A7FF455AF056152E721F039
:101B98007061282A41EA046149D0482A7FF450AF8D
:101BA80005614DE721F0F001282A41EA041138D0F7
:101BB800482A7FF427AF056124E721F47061282AB9
:101BC80041EA04212BD0482A7FF422AF05611FE7A0
:101BD80021F00F01282A44EA01011CD0482A7FF489
:101BE8000BAF056108E7282A64F31F7115D0482A4E
:101BF80008BF05612AE745614FE7456148E7456148
:101C080041E745613AE7456133E745612CE74561BE
:101C180025E7436145E74561EEE6456116E745611D
:101C2800F6E64561EEE64561FEE64561F6E64561A4
:101C380006E74561FEE600BF836819420CBF002035
:101C48000120704701617047416170470AB94161DD
:101C580070470161704700BFC3685940C160704751
:101C680000230028C4F2010300F44012B4BFDB696A
:101C78005B68B2F5401F30B484B222D0C20217D5D7
:101C8800C0F30342032505FA02F223EA020343F0F4
:101C9800706321B1410D0A0104FA02F423430021C3
:101CA800C4F201010028B4BFCB614B6030BC70475F
:101CB800420D120104FA02F223EA020343F07063B0
:101CC800E7E70022C4F20102556823F0706325F0AB
:101CD80070655560DDE700BF01F0030310B40F2203
:101CE8009C0002FA04F200FA04F089080023C4F206
:101CF8000103023153F8214024EA020243F821206B
:101D080053F82120104343F8210010BC704700BF4E
:101D1800D823C4F242231860704700BF4FF48053A1
:101D2800C4F202035A6822F44041084358607047DD
:101D38004FF48053C4F202035A6810B402F00C0145
:101D4800042901D0082928D04FF49052C0F27A0211
:101D580002604FF48053C4F202035C681C49C4F368
:101D680003140C5D22FA04F242605C68C4F3022496
:101D78000C5D22FA04F484605C68C4F3C224095D33
:101D880022FA01F2C2605B681249C3F38133CB5C6B
:101D9800B2FBF3F2026110BC70475C685968C4F387
:101DA80083420232CC030AD55B68990307D44FF407
:101DB8009054C0F27A0404FB02F20260C9E74FF4BF
:101DC8001061C0F23D0101FB02F20260C1E700BFF1
:101DD80004000020000000204FF48053C4F20203E6
:101DE8005A6919B922EA00005861704710435861CE
:101DF800704700BF4FF48053C4F202039A6919B9BF
:101E080022EA00009861704710439861704700BF4C
:101E18004FF48053C4F20203DA6919B922EA0000C8
:101E2800D86170471043D861704700BF4FF48053A2
:101E3800C4F20203DA6819B922EA0000D8607047D0
:101E48001043D860704700BF4FF430520388C4F283
:101E58000102904270B49BB21AD04FF45052C4F2AF
:101E68000102904214D0B0F1804F11D04FF480623B
:101E7800C4F2000290420BD04FF40062C4F2000298
:101E8800904205D04FF44062C4F20002904205D15E
:101E98004FF68F724C881A4042EA04034FF480527E
:101EA800C4F20002904234D04FF4A052C4F20002AF
:101EB80090422ED04FF6FF42CE881A404FF430534E
:101EC8008D880C88C4F201033243984202808585CC
:101ED80004851BD04FF45052C4F20102904215D031
:101EE8004FF48043C4F2010398420FD04FF4884264
:101EF800C4F20102904209D04FF49043C4F20103A6
:101F0800984203D00122828270BC7047097A018608
:101F1800F8E703808B88838509880185F2E700BF8D
:101F2800038C2DE9F00123F001021404250C05842B
:101F3800078C0D8984884E88038B2E4323F0730207
:101F48004FF4305527F0020312041B040F88C4F223
:101F58000105120C1B0CB6B2A842A4B242EA070251
:101F680046EA03031FD04FF45055C4F20105A842B6
:101F780019D04FF48045C4F20105A84213D04FF49C
:101F88008845C4F20105A8420DD04FF49045C4F22B
:101F98000105A84207D0C98884800283818603840A
:101FA800BDE8F00170474FF6F776B1F80AC0B1F80E
:101FB8000E808F891E4046EA0C0C4FF6FB738E8804
:101FC8004FF6FF4548EA070725400CEA0303BCB271
:101FD80033432C43DFE700BF038CF0B423F0100237
:101FE8001404250C0584068C848826F02002078BAF
:101FF80016040D89320C27F4E6431B0442EA051245
:102008000F884E884FF430551B0CC4F2010543EA83
:10201800072342EA0612A842A4B29BB292B20CD09D
:102028004FF45055C4F20105A84206D0C9888480EF
:10203800038301870284F0BC70474F894FF67F768F
:1020480016404FF2FF35B1F80CC0254046EA071696
:102058004FF6BF728F88CC89324045EA8C0542EA38
:10206800071245EA840492B2A4B2DFE7038CF0B405
:1020780023F480721404250C0584068C0D8926F43B
:1020880000773A048488838B120C23F0730642EAA3
:1020980005224F884FF430553304C4F201050E88E9
:1020A8001B0C42EA0722A842A4B243EA060392B2F2
:1020B8000CD04FF45055C4F20105A84206D0C98887
:1020C8008480838381870284F0BC70474F894FF2F4
:1020D800FF7616404CF6FF75B1F80CC0254046EA6D
:1020E80007264FF6FF328F88CC89324045EA0C1517
:1020F80042EA072245EA041492B2A4B2DFE700BF1D
:102108000B8830B44D888C88CA882B4323430D89AB
:102118004C89134389892B4323430B439AB2A0F874
:10212800442030BC704700BF038829B923F001015F
:102138000A04130C0380704799B241F0010202802F
:10214800704700BFB0F8443021B959044A0CA0F8D0
:10215800442070476FEA43436FEA53418AB2A0F8BC
:1021680044207047038B23F0080213041A0C114310
:1021780001837047038B23F4006213041A0C42EAAC
:1021880001218BB203837047838B23F00802130469
:102198001A0C114381837047038A70B5044623F4EF
:1021A8004050CA880D4601040E0C16432682A389A6
:1021B800AA88288923F4B056698926F00C031043AD
:1021C8001A04160C084340EA06018BB2A381A08AC0
:1021D800AA8920F4407631040B0C86B0134301A879
:1021E800A382FFF7A5FD4FF46056A089C4F201064B
:1021F800B44202B20CBF049E039E002A21DB2D6864
:1022080006EB860101EB8103AE00B3FBF6F148F261
:102218001F53C5F2EB13A3FB0106A089720900B294
:1022280064251601002802FB151113DB0A0132325E
:10223800A3FB0203C3F34310304383B2238106B0E8
:1022480070BD286806EB860202EB82054300B5FBE9
:10225800F3F1DCE7C9003231A3FB0112C2F34210EB
:102268003043EAE70A8830B4038A4D888C882A43C9
:10227800C98823F470631B0422430A43190C0A43D8
:1022880093B2038230BC704700230380438083806D
:10229800C3807047838929B923F400510A04130CB9
:1022A8008381704799B241F400528281704700BF20
:1022B80001F01F0310B4C1F342110124A14204FA32
:1022C80003F30DD002290DD014302AB9026822EA8E
:1022D8000301016010BC7047026813430360F9E70B
:1022E8000C30F2E71030F0E730B54FF4805087B08B
:1022F800082300246946C4F20100ADF800308DF8C7
:102308000340FFF767FB4FF40040FFF707FD01218B
:102318004FF40070FFF76EFD4FF41050C4F2010047
:10232800FFF780FA4FF410504FF460220125C4F2F1
:10233800010001A9039201948DF808408DF8094025
:1023480004948DF81450FFF7A5FA4FF41050C4F216
:1023580001002946FFF7C4FA4FF41050C4F20100F7
:10236800FFF7C8FA4FF41050C4F20100FFF7C8FA9B
:102378000028F7D14FF41050C4F20100FFF7C4FA57
:102388004FF41050C4F20100FFF7C4FA0028F7D147
:1023980007B030BD0FB410B5C2B044AC54F8042B2C
:1023A800FF21234602A8019406F07AFE02A803F052
:1023B8007DFB02A806F018FE014602A803F0ACFC5B
:1023C80042B0BDE8104004B0704700BF0FB410B56C
:1023D800C2B044AC54F8042B02A8FF212346019450
:1023E80006F05EFE02A803F061FB42B0BDE81040B3
:1023F80004B0704700B50C4B83B01868002804DBA4
:102408004FF0FF321A6003B000BD03F095FC38B1FD
:102418000DF10700012103F095FC9DF80700F2E794
:1024280003F02CFBEFE700BF1400002010B50024D8
:1024380007E0642C09D0FFF7DDFF0134002804DB36
:102448000134FFF7D7FF0028F3DA204610BD00BF9C
:1024580010B582B002AC04F8010D03F01FFB204652
:10246800012103F059FC02B010BD00BF704700BF46
:1024780008B503F01BFBBDE8084003F005BB00BF2F
:1024880008B503F093FB4DF60040C0F60000FFF7D7
:10249800EFFF03F02BFC4DF61040C0F60000BDE83E
:1024A8000840FFF7E5BF00BF70B5FFF7A3FF041EA4
:1024B80053DB03F055FCA4F12B004B284DD8DFE883
:1024C80010F002014C00F0004C004C004C004C0095
:1024D8004C004C004C004C004C004C004C004C0094
:1024E8004C004C004C004C004C004C004C004C0084
:1024F8004C004C004C004C004C00EC004C004C00D4
:102508004C004C004C004C004C004C004C004C0063
:10251800E1004C004C004C004C004C004C004C00BE
:102528004C004C004C004C004C004C004C00DB00B4
:10253800D000CA00C4004C004C00970087008300FC
:102548007F004C004C004C004C00790073004C009C
:102558006D005E004C0053004D0070BD5E485F4941
:10256800BDE87040FFF716BF5D4B1C6804F040FDE6
:1025780002465C482146BDE87040FFF727BF5A4B2A
:102588005A481A6882F00102594C5A491A60002ABE
:1025980008BF2146BDE87040FFF7FCBE564B5748C0
:1025A800196881F00102EFE7554B56481C6884F022
:1025B8000102E9E7544B186880F001025348E3E749
:1025C800534B00221A6070BD51480121016070BD53
:1025D800504D0024FFF70EFF0028FBDBFE28D8BF74
:1025E800605501340C2CF5D1BDE8704000F026B9D7
:1025F800484C642003F008FC7820FFF729FF207876
:10260800FFF726FF6078FFF723FFA078FFF720FF8A
:10261800E078FFF71DFF2079FFF71AFF6079FFF7D1
:1026280017FFA079FFF714FFE079FFF711FF207A71
:10263800FFF70EFF607AFFF70BFFA07AFFF708FF9E
:10264800E07ABDE87040FFF703BF334B33481C689E
:1026580084F0010298E7324B32481A6882F001028E
:1026680092E73148FFF796FE4FF47A7003F0CCFBFF
:10267800BDE8704002F03ABF2C4B2D48196881F034
:10268800010281E72B48FFF785FE4FF47A7003F0CB
:10269800BBFBBDE8704002F01FBFBDE8704000F012
:1026A8008BB9254C4CF6CD41C3F6CC512068FEF7CA
:1026B80065FA2060FDF7F8FE024620480B46BDE8A3
:1026C8007040FFF767BE1C4C4CF6CD41C3F6CC51A9
:1026D8002068FEF755FAECE734DD000844DD000811
:1026E800D80E002008DD0008240A0020F0DC0008CD
:1026F80028DC000824DC00081C0A0020CCDC0008C8
:10270800380A0020B0DC0008B409002094DC000876
:10271800140F002018000020E409002080DC0008C5
:10272800B009002068DC000844DC0008DC0900204F
:102738002CDC0008E0DC0008240000204CDD000848
:1027480008B5002000F09EF9FE289CBF3A4B18708F
:10275800052003F059FB012000F094F9FE289CBFE6
:1027680035494870052003F04FFB022000F08AF934
:10277800FE289CBF304A9070052003F045FB0320DB
:1027880000F080F9FE289CBF2B4BD870052003F081
:102798003BFB042000F076F9FE289CBF264908710F
:1027A800052003F031FB052000F06CF9FE289CBFE2
:1027B800214A5071052003F027FB062000F062F93A
:1027C800FE289CBF1C4B9871052003F01DFB0720B9
:1027D80000F058F9FE289CBF1749C871052003F07E
:1027E80013FB082000F04EF9FE289CBF124A107215
:1027F800052003F009FB092000F044F9FE289CBFDE
:102808000D4B5872052003F0FFFA0A2000F03AF940
:10281800FE289CBF08498872052003F0F5FA0B20B2
:1028280000F030F9FE289CBF034AD0720520BDE8AD
:10283800084003F0E9BA00BF1800002008B503F00B
:102848008FFA002000F01EF9411C06D0594B197868
:10285800814202D0002000F0F7F8052003F0D4FAF6
:10286800012000F00FF9421C06D0524949788142F4
:1028780002D0012000F0E8F8052003F0C5FA022094
:1028880000F000F9431C06D04A4A9178814202D0F0
:10289800022000F0D9F8052003F0B6FA032000F072
:1028A800F1F8411C06D0434BD978814202D003206D
:1028B80000F0CAF8052003F0A7FA042000F0E2F8B7
:1028C800421C06D03B490979814202D0042000F01D
:1028D800BBF8052003F098FA052000F0D3F8431C54
:1028E80006D0344A5179814202D0052000F0ACF874
:1028F800052003F089FA062000F0C4F8411C06D030
:102908002C4B9979814202D0062000F09DF80520D1
:1029180003F07AFA072000F0B5F8421C06D02549E2
:10292800C979814202D0072000F08EF8052003F013
:102938006BFA082000F0A6F8431C06D01D4A117A4D
:10294800814202D0082000F07FF8052003F05CFAED
:10295800092000F097F8411C06D0164B597A81429D
:1029680002D0092000F070F8052003F04DFA0A2083
:1029780000F088F8421C06D00E49897A814202D0BC
:102988000A2000F061F8052003F03EFA0B2000F061
:1029980079F8431C06D0074AD17A814202D00B202D
:1029A80000F052F8052003F02FFABDE8084003F0C4
:1029B800DFB900BF1800002038B54DF668504DF655
:1029C800785540F21804C0F60005C2F20004C0F6BB
:1029D8000000FFF7DFFC21782846FFF7DBFC2846DC
:1029E8006178FFF7D7FC2846A178FFF7D3FC284683
:1029F800E178FFF7CFFC28462179FFF7CBFC284682
:102A08006179FFF7C7FC2846A179FFF7C3FC284680
:102A1800E179FFF7BFFC2846217AFFF7BBFC28467F
:102A2800617AFFF7B7FC2846A17AFFF7B3FC28467E
:102A3800E17AFFF7AFFC4EF23C10C0F60000BDE8AB
:102A48003840FFF7A7BC00BF38B5044605200D463F
:102A580003F0DAF901F004F8AE2001F09FF801F074
:102A680067FD204601F09AF801F062FD284601F062
:102A780095F801F05DFD01F019F80520BDE8384032
:102A880003F0C2B938B50546174C012003F0BCF96C
:102A98000023236000F0E4FFAE2001F07FF801F08E
:102AA80047FD284601F07AF801F042FD00F0FEFFEC
:102AB800012003F0A9F900F0D3FFAF2001F06EF870
:102AC80001F036FD01F0C0F9054601F03FF800F0CD
:102AD800EDFF012003F098F9206800280CBF284674
:102AE8004FF0FF3038BD00BF5C1700202DE9F843D8
:102AF800394B00211868C4F27A41FEF749F9374981
:102B0800374E0968FEF73CF831680546FEF738F895
:102B1800344C074637606078FEF7E2F80021C4F2CB
:102B28007A41FEF7E9F92946FEF732F9804620791D
:102B3800FEF7D6F80021C4F2C821FEF7DDF92A4EC7
:102B4800814631682846FEF719F801464846FEF7DF
:102B58001FF941463560FEF713F84BF21771054629
:102B6800C3F6D1013846FEF713F901462846FEF7A9
:102B780007F81E4F1E4D3E6828603146FDF7FEFFE0
:102B88001C4A40F6DB71C3F6C97110608046FEF737
:102B9800BBFA38B140F6DB713046C3F6C971FDF7B0
:102BA800EFFF286040F6DB714046CBF6C971FEF7AF
:102BB8008DFA78B140F6DB713046C3F6C971FDF77E
:102BC800DDFF03462860E17918463B60BDE8F8431D
:102BD80002F06EB82B68F6E7180F0020AC09002049
:102BE800F809002018000020100A0020BC09002065
:102BF800400F0020300F00202DE9F843394B002109
:102C08005868C4F27A41FEF7C3F83749374E096865
:102C1800FDF7B6FF71680546FDF7B2FF344C07466D
:102C280077602078FEF75CF80021C4F27A41FEF75D
:102C380063F92946FEF7ACF88046E078FEF750F8CD
:102C48000021C4F2C821FEF757F92A4E814631689F
:102C58002846FDF793FF01464846FEF799F8414696
:102C68003560FDF78DFF4BF217710546C3F6D101AC
:102C78003846FEF78DF801462846FDF781FF1E4FBE
:102C88001E4D7E6868603146FDF778FF1C4A40F6A5
:102C9800DB71C3F6C97150608046FEF735FA38B16A
:102CA80040F6DB713046C3F6C971FDF769FF68600D
:102CB80040F6DB714046CBF6C971FEF707FA78B1EA
:102CC80040F6DB713046C3F6C971FDF757FF03467E
:102CD8006860A17918467B60BDE8F84302F00CB83B
:102CE8006B68F6E7180F0020180A0020F809002082
:102CF80018000020E0090020BC090020400F002037
:102D0800300F00202DE9F843394B00219868C4F2B0
:102D18007A41FEF73DF83749374E0968FDF730FF2D
:102D2800B1680546FDF72CFF344C0746B760A0781C
:102D3800FDF7D6FF0021C4F27A41FEF7DDF82946F7
:102D4800FEF726F880466079FDF7CAFF0021C4F235
:102D5800C821FEF7D1F82A4E814631682846FDF78A
:102D68000DFF01464846FEF713F841463560FDF76A
:102D780007FF4BF217710546C3F6D1013846FEF737
:102D880007F801462846FDF7FBFE1E4F1E4DBE689C
:102D9800A8603146FDF7F2FE1C4A40F6DB71C3F627
:102DA800C97190608046FEF7AFF938B140F6DB7123
:102DB8003046C3F6C971FDF7E3FEA86040F6DB7143
:102DC8004046CBF6C971FEF781F978B140F6DB7160
:102DD8003046C3F6C971FDF7D1FE0346A860217AD3
:102DE8001846BB60BDE8F84301F0AABFAB68F6E738
:102DF800180F0020B8090020F8090020180000204A
:102E0800340A0020BC090020400F0020300F0020A9
:102E18002DE9F041364D374C9626354800F010FD27
:102E2800A968286804F09CFBA9688046686804F0D3
:102E380097FB00210746C4F215312068FDF7A8FF6B
:102E48004146FDF79BFE0021C4F21631FEF754F807
:102E58000021C4F2153120606068FDF799FF014632
:102E68003846FDF78DFE0021C4F21631FEF744F80E
:102E78006060012002F0C8FF1D4800F0E1FCA9686D
:102E8800286804F06DFBA9688046686804F068FB50
:102E980000210746C4F215312068FDF779FF414645
:102EA800FDF76CFE0021C4F21631FEF725F800216B
:102EB800C4F2153120606068FDF76AFF01463846A4
:102EC800FDF75EFE0021C4F21631FEF715F8013E4B
:102ED8006060012002F098FF013E064F9DD1064B2D
:102EE80079683A68002059601A609860BDE8F081F6
:102EF800E8090020240F0020180F00202DE9F84FC2
:102F08001746926806460C46104611461D46FDF7C0
:102F18003FFFD7F80480814641464046FDF738FF19
:102F280001464846FDF72CFED7F800A0DDF82880BA
:102F380004F018FB0146504604F012FBB9688346BA
:102F4800786804F00DFB00210746C4F2C6213068FA
:102F5800FDF71EFF5946FDF711FE0021C4F2C821F6
:102F6800FDF7CAFF00213060C4F2C6217068FDF782
:102F78000FFF01463846FDF703FE0021C4F2C821C1
:102F8800FDF7BAFF7060296881464046FDF700FFEB
:102F9800676801463846FDF7F3FD394682464846DC
:102FA800FDF7ECFD4BF21771C3F65111FDF7F0FE7A
:102FB80001465046FDF7E4FD6060834604F094FA4C
:102FC8000746584604F05CFA8146A868394600F17D
:102FD8000040FDF7DDFE696882464846FDF7D8FEE9
:102FE80001465046FDF7CCFD01464046FDF7D0FEB0
:102FF800D4F800A001465046FDF7C2FD514683466D
:103008003068FDF7BBFD4BF21771C3F65111FDF7A0
:10301800BFFE01465846FDF7B3FD2060A968484643
:1030280001F10041FDF7B4FE696806463846FDF730
:10303800AFFE01463046FDF7A1FD01464046FDF7CB
:10304800A7FE0146A068FDF79BFDA060BDE8F88FCC
:10305800F8B5244D04462E680F4630464FF080419F
:10306800FDF78CFD2146FEF74FF8002832D14FF0CE
:1030780080413046FDF784FD01462046FEF744F8BE
:10308800D0B9194A00232B6013601D46174C002144
:103098002068C4F21C21FDF77BFE2946FDF770FD70
:1030A8000021C4F22021FDF727FF034601462360D3
:1030B8003846FDF763FDF8BD43F233312046C3F6C9
:1030C800B3614FF040442C60FDF762FE05460648A8
:1030D8000560DBE743F233312046C3F6B3614FF0B6
:1030E8008044F0E7CC090020200A0020F4090020E1
:1030F8002DE9F04FDFF8988199B0D8F80030834671
:10310800581CC8F8000002F02BFE02F04DFE16A86D
:1031180002F020FB4C4800F093FB16A802F022FBBB
:1031280010904A4800F0B8FB16A802F01BFBDFF825
:1031380064A111905146444A444B4548CDF800B02B
:10314800FFF7DCFE16A802F00DFB424D1290697ADB
:10315800414C312900F0A2816768404E39463068F9
:10316800FDF70EFD3E4F306039682068FDF708FD19
:10317800AA7A3860302ADFF8209100F0B681364B01
:10318800D9F800109868FDF7FBFCC9F8000016A8EC
:1031980002F0E8FA1390FFF72FFDFFF7A7FCFFF7FF
:1031A800B1FD16A802F0DEFA149016A802F0E2FAB1
:1031B8002C4D844629684A1CB2F5FA7F2A6021DB27
:1031C800294B1868002869D128490A68002A40F064
:1031D8009A8027480368002B40F0D080254A13685E
:1031E800002B40F0E98024480168002940F0118153
:1031F800224A1368002B40F026812148016831B922
:1032080000232B6002F0B4FD19B0BDE8F08F1D4C0F
:103218006068FDF749F9064620680F46FDF744F94E
:10322800CDE90001A068FDF73FF9CDE90201164A92
:103238001068FDF739F93246CDE904013B461348D9
:10324800FFF7A8F8DCE700BFE8090020040A00201F
:10325800240F002018000020D0090020180A0020A0
:10326800AC090020140A0020E4090020240A0020E8
:10327800380A00201C0A0020B4090020B0090020E8
:10328800DC090020400F0020CC09002078DF00086E
:10329800C8090020180F0020B8090020974AD8F85C
:1032A80000101368DAF800001591CDF830C00D93BE
:1032B80002F0B2FD0146DAF804000F9102F0ACFD0D
:1032C8000246DAF808000E9202F0A6FD80460F9832
:1032D800FDF7EAF80E9BCDE900011846FDF7E4F882
:1032E800CDE902014046FDF7DFF80D9ACDE904016A
:1032F80015998348FFF74EF88249DDF830C00A680F
:10330800002A3FF466AF5846CDF830C0FDF7CCF838
:10331800DFF830828246D8F800008B46FDF7C4F803
:10332800CDE90001D8F80400FDF7BEF8CDE90201A7
:10333800D8F80800FDF7B8F8CDE90401DFF80882ED
:10334800D8F80000FDF7B0F8CDE90601D8F8040078
:10335800FDF7AAF8CDE90801D8F80800FDF7A4F8A8
:103368005B46CDE90A0152466748FFF713F86748FC
:10337800DDF830C00368002B3FF430AFCDF830C023
:1033880001F040F9FDF790F80B46109902460191BB
:1033980011981299DDF830C002900391139814998E
:1033A8000490CDF800C005915948FEF7F3FF594A3B
:1033B8001368002B3FF417AFDFF88081D8F80000BE
:1033C800FDF772F88246D8F804008B46FDF76CF8D2
:1033D800CDE90001D8F80800FDF766F8CDE902014B
:1033E8002068FDF761F8CDE904016068FDF75CF835
:1033F800CDE90601A068FDF757F85246CDE9080166
:103408005B464548FEF7C6FF4448016800293FF47B
:10341800EFAE3868FDF748F8824630688B46FDF70E
:1034280043F8CDE90001D9F80000FDF73DF8524610
:103438005B46CDE902013A48FEF7ACFF394A13680A
:10344800002B3FF4DAAE384C3848A168384E94E87F
:103458000808D6F800807768D0F800A0B668D0F8D9
:10346800049084680D910E9302F0EEFB0E9A0D9B6A
:103478000092069002932F484146CDF804B0CDF84B
:103488000CA0CDF8109005943A463346FEF782FF1B
:103498002948016800293FF4B3AEB8E62749204619
:1034A80001F060FFDAF8046046F2F161CBF65F7173
:1034B80030466768FDF70AFE38B138460021FDF747
:1034C80023FE10B10027676047E640F6D971304601
:1034D800C3F6C971FDF718FE0028F4D0384600215C
:1034E800FDF7F4FD0028EED0ECE71548D9F80010F8
:1034F8008068FFF7ADFDC9F8000048E658170020BE
:1035080080DD0008240A0020C8DD0008380A0020F1
:1035180014DE00081C0A002078DE0008B409002028
:10352800D8DE0008B00900206017002078170020B6
:103538006C17002020DF0008DC090020280A002082
:10354800400F0020E8090020040A002038B51E4D6D
:1035580000242046FDF7C8FB40F6DB71C4F2C90120
:10356800FDF716FC4FF06A51FDF712FC03F0BCFFA3
:103578004FF47E41C4F2FF61FDF70AFC02F054FCEF
:10358800FDF7CCFD013468802046FDF7ADFB40F621
:10359800DB71C4F2C901FDF7FBFB4FF06A51FDF77F
:1035A800F7FB03F0A1FF4FF47E41C4F2FF61FDF782
:1035B800EFFB02F039FCFDF7B1FD0134A8800435BA
:1035C800B4F5806FC5D138BD560F002010B500F096
:1035D80047FAD02000F0E2FA00F0AAFF752000F0C8
:1035E800DDFA00F0A5FF00F061FA012002F00CFC02
:1035F80000F036FAD12000F0D1FA00F099FF00F07F
:1036080023FC044600F0A2FA00F050FA682C40F0BF
:10361800CB80052002F0F8FB00F022FAD02000F061
:10362800BDFA00F085FF6B2000F0B8FA00F080FFCB
:10363800802000F0B3FA00F07BFF00F037FA962004
:1036480002F0E2FB00F00CFAD02000F0A7FA00F03C
:103658006FFF6B2000F0A2FA00F06AFF032000F071
:103668009DFA00F065FF00F021FA052002F0CCFB7E
:1036780000F0F6F9D02000F091FA00F059FF6C2024
:1036880000F08CFA00F054FF002000F087FA00F0F8
:103698004FFF00F00BFA052002F0B6FB00F0E0F94E
:1036A800D02000F07BFA00F043FF192000F076FAF2
:1036B80000F03EFF002000F071FA00F039FF00F042
:1036C800F5F9052002F0A0FB00F0CAF9D02000F0BF
:1036D80065FA00F02DFF1A2000F060FA00F028FFCC
:1036E800002000F05BFA00F023FF00F0DFF905206E
:1036F80002F08AFB00F0B4F9D02000F04FFA00F095
:1037080017FF1B2000F04AFA00F012FF002000F01B
:1037180045FA00F00DFF00F0C9F9052002F074FB2E
:1037280000F09EF9D02000F039FA00F001FF1C20CB
:1037380000F034FA00F0FCFE002000F02FFA00F050
:10374800F7FE00F0B3F9052002F05EFB00F088F9FF
:10375800D02000F023FA00F0EBFE372000F01EFA2C
:1037680000F0E6FE002000F019FA00F0E1FE00F09B
:103778009DF9052002F048FB00F072F9D02000F016
:103788000DFA00F0D5FE382000F008FA00F0D0FE5F
:10379800002000F003FA00F0CBFE00F087F90520C6
:1037A80002F032FB002010BD4FF0FF3010BD00BF0B
:1037B80070B5224C00230E462360054600F050F9F0
:1037C800D02000F0EBF900F0B3FE206800B170BD26
:1037D800E8B200F0E3F900F0ABFE21680029F6D169
:1037E80000F064F900F03CF9D12000F0D7F900F0BE
:1037F8009FFE2268002AEAD100F026FB307000F014
:103808007DF900F021FB707000F078F900F01CFBE6
:10381800B07000F073F900F017FBF07000F06EF96B
:1038280000F012FB307100F069F900F00DFB7071C7
:1038380000F08CF9BDE8704000F038B95C17002042
:1038480010B582B0044669463B20FFF7B1FF114B23
:103858001868E8B99DF800109DF8012042EA012394
:1038680018B2FDF741FA9DF802109DF80320206078
:1038780042EA012000B2FDF737FA9DF804109DF8DE
:103888000530606043EA012210B2FDF72DFAA0600E
:1038980002B010BD5C17002010B582B0044669461E
:1038A8004320FFF785FF244B1868002841D19DF875
:1038B80001109DF8002041EA0223204A18B2138023
:1038C800FDF712FA1E490968FDF758F948F6FA514A
:1038D800C4F2EA51FDF710FB9DF803309DF8022071
:1038E800206043EA0221174A08B21180FDF7FCF96B
:1038F800154B1968FDF742F948F6FA51C4F2EA5136
:10390800FDF7FAFA9DF805209DF80410606042EA78
:1039180001230E4918B20B80FDF7E6F90C4A11682D
:10392800FDF72CF948F6FA51C4F2EA51FDF7E4FA2A
:10393800A06002B010BD00BF5C170020440A002040
:10394800480A00203C0A00204C0A0020460A0020B1
:10395800400A00202DE9F04F394EDFF8F0A0394D2C
:10396800DFF8EC90384CDFF8EC8087B0002703A82C
:10397800FFF792FFBAF90000FDF7B6F93168FDF7D5
:10398800FFF83060B9F90000FDF7AEF92968FDF7D6
:10399800F7F82860B8F90000FDF7A6F92168FDF7E7
:1039A800EFF82060022002F02FFA03A8FFF774FF57
:1039B800BAF90000FDF798F93168FDF7E1F83060D1
:1039C800B9F90000FDF790F92968FDF7D9F82860E2
:1039D800B8F90000FDF788F92168FDF7D1F801373B
:1039E800FFB22060022002F00FFA781CC7B2642FE1
:1039F800DFF84CB0134A144BB9D10021DBF80000B2
:103A0800C4F2C82101920093FDF776FACBF80000C2
:103A180001980021C4F2C8210068FDF76DFA019AE7
:103A2800009B00211060C4F2C8211868FDF764FAF1
:103A380000990860052002F0E7F907B0BDE8F08FAB
:103A4800480A00204C0A0020400A0020440A0020AE
:103A58003C0A0020460A0020012002F0CDB900BF30
:103A680010B54FF44064C4F20104204601224FF41B
:103A78000061FEF7EBF8204601224FF48061FEF763
:103A8800E5F8FFF7E9FF204600224FF40061FEF752
:103A9800DDF8FFF7E1FF20464FF480610022FEF7D2
:103AA800D5F8BDE81040FFF7D7BF00BF10B54FF4F9
:103AB8004064C4F20104204600224FF48061FEF7FE
:103AC800C5F8FFF7C9FF204600224FF40061FEF752
:103AD800BDF8FFF7C1FF204601224FF48061FEF7D1
:103AE800B5F8FFF7B9FF20464FF400610122FEF751
:103AF800ADF8BDE81040FFF7AFBF00BF10B54FF4F9
:103B08004064C4F20104204600224FF48061FEF7AD
:103B18009DF8FFF7A1FF204600224FF40061FEF751
:103B280095F8FFF799FF204601224FF48061FEF7D0
:103B38008DF8FFF791FF20464FF480610022FEF7D1
:103B480085F8BDE81040FFF787BF00BF10B54FF4F8
:103B58004064C4F20104204600224FF48061FEF75D
:103B680075F8FFF779FF204601224FF40061FEF750
:103B78006DF8FFF771FF204601224FF48061FEF7D0
:103B880065F8FFF769FF20464FF480610022FEF7D1
:103B98005DF8BDE81040FFF75FBF00BF10B50446F1
:103BA8004FF44060C4F201004FF480610022FEF738
:103BB8004DF8FFF751FF4FF440602206C4F20100B0
:103BC8004FF4006100F120810022FEF73FF8600009
:103BD800C4B2FFF741FF4FF440600122C4F2010074
:103BE8004FF48061FEF732F8FFF736FF4FF440607C
:103BF800C4F201004FF480610022FEF727F8FFF7B6
:103C08002BFF4FF440602306C4F201004FF400611B
:103C180000F1FE800022FEF719F86100CCB2FFF730
:103C28001BFF4FF440600122C4F201004FF4806191
:103C3800FEF70CF8FFF710FF4FF44060C4F20100E4
:103C48004FF480610022FEF701F8FFF705FF4FF4FB
:103C580040602206C4F201004FF4006100F1DC80EC
:103C68000022FDF7F3FF6200D4B2FFF7F5FE4FF430
:103C780040600122C4F201004FF48061FDF7E6FFC5
:103C8800FFF7EAFE4FF44060C4F201004FF4806190
:103C98000022FDF7DBFFFFF7DFFE4FF4406023064D
:103CA800C4F201004FF4006100F1BA800022FDF770
:103CB800CDFF6300DCB2FFF7CFFE4FF44060012276
:103CC800C4F201004FF48061FDF7C0FFFFF7C4FEA6
:103CD8004FF44060C4F201004FF480610022FDF708
:103CE800B5FFFFF7B9FE4FF440602206C4F20100A9
:103CF8004FF4006100F198800022FDF7A7FF6000F3
:103D0800C4B2FFF7A9FE4FF440600122C4F20100DB
:103D18004FF48061FDF79AFFFFF79EFE4FF4406075
:103D2800C4F201004FF480610022FDF78FFFFFF716
:103D380093FE4FF440602306C4F201004FF4006183
:103D480076D40022FDF782FF6100CCB2FFF784FE33
:103D58004FF440600122C4F201004FF48061FDF786
:103D680075FFFFF779FE4FF44060C4F201004FF48D
:103D780080610022FDF76AFFFFF76EFE4FF4406096
:103D88002206C4F201004FF4006155D40022FDF769
:103D98005DFFFFF761FE4FF440600122C4F20100AD
:103DA8004FF48061FDF752FFFFF756FE4FF4406075
:103DB800C4F201004FF480610022FDF747FFFFF7CE
:103DC8004BFE4FF440606306C4F201004FF40061FB
:103DD80036D40022FDF73AFFFFF73EFE4FF440606D
:103DE8000122C4F201004FF48061FDF72FFFFFF7B5
:103DF80033FE4FF44060C4F201004FF480610022AA
:103E0800BDE81040FDF722BF0122FDF71FFFDEE6E7
:103E18000122FDF71BFF00E70122FDF717FF22E74C
:103E28000122FDF713FF44E70122FDF70FFF66E7C4
:103E38000122FDF70BFF87E70122FDF707FFA8E73F
:103E48000122FDF703FFC7E74FF440602DE9F04773
:103E58000122C4F201004FF40061FDF7F7FE4FF4B0
:103E680040600022C4F201004FF48061FDF7EEFECD
:103E7800FFF7F2FD4FF440600122C4F201004FF455
:103E88008061FDF7E3FE4FF440604FF40061C4F237
:103E98000100FDF7D1FE04464FF440604FF4006185
:103EA800C4F20100FDF7C8FE07464FF440604FF426
:103EB8000061C4F20100FDF7BFFE81464FF4406087
:103EC8004FF40061C4F20100FDF7B6FE80464FF4DE
:103ED80040604FF40061C4F20100FDF7ADFE0646F4
:103EE8004FF440604FF40061C4F20100FDF7A4FEF6
:103EF80005464FF440604FF40061C4F20100FDF73D
:103F08009BFE09EB0803D9198A1957193E184FF473
:103F180040604FF40061C4F20100FDF78DFE3419D2
:103F280004F0FF052B184FF44060DFB20022C4F202
:103F380001004FF48061032F8CBF02241446FDF763
:103F480085FEFFF789FD4FF440600122C4F20100AD
:103F58004FF48061FDF77AFE4FF440604FF4006142
:103F6800C4F20100FDF768FE05464FF440604FF4C7
:103F78000061C4F20100FDF75FFE81464FF4406026
:103F88004FF40061C4F20100FDF756FE82464FF47B
:103F980040604FF40061C4F20100FDF74DFE804619
:103FA8004FF440604FF40061C4F20100FDF744FE95
:103FB80007464FF440604FF40061C4F20100FDF77A
:103FC8003BFE06464FF440604FF40061C4F2010026
:103FD800FDF732FE0AEB090101EB0802D3199F191C
:103FE8003E184FF440604FF40061C4F20100FDF741
:103FF80023FE751905F0FF073818C1B2032988BFD9
:1040080044F001044FF4406088BFE4B2C4F20100F8
:1040180000224FF48061FDF719FEFFF71DFD4FF4F4
:1040280040600122C4F201004FF48061FDF70EFEEA
:104038004FF440604FF40061C4F20100FDF7FCFD4D
:1040480005464FF440604FF40061C4F20100FDF7EB
:10405800F3FD81464FF440604FF40061C4F2010063
:10406800FDF7EAFD82464FF440604FF40061C4F268
:104078000100FDF7E1FD80464FF440604FF4006118
:10408800C4F20100FDF7D8FD07464FF440604FF435
:104098000061C4F20100FDF7CFFD06464FF4406011
:1040A8004FF40061C4F20100FDF7C6FD0AEB0902F6
:1040B80002EB0803D9198F193E184FF440604FF4EA
:1040C8000061C4F20100FDF7B7FD751905F0FF079F
:1040D8003818C2B26400032A84BF44F00104E4B271
:1040E8004FF4406063000022C4F201004FF4806185
:1040F800DCB2FDF7ABFDFFF7AFFC4FF440600122E7
:10410800C4F201004FF48061FDF7A0FD4FF4406058
:104118004FF40061C4F20100FDF78EFD05464FF42F
:1041280040604FF40061C4F20100FDF785FD81464F
:104138004FF440604FF40061C4F20100FDF77CFDCC
:1041480082464FF440604FF40061C4F20100FDF76D
:1041580073FD80464FF440604FF40061C4F20100E3
:10416800FDF76AFD07464FF440604FF40061C4F262
:104178000100FDF761FD06464FF440604FF4006111
:10418800C4F20100FDF758FD0AEB090101EB080232
:10419800D3199F193E184FF440604FF40061C4F2E0
:1041A8000100FDF749FD751905F0FF073818C1B280
:1041B80003294FF4406088BF44F00104C4F20100B1
:1041C80000224FF48061FDF741FDFFF745FC4FF4F5
:1041D80040600122C4F201004FF48061FDF736FD12
:1041E8004FF440604FF40061C4F20100FDF724FD74
:1041F80005464FF440604FF40061C4F20100FDF73A
:104208001BFD81464FF440604FF40061C4F2010089
:10421800FDF712FD82464FF440604FF40061C4F28E
:104228000100FDF709FD80464FF440604FF400613E
:10423800C4F20100FDF700FD07464FF440604FF45B
:104248000061C4F20100FDF7F7FC06464FF4406038
:104258004FF40061C4F20100FDF7EEFC0AEB09021D
:1042680002EB0803D9198F193E184FF440604FF438
:104278000061C4F20100FDF7DFFC751905F0FF07C6
:104288003818C2B26400E4B2032A4FF4406088BF11
:1042980044F00104C4F2010000224FF48061FDF7EC
:1042A800D5FCFFF7D9FB4FF440600122C4F20100AE
:1042B8004FF48061FDF7CAFC4FF440604FF4006191
:1042C800C4F20100FDF7B8FC05464FF440604FF416
:1042D8000061C4F20100FDF7AFFC81464FF4406075
:1042E8004FF40061C4F20100FDF7A6FC82464FF4CA
:1042F80040604FF40061C4F20100FDF79DFC804668
:104308004FF440604FF40061C4F20100FDF794FCE3
:1043180007464FF440604FF40061C4F20100FDF716
:104328008BFC06464FF440604FF40061C4F2010074
:10433800FDF782FC0AEB090303EB0801CA19971978
:104348003E184FF440604FF40061C4F20100FDF7DD
:1043580073FC751905F0FF073818C3B26400E4B29E
:10436800032B4FF4406088BF44F00104C4F20100FD
:1043780000224FF48061FDF769FCFFF76DFB4FF4F5
:1043880040600122C4F201004FF48061FDF75EFC39
:104398004FF440604FF40061C4F20100FDF74CFC9B
:1043A80005464FF440604FF40061C4F20100FDF788
:1043B80043FC81464FF440604FF40061C4F20100B1
:1043C800FDF73AFC82464FF440604FF40061C4F2B6
:1043D8000100FDF731FC80464FF440604FF4006166
:1043E800C4F20100FDF728FC07464FF440604FF483
:1043F8000061C4F20100FDF71FFC06464FF440605F
:104408004FF40061C4F20100FDF716FC0AEB090144
:1044180001EB0802D3199F193E184FF440604FF47E
:104428000061C4F20100FDF707FC751905F0FF07EC
:104438003818C1B26400E4B203294FF4406088BF61
:1044480044F00104C4F2010000224FF48061FDF73A
:10445800FDFBFFF701FB4FF440600122C4F20100AD
:104468004FF48061FDF7F2FB4FF440604FF40061B8
:10447800C4F20100FDF7E0FB05464FF440604FF43D
:104488000061C4F20100FDF7D7FB81464FF440609C
:104498004FF40061C4F20100FDF7CEFB82464FF4F1
:1044A80040604FF40061C4F20100FDF7C5FB80468F
:1044B8004FF440604FF40061C4F20100FDF7BCFB0B
:1044C80007464FF440604FF40061C4F20100FDF765
:1044D800B3FB06464FF440604FF40061C4F201009C
:1044E800FDF7AAFB0AEB090202EB0803D9198A199E
:1044F80013184FF440604FF40061C4F201005D19D5
:10450800FDF79AFB05F0FF054019C1B26400E4B25B
:1045180003294FF4406088BF44F00104C4F201004D
:104528004FF480610022FDF791FB2046BDE8F0873B
:104538004FF4406008B50022C4F201004FF48061D6
:10454800FDF784FBFFF788FA4FF440600122C4F2BC
:1045580001004FF40061FDF779FBFFF77DFA4FF496
:1045680040600122C4F201004FF48061FDF76EFB48
:10457800FFF772FA4FF44060C4F201004FF4006193
:10458800FDF75AFB01280AD04FF44060C4F201003D
:104598004FF480610022BDE80840FDF757BB044B8B
:1045A800186001F0F9FB03480268511C0160EBE751
:1045B8005C1700205817002010B5084C23685A1CB7
:1045C800B3F57A7F226008DD01F0DAFB00F0CAFC5F
:1045D8005720FDF74BFF0020206010BD540A002033
:1045E80008B5012142F67D20FDF704FC0F200121CA
:1045F800C0F20800FDF70CFC01200146BDE80840A8
:10460800FDF7EABB40F65023C2F200031868704772
:1046180010B501F0E7F9FFF7E3FF00F083F962B6A0
:10462800FDF72EFF4648FDF7B5FE4648FDF7B2FEFA
:1046380000F0C6FC142401F0A3FB01F0BDFB6420CC
:1046480001F0E2FB013C01F09BFB01F0B5FB6420AB
:1046580001F0DAFB013CEED102F0CAFC002860D080
:104668003948FDF797FE40F6B83001F0CDFB02F06F
:10467800BFFC012860D03548FDF78CFE3448354929
:10468800FDF788FE344A4FF48053C4F202031868D9
:104698004DF683611368C4F21B3110F4003FA1FB8F
:1046A800030114BF2D482E48890CFDF773FE2D48D1
:1046B800FDF770FEFDF718FE2B48FDF76BFE04E0D2
:1046C8002A48FDF767FE01F083FBFEF77FFF00280D
:1046D800F6D12748FDF75EFEFEF732F801F060F9E3
:1046E80001462448FDF756FEFFF734F92248FDF746
:1046F80051FE00F0F7FC2148FDF74CFEFEF788FB61
:10470800FEF724FFFDF792FE002802DD1C48FDF7A6
:1047180041FE1C48FDF73EFE1B48BDE8104001F075
:104728005BB91A48FDF736FE40F6B83001F06CFB6D
:104738001748FDF72FFE9EE71648FDF72BFE9AE770
:10474800C8DF0008ECDF000800E00008B4E000085B
:1047580008E1000844DD00084400002040E10008AA
:1047680078E10008B4E10008C4E10008D8E10008D5
:10477800FCE1000810E2000834E2000844E2000806
:1047880058E2000894E20008C145000850E000081B
:1047980080E000081CE000082DE9F84FFFF738FF1B
:1047A80001F0FEF8044601F0FBF88442FBD001F06A
:1047B800CBF8054672B64FF0000840F2F31601F048
:1047C800C3F8401BB04208F10108F8D962B601F0FD
:1047D800BBF8DFF890B0DFF890A005464FEA48082C
:1047E800002740F2CF76002401F0AEF88146401B46
:1047F8000134B042F8D9FCF773FA05462046FCF7B5
:1048080073FA0021C4F2C821FCF7C2FA0021C4F2ED
:104818007A41FCF7BDFA2946FCF76EFB0446404690
:10482800FCF762FA01462046FCF766FBDAF800203E
:10483800CBF800008AB94FF41051C4F67411284619
:10484800FCF75AFBFEF754FC40F65423C2F200036F
:104858001F604D46FDF728FEC5E700F083FB01F019
:10486800B7FAF1E7500A0020140F0020012830B4ED
:1048780009D002281AD0174B09221A604FF0FF32CC
:10488800104630BC7047002AFADD4FF49844881867
:10489800C4F20004238803F040039BB2002BF9D034
:1048A80011F8013B8142A380F4D1E9E7002AE7DD52
:1048B8004FF498448D18C4F20004208800F0400397
:1048C80098B20028F9D011F8013BA942A380F4D18D
:1048D800D6E700BF541A00200D4A08B513689BB1EB
:1048E800EFF308811818884202D81060184608BDEE
:1048F800192202200749FFF7B9FF074B0C221A605B
:104908004FF0FF33184608BD044B1360E8E700BFBB
:10491800580A0020ACE20008541A0020581A002057
:10492800704700BF2DE9F04F4FF4006783B0C4F221
:1049380001074FF4406618250224C4F201064FF41B
:10494800E063384601A9ADF804308DF807508DF8BA
:104958000640FDF73FF84FF46042304601A9ADF834
:1049680004208DF807508DF80640FDF733F84FF412
:1049780080504FF4E07B01A9C4F20100ADF804B007
:104988008DF807508DF80640FDF724F88023384647
:1049980001A94FF00308ADF804308DF807508DF8E1
:1049A8000640FDF717F8304601A9ADF804808DF8E8
:1049B80007508DF80640FDF70DF80722384601A983
:1049C800ADF804208DF807508DF80640FDF702F881
:1049D800304601A94FF0100AADF804B08DF8075021
:1049E8008DF80640FCF7F6FF4FF48053304601A9D6
:1049F800ADF804308DF807A08DF80680FCF7EAFFC3
:104A08000822384601A9ADF804208DF807A08DF8D2
:104A18000680FCF7DFFF4FF440631422304601A9FB
:104A2800C146ADF804308DF807208DF80680FCF7F4
:104A3800D1FF03B0BDE8F08F38B504460D46FDF749
:104A48006FFA20462946FDF7C7FA20462946FDF7A2
:104A58000DFB20460821FDF785FB20460821FDF7C0
:104A680089FB20460821BDE83840FDF78DBB00BF13
:104A780070B58CB00024032201A94FF47A7605465C
:104A8800ADF80420ADF80860ADF80640ADF80A406E
:104A98008DF80C40FDF7D8F940F23000C2F2000062
:104AA80003684FF40062ADF810204FF480624FF4B1
:104AB8008076284604A9ADF81220ADF816304FF4D8
:104AC80080424FF40053ADF81A30ADF81C20ADF811
:104AD8001460ADF81840FDF713FB6023ADF82030E3
:104AE80001220423284608A9ADF82220ADF8243075
:104AF800ADF82640ADF82840ADF82A40ADF82C6056
:104B0800ADF82E40FFF798FF0CB070BD70B50323C9
:104B180088B006460D46002401A9ADF804304FF4CC
:104B28007A724FF40073ADF80820ADF80A30ADF88A
:104B38000640FDF789F960220123304604A9ADF843
:104B48001020ADF81230ADF81640ADF81850FFF748
:104B580073FF08B070BD00BF00B583B000238DF8A7
:104B68000400012101A88DF805308DF806308DF874
:104B78000710FCF719FE03B000BD00BF124A30B49D
:104B880013680468C3F5FA714900E31A8B42A8BF99
:104B98000B46036014684568A342B8BF002303604E
:104BA80013688468EA1AE41A8A42A8BF0A468C4243
:104BB800B8BF21469A42B8BF00228B42C8BF002125
:104BC8004260816030BC704728000020F8B5364B41
:104BD80005461C680E46204600211746FCF78AFA4F
:104BE800002858D040F6DB71C4F2C9012046FCF712
:104BF80083F94FF08941FCF7CBF801F015F9FCF780
:104C08008DFA40F2FF33C8F200030340002B44DB67
:104C1800002BB8BF03F5806303F2551603F2AB24EB
:104C28002248B105A2058E0D940D30F9131030F904
:104C3800163030F9140007EB870707FB00F207FB73
:104C480001F107FB03F301F57F51032403F57F53BB
:104C580002F57F523F31C8F201043F333F3284FBF3
:104C6800010684FB037084FB0274C018CF17DB179E
:104C7800A4187618D217C7EBA631C3EBA037C2EB3E
:104C8800A43001F5FA7107F5FA7300F5FA7285E8B0
:104C98000A00AA60F8BD3446A4E7581E6FEA80519E
:104CA8006FEA9152531CB3E724000020580F0020EC
:104CB80000B5034685B00A4601A81946FFF786FFE6
:104CC80072B640F65C20019A0299039BC2F200007A
:104CD80002604160836062B672B64FF45050C4F20D
:104CE8000100028A22F001010B041A0C0121028240
:104CF800818162B605B000BD00B5034685B00A469D
:104D080001A81946FFF762FF72B640F66820019ABB
:104D18000299039BC2F2000002604160836062B6A0
:104D280072B64FF43050C4F20100028A22F0010139
:104D38000B041A0C01210282818162B605B000BD04
:104D480000B585B00A46014601A8FFF73FFF01A854
:104D5800FFF714FF72B640F67423019A029803997C
:104D6800C2F200031A605860996062B640F22C03E0
:104D7800C2F2000300221A6072B64FF44060C4F217
:104D88000000018A21F001031A04110C0123018299
:104D9800838162B605B000BD4FF44063C4F20003DE
:104DA8001A8AF0B4D2071AD5188A20F001010C0427
:104DB800220C1A8272B6294A294994689B8C886801
:104DC80001349BB29460274A8342C8BF8B609168C4
:104DD8008B42B8BF9360B3F5487F02D362B6F0BC8C
:104DE80070472148036833BB204E214D37682C8813
:104DF800A88829897A0093B21F191E185D184FF4E4
:104E080000624FF44063C4F20002C4F20003BFB270
:104E1800B6B2ADB29786168795879C86188799870C
:104E28004FF44062C4F20002938923F001000104A8
:104E38000B0C9381D2E74FF400624FF44063C4F245
:104E4800000240F2E930C4F2000300219086108786
:104E58009087998619879987E2E700BF781700201D
:104E6800601700206C1700202C000020280000206C
:104E7800740A00204FF43052C4F20102138A10B4AD
:104E880023F0010001040C0C148272B61349144873
:104E9800938C4C6842689BB201349342C8BF43600C
:104EA80010484C6041688B42B8BF4360B3F5487FF7
:104EB80010D20D4A4FF43053108891881289C4F2E9
:104EC8000103988619879A87988920F001010A04B6
:104ED800100C988162B610BC704700BF781700208C
:104EE800601700206C170020680A00204FF4505209
:104EF800C4F20102138A10B423F0010001040C0C5F
:104F0800148272B613491448938C0C6802689BB2D9
:104F180001349342C8BF036010480C6001688B429B
:104F2800B8BF0360B3F5487F10D20D4A4FF4505311
:104F3800108891881289C4F20103988619879A8784
:104F4800988920F001010A04100C988162B610BCFF
:104F5800704700BF78170020601700206C170020EA
:104F68005C0A002010B54120FDF780FA72B640F6C1
:104F78005C22C2F20002002313605360936062B6A1
:104F880072B640F66820C2F2000003604360836096
:104F980062B640F22C024FF440644FF430504FF4A4
:104FA80050510123C2F20002C4F20004C4F201000D
:104FB800C4F201011360A38183818B8110BD00BFFE
:104FC8002DE9F0414FF43056C4F2010641F27871F0
:104FD80041F2607241F26C734FF450550024C2F2F2
:104FE8000002C2F20003C2F2000140F2E937304683
:104FF800C4F201054FF440689460546014609F60E7
:105008005F601F608C604C600C60C4F20008FFF7A2
:105018002FFD4FF400672846FFF72AFDC4F200076A
:1050280040462146FFF772FD02213846FFF76EFD24
:1050380040F22800C2F200000388322003F5A8716C
:1050480003F29F2289B292B2BB84B184AA84FFF78B
:1050580083FD1920FFF780FD2C20FFF77DFD72B638
:105068004FF400402146024603460124C4F225229B
:10507800C4F22623C4F20120C4F2012104600C60AA
:105088004046146021461C60FDF75CF8384621460E
:10509800FDF758F830462146FDF754F828462146D2
:1050A800FDF750F862B6BDE8F08100BF10B54FF4C7
:1050B800806484B0C4F200044722002301A920467A
:1050C800ADF804204FF6FF72ADF80630ADF80820B1
:1050D800ADF80A30FCF7B8FE20460121FDF724F8A8
:1050E80004B010BD30B585B072B64FF40070012120
:1050F800C0F23000FCF7B4FD04244FF4006003252F
:105108000DEB04014FF40043C4F20100ADF8043084
:105118008DF807408DF80650FCF75CFC4FF44060B2
:10512800182228230DEB0401C4F20100ADF8042075
:105138008DF807308DF80650FCF74CFC4FF4805082
:105148000DEB0401C4F20100ADF80440FCF742FC89
:1051580029460120FCF7C0FD21460120FCF7BCFDD3
:1051680002200146FCF7B8FD1C240021102201236F
:1051780002A88DF80C108DF80D208DF80E300294D1
:10518800FCF7CCFB2046FCF707FC2046FCF71CFC90
:105198004FF46140CEF200004FF400714FF480628A
:1051A8004FF48073016002600360FFF77FFF62B60F
:1051B80005B030BD10B50820FCF7F6FB00B910BDEE
:1051C8003320FDF753F94FF440600821C4F2010081
:1051D800FCF732FD012827D0174C4FF44060C4F289
:1051E80001000821FCF728FDA8B114490888228885
:1051F8006FF47A71831A98B2421893B240F2E6318A
:105208008B4203D80E4AA0F57A7010600820BDE8DA
:105218001040FCF7D9BB4FF48062C4F20002938CB3
:10522800064998B20880E2E74FF48063C4F20003AD
:10523800988C014C2080D0E79A0A0020940A00201C
:10524800880A002010B50420FCF7AEFB00B910BD99
:105258003220FDF70BF94FF480500421C4F201000D
:10526800FCF7EAFC012827D0174C4FF48050C4F211
:1052780001000421FCF7E0FCA8B114490888228841
:105288006FF47A71831A98B2421893B240F2E631F9
:105298008B4203D80E4AA0F57A7010600420BDE84E
:1052A8001040FCF791BB4FF48062C4F20002938C6B
:1052B800064998B20880E2E74FF48063C4F200031D
:1052C800988C014C2080D0E7960A00208C0A002098
:1052D800840A002010B51020FCF766FB00B910BD49
:1052E8003420FDF7C3F84FF440601021C4F20100E8
:1052F800FCF7A2FC012827D0174C4FF44060C4F2F9
:1053080001001021FCF798FCA8B1144908882288EC
:10531800831A9BB26FF47A70191888B240F2E63299
:10532800904203D80E49A3F57A730B601020BDE8AC
:105338001040FCF749BB4FF48062C4F20002938C22
:10534800064998B20880E2E74FF48063C4F200038C
:10535800988C014C2080D0E7980A0020800A002011
:10536800900A00202DE9F843584B05460C4658484A
:105378005849D3F8008007680E68B8F1000F00F0AC
:105388008F800021C4F247316068FBF701FD814638
:105398004046FBF7A9FC0021C4F2FA31FBF7EEFB0B
:1053A80001464846FBF7ECFB0021C4F24831FBF705
:1053B800A3FD00216060C4F2A0118046FBF7A4FEA3
:1053C800002865D041F26F214046C3F60331FBF750
:1053D800DFFC6860002F67D00021C4F247312068E5
:1053E800FBF7D6FC80463846FBF77EFC0021C4F26A
:1053F800FA31FBF7C3FB01464046FBF7C1FB00212E
:10540800C4F24831FBF778FD00212060C4F2A011F6
:105418000746FBF779FE00284ED041F26F21384647
:10542800C3F60331FBF7B4FC2860002E40D00021FE
:10543800C4F24731A068FBF7ABFC07463046FBF7E0
:1054480053FC0021C4F2FA31FBF798FB01463846B9
:10545800FBF796FB0021C4F24831FBF74DFD002114
:10546800A060C4F2A0110646FBF74EFE30B9002139
:105478003046CCF2A011FBF729FEC8B141F26F21EA
:105488003046C3F60331FBF783FCA860BDE8F88318
:1054980000214046CCF2A011FBF718FE002891D15C
:1054A80000226A60002F97D100232B60002EBED106
:1054B8000020A860BDE8F88300213846CCF2A0118E
:1054C800FBF704FE0028EFD0A7E700BF880A0020FA
:1054D800840A0020900A00204FF46D430422CEF283
:1054E8000003C0F2FA52DA6000BFFDE708B5134BBB
:1054F800B3F1006F00D108BD4FF48052C4F202022C
:10550800D1694FF4E04041F0C053D361C4F20000C8
:1055180001684FF4D84241F480730360C4F200027A
:1055280046F6B43144F6FC23A2F8B810A2F8BC3011
:10553800026822F480710160FFF7CEFF00000008C6
:1055480000230360C0F80C1243608360704700BFFB
:105558004FF40070704700BF4268036840F2FF10C4
:10556800D11A01F50072C8F200001040002800DBD3
:10557800704701386FEAC0536FEAD351481C70472F
:1055880038B542B340F2FF1501E0AB4213D144688D
:10559800026840F2FF13A21A02F50072C8F2000373
:1055A8001340002BF1DA013B6FEAC3526FEAD25382
:1055B8000133AB42EBD043684268C318197340F219
:1055C800FF118A421BD04268531C4360D0F80C027A
:1055D80000B1804738BD4468026840F2FF13A21A40
:1055E80002F50072C8F200031340002B0ADB40F2F8
:1055F800FF129342DFD181684B1C836038BD0021C4
:105608004160E3E7013B6FEAC3526FEAD2530133CB
:1056180040F2FF129342CED1EDE700BFF8B5044641
:105628000E461546002B34D040F2FF1702E0E8186A
:10563800B84214DD6068216840F2FF13421A02F58F
:105648000070C8F200030340002BF0DA013B6FEA58
:10565800C3516FEAD152531CE818B842EADC6768B4
:105668006268C7F50077BD42314604EB020028DDC9
:105678003A46ED1B0C3003F009FC04F10C00F1195B
:105688002A4603F003FC6560D4F80C1201B1884780
:10569800F8BD4168026840F2FF13881A00F50071EE
:1056A800C8F200030B40002B18DBE918B1F5007FA6
:1056B800D5DBA268D4F80C125519A5600029E6D1EB
:1056C800E6E70C302A4603F0E1FB61684B19B3F5B5
:1056D800007F0ED0606845196560D5E7013B6FEA29
:1056E800C3526FEAD250431CE918B1F5007FB6DB0C
:1056F800DFE700226260C7E701684268034691421B
:105708000ED0006819681A18107B40F2FF129142F7
:1057180003D019684A1C1A60704700211960704745
:105728004FF0FF30704700BF704700BFFEE700BF73
:10573800FEE700BFFEE700BFFEE700BF704700BFFF
:10574800704700BF704700BF01F06EBC4FF4802067
:10575800FCF73AB910B5044600F0F6F8206060602E
:1057680010BD00BF10B5044600F0EEF86368606035
:10577800C01A10BD05C8101A704700BF4FF48053F7
:10578800C4F202035A6802F00C00082811D04FF442
:105798009052C0F27A024FF48053C4F20203586860
:1057A8001049C0F30313C85C0F4B22FA00F21A60C9
:1057B800704758685968C0F383420232C90309D553
:1057C8005B689B0306D44FF49050C0F27A0000FB4C
:1057D80002F2E0E74FF41061C0F23D0101FB02F272
:1057E800D9E700BF34000020440000204FF4805364
:1057F800C4F20203196800B541F001001860596845
:105808000022CFF6FF020A405A601A68002122F0EF
:10581800847020F480321A60186883B020F48022E3
:105828001A6058681A4620F4FE0058604FF41F00AA
:10583800986000910191196841F48030186003E084
:105848000098B0F5A06F09D0136803F400310191F6
:105858000098431C009301990029F1D04FF480521D
:10586800C4F20202136813F400314CD001200190F5
:105878004FF40052C4F20202019B1168012B41F05F
:105888001000106011684FF4805321F0030010607D
:105898001068C4F2020340F0020010605A6819460A
:1058A8005A60586858605A6842F4806058605A686C
:1058B80022F47C1058605A6827D042F4601058606F
:1058C8001A6842F0807018600A684FF4805390019B
:1058D800C4F20203F8D55968184621F003025A6049
:1058E800596841F002025A60436803F00C01082924
:1058F800FAD1FFF743FF4FF46D40124ACEF2000091
:10590800826003B000BD0191B2E742F4E81058602C
:105918001A6842F0807018600A684FF48053920148
:10592800C4F20203F8D55968184621F003025A60F8
:10593800596841F002025A60436803F00C010829D3
:10594800FAD1D8E70000000830B413494EF2100429
:10595800CEF200044EF210020B68CEF20002A568E7
:1059680000BF00BF08688342F4D11168C90348BF6B
:1059780095684EF21002CEF200025068074A48BFFE
:105988000133411C10684D1BB5FBF0F54FF47A71DB
:1059980001FB035030BC70479C0A002048000020DF
:1059A80040F69C23C2F200031868704708B572B627
:1059B800074B4EF21002CEF2000212681868411C22
:1059C800196062B6034B1A6802B1904708BD00BF60
:1059D8009C0A0020A00A002040F6A023C2F200037F
:1059E80018607047134B44F6D3511A68C1F262012C
:1059F8004DF68363A1FB0201C4F21B33A3FB020231
:105A08008809930C411E0C4AB1F1807F13600FD2B4
:105A18004EF21000CEF200004FF46D434160CEF21A
:105A28000003F02183F8231000220723826003601B
:105A3800704700BF44000020480000204FF4984001
:105A4800C4F2000040F227710122FCF731BC00BF0C
:105A580000B54FF4A06083B0FBF79CFE012334220D
:105A6800002101A88DF804208DF805308DF8061066
:105A78008DF80730FBF798FE03B000BD40F6B44040
:105A8800C2F20000FFF738BE08B50348FFF764FD0F
:105A98000028FAD108BD00BFA40A0020014640F63C
:105AA800A420C2F200000122FFF76ABD10B5044627
:105AB800007828B1FFF7F2FF14F8010F0028F9D198
:105AC80010BD00BF4FF49843C4F2000370B52A4AD2
