:020000040800F2
:1000000000C00020A9160008B1510008B551000831
:10001000B9510008BD510008C1510008000000009E
:10002000000000000000000000000000C5510008B2
:10003000C951000800000000CD51000835540008E7
:10004000F9160008F9160008F9160008F916000854
:10005000F9160008F9160008F9160008F916000844
:10006000F91600088D4E0008314F0008F9160008F7
:10007000F9160008F9160008F9160008F916000824
:10008000F9160008F9160008F9160008F916000814
:10009000D1510008F9160008F9160008F9160008F1
:1000A000F91600088D4B0008F9160008F91600082B
:1000B000F9160008F9160008F9160008F9160008E4
:1000C000F9160008F9160008F9160008F9160008D4
:1000D000F9160008F9160008F9160008F9160008C4
:1000E000F9160008F9160008D5510008F91600089D
:1000F000054C0008F9160008F9160008F916000862
:10010000F9160008F9160008B14A0008F9160008A7
:1001100019550008F9160008F9160008F916000824
:10012000F9160008F9160008F9160008F916000873
:1001300000000000000000000000000000000000BF
:1001400000000000000000000000000000000000AF
:10015000000000000000000000000000000000009F
:10016000000000000000000000000000000000008F
:10017000000000000000000000000000000000007F
:10018000000000000000000000000000000000006F
:10019000000000000000000000000000000000005F
:1001A000000000000000000000000000000000004F
:1001B000000000000000000000000000000000003F
:1001C000000000000000000000000000000000002F
:1001D000000000000000000000000000000000001F
:0401E0005FF8E0F1F3
:1001E80081F0004102E000BF83F0004330B54FEAE0
:1001F80041044FEA430594EA050F08BF90EA020F4D
:100208001FBF54EA000C55EA020C7FEA645C7FEADF
:10021800655C00F0E2804FEA5454D4EB5555B8BF02
:100228006D420CDD2C4480EA020281EA030382EA73
:10023800000083EA010180EA020281EA0303362D05
:1002480088BF30BD11F0004F4FEA01314FF4801CD8
:100258004CEA113102D0404261EB410113F0004FEA
:100268004FEA03334CEA133302D0524263EB4303A1
:1002780094EA050F00F0A780A4F10104D5F1200E3F
:100288000DDB02FA0EFC22FA05F2801841F100019A
:1002980003FA0EF2801843FA05F359410EE0A5F16E
:1002A80020050EF1200E012A03FA0EFC28BF4CF09F
:1002B800020C43FA05F3C01851EBE37101F0004555
:1002C80007D54FF0000EDCF1000C7EEB00006EEB62
:1002D8000101B1F5801F1BD3B1F5001F0CD34908EC
:1002E8005FEA30004FEA3C0C04F101044FEA445243
:1002F80012F5800F80F09A80BCF1004F08BF5FEACA
:10030800500C50F1000041EB045141EA050130BDA9
:100318005FEA4C0C404141EB010111F4801FA4F14C
:100328000104E9D191F0000F04BF01460020B1FAA1
:1003380081F308BF2033A3F10B03B3F120020CDAD9
:100348000C3208DD02F1140CC2F10C0201FA0CF0B7
:1003580021FA02F10CE002F11402D8BFC2F1200C1C
:1003680001FA02F120FA0CFCDCBF41EA0C019040D2
:10037800E41AA2BF01EB0451294330BD6FEA04041B
:100388001F3C1CDA0C340EDC04F11404C4F1200206
:1003980020FA04F001FA02F340EA030021FA04F318
:1003A80045EA030130BDC4F10C04C4F1200220FA6F
:1003B80002F001FA04F340EA0300294630BD21FAAD
:1003C80004F0294630BD94F0000F83F4801306BF73
:1003D80081F480110134013D4EE77FEA645C18BF67
:1003E8007FEA655C29D094EA050F08BF90EA020FFE
:1003F80005D054EA000C04BF1946104630BD91EAF6
:10040800030F1EBF0021002030BD5FEA545C05D1F8
:100418004000494128BF41F0004130BD14F5800437
:100428003CBF01F5801130BD01F0004545F0FE41AB
:1004380041F470014FF0000030BD7FEA645C1ABFE0
:10044800194610467FEA655C1CBF0B46024650EA17
:10045800013406BF52EA033591EA030F41F4002143
:1004680030BD00BF90F0000F04BF0021704730B5C9
:100478004FF4806404F132044FF000054FF000019E
:1004880050E700BF90F0000F04BF0021704730B55F
:100498004FF4806404F1320410F0004548BF404234
:1004A8004FF000013EE700BF42004FEAE2014FEA89
:1004B80031014FEA02701FBF12F07F4393F07F4F64
:1004C80081F06051704792F0000F14BF93F07F4F96
:1004D800704730B54FF4607401F0004521F00041D9
:1004E80020E700BF50EA010208BF704730B54FF05F
:1004F80000050AE050EA010208BF704730B511F064
:10050800004502D5404261EB41014FF4806404F19B
:1005180032045FEA915C3FF4DCAE4FF003025FEA1D
:10052800DC0C18BF03325FEADC0C18BF033202EBA5
:10053800DC02C2F1200300FA03FC20FA02F001FAFF
:1005480003FE40EA0E0021FA02F11444C1E600BF9E
:1005580070B54FF0FF0C4CF4E06C1CEA11541DBF51
:100568001CEA135594EA0C0F95EA0C0F00F0DEF81C
:100578002C4481EA030621EA4C5123EA4C5350EA01
:10058800013518BF52EA033541F4801143F4801352
:1005980038D0A0FB02CE4FF00005E1FB02E506F0E3
:1005A8000042E0FB03E54FF00006E1FB03569CF038
:1005B800000F18BF4EF0010EA4F1FF04B6F5007F3E
:1005C80064F5407404D25FEA4E0E6D4146EB0606B0
:1005D80042EAC62141EA55514FEAC52040EA5E5039
:1005E8004FEACE2EB4F1FD0C88BFBCF5E06F1ED8E3
:1005F800BEF1004F08BF5FEA500E50F1000041EB1A
:10060800045170BD06F0004646EA010140EA0200C6
:1006180081EA0301B4EB5C04C2BFD4EB0C0541EAE8
:10062800045170BD41F480114FF0000E013C00F3FD
:10063800AB8014F1360FDEBF002001F0004170BD21
:10064800C4F10004203C35DA0C341BDC04F114043A
:10065800C4F1200500FA05F320FA04F001FA05F2C6
:1006680040EA020001F0004221F0004110EBD37093
:1006780021FA04F642EB06015EEA430E08BF20EABF
:10068800D37070BDC4F10C04C4F1200500FA04F362
:1006980020FA05F001FA04F240EA020001F00041F4
:1006A80010EBD37041F100015EEA430E08BF20EA67
:1006B800D37070BDC4F1200500FA05F24EEA020EAF
:1006C80020FA04F301FA05F243EA020321FA04F0DE
:1006D80001F0004121FA04F220EA020000EBD37095
:1006E8005EEA430E08BF20EAD37070BD94F0000F95
:1006F8000FD101F00046400041EB010111F4801FC9
:1007080008BF013CF7D041EA060195F0000F18BF79
:10071800704703F00046520043EB030313F4801FB5
:1007280008BF013DF7D043EA0603704794EA0C0F6F
:100738000CEA135518BF95EA0C0F0CD050EA410685
:1007480018BF52EA4306D1D181EA030101F0004102
:100758004FF0000070BD50EA410606BF104619462A
:1007680052EA430619D094EA0C0F02D150EA013636
:1007780013D195EA0C0F05D152EA03361CBF104677
:1007880019460AD181EA030101F0004141F0FE4116
:1007980041F470014FF0000070BD41F0FE4141F49A
:1007A800780170BD70B54FF0FF0C4CF4E06C1CEA9A
:1007B80011541DBF1CEA135594EA0C0F95EA0C0F4F
:1007C80000F0A7F8A4EB050481EA030E52EA03350A
:1007D8004FEA013100F088804FEA03334FF080552B
:1007E80045EA131343EA12634FEA022245EA111558
:1007F80045EA10654FEA00260EF000419D4208BF09
:10080800964244F1FD0404F5407402D25B084FEAB5
:100818003202B61A65EB03055B084FEA32024FF461
:1008280080104FF4002CB6EB020E75EB030E22BFBE
:10083800B61A754640EA0C005B084FEA3202B6EB7E
:10084800020E75EB030E22BFB61A754640EA5C002D
:100858005B084FEA3202B6EB020E75EB030E22BFBD
:10086800B61A754640EA9C005B084FEA3202B6EBBE
:10087800020E75EB030E22BFB61A754640EADC007D
:1008880055EA060E18D04FEA051545EA16754FEADF
:1008980006164FEAC30343EA52734FEAC2025FEAFD
:1008A8001C1CC0D111F4801F0BD141EA00014FF08C
:1008B80000004FF0004CB6E711F4801F04BF01435D
:1008C8000020B4F1FD0C88BFBCF5E06F3FF6AFAE79
:1008D800B5EB030C04BFB6EB020C5FEA500C50F109
:1008E800000041EB045170BD0EF0004E4EEA11318C
:1008F80014EB5C04C2BFD4EB0C0541EA045170BD93
:1009080041F480114FF0000E013C90E645EA060ED6
:100918008DE60CEA135594EA0C0F08BF95EA0C0F04
:100928003FF43BAF94EA0C0F0AD150EA01347FF44C
:1009380034AF95EA0C0F7FF425AF104619462CE723
:1009480095EA0C0F06D152EA03353FF4FDAE104686
:10095800194622E750EA410618BF52EA43067FF4D7
:10096800C5AE50EA41047FF40DAF52EA43057FF467
:10097800EBAE12E74FF0FF3C06E000BF4FF0010C72
:1009880002E000BF4FF0010C4DF804CD4FEA410CD6
:100998007FEA6C5C4FEA430C18BF7FEA6C5C1BD0A3
:1009A80001B050EA410C0CBF52EA430C91EA030F24
:1009B80002BF90EA020F0020704710F1000F91EA81
:1009C800030F58BF994208BF90422CBFD8176FEA4F
:1009D800E37040F0010070474FEA410C7FEA6C5C1D
:1009E80002D150EA013C07D14FEA430C7FEA6C5C24
:1009F800D6D152EA033CD3D05DF8040B704700BF50
:100A08008446104662468C461946634600E000BF9D
:100A180001B5FFF7B7FF002848BF10F1000F01BD6F
:100A28004DF808EDFFF7F4FF0CBF012000205DF83A
:100A380008FB00BF4DF808EDFFF7EAFF34BF0120BF
:100A480000205DF808FB00BF4DF808EDFFF7E0FF58
:100A580094BF012000205DF808FB00BF4DF808EDA9
:100A6800FFF7CEFF94BF012000205DF808FB00BF10
:100A78004DF808EDFFF7C4FF34BF012000205DF8F2
:100A880008FB00BF4FEA410212F5001215D211D53A
:100A98006FF47873B3EB625212D94FEAC12343F073
:100AA800004343EA505311F0004F23FA02F018BFF5
:100AB800404270474FF00000704750EA013005D1BE
:100AC80011F0004008BF6FF0004070474FF0000081
:100AD800704700BF80F0004002E000BF81F0004195
:100AE80042001FBF5FEA410392EA030F7FEA226CCC
:100AF8007FEA236C6AD04FEA1262D2EB1363C1BF5C
:100B0800D218414048404140B8BF5B42192B88BFCA
:100B1800704710F0004F40F4000020F07F4018BFED
:100B2800404211F0004F41F4000121F07F4118BF0D
:100B3800494292EA030F3FD0A2F1010241FA03FCB5
:100B480010EB0C00C3F1200301FA03F100F000439D
:100B580002D5494260EB4000B0F5000F13D3B0F165
:100B6800807F06D340084FEA310102F10102FE2AD4
:100B780051D2B1F1004F40EBC25008BF20F0010044
:100B880040EA03007047490040EB000010F4000FF2
:100B9800A2F10102EDD1B0FA80FCACF1080CB2EB85
:100BA8000C0200FA0CF0AABF00EBC25052421843E4
:100BB800BCBFD0401843704792F0000F81F4000189
:100BC80006BF80F400000132013BB5E74FEA41035C
:100BD8007FEA226C18BF7FEA236C21D092EA030FC8
:100BE80004D092F0000F08BF0846704790EA010F42
:100BF8001CBF0020704712F07F4F04D1400028BF6F
:100C080040F00040704712F100723CBF00F5000050
:100C1800704700F0004343F0FE4040F40000704786
:100C28007FEA226216BF08467FEA23630146420232
:100C380006BF5FEA412390EA010F40F48000704745
:100C48004FF0000304E000BF10F0004348BF4042EB
:100C58005FEA000C08BF704743F0964301464FF027
:100C680000001CE050EA010208BF70474FF0000383
:100C78000AE000BF50EA010208BF704711F00043C4
:100C880002D5404261EB41015FEA010C02BF844694
:100C98000146002043F0B64308BFA3F18053A3F5F3
:100CA8000003BCFA8CF2083AA3EBC25310DB01FA3A
:100CB80002FC634400FA02FCC2F12002BCF1004FBE
:100CC80020FA02F243EB020008BF20F0010070474F
:100CD80002F1200201FA02FCC2F1200250EA4C00A3
:100CE80021FA02F243EB020008BF20EADC707047E9
:100CF8004FF0FF0C1CEAD0521EBF1CEAD15392EAF7
:100D08000C0F93EA0C0F6FD01A4480EA010C4002D2
:100D180018BF5FEA41211ED04FF0006343EA50102C
:100D280043EA5111A0FB01310CF00040B1F5000F6E
:100D38003EBF490041EAD3715B0040EA010062F11D
:100D48007F02FD2A1DD8B3F1004F40EBC25008BF07
:100D580020F00100704790F0000F0CF0004C08BF25
:100D680049024CEA502040EA51207F3AC2BFD2F1F2
:100D7800FF0340EAC250704740F400004FF0000300
:100D8800013A5DDC12F1190FDCBF00F0004070473A
:100D9800C2F10002410021FA02F1C2F1200200FA78
:100DA80002FC5FEA310040F1000053EA4C0308BF3F
:100DB80020EADC70704792F0000F00F0004C02BF90
:100DC800400010F4000F013AF9D040EA0C0093F00B
:100DD800000F01F0004C02BF490011F4000F013B65
:100DE800F9D041EA0C018FE70CEAD15392EA0C0FD3
:100DF80018BF93EA0C0F0AD030F0004C18BF31F03E
:100E0800004CD8D180EA010000F00040704790F013
:100E1800000F17BF90F0004F084691F0000F91F0B7
:100E2800004F14D092EA0C0F01D142020FD193EA7D
:100E38000C0F03D14B0218BF084608D180EA010005
:100E480000F0004040F0FE4040F40000704740F0E1
:100E5800FE4040F4400070474FF0FF0C1CEAD052AF
:100E68001EBF1CEAD15392EA0C0F93EA0C0F69D00B
:100E7800A2EB030280EA010C49024FEA402037D076
:100E88004FF0805343EA111143EA10130CF000406D
:100E98008B4238BF5B0042F17D024FF4000C8B425D
:100EA80024BF5B1A40EA0C00B3EB510F24BFA3EB3D
:100EB800510340EA5C00B3EB910F24BFA3EB91030D
:100EC80040EA9C00B3EBD10F24BFA3EBD10340EA67
:100ED800DC001B0118BF5FEA1C1CE0D1FD2A3FF6AD
:100EE80050AF8B4240EBC25008BF20F00100704762
:100EF8000CF0004C4CEA50207F32C2BFD2F1FF0305
:100F080040EAC250704740F400004FF00003013A35
:100F180037E792F0000F00F0004C02BF400010F4D9
:100F2800000F013AF9D040EA0C0093F0000F01F0ED
:100F3800004C02BF490011F4000F013BF9D041EA0F
:100F48000C0195E70CEAD15392EA0C0F08D1420242
:100F58007FF47DAF93EA0C0F7FF470AF084676E715
:100F680093EA0C0F04D14B023FF44CAF08466EE7EE
:100F780030F0004C18BF31F0004CCAD130F00042BC
:100F88007FF45CAF31F000437FF43CAF5FE700BF14
:100F98004FF0FF3C06E000BF4FF0010C02E000BF3D
:100FA8004FF0010C4DF804CD4FEA40024FEA4103DF
:100FB8007FEA226C18BF7FEA236C11D001B052EA95
:100FC800530C18BF90EA010F58BFB2EB030088BF5B
:100FD800C81738BF6FEAE17018BF40F001007047CA
:100FE8007FEA226C02D15FEA402C05D17FEA236CAC
:100FF800E4D15FEA412CE1D05DF8040B704700BFF3
:10100800844608466146FFE70FB5FFF7C9FF002889
:1010180048BF10F1000F0FBD4DF808EDFFF7F4FFC2
:101028000CBF012000205DF808FB00BF4DF808ED5B
:10103800FFF7EAFF34BF012000205DF808FB00BF7E
:101048004DF808EDFFF7E0FF94BF012000205DF8A0
:1010580008FB00BF4DF808EDFFF7D2FF94BF012051
:1010680000205DF808FB00BF4DF808EDFFF7C8FF4A
:1010780034BF012000205DF808FB00BF4FEA4002A2
:10108800B2F1FE4F0FD34FF09E03B3EB12620DD9AE
:101098004FEA002343F0004310F0004F23FA02F018
:1010A80018BF404270474FF00000704712F1610FBF
:1010B80001D1420205D110F0004008BF6FF0004096
:1010C80070474FF0000070474BB942B9002908BF7C
:1010D800002802D04FF0FF31084600F03BB882B03C
:1010E800EC462DE9005000F01DF8DDF804E002B0F0
:1010F8000CBC70472DE9F0411646984604460D464B
:1011080000F02AF806FB01FCA6FB002300FB08C739
:10111800FB18A21A65EB0303069CC4E90023BDE88B
:10112800F08100BF2DE9F041904606460F461D4666
:1011380000F070F900FB05F3A0FB084508FB013837
:10114800069B4544341B67EB0505C3E90045BDE82C
:10115800F08100BF704700BF00292DE9F00F1D4640
:10116800C0F29D800024002DC0F2948080460F4676
:1011780094461E46E3BB8A4255D9B2FA82F747B174
:10118800C7F1200520FA05F601FA07F1BA40B84080
:101198003143170CB1FBF7F61FFA82FC07FB161157
:1011A8000CFB06F5030C43EA01439D4208D9711E66
:1011B8009B1880F013819D4240F21081023E9B18DB
:1011C800591BB1FBF7F507FB15130CFB05FC80B2A7
:1011D80040EA03418C4507D96B1E8A1880F00081CC
:1011E800944540F2FD80023D45EA0641002503E0B2
:1011F8008B420CD9002529460A462B4614B1524287
:1012080063EB430310461946BDE8F00F7047B3FA85
:1012180083F5002D40F087808B4201D38242EAD8C3
:1012280000250121E8E712B90126B6FBF2F2B2FA6D
:1012380082F6002E39D18E1A130C1FFA82FC012572
:10124800B6FBF3F703FB17610CFB07F84FEA1049ED
:1012580049EA0146B04506D9791EB61802D2B0450A
:1012680000F2D3800F46C8EB0606B6FBF3F103FB8A
:1012780011630CFB01FC80B240EA03439C4506D98C
:101288004E1E9A1802D2944500F2C280314641EAB5
:101298000741B1E7E443524263EB430366E7404248
:1012A80061EB41014FF0FF345DE7B240C6F1200920
:1012B80021FA09F720FA09F901FA06F1130CB7FB2C
:1012C800F3F81FFA82FC03FB18770CFB08F549EAD0
:1012D80001094FEA194141EA0747B040BD420AD91E
:1012E800BF1808F1FF3680F08E80BD4240F28B8037
:1012F800A8F10208BF18791BB1FBF3F503FB15171A
:101308000CFB05F61FFA89F949EA07418E4206D90E
:101318006F1E891871D28E426FD9023D89188E1BB3
:1013280045EA08458CE7C5F1200122FA01F306FADF
:1013380005F627FA01F207FA05F720FA01F11E432C
:101348004FEA1649B2FBF9F81FFA86FA09FB182288
:101358000AFB08FB0F433B0C43EA024293450CFA95
:1013680005FC08D9921908F1FF314AD2934548D9AA
:10137800A8F102089219CBEB0203B3FBF9F109FBC0
:1013880011320AFB01FABFB247EA02439A4506D96D
:101398004A1E9B1933D29A4531D902399B1941EA21
:1013A80008410F0C1FFA8CF808FB07F68AB24FEABF
:1013B8001C4C08FB02F80CFB02620CFB07FC02EB5E
:1013C8001842964288BF0CF5803CCAEB03030CEB2D
:1013D800124C63450ED305D000250DE70E46EFE607
:1013E8001D4601E700FA05F01FFA88F808EB0245E8
:1013F800A842F1D201390025FEE63D468FE71146A5
:10140800CDE78846B7E7B04675E7023FB6182AE742
:1014180002393CE72DE9F007144605460E46002B35
:101428003DD18A4249D9B2FA82F747B1C7F12001C2
:1014380020FA01F206FA07F6BC40BD401643220C1A
:10144800B6FBF2F0A1B202FB106601FB00F32F0C11
:1014580047EA0646B34208D9471E361980F0FA8093
:10146800B34240F2F78002383619F61AB6FBF2F3A7
:1014780002FB136201FB03F1ADB245EA024291425D
:1014880007D95E1E121980F0E780914240F2E4808D
:10149800023B43EA00400021BDE8F00770478B4259
:1014A80043D8B3FA83F4002C42D18B4202D3824250
:1014B80000F2E18000210120EEE712B90127B7FB15
:1014C800F2F4B4FA84F2002A40F089800A1B230C53
:1014D800A7B20121B2FBF3F603FB162207FB06F0C5
:1014E8004FEA154C4CEA0242904207D9121906F10C
:1014F800FF3C02D2904200F2D0806646121AB2FB3C
:10150800F3F003FB102307FB00F7ADB245EA0343F2
:101518009F4207D9421E1B1980F0A0809F4240F2CB
:101528009D80023840EA0640B6E700210846B3E746
:10153800C4F1200622FA06F703FA04F321FA06F5A5
:1015480001FA04F120FA06F63B434FEA134CB5FBC7
:10155800FCF71FFA83F80CFB175508FB07F946EA56
:10156800010A4FEA1A4141EA0545A94502FA04F27F
:1015780004D97E1EED18C0F081803746C9EB0501FD
:10158800B1FBFCF60CFB161508FB06F81FFA8AFAE5
:101598004AEA0541884503D9751EC91874D32E46F1
:1015A80046EA0746370C1FFA82FC0CFB07F5120CBB
:1015B800B3B20CFB03FC02FB035302FB07F203EB81
:1015C8001C439D4288BF02F58032C8EB010102EB43
:1015D800134291424CD343D0304600215CE79440FB
:1015E800C2F1200521FA05F620FA05F501FA02F103
:1015F800230CB6FBF3FCA7B203FB1C6607FB0CF835
:1016080029430D0C45EA0646B04500FA02F508D90B
:1016180036190CF1FF303ED2B0453CD9ACF1020C82
:101628003619C8EB0602B2FBF3F003FB102607FBE2
:1016380000F889B241EA0642904506D9461E1219B9
:1016480027D2904525D902381219C8EB020240EA80
:101658000C413FE7384608E733461AE7104661E78A
:1016680000FA04F01FFA8CFC0CEB03439842B3D247
:10167800701E002110E7214620460DE7A9457FF698
:101688007CAF023FED1879E7884588D9023EC91832
:1016980086E73046D9E78446C3E7023E12192DE7AC
:1016A800002100F004B80D4B5B58435004310C483E
:1016B8000C4B42189A42FFF4F6AF0B4A00F003B8FD
:1016C800002342F8043B094B9A42FFF4F9AF03F0B8
:1016D800CDFD06F081FF02F0E7FE7047B0DD00089F
:1016E80000000020140B0020140B0020881B002091
:1016F800FFF7FEBF40F0BF604FF46D4340F4003188
:10170800CEF20003D9607047C37830B47BB9007853
:10171800012100F01F0201FA02F140094FF4614370
:10172800CEF20003203043F8201030BC70474FF44D
:101738006D44CEF20004E5684478EA43C2F302231C
:101748000F2525FA03F2C3F1040104FA01F48578A0
:10175800037802EA050121430A0103F16043D1B28B
:1017680003F5614282F800130078012100F01F039D
:1017780001FA03F14FF46143CEF20003420943F842
:101788002210D2E708B54FF41053C4F2010398426F
:1017980018D04FF42051C4F2010188421ED04FF4F2
:1017A8007052C4F20102904200D008BD01214FF4EA
:1017B800004000F03BFB4FF400400021BDE808402A
:1017C80000F034BB01214FF4007000F02FFB4FF400
:1017D80000700021BDE8084000F028BB01214FF44B
:1017E800806000F023FB4FF480600021BDE80840D2
:1017F80000F01CBB42680B6870B422F470250C79A9
:1018080025F4807646EA030242EA042343608668A8
:101818008C68CA684FF2FD73CFF6F1734D79224395
:101828003340134343EA45028260097CC26A4B1E77
:1018380022F47001DAB241EA0253C36270BC704705
:10184800836819B923F001018160704743F00102F0
:1018580082607047836843F008018160704700BF69
:101868008068C0F3C0007047836843F0040181605A
:10187800704700BF8068C0F380007047836819B95B
:1018880023F4A0018160704743F4A002826070478E
:10189800092970B401EB41041ED91E3C072606FA3B
:1018A80004F603FA04F4C568062A25EA060343EA9F
:1018B8000403C3601DD90C2A02EB820227D9413ADE
:1018C8001F2404FA02F401FA02F1C36A23EA0402AB
:1018D8000A43C26270BC7047072606FA04F603FA88
:1018E80004F40569062A25EA060343EA04030361AA
:1018F800E1D8541E04EB84031F2404FA03F401FA0C
:1019080003F1426B22EA04030B434363E2E7233A01
:101918001F2404FA02F401FA02F1036B23EA040219
:101928000A430263D6E700BFC06C80B2704700BFAD
:10193800036819420CBF002001207047837930B436
:101948003BB34FF48063C4F2010301681D68CC43C4
:1019580025401D605D6802792C4002F180455C607D
:1019680005F5823215684479294311600268986840
:10197800D14308409860D868102C01EA0001D9606A
:1019880013D004F1804303F5823421680A432260AE
:1019980009E00279016802F1804000F582331A6893
:1019A80022EA01021A6030BC7047986810439860B8
:1019B800D9680A43DA60F6E74FF48063C4F201039A
:1019C8001A691043186170474FF48063C4F2010329
:1019D80058617047CA7830B4D30648BF8B7802F094
:1019E8000F0448BF1C430B8813F0FF0F2FD013F0D0
:1019F8000105016840F0EC8003F00205ADB2002D4E
:101A080040F0D08003F00405ADB2002D40F0D58041
:101A180003F00805ADB2002D40F0988003F01005E2
:101A2800ADB2002D40F09D8003F02005ADB2002D31
:101A380040F0A28003F04005ADB2002D40F0A78031
:101A480003F08005ADB2002D40F0CD800160FF2B82
:101A580028D903F480718DB24168002D2DD103F48B
:101A68000075ADB2002D33D103F48065ADB2002D01
:101A780039D103F40065ADB2002D3FD103F4805590
:101A8800ADB2002D44D103F40055ADB2002D49D1BB
:101A980003F48045ADB2002D4ED103F400439BB250
:101AA80013B9416030BC7047282A64F31F7100F0F5
:101AB800B080482A08BF0361F3E721F00F01282A04
:101AC80044EA010100F0A380482AC8D10561C6E7AD
:101AD80021F0F001282A41EA041100F09680482AF2
:101AE800C2D10561C0E721F47061282A41EA0421C6
:101AF80000F08980482ABCD10561BAE721F4704119
:101B0800282A41EA04317CD0482AB7D10561B5E7D3
:101B180021F47021282A41EA044170D0482AB2D120
:101B28000561B0E721F47001282A41EA045164D024
:101B3800482AADD10561ABE721F07061282A41EA56
:101B4800046158D0482AA8D10561A6E721F470415C
:101B5800282A41EA043168D0482A7FF45FAF05613A
:101B68005CE721F47021282A41EA04415BD0482A25
:101B78007FF45AAF056157E721F47001282A41EA3A
:101B8800045156D0482A7FF455AF056152E721F039
:101B98007061282A41EA046149D0482A7FF450AF8D
:101BA80005614DE721F0F001282A41EA041138D0F7
:101BB800482A7FF427AF056124E721F47061282AB9
:101BC80041EA04212BD0482A7FF422AF05611FE7A0
:101BD80021F00F01282A44EA01011CD0482A7FF489
:101BE8000BAF056108E7282A64F31F7115D0482A4E
:101BF80008BF05612AE745614FE7456148E7456148
:101C080041E745613AE7456133E745612CE74561BE
:101C180025E7436145E74561EEE6456116E745611D
:101C2800F6E64561EEE64561FEE64561F6E64561A4
:101C380006E74561FEE600BF836819420CBF002035
:101C48000120704701617047416170470AB94161DD
:101C580070470161704700BFC3685940C160704751
:101C680000230028C4F2010300F44012B4BFDB696A
:101C78005B68B2F5401F30B484B222D0C20217D5D7
:101C8800C0F30342032505FA02F223EA020343F0F4
:101C9800706321B1410D0A0104FA02F423430021C3
:101CA800C4F201010028B4BFCB614B6030BC70475F
:101CB800420D120104FA02F223EA020343F07063B0
:101CC800E7E70022C4F20102556823F0706325F0AB
:101CD80070655560DDE700BF01F0030310B40F2203
:101CE8009C0002FA04F200FA04F089080023C4F206
:101CF8000103023153F8214024EA020243F821206B
:101D080053F82120104343F8210010BC704700BF4E
:101D1800D823C4F242231860704700BF4FF48053A1
:101D2800C4F202035A6822F44041084358607047DD
:101D38004FF48053C4F202035A6810B402F00C0145
:101D4800042901D0082928D04FF49052C0F27A0211
:101D580002604FF48053C4F202035C681C49C4F368
:101D680003140C5D22FA04F242605C68C4F3022496
:101D78000C5D22FA04F484605C68C4F3C224095D33
:101D880022FA01F2C2605B681249C3F38133CB5C6B
:101D9800B2FBF3F2026110BC70475C685968C4F387
:101DA80083420232CC030AD55B68990307D44FF407
:101DB8009054C0F27A0404FB02F20260C9E74FF4BF
:101DC8001061C0F23D0101FB02F20260C1E700BFF1
:101DD80004000020000000204FF48053C4F20203E6
:101DE8005A6919B922EA00005861704710435861CE
:101DF800704700BF4FF48053C4F202039A6919B9BF
:101E080022EA00009861704710439861704700BF4C
:101E18004FF48053C4F20203DA6919B922EA0000C8
:101E2800D86170471043D861704700BF4FF48053A2
:101E3800C4F20203DA6819B922EA0000D8607047D0
:101E48001043D860704700BF4FF430520388C4F283
:101E58000102904270B49BB21AD04FF45052C4F2AF
:101E68000102904214D0B0F1804F11D04FF480623B
:101E7800C4F2000290420BD04FF40062C4F2000298
:101E8800904205D04FF44062C4F20002904205D15E
:101E98004FF68F724C881A4042EA04034FF480527E
:101EA800C4F20002904234D04FF4A052C4F20002AF
:101EB80090422ED04FF6FF42CE881A404FF430534E
:101EC8008D880C88C4F201033243984202808585CC
:101ED80004851BD04FF45052C4F20102904215D031
:101EE8004FF48043C4F2010398420FD04FF4884264
:101EF800C4F20102904209D04FF49043C4F20103A6
:101F0800984203D00122828270BC7047097A018608
:101F1800F8E703808B88838509880185F2E700BF8D
:101F2800038C2DE9F00123F001021404250C05842B
:101F3800078C0D8984884E88038B2E4323F0730207
:101F48004FF4305527F0020312041B040F88C4F223
:101F58000105120C1B0CB6B2A842A4B242EA070251
:101F680046EA03031FD04FF45055C4F20105A842B6
:101F780019D04FF48045C4F20105A84213D04FF49C
:101F88008845C4F20105A8420DD04FF49045C4F22B
:101F98000105A84207D0C98884800283818603840A
:101FA800BDE8F00170474FF6F776B1F80AC0B1F80E
:101FB8000E808F891E4046EA0C0C4FF6FB738E8804
:101FC8004FF6FF4548EA070725400CEA0303BCB271
:101FD80033432C43DFE700BF038CF0B423F0100237
:101FE8001404250C0584068C848826F02002078BAF
:101FF80016040D89320C27F4E6431B0442EA051245
:102008000F884E884FF430551B0CC4F2010543EA83
:10201800072342EA0612A842A4B29BB292B20CD09D
:102028004FF45055C4F20105A84206D0C9888480EF
:10203800038301870284F0BC70474F894FF67F768F
:1020480016404FF2FF35B1F80CC0254046EA071696
:102058004FF6BF728F88CC89324045EA8C0542EA38
:10206800071245EA840492B2A4B2DFE7038CF0B405
:1020780023F480721404250C0584068C0D8926F43B
:1020880000773A048488838B120C23F0730642EAA3
:1020980005224F884FF430553304C4F201050E88E9
:1020A8001B0C42EA0722A842A4B243EA060392B2F2
:1020B8000CD04FF45055C4F20105A84206D0C98887
:1020C8008480838381870284F0BC70474F894FF2F4
:1020D800FF7616404CF6FF75B1F80CC0254046EA6D
:1020E80007264FF6FF328F88CC89324045EA0C1517
:1020F80042EA072245EA041492B2A4B2DFE700BF1D
:102108000B8830B44D888C88CA882B4323430D89AB
:102118004C89134389892B4323430B439AB2A0F874
:10212800442030BC704700BF038829B923F001015F
:102138000A04130C0380704799B241F0010202802F
:10214800704700BFB0F8443021B959044A0CA0F8D0
:10215800442070476FEA43436FEA53418AB2A0F8BC
:1021680044207047038B23F0080213041A0C114310
:1021780001837047038B23F4006213041A0C42EAAC
:1021880001218BB203837047838B23F00802130469
:102198001A0C114381837047038A70B5044623F4EF
:1021A8004050CA880D4601040E0C16432682A389A6
:1021B800AA88288923F4B056698926F00C031043AD
:1021C8001A04160C084340EA06018BB2A381A08AC0
:1021D800AA8920F4407631040B0C86B0134301A879
:1021E800A382FFF7A5FD4FF46056A089C4F201064B
:1021F800B44202B20CBF049E039E002A21DB2D6864
:1022080006EB860101EB8103AE00B3FBF6F148F261
:102218001F53C5F2EB13A3FB0106A089720900B294
:1022280064251601002802FB151113DB0A0132325E
:10223800A3FB0203C3F34310304383B2238106B0E8
:1022480070BD286806EB860202EB82054300B5FBE9
:10225800F3F1DCE7C9003231A3FB0112C2F34210EB
:102268003043EAE70A8830B4038A4D888C882A43C9
:10227800C98823F470631B0422430A43190C0A43D8
:1022880093B2038230BC704700230380438083806D
:10229800C3807047838929B923F400510A04130CB9
:1022A8008381704799B241F400528281704700BF20
:1022B80001F01F0310B4C1F342110124A14204FA32
:1022C80003F30DD002290DD014302AB9026822EA8E
:1022D8000301016010BC7047026813430360F9E70B
:1022E8000C30F2E71030F0E730B54FF4805087B08B
:1022F800082300246946C4F20100ADF800308DF8C7
:102308000340FFF767FB4FF40040FFF707FD01218B
:102318004FF40070FFF76EFD4FF41050C4F2010047
:10232800FFF730FA4FF410504FF460220125C4F241
:10233800010001A9039201948DF808408DF8094025
:1023480004948DF81450FFF755FA4FF41050C4F266
:1023580001002946FFF774FA4FF41050C4F2010047
:10236800FFF778FA4FF41050C4F20100FFF778FA3B
:102378000028F7D14FF41050C4F20100FFF774FAA7
:102388004FF41050C4F20100FFF774FA0028F7D197
:1023980007B030BD01464FF4105008B5C4F2010033
:1023A80001220323FFF774FA4FF41050C4F201001E
:1023B8000121FFF763FA4FF41050C4F20100022123
:1023C800FFF7B6FA0028F6D04FF41050C4F2010017
:1023D800BDE80840FFF7A8BA08B503F00DF94DF2BB
:1023E800E030C0F6000003F087F8BDE8084003F0CD
:1023F800A1B900BF0FB410B5C2B044AC54F8042B57
:10240800FF21234602A8019406F03AFA02A803F035
:1024180073F802A806F0D8F9014602A803F0A0F95B
:1024280042B0BDE8104004B0704700BF0FB410B50B
:10243800C2B044AC54F8042B02A8FF2123460194EF
:1024480006F01EFA02A803F057F842B0BDE81040A3
:1024580004B0704740F21403C2F2000318607047DA
:1024680000B50C4B83B01868002804DB4FF0FF322E
:102478001A6003B000BD03F08DF938B10DF1070003
:10248800012103F08DF99DF80700F2E703F020F829
:10249800EFE700BF1400002008B503F07BF918B976
:1024A800BDE8084003F01AB8BDE8084003F072B967
:1024B80010B582B002AC04F8010D03F015F82046FF
:1024C800012103F04DF902B010BD00BF704700BFF5
:1024D80010B5FFF7C5FF041E52DB03F06FF9A4F136
:1024E8002B004A284CD8DFE810F057004B00690051
:1024F8004B004B004B004B004B004B004B004B007C
:102508004B004B004B004B004B004B004B004B006B
:102518004B004B004B004B004B004B004B004B005B
:102528004B003B014B004B004B004B004B004B005A
:102538004B004B004B004B004B004B004B004B003B
:102548004B004B004B004B004B004B004B004B002B
:102558004B004B004B004B004B00720081004B00BE
:102568004B008700B400110115014B004B004B00D4
:102578004B004B0019014B004B004B004B004C002B
:1025880010BD694B1C6804F05BFA02466748214697
:10259800BDE81040FFF74ABF654C4CF6CD41C3F685
:1025A800CC512068FEF79CFA2060FDF77DFF0246BB
:1025B80060480B46BDE81040FFF71CBF5C4C4CF66A
:1025C800CD41C3F6CC512068FEF788FAECE75A4BA8
:1025D8005A48196881F00102594C5A491A60002A70
:1025E80008BF2146BDE81040FFF704BF564B5748C7
:1025F8001C6884F00102EFE7554C642003F026F9CB
:102608007820FFF755FF2078FFF752FF6078FFF733
:102618004FFFA078FFF74CFFE078FFF749FF2079DC
:10262800FFF746FF6079FFF743FFA079FFF740FF08
:10263800E079FFF73DFF207AFFF73AFF607AFFF76E
:1026480037FFA07AFFF734FFE07ABDE81040FFF7C4
:102658002FBFFFF721FF0B2840F3CD80FFF700FFC6
:10266800C1B264299CBF3A480170FFF7F9FEC2B2B3
:10267800642A9CBF364B5A70FFF7F2FEC1B2642938
:102688009CBF33488170FFF7EBFEC2B2642A9CBF3F
:102698002F4BDA70FFF7E4FEC1B264299CBF2C48C7
:1026A8000171FFF7DDFEC2B2642A9CBF284B5A7144
:1026B800FFF7D6FEC1B264299CBF25488171FFF798
:1026C800CFFEC2B2642A9CBF214BDA71FFF7C8FE65
:1026D800C1B264299CBF1E480172FFF7C1FEC2B295
:1026E800642A9CBF1A4B5A72FFF7BAFEC1B264291A
:1026F8009CBF17488172FFF7B3FEC2B2642A9CBF21
:10270800134BDA72BDE8104000F0FCB8114B0122FF
:102718001A6010BD0F480021016010BD0E4B0F4814
:102728001A6882F0010257E7D011002070D400081F
:10273800900100200CD40008140B002058D4000885
:10274800F4D30008F0D30008240B002028D4000894
:10275800180000200C120020440B00203CD4000874
:10276800274C0021227827481346FFF743FE62785A
:10277800012113462348FFF73DFEA27802211346A4
:102788002048FFF737FEE278032113461D48FFF77C
:1027980031FE2279042113461A48FFF72BFE62798D
:1027A800052113461748FFF725FEA279062113468F
:1027B8001448FFF71FFEE279072113461148FFF777
:1027C80019FE227A082113460E48FFF713FE627A93
:1027D800092113460B48FFF70DFEA27A0A2113467A
:1027E8000848FFF707FEE27A06480B211346BDE8C2
:1027F8001040FFF7FFBD6820BDE81040FFF72ABE74
:1028080018000020F8D3000808B5002000F056F999
:1028180064289CBF3A4B1870052003F017F8012074
:1028280000F04CF964289CBF35494870052003F036
:102838000DF8022000F042F964289CBF304A9070DD
:10284800052003F003F8032000F038F964289CBF42
:102858002B4BD870052002F0F9FF042000F02EF968
:1028680064289CBF26490871052002F0EFFF052067
:1028780000F024F964289CBF214A5071052002F019
:10288800E5FF062000F01AF964289CBF1C4B9871DC
:10289800052002F0DBFF072000F010F964289CBF38
:1028A8001749C871052002F0D1FF082000F006F989
:1028B80064289CBF124A1072052002F0C7FF092045
:1028C80000F0FCF864289CBF0D4B5872052002F0FC
:1028D800BDFF0A2000F0F2F864289CBF08498872FE
:1028E800052002F0B3FF0B2000F0E8F864289CBF35
:1028F800034AD0720520BDE8084002F0A7BF00BF18
:102908001800002008B502F059FF002000F0D6F8A2
:10291800411C06D0594B1978814202D0002000F0A2
:10292800AFF8052002F092FF012000F0C7F8421C22
:1029380006D052494978814202D0012000F0A0F81F
:10294800052002F083FF022000F0B8F8431C06D0EF
:102958004A4A9178814202D0022000F091F805207D
:1029680002F074FF032000F0A9F8411C06D0434B85
:10297800D978814202D0032000F082F8052002F0C5
:1029880065FF042000F09AF8421C06D03B490979FB
:10299800814202D0042000F073F8052002F056FFAF
:1029A800052000F08BF8431C06D0344A5179814247
:1029B80002D0052000F064F8052002F047FF062049
:1029C80000F07CF8411C06D02C4B9979814202D04A
:1029D800062000F055F8052002F038FF072000F027
:1029E8006DF8421C06D02549C979814202D00720DA
:1029F80000F046F8052002F029FF082000F05EF8F4
:102A0800431C06D01D4A117A814202D0082000F0EA
:102A180037F8052002F01AFF092000F04FF8411C92
:102A280006D0164B597A814202D0092000F028F8C6
:102A3800052002F00BFF0A2000F040F8421C06D0E7
:102A48000E49897A814202D00A2000F019F805203F
:102A580002F0FCFE0B2000F031F8431C06D0074AB8
:102A6800D17A814202D00B2000F00AF8052002F04A
:102A7800EDFEBDE8084002F0A9BE00BF1800002026
:102A880038B5044605200D4602F0E0FE00F086FE4B
:102A9800AE2000F021FF01F0E9FB204600F01CFF0A
:102AA80001F0E4FB284600F017FF01F0DFFB00F01F
:102AB8009BFE0520BDE8384002F0C8BE38B5054683
:102AC800174C012002F0C2FE0023236000F066FECE
:102AD800AE2000F001FF01F0C9FB284600F0FCFE23
:102AE80001F0C4FB00F080FE012002F0AFFE00F010
:102AF80055FEAF2000F0F0FE01F0B8FB01F042F8FF
:102B0800054600F0C1FE00F06FFE012002F09EFEB7
:102B1800206800280CBF28464FF0FF3038BD00BFA2
:102B28009C1A002040F63833C2F2000300212DE938
:102B3800F0411868C4F27A41FEF7DAF840F6283115
:102B4800C2F200010968FDF7CBFF40F21804C2F297
:102B5800000406466078FEF773F83146FEF7C8F8B9
:102B68000021C4F2C821FEF777F907462079FEF75D
:102B780067F80021C4F2C821FEF76EF941F2382542
:102B8800C2F20005296880463046FDF7A7FF0146D6
:102B98004046FEF7ADF8014638462E60FDF7A0FF27
:102BA800E179BDE8F04101F00BBF00BF40F61C33EE
:102BB800C2F2000300212DE9F0411868C4F27A41FD
:102BC800FEF796F840F63031C2F200010968FDF7C9
:102BD80087FF40F21804C2F2000406462078FEF788
:102BE8002FF83146FEF784F80021C4F2C821FEF719
:102BF80033F90746E078FEF723F80021C4F2C8212C
:102C0800FEF72AF941F22825C2F200052968804614
:102C18003046FDF763FF01464046FEF769F8014676
:102C280038462E60FDF75CFFA179BDE8F04101F060
:102C3800EBBE00BF40F62C33C2F2000300212DE9A1
:102C4800F0411868C4F27A41FEF752F840F6403174
:102C5800C2F200010968FDF743FF40F21804C2F20E
:102C680000040546A078FDF7EBFF2946FEF740F87B
:102C78000021C4F2C821FEF7EFF86679074630460E
:102C8800FDF7DEFF0021C4F2C821FEF7E5F841F2A6
:102C98002424C2F20004216880462846FDF71EFF5E
:102CA80001464046FEF724F8256001463846FDF700
:102CB80017FF3146BDE8F04101F0CABE2DE9F04FDB
:102CC800C54F95B03B680446581C386002F076FD45
:102CD80002F098FD12A802F07DFA00F0B3FB12A8EA
:102CE80002F080FA0D9002F0C7F80E9002F016F983
:102CF8005A2101FB00F240F21803C2F2000344F625
:102D0800D3580C90C1F26208D87A88FB0215D617FE
:102D1800FDF79AFF0021C4F24821FDF7DFFE46F2D5
:102D28004201C3F66531FDF7E3FFC6EBA518064679
:102D3800AA4DAB482968006804F0EEF80146304611
:102D4800FDF7CCFEA74A29688246106804F0E4F82B
:102D5800814612A802F046FA0F9000F0EBFB12A889
:102D680002F040FAA04E00211090C4F2C62130684B
:102D7800FDF7BEFF5146FDF7B3FE0021C4F2C8219E
:102D8800FEF76AF8994D824600212868C4F2C621E8
:102D9800C6F800A0FDF7ACFF4946FDF7A1FE0021EB
:102DA800C4F2C821FEF758F841F69421C2F2000196
:102DB800DFF85CB20E6881465BF82810C5F8009011
:102DC80006F10040FDF794FF05468948C8F15A030B
:102DD8005BF823100068FDF78BFF40F63832C2F22B
:102DE8000002014628461568FDF77AFE2146FDF7E0
:102DF8007FFF2946FDF774FE294683465046FDF7B6
:102E08006DFE4BF21771C3F65111FDF771FF0146C4
:102E18005846FDF765FE40F63833C2F2000300213C
:102E2800C4F248211860FDF763FF0021CBF68071DA
:102E38000546FEF7FBF8002840F0538128464FF07E
:102E48007E51FEF711F908B14FF07E55694ADFF857
:102E5800C4A11560DAF800002946FDF741FE664D69
:102E6800CAF8000021463046FDF742FF2968FDF701
:102E780037FE6249286009682046FDF739FF604E31
:102E8800DFF894A1D6F800B00A905946FDF728FE5D
:102E98005946024648460B92FDF720FE4BF2177141
:102EA800C3F65111FDF724FF01460B98FDF718FEF4
:102EB8000A9BDAF8001030601846FDF711FECAF8D0
:102EC80000000120FFF766FADFF850914D4B002211
:102ED8004FF400411A60C4F2F931D9F80000FDF747
:102EE80007FF83464046FDF7AFFE01465846FDF70B
:102EF800F7FD0021C4F2FA31FDF7AEFF02460146A4
:102F0800C9F800203068FDF7E9FDDFF814B10021A9
:102F1800C4F24821CBF80000FDF7EAFE0021CBF609
:102F280080710646FEF782F8002840F0D6803046C9
:102F38004FF07E51FEF798F808B14FF07E56324BAD
:102F4800DFF8E0801E60D8F800003146FDF7C8FDC4
:102F58002E4E0021C4F2C621C8F800003068FDF7E3
:102F6800C7FE82460D20FFF715FAA0F5FA60FDF7B7
:102F78006BFE0021C4F27A51FDF76EFF0146504600
:102F8800FDF7AEFD0021C4F2C821FDF765FF40F250
:102F98001801C2F200018046887AC6F800803028FD
:102FA8007AD0312800F0A18028680021C4F2482195
:102FB800FDF79EFE0021CBF680710646FEF736F837
:102FC800002840F0868030464FF07E51FEF74CF8DE
:102FD80050B34FF07E5627E0200B0020601A0020E7
:102FE800901A0020701A0020180B00203C0B0020BB
:102FF8005C1A00202C1200202C0B00206C1A0020D8
:103008001812002020120020501200201C1200204C
:1030180024000020280B002030120020101200206D
:103028001C0B0020300B0020754ADFF804A2314643
:103038001660DAF80000FDF753FDCAF8000012A880
:1030480002F0D0F88146FFF7B1FDFFF76BFDFFF7FF
:10305800F1FD12A802F0C6F8804612A802F0CAF8DC
:10306800684E82463168481CB0F5FA7F30600EDB46
:10307800654B1A68002A6BD1644B1A68002A40F025
:10308800A380634B1A68002A3CD10020306002F00C
:103098009DFB15B0BDE8F08F41F69423C2F2000302
:1030A8002E6819682046FDF723FE3146FDF718FD06
:1030B800314681464046FDF711FD4DF20A71C3F6CF
:1030C8002341FDF715FE01464846FDF709FD286036
:1030D8006BE70026CBF68076A6E70026CBF680764F
:1030E8002DE70025CBF68075B0E641F69422C2F2B2
:1030F800000211682046FDF7FBFD2968FDF7F0FC8A
:10310800286052E7434C4448A168444D94E80808B5
:10311800D5F800806F68D0F800A0AD68D0F80490AA
:1031280084680B910A9302F0B3FA0A9B0B9A0093F6
:1031380006900292CDF804B0CDF80CA0CDF810900E
:103148000594374841463A462B46FFF753F99CE722
:10315800344B40F638311A68C2F2000108681192FF
:103168003F6802F07BFB0146DBF800000A9102F0A1
:1031780075FB8346286802F071FB054620460B95CF
:10318800FDF792F90E9B0C9A0D46119904460A9880
:10319800009301920291FDF787F9CDE904015846A1
:1031A800FDF782F9CDE906010B98FDF77DF9224676
:1031B800CDE908012B461C483946FFF71BF9134B8C
:1031C8001A68002A3FF45DAF01F0D0F8FDF76CF9FA
:1031D8000B460D990246019110980F990290CDF86F
:1031E80000A00391CDF81090CDF814800F48FFF798
:1031F80001F9074B1A68002A3FF447AF82E700BF7E
:1032080048120020340B0020240B0020440B00201F
:10321800140B0020A01A0020B81A0020AC1A0020B5
:1032280058D50008981A00209CD40008FCD400083F
:10323800400B002038B51E4D00242046FDF704FD44
:1032480040F6DB71C4F2C901FDF752FD4FF06A5137
:10325800FDF74EFD03F024FE4FF47E41C4F2FF61FA
:10326800FDF746FD02F008FBFDF708FF0134688012
:103278002046FDF7E9FC40F6DB71C4F2C901FDF711
:1032880037FD4FF06A51FDF733FD03F009FE4FF4A7
:103298007E41C4F2FF61FDF72BFD02F0EDFAFDF768
:1032A800EDFE0134A8800435B4F5806FC5D138BD72
:1032B8005212002010B5012002F0C8FA00F06EFA90
:1032C800D02000F009FB00F0D1FF752000F004FBCE
:1032D80000F0CCFF00F088FA012002F0B7FA00F005
:1032E8005DFAD12000F0F8FA00F0C0FF00F04AFCC7
:1032F800044600F0C9FA00F077FA682C40F09F8085
:10330800052002F0A3FA00F049FAD02000F0E4FA10
:1033180000F0ACFF192000F0DFFA00F0A7FF002052
:1033280000F0DAFA00F0A2FF00F05EFA052002F0E1
:103338008DFA00F033FAD02000F0CEFA00F096FFB4
:103348001A2000F0C9FA00F091FF022000F0C4FA38
:1033580000F08CFF00F048FA052002F077FA00F040
:103368001DFAD02000F0B8FA00F080FF1B2000F012
:10337800B3FA00F07BFF082000F0AEFA00F076FF09
:1033880000F032FA052002F061FA00F007FAD020C6
:1033980000F0A2FA00F06AFF372000F09DFA00F072
:1033A80065FF002000F098FA00F060FF00F01CFABA
:1033B800052002F04BFA00F0F1F9D02000F08CFA69
:1033C80000F054FF382000F087FA00F04FFF00208B
:1033D80000F082FA00F04AFF00F006FA052002F039
:1033E80035FA00F0DBF9D02000F076FA00F03EFF65
:1033F8006B2000F071FA00F039FF002000F06CFA41
:1034080000F034FF00F0F0F9052002F01FFA00F098
:10341800C5F9D02000F060FA00F028FF6A2000F01B
:103428005BFA00F023FF092000F056FA00F01EFFB7
:1034380000F0DAF9052002F009FA002010BD4FF07B
:10344800FF3010BD38B5334D00232B6000F0A6F9CE
:10345800D02000F041FA00F009FF286800B138BD1B
:103468003B2000F039FA00F001FF29680029F6D165
:1034780000F0BAF900F092F9D12000F02DFA00F02E
:10348800F5FE2A68002AEAD100F07CFB224C207065
:1034980000F0D2F900F076FB607000F0CDF900F092
:1034A80071FBA07000F0C8F900F06CFBE07000F050
:1034B800C3F900F067FB207100F0BEF900F062FB71
:1034C800607100F0E1F900F08FF92B68002BC6D18C
:1034D80061782078114A41EA0023138018B2FDF779
:1034E800B3FBE378A1780E4A43EA01210D4B106043
:1034F800198008B2FDF7A8FB2179627942EA012315
:1035080009490A4A0860138018B2FDF79DFB084B69
:10351800186038BD9C1A0020881A0020581A00200C
:10352800901A0020841A0020701A0020821A0020A5
:10353800601A002038B54C4C0023236000F02EF9A7
:10354800D02000F0C9F900F025F900F08FFE00F056
:1035580021F92068002845D000F046F92368002B9F
:103568003FD1424C424A6178207841EA00231380D7
:1035780018B2FDF769FB3F490968FDF7AFFA4BF24E
:10358800FD31C3F68B11FDF7B3FBA278E37843EA6C
:103598000221394A394B1060198008B2FDF754FBF3
:1035A80037490968FDF79AFA4BF2FD31C3F68B11DA
:1035B800FDF79EFB2279637943EA0221314A324BB7
:1035C8001060198008B2FDF73FFB30490968FDF724
:1035D80085FA4BF2FD31C3F68B11FDF789FB2C4AB6
:1035E800106038BD432000F077F900F0D3F800F000
:1035F8003DFE21680029AFD100F0F6F800F0CEF8C2
:10360800D12000F069F900F031FE00F0C3F822681B
:10361800002AA1D100F0B6FA144D287000F00CF978
:1036280000F0B8F800F0AEFA687000F005F900F0A4
:10363800B1F800F0A7FAA87000F0FEF800F0AAF8B8
:1036480000F0A0FAE87000F0F7F800F0A3F800F036
:1036580099FA287100F0F0F800F09CF800F092FA5E
:10366800687100F011F977E79C1A00207C1A002095
:103678005A1A0020741A00206C1A0020681A0020B8
:10368800541A00205C1A0020781A0020641A0020BE
:10369800941A00202DE9F04F384EDFF8ECA0384D91
:1036A800DFF8E890374CDFF8E88083B00027FFF7B1
:1036B80041FFBAF90000FDF7C7FA3168FDF710FAC3
:1036C8003060B9F90000FDF7BFFA2968FDF708FA7C
:1036D8002860B8F90000FDF7B7FA2168FDF700FA8D
:1036E8002060022002F0B2F8FFF724FFBAF90000C8
:1036F800FDF7AAFA3168FDF7F3F93060B9F900006F
:10370800FDF7A2FA2968FDF7EBF92860B8F900007F
:10371800FDF79AFA2168FDF7E3F90137FFB2206057
:10372800022002F093F8781CC7B2642FDFF84CB07F
:10373800134A144BBBD10021DBF80000C4F2C821A6
:1037480001920093FDF788FBCBF800000198002157
:103758000068C4F2C821FDF77FFB019A009B002195
:103768001060C4F2C8211868FDF776FB009908605C
:10377800052003B0BDE8F04F02F068B8741A0020C5
:10378800541A0020641A00205A1A0020681A0020CF
:10379800781A0020012002F051B800BF10B54FF48C
:1037A8004064C4F20104204601224FF40061FEF790
:1037B8004DFA204601224FF48061FEF747FAFFF7E1
:1037C800E9FF204600224FF40061FEF73FFAFFF7B9
:1037D800E1FF20464FF480610022FEF737FABDE88A
:1037E8001040FFF7D7BF00BF10B54FF44064C4F2D4
:1037F8000104204600224FF48061FEF727FAFFF704
:10380800C9FF204600224FF40061FEF71FFAFFF7B8
:10381800C1FF204601224FF48061FEF717FAFFF737
:10382800B9FF20464FF400610122FEF70FFABDE808
:103838001040FFF7AFBF00BF10B54FF44064C4F2AB
:103848000104204600224FF48061FEF7FFF9FFF7DC
:10385800A1FF204600224FF40061FEF7F7F9FFF7B9
:1038680099FF204601224FF48061FEF7EFF9FFF738
:1038780091FF20464FF480610022FEF7E7F9BDE88A
:103888001040FFF787BF00BF10B54FF44064C4F283
:103898000104204600224FF48061FEF7D7F9FFF7B4
:1038A80079FF204601224FF40061FEF7CFF9FFF7B8
:1038B80071FF204601224FF48061FEF7C7F9FFF738
:1038C80069FF20464FF480610022FEF7BFF9BDE88A
:1038D8001040FFF75FBF00BF10B504464FF44060CB
:1038E800C4F201004FF480610022FEF7AFF9FFF740
:1038F80051FF4FF440602206C4F201004FF400610A
:1039080000F120810022FEF7A1F96000C4B2FFF7A0
:1039180041FF4FF440600122C4F201004FF480617E
:10392800FEF794F9FFF736FF4FF44060C4F2010048
:103938004FF480610022FEF789F9FFF72BFF4FF45F
:1039480040602306C4F201004FF4006100F1FE80DC
:103958000022FEF77BF96100CCB2FFF71BFF4FF4A2
:1039680040600122C4F201004FF48061FEF76EF955
:10397800FFF710FF4FF44060C4F201004FF480617C
:103988000022FEF763F9FFF705FF4FF440602206B7
:10399800C4F201004FF4006100F1DC800022FEF760
:1039A80055F96200D4B2FFF7F5FE4FF440600122EA
:1039B800C4F201004FF48061FEF748F9FFF7EAFE10
:1039C8004FF44060C4F201004FF480610022FEF71A
:1039D8003DF9FFF7DFFE4FF440602306C4F2010013
:1039E8004FF4006100F1BA800022FEF72FF963005E
:1039F800DCB2FFF7CFFE4FF440600122C4F20100B1
:103A08004FF48061FEF722F9FFF7C4FE4FF44060DF
:103A1800C4F201004FF480610022FEF717F9FFF7A6
:103A2800B9FE4FF440602206C4F201004FF4006171
:103A380000F198800022FEF709F96000C4B2FFF790
:103A4800A9FE4FF440600122C4F201004FF48061E6
:103A5800FEF7FCF8FFF79EFE4FF44060C4F2010049
:103A68004FF480610022FEF7F1F8FFF793FE4FF460
:103A780040602306C4F201004FF4006176D40022AE
:103A8800FEF7E4F86100CCB2FFF784FE4FF4406023
:103A98000122C4F201004FF48061FEF7D7F8FFF766
:103AA80079FE4FF44060C4F201004FF480610022B7
:103AB800FEF7CCF8FFF76EFE4FF440602206C4F222
:103AC80001004FF4006155D40022FEF7BFF8FFF75C
:103AD80061FE4FF440600122C4F201004FF480619E
:103AE800FEF7B4F8FFF756FE4FF44060C4F2010049
:103AF8004FF480610022FEF7A9F8FFF74BFE4FF460
:103B080040606306C4F201004FF4006136D400221D
:103B1800FEF79CF8FFF73EFE4FF440600122C4F226
:103B280001004FF48061FEF791F8FFF733FE4FF480
:103B38004060C4F201004FF480610022BDE81040EB
:103B4800FEF784B80122FEF781F8DEE60122FEF7CF
:103B58007DF800E70122FEF779F822E70122FEF757
:103B680075F844E70122FEF771F866E70122FEF7CF
:103B78006DF887E70122FEF769F8A8E70122FEF74A
:103B880065F8C7E74FF440602DE9F0470122C4F219
:103B980001004FF40061FEF759F84FF4406000222D
:103BA800C4F201004FF48061FEF750F8FFF7F2FD10
:103BB8004FF440600122C4F201004FF48061FEF727
:103BC80045F84FF440604FF40061C4F20100FEF77D
:103BD80033F804464FF440604FF40061C4F201002A
:103BE800FEF72AF807464FF440604FF40061C4F22C
:103BF8000100FEF721F881464FF440604FF4006160
:103C0800C4F20100FEF718F880464FF440604FF404
:103C18000061C4F20100FEF70FF806464FF4406059
:103C28004FF40061C4F20100FEF706F805464FF4B0
:103C380040604FF40061C4F20100FDF7FDFF09EB9D
:103C48000803D9198A1957193E184FF440604FF4E0
:103C58000061C4F20100FDF7EFFF341904F0FF051D
:103C68002B184FF44060DFB20022C4F201004FF479
:103C78008061032F8CBF02241446FDF7E7FFFFF78E
:103C880089FD4FF440600122C4F201004FF48061C5
:103C9800FDF7DCFF4FF440604FF40061C4F201000F
:103CA800FDF7CAFF05464FF440604FF40061C4F2C7
:103CB8000100FDF7C1FF81464FF440604FF40061F9
:103CC800C4F20100FDF7B8FF82464FF440604FF49C
:103CD8000061C4F20100FDF7AFFF80464FF4406079
:103CE8004FF40061C4F20100FDF7A6FF07464FF448
:103CF80040604FF40061C4F20100FDF79DFF0646E5
:103D08004FF440604FF40061C4F20100FDF794FFE6
:103D18000AEB090101EB0802D3199F193E184FF469
:103D280040604FF40061C4F20100FDF785FF75198A
:103D380005F0FF073818C1B2032988BF44F0010411
:103D48004FF4406088BFE4B2C4F2010000224FF48F
:103D58008061FDF77BFFFFF71DFD4FF440600122F6
:103D6800C4F201004FF48061FDF770FF4FF440602A
:103D78004FF40061C4F20100FDF75EFF05464FF401
:103D880040604FF40061C4F20100FDF755FF814621
:103D98004FF440604FF40061C4F20100FDF74CFF9E
:103DA80082464FF440604FF40061C4F20100FDF711
:103DB80043FF80464FF440604FF40061C4F20100B5
:103DC800FDF73AFF07464FF440604FF40061C4F234
:103DD8000100FDF731FF06464FF440604FF40061E3
:103DE800C4F20100FDF728FF0AEB090202EB080301
:103DF800D9198F193E184FF440604FF40061C4F28E
:103E08000100FDF719FF751905F0FF073818C2B250
:103E18006400032A84BF44F00104E4B24FF4406014
:103E280063000022C4F201004FF48061DCB2FDF7A8
:103E38000DFFFFF7AFFC4FF440600122C4F2010010
:103E48004FF48061FDF702FF4FF440604FF40061CA
:103E5800C4F20100FDF7F0FE05464FF440604FF450
:103E68000061C4F20100FDF7E7FE81464FF44060AF
:103E78004FF40061C4F20100FDF7DEFE82464FF404
:103E880040604FF40061C4F20100FDF7D5FE8046A2
:103E98004FF440604FF40061C4F20100FDF7CCFE1E
:103EA80007464FF440604FF40061C4F20100FDF78B
:103EB800C3FE06464FF440604FF40061C4F20100AF
:103EC800FDF7BAFE0AEB090101EB0802D3199F19A5
:103ED8003E184FF440604FF40061C4F20100FDF752
:103EE800ABFE751905F0FF073818C1B203294FF466
:103EF800406088BF44F00104C4F2010000224FF47E
:103F08008061FDF7A3FEFFF745FC4FF440600122F6
:103F1800C4F201004FF48061FDF798FE4FF4406051
:103F28004FF40061C4F20100FDF786FE05464FF428
:103F380040604FF40061C4F20100FDF77DFE814648
:103F48004FF440604FF40061C4F20100FDF774FEC5
:103F580082464FF440604FF40061C4F20100FDF75F
:103F68006BFE80464FF440604FF40061C4F20100DC
:103F7800FDF762FE07464FF440604FF40061C4F25B
:103F88000100FDF759FE06464FF440604FF400610A
:103F9800C4F20100FDF750FE0AEB090202EB080328
:103FA800D9198F193E184FF440604FF40061C4F2DC
:103FB8000100FDF741FE751905F0FF073818C2B278
:103FC8006400E4B2032A4FF4406088BF44F001045F
:103FD800C4F2010000224FF48061FDF737FEFFF7BD
:103FE800D9FB4FF440600122C4F201004FF4806114
:103FF800FDF72CFE4FF440604FF40061C4F201005D
:10400800FDF71AFE05464FF440604FF40061C4F214
:104018000100FDF711FE81464FF440604FF4006146
:10402800C4F20100FDF708FE82464FF440604FF4E9
:104038000061C4F20100FDF7FFFD80464FF44060C7
:104048004FF40061C4F20100FDF7F6FD07464FF496
:1040580040604FF40061C4F20100FDF7EDFD064633
:104068004FF440604FF40061C4F20100FDF7E4FD35
:104078000AEB090303EB0801CA1997193E184FF414
:1040880040604FF40061C4F20100FDF7D5FD7519D9
:1040980005F0FF073818C3B26400E4B2032B4FF4ED
:1040A800406088BF44F00104C4F2010000224FF4CC
:1040B8008061FDF7CBFDFFF76DFB4FF440600122F7
:1040C800C4F201004FF48061FDF7C0FD4FF4406079
:1040D8004FF40061C4F20100FDF7AEFD05464FF450
:1040E80040604FF40061C4F20100FDF7A5FD814670
:1040F8004FF440604FF40061C4F20100FDF79CFDED
:1041080082464FF440604FF40061C4F20100FDF7AD
:1041180093FD80464FF440604FF40061C4F2010003
:10412800FDF78AFD07464FF440604FF40061C4F282
:104138000100FDF781FD06464FF440604FF4006131
:10414800C4F20100FDF778FD0AEB090101EB080252
:10415800D3199F193E184FF440604FF40061C4F220
:104168000100FDF769FD751905F0FF073818C1B2A0
:104178006400E4B203294FF4406088BF44F00104AE
:10418800C4F2010000224FF48061FDF75FFDFFF7E4
:1041980001FB4FF440600122C4F201004FF480613A
:1041A800FDF754FD4FF440604FF40061C4F2010084
:1041B800FDF742FD05464FF440604FF40061C4F23C
:1041C8000100FDF739FD81464FF440604FF400616E
:1041D800C4F20100FDF730FD82464FF440604FF411
:1041E8000061C4F20100FDF727FD80464FF44060EE
:1041F8004FF40061C4F20100FDF71EFD07464FF4BD
:1042080040604FF40061C4F20100FDF715FD064659
:104218004FF440604FF40061C4F20100FDF70CFD5B
:104228000AEB090202EB0803D9198A1913184FF48B
:1042380040604FF40061C4F201005D19FDF7FCFC19
:1042480005F0FF054019C1B26400E4B203294FF438
:10425800406088BF44F00104C4F201004FF480615B
:104268000022FDF7F3FC2046BDE8F0874FF44060DC
:1042780008B50022C4F201004FF48061FDF7E6FCA6
:10428800FFF788FA4FF440600122C4F201004FF4AE
:104298000061FDF7DBFCFFF77DFA4FF44060012277
:1042A800C4F201004FF48061FDF7D0FCFFF772FA09
:1042B8004FF44060C4F201004FF40061FDF7BCFC0C
:1042C80001280AD04FF44060C4F201004FF4806125
:1042D8000022BDE80840FDF7B9BC044B186001F0A6
:1042E80089FA03480268511C0160EBE79C1A002018
:1042F800981A002010B5084C23685A1CB3F57A7F29
:10430800226008DD01F06AFA00F0B4FC5720FEF7DD
:10431800DDF80020206010BD4C0B002008B50121FD
:1043280042F67D20FDF766FD0F200121C0F208004E
:10433800FDF76EFD01200146BDE80840FDF74CBDC4
:1043480000B54FF4A06083B0FDF7D4F901233422FF
:10435800002101A88DF804208DF805308DF806108D
:104368008DF80730FDF7D0F903B000BD40F64833AB
:10437800C2F200031868704708B501F073F8FFF738
:10438800CDFF00F057F901F019FA0A2001F05EFAA2
:1043980001F01CFA322001F059FAFEF71DF83248F4
:1043A800FEF728F83148FEF725F8FFF7C9FF30482F
:1043B800FEF720F800F08CFC4FF4FA6001F046FAA2
:1043C80002F03EFB00283FD12A4A4FF48053C4F242
:1043D800020318684DF683611368C4F21B3110F4A8
:1043E800003FA1FB030114BF23482448890CFEF7B2
:1043F80001F82348FDF7FEFFFDF776FF2148FDF79A
:10440800F9FF04E02048FDF7F5FF01F003FAFEF795
:1044180051FF0028F6D11D48FDF7ECFFFEF7F4F92F
:104428001B48FDF7E7FFFFF735F91A48FDF7E2FFEC
:1044380000F0E0FCFEF7FEFE1748FDF7DBFF17482B
:10444800BDE8084001F008B81548FDF7D3FF40F66D
:10445800B83001F0FBF902F0F3FA0128B4D11148A1
:10446800FDF7C8FFB0E700BFB0D50008D4D50008F5
:10447800E4D50008B001002048D6000880D600081E
:10448800BCD60008CCD60008E0D6000804D700083F
:1044980018D7000834D7000844D70008FD420008A0
:1044A800F8D5000814D600082DE9F84FFFF764FF87
:1044B80000F0B6FF044600F0B3FF8442FBD000F0E2
:1044C80083FF054672B64FF0000840F2F31600F07D
:1044D8007BFF401BB04208F10108F8D962B600F032
:1044E80073FFDFF890B0DFF890A005464FEA480860
:1044F800002740F2CF76002400F066FF8146401B7B
:104508000134B042F8D9FCF79BFB05462046FCF77E
:104518009BFB0021C4F2C821FCF7EAFB0021C4F28E
:104528007A41FCF7E5FB2946FCF796FC0446404631
:10453800FCF78AFB01462046FCF78EFCDAF80020DF
:10454800CBF800008AB94FF41051C4F6741128460C
:10455800FCF782FCFEF7B2FB40F64C33C2F20003D4
:104568001F604D46FDF7B4FFC5E700F083FB01F07F
:1045780051F9F1E7480B00200C120020012830B453
:1045880009D002281AD0174B09221A604FF0FF32BF
:10459800104630BC7047002AFADD4FF4984488185A
:1045A800C4F20004238803F040039BB2002BF9D027
:1045B80011F8013B8142A380F4D1E9E7002AE7DD45
:1045C8004FF498448D18C4F20004208800F040038A
:1045D80098B20028F9D011F8013BA942A380F4D180
:1045E800D6E700BF841B00200D4A08B513689BB1AD
:1045F800EFF308811818884202D81060184608BDE1
:10460800192202200749FFF7B9FF074B0C221A604D
:104618004FF0FF33184608BD044B1360E8E700BFAE
:10462800500B00205CD70008841B0020881B00204A
:10463800704700BF2DE9F0474FF4006782B0C4F21D
:1046480001074FF4406418260225C4F201044FF410
:10465800E063384601A9ADF804308DF807608DF89D
:104668000650FDF7B7F94FF46042204601A9ADF8AE
:1046780004208DF807608DF80650FDF7ABF94FF46C
:1046880080504FF4E07A01A9C4F20100ADF804A00B
:104698008DF807608DF80650FDF79CF980233846A1
:1046A80001A9ADF804304FF003088DF807608DF8C4
:1046B8000650FDF78FF9204601A9ADF804808DF862
:1046C80007608DF80650FDF785F9384601A90727D8
:1046D800ADF804708DF807608DF80650FDF77AF98B
:1046E800204601A94FF01009ADF804A08DF8076025
:1046F8008DF80650FDF76EF94FF48052204601A957
:10470800ADF804208DF807908DF80680FDF762F962
:104718002023204601A9ADF804308DF807908DF8C4
:104728000680FDF757F94FF440621423204601A98B
:104738004746ADF804208DF807308DF80680FDF760
:1047480049F902B0BDE8F08738B504460D46FDF7D3
:10475800E7FB20462946FDF73FFC20462946FDF7A2
:1047680085FC20460821FDF7FDFC20460821FDF7C1
:1047780001FD20460821BDE83840FDF705BD00BF12
:1047880070B58CB00024032201A94FF47A7605464F
:10479800ADF80420ADF80860ADF80640ADF80A4061
:1047A8008DF80C40FDF750FB40F29C10C2F200005F
:1047B80003684FF40062ADF810204FF480624FF4A4
:1047C8008076284604A9ADF81220ADF816304FF4CB
:1047D80080424FF40053ADF81A30ADF81C20ADF804
:1047E8001460ADF81840FDF78BFC6023ADF820305D
:1047F80001220423284608A9ADF82220ADF8243068
:10480800ADF82640ADF82840ADF82A40ADF82C6048
:10481800ADF82E40FFF798FF0CB070BD70B50323BC
:1048280088B006460D46002401A9ADF804304FF4BF
:104838007A724FF40073ADF80820ADF80A30ADF87D
:104848000640FDF701FB60220123304604A9ADF8BC
:104858001020ADF81230ADF81640ADF81850FFF73B
:1048680073FF08B070BD00BF00B583B000238DF89A
:104878000400012101A88DF805308DF806308DF867
:104888000710FCF741FF03B000BD00BF124A30B467
:1048980013680468C3F5FA714900E31A8B42A8BF8C
:1048A8000B46036014684568A342B8BF0023036041
:1048B80013688468EA1AE41A8A42A8BF0A468C4236
:1048C800B8BF21469A42B8BF00228B42C8BF002118
:1048D8004260816030BC704794010020F8B5364BC7
:1048E80005461C680E46204600211746FCF7B2FB19
:1048F800002858D040F6DB71C4F2C9012046FCF705
:10490800ABFA4FF08941FCF7F3F900F0B5FFFCF77B
:10491800B5FB40F2FF33C8F200030340002B44DB31
:10492800002BB8BF03F5806303F2551603F2AB24DE
:104938002248B105A2058E0D940D30F9131030F9F7
:10494800163030F9140007EB870707FB00F207FB66
:1049580001F107FB03F301F57F51032403F57F53AE
:1049680002F57F523F31C8F201043F333F3284FBE6
:10497800010684FB037084FB0274C018CF17DB1791
:10498800A4187618D217C7EBA631C3EBA037C2EB31
:10499800A43001F5FA7107F5FA7300F5FA7285E8A3
:1049A8000A00AA60F8BD3446A4E7581E6FEA805191
:1049B8006FEA9152531CB3E7900100205412002073
:1049C80000B5034685B00A4601A81946FFF786FFD9
:1049D80072B640F65430019A0299039BC2F2000065
:1049E80002604160836062B672B64FF45050C4F200
:1049F8000100028A22F001010B041A0C0121028233
:104A0800818162B605B000BD00B5034685B00A468F
:104A180001A81946FFF762FF72B640F66030019AA6
:104A28000299039BC2F2000002604160836062B693
:104A380072B64FF43050C4F20100028A22F001012C
:104A48000B041A0C01210282818162B605B000BDF7
:104A580000B585B00A46014601A8FFF73FFF01A847
:104A6800FFF714FF72B640F66C33019A0298039967
:104A7800C2F200031A605860996062B640F2981357
:104A8800C2F2000300221A6072B64FF44060C4F20A
:104A98000000018A21F001031A04110C012301828C
:104AA800838162B605B000BD4FF44063C4F20003D1
:104AB8001A8AF0B4D2071AD5188A20F001010C041A
:104AC800220C1A8272B6294A294994689B8C8868F4
:104AD80001349BB29460274A8342C8BF8B609168B7
:104AE8008B42B8BF9360B3F5487F02D362B6F0BC7F
:104AF80070472148036833BB204E214D37682C8806
:104B0800A88829897A0093B21F191E185D184FF4D6
:104B180000624FF44063C4F20002C4F20003BFB263
:104B2800B6B2ADB29786168795879C8618879987FF
:104B38004FF44062C4F20002938923F0010001049B
:104B48000B0C9381D2E74FF400624FF44063C4F238
:104B5800000240F2E930C4F2000300219086108779
:104B68009087998619879987E2E700BFB81A0020CD
:104B7800A01A0020AC1A00209801002094010020FF
:104B88006C0B00204FF43052C4F20102138A10B4A7
:104B980023F0010001040C0C148272B61349144866
:104BA800938C4C6842689BB201349342C8BF4360FF
:104BB80010484C6041688B42B8BF4360B3F5487FEA
:104BC80010D20D4A4FF43053108891881289C4F2DC
:104BD8000103988619879A87988920F001010A04A9
:104BE800100C988162B610BC704700BFB81A00203C
:104BF800A01A0020AC1A0020600B00204FF450527D
:104C0800C4F20102138A10B423F0010001040C0C51
:104C1800148272B613491448938C0C6802689BB2CC
:104C280001349342C8BF036010480C6001688B428E
:104C3800B8BF0360B3F5487F10D20D4A4FF4505304
:104C4800108891881289C4F20103988619879A8777
:104C5800988920F001010A04100C988162B610BCF2
:104C6800704700BFB81A0020A01A0020AC1A002014
:104C7800540B002010B54120FDF728FC72B640F611
:104C88005432C2F20002002313605360936062B68C
:104C980072B640F66030C2F2000003604360836081
:104CA80062B640F298124FF440644FF430504FF41B
:104CB80050510123C2F20002C4F20004C4F2010000
:104CC800C4F201011360A38183818B8110BD00BFF1
:104CD8002DE9F0414FF43056C4F2010641F6B821EF
:104CE80041F6A02241F6AC234FF450550024C2F2FD
:104CF8000002C2F20003C2F2000140F2E937304676
:104D0800C4F201054FF440689460546014609F60D9
:104D18005F601F608C604C600C60C4F20008FFF795
:104D28002FFD4FF400672846FFF72AFDC4F200075D
:104D380040462146FFF772FD02213846FFF76EFD17
:104D480040F29410C2F200000388322003F5A871E3
:104D580003F29F2289B292B2BB84B184AA84FFF77E
:104D680083FD1920FFF780FD2C20FFF77DFD72B62B
:104D78004FF400402146024603460124C4F225228E
:104D8800C4F22623C4F20120C4F2012104600C609D
:104D98004046146021461C60FDF7D4F93846214688
:104DA800FDF7D0F930462146FDF7CCF928462146D3
:104DB800FDF7C8F962B6BDE8F08100BF10B54FF441
:104DC800806484B0C4F200044722002301A920466D
:104DD800ADF804204FF6FF72ADF80630ADF80820A4
:104DE800ADF80A30FDF730F820460121FDF79CF9AF
:104DF80004B010BD30B54FF4007085B00121C0F289
:104E08003000FCF72DFF4FF44060282318240325B9
:104E180001A9C4F201008DF80730ADF804408DF8FF
:104E28000650FCF7D7FD01202946FCF755FF042161
:104E38000120FCF751FF00211022012302A88DF860
:104E48000C108DF80D208DF80E300294FCF776FDCD
:104E58002046FCF7B1FD2046FCF7B6FD4FF4614053
:104E6800CEF200004FF400714FF4806201600260DE
:104E7800FFF7A4FF05B030BD40F67833C2F2000357
:104E88001868704710B54FF48064C4F20104636970
:104E9800190700D410BD3320FDF718FB61694FF4E2
:104EA800406041F0080262610821C4F20100FCF789
:104EB800C3FE012823D0164C4FF44060C4F2010011
:104EC8000821FCF7B9FE88B112490B8822886FF4D3
:104ED8007A71981A83B25A1890B240F2E631884231
:104EE800D8D80D4AA3F57A73136010BD4FF48062C9
:104EF800C4F20002908C074983B20B80E6E74FF4B6
:104F08008060C4F20000838C014C2380D4E700BF8A
:104F1800860B0020840B0020780B002040F67C33A1
:104F2800C2F200031868704710B54FF48064C4F2E9
:104F380001046369DB0600D410BD3420FDF7C6FA0E
:104F480061694FF4406041F0100262611021C4F2BF
:104F58000100FCF771FE012823D0164C4FF4406085
:104F6800C4F201001021FCF767FE88B112490B88D2
:104F780022886FF47A71981A83B25A1890B240F264
:104F8800E6318842D8D80D4AA3F57A73136010BD6C
:104F98004FF48062C4F20002908C074983B20B8000
:104FA800E6E74FF48060C4F20000838C014C238054
:104FB800D4E700BF820B0020800B00207C0B002070
:104FC80000230360C0F80C1243608360704700BF81
:104FD8004FF40070704700BF4268036840F2FF104A
:104FE800D11A01F50072C8F200001040002800DB59
:104FF800704701386FEAC0536FEAD351481C7047B5
:1050080038B542B340F2FF1501E0AB4213D1446812
:10501800026840F2FF13A21A02F50072C8F20003F8
:105028001340002BF1DA013B6FEAC3526FEAD25307
:105038000133AB42EBD043684268C318197340F29E
:10504800FF118A421BD04268531C4360D0F80C02FF
:1050580000B1804738BD4468026840F2FF13A21AC5
:1050680002F50072C8F200031340002B0ADB40F27D
:10507800FF129342DFD181684B1C836038BD002149
:105088004160E3E7013B6FEAC3526FEAD253013351
:1050980040F2FF129342CED1EDE700BFF8B50446C7
:1050A8000E461546002B34D040F2FF1702E0E818F0
:1050B800B84214DD6068216840F2FF13421A02F515
:1050C8000070C8F200030340002BF0DA013B6FEADE
:1050D800C3516FEAD152531CE818B842EADC67683A
:1050E8006268C7F50077BD42314604EB020028DD4F
:1050F8003A46ED1B0C3003F0B9FA04F10C00F11933
:105108002A4603F0B3FA6560D4F80C1201B1884757
:10511800F8BD4168026840F2FF13881A00F5007173
:10512800C8F200030B40002B18DBE918B1F5007F2B
:10513800D5DBA268D4F80C125519A5600029E6D170
:10514800E6E70C302A4603F091FA61684B19B3F58B
:10515800007F0ED0606845196560D5E7013B6FEAAE
:10516800C3526FEAD250431CE918B1F5007FB6DB91
:10517800DFE700226260C7E70168426803469142A0
:105188000ED0006819681A18107B40F2FF1291427D
:1051980003D019684A1C1A607047002119607047CB
:1051A8004FF0FF30704700BF704700BFFEE700BFF9
:1051B800FEE700BFFEE700BFFEE700BF704700BF85
:1051C800704700BF704700BF01F056BC4FF4802005
:1051D800FCF7FABB10B5044600F0F6F820606060F2
:1051E80010BD00BF10B5044600F0EEF863686060BB
:1051F800C01A10BD05C8101A704700BF4FF480537D
:10520800C4F202035A6802F00C00082811D04FF4C7
:105218009052C0F27A024FF48053C4F202035868E5
:105228001049C0F30313C85C0F4B22FA00F21A604E
:10523800704758685968C0F383420232C90309D5D8
:105248005B689B0306D44FF49050C0F27A0000FBD1
:1052580002F2E0E74FF41061C0F23D0101FB02F2F7
:10526800D9E700BFA0010020B00100204FF480530F
:10527800C4F20203196800B541F0010018605968CA
:105288000022CFF6FF020A405A601A68002122F075
:10529800847020F480321A60186883B020F4802269
:1052A8001A6058681A4620F4FE0058604FF41F0030
:1052B800986000910191196841F48030186003E00A
:1052C8000098B0F5A06F09D0136803F4003101917C
:1052D8000098431C009301990029F1D04FF48052A3
:1052E800C4F20202136813F400314DD0012001907A
:1052F8004FF40052C4F20202019B1168012B41F0E5
:105308001000106011684FF4805321F00300106002
:105318001068C4F2020340F0020010605A6819468F
:105328005A60586858605A6842F4806058605A68F1
:1053380022F47C1058605A6828D042F460105860F3
:105348001A6842F0807018600A684FF48053900120
:10535800C4F20203F8D55968184621F003025A60CE
:10536800596841F002025A60436803F00C010829A9
:10537800FAD1FFF743FF4FF46D40CEF200004FF033
:105388000062826003B000BD0191B1E742F4E81009
:1053980058601A6842F0807018600A684FF48053A9
:1053A8009201C4F20203F8D55968184621F00302A5
:1053B8005A60596841F002025A60436803F00C01D0
:1053C8000829FAD1D7E700BF30B413494EF21004C8
:1053D800CEF200044EF210020B68CEF20002A5686D
:1053E80000BF00BF08688342F4D11168C90348BFF1
:1053F80095684EF21002CEF200025068074A48BF84
:105408000133411C10684D1BB5FBF0F54FF47A7160
:1054180001FB035030BC7047880B0020B40100200A
:1054280040F68833C2F200031868704708B572B6B0
:10543800074B4EF21002CEF2000212681868411CA7
:10544800196062B6034B1A6802B1904708BD00BFE5
:10545800880B00208C0B002040F68C33C2F200032E
:1054680018607047134B44F6D3511A68C1F26201B1
:105478004DF68363A1FB0201C4F21B33A3FB0202B6
:105488008809930C411E0C4AB1F1807F13600FD23A
:105498004EF21000CEF200004FF46D434160CEF2A0
:1054A8000003F02183F823100022072382600360A1
:1054B800704700BFB0010020B40100204FF49840AD
:1054C800C4F2000040F227710122FCF7F1BE00BFD0
:1054D80040F6A050C2F20000FFF74EBE40F6A050C2
:1054E800C2F20000FFF778BD014640F69030C2F2E4
:1054F80000000122FFF784BD10B50446007828B1EA
:10550800FFF7F2FF14F8010F0028F9D110BD00BF12
:105518004FF49843C4F2000370B52A4A1D881168F5
:10552800ADB205F08000013180B2116090B1264C17
:1055380021686268914231D026682046A1190A7B09
:105548009A802668FFF744FD0136864233D02368E7
:10555800581C206005F02005ADB205B970BD1B4C84
:105568004FF49842C4F2000220469688FFF734FDB3
:1055780005462046FFF72CFD6B1C8342B6B216D0B9
:1055880061682046621865681673FFF721FD0135CA
:10559800854213D06068431C636070BD184640F2B2
:1055A80027710022FCF784FE00BF00BFD2E7A26883
:1055B800501CA06070BD00212160CBE70021616014
:1055C80070BD00BFC41A0020900B0020A00D002061
:1055D80040F6903045F2C54108B5C2F20000C0F669
:1055E8000001FFF7EDFC40F6A050C2F200000021D8
:1055F800BDE80840FFF7E4BC30B54FF4805589B0EA
:10560800C4F201051822284601A94FF48063032437
:10561800ADF804308DF807208DF80640FCF7DAF96C
:105628004FF4984428224FF4006301A92846C4F295
:105638000004ADF804308DF80720FCF7CBF902A878
:10564800FCF722FE204602A9FCF70CFE4FF4165286
:10565800002304A9204604920C22ADF81430ADF8BA
:105668001630ADF81830ADF81C30ADF81A20FCF73C
:1056780093FD2046012240F22551FCF719FE2046F1
:105688000121FCF707FEFFF7A3FF09B030BD00BFFB
:1056980040F6B073C2F200039868704738B50F4CF3
:1056A800256861682368C91A00290FD00FDB6019C3
:1056B800C9B20C3001F032F925682D180748FFF7F8
:1056C80087FC95FBF0F303FB1050206038BD2046A3
:1056D800FFF77EFC2268811AE9E700BFB00F0020BF
:1056E80008B5064B186800B108BDFFF799FE0449D4
:1056F8000860BDE80840FFF7D1BF00BF0C1B0020C1
:10570800C011002008B541F2C41241F60C33C2F2B0
:105718000002C2F200030121002011601860FFF7A7
:105728007FFE41F2C012C2F200021060BDE80840DC
:10573800FFF7B4BF08B501F059F801F08FF801F090
:10574800A9F800F063FD40F6B07045F2E961C2F2D5
:105758000000C0F60001BDE80840FFF731BC00BFFB
:1057680038B505460C4601F049F940B1064B1868B2
:1057780038B10648294622460023FFF78FFC204609
:1057880038BD034A1060F4E7C4110020B00F0020B0
:105798000C1B002041F65833C2F20003186870470A
:1057A800054B10B51C688C42A8BF0C46214601F079
:1057B800D9F8204610BD00BF581B00204FF44060A8
:1057C800C4F201004FF48051FCF73CBA4FF440603A
:1057D800C4F201004FF48051FCF736BA08B572B62E
:1057E8004FF44060C4F201004FF48051FCF734FAE2
:1057F80062B608BD4FF44060C4F201002021FCF7F6
:1058080021BA00BF4FF44060C4F201002021FCF728
:105818001BBA00BF10B542204FF41F44FCF756FED8
:10582800C0F22404FFF7CAFF20460138FDD8FFF76D
:10583800CDFF20460138FDD810BD00BF00EB400069
:10584800830018460138FDD8704700BF42F6E06370
:1058580003FB00F108460138FDD87047002108B560
:10586800C4F23431FBF744FA40F6DB71C4F2490163
:10587800FBF7F2FA08BD00BF10B500210446FBF79C
:10588800E9FB28B120464FF07C51FBF729F910BD00
:1058980020464FF07C51FBF721F910BD08B538B10F
:1058A800064B186801688847054A10680A3008BD21
:1058B800034B012219680A8208BD00BFF41A0020B0
:1058C800F81A002008B538B1064B1868816888476F
:1058D800054A10680C3008BD034B012219680A827A
:1058E80008BD00BFF41A0020F81A002008B50028E7
:1058F8003BD0234B234800211A680180137813F00A
:105908007F0312D1537A03F02002D1B259BB027837
:1059180003F04003D9B211B342F0010303701A48EF
:1059280001680A699047174808BD012B16D0022B59
:1059380013D1517901F00F02930003F1804202F56F
:10594800B84311F0800F196814D101F44052B2F530
:10595800805FE4D101210170E1E7084608BD22F02B
:1059680001020270DBE70222D2E7054B0222196826
:105978000A8208BD01F03003102BD0D1EAE700BF3E
:10598800F81A0020C81A0020F41A00202DE9F04166
:10599800274E3468238A277A23B9042F2AD0A58A68
:1059A800042703E0A58AAB42FAD902279D4228BF03
:1059B8001D46A169284688478046002000F05AFE07
:1059C8002A460146404600F01DFD2946002000F009
:1059D80071FE208A628A431B2382AD181548164B34
:1059E800658230214FF44052346801801A80277252
:1059F800BDE8F081114A1178012906D00D48102719
:105A0800078007272772BDE8F08145F65041C4F2A8
:105A18000001086843F2020180B2C2F20001411895
:105A2800480004490360302008801370DFE700BF96
:105A3800F81A0020001B0020FE1A0020C8110020C0
:105A480010B50B4B0B4A18685178C378994201D2AC
:105A5800022010BD8278002AFAD18488002CF7D160
:105A68008372054801684B689847204610BD00BFFF
:105A7800F81A002098020020F41A002038B5104ABD
:105A8800104C116823688A695879D9789047236837
:105A9800997A09B9022038BD0028FBD11879002865
:105AA800F8D19D78002DF5D1074A1368D968884741
:105AB800236828465979DA78D9721A7338BD00BF35
:105AC800D01A0020F81A0020F41A002038B5354BF7
