:020000040800F2
:1000000060090020190200082102000823020008EC
:10001000250200082702000829020008000000004D
:100020000000000000000000000000002B0200089B
:100030002D020008000000002F0200083102000815
:1000400033020008330200083302000833020008BC
:1000500033020008330200083302000833020008AC
:1000600033020008310800089D0800083302000828
:10007000330200083302000833020008330200088C
:10008000330200083302000833020008330200087C
:10009000330200083302000833020008330200086C
:1000A000330200083302000833020008330200085C
:1000B000090900083302000833020008330200086F
:1000C000330200083302000833020008330200083C
:1000D000330200083302000833020008330200082C
:1000E000330200083302000833020008330200081C
:1000F000330200083302000833020008330200080C
:1001000033020008330200083302000833020008FB
:1001100065070008330200083302000833020008B4
:1001200033020008330200083302000833020008DB
:1001300000F002F800F061F80AA090E8000C824498
:100140008344AAF10107DA4501D100F056F8AFF275
:10015000090EBAE80F0013F0010F18BFFB1A43F0A5
:10016000010318478C5F0000AC5F00000A444FF0A9
:10017000000C10F8013B13F0070408BF10F8014B06
:100180001D1108BF10F8015B641E05D010F8016B4B
:10019000641E01F8016BF9D113F0080F1EBF10F8AF
:1001A000014BAD1C0C1B09D16D1E58BF01F801CBD2
:1001B000FAD505E014F8016B01F8016B6D1EF9D555
:1001C0009142D6D37047000000230024002500266A
:1001D000103A28BF78C1FBD8520728BF30C148BFAA
:1001E0000B607047632904F09080002070471FB5B2
:1001F00005F0A1FD1FBD10B510BD04F09BF8114620
:10020000FFF7F5FF00F07EFA04F0B9F803B4FFF74A
:10021000F2FF03BC04F0BEF80948804709480047D4
:10022000FEE7FEE7FEE7FEE7FEE7FEE7FEE7FEE7A6
:10023000FEE7FEE704480549054A064B7047000003
:10024000610B0008310100086003002060090020F4
:10025000600500206005002010B50446FC4884427B
:1002600009D10121880301F0D5FA00214FF4804023
:1002700001F0D0FA32E0F748844209D10121480464
:1002800001F0D5FA00214FF4003001F0D0FA25E05A
:10029000F148844209D10121880401F0C8FA002103
:1002A0004FF4802001F0C3FA18E0EC48844209D1F1
:1002B0000121C80401F0BBFA00214FF4002001F035
:1002C000B6FA0BE0E648844208D10121080501F0A6
:1002D000AEFA00214FF4801001F0A9FA10BD2DE90B
:1002E000F04786B005460E460024A24600BFA14650
:1002F0000027B08900B100BF2F462C8A4CF6FF7052
:100300000440F08804432C82AC894EF6F31004407C
:10031000B08831890843718908430443AC81AC8AB1
:100320004FF6FF400440B0890443AC8201A801F0BD
:10033000EAF9C748874202D1DDF810A001E0DDF8F4
:100340000CA0A88910F4004F08D00AEBCA0000EBFB
:100350000A1031684900B0FBF1F807E00AEBCA0067
:1003600000EB0A1031688900B0FBF1F86420B8FB9B
:10037000F0F004012009642101FB1089A88910F420
:10038000004F08D0322000EBC900B0FBF1F000F0C4
:100390000700044308E0322000EB09106421B0FBA1
:1003A000F1F000F00F0004432C8106B0BDE8F087A7
:1003B0004FF41651016000218180C18001810C2120
:1003C000418100218181704710B502460020108ACA
:1003D0004FF2FF0318400B884C8823438C8823433B
:1003E000CC8823431843108210BD00210180418036
:1003F0008180C180704721B1828942F4005282819C
:1004000004E082894DF6FF731A4082817047F0B58F
:1004100003460024002600250020A1F510676A3F4E
:1004200000D100BF1846C1F3421401F01F06012796
:1004300007FA06F5012C01D10C3004E0022C01D1A1
:10044000103000E014301AB107682F43076002E053
:100450000768AF430760F0BD10B51AB1838A0B433C
:10046000838204E0838ACC43A4B22340838210BDFC
:10047000028A4FF6F0731A400282028A0A4302820D
:10048000704782894FF2FF731A40828182890A4342
:100490008281704721B1828942F00202828104E0A8
:1004A00082894FF6FD731A4082817047028A4FF6A7
:1004B000DF731A400282028A0A430282704721B126
:1004C000028A42F48042028204E0028A4BF6FF7301
:1004D0001A4002827047C1F30802828070470146C9
:1004E0008888C0F308007047818941F0010181814B
:1004F0007047028BD2B20283028B42EA012202834E
:100500007047028B02F47F420283028B0A4302830C
:10051000704721B1828A42F02002828204E0828AFE
:100520004FF6DF731A408282704721B1828A42F00F
:100530001002828204E0828A4FF6EF731A408282B0
:10054000704721B1828A42F00802828204E0828AE6
:100550004FF6F7731A408282704721B1828942F4C4
:100560000042828103E08289C2F30E0282817047D9
:1005700021B1828A42F40062828204E0828A4FF2D0
:10058000FF731A4082827047828A4FF6FB731A40CB
:100590008282828A0A438282704721B1828A42F033
:1005A0000202828204E0828A4FF6FD731A40828240
:1005B000704702460020B1F5007F00D100BF1388CC
:1005C0000B4201D0012000E00020704701F40072CE
:1005D000B2F5007F00D100BFCA430280704770B5FA
:1005E00002460024002300250020A1F510666A3E83
:1005F00000D100BFC1F3421501F01F03012606FA26
:1006000003F3012D02D19689334006E0022D02D179
:10061000168A334001E0968A33400C12012606FA0E
:1006200004F41688344013B10CB1012000E000201E
:1006300070BD10B500220023A1F510646A3C00D102
:1006400000BF0A1201249440A3B2DC43048010BD11
:10065000003801400044004000480040004C004089
:100660000050004008B51820ADF8000028208DF893
:10067000030003208DF802006946BA4800F0FCFD33
:100680000321012000F00CFF0421012000F008FFED
:100690001820B54908600020087110204871012019
:1006A0008871084600F008FD182000F054FD18205D
:1006B00000F079FD092000F048F90A2000F045F922
:1006C00008BD08B54FF4E06000F078F934208DF8EB
:1006D000000000208DF8020001208DF8030068461C
:1006E00000F071F908BD10B5012142F67D2001F03E
:1006F00077F801219D4801F080F80121084601F0BA
:1007000062F810BDFFF7EFFF01F0DAFF01221103DD
:10071000944800F060FE0A2002F076F800224FF4C0
:100720008051904800F057FE322002F06DF803F03F
:10073000E9FC02F07DF802F0F7FB02F0A7F902F005
:10074000D3F8FFF7BEFFFFF78DFF01F089FF02F03E
:10075000F5FD06E003F065F900BF85480068002854
:10076000FBD0F7E770B501208249086000BF202167
:100770008148FFF71EFF0028F9D07F48FFF7AFFE42
:100780007E49086001221103764800F024FE7B4870
:10079000006867281DD1642002F036F878A17948F6
:1007A00003F00CFD774803F0F9FC00240FE0E0B201
:1007B00002F091FB0546012002F026F82A4672A1BC
:1007C000704803F0FBFC6F4803F0E8FC641C0C2C41
:1007D000EDDB6E480068012814D1684800686C4958
:1007E0006C4A126888546B480068401C694908606C
:1007F000084600680C2805DB002008606349086093
:1008000001F03FFF5D480068682802D101205F4980
:1008100008605A480068692802D1012055490860DB
:10082000564800686A2802D100205249086070BD0D
:1008300010B55948006810F0080F2ED056480068CF
:1008400040F00800544908600821464800F0A5FD22
:10085000012803D1514800885149086008214148C6
:1008600000F09BFD18B94D4800884E4908604D487E
:1008700000684B490968401A64280EDD4948006841
:1008800047490968401AC82807DA464800684449B9
:100890000968401A64384449086010BD10B53E48E4
:1008A000006810F0100F2ED03B48006840F0100098
:1008B0003949086010212B4800F06FFD012803D151
:1008C00036480088394908601021264800F065FD47
:1008D00018B93248008836490860354800683349FD
:1008E0000968401A64280EDD314800682F490968FC
:1008F000401AC82807DA2E4800682C490968401AAF
:1009000064382C49086010BD10B54FF08040008A53
:1009100010F0010F18D04FF08040008A20F0010045
:100920004FF0804108820120114908601148006899
:1009300020B921480068401C1F4908601E48006813
:10094000FA2801DD02F041F910BD00F01F0201217B
:10095000914042094FF0E02303EB8202C2F80011FC
:1009600070470000000C0140100000200F0008003C
:100970000000002038000020004C00401C00002037
:1009800078000000F00200202563000040000020F5
:10099000040000203C000020140401402404004016
:1009A0002000002024000020280000202C0000202F
:1009B0003000002034000020440000203149014371
:1009C000314A1160704770B5002100230F22C478AE
:1009D0000CB32D4C246804F4E064C4F5E064210AEF
:1009E000C1F10403CA40447804FA03F18478144046
:1009F00021430901254C0678A155047804F01F0510
:100A00000124AC4005786D114FF0E02606EB85051A
:100A1000C5F8004109E0047804F01F050124AC404A
:100A20001B4D0678761145F8264070BD194A0A40DC
:100A30000243154B1B1F1A60704739B1124A121D31
:100A400012680243104B1B1D1A6006E00E4A121D6D
:100A5000126882430C4B1B1D1A607047042808D192
:100A60004FF0E021096941F004014FF0E0221161EB
:100A700007E04FF0E021096921F004014FF0E02286
:100A8000116170470000FA050CED00E000E400E0A1
:100A900080E100E080FFFF1F00210020674A12680C
:100AA00042F48032654B1A6000BF644A126802F457
:100AB0000030491C10B9B1F5A06FF6D15F4A126839
:100AC00012F4003F01D0012000E00020012842D1B3
:100AD0005B4A126842F01002594B1A601A461268BB
:100AE00022F003021A601A46126842F002021A60EB
:100AF000524A5268514B5A601A4652685A601A4616
:100B0000526842F480625A601A46526822F47C129B
:100B10005A601A46526842F4E8125A601A4612683D
:100B200042F080721A6000BF444A126812F0007FDF
:100B3000FAD0424A526822F00302404B5A601A46E9
:100B4000526842F002025A6000BF3C4A526802F00A
:100B50000C02082AF9D1704710B5FFF79DFF10BDB0
:100B600010B53648006840F0010034490860084676
:100B700040683449084031494860084600683249B5
:100B800008402E4908600846006820F4802008606C
:100B90000846406820F4FE0048604FF41F0088605B
:100BA000FFF7DAFF4FF000602849086010BD10B56C
:100BB000002100200022214B5B6803F00C0121B1D1
:100BC000042906D0082928D107E0214B214C2360B5
:100BD00027E01F4B1F4C236023E0184B5B6803F496
:100BE0007010164B5B6803F48032022303EB9040D5
:100BF00022B9194B4343174C23600DE00F4B5B6840
:100C000013F4003F04D0144B4343124C236003E021
:100C10000F4B43430F4C236003E00D4B0D4C2360FF
:100C200000BF00BF054B5B68C3F303130B4CE15CD3
:100C3000084B1B68CB40074C236010BD00100240DE
:100C4000002002400000FFF8FFFFF6FE08ED00E084
:100C500000127A005C00002000093D0060000020C6
:100C600010B50446F948844208D10121401500F02E
:100C7000D1FD0021601500F0CDFD17E0F44884425D
:100C800008D10121001500F0C5FD0021201500F05C
:100C9000C1FD0BE0EF48844208D10121C80300F0F8
:100CA000B9FD00214FF4004000F0B4FD10BD30B597
:100CB0000246002000235068E74C20400D790C6864
:100CC00044EA0524204350609068E44C2040D1E978
:100CD00002542C434D7944EA450420439060D06A85
:100CE00020F470000C7C641EE4B2234340EA0350FD
:100CF000D06230BD00210160017141718160C1602D
:100D000001210174704721B1826842F001028260C2
:100D100003E0826822F001028260704721B182689C
:100D200042F48072826003E0826822F48072826002
:100D3000704710B50023CBB21AB144681C4344601D
:100D400002E044689C43446010BD816841F00801A2
:100D500081607047014600208A6812F0080F01D0B8
:100D6000012000E000207047816841F004018160AB
:100D70007047014600208A6812F0040F01D001205C
:100D800000E00020704721B1826842F4A002826036
:100D900003E0826822F4A0028260704701460020CE
:100DA0008A6812F4800F01D0012000E00020704713
:100DB00010B50A4600210023416821F46041531E0A
:100DC00041EA4331416010BD21B1426842F4006202
:100DD000426003E0426822F4006242607047F0B56E
:100DE00004460D4600200021092D11DDE068A5F123
:100DF0000A0606EB4607072606FA07F18843A5F11F
:100E00000A0606EB460603FA06F10843E0600CE02A
:100E1000206905EB4507072606FA07F1884305EB2D
:100E2000450603FA06F108432061072A0FDA606BD2
:100E3000561E06EB86071F2606FA07F18843561E44
:100E400006EB860605FA06F10843606322E00D2AE8
:100E50000FDA206BD61F06EB86071F2606FA07F16E
:100E60008843D61F06EB860605FA06F10843206381
:100E700010E0E06AA2F10D0606EB86071F2606FACF
:100E800007F18843A2F10D0606EB860605FA06F186
:100E90000843E062F0BD21B1826842F480128260B2
:100EA00003E0826822F48012826070470146C86CB9
:100EB00080B2704765484C300068704721B1426885
:100EC00042F48062426003E0426822F48062426041
:100ED000704721B1426842F48052426003E04268A8
:100EE00022F48052426070470A460021816821F452
:100EF000E04111438160704721B1826842F40042B1
:100F0000826003E0826822F400428260704721B16F
:100F1000826842F40212826003E0826822F40212C4
:100F200082607047014600208A6812F4001F01D0D9
:100F3000012000E000207047F0B50446154600206F
:100F400000220026092911DDE068A1F10A0707EB5C
:100F5000470C072707FA0CF29043A1F10A0707EBA9
:100F6000470703FA07F21043E0600CE0206901EB49
:100F7000410C072707FA0CF2904301EB410703FAF3
:100F800007F210432061A06BC0F30156EF1C06F17D
:100F9000010CA7EB0C0707EB870C1F2707FA0CF2D5
:100FA0009043EF1C06F1010CA7EB0C0707EB87073A
:100FB00001FA07F21043A063F0BD10B50A46002104
:100FC0000023816B21F44011531E41EA03518163D8
:100FD00010BD10B5002303460B441A6010BD024635
:100FE0000023134601F128000344186880B27047BB
:100FF0000A46002141681A4B19401143416070476D
:101000004162826270470A460021416821F01F0157
:1010100011434160704740B10C490831096841F4FF
:1010200000010A4A0832116007E0084908310968DE
:1010300021F40001054A0832116070470246002081
:1010400013680B420ED001200DE000000024014087
:1010500000280140003C0140FFFEF0FFFDF7F1FFDA
:10106000FFFD3FFF00207047CA430260704770B524
:1010700002460020002300240B125568CEB205EA78
:10108000060415681D4202D00CB1012000E00020CA
:1010900070BD00220A12D343036070470020444908
:1010A0000860091D0860091D0860091D08604148A5
:1010B0003F4914310860704700213D498279002A78
:1010C0003AD00A46126803689A430B461A600A1D12
:1010D000126803689A430B1D1A60027911440A686A
:1010E00003681A430A60324A0832126803689A4356
:1010F0002F4B08331A601A1D126803689A432C4B51
:101100000C331A604279102A0ED11A1F1268036834
:101110001A43274B08331A601A1D126803681A43D2
:10112000234B0C331A600DE02149427911440A68BF
:1011300003681A430A6005E0027911440A680368EB
:101140009A430A6070470021016001710C214171CE
:101150000021817170471649103109680143144A12
:1011600010321160704701460020114A1432126893
:101170000A4201D0012000E0002070470C491431E0
:1011800008607047014600200022094B1B6803EAF3
:101190000102074B14331B680B4202D00AB1012035
:1011A00000E00020704702491431086070470000D9
:1011B00000040140FFFF0F0010B50446CA488442F6
:1011C00008D10121042000F025FB0021042000F0BB
:1011D00021FB46E0C548844208D10121082000F0E7
:1011E00019FB0021082000F015FB3AE0C0488442BA
:1011F00008D10121102000F00DFB0021102000F08B
:1012000009FB2EE0BB48844208D10121202000F0D8
:1012100001FB0021202000F0FDFA22E0B6488442C4
:1012200008D10121402000F0F5FA0021402000F013
:10123000F1FA16E0B148844208D10121802000F083
:10124000E9FA0021802000F0E5FA0AE0AC48844287
:1012500007D10121801500F0DDFA0021A01500F072
:10126000D9FA10BD10B50121084600F0D3FA0021CB
:10127000012000F0CFFA10BD2DE9F0410246002513
:101280000026002000230024002791F803C00CF062
:101290000F0591F803C01CF0100F03D091F802C0A5
:1012A0004CEA0505B1F800C01CF0FF0F31D01468FE
:1012B00000202BE04FF0010C0CFA00F3B1F800C055
:1012C0000CEA03069E4220D183004FF00F0C0CFA6B
:1012D00003F7BC4305FA03FC4CEA040491F803C08D
:1012E000BCF1280F06D14FF0010C0CFA00FCC2F83B
:1012F00014C00AE091F803C0BCF1480F05D14FF0CB
:10130000010C0CFA00FCC2F810C0401C0828D1D314
:101310001460B1F800C0BCF1FF0F34DD5468002048
:101320002EE000F1080C4FF0010808FA0CF3B1F8B8
:1013300000C00CEA03069E4221D183004FF00F0C3F
:101340000CFA03F7BC4305FA03FC4CEA040491F8D9
:1013500003C0BCF1280F05D100F1080C08FA0CF805
:10136000C2F8148091F803C0BCF1480F07D100F116
:10137000080C4FF0010808FA0CF8C2F81080401C65
:101380000828CED35460BDE8F0814FF6FF7101808C
:10139000022181700421C1707047024600209368C9
:1013A0000B4201D0012000E0002070470146886810
:1013B00080B2704702460020D3680B4201D0012062
:1013C00000E0002070470146C86880B270470161A4
:1013D0007047416170470AB1016100E041617047A7
:1013E000C16070474FF480320A438261816182613B
:1013F00082698269704702460020424B18684FF6A6
:101400008073184040EA021008433E4B1860704752
:101410003D49C8617047F0B50A4600230024002109
:10142000002500F00046B6F1004F02D1354EF169BB
:1014300001E0344E7168C0F3034583B200F44016F6
:10144000B6F5401F08D121F070612E4E766826F067
:1014500070662C4F7E6012E000F48016B6F5801F97
:1014600006D1032606FA05F4A14341F0706106E0B7
:10147000460D360103FA06F6B14341F0706122B120
:10148000460D360103FA06F6314300F00046B6F188
:10149000004F02D11B4EF16101E01A4E7160F0BDA8
:1014A00030B500228B071C0F0F2303FA04F2154BF3
:1014B00008338C1053F824309343124C08348D10A9
:1014C00044F8253023468C1053F824308C07240F21
:1014D00000FA04F423430B4C08348D1044F82530F3
:1014E00030BD0A490860704700080140000C014007
:1014F000001001400014014000180140001C014090
:10150000002001400000014000002042DC00204299
:10151000DC48006840F00100DA490860084640688D
:10152000D9490840D749486008460068D74908406B
:10153000D44908600846006820F480200860084606
:10154000406820F4FE0048604FF41F008860704738
:10155000CC49096821F48031CA4A116011460968F2
:1015600021F480211160B0F5803F03D0B0F5802FC9
:101570000ED106E0C349096841F48031C14A1160C7
:1015800007E0C049096841F4A021BE4A116000E0AB
:1015900000BF00BF704710B50146002200230020A5
:1015A0004A11012A02D1B74C236806E0022A02D16F
:1015B000B44C236A01E0B34C636A01F01F020124BA
:1015C00094401C4201D0012000E0002010BD70B505
:1015D00000240025002600BF3120FFF7DCFF06466F
:1015E000641CB4F5A06F01D0002EF5D03120FFF7B8
:1015F000D2FF08B1012500E00025284670BD014654
:101600000020A04A106820F0F80040EAC1001060F5
:1016100070479F490860704702460020994B586800
:1016200020F47C1042EA01031843964B586070473F
:1016300097490866704701460020924A506820F09A
:1016400003000843506070478E48406800F00C006B
:101650007047014600208B4A506820F0F000084394
:101660005060704701460020864A506820F4E060D0
:1016700008435060704701460020824A506820F4B9
:10168000605040EAC1005060704729B17D4A527AEB
:1016900002437C4B5A7206E07A4A527AC343DBB269
:1016A0001A40784B5A7270477A4908607047014671
:1016B0000020744A506820F440400843506070474E
:1016C0000021754A11706F4A82F82010012802D05B
:1016D000042808D103E001216F4A117004E00521BC
:1016E0006D4A117000E000BF00BF70476B49086091
:1016F00070476449096A0143624A11627047674949
:1017000044390860704730B50021002200240023CE
:101710005C4D6D6805F00C0121B1042905D0082944
:1017200023D105E05E4D056022E05D4D05601FE0C0
:10173000544D6D6805F47012524D6D6805F4803497
:10174000022505EB92421CB9564D554305600BE04E
:101750004C4D6D6815F4003F03D0524D5543056064
:1017600002E04F4D5543056002E04D4D056000BF5E
:1017700000BF444D6D6805F0F00109094A4D6B5CEE
:101780000568DD4045603F4D6D6805F4E061090A7C
:10179000454D6B5C4568DD4085603A4D6D6805F4EC
:1017A0006051C90A404D6B5C4568DD40C560354DF0
:1017B0006D6805F44041890B3C4D6B5CC568B5FB19
:1017C000F3F5056130BD29B12E4A526902432D4B14
:1017D0005A6104E02B4A526982432A4B5A6170478E
:1017E00029B1284A92690243264B9A6104E0254AAE
:1017F00092698243234B9A61704729B1214AD26989
:101800000243204BDA6104E01E4AD26982431D4B39
:10181000DA61704729B11B4AD2680243194BDA607A
:1018200004E0184AD2688243164BDA60704729B147
:10183000144A12690243134B1A6104E0114A1269F7
:101840008243104B1A617047144940390860704751
:101850000F49C86470470B49C87170470948406A0E
:1018600040F0807007494862704701460020054AF1
:1018700092680A4201D0012000E00020704701492F
:1018800088727047001002400000FFF8FFFFF6FE6C
:1018900000004242D80042422010024080044242EE
:1018A00000127A0000093D00700000208000002036
:1018B00010B50446FE48844208D10121C014FFF748
:1018C000A9FF0021E014FFF7A5FFC4E0B4F1804FA9
:1018D00008D101210846FFF7AAFF00210120FFF7E8
:1018E000A6FFB8E0F348844208D101210220FFF7A7
:1018F0009EFF00210220FFF79AFFACE0EE488442F1
:1019000008D101210420FFF792FF00210420FFF7F6
:101910008EFFA0E0E948844208D101210820FFF7AA
:1019200086FF00210820FFF782FF94E0E44884420C
:1019300008D101211020FFF77AFF00211020FFF7C6
:1019400076FF88E0DF48844208D101212020FFF79C
:101950006EFF00212020FFF76AFF7CE0DA48844216
:1019600008D101214014FFF755FF00216014FFF753
:1019700051FF70E0D548844209D10121C804FFF726
:1019800049FF00214FF40020FFF744FF63E0D048F7
:10199000844209D101210805FFF73CFF00214FF4E3
:1019A0008010FFF737FF56E0CA48844209D1012171
:1019B0004805FFF72FFF00214FF40010FFF72AFF23
:1019C00049E0C548844208D101214020FFF72FFF9C
:1019D00000214020FFF72BFF3DE0C048844208D1A2
:1019E00001218020FFF723FF00218020FFF71FFF48
:1019F00031E0BB48844208D101218015FFF717FF71
:101A00000021A015FFF713FF25E0B648844209D155
:101A100001210804FFF7FEFE00214FF48030FFF79C
:101A2000F9FE18E0B048844209D101214804FFF7CB
:101A3000F1FE00214FF40030FFF7ECFE0BE0AB4865
:101A4000844208D101218804FFF7E4FE00214FF40D
:101A50008020FFF7DFFE10BD00220288944B9842E1
:101A60000ED0994B98420BD0B0F1804F08D0914BDB
:101A7000984205D0904B984202D0904B984204D1A6
:101A80004FF68F731A404B881A438D4B984207D0FC
:101A90008C4B984204D04FF6FF431A40CB881A4330
:101AA00002808B8883850B880385814B98420BD0FD
:101AB000854B984208D08B4B984205D08A4B984270
:101AC00002D08A4B984201D10B7A0386012383828C
:101AD000704770B5002400220023058C4FF6FE7677
:101AE00035400584028C8388048B4FF68F752C401B
:101AF000B51E2C400D882C43751E2A400D892A43A3
:101B00004D882A436A4DA8420BD06F4DA84208D099
:101B1000744DA84205D0744DA84202D0734DA8421E
:101B200013D14FF6F7752A404D892A434FF6FB75BE
:101B30002A408D882A434FF6FF652B404FF6FF550C
:101B40002B408D892B43CD892B4383800483CD8803
:101B50008586028470BD70B5002400220023058CA8
:101B60004FF6EF7635400584028C8388048B48F667
:101B7000FF752C404FF6FF452C400D882D0644EA9A
:101B800015444FF6DF752A400D892D0542EA1542AE
:101B90004D882D0542EA1542454DA84202D04A4DD6
:101BA000A8421BD14FF67F752A404D892D0542EA88
:101BB00015424FF6BF752A408D882D0542EA154221
:101BC0004FF6FF352B404FF2FF752B408D89AD044A
:101BD00043EA1543CD89AD0443EA1543838004836A
:101BE000CD880587028470BD70B5002400220023D3
:101BF000058C4FF6FF6635400584028C8388848B04
:101C00004FF68F752C404FF6FC752C400D882C43F9
:101C10004FF6FF552A400D892D0642EA15424D88A0
:101C20002D0642EA1542224DA84202D0264DA84276
:101C30001BD14FF2FF752A404D892D0642EA15420D
:101C40004FF6FF352A408D882D0642EA15424EF6A2
:101C5000FF752B404DF6FF752B408D892D0543EA0E
:101C60001543CD892D0543EA154383808483CD88B0
:101C70008587028470BD70B5002200230024058C86
:101C80004EF6FF7635400584038C8488828B48F6B7
:101C9000FF752A404FF6FF452A400D882D0642EA7F
:101CA00015424DF6FF752B400D892D0720E00000F1
:101CB000002C01400004004000080040000C0040DF
:101CC000001000400014004000340140004C01406E
:101CD000005001400054014000180040001C00402A
:101CE0000020004000400140004401400048014005
:101CF00043EA15434D882D0743EA1543F84DA842A2
:101D000002D0F84DA84206D14BF6FF752C408D89C4
:101D1000AD0544EA154484808283CD88A0F8405004
:101D2000038470BD828B4FF2FF331A408283828B13
:101D30000B0642EA134282837047F0B50C46154603
:101D4000002200210026078C4EF6FF7C07EA0C07D4
:101D50000784828B018C27073E0C40F6FF473A40F0
:101D60002F0642EA17421F0742EA1742DC4FB842E9
:101D70000ED0DC4FB8420BD0B0F1804F08D0DA4F14
:101D8000B84205D0D94FB84202D0D94FB84206D197
:101D90004DF6FF77394046F48057394305E047F662
:101DA000FF57394044F48057394382830184F0BDA2
:101DB000828B4FF6F3731A408283828B0A438283AD
:101DC0007047F0B50C461546002200210026078C0E
:101DD0004FF6FF6C07EA0C070784828B018C2706FD
:101DE0003E0C4FF60C773A401F0545EA17473A4339
:101DF000BB4FB8420ED0BB4FB8420BD0B0F1804FB2
:101E000008D0B94FB84205D0B84FB84202D0B84F49
:101E1000B84206D14FF6FF57394046F48077394330
:101E200005E04FF2FF57394044F48077394382830D
:101E30000184F0BD028B4FF2FF331A400283028B04
:101E40000B0642EA134202837047F0B50C46154672
:101E5000002200210026078C4FF6EF7C07EA0C07D2
:101E60000784028B018C27053E0C40F6FF473A4061
:101E70001F0742EA17422F0642EA1742984FB8421C
:101E80000ED0984FB8420BD0B0F1804F08D0964F8B
:101E9000B84205D0954FB84202D0954FB84206D10E
:101EA0004FF6DF77394046F01007394305E04FF62B
:101EB0005F77394044F01007394302830184F0BD55
:101EC000028B4FF6F3731A400283028B0A4302839C
:101ED0007047F0B50C46154600220021068C4FF6DF
:101EE000FE773E400684028B018C4FF60C76324022
:101EF0001E0545EA16463243794EB0420ED0794E61
:101F0000B0420BD0B0F1804F08D0774EB04205D030
:101F1000764EB04202D0764EB04206D14FF6FD76F4
:101F2000314044F00106314305E04FF6F57631408B
:101F300044F00106314302830184F0BD70B50546CB
:101F40000C46674885420ED0664885420BD0B5F1F5
:101F5000804F08D06448854205D06448854202D04D
:101F60006348854200D100E000BF208850B9238932
:101F7000A28861882846FFF7ACFFE1882846FFF772
:101F80009FFF25E0208804280AD12389A288618840
:101F90002846FFF75AFFE1882846FFF74BFF17E076
:101FA000208808280AD12389A28861882846FFF75B
:101FB00008FFE1882846FFF7FBFE09E02389A28895
:101FC00061882846FFF7B9FEE1882846FFF7AAFE98
:101FD00070BD2DE9F04105460C46002601276088BA
:101FE00008B9022600E00026A088012801D10227B6
:101FF00000E001272088A0B92389A28861882846AB
:10200000FFF767FFE1882846FFF75AFF23893A4622
:1020100031462846FFF719FFE1882846FFF70AFFF7
:1020200013E02389A28861882846FFF70EFFE18824
:102030002846FFF7FFFE23893A4631462846FFF738
:1020400048FFE1882846FFF73BFFBDE8F0810A889A
:102050004B881A438B881A43CB881A430B891A433F
:102060004B891A438B891A43A0F8442070474FF6D6
:10207000FF71818000210180C18041800172704721
:102080000021018041808180C18001814181818165
:10209000C1817047002101804180012181800021A0
:1020A000C180018170470021018041808180C18011
:1020B000018141818181704721B1028842F0010292
:1020C000028004E002884FF6FE731A4002807047D7
:1020D00081B1B0F8442042F40042A0F844200FE05F
:1020E000002C014000340140000400400008004082
:1020F000000C0040B0F84420C2F30E02A0F84420C7
:10210000704710B51AB183890B43838104E083893A
:10211000CC43A4B22340838110BD8182704741EA41
:102120000203A0F84830704710B51AB183890B43F9
:10213000838104E08389CC43A4B22340838110BD12
:1021400001894FF6F8721140018170470A4600215B
:1021500001894FF68F73194011430181704730B5E3
:1021600004460D4629462046FFF7F0FF208940F03F
:102170000700208130BD2DE9F04104460D4616468A
:102180001F46602D06D13B46012231462046FFF70F
:102190005CFE05E03B46012231462046FFF799FEF2
:1021A00029462046FFF7D2FF208940F00700208112
:1021B000BDE8F08130B50C4600210189C9B21D0689
:1021C00042EA154525432943018130BD2DE9F041FF
:1021D00005460E4617469846002443463A46314681
:1021E0002846FFF7E7FF2C894FF6F870044044F0CB
:1021F00007044FF68F70044044F070042C81BDE852
:10220000F081F0B504460D4616461F463B46324661
:1022100029462046FFF7CEFF208940F480402081E8
:10222000F0BD0185828270470A46002101884FF681
:102230008F731940114301807047F0B50C46154665
:102240001E460021002200230189028B038C4FF6D9
:10225000F877394021434FF6FC473A4040F20117E6
:102260003A434FF6DD773B40370545EA17473B4396
:10227000018102830384F0BD0A460021018B4FF6E1
:102280008F7319401143018370470A460021018B67
:1022900048F6FF731940130641EA13410183704762
:1022A0000A460021818B4FF68F73194011438183B9
:1022B00070470A460021818B48F6FF7319401306C8
:1022C00041EA13418183704721B1028842F08002C4
:1022D000028004E002884FF67F731A400280704744
:1022E00021B1828842F00402828004E082884FF6A5
:1022F000FB731A408280704721B1828842F0080245
:10230000828004E082884FF6F7731A40828070471B
:1023100021B1828842F00102828004E082884FF677
:10232000FE731A40828070470A460021018B4FF6E7
:10233000F77319401143018370470A460021018B4E
:102340004FF2FF731940130641EA134101837047AE
:102350000A460021818B4FF6F773194011438183A0
:1023600070470A460021818B4FF2FF731940130614
:1023700041EA1341818370470A460021018B4FF6E1
:10238000FB7319401143018370470A460021018BFA
:102390004FF6FF331940130641EA1341018370479A
:1023A0000A460021818B4FF6FB731940114381834C
:1023B00070470A460021818B4FF6FF331940130600
:1023C00041EA1341818370470A460021018B4FF691
:1023D0007F7319401143018370470A460021018B26
:1023E000C1F30E01130641EA1341018370470A4607
:1023F0000021818B4FF67F73194011438183704711
:102400000A460021818BC1F30E01130641EA1341F4
:10241000818370470A460021018C4FF6FD731940F5
:102420001143018470470A460021018C4FF6F7736F
:1024300019401143018470470A460021018C4FF670
:10244000DF731940130541EA1341018470470A46BE
:102450000021018C4FF67F731940130541EA1341A7
:10246000018470470A460021018C4FF6FF53194042
:10247000130641EA1341018470470A460021018C8A
:102480004FF2FF731940130641EA1341018470476C
:102490000A460021018C4DF6FF731940130741EAEB
:1024A00013410184704730B5002301248C40A3B24E
:1024B000048CDD43ADB22C400484048C02FA01F597
:1024C000ADB22C43048430BD30B5002304248C40CD
:1024D000A3B2048CDD43ADB22C400484048C02FA18
:1024E00001F5ADB22C43048430BD70B50346002025
:1024F00000241846183001258D40ACB21D8CE643EF
:10250000B6B235401D8409B1082909D100EB61003C
:10251000056825F0700505600568154305600CE049
:102520000D1FADB200EB6500056825F4E0450560C0
:102530000568160645EA1645056070BD21B102889A
:1025400042F00202028004E002884FF6FD731A4056
:102550000280704721B1028842F00402028004E048
:1025600002884FF6FB731A400280704721B18288BF
:1025700042F08002828004E082884FF67F731A4026
:102580008280704702884FF6F7731A4002800288F3
:102590000A430280704782884FF68F731A40828008
:1025A00082880A438280704702894FF6F8731A4086
:1025B000028102890A430281704702894FF67F73C4
:1025C0001A40028102890A43028170478184704760
:1025D0008185704781867047018770478187704782
:1025E000A0F84010704702884FF6FF431A4002805F
:1025F00002880A43028070470146888E7047014670
:10260000088F70470146888F70470146B1F8400037
:1026100070470146888C70470146088D7047024616
:102620000020138A0B4201D0012000E000207047F7
:10263000CA430282704730B50246002000230024BE
:10264000158A05EA0103958905EA010413B10CB165
:10265000012000E0002030BDCA4302827047000024
:1026600070B500240AE0204600F035FC054612480B
:102670000555052000F0C8F8601CC4B20C2CF2DB34
:1026800070BD10B5012211030C48FEF7A4FE002412
:1026900009E00948015D204600F000FC052000F03B
:1026A000B3F8601CC4B20C2CF3DB00224FF4805151
:1026B0000248FEF790FE10BD04000020000C01400F
:1026C00008B54FF4E060ADF8000018208DF8030065
:1026D00002208DF8020069464848FEF7CDFD4FF410
:1026E0006040ADF8000018208DF8030002208DF83E
:1026F000020069464248FEF7BFFD4FF4E070ADF8B6
:10270000000018208DF8030002208DF802006946B1
:102710003C48FEF7B1FD8020ADF8000018208DF890
:10272000030002208DF8020069463448FEF7A4FD3C
:102730000320ADF8000018208DF8030002208DF86A
:10274000020069462E48FEF797FD0720ADF800000D
:1027500018208DF8030002208DF8020069462748F2
:10276000FEF78AFD4FF4E070ADF8000018208DF8F8
:10277000030002208DF8020069462148FEF77CFD27
:102780004FF48050ADF8000010208DF803000320B6
:102790008DF8020069461A48FEF76EFD2020ADF85C
:1027A000000010208DF8030003208DF80200694618
:1027B0001348FEF761FD4FF44060ADF800001420AF
:1027C0008DF8030003208DF8020069460C48FEF7DF
:1027D00053FD08BD10B5012211030948FEF7FBFDAA
:1027E000C82000F011F800224FF480510448FEF791
:1027F000F2FDC82000F008F810BD000000080140FC
:10280000000C01400010014030B585B00446684618
:10281000FEF779FF42F210710198B0FBF1F000FB76
:1028200004F500E06D1E002DFCD105B030BD0000A8
:1028300000B587B00820ADF8180000208DF81B0007
:1028400006A92748FEF718FD4FF40040FEF72FFFBA
:1028500001214802FEF7C4FF2248FEF701FA0020DA
:1028600001908DF808008DF809004FF46020039066
:102870000020049001208DF8140001A91948FEF7EA
:1028800016FA01211748FEF73EFA1648FEF75DFAE0
:1028900000BF1448FEF75EFA0028FAD11148FEF78F
:1028A00063FA00BF0F48FEF764FA0028FAD107B0B8
:1028B00000BD10B504460323012221460948FEF756
:1028C0008EFA01210748FEF75EFA00BF0221054893
:1028D000FEF7B4FB0028F9D00248FEF7E7FA10BD76
:1028E00000100140002401400EB540F2CF20ADF8A9
:1028F00000000020ADF802004EF66020ADF80400A4
:102900000020ADF806006946C948FFF7A5F8012187
:10291000C748FFF7D1FB0EBD00B58BB00320ADF863
:1029200020000020ADF822004FF47A70ADF82400AA
:102930000020ADF826008DF8280008A9BD48FFF753
:102940008BF86020ADF810000120ADF812000420D3
:10295000ADF814000020ADF81600ADF81800ADF881
:102960001A004FF48070ADF81C000020ADF81E0076
:1029700004A9B048FFF7ADF804A9AE48FFF7EBF89B
:1029800004A9AC48FFF730F94FF40060ADF800003F
:102990004010ADF802008010ADF80400C820ADF87A
:1029A00006000020ADF808004FF40050ADF80A0012
:1029B0004000ADF80C0069469E48FFF748FB012136
:1029C0009C48FFF779FB01219A48FFF781FB0BB088
:1029D00000BD00B58BB00320ADF820000020ADF89D
:1029E00022004FF47A70ADF824000020ADF82600E4
:1029F0008DF8280008A99048FFF72EF86020ADF860
:102A000010000120ADF812000420ADF814000020E1
:102A1000ADF81600ADF81800ADF81A004FF480704C
:102A2000ADF81C000020ADF81E0004A98248FFF795
:102A300050F804A98048FFF78EF804A97E48FFF7F4
:102A4000D3F84FF40060ADF800004010ADF802007C
:102A50008010ADF80400C820ADF806000020ADF8E5
:102A600008004FF40050ADF80A004000ADF80C002B
:102A700069467148FFF7EBFA01216F48FFF71CFB2D
:102A800001216D48FFF724FB0BB000BD47204FF03C
:102A9000804108854FF4FA6088850120888108808C
:102AA0001C200121814042094FF0E02303EB820208
:102AB000C2F8001100BF704700B587B00320ADF821
:102AC00010000020ADF812004FF47A70ADF8140039
:102AD0004FF40070ADF8160004A95848FEF7BCFF8B
:102AE0006020ADF800000120ADF802000020ADF834
:102AF00006000220ADF8080069465048FFF774F858
:102B00006020ADF800000120ADF802000020ADF813
:102B100006000220ADF8080069464848FFF71BF898
:102B20006020ADF800000120ADF802000020ADF8F3
:102B300006000220ADF8080069464048FEF7C9FFCC
:102B400007B000BD00B587B00320ADF8100000202D
:102B5000ADF812004FF47A70ADF814004FF4007025
:102B6000ADF8160004A93648FEF776FF6020ADF8F0
:102B700000000120ADF802000020ADF80600ADF81D
:102B8000080069462E48FFF72FF86020ADF80000D6
:102B90000120ADF802000020ADF80600ADF80800F5
:102BA00069462748FEF7D7FF6020ADF800000120F6
:102BB000ADF802000020ADF80600ADF80800694647
:102BC0001F48FEF786FF07B000BD10B501221103B4
:102BD0001C48FEF700FC6420FFF716FE00224FF4AD
:102BE00080511848FEF7F7FB6420FFF70DFE002028
:102BF000134934310880091D0880091D08804FF4ED
:102C00007A700E4934310880091D0880091D08803A
:102C10000020084934310880091D0880091D0880FA
:102C2000054934310880091D0880091D088010BD40
:102C300000040040002C014000340140000C004022
:102C400000080040000C01400A2001E0411E48B28B
:102C50000028FBDC704710B50122D1028C48FEF73A
:102C6000BAFB012291028A48FEF7B5FBFFF7ECFFA1
:102C700000224FF400618648FEF7ADFBFFF7E4FF4A
:102C800000224FF480618248FEF7A5FBFFF7DCFFCE
:102C900010BD10B500224FF480617D48FEF79BFB0C
:102CA000FFF7D2FF00224FF400617948FEF793FB53
:102CB000FFF7CAFF012291027548FEF78CFBFFF770
:102CC000C3FF0122D1027248FEF785FBFFF7BCFF6C
:102CD00010BD10B500224FF480616D48FEF77BFBFC
:102CE000FFF7B2FF00224FF400616948FEF773FB63
:102CF000FFF7AAFF012291026548FEF76CFBFFF780
:102D0000A3FF00224FF480616148FEF764FBFFF7E8
:102D10009BFF10BD10B500224FF480615C48FEF7A8
:102D20005AFBFFF791FF0122D1025948FEF753FBEE
:102D3000FFF78AFF012291025548FEF74CFBFFF78F
:102D400083FF00224FF480615148FEF744FBFFF7F8
:102D50007BFF10BD70B50446082523E000224FF428
:102D600080614B48FEF737FBFFF76EFF14F0800FD2
:102D700004D00122D1024648FEF72DFB14F0800F4B
:102D800005D100224FF400614148FEF724FB6006A4
:102D9000040EFFF759FF012291023D48FEF71BFB8D
:102DA000FFF752FF2800A5F10101CDB2D6D10022D4
:102DB0004FF480613648FEF70EFB70BD2DE9F041FF
:102DC000082700240122D1023148FEF704FB20E04D
:102DD0006006040E00224FF480612D48FEF7FBFAD6
:102DE000FFF732FF012291022948FEF7F4FA00268C
:102DF000002508E04FF400612548FEF7CEFA304484
:102E0000C6B2681CC5B2082DF4DB042E01DB44F009
:102E100001043800A7F10101CFB2D9D100224FF44B
:102E200080611B48FEF7D7FA2046BDE8F08110B557
:102E300000224FF480611648FEF7CDFAFFF704FF39
:102E40000122D1021248FEF7C6FAFFF7FDFE012269
:102E500091020F48FEF7BFFAFFF7F6FE4FF400614C
:102E60000B48FEF79AFA01280BD10A4908600122A3
:102E700020210748FEF7AFFA07480068401C0649C2
:102E8000086000224FF480610148FEF7A4FA10BDEB
:102E9000000C0140480000204C00002070B50546A1
:102EA0000C460520FFF7B0FCFFF7D5FEAE20FFF77C
:102EB00051FFFFF7BCFF2846FFF74CFFFFF7B7FFB6
:102EC0002046FFF747FFFFF7B2FFFFF7E2FE0520BE
:102ED000FFF79AFC70BD70B504460120FFF794FC23
:102EE000FFF7B9FEAE20FFF735FFFFF7A0FF204642
:102EF000FFF730FFFFF79BFFFFF7CBFE0120FFF747
:102F000083FCFFF7A8FEAF20FFF724FFFFF78FFF3A
:102F1000FFF754FF0546FFF7FDFEFFF7BAFE01205D
:102F2000FFF772FC284670BD10B50120FFF76CFC5E
:102F3000FFF791FED020FFF70DFFFFF778FF752018
:102F4000FFF708FFFFF773FFFFF7A3FE0120FFF76E
:102F50005BFCFFF780FED120FFF7FCFEFFF767FF69
:102F6000FFF72CFF0446FFF7D5FEFFF792FE01E0C6
:102F7000FFF730FC682CFBD10520FFF745FCFFF77D
:102F80006AFED020FFF7E6FEFFF751FF1920FFF79A
:102F9000E1FEFFF74CFF0020FFF7DCFEFFF747FFE5
:102FA000FFF777FE0520FFF72FFCFFF754FED02038
:102FB000FFF7D0FEFFF73BFF1A20FFF7CBFEFFF72E
:102FC00036FF0220FFF7C6FEFFF731FFFFF761FE75
:102FD0000520FFF719FCFFF73EFED020FFF7BAFEF1
:102FE000FFF725FF1B20FFF7B5FEFFF720FF0820A6
:102FF000FFF7B0FEFFF71BFFFFF74BFE0520FFF7C3
:1030000003FCFFF728FED020FFF7A4FEFFF70FFF19
:103010003720FFF79FFEFFF70AFF0020FFF79AFE19
:10302000FFF705FFFFF735FE0520FFF7EDFBFFF784
:1030300012FED020FFF78EFEFFF7F9FE3820FFF7D3
:1030400089FEFFF7F4FE0020FFF784FEFFF7EFFE96
:10305000FFF71FFE0520FFF7D7FBFFF7FCFDD02091
:10306000FFF778FEFFF7E3FE6B20FFF773FEFFF735
:10307000DEFE0020FFF76EFEFFF7D9FEFFF709FE28
:103080000520FFF7C1FBFFF7E6FDD020FFF762FE4A
:10309000FFF7CDFE6A20FFF75DFEFFF7C8FE0920AF
:1030A000FFF758FEFFF7C3FEFFF7F3FD0520FFF71C
:1030B000ABFB10BD10B50020D4490860FFF7CBFD75
:1030C000D020FFF747FEFFF7B2FED0480068002887
:1030D0003AD13B20FFF73EFEFFF7A9FECB48006840
:1030E000002831D1FFF7D5FDFFF7B5FDD120FFF75F
:1030F00031FEFFF79CFEC548006828BBFFF75EFE67
:10310000C3490870FFF7E5FDFFF758FEC049487056
:10311000FFF7DFFDFFF752FEBD498870FFF7D9FDCD
:10312000FFF74CFEBA49C870FFF7D3FDFFF746FE24
:10313000B7490871FFF7CDFDFFF740FEB44948716C
:10314000FFF7E8FDFFF7A5FDB048006878BBB04881
:103150004078AF49097840EA012000B2AD490880C3
:103160000846B0F9000002F0F3FCAB490860A8483B
:10317000C078A749897840EA012000B2A7490880B1
:103180000846B0F9000002F0E3FCA5490860A04839
:1031900040799F49097940EA012000B2A14908809D
:1031A0000846B0F9000002F0D3FC9F49086010BD4A
:1031B0002DE9F047002095490860FFF74CFDD0202D
:1031C000FFF7C8FDFFF740FDFFF731FEFFF73CFDBD
:1031D0008E480068002846D14320FFF7BBFDFFF76B
:1031E00033FDFFF724FE8948006800283BD1FFF734
:1031F00050FDFFF730FDD120FFF7ACFDFFF717FEC4
:10320000FFF722FD8148006868BBFFF7D7FD8749BB
:103210000870FFF75EFDFFF717FDFFF7CFFD83494D
:103220004870FFF756FDFFF70FFDFFF7C7FD7F4919
:103230008870FFF74EFDFFF707FDFFF7BFFD7B49E5
:10324000C870FFF746FDFFF7FFFCFFF7B7FD7749B2
:103250000871FFF73EFDFFF7F7FCFFF7AFFD73497D
:103260004871FFF757FDFFF714FD68480068002814
:1032700062D16E4840786D49097840EA012000B279
:103280006B4908800846B0F9000002F061FC8146F5
:1032900068480168484602F05BFD804602F008FB82
:1032A00006460022644B01F0BDFE044601F0CCFD51
:1032B000624908605D48C0785C49897840EA01202D
:1032C00000B25F4908800846B0F9000002F040FCF7
:1032D00081465C480168484602F03AFD804602F0AB
:1032E000E7FA04460022544B01F09CFE064601F02A
:1032F000ABFD554908604D4840794C49097940EA91
:10330000012000B2514908800846B0F9000002F0DF
:103310001FFC81464E480168484602F019FD804670
:1033200002F0C6FA06460022434B01F07BFE04463B
:1033300001F08AFD47490860BDE8F0872DE9F041BA
:103340004FF000082FE0FFF733FF3948B0F90000D5
:1033500002F0FEFB044637480168204602F0D4FA2A
:10336000344908603648B0F9000002F0F1FB044629
:1033700034480168204602F0C7FA324908603348F1
:10338000B0F9000002F0E4FB044631480168204631
:1033900002F0BAFA2E4908600220FFF735FA08F168
:1033A000010000F0FF08B8F1640FCCDB2148006891
:1033B00002F07EFA06460022274B01F033FE044657
:1033C00001F042FD1B4908601E48006802F070FAD7
:1033D00004460022204B01F025FE064601F034FD94
:1033E000184908601A48006802F062FA0446002290
:1033F000194B01F017FE064601F026FD144908603E
:103400000520FFF701FABDE8F08100004800002028
:103410008400002056000020C80200205800002030
:10342000CC0200205A000020D00200208A00002098
:1034300052000020AC0200200040BF40D402002017
:1034400050000020B0020020DC02002054000020C8
:10345000B4020020E0020020000059402DE9F04FA6
:1034600087B0FE49FE48006802F09EFB0446FD4816
:103470000168204602F048FAFB490860FB490878D9
:1034800002F07EFB0546F8480168284602F08CFBF6
:103490000446F74902F09AFAF6490860F6480168CE
:1034A000F148006802F054FC0546F049C87802F083
:1034B00067FB0646EE4902F089FA0446294602F007
:1034C00073FBEE490860E8480068EB490860EB4888
:1034D0000168E848006802F017FAE9490860E34922
:1034E000887901F06BFF80468946E548006802F064
:1034F000DFF9CDE9020101F04FFC06460022E14B65
:1035000001F0ACFF42464B46CDE9040101F0A6FFB5
:1035100082460022DC4B01F0C9FC044601F00AFFA0
:10352000DA490880D149887901F048FFCDE90401E2
:10353000D348006802F0BCF98046D54AD54B01F06B
:10354000B5FC064601F028FC0022CE4BCDE9000177
:1035500001F084FFCDE90201DDE9042301F07EFFE3
:1035600004460022C84B01F0A1FC824601F0E2FEB5
:10357000C649091D0880BD49887901F01FFF8046B2
:103580008946BF48006802F093F90646C24AC34B19
:1035900001F08CFCCDE9000101F0FEFB0022B94BEB
:1035A000CDE9020101F05AFF044642464B4601F0C4
:1035B00055FF82460022B44B01F078FCCDE90401AE
:1035C00001F0B8FEB1490831088007B0BDE8F08FBE
:1035D0002DE9F04F87B0A149B148006802F0E4FA44
:1035E0000446B0480168204602F08EF9AE490860F2
:1035F0009E49487802F0C4FA0546AB48016828465F
:1036000002F0D2FA04469A4902F0E0F9A7490860AC
:10361000A7480168A448006802F09AFB0546934950
:10362000087902F0ADFA0646914902F0CFF9044656
:10363000294602F0B9FA9F4908609B4800689C49F6
:1036400008609C4801689948006802F05DF99A4951
:1036500008608649C87901F0B1FE804689469648DF
:10366000006802F025F9CDE9020101F095FB06465C
:103670000022844B01F0F2FE42464B46CDE90401A4
:1036800001F0ECFE824600227F4B01F00FFC044665
:1036900001F050FE894908807449C87901F08EFE16
:1036A000CDE904018448006802F002F98046784AB6
:1036B000784B01F0FBFB064601F06EFB0022714BDC
:1036C000CDE9000101F0CAFECDE90201DDE90423E4
:1036D00001F0C4FE044600226B4B01F0E7FB82467A
:1036E00001F028FE7549091D08806049C87901F07C
:1036F00065FE804689467048006802F0D9F80646A3
:10370000654A664B01F0D2FBCDE9000101F044FBB4
:1037100000225C4BCDE9020101F0A0FE04464246C6
:103720004B4601F09BFE82460022574B01F0BEFB48
:10373000CDE9040101F0FEFD60490831088007B0C1
:10374000BDE8F08F2DE9F04F87B044495C48006830
:1037500002F02AFA04465B480168204602F0D4F8D9
:10376000594908604149887802F00AFA05465648E6
:103770000168284602F018FA04463D4902F026F98D
:1037800052490860524801684F48006802F0E0FA68
:1037900005463649487902F0F3F90646344902F005
:1037A00015F90446294602F0FFF94A4908604648DF
:1037B000006847490860474801684448006802F0CB
:1037C000A3F8454908602949087A01F0F7FD8046C9
:1037D00089464148006802F06BF8CDE9020101F02A
:1037E000DBFA06460022274B01F038FE42464B46E4
:1037F000CDE9040101F032FE82460022224B01F0A5
:1038000055FB044601F066FD344908601749087A03
:1038100001F0D4FDCDE904012F48006802F048F81A
:1038200080461B4A1B4B01F041FB064601F0B4FAEF
:103830000022144BCDE9000101F010FECDE9020198
:10384000DDE9042301F00AFE044600220E4B01F0DC
:103850002DFB824601F03EFD214943E000007A4401
:103860009400002090000020280200200400002086
:103870000000C842300200202C0200203402002048
:10388000240200200000144000407F40342C0140FE
:10389000B81E85EB51B80040C3F5285C8FC21040BC
:1038A0009C000020980000204C02002054020020C0
:1038B0005002002058020020480200203434014009
:1038C000A4000020A00000206C0200207402002050
:1038D0007002002078020020680200208802002088
:1038E0008C0200200860FE49087A01F067FD8046DE
:1038F0008946FC48006801F0DBFF0646FA4AFB4BAC
:1039000001F0D4FACDE9000101F046FA0022F84BAB
:10391000CDE9020101F0A2FD044642464B4601F00A
:103920009DFD82460022F34B01F0C0FACDE904016F
:1039300001F0D0FCF0490860F048006840F2A23184
:10394000884202DB0846ED490860ED48006840F215
:10395000A231884202DB0846E9490860E64800686F
:1039600040F2A231884202DB0846E3490860E3489E
:1039700000680A2802DC0A20E0490860E048006884
:103980000A2802DC0A20DE490860DB4800680A28B1
:1039900002DC0A20D8490860D8480068D949088064
:1039A000D7480068091D0880D3480068091D0880B1
:1039B000D24800684630D1490860D1480068463096
:1039C000CF490860CC4800684630CB490860CB48F6
:1039D0000068B0F57A7F03DB4FF47A70C74908605E
:1039E000C7480068B0F57A7F03DB4FF47A70C449AA
:1039F0000860C1480068B0F57A7F03DB4FF47A7045
:103A0000BD490860BD480068BF490880BC480068DF
:103A1000091D0880B8480068091D088007B0BDE886
:103A2000F08F2DE9FF5F01221103B848FDF7D3FCA9
:103A300000222021B548FDF7CEFC01E0FFF7C5F8D4
:103A4000B34800680128F9D0FFF734FBA449C87ACD
:103A500001F0B4FC06460022AE4B01F03FFE0446E6
:103A6000AD4AAE4B01F0FAFCCDE90201AC4800686A
:103A700001F01EFF04460D46AA48006801F018FF39
:103A8000064622462B4601F0C7F881F000418046E9
:103A9000DDE9022301F00AFA824601F0D5F9A249D4
:103AA00008609F48006801F003FF06460F469F48E4
:103AB000006801F0FDFE804632463B4601F0ACF85E
:103AC000044601F0C1F99A490860FFF771FB964876
:103AD000006801F0EDFE06460F469648006801F0CA
:103AE000E7FE80460022944B01F0B8FC32463B468C
:103AF000CDE9020101F0DAF9044600228F4B01F012
:103B000091FA824601F0A0F98A4908608848006865
:103B100001F0CEFE82468B468948006801F0C8FE5F
:103B200080460022844B01F099FC52465B46CDE969
:103B3000020101F0BBF904460022804B01F072FA49
:103B4000064601F081F97E4908607E487E49096891
:103B500050F821007D4908607B480068C0F15A0098
:103B6000784951F820007A49086008460168794888
:103B7000006802F019F806467748006880F00045B2
:103B800072480168284602F00FF80446314601F0F9
:103B9000BBFE72490860724801686648006802F01E
:103BA000D7F8039001F084FE04466E4A6E4B01F094
:103BB00055FC06460F466D4801686848006801F0EC
:103BC000F3FF054666480168284601F09DFE04465D
:103BD00001F06EFE804632463B4601F067F98246B0
:103BE00001F032F95E490860604801685A4800688F
:103BF00001F0DAFF04465E480168204601F084FEC9
:103C00005B4908605B4801684D48006802F0A0F815
:103C1000039001F04DFE0646524A534B01F01EFC44
:103C200080468946514801685348006801F0BCFF4E
:103C3000074650480168384601F066FE064601F026
:103C400037FE044642464B4601F030F9824601F009
:103C5000FBF848490860454801684748006801F09A
:103C6000A3FF044645480168204601F04DFE434944
:103C700008600120FEF71DFE019001F09FFB044645
:103C800000223F4B01F0CEF906460F463D48006842
:103C900001F00EFE04460022274B01F0DFFB324606
:103CA0003B46CDE9020101F001F980460022234B99
:103CB00001F0B8F9824601F0C7F8324908600020E7
:103CC00008602148006801F062FB06460F462E4856
:103CD000006801F0EDFD00222C4BCDE9020157E018
:103CE0000400002068020020C3F5285C8FC2104049
:103CF0000000144000407F40900200208802002015
:103D00008C02002034080040340C0040000C0140BC
:103D1000380000200000494079E9263108AC6C3FAA
:103D2000D0020020C8020020C4020020CC020020E3
:103D3000C0020020E802002000C0584000005940A6
:103D4000E4020020A8000020340000209C02002093
:103D5000A0020020DC020020E0020020A4020020DB
:103D60009C0000202D431CEBE2362A3F1802002065
:103D7000A400002038020020D4020020B802002055
:103D80000040AF4094020020A802002000307F4095
:103D900001F064FB804632463B4601F087F804465A
:103DA0000022B64B01F03EF9824601F04DF8B449CD
:103DB00008600846006801F07BFD82464FF06632DD
:103DC000B04B01F02FF906460F46AF48006801F0EE
:103DD0006FFD804632463B4601F080FC044601F010
:103DE00033F8AA4908600846006801F061FD0446FE
:103DF0000022A74B01F032FB064601F025F8A54949
:103E000008600846006801F053FD04460022A24BFA
:103E100001F022FC03D24FF07E509E4908609D487D
:103E2000006801F045FD044600229C4B01F0DAFADF
:103E300002D29B48974908609648016899480068F3
:103E400001F062FD974908609748006801F030FD75
:103E5000064600228E4B01F001FB044600F0F4FF01
:103E6000924908600846006801F022FD04460022DD
:103E7000894B01F0F1FB03D24FF07E508B49086073
:103E80008A48006801F014FD04460022834B01F0CB
:103E9000A9FA02D2824885490860844801688448AA
:103EA000006801F031FD824908600D20FEF701FD38
:103EB000A0F5FA6B584601F04BFE824601F0F8FC83
:103EC000064600227B4B01F0ADF8804689467A48D1
:103ED000006801F0EDFC06460022784B01F0BEFAC6
:103EE000044642464B4600F0E1FF0022744BCDE908
:103EF000000101F097F8CDE9020100F0A5FF6E493D
:103F000008607048807A302828D16F4801686A4874
:103F1000006801F01DFF039001F0CAFC80466B4A67
:103F20006B4B01F09BFA82468B466A4801686A48EF
:103F3000006801F039FE814663480168484601F097
:103F4000E3FC804601F0B4FC044652465B4600F0B8
:103F5000ADFF064600F078FF5B4908605948807A5B
:103F600031280DD15B4801685B48006801F01CFEF8
:103F7000044655480168204601F0C6FC52490860D5
:103F80005148006801F094FC06460022404B01F0C5
:103F900065FA044600F058FF50490860084600687A
:103FA00001F086FC044600223B4B01F055FB03D296
:103FB0004FF07E50494908604848006801F078FC9D
:103FC00004460022354B01F00DFA02D23448434931
:103FD0000860424801684248006801F095FC404989
:103FE00008604048006838BBFEF796FCFEF7F1FC1D
:103FF000FEF762FDFEF7A6FD01203A4908600121A7
:104000003948FEF759F801213748FEF761F80120D9
:104010003649086004E035480068401C33490860B0
:10402000324800680428F6DB01213148FEF744F8E5
:1040300001212F48FEF74CF8FFF710FAFFF7C8FAF6
:10404000FFF780FB2B480088401C00B229490880FC
:104050000846B0F90000322801DB0020088000206B
:104060002549086000224FF480512448FDF7B3F938
:10407000002023490860BDE8FF9F000000407F400A
:10408000A802002066A64C403802002094000020C0
:10409000000049403C0200200000F03F0000F0BF5B
:1040A000000080BF900000209C0000205C020020E7
:1040B000980000200040AF409802002000C0584007
:1040C0000000594004000020A40000207B14AE47EB
:1040D000E17A843F18020020E00200207C020020E8
:1040E000A000002014020020000C004080020020EC
:1040F00000080040EC02002000000020000C0140FD
:104100004400002000B587B04FF48060ADF818007F
:1041100018208DF81B0003208DF81A0006A92548E9
:10412000FDF7AAF84FF40060ADF8180028208DF8CC
:104130001B0006A91F48FDF79FF86846FCF755F9D4
:1041400069461D48FCF740F94FF4165002900020D4
:10415000ADF80C00ADF80E00ADF810000C20ADF875
:1041600012000020ADF8140002A91348FCF7B7F8BC
:10417000012240F225511048FCF749F901210E486F
:10418000FCF739F907B000BD00BF0B49098811F0F1
:10419000800FFAD00849091D0880704700B5024613
:1041A00003E01078FFF7F0FF521C10780028F8D1D8
:1041B00000BD000000100140004C00400FB41CB5D1
:1041C000074B06AA7B4469460090059800F07BF8EF
:1041D0000020694600F08AF81CBC5DF814FB000062
:1041E000250100002DE9F04104460E4600200AE0BA
:1041F000E1682046884738B3252806D0D4E9012154
:104200009047206A401C2062F2E7E16820460027C0
:104210008847050018D0A5F14100192802D820359B
:104220004FF400673246294620462760FBF7DAFF45
:1042300040B1012804D0F61D26F007060836D7E75E
:10424000361DD5E72846D9E7206ABDE8F08170B56C
:1042500005460C46012A05D02868800600D5EA6983
:10426000002302E0012305E05B1C934202D2E05CE4
:104270000028F9D1A869E618C01AA861286A18446C
:1042800028622846AFF3008004E0D5E9012114F844
:10429000010B9047B442F8D32846AFF3008070BDBD
:1042A00070477047704710B500F03CF8006810BDCB
:1042B00010B5044600F036F8046010BD01694A1CD0
:1042C00002610878704700B58FB0CDE90131002157
:1042D000059105497944CDE9031011466846FFF779
:1042E00081FF0FB000BD0000E5FFFFFF0A6802F884
:1042F000010B0A60704710B5436913B1AFF300803A
:1043000001E0FFF7A4FF012010BD126800F12401B5
:104310000A7000224A700122EDE711684FF0FF3267
:10432000E9E7000000487047FC02002000487047A1
:10433000FC0200207546FFF7F9FFAE46050069460E
:10434000534620F00700854618B020B5FBF772FFF2
:10435000BDE820404FF000064FF000074FF0000886
:104360004FF0000B21F00701AC46ACE8C009ACE807
:10437000C009ACE8C009ACE8C0098D4670470446E6
:10438000AFF300802046FBF741FF00000048704774
:104390000003002001491820ABBEFEE72600020002
:1043A0007047490050EAC12018BF04204A0D18BFC9
:1043B00040F0010040F2FF72B2EB515F08BF40F0E5
:1043C0000200012808BF0520704700002DE9F74FC3
:1043D000144696B00021C4E902111799099121F001
:1043E0000047C9498F4206DC1799C4E9000119B09A
:1043F0000020BDE8F08FC549C54EB94241DD09999D
:10440000DFF81083DFF810A3C44A00291BDD334610
:10441000179901F063F9B74206D0C14AC14B01F0C8
:104420005DF9C4E900010AE04FF0D352BD4B01F041
:1044300055F94246534601F051F9C4E9000119B05B
:104440000120BDE8F08F35463346179900F02EFD68
:10445000AF4206D0B24AB34B00F028FDC4E90001D8
:104460000AE04FF0D352AF4B00F020FD42465346D6
:1044700000F01CFDC4E9000119B04FF0FF30BDE8A9
:10448000F08FA9498F42179977DC21F000458346C8
:10449000A64AA74B294600F0E1FF0022A54B00F0F9
:1044A00005FD00F017FF0A9000F071FF80468A4674
:1044B0009A4A334600F0D2FF2B465A4601F002F9E1
:1044C00005460E46964A974B4046514600F0C6FFB9
:1044D0003A0D01270C922A46334601F0F3F8032FD8
:1044E000C4E9000138D00C98C1F30A51401A07EB17
:1044F0004711113988422FDD8F480096784400EB30
:1045000007100D90D0E90023AB464046514600F01D
:10451000A5FFCDE9040102460B465846009901F07B
:10452000DDF805460E4602460B465846009901F056
:10453000D5F8DDE9042301F0D1F883460D98049104
:104540005146D0E90223404600F088FF5A46049BBA
:1045500001F0C4F87F1CBEE709980028A2BF0A98A2
:1045600019B0BDE8F08F616881F0004161600A9880
:1045700019B04042BDE8F08FFFE784461798C1F3B9
:104580001301C0F30A5041F48011A0F2F5300591F7
:10459000411100F01F08C8F1200012900020109077
:1045A00011906648784400EB810000F1140311A8D3
:1045B000062719685D68129A01FA08F125FA02F2D5
:1045C0001143059AD0F800A0A1FB0256A1FB0C21D3
:1045D00092440D44924534BF4FF0010B4FF0000B55
:1045E00050F8042C05EB0B0E72448D4234BF0121B0
:1045F00000213144BBF1000F02D0AA4202D903E0EE
:10460000AA4201D2012500E000252944C0F800A0FB
:1046100040E902121B1F001F7F1ECAD10C980F9F7A
:1046200000F10050800F12900C98DDE90D568000CB
:1046300000F0ADFECDE90801284600F0BFFE6FF0A6
:104640001D0201F02CFCCDE90601304600F0B6FE5B
:104650006FF03D0201F023FC82468B46384600F0A5
:10466000ADFE6FF05D0201F01AFC07468846524627
:104670005B4600F01BFCDDE9062300F017FCDDE9DA
:10468000082300F013FCDDE9082300250E46284628
:1046900001F024F8DDE9062301F020F852465B46DC
:1046A00001F01CF83A46434601F00CF8DFF894A0FC
:1046B000234A534600F0D2FE80460F46224A234B3F
:1046C0003146284600F0CAFE42463B4600F0EEFB6B
:1046D000074688464FF0A84253463146284600F028
:1046E000BDFE3A46434600F0E1FB179A12F0004F38
:1046F00004D0129A81F0004152421292C4E90001A2
:10470000129819B0BDE8F08FFB21E93F7CD9024037
:10471000FB21F93F7370032E8A19A33B000040541C
:104720003163621A61B4D03DFB21394183C8C96D40
:10473000305FE43F0000E03F001B0000881A0000EB
:10474000182D4454FB21F93D3326A611460B113C8C
:104750002DE9FF4D21F0004807460C46B8F1795F7E
:1047600008DA00F0B7FD002801BF0020324904B08C
:10477000BDE8F08D3A4623461046194600F06EFE1D
:10478000054602462D480E460B460621784400F0A9
:104790005DF82A46334600F061FEDDE902238246D9
:1047A0008B463846214600F059FE04460F465246D5
:1047B0005B462846314600F051FE22463B4600F05B
:1047C0008DFF07468A464FF0FF322846314601F0FA
:1047D00066FB1B4A90450ADA3A46534600F07EFFD4
:1047E00004B00022BDE8F04D134B00F06BBF154A3A
:1047F0004245A8BFA8F500154FF00004B8BF124D00
:1048000022462B4600F06AFF0646884622462B4683
:104810000020094900F062FF04460D463A4653461F
:104820003046414600F05AFF04B022462B46BDE810
:10483000F04D00F047BF00000000F03F38180000C6
:104840003333D33F0000E93F0000D23F2DE9F04170
:104850004F1E00EBC7010446D1E9000115461E4674
:1048600037F006020DD02A46334600F0F7FD7F1ED2
:1048700004EBC703D3E9002300F018FB37F006026E
:10488000F1D1022F25D0042F13D0062F18BFBDE879
:10489000F0812A46334600F0E1FDD4E90A2300F016
:1048A00005FB2A46334600F0D9FDD4E9082300F081
:1048B000FDFA2A46334600F0D1FDD4E9062300F084
:1048C000F5FA2A46334600F0C9FDD4E9042300F086
:1048D000EDFA2A46334600F0C1FDD4E9022300F088
:1048E000E5FA2A46334600F0B9FDD4E90023BDE8D5
:1048F000F04100F0DBBA00002DE9FF4D054621F044
:10490000004084B00C46B0F1795F0BDA2846FFF71F
:1049100048FD042808BF00F065F8284608B0214685
:10492000BDE8F08D2A460B46104600F097FD06467E
:104930000F462A46234600F091FD804626488A46C7
:1049400032463B4605217844FFF780FF83461098A6
:10495000029160B3214A224B4046514600F07EFD51
:10496000CDE900015A4640465146029B00F076FDD3
:1049700082468846DDE906014FF0FF3201F08FFAEA
:104980005246434600F0AAFE32463B4600F066FD22
:10499000DDE9062300F0A2FEDDE9002300F09EFE23
:1049A00008B02A462346BDE8F04D00F08BBE0B460A
:1049B0005A463046394600F051FD084A084B00F08F
:1049C00075FA4246534600F049FD08B02A46234690
:1049D000BDE8F04D00F06ABA7E1700004955555504
:1049E0005555C5BF024A0020110701F058BA000012
:1049F00001FDFFFF2DE9F84F04460D4621F0004070
:104A000000917449884213DB7349884201DC08D164
:104A10003CB120462946BDE8F84F4FF0010201F0B5
:104A20003EBA6E48002DCCBF6D496E49BDE8F88F87
:104A30006D49884211DA6D498842A8BF4FF0FF36B0
:104A40006DDA20462946FFF7ACFC042808BFFFF7C3
:104A5000C9FF20462946BDE8F88F6549DFF894A1D3
:104A600025F00045884232DA6349884219DA002687
:104A700032464FF080432046294600F017FA074699
:104A8000884601222046294601F009FA00225346B1
:104A900000F024FE3A46434600F0C4FA04460D46B0
:104AA0003DE00126002253462046294600F0FEF94B
:104AB00007468846002253462046294600F00EFE4F
:104AC00043463A4600F0AEFA04460D4627E04B490D
:104AD00088421BDADFF8288102260022434620465E
:104AE000294600F0BBFC0022534600F0DFF9824665
:104AF0000F46002243462046294600F0EFFD52466D
:104B00003B4600F08FFA04460D4608E00326224695
:104B10002B4600203B4900F085FA04460D4622460C
:104B20002B461046194600F099FC8B4682460246F9
:104B30000B4600F093FC07460246334888460B4676
:104B400006217844FFF782FE52465B4600F086FC61
:104B500082462E488B463A46434605217844FFF765
:104B600075FE3A46434600F079FC02460B46002E9D
:104B7000504659460CDA00F099F922462B4600F0CF
:104B80006DFC01B022462B46BDE8F04F00F09ABD07
:104B900000F08CF922462B4600F060FC1C4A7A4457
:104BA00002EBC603D3E9002300F098FD22462B4612
:104BB00000F094FD174A7A4402EBC603D3E90023C0
:104BC00000F080FD009A002AB8BF81F00041BDE8E6
:104BD000F88F0000000010440000F07F182D4454AE
:104BE000FB21F93FFB21F9BF0000DC3F0000203E24
:104BF0000000F33F0000F03F0000E63F008003406C
:104C00000000F83F0000F0BF521400001014000034
:104C1000AE130000761300002DE9F04D9446CCF160
:104C2000000423F000464CEA0404524F46EAD474D0
:104C300098468A4621F00042BC4206D8454240EAE6
:104C4000050442EAD474BC4204D9BDE8F04D624682
:104C500000F02CB9A8F14055A5F17F6555EA0C0488
:104C60000BD0022404EAA874434DDFF810E144EAB3
:104C7000DA7452EA000B04D00CE0BDE8F04DFFF707
:104C8000B9BE002C14BF012CBDE8F08D022C30D031
:104C9000032C32D056EA0C0B0AD0BE4220D1BA42C5
:104CA00009D126F0804622F080423346114617E0B3
:104CB00000291ADB25E0DFF8C8B0FB44002C04BF54
:104CC000DBE90001BDE8F08D012C02BFDBE900014A
:104CD00081F00041BDE8F08D022C0AD0032C0CD0ED
:104CE000BA4212D1BAF1000F0BDA23482549BDE8C8
:104CF000F08D28462449BDE8F08D28467146BDE870
:104D0000F08D1D482149BDE8F08D921B12153C2AFB
:104D1000C4BF19481D490EDCB8F1000FBEBF12F127
:104D20003C0F0020014606DB624600F07BF921F0D3
:104D30000041FFF75FFE002C08BFBDE8F08D012C9D
:104D400004BF81F00041BDE8F08D114A114B022CE7
:104D500007D000F0C3FC2A46BDE8F04D0A4B00F036
:104D6000BDBC00F0BBFC2A46BDE8F04D064B00F090
:104D7000A9BC00000000F07F182D4454FB2109C09D
:104D80003A130000FB21F9BFFB210940FB21F93F49
:104D9000075C143326A6A13C00B5294B21F0004244
:104DA00087B09A4203DC00221346009233E0254B81
:104DB0009A420DD168B94FF00100FFF779FA00224D
:104DC00007B01346104611465DF804EB00F02AB90F
:104DD00006DB07B04FF001025DF804EB01F05FB8AD
:104DE00002AAFFF7F3FA10F003014FF001000DD013
:104DF000012914D002291AD00DF1080CBCE80F00CB
:104E0000FFF7A6FC07B081F0004100BD0DF1080CD2
:104E10000090BCE80F00FFF76FFD07B000BD0DF17B
:104E2000080CBCE80F00FFF793FC07B000BD0DF1C4
:104E3000080C0090BCE80F00FFF75EFDE2E7000001
:104E4000FB21E93F0000F07F21F00042A2F1605217
:104E5000B2F5801F01F0004328BFD2F17F6C0BD95F
:104E60005FEA001C43EAC20242EB507018BF704771
:104E700028BF20F001007047B2F5801FBCBF184664
:104E800070474FEA410C1CF5001F02D2084600F0A3
:104E900059BF70B500F08CFB00000089FFF7F6BF2A
:104EA0004FF00040A0F580007047000010B591EA77
:104EB000030F48BF83F0004300F11884841A71EB9C
:104EC000030C05D2121943EB0C03001B61EB0C0120
:104ED000DFF824E14FEA1154A4EB135C1EEA430F00
:104EE00018BF9EEA445F73D023EA0E03DCF1200E64
:104EF00021EA045143F4801332D322FA0CFE10EB62
:104F00000E0023FA0CFE41EB0E01CCF1200E03FA49
:104F10000EFE10EB0E0051F10001B1F5801FCCF137
:104F2000200E32D201EB045112FA0EF2BDE810400D
:104F300058BF7047401C38BF5FEA420218BF704735
:104F4000002814BF20F0010041F100014FEA4103A5
:104F500013F5001F38BF7047A1F1C04100F076BBC8
:104F6000012A43EB0302ACF1200CDCF11F0E32BF2F
:104F70004FF0000E23FA0CF310EB030041EB045149
:104F8000B4EB115FD0D0A1EB045101F580114908B9
:104F90005FEA300001EB04510ED350F1000038BF3E
:104FA00012FA0EFE08D1BDE81040C9E7401C38BF18
:104FB0005FEA4202CAD1C3E7BDE810404FEA4103AD
:104FC00013F5001F38BF7047A1F1C04100F03EBB90
:104FD0009EEA445F08D011EA5E0FBDE8104004BFAE
:104FE00001F0004100207047BDE8104070B500F0AE
:104FF000DFFA00BF64FBBE3E0000E0FF02494FF055
:10500000000000F01ABF00BF0000F87F491058BF31
:10501000C1F140415B1058BFC3F140438B42EFF3F5
:10502000008070472DE9C04130B4DFF8A0C23CEAEF
:10503000111418BF3CEA131400F0EC8081EA030558
:105040001CEA111444EAD57418BF1CEA131500F0C9
:10505000C780A4EB05044FF0004545EAC12145EAAD
:10506000C32341EA505143EA525304F17F749942F9
:1050700004F500344FEAC0204FEAC22208BF904234
:1050800000F09C804FEA13650FF24016765D4FEA00
:10509000134506FB05F7C7F1807706FB07F74FEAD4
:1050A000D737A7FB03687642C8F58038A7FB06CE42
:1050B00038BFA8F1010807FB08E64FF0000EA6FB79
:1050C000028CE6FB03CEDCF1000CCEF1004E38BFC3
:1050D000AEF1010EA6FB0C584FF000074FF0000593
:1050E000E6FB0E87A1FB08C6A0FB07CE16EB0E065B
:1050F00045F10005E1FB076515F1E04E7EBFA4F523
:1051000080345FEA46066D4116F1800745F10005DF
:105110004FEA17274FEA066647EA0567A6F1DE461B
:10512000B6F1805F4FEA15251FD9384624F0010CEF
:1051300005EBC471BCF1FE6F01EB0C1102D8F0BCA1
:10514000BDE8008124425CBF01F5801E9EEAC47F59
:1051500002D4F0BCBDE80081244238D4F0BCA1F1F7
:10516000C041BDE8004100F071BA4FEAD22242EAE4
:1051700043524FEAD323A7FB02864FEAD02040EAEE
:10518000415007FB03661EEA0E0F4FEAD12105FBD3
:10519000026658BFA6EB0056B6EB00564FEA520E19
:1051A0004EEAC37E18EB0E0E56EB530EBDD518EB30
:1051B00002085E417F1C55F10005B6E74FF48015EB
:1051C0004FF000074FF000064FF00008ADE7F0BCCD
:1051D0004FF0000001F1C04101F00041BDE8008145
:1051E00011EA0C1F0CEA131500D00CE013EA0C1F97
:1051F00000F025804FF00000F0BC81EA030101F0CF
:105200000041BDE80081F0BCBDE8004181EA030136
:1052100000F01CBAF0BCBDE8004170B500F0C8F960
:10522000097EFC3E00F007B881EA03014FF0000060
:1052300001F00041704781EA030100F007BAF0BCB9
:10524000BDE800414FF0000021497047FFFDFBF928
:10525000F7F5F4F2F0EEEDEBE9E8E6E4E3E1E0DEA9
:10526000DDDBDAD8D7D5D4D3D1D0CFCDCCCBCAC81B
:10527000C7C6C5C4C2C1C0BFBEBDBCBBBAB9B8B742
:10528000B6B5B4B3B2B1B0AFAEADACABAAA9A8A835
:10529000A7A6A5A4A3A3A2A1A09F9F9E9D9C9C9B03
:1052A0009A999998979796959594939392919190AE
:1052B0008F8F8E8E8D8C8C8B8B8A8989888887873F
:1052C0008685858484838382828181800000FF07B4
:1052D0000000F87F4FEA41034FEA5353A3F5806380
:1052E000D3F11E03C8BFD3F1210C0CDD4FF00042F7
:1052F00042EAC12242EA505232FA03FC8CEAE17CD3
:10530000ACEBE1707047102BC4BF0020704703F571
:10531000787CBCF1FF3F04D06FF0004282EA2100AC
:10532000704770B500F044F949922480002070471E
:10533000F2E700004FEA1153A3F58063D3F11E0397
:10534000A8BFD3F1200C08DB4FF0004242EAC12293
:1053500052EA505232FA03F0704709420BD4102B34
:10536000C4BF0020704703F5787CBCF1FF3F05D037
:105370004FF0FF3070474FF00000704770B500F0FD
:1053800017F900BF4992248000207047F0E710F021
:10539000004248BF4042B0FA80F310FA03F10AD04D
:1053A000C3F11D0303F580634FEA415002EB035242
:1053B00002EBD12170474FF000007047B0FA80F344
:1053C00010FA03F10AD0C3F11D0303F580634FEA1D
:1053D00041504FEA035202EBD12170474FF00000D9
:1053E0007047000051EA030C17D41CF5801F58BF0A
:1053F000BCF5801F00F10680994218BF704708BFB6
:105400009042704707D711F5801F58BF13F5801FD2
:1054100019D499427047894270471CF5801F08D5FE
:10542000BCF5801FF7D58B4218BF704708BF82427A
:1054300070474FF4001C1CEB410F38BF1CEB430FAF
:1054400001D28B42704770B500F0B2F89224490047
:105450004FF000514FF08053FFF7D8BDDFF848C13F
:1054600070B51CEA111E1EBF1CEA13159EEA0C0F34
:1054700095EA0C0F00F06F8081EA030423EA4C13D5
:105480004EEAD47E21EA4C1141F4801143F480139A
:10549000AE44A1FB024CA0FB0365AEF17F7E361942
:1054A00055EB0C05A1FB034C4CF10003A0FB021CC7
:1054B00016EB0C06654153F10003094218BF46F094
:1054C000010613F4007F0BD14FEA03314FEA053098
:1054D000340341EA155140EA16506FF003020AE026
:1054E0004FEAC3214FEAC520F40241EA555140EA90
:1054F00056506FF0020202EB2E4201EB025585EA94
:10550000CE710AD05FEA440C18BF24F0004450F179
:10551000000041F1000120EAD47040F2FE7C6245B7
:1055200000D270BDA84214BF4FF080444FF04044F9
:10553000002E08BF0024BEF1806FA8BFA1F1C041BA
:10554000BDE8704080F282804FF0000001F1C04160
:1055500001F0004170479EEA0C0F0CEA131518BFCA
:1055600095EA0C0F06D04FF0000081EA030E0EF012
:10557000004170BD00F01CF88900013E00F007B842
:1055800000F009B84FEA430C5FEA5C5C08D081EA9E
:10559000030100F05BB84FEA410C5FEA5C5CF6D1B6
:1055A0004FF00000014970470000FF070000F87F3E
:1055B0000EF1020E2EF0030E5EF8046B364205D497
:1055C000012A43EB030515F5001F12D8012841EB12
:1055D000010C1CF5001F0CD80ED14FEAD17C15F53B
:1055E000001F0CEB4C0C0CF1020C08BF4CEBD37CF5
:1055F00004E04FF0080C01E04FEAD37C0CEB4C05C3
:1056000026FA05F606F00706B6F1040C06D20EEBF4
:10561000860CBDE870404CF0010C6047DFE80CF0F0
:10562000090B02024FF000414FF00000A1F50021EC
:1056300070BD19461046012851EB010418BFD4F57E
:10564000001484BF002001F0004170BD0808A0F5DF
:1056500000114FEA3101704753EA010C17D41CF5D1
:10566000801F58BFBCF5801F00F106808B4218BF19
:10567000704708BF8242704707D713F5801F58BF95
:1056800011F5801F19D48B4270479B4270471CF55F
:10569000801F08D5BCF5801FF7D5994218BF704709
:1056A00008BF904270474FF4001C1CEB430F38BFFB
:1056B0001CEB410F01D2994270470FB40CBC03BCE4
:1056C000FFF7C1BE91EA030F10B581F000413FF52D
:1056D000F5AB83F0004300F009B8000010B591EA83
:1056E000030F48BF83F000433FF5E8AB841A71EB2A
:1056F000030C07D212198CF0004C43EB0C03001B77
:1057000061EB0C01DFF8A4E14FEA1154A4EB135C48
:105710001EEA430F18BF9EEA445F00F0B08023EA00
:105720006E03524221EA0451C3EB6E0338BF5B1E85
:10573000DCF1200E25D322FA0CFE10EB0E0043FA0A
:105740000CFE41EB0E01CCF1200E03FA0EFE10EB25
:105750000E0051F10001CCF1200E29D412FA0EF204
:1057600001EB0451BDE8104058BF7047401C1CBFFE
:10577000B2F1004F704700280CBF491C20F0010017
:10578000704712EB020E43EB030218BF4FF0010EFD
:105790004EEA4202ACF1200CDCF11E0E54D943FA61
:1057A0000CFE10EB0E0051F1FF31CCF11E0ED5D5E1
:1057B0000EF1010E12FA0EFE404141EB010101EB28
:1057C000445C5FEA5C5C10D910EBDE7001EB0451C5
:1057D00038BFBEF1004FBDE8104018BF7047002829
:1057E0000CBF491C20F00100704730D24FEAD42C86
:1057F00011F5001124F400641BD0B1FA81F20B3AC8
:10580000A41AA41ED2F12003914030FA03F31943E5
:10581000904001EBCC71002C01EB0451BDE810402D
:10582000A8BF704701F1C0414FF0000001F00041F6
:105830007047B0FA80F310FA03F100D110BDE41AFA
:10584000173C4805C90AE4E701EB045110BD4910B3
:1058500001EB0451BDE810404FEA300002E04FF088
:10586000000170474A0008BF0042F8D0B2F5001F9F
:1058700028BF704701F000414FF0000070479EEADA
:10588000445F07D011EA5E0FBDE8104004BF00215D
:1058900000207047BDE8104070B5FFF789FE00BFDB
:1058A00040DFF63E83F00041104670470000E0FF05
:1058B00043004FEAD30C4FEA3C0C43401FBF400764
:1058C0000CF1605113F0FE4F70471CF0006F03D1D4
:1058D00000200CF0004170470CF0004343EA507088
:1058E00010B540EACC0000F0E0F900BF00000092E3
:1058F0004FEA0001FFF7AABE4FF000414FF0000051
:10590000A1F500217047000090EA010F48BF81F027
:10591000004100F12482421A3CBF801A89184FEAE4
:10592000D0524FF07F4C1CEA410FA2EBD15318BF6D
:105930009CEA026F00F03B804FF0004C4CEA0020E4
:105940004CEA012121FA03FC10EB0C0C1ED202F1EF
:10595000FF325FEA1C2040EBC25038BF70471CF09A
:105960007F0F4FEA400C18BFBCF17F4F38BF704724
:10597000C3F12003994008BF20F00100BCF17F4F24
:1059800038BF7047A0F1C04000F0DCB94FEA3C00DE
:10599000000A40EBC25028BF1CF0FF0F4FEA400C3A
:1059A000E6D018BFBCF17F4F38BF7047EAE79CEAEA
:1059B000026F05D010EA5C0F08BF00F0004070478E
:1059C00010B500F072F900BF64FBBE3E4FF47F0CCF
:1059D0001CEAD0121EBF1CEAD11392EA0C0F93EA04
:1059E0000C0F00F0858090EA010F48BF42F48072EE
:1059F00040F4000C41F400002CF07F4120F07F4087
:105A000000B58142A2EB03020FF2081CACEB504E32
:105A1000C0F100009EF800E04FEA4E0E00FB0EFCC5
:105A200038BF49004FEA2C1C02F5FA020CFB0EF3BA
:105A30004FEACE1E4FEA112C4FEAC1210EEB635EF6
:105A400042EB22420EFB0CFC4FEA1C5300FB0311FD
:105A50004FEA112C4FEA01310EFB0CFC4FEADC4CF3
:105A600000FB0C11C14228BF09184CEB03335DF851
:105A700004EB10EB410143EBC250B2F57C0F38BF91
:105A8000704729D512F0F00F1CBF00F1C04000F0A4
:105A900000407047008182838485868788898B8C4B
:105AA0008D8E8F919293959697999A9C9D9FA0A287
:105AB000A3A5A7A8AAACAEB0B2B3B5B7B9BCBEC0D7
:105AC000C2C5C7C9CCCED1D4D7D9DCDFE2E6E9EC78
:105AD000F0F3F7FAFE0000004FEA400C0CF1807C76
